{
	"contracts/DataTypes.sol": {
		"myGame": {
			"abi": [
				{
					"inputs": [
						{
							"internalType": "string",
							"name": "firstName",
							"type": "string"
						},
						{
							"internalType": "string",
							"name": "lastName",
							"type": "string"
						}
					],
					"name": "addPlayer",
					"outputs": [],
					"stateMutability": "nonpayable",
					"type": "function"
				},
				{
					"inputs": [],
					"name": "playerCount",
					"outputs": [
						{
							"internalType": "uint256",
							"name": "",
							"type": "uint256"
						}
					],
					"stateMutability": "view",
					"type": "function"
				},
				{
					"inputs": [
						{
							"internalType": "address",
							"name": "",
							"type": "address"
						}
					],
					"name": "players",
					"outputs": [
						{
							"internalType": "string",
							"name": "firstName",
							"type": "string"
						},
						{
							"internalType": "string",
							"name": "lastName",
							"type": "string"
						}
					],
					"stateMutability": "view",
					"type": "function"
				}
			],
			"devdoc": {
				"kind": "dev",
				"methods": {},
				"version": 1
			},
			"evm": {
				"assembly": "    /* \"contracts/DataTypes.sol\":67:373  contract myGame {... */\n  mstore(0x40, 0x80)\n    /* \"contracts/DataTypes.sol\":116:117  0 */\n  0x00\n    /* \"contracts/DataTypes.sol\":90:117  uint public playerCount = 0 */\n  dup1\n  sstore\n    /* \"contracts/DataTypes.sol\":67:373  contract myGame {... */\n  callvalue\n  dup1\n  iszero\n  tag_1\n  jumpi\n  0x00\n  dup1\n  revert\ntag_1:\n  pop\n  dataSize(sub_0)\n  dup1\n  dataOffset(sub_0)\n  0x00\n  codecopy\n  0x00\n  return\nstop\n\nsub_0: assembly {\n        /* \"contracts/DataTypes.sol\":67:373  contract myGame {... */\n      mstore(0x40, 0x80)\n      callvalue\n      dup1\n      iszero\n      tag_1\n      jumpi\n      0x00\n      dup1\n      revert\n    tag_1:\n      pop\n      jumpi(tag_2, lt(calldatasize, 0x04))\n      shr(0xe0, calldataload(0x00))\n      dup1\n      0x302bcc57\n      eq\n      tag_3\n      jumpi\n      dup1\n      0x5cb119a9\n      eq\n      tag_4\n      jumpi\n      dup1\n      0xe2eb41ff\n      eq\n      tag_5\n      jumpi\n    tag_2:\n      0x00\n      dup1\n      revert\n        /* \"contracts/DataTypes.sol\":90:117  uint public playerCount = 0 */\n    tag_3:\n      tag_6\n      tag_7\n      jump\t// in\n    tag_6:\n      mload(0x40)\n      tag_8\n      swap2\n      swap1\n      tag_9\n      jump\t// in\n    tag_8:\n      mload(0x40)\n      dup1\n      swap2\n      sub\n      swap1\n      return\n        /* \"contracts/DataTypes.sol\":254:371  function addPlayer(string memory firstName, string memory lastName) public {... */\n    tag_4:\n      tag_10\n      0x04\n      dup1\n      calldatasize\n      sub\n      dup2\n      add\n      swap1\n      tag_11\n      swap2\n      swap1\n      tag_12\n      jump\t// in\n    tag_11:\n      tag_13\n      jump\t// in\n    tag_10:\n      stop\n        /* \"contracts/DataTypes.sol\":123:165  mapping (address => Player) public players */\n    tag_5:\n      tag_14\n      0x04\n      dup1\n      calldatasize\n      sub\n      dup2\n      add\n      swap1\n      tag_15\n      swap2\n      swap1\n      tag_16\n      jump\t// in\n    tag_15:\n      tag_17\n      jump\t// in\n    tag_14:\n      mload(0x40)\n      tag_18\n      swap3\n      swap2\n      swap1\n      tag_19\n      jump\t// in\n    tag_18:\n      mload(0x40)\n      dup1\n      swap2\n      sub\n      swap1\n      return\n        /* \"contracts/DataTypes.sol\":90:117  uint public playerCount = 0 */\n    tag_7:\n      sload(0x00)\n      dup2\n      jump\t// out\n        /* \"contracts/DataTypes.sol\":254:371  function addPlayer(string memory firstName, string memory lastName) public {... */\n    tag_13:\n        /* \"contracts/DataTypes.sol\":363:364  1 */\n      0x01\n        /* \"contracts/DataTypes.sol\":348:359  playerCount */\n      0x00\n      dup1\n        /* \"contracts/DataTypes.sol\":348:364  playerCount += 1 */\n      dup3\n      dup3\n      sload\n      tag_21\n      swap2\n      swap1\n      tag_22\n      jump\t// in\n    tag_21:\n      swap3\n      pop\n      pop\n      dup2\n      swap1\n      sstore\n      pop\n        /* \"contracts/DataTypes.sol\":254:371  function addPlayer(string memory firstName, string memory lastName) public {... */\n      pop\n      pop\n      jump\t// out\n        /* \"contracts/DataTypes.sol\":123:165  mapping (address => Player) public players */\n    tag_17:\n      mstore(0x20, 0x01)\n      dup1\n      0x00\n      mstore\n      keccak256(0x00, 0x40)\n      0x00\n      swap2\n      pop\n      swap1\n      pop\n      dup1\n      0x00\n      add\n      dup1\n      sload\n      tag_23\n      swap1\n      tag_24\n      jump\t// in\n    tag_23:\n      dup1\n      0x1f\n      add\n      0x20\n      dup1\n      swap2\n      div\n      mul\n      0x20\n      add\n      mload(0x40)\n      swap1\n      dup2\n      add\n      0x40\n      mstore\n      dup1\n      swap3\n      swap2\n      swap1\n      dup2\n      dup2\n      mstore\n      0x20\n      add\n      dup3\n      dup1\n      sload\n      tag_25\n      swap1\n      tag_24\n      jump\t// in\n    tag_25:\n      dup1\n      iszero\n      tag_26\n      jumpi\n      dup1\n      0x1f\n      lt\n      tag_27\n      jumpi\n      0x0100\n      dup1\n      dup4\n      sload\n      div\n      mul\n      dup4\n      mstore\n      swap2\n      0x20\n      add\n      swap2\n      jump(tag_26)\n    tag_27:\n      dup3\n      add\n      swap2\n      swap1\n      0x00\n      mstore\n      keccak256(0x00, 0x20)\n      swap1\n    tag_28:\n      dup2\n      sload\n      dup2\n      mstore\n      swap1\n      0x01\n      add\n      swap1\n      0x20\n      add\n      dup1\n      dup4\n      gt\n      tag_28\n      jumpi\n      dup3\n      swap1\n      sub\n      0x1f\n      and\n      dup3\n      add\n      swap2\n    tag_26:\n      pop\n      pop\n      pop\n      pop\n      pop\n      swap1\n      dup1\n      0x01\n      add\n      dup1\n      sload\n      tag_29\n      swap1\n      tag_24\n      jump\t// in\n    tag_29:\n      dup1\n      0x1f\n      add\n      0x20\n      dup1\n      swap2\n      div\n      mul\n      0x20\n      add\n      mload(0x40)\n      swap1\n      dup2\n      add\n      0x40\n      mstore\n      dup1\n      swap3\n      swap2\n      swap1\n      dup2\n      dup2\n      mstore\n      0x20\n      add\n      dup3\n      dup1\n      sload\n      tag_30\n      swap1\n      tag_24\n      jump\t// in\n    tag_30:\n      dup1\n      iszero\n      tag_31\n      jumpi\n      dup1\n      0x1f\n      lt\n      tag_32\n      jumpi\n      0x0100\n      dup1\n      dup4\n      sload\n      div\n      mul\n      dup4\n      mstore\n      swap2\n      0x20\n      add\n      swap2\n      jump(tag_31)\n    tag_32:\n      dup3\n      add\n      swap2\n      swap1\n      0x00\n      mstore\n      keccak256(0x00, 0x20)\n      swap1\n    tag_33:\n      dup2\n      sload\n      dup2\n      mstore\n      swap1\n      0x01\n      add\n      swap1\n      0x20\n      add\n      dup1\n      dup4\n      gt\n      tag_33\n      jumpi\n      dup3\n      swap1\n      sub\n      0x1f\n      and\n      dup3\n      add\n      swap2\n    tag_31:\n      pop\n      pop\n      pop\n      pop\n      pop\n      swap1\n      pop\n      dup3\n      jump\t// out\n        /* \"#utility.yul\":7:419   */\n    tag_35:\n        /* \"#utility.yul\":85:90   */\n      0x00\n        /* \"#utility.yul\":110:176   */\n      tag_37\n        /* \"#utility.yul\":126:175   */\n      tag_38\n        /* \"#utility.yul\":168:174   */\n      dup5\n        /* \"#utility.yul\":126:175   */\n      tag_39\n      jump\t// in\n    tag_38:\n        /* \"#utility.yul\":110:176   */\n      tag_40\n      jump\t// in\n    tag_37:\n        /* \"#utility.yul\":101:176   */\n      swap1\n      pop\n        /* \"#utility.yul\":199:205   */\n      dup3\n        /* \"#utility.yul\":192:197   */\n      dup2\n        /* \"#utility.yul\":185:206   */\n      mstore\n        /* \"#utility.yul\":237:241   */\n      0x20\n        /* \"#utility.yul\":230:235   */\n      dup2\n        /* \"#utility.yul\":226:242   */\n      add\n        /* \"#utility.yul\":275:278   */\n      dup5\n        /* \"#utility.yul\":266:272   */\n      dup5\n        /* \"#utility.yul\":261:264   */\n      dup5\n        /* \"#utility.yul\":257:273   */\n      add\n        /* \"#utility.yul\":254:279   */\n      gt\n        /* \"#utility.yul\":251:363   */\n      iszero\n      tag_41\n      jumpi\n        /* \"#utility.yul\":282:361   */\n      tag_42\n      tag_43\n      jump\t// in\n    tag_42:\n        /* \"#utility.yul\":251:363   */\n    tag_41:\n        /* \"#utility.yul\":372:413   */\n      tag_44\n        /* \"#utility.yul\":406:412   */\n      dup5\n        /* \"#utility.yul\":401:404   */\n      dup3\n        /* \"#utility.yul\":396:399   */\n      dup6\n        /* \"#utility.yul\":372:413   */\n      tag_45\n      jump\t// in\n    tag_44:\n        /* \"#utility.yul\":91:419   */\n      pop\n        /* \"#utility.yul\":7:419   */\n      swap4\n      swap3\n      pop\n      pop\n      pop\n      jump\t// out\n        /* \"#utility.yul\":425:564   */\n    tag_46:\n        /* \"#utility.yul\":471:476   */\n      0x00\n        /* \"#utility.yul\":509:515   */\n      dup2\n        /* \"#utility.yul\":496:516   */\n      calldataload\n        /* \"#utility.yul\":487:516   */\n      swap1\n      pop\n        /* \"#utility.yul\":525:558   */\n      tag_48\n        /* \"#utility.yul\":552:557   */\n      dup2\n        /* \"#utility.yul\":525:558   */\n      tag_49\n      jump\t// in\n    tag_48:\n        /* \"#utility.yul\":425:564   */\n      swap3\n      swap2\n      pop\n      pop\n      jump\t// out\n        /* \"#utility.yul\":584:924   */\n    tag_50:\n        /* \"#utility.yul\":640:645   */\n      0x00\n        /* \"#utility.yul\":689:692   */\n      dup3\n        /* \"#utility.yul\":682:686   */\n      0x1f\n        /* \"#utility.yul\":674:680   */\n      dup4\n        /* \"#utility.yul\":670:687   */\n      add\n        /* \"#utility.yul\":666:693   */\n      slt\n        /* \"#utility.yul\":656:778   */\n      tag_52\n      jumpi\n        /* \"#utility.yul\":697:776   */\n      tag_53\n      tag_54\n      jump\t// in\n    tag_53:\n        /* \"#utility.yul\":656:778   */\n    tag_52:\n        /* \"#utility.yul\":814:820   */\n      dup2\n        /* \"#utility.yul\":801:821   */\n      calldataload\n        /* \"#utility.yul\":839:918   */\n      tag_55\n        /* \"#utility.yul\":914:917   */\n      dup5\n        /* \"#utility.yul\":906:912   */\n      dup3\n        /* \"#utility.yul\":899:903   */\n      0x20\n        /* \"#utility.yul\":891:897   */\n      dup7\n        /* \"#utility.yul\":887:904   */\n      add\n        /* \"#utility.yul\":839:918   */\n      tag_35\n      jump\t// in\n    tag_55:\n        /* \"#utility.yul\":830:918   */\n      swap2\n      pop\n        /* \"#utility.yul\":646:924   */\n      pop\n        /* \"#utility.yul\":584:924   */\n      swap3\n      swap2\n      pop\n      pop\n      jump\t// out\n        /* \"#utility.yul\":930:1259   */\n    tag_16:\n        /* \"#utility.yul\":989:995   */\n      0x00\n        /* \"#utility.yul\":1038:1040   */\n      0x20\n        /* \"#utility.yul\":1026:1035   */\n      dup3\n        /* \"#utility.yul\":1017:1024   */\n      dup5\n        /* \"#utility.yul\":1013:1036   */\n      sub\n        /* \"#utility.yul\":1009:1041   */\n      slt\n        /* \"#utility.yul\":1006:1125   */\n      iszero\n      tag_57\n      jumpi\n        /* \"#utility.yul\":1044:1123   */\n      tag_58\n      tag_59\n      jump\t// in\n    tag_58:\n        /* \"#utility.yul\":1006:1125   */\n    tag_57:\n        /* \"#utility.yul\":1164:1165   */\n      0x00\n        /* \"#utility.yul\":1189:1242   */\n      tag_60\n        /* \"#utility.yul\":1234:1241   */\n      dup5\n        /* \"#utility.yul\":1225:1231   */\n      dup3\n        /* \"#utility.yul\":1214:1223   */\n      dup6\n        /* \"#utility.yul\":1210:1232   */\n      add\n        /* \"#utility.yul\":1189:1242   */\n      tag_46\n      jump\t// in\n    tag_60:\n        /* \"#utility.yul\":1179:1242   */\n      swap2\n      pop\n        /* \"#utility.yul\":1135:1252   */\n      pop\n        /* \"#utility.yul\":930:1259   */\n      swap3\n      swap2\n      pop\n      pop\n      jump\t// out\n        /* \"#utility.yul\":1265:2099   */\n    tag_12:\n        /* \"#utility.yul\":1353:1359   */\n      0x00\n        /* \"#utility.yul\":1361:1367   */\n      dup1\n        /* \"#utility.yul\":1410:1412   */\n      0x40\n        /* \"#utility.yul\":1398:1407   */\n      dup4\n        /* \"#utility.yul\":1389:1396   */\n      dup6\n        /* \"#utility.yul\":1385:1408   */\n      sub\n        /* \"#utility.yul\":1381:1413   */\n      slt\n        /* \"#utility.yul\":1378:1497   */\n      iszero\n      tag_62\n      jumpi\n        /* \"#utility.yul\":1416:1495   */\n      tag_63\n      tag_59\n      jump\t// in\n    tag_63:\n        /* \"#utility.yul\":1378:1497   */\n    tag_62:\n        /* \"#utility.yul\":1564:1565   */\n      0x00\n        /* \"#utility.yul\":1553:1562   */\n      dup4\n        /* \"#utility.yul\":1549:1566   */\n      add\n        /* \"#utility.yul\":1536:1567   */\n      calldataload\n        /* \"#utility.yul\":1594:1612   */\n      0xffffffffffffffff\n        /* \"#utility.yul\":1586:1592   */\n      dup2\n        /* \"#utility.yul\":1583:1613   */\n      gt\n        /* \"#utility.yul\":1580:1697   */\n      iszero\n      tag_64\n      jumpi\n        /* \"#utility.yul\":1616:1695   */\n      tag_65\n      tag_66\n      jump\t// in\n    tag_65:\n        /* \"#utility.yul\":1580:1697   */\n    tag_64:\n        /* \"#utility.yul\":1721:1784   */\n      tag_67\n        /* \"#utility.yul\":1776:1783   */\n      dup6\n        /* \"#utility.yul\":1767:1773   */\n      dup3\n        /* \"#utility.yul\":1756:1765   */\n      dup7\n        /* \"#utility.yul\":1752:1774   */\n      add\n        /* \"#utility.yul\":1721:1784   */\n      tag_50\n      jump\t// in\n    tag_67:\n        /* \"#utility.yul\":1711:1784   */\n      swap3\n      pop\n        /* \"#utility.yul\":1507:1794   */\n      pop\n        /* \"#utility.yul\":1861:1863   */\n      0x20\n        /* \"#utility.yul\":1850:1859   */\n      dup4\n        /* \"#utility.yul\":1846:1864   */\n      add\n        /* \"#utility.yul\":1833:1865   */\n      calldataload\n        /* \"#utility.yul\":1892:1910   */\n      0xffffffffffffffff\n        /* \"#utility.yul\":1884:1890   */\n      dup2\n        /* \"#utility.yul\":1881:1911   */\n      gt\n        /* \"#utility.yul\":1878:1995   */\n      iszero\n      tag_68\n      jumpi\n        /* \"#utility.yul\":1914:1993   */\n      tag_69\n      tag_66\n      jump\t// in\n    tag_69:\n        /* \"#utility.yul\":1878:1995   */\n    tag_68:\n        /* \"#utility.yul\":2019:2082   */\n      tag_70\n        /* \"#utility.yul\":2074:2081   */\n      dup6\n        /* \"#utility.yul\":2065:2071   */\n      dup3\n        /* \"#utility.yul\":2054:2063   */\n      dup7\n        /* \"#utility.yul\":2050:2072   */\n      add\n        /* \"#utility.yul\":2019:2082   */\n      tag_50\n      jump\t// in\n    tag_70:\n        /* \"#utility.yul\":2009:2082   */\n      swap2\n      pop\n        /* \"#utility.yul\":1804:2092   */\n      pop\n        /* \"#utility.yul\":1265:2099   */\n      swap3\n      pop\n      swap3\n      swap1\n      pop\n      jump\t// out\n        /* \"#utility.yul\":2105:2469   */\n    tag_71:\n        /* \"#utility.yul\":2193:2196   */\n      0x00\n        /* \"#utility.yul\":2221:2260   */\n      tag_73\n        /* \"#utility.yul\":2254:2259   */\n      dup3\n        /* \"#utility.yul\":2221:2260   */\n      tag_74\n      jump\t// in\n    tag_73:\n        /* \"#utility.yul\":2276:2347   */\n      tag_75\n        /* \"#utility.yul\":2340:2346   */\n      dup2\n        /* \"#utility.yul\":2335:2338   */\n      dup6\n        /* \"#utility.yul\":2276:2347   */\n      tag_76\n      jump\t// in\n    tag_75:\n        /* \"#utility.yul\":2269:2347   */\n      swap4\n      pop\n        /* \"#utility.yul\":2356:2408   */\n      tag_77\n        /* \"#utility.yul\":2401:2407   */\n      dup2\n        /* \"#utility.yul\":2396:2399   */\n      dup6\n        /* \"#utility.yul\":2389:2393   */\n      0x20\n        /* \"#utility.yul\":2382:2387   */\n      dup7\n        /* \"#utility.yul\":2378:2394   */\n      add\n        /* \"#utility.yul\":2356:2408   */\n      tag_78\n      jump\t// in\n    tag_77:\n        /* \"#utility.yul\":2433:2462   */\n      tag_79\n        /* \"#utility.yul\":2455:2461   */\n      dup2\n        /* \"#utility.yul\":2433:2462   */\n      tag_80\n      jump\t// in\n    tag_79:\n        /* \"#utility.yul\":2428:2431   */\n      dup5\n        /* \"#utility.yul\":2424:2463   */\n      add\n        /* \"#utility.yul\":2417:2463   */\n      swap2\n      pop\n        /* \"#utility.yul\":2197:2469   */\n      pop\n        /* \"#utility.yul\":2105:2469   */\n      swap3\n      swap2\n      pop\n      pop\n      jump\t// out\n        /* \"#utility.yul\":2475:2593   */\n    tag_81:\n        /* \"#utility.yul\":2562:2586   */\n      tag_83\n        /* \"#utility.yul\":2580:2585   */\n      dup2\n        /* \"#utility.yul\":2562:2586   */\n      tag_84\n      jump\t// in\n    tag_83:\n        /* \"#utility.yul\":2557:2560   */\n      dup3\n        /* \"#utility.yul\":2550:2587   */\n      mstore\n        /* \"#utility.yul\":2475:2593   */\n      pop\n      pop\n      jump\t// out\n        /* \"#utility.yul\":2599:3113   */\n    tag_19:\n        /* \"#utility.yul\":2760:2764   */\n      0x00\n        /* \"#utility.yul\":2798:2800   */\n      0x40\n        /* \"#utility.yul\":2787:2796   */\n      dup3\n        /* \"#utility.yul\":2783:2801   */\n      add\n        /* \"#utility.yul\":2775:2801   */\n      swap1\n      pop\n        /* \"#utility.yul\":2847:2856   */\n      dup2\n        /* \"#utility.yul\":2841:2845   */\n      dup2\n        /* \"#utility.yul\":2837:2857   */\n      sub\n        /* \"#utility.yul\":2833:2834   */\n      0x00\n        /* \"#utility.yul\":2822:2831   */\n      dup4\n        /* \"#utility.yul\":2818:2835   */\n      add\n        /* \"#utility.yul\":2811:2858   */\n      mstore\n        /* \"#utility.yul\":2875:2953   */\n      tag_86\n        /* \"#utility.yul\":2948:2952   */\n      dup2\n        /* \"#utility.yul\":2939:2945   */\n      dup6\n        /* \"#utility.yul\":2875:2953   */\n      tag_71\n      jump\t// in\n    tag_86:\n        /* \"#utility.yul\":2867:2953   */\n      swap1\n      pop\n        /* \"#utility.yul\":3000:3009   */\n      dup2\n        /* \"#utility.yul\":2994:2998   */\n      dup2\n        /* \"#utility.yul\":2990:3010   */\n      sub\n        /* \"#utility.yul\":2985:2987   */\n      0x20\n        /* \"#utility.yul\":2974:2983   */\n      dup4\n        /* \"#utility.yul\":2970:2988   */\n      add\n        /* \"#utility.yul\":2963:3011   */\n      mstore\n        /* \"#utility.yul\":3028:3106   */\n      tag_87\n        /* \"#utility.yul\":3101:3105   */\n      dup2\n        /* \"#utility.yul\":3092:3098   */\n      dup5\n        /* \"#utility.yul\":3028:3106   */\n      tag_71\n      jump\t// in\n    tag_87:\n        /* \"#utility.yul\":3020:3106   */\n      swap1\n      pop\n        /* \"#utility.yul\":2599:3113   */\n      swap4\n      swap3\n      pop\n      pop\n      pop\n      jump\t// out\n        /* \"#utility.yul\":3119:3341   */\n    tag_9:\n        /* \"#utility.yul\":3212:3216   */\n      0x00\n        /* \"#utility.yul\":3250:3252   */\n      0x20\n        /* \"#utility.yul\":3239:3248   */\n      dup3\n        /* \"#utility.yul\":3235:3253   */\n      add\n        /* \"#utility.yul\":3227:3253   */\n      swap1\n      pop\n        /* \"#utility.yul\":3263:3334   */\n      tag_89\n        /* \"#utility.yul\":3331:3332   */\n      0x00\n        /* \"#utility.yul\":3320:3329   */\n      dup4\n        /* \"#utility.yul\":3316:3333   */\n      add\n        /* \"#utility.yul\":3307:3313   */\n      dup5\n        /* \"#utility.yul\":3263:3334   */\n      tag_81\n      jump\t// in\n    tag_89:\n        /* \"#utility.yul\":3119:3341   */\n      swap3\n      swap2\n      pop\n      pop\n      jump\t// out\n        /* \"#utility.yul\":3347:3476   */\n    tag_40:\n        /* \"#utility.yul\":3381:3387   */\n      0x00\n        /* \"#utility.yul\":3408:3428   */\n      tag_91\n      tag_92\n      jump\t// in\n    tag_91:\n        /* \"#utility.yul\":3398:3428   */\n      swap1\n      pop\n        /* \"#utility.yul\":3437:3470   */\n      tag_93\n        /* \"#utility.yul\":3465:3469   */\n      dup3\n        /* \"#utility.yul\":3457:3463   */\n      dup3\n        /* \"#utility.yul\":3437:3470   */\n      tag_94\n      jump\t// in\n    tag_93:\n        /* \"#utility.yul\":3347:3476   */\n      swap2\n      swap1\n      pop\n      jump\t// out\n        /* \"#utility.yul\":3482:3557   */\n    tag_92:\n        /* \"#utility.yul\":3515:3521   */\n      0x00\n        /* \"#utility.yul\":3548:3550   */\n      0x40\n        /* \"#utility.yul\":3542:3551   */\n      mload\n        /* \"#utility.yul\":3532:3551   */\n      swap1\n      pop\n        /* \"#utility.yul\":3482:3557   */\n      swap1\n      jump\t// out\n        /* \"#utility.yul\":3563:3871   */\n    tag_39:\n        /* \"#utility.yul\":3625:3629   */\n      0x00\n        /* \"#utility.yul\":3715:3733   */\n      0xffffffffffffffff\n        /* \"#utility.yul\":3707:3713   */\n      dup3\n        /* \"#utility.yul\":3704:3734   */\n      gt\n        /* \"#utility.yul\":3701:3757   */\n      iszero\n      tag_97\n      jumpi\n        /* \"#utility.yul\":3737:3755   */\n      tag_98\n      tag_99\n      jump\t// in\n    tag_98:\n        /* \"#utility.yul\":3701:3757   */\n    tag_97:\n        /* \"#utility.yul\":3775:3804   */\n      tag_100\n        /* \"#utility.yul\":3797:3803   */\n      dup3\n        /* \"#utility.yul\":3775:3804   */\n      tag_80\n      jump\t// in\n    tag_100:\n        /* \"#utility.yul\":3767:3804   */\n      swap1\n      pop\n        /* \"#utility.yul\":3859:3863   */\n      0x20\n        /* \"#utility.yul\":3853:3857   */\n      dup2\n        /* \"#utility.yul\":3849:3864   */\n      add\n        /* \"#utility.yul\":3841:3864   */\n      swap1\n      pop\n        /* \"#utility.yul\":3563:3871   */\n      swap2\n      swap1\n      pop\n      jump\t// out\n        /* \"#utility.yul\":3877:3976   */\n    tag_74:\n        /* \"#utility.yul\":3929:3935   */\n      0x00\n        /* \"#utility.yul\":3963:3968   */\n      dup2\n        /* \"#utility.yul\":3957:3969   */\n      mload\n        /* \"#utility.yul\":3947:3969   */\n      swap1\n      pop\n        /* \"#utility.yul\":3877:3976   */\n      swap2\n      swap1\n      pop\n      jump\t// out\n        /* \"#utility.yul\":3982:4151   */\n    tag_76:\n        /* \"#utility.yul\":4066:4077   */\n      0x00\n        /* \"#utility.yul\":4100:4106   */\n      dup3\n        /* \"#utility.yul\":4095:4098   */\n      dup3\n        /* \"#utility.yul\":4088:4107   */\n      mstore\n        /* \"#utility.yul\":4140:4144   */\n      0x20\n        /* \"#utility.yul\":4135:4138   */\n      dup3\n        /* \"#utility.yul\":4131:4145   */\n      add\n        /* \"#utility.yul\":4116:4145   */\n      swap1\n      pop\n        /* \"#utility.yul\":3982:4151   */\n      swap3\n      swap2\n      pop\n      pop\n      jump\t// out\n        /* \"#utility.yul\":4157:4462   */\n    tag_22:\n        /* \"#utility.yul\":4197:4200   */\n      0x00\n        /* \"#utility.yul\":4216:4236   */\n      tag_104\n        /* \"#utility.yul\":4234:4235   */\n      dup3\n        /* \"#utility.yul\":4216:4236   */\n      tag_84\n      jump\t// in\n    tag_104:\n        /* \"#utility.yul\":4211:4236   */\n      swap2\n      pop\n        /* \"#utility.yul\":4250:4270   */\n      tag_105\n        /* \"#utility.yul\":4268:4269   */\n      dup4\n        /* \"#utility.yul\":4250:4270   */\n      tag_84\n      jump\t// in\n    tag_105:\n        /* \"#utility.yul\":4245:4270   */\n      swap3\n      pop\n        /* \"#utility.yul\":4404:4405   */\n      dup3\n        /* \"#utility.yul\":4336:4402   */\n      0xffffffffffffffffffffffffffffffffffffffffffffffffffffffffffffffff\n        /* \"#utility.yul\":4332:4406   */\n      sub\n        /* \"#utility.yul\":4329:4330   */\n      dup3\n        /* \"#utility.yul\":4326:4407   */\n      gt\n        /* \"#utility.yul\":4323:4430   */\n      iszero\n      tag_106\n      jumpi\n        /* \"#utility.yul\":4410:4428   */\n      tag_107\n      tag_108\n      jump\t// in\n    tag_107:\n        /* \"#utility.yul\":4323:4430   */\n    tag_106:\n        /* \"#utility.yul\":4454:4455   */\n      dup3\n        /* \"#utility.yul\":4451:4452   */\n      dup3\n        /* \"#utility.yul\":4447:4456   */\n      add\n        /* \"#utility.yul\":4440:4456   */\n      swap1\n      pop\n        /* \"#utility.yul\":4157:4462   */\n      swap3\n      swap2\n      pop\n      pop\n      jump\t// out\n        /* \"#utility.yul\":4468:4564   */\n    tag_109:\n        /* \"#utility.yul\":4505:4512   */\n      0x00\n        /* \"#utility.yul\":4534:4558   */\n      tag_111\n        /* \"#utility.yul\":4552:4557   */\n      dup3\n        /* \"#utility.yul\":4534:4558   */\n      tag_112\n      jump\t// in\n    tag_111:\n        /* \"#utility.yul\":4523:4558   */\n      swap1\n      pop\n        /* \"#utility.yul\":4468:4564   */\n      swap2\n      swap1\n      pop\n      jump\t// out\n        /* \"#utility.yul\":4570:4696   */\n    tag_112:\n        /* \"#utility.yul\":4607:4614   */\n      0x00\n        /* \"#utility.yul\":4647:4689   */\n      0xffffffffffffffffffffffffffffffffffffffff\n        /* \"#utility.yul\":4640:4645   */\n      dup3\n        /* \"#utility.yul\":4636:4690   */\n      and\n        /* \"#utility.yul\":4625:4690   */\n      swap1\n      pop\n        /* \"#utility.yul\":4570:4696   */\n      swap2\n      swap1\n      pop\n      jump\t// out\n        /* \"#utility.yul\":4702:4779   */\n    tag_84:\n        /* \"#utility.yul\":4739:4746   */\n      0x00\n        /* \"#utility.yul\":4768:4773   */\n      dup2\n        /* \"#utility.yul\":4757:4773   */\n      swap1\n      pop\n        /* \"#utility.yul\":4702:4779   */\n      swap2\n      swap1\n      pop\n      jump\t// out\n        /* \"#utility.yul\":4785:4939   */\n    tag_45:\n        /* \"#utility.yul\":4869:4875   */\n      dup3\n        /* \"#utility.yul\":4864:4867   */\n      dup2\n        /* \"#utility.yul\":4859:4862   */\n      dup4\n        /* \"#utility.yul\":4846:4876   */\n      calldatacopy\n        /* \"#utility.yul\":4931:4932   */\n      0x00\n        /* \"#utility.yul\":4922:4928   */\n      dup4\n        /* \"#utility.yul\":4917:4920   */\n      dup4\n        /* \"#utility.yul\":4913:4929   */\n      add\n        /* \"#utility.yul\":4906:4933   */\n      mstore\n        /* \"#utility.yul\":4785:4939   */\n      pop\n      pop\n      pop\n      jump\t// out\n        /* \"#utility.yul\":4945:5252   */\n    tag_78:\n        /* \"#utility.yul\":5013:5014   */\n      0x00\n        /* \"#utility.yul\":5023:5136   */\n    tag_117:\n        /* \"#utility.yul\":5037:5043   */\n      dup4\n        /* \"#utility.yul\":5034:5035   */\n      dup2\n        /* \"#utility.yul\":5031:5044   */\n      lt\n        /* \"#utility.yul\":5023:5136   */\n      iszero\n      tag_119\n      jumpi\n        /* \"#utility.yul\":5122:5123   */\n      dup1\n        /* \"#utility.yul\":5117:5120   */\n      dup3\n        /* \"#utility.yul\":5113:5124   */\n      add\n        /* \"#utility.yul\":5107:5125   */\n      mload\n        /* \"#utility.yul\":5103:5104   */\n      dup2\n        /* \"#utility.yul\":5098:5101   */\n      dup5\n        /* \"#utility.yul\":5094:5105   */\n      add\n        /* \"#utility.yul\":5087:5126   */\n      mstore\n        /* \"#utility.yul\":5059:5061   */\n      0x20\n        /* \"#utility.yul\":5056:5057   */\n      dup2\n        /* \"#utility.yul\":5052:5062   */\n      add\n        /* \"#utility.yul\":5047:5062   */\n      swap1\n      pop\n        /* \"#utility.yul\":5023:5136   */\n      jump(tag_117)\n    tag_119:\n        /* \"#utility.yul\":5154:5160   */\n      dup4\n        /* \"#utility.yul\":5151:5152   */\n      dup2\n        /* \"#utility.yul\":5148:5161   */\n      gt\n        /* \"#utility.yul\":5145:5246   */\n      iszero\n      tag_120\n      jumpi\n        /* \"#utility.yul\":5234:5235   */\n      0x00\n        /* \"#utility.yul\":5225:5231   */\n      dup5\n        /* \"#utility.yul\":5220:5223   */\n      dup5\n        /* \"#utility.yul\":5216:5232   */\n      add\n        /* \"#utility.yul\":5209:5236   */\n      mstore\n        /* \"#utility.yul\":5145:5246   */\n    tag_120:\n        /* \"#utility.yul\":4994:5252   */\n      pop\n        /* \"#utility.yul\":4945:5252   */\n      pop\n      pop\n      pop\n      jump\t// out\n        /* \"#utility.yul\":5258:5578   */\n    tag_24:\n        /* \"#utility.yul\":5302:5308   */\n      0x00\n        /* \"#utility.yul\":5339:5340   */\n      0x02\n        /* \"#utility.yul\":5333:5337   */\n      dup3\n        /* \"#utility.yul\":5329:5341   */\n      div\n        /* \"#utility.yul\":5319:5341   */\n      swap1\n      pop\n        /* \"#utility.yul\":5386:5387   */\n      0x01\n        /* \"#utility.yul\":5380:5384   */\n      dup3\n        /* \"#utility.yul\":5376:5388   */\n      and\n        /* \"#utility.yul\":5407:5425   */\n      dup1\n        /* \"#utility.yul\":5397:5478   */\n      tag_122\n      jumpi\n        /* \"#utility.yul\":5463:5467   */\n      0x7f\n        /* \"#utility.yul\":5455:5461   */\n      dup3\n        /* \"#utility.yul\":5451:5468   */\n      and\n        /* \"#utility.yul\":5441:5468   */\n      swap2\n      pop\n        /* \"#utility.yul\":5397:5478   */\n    tag_122:\n        /* \"#utility.yul\":5525:5527   */\n      0x20\n        /* \"#utility.yul\":5517:5523   */\n      dup3\n        /* \"#utility.yul\":5514:5528   */\n      lt\n        /* \"#utility.yul\":5494:5512   */\n      dup2\n        /* \"#utility.yul\":5491:5529   */\n      eq\n        /* \"#utility.yul\":5488:5572   */\n      iszero\n      tag_123\n      jumpi\n        /* \"#utility.yul\":5544:5562   */\n      tag_124\n      tag_125\n      jump\t// in\n    tag_124:\n        /* \"#utility.yul\":5488:5572   */\n    tag_123:\n        /* \"#utility.yul\":5309:5578   */\n      pop\n        /* \"#utility.yul\":5258:5578   */\n      swap2\n      swap1\n      pop\n      jump\t// out\n        /* \"#utility.yul\":5584:5865   */\n    tag_94:\n        /* \"#utility.yul\":5667:5694   */\n      tag_127\n        /* \"#utility.yul\":5689:5693   */\n      dup3\n        /* \"#utility.yul\":5667:5694   */\n      tag_80\n      jump\t// in\n    tag_127:\n        /* \"#utility.yul\":5659:5665   */\n      dup2\n        /* \"#utility.yul\":5655:5695   */\n      add\n        /* \"#utility.yul\":5797:5803   */\n      dup2\n        /* \"#utility.yul\":5785:5795   */\n      dup2\n        /* \"#utility.yul\":5782:5804   */\n      lt\n        /* \"#utility.yul\":5761:5779   */\n      0xffffffffffffffff\n        /* \"#utility.yul\":5749:5759   */\n      dup3\n        /* \"#utility.yul\":5746:5780   */\n      gt\n        /* \"#utility.yul\":5743:5805   */\n      or\n        /* \"#utility.yul\":5740:5828   */\n      iszero\n      tag_128\n      jumpi\n        /* \"#utility.yul\":5808:5826   */\n      tag_129\n      tag_99\n      jump\t// in\n    tag_129:\n        /* \"#utility.yul\":5740:5828   */\n    tag_128:\n        /* \"#utility.yul\":5848:5858   */\n      dup1\n        /* \"#utility.yul\":5844:5846   */\n      0x40\n        /* \"#utility.yul\":5837:5859   */\n      mstore\n        /* \"#utility.yul\":5627:5865   */\n      pop\n        /* \"#utility.yul\":5584:5865   */\n      pop\n      pop\n      jump\t// out\n        /* \"#utility.yul\":5871:6051   */\n    tag_108:\n        /* \"#utility.yul\":5919:5996   */\n      0x4e487b7100000000000000000000000000000000000000000000000000000000\n        /* \"#utility.yul\":5916:5917   */\n      0x00\n        /* \"#utility.yul\":5909:5997   */\n      mstore\n        /* \"#utility.yul\":6016:6020   */\n      0x11\n        /* \"#utility.yul\":6013:6014   */\n      0x04\n        /* \"#utility.yul\":6006:6021   */\n      mstore\n        /* \"#utility.yul\":6040:6044   */\n      0x24\n        /* \"#utility.yul\":6037:6038   */\n      0x00\n        /* \"#utility.yul\":6030:6045   */\n      revert\n        /* \"#utility.yul\":6057:6237   */\n    tag_125:\n        /* \"#utility.yul\":6105:6182   */\n      0x4e487b7100000000000000000000000000000000000000000000000000000000\n        /* \"#utility.yul\":6102:6103   */\n      0x00\n        /* \"#utility.yul\":6095:6183   */\n      mstore\n        /* \"#utility.yul\":6202:6206   */\n      0x22\n        /* \"#utility.yul\":6199:6200   */\n      0x04\n        /* \"#utility.yul\":6192:6207   */\n      mstore\n        /* \"#utility.yul\":6226:6230   */\n      0x24\n        /* \"#utility.yul\":6223:6224   */\n      0x00\n        /* \"#utility.yul\":6216:6231   */\n      revert\n        /* \"#utility.yul\":6243:6423   */\n    tag_99:\n        /* \"#utility.yul\":6291:6368   */\n      0x4e487b7100000000000000000000000000000000000000000000000000000000\n        /* \"#utility.yul\":6288:6289   */\n      0x00\n        /* \"#utility.yul\":6281:6369   */\n      mstore\n        /* \"#utility.yul\":6388:6392   */\n      0x41\n        /* \"#utility.yul\":6385:6386   */\n      0x04\n        /* \"#utility.yul\":6378:6393   */\n      mstore\n        /* \"#utility.yul\":6412:6416   */\n      0x24\n        /* \"#utility.yul\":6409:6410   */\n      0x00\n        /* \"#utility.yul\":6402:6417   */\n      revert\n        /* \"#utility.yul\":6429:6546   */\n    tag_54:\n        /* \"#utility.yul\":6538:6539   */\n      0x00\n        /* \"#utility.yul\":6535:6536   */\n      dup1\n        /* \"#utility.yul\":6528:6540   */\n      revert\n        /* \"#utility.yul\":6552:6669   */\n    tag_43:\n        /* \"#utility.yul\":6661:6662   */\n      0x00\n        /* \"#utility.yul\":6658:6659   */\n      dup1\n        /* \"#utility.yul\":6651:6663   */\n      revert\n        /* \"#utility.yul\":6675:6792   */\n    tag_66:\n        /* \"#utility.yul\":6784:6785   */\n      0x00\n        /* \"#utility.yul\":6781:6782   */\n      dup1\n        /* \"#utility.yul\":6774:6786   */\n      revert\n        /* \"#utility.yul\":6798:6915   */\n    tag_59:\n        /* \"#utility.yul\":6907:6908   */\n      0x00\n        /* \"#utility.yul\":6904:6905   */\n      dup1\n        /* \"#utility.yul\":6897:6909   */\n      revert\n        /* \"#utility.yul\":6921:7023   */\n    tag_80:\n        /* \"#utility.yul\":6962:6968   */\n      0x00\n        /* \"#utility.yul\":7013:7015   */\n      0x1f\n        /* \"#utility.yul\":7009:7016   */\n      not\n        /* \"#utility.yul\":7004:7006   */\n      0x1f\n        /* \"#utility.yul\":6997:7002   */\n      dup4\n        /* \"#utility.yul\":6993:7007   */\n      add\n        /* \"#utility.yul\":6989:7017   */\n      and\n        /* \"#utility.yul\":6979:7017   */\n      swap1\n      pop\n        /* \"#utility.yul\":6921:7023   */\n      swap2\n      swap1\n      pop\n      jump\t// out\n        /* \"#utility.yul\":7029:7151   */\n    tag_49:\n        /* \"#utility.yul\":7102:7126   */\n      tag_139\n        /* \"#utility.yul\":7120:7125   */\n      dup2\n        /* \"#utility.yul\":7102:7126   */\n      tag_109\n      jump\t// in\n    tag_139:\n        /* \"#utility.yul\":7095:7100   */\n      dup2\n        /* \"#utility.yul\":7092:7127   */\n      eq\n        /* \"#utility.yul\":7082:7145   */\n      tag_140\n      jumpi\n        /* \"#utility.yul\":7141:7142   */\n      0x00\n        /* \"#utility.yul\":7138:7139   */\n      dup1\n        /* \"#utility.yul\":7131:7143   */\n      revert\n        /* \"#utility.yul\":7082:7145   */\n    tag_140:\n        /* \"#utility.yul\":7029:7151   */\n      pop\n      jump\t// out\n\n    auxdata: 0xa26469706673582212202dd067258520e9ddd41337df685be5c960fb658d0e056982be9c59dcd2a1e32b64736f6c63430008070033\n}\n",
				"bytecode": {
					"linkReferences": {},
					"object": "60806040526000805534801561001457600080fd5b50610674806100246000396000f3fe608060405234801561001057600080fd5b50600436106100415760003560e01c8063302bcc57146100465780635cb119a914610064578063e2eb41ff14610080575b600080fd5b61004e6100b1565b60405161005b91906103b1565b60405180910390f35b61007e600480360381019061007991906102ba565b6100b7565b005b61009a6004803603810190610095919061028d565b6100d4565b6040516100a892919061037a565b60405180910390f35b60005481565b60016000808282546100c9919061043e565b925050819055505050565b60016020528060005260406000206000915090508060000180546100f790610512565b80601f016020809104026020016040519081016040528092919081815260200182805461012390610512565b80156101705780601f1061014557610100808354040283529160200191610170565b820191906000526020600020905b81548152906001019060200180831161015357829003601f168201915b50505050509080600101805461018590610512565b80601f01602080910402602001604051908101604052809291908181526020018280546101b190610512565b80156101fe5780601f106101d3576101008083540402835291602001916101fe565b820191906000526020600020905b8154815290600101906020018083116101e157829003601f168201915b5050505050905082565b600061021b610216846103f1565b6103cc565b90508281526020810184848401111561023757610236610607565b5b6102428482856104d0565b509392505050565b60008135905061025981610627565b92915050565b600082601f83011261027457610273610602565b5b8135610284848260208601610208565b91505092915050565b6000602082840312156102a3576102a2610611565b5b60006102b18482850161024a565b91505092915050565b600080604083850312156102d1576102d0610611565b5b600083013567ffffffffffffffff8111156102ef576102ee61060c565b5b6102fb8582860161025f565b925050602083013567ffffffffffffffff81111561031c5761031b61060c565b5b6103288582860161025f565b9150509250929050565b600061033d82610422565b610347818561042d565b93506103578185602086016104df565b61036081610616565b840191505092915050565b610374816104c6565b82525050565b600060408201905081810360008301526103948185610332565b905081810360208301526103a88184610332565b90509392505050565b60006020820190506103c6600083018461036b565b92915050565b60006103d66103e7565b90506103e28282610544565b919050565b6000604051905090565b600067ffffffffffffffff82111561040c5761040b6105d3565b5b61041582610616565b9050602081019050919050565b600081519050919050565b600082825260208201905092915050565b6000610449826104c6565b9150610454836104c6565b9250827fffffffffffffffffffffffffffffffffffffffffffffffffffffffffffffffff0382111561048957610488610575565b5b828201905092915050565b600061049f826104a6565b9050919050565b600073ffffffffffffffffffffffffffffffffffffffff82169050919050565b6000819050919050565b82818337600083830152505050565b60005b838110156104fd5780820151818401526020810190506104e2565b8381111561050c576000848401525b50505050565b6000600282049050600182168061052a57607f821691505b6020821081141561053e5761053d6105a4565b5b50919050565b61054d82610616565b810181811067ffffffffffffffff8211171561056c5761056b6105d3565b5b80604052505050565b7f4e487b7100000000000000000000000000000000000000000000000000000000600052601160045260246000fd5b7f4e487b7100000000000000000000000000000000000000000000000000000000600052602260045260246000fd5b7f4e487b7100000000000000000000000000000000000000000000000000000000600052604160045260246000fd5b600080fd5b600080fd5b600080fd5b600080fd5b6000601f19601f8301169050919050565b61063081610494565b811461063b57600080fd5b5056fea26469706673582212202dd067258520e9ddd41337df685be5c960fb658d0e056982be9c59dcd2a1e32b64736f6c63430008070033",
					"opcodes": "PUSH1 0x80 PUSH1 0x40 MSTORE PUSH1 0x0 DUP1 SSTORE CALLVALUE DUP1 ISZERO PUSH2 0x14 JUMPI PUSH1 0x0 DUP1 REVERT JUMPDEST POP PUSH2 0x674 DUP1 PUSH2 0x24 PUSH1 0x0 CODECOPY PUSH1 0x0 RETURN INVALID PUSH1 0x80 PUSH1 0x40 MSTORE CALLVALUE DUP1 ISZERO PUSH2 0x10 JUMPI PUSH1 0x0 DUP1 REVERT JUMPDEST POP PUSH1 0x4 CALLDATASIZE LT PUSH2 0x41 JUMPI PUSH1 0x0 CALLDATALOAD PUSH1 0xE0 SHR DUP1 PUSH4 0x302BCC57 EQ PUSH2 0x46 JUMPI DUP1 PUSH4 0x5CB119A9 EQ PUSH2 0x64 JUMPI DUP1 PUSH4 0xE2EB41FF EQ PUSH2 0x80 JUMPI JUMPDEST PUSH1 0x0 DUP1 REVERT JUMPDEST PUSH2 0x4E PUSH2 0xB1 JUMP JUMPDEST PUSH1 0x40 MLOAD PUSH2 0x5B SWAP2 SWAP1 PUSH2 0x3B1 JUMP JUMPDEST PUSH1 0x40 MLOAD DUP1 SWAP2 SUB SWAP1 RETURN JUMPDEST PUSH2 0x7E PUSH1 0x4 DUP1 CALLDATASIZE SUB DUP2 ADD SWAP1 PUSH2 0x79 SWAP2 SWAP1 PUSH2 0x2BA JUMP JUMPDEST PUSH2 0xB7 JUMP JUMPDEST STOP JUMPDEST PUSH2 0x9A PUSH1 0x4 DUP1 CALLDATASIZE SUB DUP2 ADD SWAP1 PUSH2 0x95 SWAP2 SWAP1 PUSH2 0x28D JUMP JUMPDEST PUSH2 0xD4 JUMP JUMPDEST PUSH1 0x40 MLOAD PUSH2 0xA8 SWAP3 SWAP2 SWAP1 PUSH2 0x37A JUMP JUMPDEST PUSH1 0x40 MLOAD DUP1 SWAP2 SUB SWAP1 RETURN JUMPDEST PUSH1 0x0 SLOAD DUP2 JUMP JUMPDEST PUSH1 0x1 PUSH1 0x0 DUP1 DUP3 DUP3 SLOAD PUSH2 0xC9 SWAP2 SWAP1 PUSH2 0x43E JUMP JUMPDEST SWAP3 POP POP DUP2 SWAP1 SSTORE POP POP POP JUMP JUMPDEST PUSH1 0x1 PUSH1 0x20 MSTORE DUP1 PUSH1 0x0 MSTORE PUSH1 0x40 PUSH1 0x0 KECCAK256 PUSH1 0x0 SWAP2 POP SWAP1 POP DUP1 PUSH1 0x0 ADD DUP1 SLOAD PUSH2 0xF7 SWAP1 PUSH2 0x512 JUMP JUMPDEST DUP1 PUSH1 0x1F ADD PUSH1 0x20 DUP1 SWAP2 DIV MUL PUSH1 0x20 ADD PUSH1 0x40 MLOAD SWAP1 DUP2 ADD PUSH1 0x40 MSTORE DUP1 SWAP3 SWAP2 SWAP1 DUP2 DUP2 MSTORE PUSH1 0x20 ADD DUP3 DUP1 SLOAD PUSH2 0x123 SWAP1 PUSH2 0x512 JUMP JUMPDEST DUP1 ISZERO PUSH2 0x170 JUMPI DUP1 PUSH1 0x1F LT PUSH2 0x145 JUMPI PUSH2 0x100 DUP1 DUP4 SLOAD DIV MUL DUP4 MSTORE SWAP2 PUSH1 0x20 ADD SWAP2 PUSH2 0x170 JUMP JUMPDEST DUP3 ADD SWAP2 SWAP1 PUSH1 0x0 MSTORE PUSH1 0x20 PUSH1 0x0 KECCAK256 SWAP1 JUMPDEST DUP2 SLOAD DUP2 MSTORE SWAP1 PUSH1 0x1 ADD SWAP1 PUSH1 0x20 ADD DUP1 DUP4 GT PUSH2 0x153 JUMPI DUP3 SWAP1 SUB PUSH1 0x1F AND DUP3 ADD SWAP2 JUMPDEST POP POP POP POP POP SWAP1 DUP1 PUSH1 0x1 ADD DUP1 SLOAD PUSH2 0x185 SWAP1 PUSH2 0x512 JUMP JUMPDEST DUP1 PUSH1 0x1F ADD PUSH1 0x20 DUP1 SWAP2 DIV MUL PUSH1 0x20 ADD PUSH1 0x40 MLOAD SWAP1 DUP2 ADD PUSH1 0x40 MSTORE DUP1 SWAP3 SWAP2 SWAP1 DUP2 DUP2 MSTORE PUSH1 0x20 ADD DUP3 DUP1 SLOAD PUSH2 0x1B1 SWAP1 PUSH2 0x512 JUMP JUMPDEST DUP1 ISZERO PUSH2 0x1FE JUMPI DUP1 PUSH1 0x1F LT PUSH2 0x1D3 JUMPI PUSH2 0x100 DUP1 DUP4 SLOAD DIV MUL DUP4 MSTORE SWAP2 PUSH1 0x20 ADD SWAP2 PUSH2 0x1FE JUMP JUMPDEST DUP3 ADD SWAP2 SWAP1 PUSH1 0x0 MSTORE PUSH1 0x20 PUSH1 0x0 KECCAK256 SWAP1 JUMPDEST DUP2 SLOAD DUP2 MSTORE SWAP1 PUSH1 0x1 ADD SWAP1 PUSH1 0x20 ADD DUP1 DUP4 GT PUSH2 0x1E1 JUMPI DUP3 SWAP1 SUB PUSH1 0x1F AND DUP3 ADD SWAP2 JUMPDEST POP POP POP POP POP SWAP1 POP DUP3 JUMP JUMPDEST PUSH1 0x0 PUSH2 0x21B PUSH2 0x216 DUP5 PUSH2 0x3F1 JUMP JUMPDEST PUSH2 0x3CC JUMP JUMPDEST SWAP1 POP DUP3 DUP2 MSTORE PUSH1 0x20 DUP2 ADD DUP5 DUP5 DUP5 ADD GT ISZERO PUSH2 0x237 JUMPI PUSH2 0x236 PUSH2 0x607 JUMP JUMPDEST JUMPDEST PUSH2 0x242 DUP5 DUP3 DUP6 PUSH2 0x4D0 JUMP JUMPDEST POP SWAP4 SWAP3 POP POP POP JUMP JUMPDEST PUSH1 0x0 DUP2 CALLDATALOAD SWAP1 POP PUSH2 0x259 DUP2 PUSH2 0x627 JUMP JUMPDEST SWAP3 SWAP2 POP POP JUMP JUMPDEST PUSH1 0x0 DUP3 PUSH1 0x1F DUP4 ADD SLT PUSH2 0x274 JUMPI PUSH2 0x273 PUSH2 0x602 JUMP JUMPDEST JUMPDEST DUP2 CALLDATALOAD PUSH2 0x284 DUP5 DUP3 PUSH1 0x20 DUP7 ADD PUSH2 0x208 JUMP JUMPDEST SWAP2 POP POP SWAP3 SWAP2 POP POP JUMP JUMPDEST PUSH1 0x0 PUSH1 0x20 DUP3 DUP5 SUB SLT ISZERO PUSH2 0x2A3 JUMPI PUSH2 0x2A2 PUSH2 0x611 JUMP JUMPDEST JUMPDEST PUSH1 0x0 PUSH2 0x2B1 DUP5 DUP3 DUP6 ADD PUSH2 0x24A JUMP JUMPDEST SWAP2 POP POP SWAP3 SWAP2 POP POP JUMP JUMPDEST PUSH1 0x0 DUP1 PUSH1 0x40 DUP4 DUP6 SUB SLT ISZERO PUSH2 0x2D1 JUMPI PUSH2 0x2D0 PUSH2 0x611 JUMP JUMPDEST JUMPDEST PUSH1 0x0 DUP4 ADD CALLDATALOAD PUSH8 0xFFFFFFFFFFFFFFFF DUP2 GT ISZERO PUSH2 0x2EF JUMPI PUSH2 0x2EE PUSH2 0x60C JUMP JUMPDEST JUMPDEST PUSH2 0x2FB DUP6 DUP3 DUP7 ADD PUSH2 0x25F JUMP JUMPDEST SWAP3 POP POP PUSH1 0x20 DUP4 ADD CALLDATALOAD PUSH8 0xFFFFFFFFFFFFFFFF DUP2 GT ISZERO PUSH2 0x31C JUMPI PUSH2 0x31B PUSH2 0x60C JUMP JUMPDEST JUMPDEST PUSH2 0x328 DUP6 DUP3 DUP7 ADD PUSH2 0x25F JUMP JUMPDEST SWAP2 POP POP SWAP3 POP SWAP3 SWAP1 POP JUMP JUMPDEST PUSH1 0x0 PUSH2 0x33D DUP3 PUSH2 0x422 JUMP JUMPDEST PUSH2 0x347 DUP2 DUP6 PUSH2 0x42D JUMP JUMPDEST SWAP4 POP PUSH2 0x357 DUP2 DUP6 PUSH1 0x20 DUP7 ADD PUSH2 0x4DF JUMP JUMPDEST PUSH2 0x360 DUP2 PUSH2 0x616 JUMP JUMPDEST DUP5 ADD SWAP2 POP POP SWAP3 SWAP2 POP POP JUMP JUMPDEST PUSH2 0x374 DUP2 PUSH2 0x4C6 JUMP JUMPDEST DUP3 MSTORE POP POP JUMP JUMPDEST PUSH1 0x0 PUSH1 0x40 DUP3 ADD SWAP1 POP DUP2 DUP2 SUB PUSH1 0x0 DUP4 ADD MSTORE PUSH2 0x394 DUP2 DUP6 PUSH2 0x332 JUMP JUMPDEST SWAP1 POP DUP2 DUP2 SUB PUSH1 0x20 DUP4 ADD MSTORE PUSH2 0x3A8 DUP2 DUP5 PUSH2 0x332 JUMP JUMPDEST SWAP1 POP SWAP4 SWAP3 POP POP POP JUMP JUMPDEST PUSH1 0x0 PUSH1 0x20 DUP3 ADD SWAP1 POP PUSH2 0x3C6 PUSH1 0x0 DUP4 ADD DUP5 PUSH2 0x36B JUMP JUMPDEST SWAP3 SWAP2 POP POP JUMP JUMPDEST PUSH1 0x0 PUSH2 0x3D6 PUSH2 0x3E7 JUMP JUMPDEST SWAP1 POP PUSH2 0x3E2 DUP3 DUP3 PUSH2 0x544 JUMP JUMPDEST SWAP2 SWAP1 POP JUMP JUMPDEST PUSH1 0x0 PUSH1 0x40 MLOAD SWAP1 POP SWAP1 JUMP JUMPDEST PUSH1 0x0 PUSH8 0xFFFFFFFFFFFFFFFF DUP3 GT ISZERO PUSH2 0x40C JUMPI PUSH2 0x40B PUSH2 0x5D3 JUMP JUMPDEST JUMPDEST PUSH2 0x415 DUP3 PUSH2 0x616 JUMP JUMPDEST SWAP1 POP PUSH1 0x20 DUP2 ADD SWAP1 POP SWAP2 SWAP1 POP JUMP JUMPDEST PUSH1 0x0 DUP2 MLOAD SWAP1 POP SWAP2 SWAP1 POP JUMP JUMPDEST PUSH1 0x0 DUP3 DUP3 MSTORE PUSH1 0x20 DUP3 ADD SWAP1 POP SWAP3 SWAP2 POP POP JUMP JUMPDEST PUSH1 0x0 PUSH2 0x449 DUP3 PUSH2 0x4C6 JUMP JUMPDEST SWAP2 POP PUSH2 0x454 DUP4 PUSH2 0x4C6 JUMP JUMPDEST SWAP3 POP DUP3 PUSH32 0xFFFFFFFFFFFFFFFFFFFFFFFFFFFFFFFFFFFFFFFFFFFFFFFFFFFFFFFFFFFFFFFF SUB DUP3 GT ISZERO PUSH2 0x489 JUMPI PUSH2 0x488 PUSH2 0x575 JUMP JUMPDEST JUMPDEST DUP3 DUP3 ADD SWAP1 POP SWAP3 SWAP2 POP POP JUMP JUMPDEST PUSH1 0x0 PUSH2 0x49F DUP3 PUSH2 0x4A6 JUMP JUMPDEST SWAP1 POP SWAP2 SWAP1 POP JUMP JUMPDEST PUSH1 0x0 PUSH20 0xFFFFFFFFFFFFFFFFFFFFFFFFFFFFFFFFFFFFFFFF DUP3 AND SWAP1 POP SWAP2 SWAP1 POP JUMP JUMPDEST PUSH1 0x0 DUP2 SWAP1 POP SWAP2 SWAP1 POP JUMP JUMPDEST DUP3 DUP2 DUP4 CALLDATACOPY PUSH1 0x0 DUP4 DUP4 ADD MSTORE POP POP POP JUMP JUMPDEST PUSH1 0x0 JUMPDEST DUP4 DUP2 LT ISZERO PUSH2 0x4FD JUMPI DUP1 DUP3 ADD MLOAD DUP2 DUP5 ADD MSTORE PUSH1 0x20 DUP2 ADD SWAP1 POP PUSH2 0x4E2 JUMP JUMPDEST DUP4 DUP2 GT ISZERO PUSH2 0x50C JUMPI PUSH1 0x0 DUP5 DUP5 ADD MSTORE JUMPDEST POP POP POP POP JUMP JUMPDEST PUSH1 0x0 PUSH1 0x2 DUP3 DIV SWAP1 POP PUSH1 0x1 DUP3 AND DUP1 PUSH2 0x52A JUMPI PUSH1 0x7F DUP3 AND SWAP2 POP JUMPDEST PUSH1 0x20 DUP3 LT DUP2 EQ ISZERO PUSH2 0x53E JUMPI PUSH2 0x53D PUSH2 0x5A4 JUMP JUMPDEST JUMPDEST POP SWAP2 SWAP1 POP JUMP JUMPDEST PUSH2 0x54D DUP3 PUSH2 0x616 JUMP JUMPDEST DUP2 ADD DUP2 DUP2 LT PUSH8 0xFFFFFFFFFFFFFFFF DUP3 GT OR ISZERO PUSH2 0x56C JUMPI PUSH2 0x56B PUSH2 0x5D3 JUMP JUMPDEST JUMPDEST DUP1 PUSH1 0x40 MSTORE POP POP POP JUMP JUMPDEST PUSH32 0x4E487B7100000000000000000000000000000000000000000000000000000000 PUSH1 0x0 MSTORE PUSH1 0x11 PUSH1 0x4 MSTORE PUSH1 0x24 PUSH1 0x0 REVERT JUMPDEST PUSH32 0x4E487B7100000000000000000000000000000000000000000000000000000000 PUSH1 0x0 MSTORE PUSH1 0x22 PUSH1 0x4 MSTORE PUSH1 0x24 PUSH1 0x0 REVERT JUMPDEST PUSH32 0x4E487B7100000000000000000000000000000000000000000000000000000000 PUSH1 0x0 MSTORE PUSH1 0x41 PUSH1 0x4 MSTORE PUSH1 0x24 PUSH1 0x0 REVERT JUMPDEST PUSH1 0x0 DUP1 REVERT JUMPDEST PUSH1 0x0 DUP1 REVERT JUMPDEST PUSH1 0x0 DUP1 REVERT JUMPDEST PUSH1 0x0 DUP1 REVERT JUMPDEST PUSH1 0x0 PUSH1 0x1F NOT PUSH1 0x1F DUP4 ADD AND SWAP1 POP SWAP2 SWAP1 POP JUMP JUMPDEST PUSH2 0x630 DUP2 PUSH2 0x494 JUMP JUMPDEST DUP2 EQ PUSH2 0x63B JUMPI PUSH1 0x0 DUP1 REVERT JUMPDEST POP JUMP INVALID LOG2 PUSH5 0x6970667358 0x22 SLT KECCAK256 0x2D 0xD0 PUSH8 0x258520E9DDD41337 0xDF PUSH9 0x5BE5C960FB658D0E05 PUSH10 0x82BE9C59DCD2A1E32B64 PUSH20 0x6F6C634300080700330000000000000000000000 "
				},
				"gasEstimates": {
					"creation": {
						"codeDepositCost": "330400",
						"executionCost": "5374",
						"totalCost": "335774"
					},
					"external": {
						"addPlayer(string,string)": "infinite",
						"playerCount()": "2407",
						"players(address)": "infinite"
					}
				},
				"methodIdentifiers": {
					"addPlayer(string,string)": "5cb119a9",
					"playerCount()": "302bcc57",
					"players(address)": "e2eb41ff"
				}
			},
			"storageLayout": {
				"storage": [
					{
						"astId": 4,
						"contract": "contracts/DataTypes.sol:myGame",
						"label": "playerCount",
						"offset": 0,
						"slot": "0",
						"type": "t_uint256"
					},
					{
						"astId": 9,
						"contract": "contracts/DataTypes.sol:myGame",
						"label": "players",
						"offset": 0,
						"slot": "1",
						"type": "t_mapping(t_address,t_struct(Player)14_storage)"
					}
				],
				"types": {
					"t_address": {
						"encoding": "inplace",
						"label": "address",
						"numberOfBytes": "20"
					},
					"t_mapping(t_address,t_struct(Player)14_storage)": {
						"encoding": "mapping",
						"key": "t_address",
						"label": "mapping(address => struct myGame.Player)",
						"numberOfBytes": "32",
						"value": "t_struct(Player)14_storage"
					},
					"t_string_storage": {
						"encoding": "bytes",
						"label": "string",
						"numberOfBytes": "32"
					},
					"t_struct(Player)14_storage": {
						"encoding": "inplace",
						"label": "struct myGame.Player",
						"members": [
							{
								"astId": 11,
								"contract": "contracts/DataTypes.sol:myGame",
								"label": "firstName",
								"offset": 0,
								"slot": "0",
								"type": "t_string_storage"
							},
							{
								"astId": 13,
								"contract": "contracts/DataTypes.sol:myGame",
								"label": "lastName",
								"offset": 0,
								"slot": "1",
								"type": "t_string_storage"
							}
						],
						"numberOfBytes": "64"
					},
					"t_uint256": {
						"encoding": "inplace",
						"label": "uint256",
						"numberOfBytes": "32"
					}
				}
			},
			"userdoc": {
				"kind": "user",
				"methods": {},
				"version": 1
			}
		}
	}
}