{
	"contracts/SimpleCoin.sol": {
		"Coin": {
			"abi": [
				{
					"inputs": [],
					"stateMutability": "nonpayable",
					"type": "constructor"
				},
				{
					"inputs": [
						{
							"internalType": "address",
							"name": "",
							"type": "address"
						}
					],
					"name": "balances",
					"outputs": [
						{
							"internalType": "uint256",
							"name": "",
							"type": "uint256"
						}
					],
					"stateMutability": "view",
					"type": "function"
				},
				{
					"inputs": [
						{
							"internalType": "address",
							"name": "receiver",
							"type": "address"
						},
						{
							"internalType": "uint256",
							"name": "amount",
							"type": "uint256"
						}
					],
					"name": "mint",
					"outputs": [],
					"stateMutability": "nonpayable",
					"type": "function"
				},
				{
					"inputs": [],
					"name": "minter",
					"outputs": [
						{
							"internalType": "address",
							"name": "",
							"type": "address"
						}
					],
					"stateMutability": "view",
					"type": "function"
				}
			],
			"devdoc": {
				"kind": "dev",
				"methods": {},
				"version": 1
			},
			"evm": {
				"assembly": "    /* \"contracts/SimpleCoin.sol\":34:255  contract Coin {... */\n  mstore(0x40, 0x80)\n    /* \"contracts/SimpleCoin.sol\":129:179  constructor() {... */\n  callvalue\n  dup1\n  iszero\n  tag_1\n  jumpi\n  0x00\n  dup1\n  revert\ntag_1:\n  pop\n    /* \"contracts/SimpleCoin.sol\":162:172  msg.sender */\n  caller\n    /* \"contracts/SimpleCoin.sol\":153:159  minter */\n  0x00\n  dup1\n    /* \"contracts/SimpleCoin.sol\":153:172  minter = msg.sender */\n  0x0100\n  exp\n  dup2\n  sload\n  dup2\n  0xffffffffffffffffffffffffffffffffffffffff\n  mul\n  not\n  and\n  swap1\n  dup4\n  0xffffffffffffffffffffffffffffffffffffffff\n  and\n  mul\n  or\n  swap1\n  sstore\n  pop\n    /* \"contracts/SimpleCoin.sol\":34:255  contract Coin {... */\n  dataSize(sub_0)\n  dup1\n  dataOffset(sub_0)\n  0x00\n  codecopy\n  0x00\n  return\nstop\n\nsub_0: assembly {\n        /* \"contracts/SimpleCoin.sol\":34:255  contract Coin {... */\n      mstore(0x40, 0x80)\n      callvalue\n      dup1\n      iszero\n      tag_1\n      jumpi\n      0x00\n      dup1\n      revert\n    tag_1:\n      pop\n      jumpi(tag_2, lt(calldatasize, 0x04))\n      shr(0xe0, calldataload(0x00))\n      dup1\n      0x07546172\n      eq\n      tag_3\n      jumpi\n      dup1\n      0x27e235e3\n      eq\n      tag_4\n      jumpi\n      dup1\n      0x40c10f19\n      eq\n      tag_5\n      jumpi\n    tag_2:\n      0x00\n      dup1\n      revert\n        /* \"contracts/SimpleCoin.sol\":54:75  address public minter */\n    tag_3:\n      tag_6\n      tag_7\n      jump\t// in\n    tag_6:\n      mload(0x40)\n      tag_8\n      swap2\n      swap1\n      tag_9\n      jump\t// in\n    tag_8:\n      mload(0x40)\n      dup1\n      swap2\n      sub\n      swap1\n      return\n        /* \"contracts/SimpleCoin.sol\":81:122  mapping (address => uint) public balances */\n    tag_4:\n      tag_10\n      0x04\n      dup1\n      calldatasize\n      sub\n      dup2\n      add\n      swap1\n      tag_11\n      swap2\n      swap1\n      tag_12\n      jump\t// in\n    tag_11:\n      tag_13\n      jump\t// in\n    tag_10:\n      mload(0x40)\n      tag_14\n      swap2\n      swap1\n      tag_15\n      jump\t// in\n    tag_14:\n      mload(0x40)\n      dup1\n      swap2\n      sub\n      swap1\n      return\n        /* \"contracts/SimpleCoin.sol\":185:253  function mint(address receiver, uint amount) public {... */\n    tag_5:\n      tag_16\n      0x04\n      dup1\n      calldatasize\n      sub\n      dup2\n      add\n      swap1\n      tag_17\n      swap2\n      swap1\n      tag_18\n      jump\t// in\n    tag_17:\n      tag_19\n      jump\t// in\n    tag_16:\n      stop\n        /* \"contracts/SimpleCoin.sol\":54:75  address public minter */\n    tag_7:\n      0x00\n      dup1\n      sload\n      swap1\n      0x0100\n      exp\n      swap1\n      div\n      0xffffffffffffffffffffffffffffffffffffffff\n      and\n      dup2\n      jump\t// out\n        /* \"contracts/SimpleCoin.sol\":81:122  mapping (address => uint) public balances */\n    tag_13:\n      mstore(0x20, 0x01)\n      dup1\n      0x00\n      mstore\n      keccak256(0x00, 0x40)\n      0x00\n      swap2\n      pop\n      swap1\n      pop\n      sload\n      dup2\n      jump\t// out\n        /* \"contracts/SimpleCoin.sol\":185:253  function mint(address receiver, uint amount) public {... */\n    tag_19:\n      pop\n      pop\n      jump\t// out\n        /* \"#utility.yul\":7:146   */\n    tag_22:\n        /* \"#utility.yul\":53:58   */\n      0x00\n        /* \"#utility.yul\":91:97   */\n      dup2\n        /* \"#utility.yul\":78:98   */\n      calldataload\n        /* \"#utility.yul\":69:98   */\n      swap1\n      pop\n        /* \"#utility.yul\":107:140   */\n      tag_24\n        /* \"#utility.yul\":134:139   */\n      dup2\n        /* \"#utility.yul\":107:140   */\n      tag_25\n      jump\t// in\n    tag_24:\n        /* \"#utility.yul\":7:146   */\n      swap3\n      swap2\n      pop\n      pop\n      jump\t// out\n        /* \"#utility.yul\":152:291   */\n    tag_26:\n        /* \"#utility.yul\":198:203   */\n      0x00\n        /* \"#utility.yul\":236:242   */\n      dup2\n        /* \"#utility.yul\":223:243   */\n      calldataload\n        /* \"#utility.yul\":214:243   */\n      swap1\n      pop\n        /* \"#utility.yul\":252:285   */\n      tag_28\n        /* \"#utility.yul\":279:284   */\n      dup2\n        /* \"#utility.yul\":252:285   */\n      tag_29\n      jump\t// in\n    tag_28:\n        /* \"#utility.yul\":152:291   */\n      swap3\n      swap2\n      pop\n      pop\n      jump\t// out\n        /* \"#utility.yul\":297:626   */\n    tag_12:\n        /* \"#utility.yul\":356:362   */\n      0x00\n        /* \"#utility.yul\":405:407   */\n      0x20\n        /* \"#utility.yul\":393:402   */\n      dup3\n        /* \"#utility.yul\":384:391   */\n      dup5\n        /* \"#utility.yul\":380:403   */\n      sub\n        /* \"#utility.yul\":376:408   */\n      slt\n        /* \"#utility.yul\":373:492   */\n      iszero\n      tag_31\n      jumpi\n        /* \"#utility.yul\":411:490   */\n      tag_32\n      tag_33\n      jump\t// in\n    tag_32:\n        /* \"#utility.yul\":373:492   */\n    tag_31:\n        /* \"#utility.yul\":531:532   */\n      0x00\n        /* \"#utility.yul\":556:609   */\n      tag_34\n        /* \"#utility.yul\":601:608   */\n      dup5\n        /* \"#utility.yul\":592:598   */\n      dup3\n        /* \"#utility.yul\":581:590   */\n      dup6\n        /* \"#utility.yul\":577:599   */\n      add\n        /* \"#utility.yul\":556:609   */\n      tag_22\n      jump\t// in\n    tag_34:\n        /* \"#utility.yul\":546:609   */\n      swap2\n      pop\n        /* \"#utility.yul\":502:619   */\n      pop\n        /* \"#utility.yul\":297:626   */\n      swap3\n      swap2\n      pop\n      pop\n      jump\t// out\n        /* \"#utility.yul\":632:1106   */\n    tag_18:\n        /* \"#utility.yul\":700:706   */\n      0x00\n        /* \"#utility.yul\":708:714   */\n      dup1\n        /* \"#utility.yul\":757:759   */\n      0x40\n        /* \"#utility.yul\":745:754   */\n      dup4\n        /* \"#utility.yul\":736:743   */\n      dup6\n        /* \"#utility.yul\":732:755   */\n      sub\n        /* \"#utility.yul\":728:760   */\n      slt\n        /* \"#utility.yul\":725:844   */\n      iszero\n      tag_36\n      jumpi\n        /* \"#utility.yul\":763:842   */\n      tag_37\n      tag_33\n      jump\t// in\n    tag_37:\n        /* \"#utility.yul\":725:844   */\n    tag_36:\n        /* \"#utility.yul\":883:884   */\n      0x00\n        /* \"#utility.yul\":908:961   */\n      tag_38\n        /* \"#utility.yul\":953:960   */\n      dup6\n        /* \"#utility.yul\":944:950   */\n      dup3\n        /* \"#utility.yul\":933:942   */\n      dup7\n        /* \"#utility.yul\":929:951   */\n      add\n        /* \"#utility.yul\":908:961   */\n      tag_22\n      jump\t// in\n    tag_38:\n        /* \"#utility.yul\":898:961   */\n      swap3\n      pop\n        /* \"#utility.yul\":854:971   */\n      pop\n        /* \"#utility.yul\":1010:1012   */\n      0x20\n        /* \"#utility.yul\":1036:1089   */\n      tag_39\n        /* \"#utility.yul\":1081:1088   */\n      dup6\n        /* \"#utility.yul\":1072:1078   */\n      dup3\n        /* \"#utility.yul\":1061:1070   */\n      dup7\n        /* \"#utility.yul\":1057:1079   */\n      add\n        /* \"#utility.yul\":1036:1089   */\n      tag_26\n      jump\t// in\n    tag_39:\n        /* \"#utility.yul\":1026:1089   */\n      swap2\n      pop\n        /* \"#utility.yul\":981:1099   */\n      pop\n        /* \"#utility.yul\":632:1106   */\n      swap3\n      pop\n      swap3\n      swap1\n      pop\n      jump\t// out\n        /* \"#utility.yul\":1112:1230   */\n    tag_40:\n        /* \"#utility.yul\":1199:1223   */\n      tag_42\n        /* \"#utility.yul\":1217:1222   */\n      dup2\n        /* \"#utility.yul\":1199:1223   */\n      tag_43\n      jump\t// in\n    tag_42:\n        /* \"#utility.yul\":1194:1197   */\n      dup3\n        /* \"#utility.yul\":1187:1224   */\n      mstore\n        /* \"#utility.yul\":1112:1230   */\n      pop\n      pop\n      jump\t// out\n        /* \"#utility.yul\":1236:1354   */\n    tag_44:\n        /* \"#utility.yul\":1323:1347   */\n      tag_46\n        /* \"#utility.yul\":1341:1346   */\n      dup2\n        /* \"#utility.yul\":1323:1347   */\n      tag_47\n      jump\t// in\n    tag_46:\n        /* \"#utility.yul\":1318:1321   */\n      dup3\n        /* \"#utility.yul\":1311:1348   */\n      mstore\n        /* \"#utility.yul\":1236:1354   */\n      pop\n      pop\n      jump\t// out\n        /* \"#utility.yul\":1360:1582   */\n    tag_9:\n        /* \"#utility.yul\":1453:1457   */\n      0x00\n        /* \"#utility.yul\":1491:1493   */\n      0x20\n        /* \"#utility.yul\":1480:1489   */\n      dup3\n        /* \"#utility.yul\":1476:1494   */\n      add\n        /* \"#utility.yul\":1468:1494   */\n      swap1\n      pop\n        /* \"#utility.yul\":1504:1575   */\n      tag_49\n        /* \"#utility.yul\":1572:1573   */\n      0x00\n        /* \"#utility.yul\":1561:1570   */\n      dup4\n        /* \"#utility.yul\":1557:1574   */\n      add\n        /* \"#utility.yul\":1548:1554   */\n      dup5\n        /* \"#utility.yul\":1504:1575   */\n      tag_40\n      jump\t// in\n    tag_49:\n        /* \"#utility.yul\":1360:1582   */\n      swap3\n      swap2\n      pop\n      pop\n      jump\t// out\n        /* \"#utility.yul\":1588:1810   */\n    tag_15:\n        /* \"#utility.yul\":1681:1685   */\n      0x00\n        /* \"#utility.yul\":1719:1721   */\n      0x20\n        /* \"#utility.yul\":1708:1717   */\n      dup3\n        /* \"#utility.yul\":1704:1722   */\n      add\n        /* \"#utility.yul\":1696:1722   */\n      swap1\n      pop\n        /* \"#utility.yul\":1732:1803   */\n      tag_51\n        /* \"#utility.yul\":1800:1801   */\n      0x00\n        /* \"#utility.yul\":1789:1798   */\n      dup4\n        /* \"#utility.yul\":1785:1802   */\n      add\n        /* \"#utility.yul\":1776:1782   */\n      dup5\n        /* \"#utility.yul\":1732:1803   */\n      tag_44\n      jump\t// in\n    tag_51:\n        /* \"#utility.yul\":1588:1810   */\n      swap3\n      swap2\n      pop\n      pop\n      jump\t// out\n        /* \"#utility.yul\":1897:1993   */\n    tag_43:\n        /* \"#utility.yul\":1934:1941   */\n      0x00\n        /* \"#utility.yul\":1963:1987   */\n      tag_55\n        /* \"#utility.yul\":1981:1986   */\n      dup3\n        /* \"#utility.yul\":1963:1987   */\n      tag_56\n      jump\t// in\n    tag_55:\n        /* \"#utility.yul\":1952:1987   */\n      swap1\n      pop\n        /* \"#utility.yul\":1897:1993   */\n      swap2\n      swap1\n      pop\n      jump\t// out\n        /* \"#utility.yul\":1999:2125   */\n    tag_56:\n        /* \"#utility.yul\":2036:2043   */\n      0x00\n        /* \"#utility.yul\":2076:2118   */\n      0xffffffffffffffffffffffffffffffffffffffff\n        /* \"#utility.yul\":2069:2074   */\n      dup3\n        /* \"#utility.yul\":2065:2119   */\n      and\n        /* \"#utility.yul\":2054:2119   */\n      swap1\n      pop\n        /* \"#utility.yul\":1999:2125   */\n      swap2\n      swap1\n      pop\n      jump\t// out\n        /* \"#utility.yul\":2131:2208   */\n    tag_47:\n        /* \"#utility.yul\":2168:2175   */\n      0x00\n        /* \"#utility.yul\":2197:2202   */\n      dup2\n        /* \"#utility.yul\":2186:2202   */\n      swap1\n      pop\n        /* \"#utility.yul\":2131:2208   */\n      swap2\n      swap1\n      pop\n      jump\t// out\n        /* \"#utility.yul\":2337:2454   */\n    tag_33:\n        /* \"#utility.yul\":2446:2447   */\n      0x00\n        /* \"#utility.yul\":2443:2444   */\n      dup1\n        /* \"#utility.yul\":2436:2448   */\n      revert\n        /* \"#utility.yul\":2460:2582   */\n    tag_25:\n        /* \"#utility.yul\":2533:2557   */\n      tag_63\n        /* \"#utility.yul\":2551:2556   */\n      dup2\n        /* \"#utility.yul\":2533:2557   */\n      tag_43\n      jump\t// in\n    tag_63:\n        /* \"#utility.yul\":2526:2531   */\n      dup2\n        /* \"#utility.yul\":2523:2558   */\n      eq\n        /* \"#utility.yul\":2513:2576   */\n      tag_64\n      jumpi\n        /* \"#utility.yul\":2572:2573   */\n      0x00\n        /* \"#utility.yul\":2569:2570   */\n      dup1\n        /* \"#utility.yul\":2562:2574   */\n      revert\n        /* \"#utility.yul\":2513:2576   */\n    tag_64:\n        /* \"#utility.yul\":2460:2582   */\n      pop\n      jump\t// out\n        /* \"#utility.yul\":2588:2710   */\n    tag_29:\n        /* \"#utility.yul\":2661:2685   */\n      tag_66\n        /* \"#utility.yul\":2679:2684   */\n      dup2\n        /* \"#utility.yul\":2661:2685   */\n      tag_47\n      jump\t// in\n    tag_66:\n        /* \"#utility.yul\":2654:2659   */\n      dup2\n        /* \"#utility.yul\":2651:2686   */\n      eq\n        /* \"#utility.yul\":2641:2704   */\n      tag_67\n      jumpi\n        /* \"#utility.yul\":2700:2701   */\n      0x00\n        /* \"#utility.yul\":2697:2698   */\n      dup1\n        /* \"#utility.yul\":2690:2702   */\n      revert\n        /* \"#utility.yul\":2641:2704   */\n    tag_67:\n        /* \"#utility.yul\":2588:2710   */\n      pop\n      jump\t// out\n\n    auxdata: 0xa2646970667358221220de7a704fb36b938a519497db8c9f1b8a756b1aae2e9b8297556d50da12f9430c64736f6c63430008070033\n}\n",
				"bytecode": {
					"linkReferences": {},
					"object": "608060405234801561001057600080fd5b50336000806101000a81548173ffffffffffffffffffffffffffffffffffffffff021916908373ffffffffffffffffffffffffffffffffffffffff160217905550610280806100606000396000f3fe608060405234801561001057600080fd5b50600436106100415760003560e01c8063075461721461004657806327e235e31461006457806340c10f1914610094575b600080fd5b61004e6100b0565b60405161005b91906101a5565b60405180910390f35b61007e6004803603810190610079919061011a565b6100d4565b60405161008b91906101c0565b60405180910390f35b6100ae60048036038101906100a99190610147565b6100ec565b005b60008054906101000a900473ffffffffffffffffffffffffffffffffffffffff1681565b60016020528060005260406000206000915090505481565b5050565b6000813590506100ff8161021c565b92915050565b60008135905061011481610233565b92915050565b6000602082840312156101305761012f610217565b5b600061013e848285016100f0565b91505092915050565b6000806040838503121561015e5761015d610217565b5b600061016c858286016100f0565b925050602061017d85828601610105565b9150509250929050565b610190816101db565b82525050565b61019f8161020d565b82525050565b60006020820190506101ba6000830184610187565b92915050565b60006020820190506101d56000830184610196565b92915050565b60006101e6826101ed565b9050919050565b600073ffffffffffffffffffffffffffffffffffffffff82169050919050565b6000819050919050565b600080fd5b610225816101db565b811461023057600080fd5b50565b61023c8161020d565b811461024757600080fd5b5056fea2646970667358221220de7a704fb36b938a519497db8c9f1b8a756b1aae2e9b8297556d50da12f9430c64736f6c63430008070033",
					"opcodes": "PUSH1 0x80 PUSH1 0x40 MSTORE CALLVALUE DUP1 ISZERO PUSH2 0x10 JUMPI PUSH1 0x0 DUP1 REVERT JUMPDEST POP CALLER PUSH1 0x0 DUP1 PUSH2 0x100 EXP DUP2 SLOAD DUP2 PUSH20 0xFFFFFFFFFFFFFFFFFFFFFFFFFFFFFFFFFFFFFFFF MUL NOT AND SWAP1 DUP4 PUSH20 0xFFFFFFFFFFFFFFFFFFFFFFFFFFFFFFFFFFFFFFFF AND MUL OR SWAP1 SSTORE POP PUSH2 0x280 DUP1 PUSH2 0x60 PUSH1 0x0 CODECOPY PUSH1 0x0 RETURN INVALID PUSH1 0x80 PUSH1 0x40 MSTORE CALLVALUE DUP1 ISZERO PUSH2 0x10 JUMPI PUSH1 0x0 DUP1 REVERT JUMPDEST POP PUSH1 0x4 CALLDATASIZE LT PUSH2 0x41 JUMPI PUSH1 0x0 CALLDATALOAD PUSH1 0xE0 SHR DUP1 PUSH4 0x7546172 EQ PUSH2 0x46 JUMPI DUP1 PUSH4 0x27E235E3 EQ PUSH2 0x64 JUMPI DUP1 PUSH4 0x40C10F19 EQ PUSH2 0x94 JUMPI JUMPDEST PUSH1 0x0 DUP1 REVERT JUMPDEST PUSH2 0x4E PUSH2 0xB0 JUMP JUMPDEST PUSH1 0x40 MLOAD PUSH2 0x5B SWAP2 SWAP1 PUSH2 0x1A5 JUMP JUMPDEST PUSH1 0x40 MLOAD DUP1 SWAP2 SUB SWAP1 RETURN JUMPDEST PUSH2 0x7E PUSH1 0x4 DUP1 CALLDATASIZE SUB DUP2 ADD SWAP1 PUSH2 0x79 SWAP2 SWAP1 PUSH2 0x11A JUMP JUMPDEST PUSH2 0xD4 JUMP JUMPDEST PUSH1 0x40 MLOAD PUSH2 0x8B SWAP2 SWAP1 PUSH2 0x1C0 JUMP JUMPDEST PUSH1 0x40 MLOAD DUP1 SWAP2 SUB SWAP1 RETURN JUMPDEST PUSH2 0xAE PUSH1 0x4 DUP1 CALLDATASIZE SUB DUP2 ADD SWAP1 PUSH2 0xA9 SWAP2 SWAP1 PUSH2 0x147 JUMP JUMPDEST PUSH2 0xEC JUMP JUMPDEST STOP JUMPDEST PUSH1 0x0 DUP1 SLOAD SWAP1 PUSH2 0x100 EXP SWAP1 DIV PUSH20 0xFFFFFFFFFFFFFFFFFFFFFFFFFFFFFFFFFFFFFFFF AND DUP2 JUMP JUMPDEST PUSH1 0x1 PUSH1 0x20 MSTORE DUP1 PUSH1 0x0 MSTORE PUSH1 0x40 PUSH1 0x0 KECCAK256 PUSH1 0x0 SWAP2 POP SWAP1 POP SLOAD DUP2 JUMP JUMPDEST POP POP JUMP JUMPDEST PUSH1 0x0 DUP2 CALLDATALOAD SWAP1 POP PUSH2 0xFF DUP2 PUSH2 0x21C JUMP JUMPDEST SWAP3 SWAP2 POP POP JUMP JUMPDEST PUSH1 0x0 DUP2 CALLDATALOAD SWAP1 POP PUSH2 0x114 DUP2 PUSH2 0x233 JUMP JUMPDEST SWAP3 SWAP2 POP POP JUMP JUMPDEST PUSH1 0x0 PUSH1 0x20 DUP3 DUP5 SUB SLT ISZERO PUSH2 0x130 JUMPI PUSH2 0x12F PUSH2 0x217 JUMP JUMPDEST JUMPDEST PUSH1 0x0 PUSH2 0x13E DUP5 DUP3 DUP6 ADD PUSH2 0xF0 JUMP JUMPDEST SWAP2 POP POP SWAP3 SWAP2 POP POP JUMP JUMPDEST PUSH1 0x0 DUP1 PUSH1 0x40 DUP4 DUP6 SUB SLT ISZERO PUSH2 0x15E JUMPI PUSH2 0x15D PUSH2 0x217 JUMP JUMPDEST JUMPDEST PUSH1 0x0 PUSH2 0x16C DUP6 DUP3 DUP7 ADD PUSH2 0xF0 JUMP JUMPDEST SWAP3 POP POP PUSH1 0x20 PUSH2 0x17D DUP6 DUP3 DUP7 ADD PUSH2 0x105 JUMP JUMPDEST SWAP2 POP POP SWAP3 POP SWAP3 SWAP1 POP JUMP JUMPDEST PUSH2 0x190 DUP2 PUSH2 0x1DB JUMP JUMPDEST DUP3 MSTORE POP POP JUMP JUMPDEST PUSH2 0x19F DUP2 PUSH2 0x20D JUMP JUMPDEST DUP3 MSTORE POP POP JUMP JUMPDEST PUSH1 0x0 PUSH1 0x20 DUP3 ADD SWAP1 POP PUSH2 0x1BA PUSH1 0x0 DUP4 ADD DUP5 PUSH2 0x187 JUMP JUMPDEST SWAP3 SWAP2 POP POP JUMP JUMPDEST PUSH1 0x0 PUSH1 0x20 DUP3 ADD SWAP1 POP PUSH2 0x1D5 PUSH1 0x0 DUP4 ADD DUP5 PUSH2 0x196 JUMP JUMPDEST SWAP3 SWAP2 POP POP JUMP JUMPDEST PUSH1 0x0 PUSH2 0x1E6 DUP3 PUSH2 0x1ED JUMP JUMPDEST SWAP1 POP SWAP2 SWAP1 POP JUMP JUMPDEST PUSH1 0x0 PUSH20 0xFFFFFFFFFFFFFFFFFFFFFFFFFFFFFFFFFFFFFFFF DUP3 AND SWAP1 POP SWAP2 SWAP1 POP JUMP JUMPDEST PUSH1 0x0 DUP2 SWAP1 POP SWAP2 SWAP1 POP JUMP JUMPDEST PUSH1 0x0 DUP1 REVERT JUMPDEST PUSH2 0x225 DUP2 PUSH2 0x1DB JUMP JUMPDEST DUP2 EQ PUSH2 0x230 JUMPI PUSH1 0x0 DUP1 REVERT JUMPDEST POP JUMP JUMPDEST PUSH2 0x23C DUP2 PUSH2 0x20D JUMP JUMPDEST DUP2 EQ PUSH2 0x247 JUMPI PUSH1 0x0 DUP1 REVERT JUMPDEST POP JUMP INVALID LOG2 PUSH5 0x6970667358 0x22 SLT KECCAK256 0xDE PUSH27 0x704FB36B938A519497DB8C9F1B8A756B1AAE2E9B8297556D50DA12 0xF9 NUMBER 0xC PUSH5 0x736F6C6343 STOP ADDMOD SMOD STOP CALLER "
				},
				"gasEstimates": {
					"creation": {
						"codeDepositCost": "128000",
						"executionCost": "24437",
						"totalCost": "152437"
					},
					"external": {
						"balances(address)": "2814",
						"mint(address,uint256)": "650",
						"minter()": "2489"
					}
				},
				"methodIdentifiers": {
					"balances(address)": "27e235e3",
					"mint(address,uint256)": "40c10f19",
					"minter()": "07546172"
				}
			},
			"storageLayout": {
				"storage": [
					{
						"astId": 3,
						"contract": "contracts/SimpleCoin.sol:Coin",
						"label": "minter",
						"offset": 0,
						"slot": "0",
						"type": "t_address"
					},
					{
						"astId": 7,
						"contract": "contracts/SimpleCoin.sol:Coin",
						"label": "balances",
						"offset": 0,
						"slot": "1",
						"type": "t_mapping(t_address,t_uint256)"
					}
				],
				"types": {
					"t_address": {
						"encoding": "inplace",
						"label": "address",
						"numberOfBytes": "20"
					},
					"t_mapping(t_address,t_uint256)": {
						"encoding": "mapping",
						"key": "t_address",
						"label": "mapping(address => uint256)",
						"numberOfBytes": "32",
						"value": "t_uint256"
					},
					"t_uint256": {
						"encoding": "inplace",
						"label": "uint256",
						"numberOfBytes": "32"
					}
				}
			},
			"userdoc": {
				"kind": "user",
				"methods": {},
				"version": 1
			}
		}
	}
}