{
	"contracts/DataTypes.sol": {
		"myGame": {
			"abi": [
				{
					"inputs": [
						{
							"internalType": "string",
							"name": "firstName",
							"type": "string"
						},
						{
							"internalType": "string",
							"name": "lastName",
							"type": "string"
						}
					],
					"name": "addPlayer",
					"outputs": [],
					"stateMutability": "nonpayable",
					"type": "function"
				},
				{
					"inputs": [],
					"name": "playerCount",
					"outputs": [
						{
							"internalType": "uint256",
							"name": "",
							"type": "uint256"
						}
					],
					"stateMutability": "view",
					"type": "function"
				},
				{
					"inputs": [
						{
							"internalType": "uint256",
							"name": "",
							"type": "uint256"
						}
					],
					"name": "players",
					"outputs": [
						{
							"internalType": "string",
							"name": "firstName",
							"type": "string"
						},
						{
							"internalType": "string",
							"name": "lastName",
							"type": "string"
						}
					],
					"stateMutability": "view",
					"type": "function"
				}
			],
			"devdoc": {
				"kind": "dev",
				"methods": {},
				"version": 1
			},
			"evm": {
				"assembly": "    /* \"contracts/DataTypes.sol\":67:370  contract myGame {... */\n  mstore(0x40, 0x80)\n    /* \"contracts/DataTypes.sol\":116:117  0 */\n  0x00\n    /* \"contracts/DataTypes.sol\":90:117  uint public playerCount = 0 */\n  dup1\n  sstore\n    /* \"contracts/DataTypes.sol\":67:370  contract myGame {... */\n  callvalue\n  dup1\n  iszero\n  tag_1\n  jumpi\n  0x00\n  dup1\n  revert\ntag_1:\n  pop\n  dataSize(sub_0)\n  dup1\n  dataOffset(sub_0)\n  0x00\n  codecopy\n  0x00\n  return\nstop\n\nsub_0: assembly {\n        /* \"contracts/DataTypes.sol\":67:370  contract myGame {... */\n      mstore(0x40, 0x80)\n      callvalue\n      dup1\n      iszero\n      tag_1\n      jumpi\n      0x00\n      dup1\n      revert\n    tag_1:\n      pop\n      jumpi(tag_2, lt(calldatasize, 0x04))\n      shr(0xe0, calldataload(0x00))\n      dup1\n      0x302bcc57\n      eq\n      tag_3\n      jumpi\n      dup1\n      0x5cb119a9\n      eq\n      tag_4\n      jumpi\n      dup1\n      0xf71d96cb\n      eq\n      tag_5\n      jumpi\n    tag_2:\n      0x00\n      dup1\n      revert\n        /* \"contracts/DataTypes.sol\":90:117  uint public playerCount = 0 */\n    tag_3:\n      tag_6\n      tag_7\n      jump\t// in\n    tag_6:\n      mload(0x40)\n      tag_8\n      swap2\n      swap1\n      tag_9\n      jump\t// in\n    tag_8:\n      mload(0x40)\n      dup1\n      swap2\n      sub\n      swap1\n      return\n        /* \"contracts/DataTypes.sol\":235:368  function addPlayer(string memory firstName, string memory lastName) public {... */\n    tag_4:\n      tag_10\n      0x04\n      dup1\n      calldatasize\n      sub\n      dup2\n      add\n      swap1\n      tag_11\n      swap2\n      swap1\n      tag_12\n      jump\t// in\n    tag_11:\n      tag_13\n      jump\t// in\n    tag_10:\n      stop\n        /* \"contracts/DataTypes.sol\":123:146  Player[] public players */\n    tag_5:\n      tag_14\n      0x04\n      dup1\n      calldatasize\n      sub\n      dup2\n      add\n      swap1\n      tag_15\n      swap2\n      swap1\n      tag_16\n      jump\t// in\n    tag_15:\n      tag_17\n      jump\t// in\n    tag_14:\n      mload(0x40)\n      tag_18\n      swap3\n      swap2\n      swap1\n      tag_19\n      jump\t// in\n    tag_18:\n      mload(0x40)\n      dup1\n      swap2\n      sub\n      swap1\n      return\n        /* \"contracts/DataTypes.sol\":90:117  uint public playerCount = 0 */\n    tag_7:\n      sload(0x00)\n      dup2\n      jump\t// out\n        /* \"contracts/DataTypes.sol\":235:368  function addPlayer(string memory firstName, string memory lastName) public {... */\n    tag_13:\n        /* \"contracts/DataTypes.sol\":320:327  players */\n      0x01\n        /* \"contracts/DataTypes.sol\":333:360  Player(firstName, lastName) */\n      mload(0x40)\n      dup1\n      0x40\n      add\n      0x40\n      mstore\n      dup1\n        /* \"contracts/DataTypes.sol\":340:349  firstName */\n      dup5\n        /* \"contracts/DataTypes.sol\":333:360  Player(firstName, lastName) */\n      dup2\n      mstore\n      0x20\n      add\n        /* \"contracts/DataTypes.sol\":351:359  lastName */\n      dup4\n        /* \"contracts/DataTypes.sol\":333:360  Player(firstName, lastName) */\n      dup2\n      mstore\n      pop\n        /* \"contracts/DataTypes.sol\":320:361  players.push(Player(firstName, lastName)) */\n      swap1\n      dup1\n      0x01\n      dup2\n      sload\n      add\n      dup1\n      dup3\n      sstore\n      dup1\n      swap2\n      pop\n      pop\n      0x01\n      swap1\n      sub\n      swap1\n      0x00\n      mstore\n      keccak256(0x00, 0x20)\n      swap1\n      0x02\n      mul\n      add\n      0x00\n      swap1\n      swap2\n      swap1\n      swap2\n      swap1\n      swap2\n      pop\n      0x00\n      dup3\n      add\n      mload\n      dup2\n      0x00\n      add\n      swap1\n      dup1\n      mload\n      swap1\n      0x20\n      add\n      swap1\n      tag_22\n      swap3\n      swap2\n      swap1\n      tag_23\n      jump\t// in\n    tag_22:\n      pop\n      0x20\n      dup3\n      add\n      mload\n      dup2\n      0x01\n      add\n      swap1\n      dup1\n      mload\n      swap1\n      0x20\n      add\n      swap1\n      tag_24\n      swap3\n      swap2\n      swap1\n      tag_23\n      jump\t// in\n    tag_24:\n      pop\n      pop\n      pop\n        /* \"contracts/DataTypes.sol\":235:368  function addPlayer(string memory firstName, string memory lastName) public {... */\n      pop\n      pop\n      jump\t// out\n        /* \"contracts/DataTypes.sol\":123:146  Player[] public players */\n    tag_17:\n      0x01\n      dup2\n      dup2\n      sload\n      dup2\n      lt\n      tag_25\n      jumpi\n      0x00\n      dup1\n      revert\n    tag_25:\n      swap1\n      0x00\n      mstore\n      keccak256(0x00, 0x20)\n      swap1\n      0x02\n      mul\n      add\n      0x00\n      swap2\n      pop\n      swap1\n      pop\n      dup1\n      0x00\n      add\n      dup1\n      sload\n      tag_27\n      swap1\n      tag_28\n      jump\t// in\n    tag_27:\n      dup1\n      0x1f\n      add\n      0x20\n      dup1\n      swap2\n      div\n      mul\n      0x20\n      add\n      mload(0x40)\n      swap1\n      dup2\n      add\n      0x40\n      mstore\n      dup1\n      swap3\n      swap2\n      swap1\n      dup2\n      dup2\n      mstore\n      0x20\n      add\n      dup3\n      dup1\n      sload\n      tag_29\n      swap1\n      tag_28\n      jump\t// in\n    tag_29:\n      dup1\n      iszero\n      tag_30\n      jumpi\n      dup1\n      0x1f\n      lt\n      tag_31\n      jumpi\n      0x0100\n      dup1\n      dup4\n      sload\n      div\n      mul\n      dup4\n      mstore\n      swap2\n      0x20\n      add\n      swap2\n      jump(tag_30)\n    tag_31:\n      dup3\n      add\n      swap2\n      swap1\n      0x00\n      mstore\n      keccak256(0x00, 0x20)\n      swap1\n    tag_32:\n      dup2\n      sload\n      dup2\n      mstore\n      swap1\n      0x01\n      add\n      swap1\n      0x20\n      add\n      dup1\n      dup4\n      gt\n      tag_32\n      jumpi\n      dup3\n      swap1\n      sub\n      0x1f\n      and\n      dup3\n      add\n      swap2\n    tag_30:\n      pop\n      pop\n      pop\n      pop\n      pop\n      swap1\n      dup1\n      0x01\n      add\n      dup1\n      sload\n      tag_33\n      swap1\n      tag_28\n      jump\t// in\n    tag_33:\n      dup1\n      0x1f\n      add\n      0x20\n      dup1\n      swap2\n      div\n      mul\n      0x20\n      add\n      mload(0x40)\n      swap1\n      dup2\n      add\n      0x40\n      mstore\n      dup1\n      swap3\n      swap2\n      swap1\n      dup2\n      dup2\n      mstore\n      0x20\n      add\n      dup3\n      dup1\n      sload\n      tag_34\n      swap1\n      tag_28\n      jump\t// in\n    tag_34:\n      dup1\n      iszero\n      tag_35\n      jumpi\n      dup1\n      0x1f\n      lt\n      tag_36\n      jumpi\n      0x0100\n      dup1\n      dup4\n      sload\n      div\n      mul\n      dup4\n      mstore\n      swap2\n      0x20\n      add\n      swap2\n      jump(tag_35)\n    tag_36:\n      dup3\n      add\n      swap2\n      swap1\n      0x00\n      mstore\n      keccak256(0x00, 0x20)\n      swap1\n    tag_37:\n      dup2\n      sload\n      dup2\n      mstore\n      swap1\n      0x01\n      add\n      swap1\n      0x20\n      add\n      dup1\n      dup4\n      gt\n      tag_37\n      jumpi\n      dup3\n      swap1\n      sub\n      0x1f\n      and\n      dup3\n      add\n      swap2\n    tag_35:\n      pop\n      pop\n      pop\n      pop\n      pop\n      swap1\n      pop\n      dup3\n      jump\t// out\n    tag_23:\n      dup3\n      dup1\n      sload\n      tag_38\n      swap1\n      tag_28\n      jump\t// in\n    tag_38:\n      swap1\n      0x00\n      mstore\n      keccak256(0x00, 0x20)\n      swap1\n      0x1f\n      add\n      0x20\n      swap1\n      div\n      dup2\n      add\n      swap3\n      dup3\n      tag_40\n      jumpi\n      0x00\n      dup6\n      sstore\n      jump(tag_39)\n    tag_40:\n      dup3\n      0x1f\n      lt\n      tag_41\n      jumpi\n      dup1\n      mload\n      not(0xff)\n      and\n      dup4\n      dup1\n      add\n      or\n      dup6\n      sstore\n      jump(tag_39)\n    tag_41:\n      dup3\n      dup1\n      add\n      0x01\n      add\n      dup6\n      sstore\n      dup3\n      iszero\n      tag_39\n      jumpi\n      swap2\n      dup3\n      add\n    tag_42:\n      dup3\n      dup2\n      gt\n      iszero\n      tag_43\n      jumpi\n      dup3\n      mload\n      dup3\n      sstore\n      swap2\n      0x20\n      add\n      swap2\n      swap1\n      0x01\n      add\n      swap1\n      jump(tag_42)\n    tag_43:\n    tag_39:\n      pop\n      swap1\n      pop\n      tag_44\n      swap2\n      swap1\n      tag_45\n      jump\t// in\n    tag_44:\n      pop\n      swap1\n      jump\t// out\n    tag_45:\n    tag_46:\n      dup1\n      dup3\n      gt\n      iszero\n      tag_47\n      jumpi\n      0x00\n      dup2\n      0x00\n      swap1\n      sstore\n      pop\n      0x01\n      add\n      jump(tag_46)\n    tag_47:\n      pop\n      swap1\n      jump\t// out\n        /* \"#utility.yul\":7:419   */\n    tag_49:\n        /* \"#utility.yul\":85:90   */\n      0x00\n        /* \"#utility.yul\":110:176   */\n      tag_51\n        /* \"#utility.yul\":126:175   */\n      tag_52\n        /* \"#utility.yul\":168:174   */\n      dup5\n        /* \"#utility.yul\":126:175   */\n      tag_53\n      jump\t// in\n    tag_52:\n        /* \"#utility.yul\":110:176   */\n      tag_54\n      jump\t// in\n    tag_51:\n        /* \"#utility.yul\":101:176   */\n      swap1\n      pop\n        /* \"#utility.yul\":199:205   */\n      dup3\n        /* \"#utility.yul\":192:197   */\n      dup2\n        /* \"#utility.yul\":185:206   */\n      mstore\n        /* \"#utility.yul\":237:241   */\n      0x20\n        /* \"#utility.yul\":230:235   */\n      dup2\n        /* \"#utility.yul\":226:242   */\n      add\n        /* \"#utility.yul\":275:278   */\n      dup5\n        /* \"#utility.yul\":266:272   */\n      dup5\n        /* \"#utility.yul\":261:264   */\n      dup5\n        /* \"#utility.yul\":257:273   */\n      add\n        /* \"#utility.yul\":254:279   */\n      gt\n        /* \"#utility.yul\":251:363   */\n      iszero\n      tag_55\n      jumpi\n        /* \"#utility.yul\":282:361   */\n      tag_56\n      tag_57\n      jump\t// in\n    tag_56:\n        /* \"#utility.yul\":251:363   */\n    tag_55:\n        /* \"#utility.yul\":372:413   */\n      tag_58\n        /* \"#utility.yul\":406:412   */\n      dup5\n        /* \"#utility.yul\":401:404   */\n      dup3\n        /* \"#utility.yul\":396:399   */\n      dup6\n        /* \"#utility.yul\":372:413   */\n      tag_59\n      jump\t// in\n    tag_58:\n        /* \"#utility.yul\":91:419   */\n      pop\n        /* \"#utility.yul\":7:419   */\n      swap4\n      swap3\n      pop\n      pop\n      pop\n      jump\t// out\n        /* \"#utility.yul\":439:779   */\n    tag_60:\n        /* \"#utility.yul\":495:500   */\n      0x00\n        /* \"#utility.yul\":544:547   */\n      dup3\n        /* \"#utility.yul\":537:541   */\n      0x1f\n        /* \"#utility.yul\":529:535   */\n      dup4\n        /* \"#utility.yul\":525:542   */\n      add\n        /* \"#utility.yul\":521:548   */\n      slt\n        /* \"#utility.yul\":511:633   */\n      tag_62\n      jumpi\n        /* \"#utility.yul\":552:631   */\n      tag_63\n      tag_64\n      jump\t// in\n    tag_63:\n        /* \"#utility.yul\":511:633   */\n    tag_62:\n        /* \"#utility.yul\":669:675   */\n      dup2\n        /* \"#utility.yul\":656:676   */\n      calldataload\n        /* \"#utility.yul\":694:773   */\n      tag_65\n        /* \"#utility.yul\":769:772   */\n      dup5\n        /* \"#utility.yul\":761:767   */\n      dup3\n        /* \"#utility.yul\":754:758   */\n      0x20\n        /* \"#utility.yul\":746:752   */\n      dup7\n        /* \"#utility.yul\":742:759   */\n      add\n        /* \"#utility.yul\":694:773   */\n      tag_49\n      jump\t// in\n    tag_65:\n        /* \"#utility.yul\":685:773   */\n      swap2\n      pop\n        /* \"#utility.yul\":501:779   */\n      pop\n        /* \"#utility.yul\":439:779   */\n      swap3\n      swap2\n      pop\n      pop\n      jump\t// out\n        /* \"#utility.yul\":785:924   */\n    tag_66:\n        /* \"#utility.yul\":831:836   */\n      0x00\n        /* \"#utility.yul\":869:875   */\n      dup2\n        /* \"#utility.yul\":856:876   */\n      calldataload\n        /* \"#utility.yul\":847:876   */\n      swap1\n      pop\n        /* \"#utility.yul\":885:918   */\n      tag_68\n        /* \"#utility.yul\":912:917   */\n      dup2\n        /* \"#utility.yul\":885:918   */\n      tag_69\n      jump\t// in\n    tag_68:\n        /* \"#utility.yul\":785:924   */\n      swap3\n      swap2\n      pop\n      pop\n      jump\t// out\n        /* \"#utility.yul\":930:1764   */\n    tag_12:\n        /* \"#utility.yul\":1018:1024   */\n      0x00\n        /* \"#utility.yul\":1026:1032   */\n      dup1\n        /* \"#utility.yul\":1075:1077   */\n      0x40\n        /* \"#utility.yul\":1063:1072   */\n      dup4\n        /* \"#utility.yul\":1054:1061   */\n      dup6\n        /* \"#utility.yul\":1050:1073   */\n      sub\n        /* \"#utility.yul\":1046:1078   */\n      slt\n        /* \"#utility.yul\":1043:1162   */\n      iszero\n      tag_71\n      jumpi\n        /* \"#utility.yul\":1081:1160   */\n      tag_72\n      tag_73\n      jump\t// in\n    tag_72:\n        /* \"#utility.yul\":1043:1162   */\n    tag_71:\n        /* \"#utility.yul\":1229:1230   */\n      0x00\n        /* \"#utility.yul\":1218:1227   */\n      dup4\n        /* \"#utility.yul\":1214:1231   */\n      add\n        /* \"#utility.yul\":1201:1232   */\n      calldataload\n        /* \"#utility.yul\":1259:1277   */\n      0xffffffffffffffff\n        /* \"#utility.yul\":1251:1257   */\n      dup2\n        /* \"#utility.yul\":1248:1278   */\n      gt\n        /* \"#utility.yul\":1245:1362   */\n      iszero\n      tag_74\n      jumpi\n        /* \"#utility.yul\":1281:1360   */\n      tag_75\n      tag_76\n      jump\t// in\n    tag_75:\n        /* \"#utility.yul\":1245:1362   */\n    tag_74:\n        /* \"#utility.yul\":1386:1449   */\n      tag_77\n        /* \"#utility.yul\":1441:1448   */\n      dup6\n        /* \"#utility.yul\":1432:1438   */\n      dup3\n        /* \"#utility.yul\":1421:1430   */\n      dup7\n        /* \"#utility.yul\":1417:1439   */\n      add\n        /* \"#utility.yul\":1386:1449   */\n      tag_60\n      jump\t// in\n    tag_77:\n        /* \"#utility.yul\":1376:1449   */\n      swap3\n      pop\n        /* \"#utility.yul\":1172:1459   */\n      pop\n        /* \"#utility.yul\":1526:1528   */\n      0x20\n        /* \"#utility.yul\":1515:1524   */\n      dup4\n        /* \"#utility.yul\":1511:1529   */\n      add\n        /* \"#utility.yul\":1498:1530   */\n      calldataload\n        /* \"#utility.yul\":1557:1575   */\n      0xffffffffffffffff\n        /* \"#utility.yul\":1549:1555   */\n      dup2\n        /* \"#utility.yul\":1546:1576   */\n      gt\n        /* \"#utility.yul\":1543:1660   */\n      iszero\n      tag_78\n      jumpi\n        /* \"#utility.yul\":1579:1658   */\n      tag_79\n      tag_76\n      jump\t// in\n    tag_79:\n        /* \"#utility.yul\":1543:1660   */\n    tag_78:\n        /* \"#utility.yul\":1684:1747   */\n      tag_80\n        /* \"#utility.yul\":1739:1746   */\n      dup6\n        /* \"#utility.yul\":1730:1736   */\n      dup3\n        /* \"#utility.yul\":1719:1728   */\n      dup7\n        /* \"#utility.yul\":1715:1737   */\n      add\n        /* \"#utility.yul\":1684:1747   */\n      tag_60\n      jump\t// in\n    tag_80:\n        /* \"#utility.yul\":1674:1747   */\n      swap2\n      pop\n        /* \"#utility.yul\":1469:1757   */\n      pop\n        /* \"#utility.yul\":930:1764   */\n      swap3\n      pop\n      swap3\n      swap1\n      pop\n      jump\t// out\n        /* \"#utility.yul\":1770:2099   */\n    tag_16:\n        /* \"#utility.yul\":1829:1835   */\n      0x00\n        /* \"#utility.yul\":1878:1880   */\n      0x20\n        /* \"#utility.yul\":1866:1875   */\n      dup3\n        /* \"#utility.yul\":1857:1864   */\n      dup5\n        /* \"#utility.yul\":1853:1876   */\n      sub\n        /* \"#utility.yul\":1849:1881   */\n      slt\n        /* \"#utility.yul\":1846:1965   */\n      iszero\n      tag_82\n      jumpi\n        /* \"#utility.yul\":1884:1963   */\n      tag_83\n      tag_73\n      jump\t// in\n    tag_83:\n        /* \"#utility.yul\":1846:1965   */\n    tag_82:\n        /* \"#utility.yul\":2004:2005   */\n      0x00\n        /* \"#utility.yul\":2029:2082   */\n      tag_84\n        /* \"#utility.yul\":2074:2081   */\n      dup5\n        /* \"#utility.yul\":2065:2071   */\n      dup3\n        /* \"#utility.yul\":2054:2063   */\n      dup6\n        /* \"#utility.yul\":2050:2072   */\n      add\n        /* \"#utility.yul\":2029:2082   */\n      tag_66\n      jump\t// in\n    tag_84:\n        /* \"#utility.yul\":2019:2082   */\n      swap2\n      pop\n        /* \"#utility.yul\":1975:2092   */\n      pop\n        /* \"#utility.yul\":1770:2099   */\n      swap3\n      swap2\n      pop\n      pop\n      jump\t// out\n        /* \"#utility.yul\":2105:2469   */\n    tag_85:\n        /* \"#utility.yul\":2193:2196   */\n      0x00\n        /* \"#utility.yul\":2221:2260   */\n      tag_87\n        /* \"#utility.yul\":2254:2259   */\n      dup3\n        /* \"#utility.yul\":2221:2260   */\n      tag_88\n      jump\t// in\n    tag_87:\n        /* \"#utility.yul\":2276:2347   */\n      tag_89\n        /* \"#utility.yul\":2340:2346   */\n      dup2\n        /* \"#utility.yul\":2335:2338   */\n      dup6\n        /* \"#utility.yul\":2276:2347   */\n      tag_90\n      jump\t// in\n    tag_89:\n        /* \"#utility.yul\":2269:2347   */\n      swap4\n      pop\n        /* \"#utility.yul\":2356:2408   */\n      tag_91\n        /* \"#utility.yul\":2401:2407   */\n      dup2\n        /* \"#utility.yul\":2396:2399   */\n      dup6\n        /* \"#utility.yul\":2389:2393   */\n      0x20\n        /* \"#utility.yul\":2382:2387   */\n      dup7\n        /* \"#utility.yul\":2378:2394   */\n      add\n        /* \"#utility.yul\":2356:2408   */\n      tag_92\n      jump\t// in\n    tag_91:\n        /* \"#utility.yul\":2433:2462   */\n      tag_93\n        /* \"#utility.yul\":2455:2461   */\n      dup2\n        /* \"#utility.yul\":2433:2462   */\n      tag_94\n      jump\t// in\n    tag_93:\n        /* \"#utility.yul\":2428:2431   */\n      dup5\n        /* \"#utility.yul\":2424:2463   */\n      add\n        /* \"#utility.yul\":2417:2463   */\n      swap2\n      pop\n        /* \"#utility.yul\":2197:2469   */\n      pop\n        /* \"#utility.yul\":2105:2469   */\n      swap3\n      swap2\n      pop\n      pop\n      jump\t// out\n        /* \"#utility.yul\":2475:2593   */\n    tag_95:\n        /* \"#utility.yul\":2562:2586   */\n      tag_97\n        /* \"#utility.yul\":2580:2585   */\n      dup2\n        /* \"#utility.yul\":2562:2586   */\n      tag_98\n      jump\t// in\n    tag_97:\n        /* \"#utility.yul\":2557:2560   */\n      dup3\n        /* \"#utility.yul\":2550:2587   */\n      mstore\n        /* \"#utility.yul\":2475:2593   */\n      pop\n      pop\n      jump\t// out\n        /* \"#utility.yul\":2599:3113   */\n    tag_19:\n        /* \"#utility.yul\":2760:2764   */\n      0x00\n        /* \"#utility.yul\":2798:2800   */\n      0x40\n        /* \"#utility.yul\":2787:2796   */\n      dup3\n        /* \"#utility.yul\":2783:2801   */\n      add\n        /* \"#utility.yul\":2775:2801   */\n      swap1\n      pop\n        /* \"#utility.yul\":2847:2856   */\n      dup2\n        /* \"#utility.yul\":2841:2845   */\n      dup2\n        /* \"#utility.yul\":2837:2857   */\n      sub\n        /* \"#utility.yul\":2833:2834   */\n      0x00\n        /* \"#utility.yul\":2822:2831   */\n      dup4\n        /* \"#utility.yul\":2818:2835   */\n      add\n        /* \"#utility.yul\":2811:2858   */\n      mstore\n        /* \"#utility.yul\":2875:2953   */\n      tag_100\n        /* \"#utility.yul\":2948:2952   */\n      dup2\n        /* \"#utility.yul\":2939:2945   */\n      dup6\n        /* \"#utility.yul\":2875:2953   */\n      tag_85\n      jump\t// in\n    tag_100:\n        /* \"#utility.yul\":2867:2953   */\n      swap1\n      pop\n        /* \"#utility.yul\":3000:3009   */\n      dup2\n        /* \"#utility.yul\":2994:2998   */\n      dup2\n        /* \"#utility.yul\":2990:3010   */\n      sub\n        /* \"#utility.yul\":2985:2987   */\n      0x20\n        /* \"#utility.yul\":2974:2983   */\n      dup4\n        /* \"#utility.yul\":2970:2988   */\n      add\n        /* \"#utility.yul\":2963:3011   */\n      mstore\n        /* \"#utility.yul\":3028:3106   */\n      tag_101\n        /* \"#utility.yul\":3101:3105   */\n      dup2\n        /* \"#utility.yul\":3092:3098   */\n      dup5\n        /* \"#utility.yul\":3028:3106   */\n      tag_85\n      jump\t// in\n    tag_101:\n        /* \"#utility.yul\":3020:3106   */\n      swap1\n      pop\n        /* \"#utility.yul\":2599:3113   */\n      swap4\n      swap3\n      pop\n      pop\n      pop\n      jump\t// out\n        /* \"#utility.yul\":3119:3341   */\n    tag_9:\n        /* \"#utility.yul\":3212:3216   */\n      0x00\n        /* \"#utility.yul\":3250:3252   */\n      0x20\n        /* \"#utility.yul\":3239:3248   */\n      dup3\n        /* \"#utility.yul\":3235:3253   */\n      add\n        /* \"#utility.yul\":3227:3253   */\n      swap1\n      pop\n        /* \"#utility.yul\":3263:3334   */\n      tag_103\n        /* \"#utility.yul\":3331:3332   */\n      0x00\n        /* \"#utility.yul\":3320:3329   */\n      dup4\n        /* \"#utility.yul\":3316:3333   */\n      add\n        /* \"#utility.yul\":3307:3313   */\n      dup5\n        /* \"#utility.yul\":3263:3334   */\n      tag_95\n      jump\t// in\n    tag_103:\n        /* \"#utility.yul\":3119:3341   */\n      swap3\n      swap2\n      pop\n      pop\n      jump\t// out\n        /* \"#utility.yul\":3347:3476   */\n    tag_54:\n        /* \"#utility.yul\":3381:3387   */\n      0x00\n        /* \"#utility.yul\":3408:3428   */\n      tag_105\n      tag_106\n      jump\t// in\n    tag_105:\n        /* \"#utility.yul\":3398:3428   */\n      swap1\n      pop\n        /* \"#utility.yul\":3437:3470   */\n      tag_107\n        /* \"#utility.yul\":3465:3469   */\n      dup3\n        /* \"#utility.yul\":3457:3463   */\n      dup3\n        /* \"#utility.yul\":3437:3470   */\n      tag_108\n      jump\t// in\n    tag_107:\n        /* \"#utility.yul\":3347:3476   */\n      swap2\n      swap1\n      pop\n      jump\t// out\n        /* \"#utility.yul\":3482:3557   */\n    tag_106:\n        /* \"#utility.yul\":3515:3521   */\n      0x00\n        /* \"#utility.yul\":3548:3550   */\n      0x40\n        /* \"#utility.yul\":3542:3551   */\n      mload\n        /* \"#utility.yul\":3532:3551   */\n      swap1\n      pop\n        /* \"#utility.yul\":3482:3557   */\n      swap1\n      jump\t// out\n        /* \"#utility.yul\":3563:3871   */\n    tag_53:\n        /* \"#utility.yul\":3625:3629   */\n      0x00\n        /* \"#utility.yul\":3715:3733   */\n      0xffffffffffffffff\n        /* \"#utility.yul\":3707:3713   */\n      dup3\n        /* \"#utility.yul\":3704:3734   */\n      gt\n        /* \"#utility.yul\":3701:3757   */\n      iszero\n      tag_111\n      jumpi\n        /* \"#utility.yul\":3737:3755   */\n      tag_112\n      tag_113\n      jump\t// in\n    tag_112:\n        /* \"#utility.yul\":3701:3757   */\n    tag_111:\n        /* \"#utility.yul\":3775:3804   */\n      tag_114\n        /* \"#utility.yul\":3797:3803   */\n      dup3\n        /* \"#utility.yul\":3775:3804   */\n      tag_94\n      jump\t// in\n    tag_114:\n        /* \"#utility.yul\":3767:3804   */\n      swap1\n      pop\n        /* \"#utility.yul\":3859:3863   */\n      0x20\n        /* \"#utility.yul\":3853:3857   */\n      dup2\n        /* \"#utility.yul\":3849:3864   */\n      add\n        /* \"#utility.yul\":3841:3864   */\n      swap1\n      pop\n        /* \"#utility.yul\":3563:3871   */\n      swap2\n      swap1\n      pop\n      jump\t// out\n        /* \"#utility.yul\":3877:3976   */\n    tag_88:\n        /* \"#utility.yul\":3929:3935   */\n      0x00\n        /* \"#utility.yul\":3963:3968   */\n      dup2\n        /* \"#utility.yul\":3957:3969   */\n      mload\n        /* \"#utility.yul\":3947:3969   */\n      swap1\n      pop\n        /* \"#utility.yul\":3877:3976   */\n      swap2\n      swap1\n      pop\n      jump\t// out\n        /* \"#utility.yul\":3982:4151   */\n    tag_90:\n        /* \"#utility.yul\":4066:4077   */\n      0x00\n        /* \"#utility.yul\":4100:4106   */\n      dup3\n        /* \"#utility.yul\":4095:4098   */\n      dup3\n        /* \"#utility.yul\":4088:4107   */\n      mstore\n        /* \"#utility.yul\":4140:4144   */\n      0x20\n        /* \"#utility.yul\":4135:4138   */\n      dup3\n        /* \"#utility.yul\":4131:4145   */\n      add\n        /* \"#utility.yul\":4116:4145   */\n      swap1\n      pop\n        /* \"#utility.yul\":3982:4151   */\n      swap3\n      swap2\n      pop\n      pop\n      jump\t// out\n        /* \"#utility.yul\":4157:4234   */\n    tag_98:\n        /* \"#utility.yul\":4194:4201   */\n      0x00\n        /* \"#utility.yul\":4223:4228   */\n      dup2\n        /* \"#utility.yul\":4212:4228   */\n      swap1\n      pop\n        /* \"#utility.yul\":4157:4234   */\n      swap2\n      swap1\n      pop\n      jump\t// out\n        /* \"#utility.yul\":4240:4394   */\n    tag_59:\n        /* \"#utility.yul\":4324:4330   */\n      dup3\n        /* \"#utility.yul\":4319:4322   */\n      dup2\n        /* \"#utility.yul\":4314:4317   */\n      dup4\n        /* \"#utility.yul\":4301:4331   */\n      calldatacopy\n        /* \"#utility.yul\":4386:4387   */\n      0x00\n        /* \"#utility.yul\":4377:4383   */\n      dup4\n        /* \"#utility.yul\":4372:4375   */\n      dup4\n        /* \"#utility.yul\":4368:4384   */\n      add\n        /* \"#utility.yul\":4361:4388   */\n      mstore\n        /* \"#utility.yul\":4240:4394   */\n      pop\n      pop\n      pop\n      jump\t// out\n        /* \"#utility.yul\":4400:4707   */\n    tag_92:\n        /* \"#utility.yul\":4468:4469   */\n      0x00\n        /* \"#utility.yul\":4478:4591   */\n    tag_120:\n        /* \"#utility.yul\":4492:4498   */\n      dup4\n        /* \"#utility.yul\":4489:4490   */\n      dup2\n        /* \"#utility.yul\":4486:4499   */\n      lt\n        /* \"#utility.yul\":4478:4591   */\n      iszero\n      tag_122\n      jumpi\n        /* \"#utility.yul\":4577:4578   */\n      dup1\n        /* \"#utility.yul\":4572:4575   */\n      dup3\n        /* \"#utility.yul\":4568:4579   */\n      add\n        /* \"#utility.yul\":4562:4580   */\n      mload\n        /* \"#utility.yul\":4558:4559   */\n      dup2\n        /* \"#utility.yul\":4553:4556   */\n      dup5\n        /* \"#utility.yul\":4549:4560   */\n      add\n        /* \"#utility.yul\":4542:4581   */\n      mstore\n        /* \"#utility.yul\":4514:4516   */\n      0x20\n        /* \"#utility.yul\":4511:4512   */\n      dup2\n        /* \"#utility.yul\":4507:4517   */\n      add\n        /* \"#utility.yul\":4502:4517   */\n      swap1\n      pop\n        /* \"#utility.yul\":4478:4591   */\n      jump(tag_120)\n    tag_122:\n        /* \"#utility.yul\":4609:4615   */\n      dup4\n        /* \"#utility.yul\":4606:4607   */\n      dup2\n        /* \"#utility.yul\":4603:4616   */\n      gt\n        /* \"#utility.yul\":4600:4701   */\n      iszero\n      tag_123\n      jumpi\n        /* \"#utility.yul\":4689:4690   */\n      0x00\n        /* \"#utility.yul\":4680:4686   */\n      dup5\n        /* \"#utility.yul\":4675:4678   */\n      dup5\n        /* \"#utility.yul\":4671:4687   */\n      add\n        /* \"#utility.yul\":4664:4691   */\n      mstore\n        /* \"#utility.yul\":4600:4701   */\n    tag_123:\n        /* \"#utility.yul\":4449:4707   */\n      pop\n        /* \"#utility.yul\":4400:4707   */\n      pop\n      pop\n      pop\n      jump\t// out\n        /* \"#utility.yul\":4713:5033   */\n    tag_28:\n        /* \"#utility.yul\":4757:4763   */\n      0x00\n        /* \"#utility.yul\":4794:4795   */\n      0x02\n        /* \"#utility.yul\":4788:4792   */\n      dup3\n        /* \"#utility.yul\":4784:4796   */\n      div\n        /* \"#utility.yul\":4774:4796   */\n      swap1\n      pop\n        /* \"#utility.yul\":4841:4842   */\n      0x01\n        /* \"#utility.yul\":4835:4839   */\n      dup3\n        /* \"#utility.yul\":4831:4843   */\n      and\n        /* \"#utility.yul\":4862:4880   */\n      dup1\n        /* \"#utility.yul\":4852:4933   */\n      tag_125\n      jumpi\n        /* \"#utility.yul\":4918:4922   */\n      0x7f\n        /* \"#utility.yul\":4910:4916   */\n      dup3\n        /* \"#utility.yul\":4906:4923   */\n      and\n        /* \"#utility.yul\":4896:4923   */\n      swap2\n      pop\n        /* \"#utility.yul\":4852:4933   */\n    tag_125:\n        /* \"#utility.yul\":4980:4982   */\n      0x20\n        /* \"#utility.yul\":4972:4978   */\n      dup3\n        /* \"#utility.yul\":4969:4983   */\n      lt\n        /* \"#utility.yul\":4949:4967   */\n      dup2\n        /* \"#utility.yul\":4946:4984   */\n      eq\n        /* \"#utility.yul\":4943:5027   */\n      iszero\n      tag_126\n      jumpi\n        /* \"#utility.yul\":4999:5017   */\n      tag_127\n      tag_128\n      jump\t// in\n    tag_127:\n        /* \"#utility.yul\":4943:5027   */\n    tag_126:\n        /* \"#utility.yul\":4764:5033   */\n      pop\n        /* \"#utility.yul\":4713:5033   */\n      swap2\n      swap1\n      pop\n      jump\t// out\n        /* \"#utility.yul\":5039:5320   */\n    tag_108:\n        /* \"#utility.yul\":5122:5149   */\n      tag_130\n        /* \"#utility.yul\":5144:5148   */\n      dup3\n        /* \"#utility.yul\":5122:5149   */\n      tag_94\n      jump\t// in\n    tag_130:\n        /* \"#utility.yul\":5114:5120   */\n      dup2\n        /* \"#utility.yul\":5110:5150   */\n      add\n        /* \"#utility.yul\":5252:5258   */\n      dup2\n        /* \"#utility.yul\":5240:5250   */\n      dup2\n        /* \"#utility.yul\":5237:5259   */\n      lt\n        /* \"#utility.yul\":5216:5234   */\n      0xffffffffffffffff\n        /* \"#utility.yul\":5204:5214   */\n      dup3\n        /* \"#utility.yul\":5201:5235   */\n      gt\n        /* \"#utility.yul\":5198:5260   */\n      or\n        /* \"#utility.yul\":5195:5283   */\n      iszero\n      tag_131\n      jumpi\n        /* \"#utility.yul\":5263:5281   */\n      tag_132\n      tag_113\n      jump\t// in\n    tag_132:\n        /* \"#utility.yul\":5195:5283   */\n    tag_131:\n        /* \"#utility.yul\":5303:5313   */\n      dup1\n        /* \"#utility.yul\":5299:5301   */\n      0x40\n        /* \"#utility.yul\":5292:5314   */\n      mstore\n        /* \"#utility.yul\":5082:5320   */\n      pop\n        /* \"#utility.yul\":5039:5320   */\n      pop\n      pop\n      jump\t// out\n        /* \"#utility.yul\":5326:5506   */\n    tag_128:\n        /* \"#utility.yul\":5374:5451   */\n      0x4e487b7100000000000000000000000000000000000000000000000000000000\n        /* \"#utility.yul\":5371:5372   */\n      0x00\n        /* \"#utility.yul\":5364:5452   */\n      mstore\n        /* \"#utility.yul\":5471:5475   */\n      0x22\n        /* \"#utility.yul\":5468:5469   */\n      0x04\n        /* \"#utility.yul\":5461:5476   */\n      mstore\n        /* \"#utility.yul\":5495:5499   */\n      0x24\n        /* \"#utility.yul\":5492:5493   */\n      0x00\n        /* \"#utility.yul\":5485:5500   */\n      revert\n        /* \"#utility.yul\":5512:5692   */\n    tag_113:\n        /* \"#utility.yul\":5560:5637   */\n      0x4e487b7100000000000000000000000000000000000000000000000000000000\n        /* \"#utility.yul\":5557:5558   */\n      0x00\n        /* \"#utility.yul\":5550:5638   */\n      mstore\n        /* \"#utility.yul\":5657:5661   */\n      0x41\n        /* \"#utility.yul\":5654:5655   */\n      0x04\n        /* \"#utility.yul\":5647:5662   */\n      mstore\n        /* \"#utility.yul\":5681:5685   */\n      0x24\n        /* \"#utility.yul\":5678:5679   */\n      0x00\n        /* \"#utility.yul\":5671:5686   */\n      revert\n        /* \"#utility.yul\":5698:5815   */\n    tag_64:\n        /* \"#utility.yul\":5807:5808   */\n      0x00\n        /* \"#utility.yul\":5804:5805   */\n      dup1\n        /* \"#utility.yul\":5797:5809   */\n      revert\n        /* \"#utility.yul\":5821:5938   */\n    tag_57:\n        /* \"#utility.yul\":5930:5931   */\n      0x00\n        /* \"#utility.yul\":5927:5928   */\n      dup1\n        /* \"#utility.yul\":5920:5932   */\n      revert\n        /* \"#utility.yul\":5944:6061   */\n    tag_76:\n        /* \"#utility.yul\":6053:6054   */\n      0x00\n        /* \"#utility.yul\":6050:6051   */\n      dup1\n        /* \"#utility.yul\":6043:6055   */\n      revert\n        /* \"#utility.yul\":6067:6184   */\n    tag_73:\n        /* \"#utility.yul\":6176:6177   */\n      0x00\n        /* \"#utility.yul\":6173:6174   */\n      dup1\n        /* \"#utility.yul\":6166:6178   */\n      revert\n        /* \"#utility.yul\":6190:6292   */\n    tag_94:\n        /* \"#utility.yul\":6231:6237   */\n      0x00\n        /* \"#utility.yul\":6282:6284   */\n      0x1f\n        /* \"#utility.yul\":6278:6285   */\n      not\n        /* \"#utility.yul\":6273:6275   */\n      0x1f\n        /* \"#utility.yul\":6266:6271   */\n      dup4\n        /* \"#utility.yul\":6262:6276   */\n      add\n        /* \"#utility.yul\":6258:6286   */\n      and\n        /* \"#utility.yul\":6248:6286   */\n      swap1\n      pop\n        /* \"#utility.yul\":6190:6292   */\n      swap2\n      swap1\n      pop\n      jump\t// out\n        /* \"#utility.yul\":6298:6420   */\n    tag_69:\n        /* \"#utility.yul\":6371:6395   */\n      tag_141\n        /* \"#utility.yul\":6389:6394   */\n      dup2\n        /* \"#utility.yul\":6371:6395   */\n      tag_98\n      jump\t// in\n    tag_141:\n        /* \"#utility.yul\":6364:6369   */\n      dup2\n        /* \"#utility.yul\":6361:6396   */\n      eq\n        /* \"#utility.yul\":6351:6414   */\n      tag_142\n      jumpi\n        /* \"#utility.yul\":6410:6411   */\n      0x00\n        /* \"#utility.yul\":6407:6408   */\n      dup1\n        /* \"#utility.yul\":6400:6412   */\n      revert\n        /* \"#utility.yul\":6351:6414   */\n    tag_142:\n        /* \"#utility.yul\":6298:6420   */\n      pop\n      jump\t// out\n\n    auxdata: 0xa2646970667358221220f27779b6622d17277d14d2a044132639e2d980fc636dfd6f562c87f6dcef917164736f6c63430008070033\n}\n",
				"bytecode": {
					"linkReferences": {},
					"object": "60806040526000805534801561001457600080fd5b506106d3806100246000396000f3fe608060405234801561001057600080fd5b50600436106100415760003560e01c8063302bcc57146100465780635cb119a914610064578063f71d96cb14610080575b600080fd5b61004e6100b1565b60405161005b91906104c7565b60405180910390f35b61007e600480360381019061007991906103a3565b6100b7565b005b61009a6004803603810190610095919061041b565b610137565b6040516100a8929190610490565b60405180910390f35b60005481565b60016040518060400160405280848152602001838152509080600181540180825580915050600190039060005260206000209060020201600090919091909150600082015181600001908051906020019061011392919061027b565b50602082015181600101908051906020019061013092919061027b565b5050505050565b6001818154811061014757600080fd5b906000526020600020906002020160009150905080600001805461016a906105a0565b80601f0160208091040260200160405190810160405280929190818152602001828054610196906105a0565b80156101e35780601f106101b8576101008083540402835291602001916101e3565b820191906000526020600020905b8154815290600101906020018083116101c657829003601f168201915b5050505050908060010180546101f8906105a0565b80601f0160208091040260200160405190810160405280929190818152602001828054610224906105a0565b80156102715780601f1061024657610100808354040283529160200191610271565b820191906000526020600020905b81548152906001019060200180831161025457829003601f168201915b5050505050905082565b828054610287906105a0565b90600052602060002090601f0160209004810192826102a957600085556102f0565b82601f106102c257805160ff19168380011785556102f0565b828001600101855582156102f0579182015b828111156102ef5782518255916020019190600101906102d4565b5b5090506102fd9190610301565b5090565b5b8082111561031a576000816000905550600101610302565b5090565b600061033161032c84610507565b6104e2565b90508281526020810184848401111561034d5761034c610666565b5b61035884828561055e565b509392505050565b600082601f83011261037557610374610661565b5b813561038584826020860161031e565b91505092915050565b60008135905061039d81610686565b92915050565b600080604083850312156103ba576103b9610670565b5b600083013567ffffffffffffffff8111156103d8576103d761066b565b5b6103e485828601610360565b925050602083013567ffffffffffffffff8111156104055761040461066b565b5b61041185828601610360565b9150509250929050565b60006020828403121561043157610430610670565b5b600061043f8482850161038e565b91505092915050565b600061045382610538565b61045d8185610543565b935061046d81856020860161056d565b61047681610675565b840191505092915050565b61048a81610554565b82525050565b600060408201905081810360008301526104aa8185610448565b905081810360208301526104be8184610448565b90509392505050565b60006020820190506104dc6000830184610481565b92915050565b60006104ec6104fd565b90506104f882826105d2565b919050565b6000604051905090565b600067ffffffffffffffff82111561052257610521610632565b5b61052b82610675565b9050602081019050919050565b600081519050919050565b600082825260208201905092915050565b6000819050919050565b82818337600083830152505050565b60005b8381101561058b578082015181840152602081019050610570565b8381111561059a576000848401525b50505050565b600060028204905060018216806105b857607f821691505b602082108114156105cc576105cb610603565b5b50919050565b6105db82610675565b810181811067ffffffffffffffff821117156105fa576105f9610632565b5b80604052505050565b7f4e487b7100000000000000000000000000000000000000000000000000000000600052602260045260246000fd5b7f4e487b7100000000000000000000000000000000000000000000000000000000600052604160045260246000fd5b600080fd5b600080fd5b600080fd5b600080fd5b6000601f19601f8301169050919050565b61068f81610554565b811461069a57600080fd5b5056fea2646970667358221220f27779b6622d17277d14d2a044132639e2d980fc636dfd6f562c87f6dcef917164736f6c63430008070033",
					"opcodes": "PUSH1 0x80 PUSH1 0x40 MSTORE PUSH1 0x0 DUP1 SSTORE CALLVALUE DUP1 ISZERO PUSH2 0x14 JUMPI PUSH1 0x0 DUP1 REVERT JUMPDEST POP PUSH2 0x6D3 DUP1 PUSH2 0x24 PUSH1 0x0 CODECOPY PUSH1 0x0 RETURN INVALID PUSH1 0x80 PUSH1 0x40 MSTORE CALLVALUE DUP1 ISZERO PUSH2 0x10 JUMPI PUSH1 0x0 DUP1 REVERT JUMPDEST POP PUSH1 0x4 CALLDATASIZE LT PUSH2 0x41 JUMPI PUSH1 0x0 CALLDATALOAD PUSH1 0xE0 SHR DUP1 PUSH4 0x302BCC57 EQ PUSH2 0x46 JUMPI DUP1 PUSH4 0x5CB119A9 EQ PUSH2 0x64 JUMPI DUP1 PUSH4 0xF71D96CB EQ PUSH2 0x80 JUMPI JUMPDEST PUSH1 0x0 DUP1 REVERT JUMPDEST PUSH2 0x4E PUSH2 0xB1 JUMP JUMPDEST PUSH1 0x40 MLOAD PUSH2 0x5B SWAP2 SWAP1 PUSH2 0x4C7 JUMP JUMPDEST PUSH1 0x40 MLOAD DUP1 SWAP2 SUB SWAP1 RETURN JUMPDEST PUSH2 0x7E PUSH1 0x4 DUP1 CALLDATASIZE SUB DUP2 ADD SWAP1 PUSH2 0x79 SWAP2 SWAP1 PUSH2 0x3A3 JUMP JUMPDEST PUSH2 0xB7 JUMP JUMPDEST STOP JUMPDEST PUSH2 0x9A PUSH1 0x4 DUP1 CALLDATASIZE SUB DUP2 ADD SWAP1 PUSH2 0x95 SWAP2 SWAP1 PUSH2 0x41B JUMP JUMPDEST PUSH2 0x137 JUMP JUMPDEST PUSH1 0x40 MLOAD PUSH2 0xA8 SWAP3 SWAP2 SWAP1 PUSH2 0x490 JUMP JUMPDEST PUSH1 0x40 MLOAD DUP1 SWAP2 SUB SWAP1 RETURN JUMPDEST PUSH1 0x0 SLOAD DUP2 JUMP JUMPDEST PUSH1 0x1 PUSH1 0x40 MLOAD DUP1 PUSH1 0x40 ADD PUSH1 0x40 MSTORE DUP1 DUP5 DUP2 MSTORE PUSH1 0x20 ADD DUP4 DUP2 MSTORE POP SWAP1 DUP1 PUSH1 0x1 DUP2 SLOAD ADD DUP1 DUP3 SSTORE DUP1 SWAP2 POP POP PUSH1 0x1 SWAP1 SUB SWAP1 PUSH1 0x0 MSTORE PUSH1 0x20 PUSH1 0x0 KECCAK256 SWAP1 PUSH1 0x2 MUL ADD PUSH1 0x0 SWAP1 SWAP2 SWAP1 SWAP2 SWAP1 SWAP2 POP PUSH1 0x0 DUP3 ADD MLOAD DUP2 PUSH1 0x0 ADD SWAP1 DUP1 MLOAD SWAP1 PUSH1 0x20 ADD SWAP1 PUSH2 0x113 SWAP3 SWAP2 SWAP1 PUSH2 0x27B JUMP JUMPDEST POP PUSH1 0x20 DUP3 ADD MLOAD DUP2 PUSH1 0x1 ADD SWAP1 DUP1 MLOAD SWAP1 PUSH1 0x20 ADD SWAP1 PUSH2 0x130 SWAP3 SWAP2 SWAP1 PUSH2 0x27B JUMP JUMPDEST POP POP POP POP POP JUMP JUMPDEST PUSH1 0x1 DUP2 DUP2 SLOAD DUP2 LT PUSH2 0x147 JUMPI PUSH1 0x0 DUP1 REVERT JUMPDEST SWAP1 PUSH1 0x0 MSTORE PUSH1 0x20 PUSH1 0x0 KECCAK256 SWAP1 PUSH1 0x2 MUL ADD PUSH1 0x0 SWAP2 POP SWAP1 POP DUP1 PUSH1 0x0 ADD DUP1 SLOAD PUSH2 0x16A SWAP1 PUSH2 0x5A0 JUMP JUMPDEST DUP1 PUSH1 0x1F ADD PUSH1 0x20 DUP1 SWAP2 DIV MUL PUSH1 0x20 ADD PUSH1 0x40 MLOAD SWAP1 DUP2 ADD PUSH1 0x40 MSTORE DUP1 SWAP3 SWAP2 SWAP1 DUP2 DUP2 MSTORE PUSH1 0x20 ADD DUP3 DUP1 SLOAD PUSH2 0x196 SWAP1 PUSH2 0x5A0 JUMP JUMPDEST DUP1 ISZERO PUSH2 0x1E3 JUMPI DUP1 PUSH1 0x1F LT PUSH2 0x1B8 JUMPI PUSH2 0x100 DUP1 DUP4 SLOAD DIV MUL DUP4 MSTORE SWAP2 PUSH1 0x20 ADD SWAP2 PUSH2 0x1E3 JUMP JUMPDEST DUP3 ADD SWAP2 SWAP1 PUSH1 0x0 MSTORE PUSH1 0x20 PUSH1 0x0 KECCAK256 SWAP1 JUMPDEST DUP2 SLOAD DUP2 MSTORE SWAP1 PUSH1 0x1 ADD SWAP1 PUSH1 0x20 ADD DUP1 DUP4 GT PUSH2 0x1C6 JUMPI DUP3 SWAP1 SUB PUSH1 0x1F AND DUP3 ADD SWAP2 JUMPDEST POP POP POP POP POP SWAP1 DUP1 PUSH1 0x1 ADD DUP1 SLOAD PUSH2 0x1F8 SWAP1 PUSH2 0x5A0 JUMP JUMPDEST DUP1 PUSH1 0x1F ADD PUSH1 0x20 DUP1 SWAP2 DIV MUL PUSH1 0x20 ADD PUSH1 0x40 MLOAD SWAP1 DUP2 ADD PUSH1 0x40 MSTORE DUP1 SWAP3 SWAP2 SWAP1 DUP2 DUP2 MSTORE PUSH1 0x20 ADD DUP3 DUP1 SLOAD PUSH2 0x224 SWAP1 PUSH2 0x5A0 JUMP JUMPDEST DUP1 ISZERO PUSH2 0x271 JUMPI DUP1 PUSH1 0x1F LT PUSH2 0x246 JUMPI PUSH2 0x100 DUP1 DUP4 SLOAD DIV MUL DUP4 MSTORE SWAP2 PUSH1 0x20 ADD SWAP2 PUSH2 0x271 JUMP JUMPDEST DUP3 ADD SWAP2 SWAP1 PUSH1 0x0 MSTORE PUSH1 0x20 PUSH1 0x0 KECCAK256 SWAP1 JUMPDEST DUP2 SLOAD DUP2 MSTORE SWAP1 PUSH1 0x1 ADD SWAP1 PUSH1 0x20 ADD DUP1 DUP4 GT PUSH2 0x254 JUMPI DUP3 SWAP1 SUB PUSH1 0x1F AND DUP3 ADD SWAP2 JUMPDEST POP POP POP POP POP SWAP1 POP DUP3 JUMP JUMPDEST DUP3 DUP1 SLOAD PUSH2 0x287 SWAP1 PUSH2 0x5A0 JUMP JUMPDEST SWAP1 PUSH1 0x0 MSTORE PUSH1 0x20 PUSH1 0x0 KECCAK256 SWAP1 PUSH1 0x1F ADD PUSH1 0x20 SWAP1 DIV DUP2 ADD SWAP3 DUP3 PUSH2 0x2A9 JUMPI PUSH1 0x0 DUP6 SSTORE PUSH2 0x2F0 JUMP JUMPDEST DUP3 PUSH1 0x1F LT PUSH2 0x2C2 JUMPI DUP1 MLOAD PUSH1 0xFF NOT AND DUP4 DUP1 ADD OR DUP6 SSTORE PUSH2 0x2F0 JUMP JUMPDEST DUP3 DUP1 ADD PUSH1 0x1 ADD DUP6 SSTORE DUP3 ISZERO PUSH2 0x2F0 JUMPI SWAP2 DUP3 ADD JUMPDEST DUP3 DUP2 GT ISZERO PUSH2 0x2EF JUMPI DUP3 MLOAD DUP3 SSTORE SWAP2 PUSH1 0x20 ADD SWAP2 SWAP1 PUSH1 0x1 ADD SWAP1 PUSH2 0x2D4 JUMP JUMPDEST JUMPDEST POP SWAP1 POP PUSH2 0x2FD SWAP2 SWAP1 PUSH2 0x301 JUMP JUMPDEST POP SWAP1 JUMP JUMPDEST JUMPDEST DUP1 DUP3 GT ISZERO PUSH2 0x31A JUMPI PUSH1 0x0 DUP2 PUSH1 0x0 SWAP1 SSTORE POP PUSH1 0x1 ADD PUSH2 0x302 JUMP JUMPDEST POP SWAP1 JUMP JUMPDEST PUSH1 0x0 PUSH2 0x331 PUSH2 0x32C DUP5 PUSH2 0x507 JUMP JUMPDEST PUSH2 0x4E2 JUMP JUMPDEST SWAP1 POP DUP3 DUP2 MSTORE PUSH1 0x20 DUP2 ADD DUP5 DUP5 DUP5 ADD GT ISZERO PUSH2 0x34D JUMPI PUSH2 0x34C PUSH2 0x666 JUMP JUMPDEST JUMPDEST PUSH2 0x358 DUP5 DUP3 DUP6 PUSH2 0x55E JUMP JUMPDEST POP SWAP4 SWAP3 POP POP POP JUMP JUMPDEST PUSH1 0x0 DUP3 PUSH1 0x1F DUP4 ADD SLT PUSH2 0x375 JUMPI PUSH2 0x374 PUSH2 0x661 JUMP JUMPDEST JUMPDEST DUP2 CALLDATALOAD PUSH2 0x385 DUP5 DUP3 PUSH1 0x20 DUP7 ADD PUSH2 0x31E JUMP JUMPDEST SWAP2 POP POP SWAP3 SWAP2 POP POP JUMP JUMPDEST PUSH1 0x0 DUP2 CALLDATALOAD SWAP1 POP PUSH2 0x39D DUP2 PUSH2 0x686 JUMP JUMPDEST SWAP3 SWAP2 POP POP JUMP JUMPDEST PUSH1 0x0 DUP1 PUSH1 0x40 DUP4 DUP6 SUB SLT ISZERO PUSH2 0x3BA JUMPI PUSH2 0x3B9 PUSH2 0x670 JUMP JUMPDEST JUMPDEST PUSH1 0x0 DUP4 ADD CALLDATALOAD PUSH8 0xFFFFFFFFFFFFFFFF DUP2 GT ISZERO PUSH2 0x3D8 JUMPI PUSH2 0x3D7 PUSH2 0x66B JUMP JUMPDEST JUMPDEST PUSH2 0x3E4 DUP6 DUP3 DUP7 ADD PUSH2 0x360 JUMP JUMPDEST SWAP3 POP POP PUSH1 0x20 DUP4 ADD CALLDATALOAD PUSH8 0xFFFFFFFFFFFFFFFF DUP2 GT ISZERO PUSH2 0x405 JUMPI PUSH2 0x404 PUSH2 0x66B JUMP JUMPDEST JUMPDEST PUSH2 0x411 DUP6 DUP3 DUP7 ADD PUSH2 0x360 JUMP JUMPDEST SWAP2 POP POP SWAP3 POP SWAP3 SWAP1 POP JUMP JUMPDEST PUSH1 0x0 PUSH1 0x20 DUP3 DUP5 SUB SLT ISZERO PUSH2 0x431 JUMPI PUSH2 0x430 PUSH2 0x670 JUMP JUMPDEST JUMPDEST PUSH1 0x0 PUSH2 0x43F DUP5 DUP3 DUP6 ADD PUSH2 0x38E JUMP JUMPDEST SWAP2 POP POP SWAP3 SWAP2 POP POP JUMP JUMPDEST PUSH1 0x0 PUSH2 0x453 DUP3 PUSH2 0x538 JUMP JUMPDEST PUSH2 0x45D DUP2 DUP6 PUSH2 0x543 JUMP JUMPDEST SWAP4 POP PUSH2 0x46D DUP2 DUP6 PUSH1 0x20 DUP7 ADD PUSH2 0x56D JUMP JUMPDEST PUSH2 0x476 DUP2 PUSH2 0x675 JUMP JUMPDEST DUP5 ADD SWAP2 POP POP SWAP3 SWAP2 POP POP JUMP JUMPDEST PUSH2 0x48A DUP2 PUSH2 0x554 JUMP JUMPDEST DUP3 MSTORE POP POP JUMP JUMPDEST PUSH1 0x0 PUSH1 0x40 DUP3 ADD SWAP1 POP DUP2 DUP2 SUB PUSH1 0x0 DUP4 ADD MSTORE PUSH2 0x4AA DUP2 DUP6 PUSH2 0x448 JUMP JUMPDEST SWAP1 POP DUP2 DUP2 SUB PUSH1 0x20 DUP4 ADD MSTORE PUSH2 0x4BE DUP2 DUP5 PUSH2 0x448 JUMP JUMPDEST SWAP1 POP SWAP4 SWAP3 POP POP POP JUMP JUMPDEST PUSH1 0x0 PUSH1 0x20 DUP3 ADD SWAP1 POP PUSH2 0x4DC PUSH1 0x0 DUP4 ADD DUP5 PUSH2 0x481 JUMP JUMPDEST SWAP3 SWAP2 POP POP JUMP JUMPDEST PUSH1 0x0 PUSH2 0x4EC PUSH2 0x4FD JUMP JUMPDEST SWAP1 POP PUSH2 0x4F8 DUP3 DUP3 PUSH2 0x5D2 JUMP JUMPDEST SWAP2 SWAP1 POP JUMP JUMPDEST PUSH1 0x0 PUSH1 0x40 MLOAD SWAP1 POP SWAP1 JUMP JUMPDEST PUSH1 0x0 PUSH8 0xFFFFFFFFFFFFFFFF DUP3 GT ISZERO PUSH2 0x522 JUMPI PUSH2 0x521 PUSH2 0x632 JUMP JUMPDEST JUMPDEST PUSH2 0x52B DUP3 PUSH2 0x675 JUMP JUMPDEST SWAP1 POP PUSH1 0x20 DUP2 ADD SWAP1 POP SWAP2 SWAP1 POP JUMP JUMPDEST PUSH1 0x0 DUP2 MLOAD SWAP1 POP SWAP2 SWAP1 POP JUMP JUMPDEST PUSH1 0x0 DUP3 DUP3 MSTORE PUSH1 0x20 DUP3 ADD SWAP1 POP SWAP3 SWAP2 POP POP JUMP JUMPDEST PUSH1 0x0 DUP2 SWAP1 POP SWAP2 SWAP1 POP JUMP JUMPDEST DUP3 DUP2 DUP4 CALLDATACOPY PUSH1 0x0 DUP4 DUP4 ADD MSTORE POP POP POP JUMP JUMPDEST PUSH1 0x0 JUMPDEST DUP4 DUP2 LT ISZERO PUSH2 0x58B JUMPI DUP1 DUP3 ADD MLOAD DUP2 DUP5 ADD MSTORE PUSH1 0x20 DUP2 ADD SWAP1 POP PUSH2 0x570 JUMP JUMPDEST DUP4 DUP2 GT ISZERO PUSH2 0x59A JUMPI PUSH1 0x0 DUP5 DUP5 ADD MSTORE JUMPDEST POP POP POP POP JUMP JUMPDEST PUSH1 0x0 PUSH1 0x2 DUP3 DIV SWAP1 POP PUSH1 0x1 DUP3 AND DUP1 PUSH2 0x5B8 JUMPI PUSH1 0x7F DUP3 AND SWAP2 POP JUMPDEST PUSH1 0x20 DUP3 LT DUP2 EQ ISZERO PUSH2 0x5CC JUMPI PUSH2 0x5CB PUSH2 0x603 JUMP JUMPDEST JUMPDEST POP SWAP2 SWAP1 POP JUMP JUMPDEST PUSH2 0x5DB DUP3 PUSH2 0x675 JUMP JUMPDEST DUP2 ADD DUP2 DUP2 LT PUSH8 0xFFFFFFFFFFFFFFFF DUP3 GT OR ISZERO PUSH2 0x5FA JUMPI PUSH2 0x5F9 PUSH2 0x632 JUMP JUMPDEST JUMPDEST DUP1 PUSH1 0x40 MSTORE POP POP POP JUMP JUMPDEST PUSH32 0x4E487B7100000000000000000000000000000000000000000000000000000000 PUSH1 0x0 MSTORE PUSH1 0x22 PUSH1 0x4 MSTORE PUSH1 0x24 PUSH1 0x0 REVERT JUMPDEST PUSH32 0x4E487B7100000000000000000000000000000000000000000000000000000000 PUSH1 0x0 MSTORE PUSH1 0x41 PUSH1 0x4 MSTORE PUSH1 0x24 PUSH1 0x0 REVERT JUMPDEST PUSH1 0x0 DUP1 REVERT JUMPDEST PUSH1 0x0 DUP1 REVERT JUMPDEST PUSH1 0x0 DUP1 REVERT JUMPDEST PUSH1 0x0 DUP1 REVERT JUMPDEST PUSH1 0x0 PUSH1 0x1F NOT PUSH1 0x1F DUP4 ADD AND SWAP1 POP SWAP2 SWAP1 POP JUMP JUMPDEST PUSH2 0x68F DUP2 PUSH2 0x554 JUMP JUMPDEST DUP2 EQ PUSH2 0x69A JUMPI PUSH1 0x0 DUP1 REVERT JUMPDEST POP JUMP INVALID LOG2 PUSH5 0x6970667358 0x22 SLT KECCAK256 CALLCODE PUSH24 0x79B6622D17277D14D2A044132639E2D980FC636DFD6F562C DUP8 0xF6 0xDC 0xEF SWAP2 PUSH18 0x64736F6C6343000807003300000000000000 "
				},
				"gasEstimates": {
					"creation": {
						"codeDepositCost": "349400",
						"executionCost": "5392",
						"totalCost": "354792"
					},
					"external": {
						"addPlayer(string,string)": "infinite",
						"playerCount()": "2407",
						"players(uint256)": "infinite"
					}
				},
				"methodIdentifiers": {
					"addPlayer(string,string)": "5cb119a9",
					"playerCount()": "302bcc57",
					"players(uint256)": "f71d96cb"
				}
			},
			"storageLayout": {
				"storage": [
					{
						"astId": 4,
						"contract": "contracts/DataTypes.sol:myGame",
						"label": "playerCount",
						"offset": 0,
						"slot": "0",
						"type": "t_uint256"
					},
					{
						"astId": 8,
						"contract": "contracts/DataTypes.sol:myGame",
						"label": "players",
						"offset": 0,
						"slot": "1",
						"type": "t_array(t_struct(Player)13_storage)dyn_storage"
					}
				],
				"types": {
					"t_array(t_struct(Player)13_storage)dyn_storage": {
						"base": "t_struct(Player)13_storage",
						"encoding": "dynamic_array",
						"label": "struct myGame.Player[]",
						"numberOfBytes": "32"
					},
					"t_string_storage": {
						"encoding": "bytes",
						"label": "string",
						"numberOfBytes": "32"
					},
					"t_struct(Player)13_storage": {
						"encoding": "inplace",
						"label": "struct myGame.Player",
						"members": [
							{
								"astId": 10,
								"contract": "contracts/DataTypes.sol:myGame",
								"label": "firstName",
								"offset": 0,
								"slot": "0",
								"type": "t_string_storage"
							},
							{
								"astId": 12,
								"contract": "contracts/DataTypes.sol:myGame",
								"label": "lastName",
								"offset": 0,
								"slot": "1",
								"type": "t_string_storage"
							}
						],
						"numberOfBytes": "64"
					},
					"t_uint256": {
						"encoding": "inplace",
						"label": "uint256",
						"numberOfBytes": "32"
					}
				}
			},
			"userdoc": {
				"kind": "user",
				"methods": {},
				"version": 1
			}
		}
	}
}