{
	"contracts/SimpleTime2.sol": {
		"Coin": {
			"abi": [
				{
					"inputs": [],
					"stateMutability": "nonpayable",
					"type": "constructor"
				},
				{
					"anonymous": false,
					"inputs": [
						{
							"indexed": false,
							"internalType": "address",
							"name": "from",
							"type": "address"
						},
						{
							"indexed": false,
							"internalType": "address",
							"name": "to",
							"type": "address"
						},
						{
							"indexed": false,
							"internalType": "uint256",
							"name": "amount",
							"type": "uint256"
						}
					],
					"name": "Sent",
					"type": "event"
				},
				{
					"inputs": [
						{
							"internalType": "address",
							"name": "",
							"type": "address"
						}
					],
					"name": "balances",
					"outputs": [
						{
							"internalType": "uint256",
							"name": "",
							"type": "uint256"
						}
					],
					"stateMutability": "view",
					"type": "function"
				},
				{
					"inputs": [
						{
							"internalType": "address",
							"name": "receiver",
							"type": "address"
						},
						{
							"internalType": "uint256",
							"name": "amount",
							"type": "uint256"
						}
					],
					"name": "mint",
					"outputs": [],
					"stateMutability": "nonpayable",
					"type": "function"
				},
				{
					"inputs": [],
					"name": "minter",
					"outputs": [
						{
							"internalType": "address",
							"name": "",
							"type": "address"
						}
					],
					"stateMutability": "view",
					"type": "function"
				},
				{
					"inputs": [
						{
							"internalType": "address",
							"name": "receiver",
							"type": "address"
						},
						{
							"internalType": "uint256",
							"name": "amount",
							"type": "uint256"
						}
					],
					"name": "send",
					"outputs": [],
					"stateMutability": "nonpayable",
					"type": "function"
				}
			],
			"devdoc": {
				"kind": "dev",
				"methods": {},
				"version": 1
			},
			"evm": {
				"assembly": "    /* \"contracts/SimpleTime2.sol\":67:1029  contract Coin {... */\n  mstore(0x40, 0x80)\n    /* \"contracts/SimpleTime2.sol\":611:661  constructor() {... */\n  callvalue\n  dup1\n  iszero\n  tag_1\n  jumpi\n  0x00\n  dup1\n  revert\ntag_1:\n  pop\n    /* \"contracts/SimpleTime2.sol\":644:654  msg.sender */\n  caller\n    /* \"contracts/SimpleTime2.sol\":635:641  minter */\n  0x01\n  0x00\n    /* \"contracts/SimpleTime2.sol\":635:654  minter = msg.sender */\n  0x0100\n  exp\n  dup2\n  sload\n  dup2\n  0xffffffffffffffffffffffffffffffffffffffff\n  mul\n  not\n  and\n  swap1\n  dup4\n  0xffffffffffffffffffffffffffffffffffffffff\n  and\n  mul\n  or\n  swap1\n  sstore\n  pop\n    /* \"contracts/SimpleTime2.sol\":67:1029  contract Coin {... */\n  dataSize(sub_0)\n  dup1\n  dataOffset(sub_0)\n  0x00\n  codecopy\n  0x00\n  return\nstop\n\nsub_0: assembly {\n        /* \"contracts/SimpleTime2.sol\":67:1029  contract Coin {... */\n      mstore(0x40, 0x80)\n      callvalue\n      dup1\n      iszero\n      tag_1\n      jumpi\n      0x00\n      dup1\n      revert\n    tag_1:\n      pop\n      jumpi(tag_2, lt(calldatasize, 0x04))\n      shr(0xe0, calldataload(0x00))\n      dup1\n      0x07546172\n      eq\n      tag_3\n      jumpi\n      dup1\n      0x27e235e3\n      eq\n      tag_4\n      jumpi\n      dup1\n      0x40c10f19\n      eq\n      tag_5\n      jumpi\n      dup1\n      0xd0679d34\n      eq\n      tag_6\n      jumpi\n    tag_2:\n      0x00\n      dup1\n      revert\n        /* \"contracts/SimpleTime2.sol\":115:136  address public minter */\n    tag_3:\n      tag_7\n      tag_8\n      jump\t// in\n    tag_7:\n      mload(0x40)\n      tag_9\n      swap2\n      swap1\n      tag_10\n      jump\t// in\n    tag_9:\n      mload(0x40)\n      dup1\n      swap2\n      sub\n      swap1\n      return\n        /* \"contracts/SimpleTime2.sol\":142:183  mapping (address => uint) public balances */\n    tag_4:\n      tag_11\n      0x04\n      dup1\n      calldatasize\n      sub\n      dup2\n      add\n      swap1\n      tag_12\n      swap2\n      swap1\n      tag_13\n      jump\t// in\n    tag_12:\n      tag_14\n      jump\t// in\n    tag_11:\n      mload(0x40)\n      tag_15\n      swap2\n      swap1\n      tag_16\n      jump\t// in\n    tag_15:\n      mload(0x40)\n      dup1\n      swap2\n      sub\n      swap1\n      return\n        /* \"contracts/SimpleTime2.sol\":667:801  function mint(address receiver, uint amount) public onlyMinter amountGreaterThan(amount) {... */\n    tag_5:\n      tag_17\n      0x04\n      dup1\n      calldatasize\n      sub\n      dup2\n      add\n      swap1\n      tag_18\n      swap2\n      swap1\n      tag_19\n      jump\t// in\n    tag_18:\n      tag_20\n      jump\t// in\n    tag_17:\n      stop\n        /* \"contracts/SimpleTime2.sol\":807:1027  function send (address receiver, uint amount) public balanceGreaterThanAmount(amount) {... */\n    tag_6:\n      tag_21\n      0x04\n      dup1\n      calldatasize\n      sub\n      dup2\n      add\n      swap1\n      tag_22\n      swap2\n      swap1\n      tag_19\n      jump\t// in\n    tag_22:\n      tag_23\n      jump\t// in\n    tag_21:\n      stop\n        /* \"contracts/SimpleTime2.sol\":115:136  address public minter */\n    tag_8:\n      0x01\n      0x00\n      swap1\n      sload\n      swap1\n      0x0100\n      exp\n      swap1\n      div\n      0xffffffffffffffffffffffffffffffffffffffff\n      and\n      dup2\n      jump\t// out\n        /* \"contracts/SimpleTime2.sol\":142:183  mapping (address => uint) public balances */\n    tag_14:\n      mstore(0x20, 0x02)\n      dup1\n      0x00\n      mstore\n      keccak256(0x00, 0x40)\n      0x00\n      swap2\n      pop\n      swap1\n      pop\n      sload\n      dup2\n      jump\t// out\n        /* \"contracts/SimpleTime2.sol\":667:801  function mint(address receiver, uint amount) public onlyMinter amountGreaterThan(amount) {... */\n    tag_20:\n        /* \"contracts/SimpleTime2.sol\":299:305  minter */\n      0x01\n      0x00\n      swap1\n      sload\n      swap1\n      0x0100\n      exp\n      swap1\n      div\n      0xffffffffffffffffffffffffffffffffffffffff\n      and\n        /* \"contracts/SimpleTime2.sol\":285:305  msg.sender == minter */\n      0xffffffffffffffffffffffffffffffffffffffff\n      and\n        /* \"contracts/SimpleTime2.sol\":285:295  msg.sender */\n      caller\n        /* \"contracts/SimpleTime2.sol\":285:305  msg.sender == minter */\n      0xffffffffffffffffffffffffffffffffffffffff\n      and\n      eq\n        /* \"contracts/SimpleTime2.sol\":276:344  require (msg.sender == minter, \"Only minter can call this function\") */\n      tag_25\n      jumpi\n      mload(0x40)\n      0x08c379a000000000000000000000000000000000000000000000000000000000\n      dup2\n      mstore\n      0x04\n      add\n      tag_26\n      swap1\n      tag_27\n      jump\t// in\n    tag_26:\n      mload(0x40)\n      dup1\n      swap2\n      sub\n      swap1\n      revert\n    tag_25:\n        /* \"contracts/SimpleTime2.sol\":748:754  amount */\n      dup1\n        /* \"contracts/SimpleTime2.sol\":436:440  1e60 */\n      0x9f4f2726179a224501d762422c946590d91000000000000000\n        /* \"contracts/SimpleTime2.sol\":427:433  amount */\n      dup2\n        /* \"contracts/SimpleTime2.sol\":427:440  amount < 1e60 */\n      lt\n        /* \"contracts/SimpleTime2.sol\":419:441  require(amount < 1e60) */\n      tag_29\n      jumpi\n      0x00\n      dup1\n      revert\n    tag_29:\n        /* \"contracts/SimpleTime2.sol\":788:794  amount */\n      dup2\n        /* \"contracts/SimpleTime2.sol\":766:774  balances */\n      0x02\n        /* \"contracts/SimpleTime2.sol\":766:784  balances[receiver] */\n      0x00\n        /* \"contracts/SimpleTime2.sol\":775:783  receiver */\n      dup6\n        /* \"contracts/SimpleTime2.sol\":766:784  balances[receiver] */\n      0xffffffffffffffffffffffffffffffffffffffff\n      and\n      0xffffffffffffffffffffffffffffffffffffffff\n      and\n      dup2\n      mstore\n      0x20\n      add\n      swap1\n      dup2\n      mstore\n      0x20\n      add\n      0x00\n      keccak256\n      0x00\n        /* \"contracts/SimpleTime2.sol\":766:794  balances[receiver] += amount */\n      dup3\n      dup3\n      sload\n      tag_31\n      swap2\n      swap1\n      tag_32\n      jump\t// in\n    tag_31:\n      swap3\n      pop\n      pop\n      dup2\n      swap1\n      sstore\n      pop\n        /* \"contracts/SimpleTime2.sol\":354:355  _ */\n      pop\n        /* \"contracts/SimpleTime2.sol\":667:801  function mint(address receiver, uint amount) public onlyMinter amountGreaterThan(amount) {... */\n      pop\n      pop\n      jump\t// out\n        /* \"contracts/SimpleTime2.sol\":807:1027  function send (address receiver, uint amount) public balanceGreaterThanAmount(amount) {... */\n    tag_23:\n        /* \"contracts/SimpleTime2.sol\":885:891  amount */\n      dup1\n        /* \"contracts/SimpleTime2.sol\":541:549  balances */\n      0x02\n        /* \"contracts/SimpleTime2.sol\":541:561  balances[msg.sender] */\n      0x00\n        /* \"contracts/SimpleTime2.sol\":550:560  msg.sender */\n      caller\n        /* \"contracts/SimpleTime2.sol\":541:561  balances[msg.sender] */\n      0xffffffffffffffffffffffffffffffffffffffff\n      and\n      0xffffffffffffffffffffffffffffffffffffffff\n      and\n      dup2\n      mstore\n      0x20\n      add\n      swap1\n      dup2\n      mstore\n      0x20\n      add\n      0x00\n      keccak256\n      sload\n        /* \"contracts/SimpleTime2.sol\":531:537  amount */\n      dup2\n        /* \"contracts/SimpleTime2.sol\":531:561  amount <= balances[msg.sender] */\n      gt\n      iszero\n        /* \"contracts/SimpleTime2.sol\":522:587  require (amount <= balances[msg.sender], \"Insufficient balance.\") */\n      tag_34\n      jumpi\n      mload(0x40)\n      0x08c379a000000000000000000000000000000000000000000000000000000000\n      dup2\n      mstore\n      0x04\n      add\n      tag_35\n      swap1\n      tag_36\n      jump\t// in\n    tag_35:\n      mload(0x40)\n      dup1\n      swap2\n      sub\n      swap1\n      revert\n    tag_34:\n        /* \"contracts/SimpleTime2.sol\":927:933  amount */\n      dup2\n        /* \"contracts/SimpleTime2.sol\":903:911  balances */\n      0x02\n        /* \"contracts/SimpleTime2.sol\":903:923  balances[msg.sender] */\n      0x00\n        /* \"contracts/SimpleTime2.sol\":912:922  msg.sender */\n      caller\n        /* \"contracts/SimpleTime2.sol\":903:923  balances[msg.sender] */\n      0xffffffffffffffffffffffffffffffffffffffff\n      and\n      0xffffffffffffffffffffffffffffffffffffffff\n      and\n      dup2\n      mstore\n      0x20\n      add\n      swap1\n      dup2\n      mstore\n      0x20\n      add\n      0x00\n      keccak256\n      0x00\n        /* \"contracts/SimpleTime2.sol\":903:933  balances[msg.sender] -= amount */\n      dup3\n      dup3\n      sload\n      tag_38\n      swap2\n      swap1\n      tag_39\n      jump\t// in\n    tag_38:\n      swap3\n      pop\n      pop\n      dup2\n      swap1\n      sstore\n      pop\n        /* \"contracts/SimpleTime2.sol\":965:971  amount */\n      dup2\n        /* \"contracts/SimpleTime2.sol\":943:951  balances */\n      0x02\n        /* \"contracts/SimpleTime2.sol\":943:961  balances[receiver] */\n      0x00\n        /* \"contracts/SimpleTime2.sol\":952:960  receiver */\n      dup6\n        /* \"contracts/SimpleTime2.sol\":943:961  balances[receiver] */\n      0xffffffffffffffffffffffffffffffffffffffff\n      and\n      0xffffffffffffffffffffffffffffffffffffffff\n      and\n      dup2\n      mstore\n      0x20\n      add\n      swap1\n      dup2\n      mstore\n      0x20\n      add\n      0x00\n      keccak256\n      0x00\n        /* \"contracts/SimpleTime2.sol\":943:971  balances[receiver] += amount */\n      dup3\n      dup3\n      sload\n      tag_40\n      swap2\n      swap1\n      tag_32\n      jump\t// in\n    tag_40:\n      swap3\n      pop\n      pop\n      dup2\n      swap1\n      sstore\n      pop\n        /* \"contracts/SimpleTime2.sol\":986:1020  Sent(msg.sender, receiver, amount) */\n      0x3990db2d31862302a685e8086b5755072a6e2b5b780af1ee81ece35ee3cd3345\n        /* \"contracts/SimpleTime2.sol\":991:1001  msg.sender */\n      caller\n        /* \"contracts/SimpleTime2.sol\":1003:1011  receiver */\n      dup5\n        /* \"contracts/SimpleTime2.sol\":1013:1019  amount */\n      dup5\n        /* \"contracts/SimpleTime2.sol\":986:1020  Sent(msg.sender, receiver, amount) */\n      mload(0x40)\n      tag_41\n      swap4\n      swap3\n      swap2\n      swap1\n      tag_42\n      jump\t// in\n    tag_41:\n      mload(0x40)\n      dup1\n      swap2\n      sub\n      swap1\n      log1\n        /* \"contracts/SimpleTime2.sol\":807:1027  function send (address receiver, uint amount) public balanceGreaterThanAmount(amount) {... */\n      pop\n      pop\n      pop\n      jump\t// out\n        /* \"#utility.yul\":7:146   */\n    tag_44:\n        /* \"#utility.yul\":53:58   */\n      0x00\n        /* \"#utility.yul\":91:97   */\n      dup2\n        /* \"#utility.yul\":78:98   */\n      calldataload\n        /* \"#utility.yul\":69:98   */\n      swap1\n      pop\n        /* \"#utility.yul\":107:140   */\n      tag_46\n        /* \"#utility.yul\":134:139   */\n      dup2\n        /* \"#utility.yul\":107:140   */\n      tag_47\n      jump\t// in\n    tag_46:\n        /* \"#utility.yul\":7:146   */\n      swap3\n      swap2\n      pop\n      pop\n      jump\t// out\n        /* \"#utility.yul\":152:291   */\n    tag_48:\n        /* \"#utility.yul\":198:203   */\n      0x00\n        /* \"#utility.yul\":236:242   */\n      dup2\n        /* \"#utility.yul\":223:243   */\n      calldataload\n        /* \"#utility.yul\":214:243   */\n      swap1\n      pop\n        /* \"#utility.yul\":252:285   */\n      tag_50\n        /* \"#utility.yul\":279:284   */\n      dup2\n        /* \"#utility.yul\":252:285   */\n      tag_51\n      jump\t// in\n    tag_50:\n        /* \"#utility.yul\":152:291   */\n      swap3\n      swap2\n      pop\n      pop\n      jump\t// out\n        /* \"#utility.yul\":297:626   */\n    tag_13:\n        /* \"#utility.yul\":356:362   */\n      0x00\n        /* \"#utility.yul\":405:407   */\n      0x20\n        /* \"#utility.yul\":393:402   */\n      dup3\n        /* \"#utility.yul\":384:391   */\n      dup5\n        /* \"#utility.yul\":380:403   */\n      sub\n        /* \"#utility.yul\":376:408   */\n      slt\n        /* \"#utility.yul\":373:492   */\n      iszero\n      tag_53\n      jumpi\n        /* \"#utility.yul\":411:490   */\n      tag_54\n      tag_55\n      jump\t// in\n    tag_54:\n        /* \"#utility.yul\":373:492   */\n    tag_53:\n        /* \"#utility.yul\":531:532   */\n      0x00\n        /* \"#utility.yul\":556:609   */\n      tag_56\n        /* \"#utility.yul\":601:608   */\n      dup5\n        /* \"#utility.yul\":592:598   */\n      dup3\n        /* \"#utility.yul\":581:590   */\n      dup6\n        /* \"#utility.yul\":577:599   */\n      add\n        /* \"#utility.yul\":556:609   */\n      tag_44\n      jump\t// in\n    tag_56:\n        /* \"#utility.yul\":546:609   */\n      swap2\n      pop\n        /* \"#utility.yul\":502:619   */\n      pop\n        /* \"#utility.yul\":297:626   */\n      swap3\n      swap2\n      pop\n      pop\n      jump\t// out\n        /* \"#utility.yul\":632:1106   */\n    tag_19:\n        /* \"#utility.yul\":700:706   */\n      0x00\n        /* \"#utility.yul\":708:714   */\n      dup1\n        /* \"#utility.yul\":757:759   */\n      0x40\n        /* \"#utility.yul\":745:754   */\n      dup4\n        /* \"#utility.yul\":736:743   */\n      dup6\n        /* \"#utility.yul\":732:755   */\n      sub\n        /* \"#utility.yul\":728:760   */\n      slt\n        /* \"#utility.yul\":725:844   */\n      iszero\n      tag_58\n      jumpi\n        /* \"#utility.yul\":763:842   */\n      tag_59\n      tag_55\n      jump\t// in\n    tag_59:\n        /* \"#utility.yul\":725:844   */\n    tag_58:\n        /* \"#utility.yul\":883:884   */\n      0x00\n        /* \"#utility.yul\":908:961   */\n      tag_60\n        /* \"#utility.yul\":953:960   */\n      dup6\n        /* \"#utility.yul\":944:950   */\n      dup3\n        /* \"#utility.yul\":933:942   */\n      dup7\n        /* \"#utility.yul\":929:951   */\n      add\n        /* \"#utility.yul\":908:961   */\n      tag_44\n      jump\t// in\n    tag_60:\n        /* \"#utility.yul\":898:961   */\n      swap3\n      pop\n        /* \"#utility.yul\":854:971   */\n      pop\n        /* \"#utility.yul\":1010:1012   */\n      0x20\n        /* \"#utility.yul\":1036:1089   */\n      tag_61\n        /* \"#utility.yul\":1081:1088   */\n      dup6\n        /* \"#utility.yul\":1072:1078   */\n      dup3\n        /* \"#utility.yul\":1061:1070   */\n      dup7\n        /* \"#utility.yul\":1057:1079   */\n      add\n        /* \"#utility.yul\":1036:1089   */\n      tag_48\n      jump\t// in\n    tag_61:\n        /* \"#utility.yul\":1026:1089   */\n      swap2\n      pop\n        /* \"#utility.yul\":981:1099   */\n      pop\n        /* \"#utility.yul\":632:1106   */\n      swap3\n      pop\n      swap3\n      swap1\n      pop\n      jump\t// out\n        /* \"#utility.yul\":1112:1230   */\n    tag_62:\n        /* \"#utility.yul\":1199:1223   */\n      tag_64\n        /* \"#utility.yul\":1217:1222   */\n      dup2\n        /* \"#utility.yul\":1199:1223   */\n      tag_65\n      jump\t// in\n    tag_64:\n        /* \"#utility.yul\":1194:1197   */\n      dup3\n        /* \"#utility.yul\":1187:1224   */\n      mstore\n        /* \"#utility.yul\":1112:1230   */\n      pop\n      pop\n      jump\t// out\n        /* \"#utility.yul\":1236:1602   */\n    tag_66:\n        /* \"#utility.yul\":1378:1381   */\n      0x00\n        /* \"#utility.yul\":1399:1466   */\n      tag_68\n        /* \"#utility.yul\":1463:1465   */\n      0x15\n        /* \"#utility.yul\":1458:1461   */\n      dup4\n        /* \"#utility.yul\":1399:1466   */\n      tag_69\n      jump\t// in\n    tag_68:\n        /* \"#utility.yul\":1392:1466   */\n      swap2\n      pop\n        /* \"#utility.yul\":1475:1568   */\n      tag_70\n        /* \"#utility.yul\":1564:1567   */\n      dup3\n        /* \"#utility.yul\":1475:1568   */\n      tag_71\n      jump\t// in\n    tag_70:\n        /* \"#utility.yul\":1593:1595   */\n      0x20\n        /* \"#utility.yul\":1588:1591   */\n      dup3\n        /* \"#utility.yul\":1584:1596   */\n      add\n        /* \"#utility.yul\":1577:1596   */\n      swap1\n      pop\n        /* \"#utility.yul\":1236:1602   */\n      swap2\n      swap1\n      pop\n      jump\t// out\n        /* \"#utility.yul\":1608:1974   */\n    tag_72:\n        /* \"#utility.yul\":1750:1753   */\n      0x00\n        /* \"#utility.yul\":1771:1838   */\n      tag_74\n        /* \"#utility.yul\":1835:1837   */\n      0x22\n        /* \"#utility.yul\":1830:1833   */\n      dup4\n        /* \"#utility.yul\":1771:1838   */\n      tag_69\n      jump\t// in\n    tag_74:\n        /* \"#utility.yul\":1764:1838   */\n      swap2\n      pop\n        /* \"#utility.yul\":1847:1940   */\n      tag_75\n        /* \"#utility.yul\":1936:1939   */\n      dup3\n        /* \"#utility.yul\":1847:1940   */\n      tag_76\n      jump\t// in\n    tag_75:\n        /* \"#utility.yul\":1965:1967   */\n      0x40\n        /* \"#utility.yul\":1960:1963   */\n      dup3\n        /* \"#utility.yul\":1956:1968   */\n      add\n        /* \"#utility.yul\":1949:1968   */\n      swap1\n      pop\n        /* \"#utility.yul\":1608:1974   */\n      swap2\n      swap1\n      pop\n      jump\t// out\n        /* \"#utility.yul\":1980:2098   */\n    tag_77:\n        /* \"#utility.yul\":2067:2091   */\n      tag_79\n        /* \"#utility.yul\":2085:2090   */\n      dup2\n        /* \"#utility.yul\":2067:2091   */\n      tag_80\n      jump\t// in\n    tag_79:\n        /* \"#utility.yul\":2062:2065   */\n      dup3\n        /* \"#utility.yul\":2055:2092   */\n      mstore\n        /* \"#utility.yul\":1980:2098   */\n      pop\n      pop\n      jump\t// out\n        /* \"#utility.yul\":2104:2326   */\n    tag_10:\n        /* \"#utility.yul\":2197:2201   */\n      0x00\n        /* \"#utility.yul\":2235:2237   */\n      0x20\n        /* \"#utility.yul\":2224:2233   */\n      dup3\n        /* \"#utility.yul\":2220:2238   */\n      add\n        /* \"#utility.yul\":2212:2238   */\n      swap1\n      pop\n        /* \"#utility.yul\":2248:2319   */\n      tag_82\n        /* \"#utility.yul\":2316:2317   */\n      0x00\n        /* \"#utility.yul\":2305:2314   */\n      dup4\n        /* \"#utility.yul\":2301:2318   */\n      add\n        /* \"#utility.yul\":2292:2298   */\n      dup5\n        /* \"#utility.yul\":2248:2319   */\n      tag_62\n      jump\t// in\n    tag_82:\n        /* \"#utility.yul\":2104:2326   */\n      swap3\n      swap2\n      pop\n      pop\n      jump\t// out\n        /* \"#utility.yul\":2332:2774   */\n    tag_42:\n        /* \"#utility.yul\":2481:2485   */\n      0x00\n        /* \"#utility.yul\":2519:2521   */\n      0x60\n        /* \"#utility.yul\":2508:2517   */\n      dup3\n        /* \"#utility.yul\":2504:2522   */\n      add\n        /* \"#utility.yul\":2496:2522   */\n      swap1\n      pop\n        /* \"#utility.yul\":2532:2603   */\n      tag_84\n        /* \"#utility.yul\":2600:2601   */\n      0x00\n        /* \"#utility.yul\":2589:2598   */\n      dup4\n        /* \"#utility.yul\":2585:2602   */\n      add\n        /* \"#utility.yul\":2576:2582   */\n      dup7\n        /* \"#utility.yul\":2532:2603   */\n      tag_62\n      jump\t// in\n    tag_84:\n        /* \"#utility.yul\":2613:2685   */\n      tag_85\n        /* \"#utility.yul\":2681:2683   */\n      0x20\n        /* \"#utility.yul\":2670:2679   */\n      dup4\n        /* \"#utility.yul\":2666:2684   */\n      add\n        /* \"#utility.yul\":2657:2663   */\n      dup6\n        /* \"#utility.yul\":2613:2685   */\n      tag_62\n      jump\t// in\n    tag_85:\n        /* \"#utility.yul\":2695:2767   */\n      tag_86\n        /* \"#utility.yul\":2763:2765   */\n      0x40\n        /* \"#utility.yul\":2752:2761   */\n      dup4\n        /* \"#utility.yul\":2748:2766   */\n      add\n        /* \"#utility.yul\":2739:2745   */\n      dup5\n        /* \"#utility.yul\":2695:2767   */\n      tag_77\n      jump\t// in\n    tag_86:\n        /* \"#utility.yul\":2332:2774   */\n      swap5\n      swap4\n      pop\n      pop\n      pop\n      pop\n      jump\t// out\n        /* \"#utility.yul\":2780:3199   */\n    tag_36:\n        /* \"#utility.yul\":2946:2950   */\n      0x00\n        /* \"#utility.yul\":2984:2986   */\n      0x20\n        /* \"#utility.yul\":2973:2982   */\n      dup3\n        /* \"#utility.yul\":2969:2987   */\n      add\n        /* \"#utility.yul\":2961:2987   */\n      swap1\n      pop\n        /* \"#utility.yul\":3033:3042   */\n      dup2\n        /* \"#utility.yul\":3027:3031   */\n      dup2\n        /* \"#utility.yul\":3023:3043   */\n      sub\n        /* \"#utility.yul\":3019:3020   */\n      0x00\n        /* \"#utility.yul\":3008:3017   */\n      dup4\n        /* \"#utility.yul\":3004:3021   */\n      add\n        /* \"#utility.yul\":2997:3044   */\n      mstore\n        /* \"#utility.yul\":3061:3192   */\n      tag_88\n        /* \"#utility.yul\":3187:3191   */\n      dup2\n        /* \"#utility.yul\":3061:3192   */\n      tag_66\n      jump\t// in\n    tag_88:\n        /* \"#utility.yul\":3053:3192   */\n      swap1\n      pop\n        /* \"#utility.yul\":2780:3199   */\n      swap2\n      swap1\n      pop\n      jump\t// out\n        /* \"#utility.yul\":3205:3624   */\n    tag_27:\n        /* \"#utility.yul\":3371:3375   */\n      0x00\n        /* \"#utility.yul\":3409:3411   */\n      0x20\n        /* \"#utility.yul\":3398:3407   */\n      dup3\n        /* \"#utility.yul\":3394:3412   */\n      add\n        /* \"#utility.yul\":3386:3412   */\n      swap1\n      pop\n        /* \"#utility.yul\":3458:3467   */\n      dup2\n        /* \"#utility.yul\":3452:3456   */\n      dup2\n        /* \"#utility.yul\":3448:3468   */\n      sub\n        /* \"#utility.yul\":3444:3445   */\n      0x00\n        /* \"#utility.yul\":3433:3442   */\n      dup4\n        /* \"#utility.yul\":3429:3446   */\n      add\n        /* \"#utility.yul\":3422:3469   */\n      mstore\n        /* \"#utility.yul\":3486:3617   */\n      tag_90\n        /* \"#utility.yul\":3612:3616   */\n      dup2\n        /* \"#utility.yul\":3486:3617   */\n      tag_72\n      jump\t// in\n    tag_90:\n        /* \"#utility.yul\":3478:3617   */\n      swap1\n      pop\n        /* \"#utility.yul\":3205:3624   */\n      swap2\n      swap1\n      pop\n      jump\t// out\n        /* \"#utility.yul\":3630:3852   */\n    tag_16:\n        /* \"#utility.yul\":3723:3727   */\n      0x00\n        /* \"#utility.yul\":3761:3763   */\n      0x20\n        /* \"#utility.yul\":3750:3759   */\n      dup3\n        /* \"#utility.yul\":3746:3764   */\n      add\n        /* \"#utility.yul\":3738:3764   */\n      swap1\n      pop\n        /* \"#utility.yul\":3774:3845   */\n      tag_92\n        /* \"#utility.yul\":3842:3843   */\n      0x00\n        /* \"#utility.yul\":3831:3840   */\n      dup4\n        /* \"#utility.yul\":3827:3844   */\n      add\n        /* \"#utility.yul\":3818:3824   */\n      dup5\n        /* \"#utility.yul\":3774:3845   */\n      tag_77\n      jump\t// in\n    tag_92:\n        /* \"#utility.yul\":3630:3852   */\n      swap3\n      swap2\n      pop\n      pop\n      jump\t// out\n        /* \"#utility.yul\":3939:4108   */\n    tag_69:\n        /* \"#utility.yul\":4023:4034   */\n      0x00\n        /* \"#utility.yul\":4057:4063   */\n      dup3\n        /* \"#utility.yul\":4052:4055   */\n      dup3\n        /* \"#utility.yul\":4045:4064   */\n      mstore\n        /* \"#utility.yul\":4097:4101   */\n      0x20\n        /* \"#utility.yul\":4092:4095   */\n      dup3\n        /* \"#utility.yul\":4088:4102   */\n      add\n        /* \"#utility.yul\":4073:4102   */\n      swap1\n      pop\n        /* \"#utility.yul\":3939:4108   */\n      swap3\n      swap2\n      pop\n      pop\n      jump\t// out\n        /* \"#utility.yul\":4114:4419   */\n    tag_32:\n        /* \"#utility.yul\":4154:4157   */\n      0x00\n        /* \"#utility.yul\":4173:4193   */\n      tag_97\n        /* \"#utility.yul\":4191:4192   */\n      dup3\n        /* \"#utility.yul\":4173:4193   */\n      tag_80\n      jump\t// in\n    tag_97:\n        /* \"#utility.yul\":4168:4193   */\n      swap2\n      pop\n        /* \"#utility.yul\":4207:4227   */\n      tag_98\n        /* \"#utility.yul\":4225:4226   */\n      dup4\n        /* \"#utility.yul\":4207:4227   */\n      tag_80\n      jump\t// in\n    tag_98:\n        /* \"#utility.yul\":4202:4227   */\n      swap3\n      pop\n        /* \"#utility.yul\":4361:4362   */\n      dup3\n        /* \"#utility.yul\":4293:4359   */\n      0xffffffffffffffffffffffffffffffffffffffffffffffffffffffffffffffff\n        /* \"#utility.yul\":4289:4363   */\n      sub\n        /* \"#utility.yul\":4286:4287   */\n      dup3\n        /* \"#utility.yul\":4283:4364   */\n      gt\n        /* \"#utility.yul\":4280:4387   */\n      iszero\n      tag_99\n      jumpi\n        /* \"#utility.yul\":4367:4385   */\n      tag_100\n      tag_101\n      jump\t// in\n    tag_100:\n        /* \"#utility.yul\":4280:4387   */\n    tag_99:\n        /* \"#utility.yul\":4411:4412   */\n      dup3\n        /* \"#utility.yul\":4408:4409   */\n      dup3\n        /* \"#utility.yul\":4404:4413   */\n      add\n        /* \"#utility.yul\":4397:4413   */\n      swap1\n      pop\n        /* \"#utility.yul\":4114:4419   */\n      swap3\n      swap2\n      pop\n      pop\n      jump\t// out\n        /* \"#utility.yul\":4425:4616   */\n    tag_39:\n        /* \"#utility.yul\":4465:4469   */\n      0x00\n        /* \"#utility.yul\":4485:4505   */\n      tag_103\n        /* \"#utility.yul\":4503:4504   */\n      dup3\n        /* \"#utility.yul\":4485:4505   */\n      tag_80\n      jump\t// in\n    tag_103:\n        /* \"#utility.yul\":4480:4505   */\n      swap2\n      pop\n        /* \"#utility.yul\":4519:4539   */\n      tag_104\n        /* \"#utility.yul\":4537:4538   */\n      dup4\n        /* \"#utility.yul\":4519:4539   */\n      tag_80\n      jump\t// in\n    tag_104:\n        /* \"#utility.yul\":4514:4539   */\n      swap3\n      pop\n        /* \"#utility.yul\":4558:4559   */\n      dup3\n        /* \"#utility.yul\":4555:4556   */\n      dup3\n        /* \"#utility.yul\":4552:4560   */\n      lt\n        /* \"#utility.yul\":4549:4583   */\n      iszero\n      tag_105\n      jumpi\n        /* \"#utility.yul\":4563:4581   */\n      tag_106\n      tag_101\n      jump\t// in\n    tag_106:\n        /* \"#utility.yul\":4549:4583   */\n    tag_105:\n        /* \"#utility.yul\":4608:4609   */\n      dup3\n        /* \"#utility.yul\":4605:4606   */\n      dup3\n        /* \"#utility.yul\":4601:4610   */\n      sub\n        /* \"#utility.yul\":4593:4610   */\n      swap1\n      pop\n        /* \"#utility.yul\":4425:4616   */\n      swap3\n      swap2\n      pop\n      pop\n      jump\t// out\n        /* \"#utility.yul\":4622:4718   */\n    tag_65:\n        /* \"#utility.yul\":4659:4666   */\n      0x00\n        /* \"#utility.yul\":4688:4712   */\n      tag_108\n        /* \"#utility.yul\":4706:4711   */\n      dup3\n        /* \"#utility.yul\":4688:4712   */\n      tag_109\n      jump\t// in\n    tag_108:\n        /* \"#utility.yul\":4677:4712   */\n      swap1\n      pop\n        /* \"#utility.yul\":4622:4718   */\n      swap2\n      swap1\n      pop\n      jump\t// out\n        /* \"#utility.yul\":4724:4850   */\n    tag_109:\n        /* \"#utility.yul\":4761:4768   */\n      0x00\n        /* \"#utility.yul\":4801:4843   */\n      0xffffffffffffffffffffffffffffffffffffffff\n        /* \"#utility.yul\":4794:4799   */\n      dup3\n        /* \"#utility.yul\":4790:4844   */\n      and\n        /* \"#utility.yul\":4779:4844   */\n      swap1\n      pop\n        /* \"#utility.yul\":4724:4850   */\n      swap2\n      swap1\n      pop\n      jump\t// out\n        /* \"#utility.yul\":4856:4933   */\n    tag_80:\n        /* \"#utility.yul\":4893:4900   */\n      0x00\n        /* \"#utility.yul\":4922:4927   */\n      dup2\n        /* \"#utility.yul\":4911:4927   */\n      swap1\n      pop\n        /* \"#utility.yul\":4856:4933   */\n      swap2\n      swap1\n      pop\n      jump\t// out\n        /* \"#utility.yul\":4939:5119   */\n    tag_101:\n        /* \"#utility.yul\":4987:5064   */\n      0x4e487b7100000000000000000000000000000000000000000000000000000000\n        /* \"#utility.yul\":4984:4985   */\n      0x00\n        /* \"#utility.yul\":4977:5065   */\n      mstore\n        /* \"#utility.yul\":5084:5088   */\n      0x11\n        /* \"#utility.yul\":5081:5082   */\n      0x04\n        /* \"#utility.yul\":5074:5089   */\n      mstore\n        /* \"#utility.yul\":5108:5112   */\n      0x24\n        /* \"#utility.yul\":5105:5106   */\n      0x00\n        /* \"#utility.yul\":5098:5113   */\n      revert\n        /* \"#utility.yul\":5248:5365   */\n    tag_55:\n        /* \"#utility.yul\":5357:5358   */\n      0x00\n        /* \"#utility.yul\":5354:5355   */\n      dup1\n        /* \"#utility.yul\":5347:5359   */\n      revert\n        /* \"#utility.yul\":5371:5542   */\n    tag_71:\n        /* \"#utility.yul\":5511:5534   */\n      0x496e73756666696369656e742062616c616e63652e0000000000000000000000\n        /* \"#utility.yul\":5507:5508   */\n      0x00\n        /* \"#utility.yul\":5499:5505   */\n      dup3\n        /* \"#utility.yul\":5495:5509   */\n      add\n        /* \"#utility.yul\":5488:5535   */\n      mstore\n        /* \"#utility.yul\":5371:5542   */\n      pop\n      jump\t// out\n        /* \"#utility.yul\":5548:5769   */\n    tag_76:\n        /* \"#utility.yul\":5688:5722   */\n      0x4f6e6c79206d696e7465722063616e2063616c6c20746869732066756e637469\n        /* \"#utility.yul\":5684:5685   */\n      0x00\n        /* \"#utility.yul\":5676:5682   */\n      dup3\n        /* \"#utility.yul\":5672:5686   */\n      add\n        /* \"#utility.yul\":5665:5723   */\n      mstore\n        /* \"#utility.yul\":5757:5761   */\n      0x6f6e000000000000000000000000000000000000000000000000000000000000\n        /* \"#utility.yul\":5752:5754   */\n      0x20\n        /* \"#utility.yul\":5744:5750   */\n      dup3\n        /* \"#utility.yul\":5740:5755   */\n      add\n        /* \"#utility.yul\":5733:5762   */\n      mstore\n        /* \"#utility.yul\":5548:5769   */\n      pop\n      jump\t// out\n        /* \"#utility.yul\":5775:5897   */\n    tag_47:\n        /* \"#utility.yul\":5848:5872   */\n      tag_119\n        /* \"#utility.yul\":5866:5871   */\n      dup2\n        /* \"#utility.yul\":5848:5872   */\n      tag_65\n      jump\t// in\n    tag_119:\n        /* \"#utility.yul\":5841:5846   */\n      dup2\n        /* \"#utility.yul\":5838:5873   */\n      eq\n        /* \"#utility.yul\":5828:5891   */\n      tag_120\n      jumpi\n        /* \"#utility.yul\":5887:5888   */\n      0x00\n        /* \"#utility.yul\":5884:5885   */\n      dup1\n        /* \"#utility.yul\":5877:5889   */\n      revert\n        /* \"#utility.yul\":5828:5891   */\n    tag_120:\n        /* \"#utility.yul\":5775:5897   */\n      pop\n      jump\t// out\n        /* \"#utility.yul\":5903:6025   */\n    tag_51:\n        /* \"#utility.yul\":5976:6000   */\n      tag_122\n        /* \"#utility.yul\":5994:5999   */\n      dup2\n        /* \"#utility.yul\":5976:6000   */\n      tag_80\n      jump\t// in\n    tag_122:\n        /* \"#utility.yul\":5969:5974   */\n      dup2\n        /* \"#utility.yul\":5966:6001   */\n      eq\n        /* \"#utility.yul\":5956:6019   */\n      tag_123\n      jumpi\n        /* \"#utility.yul\":6015:6016   */\n      0x00\n        /* \"#utility.yul\":6012:6013   */\n      dup1\n        /* \"#utility.yul\":6005:6017   */\n      revert\n        /* \"#utility.yul\":5956:6019   */\n    tag_123:\n        /* \"#utility.yul\":5903:6025   */\n      pop\n      jump\t// out\n\n    auxdata: 0xa26469706673582212208a59b3d77311c75607b3aecfaa3e1193faed2ad0e6bd11eb9e90ec5a6caeb96a64736f6c63430008070033\n}\n",
				"bytecode": {
					"linkReferences": {},
					"object": "608060405234801561001057600080fd5b5033600160006101000a81548173ffffffffffffffffffffffffffffffffffffffff021916908373ffffffffffffffffffffffffffffffffffffffff160217905550610724806100616000396000f3fe608060405234801561001057600080fd5b506004361061004c5760003560e01c8063075461721461005157806327e235e31461006f57806340c10f191461009f578063d0679d34146100bb575b600080fd5b6100596100d7565b6040516100669190610490565b60405180910390f35b610089600480360381019061008491906103bf565b6100fd565b6040516100969190610522565b60405180910390f35b6100b960048036038101906100b491906103ec565b610115565b005b6100d560048036038101906100d091906103ec565b610226565b005b600160009054906101000a900473ffffffffffffffffffffffffffffffffffffffff1681565b60026020528060005260406000206000915090505481565b600160009054906101000a900473ffffffffffffffffffffffffffffffffffffffff1673ffffffffffffffffffffffffffffffffffffffff163373ffffffffffffffffffffffffffffffffffffffff16146101a5576040517f08c379a000000000000000000000000000000000000000000000000000000000815260040161019c90610502565b60405180910390fd5b80789f4f2726179a224501d762422c946590d9100000000000000081106101cb57600080fd5b81600260008573ffffffffffffffffffffffffffffffffffffffff1673ffffffffffffffffffffffffffffffffffffffff168152602001908152602001600020600082825461021a919061054e565b92505081905550505050565b80600260003373ffffffffffffffffffffffffffffffffffffffff1673ffffffffffffffffffffffffffffffffffffffff168152602001908152602001600020548111156102a9576040517f08c379a00000000000000000000000000000000000000000000000000000000081526004016102a0906104e2565b60405180910390fd5b81600260003373ffffffffffffffffffffffffffffffffffffffff1673ffffffffffffffffffffffffffffffffffffffff16815260200190815260200160002060008282546102f891906105a4565b9250508190555081600260008573ffffffffffffffffffffffffffffffffffffffff1673ffffffffffffffffffffffffffffffffffffffff168152602001908152602001600020600082825461034e919061054e565b925050819055507f3990db2d31862302a685e8086b5755072a6e2b5b780af1ee81ece35ee3cd3345338484604051610388939291906104ab565b60405180910390a1505050565b6000813590506103a4816106c0565b92915050565b6000813590506103b9816106d7565b92915050565b6000602082840312156103d5576103d4610643565b5b60006103e384828501610395565b91505092915050565b6000806040838503121561040357610402610643565b5b600061041185828601610395565b9250506020610422858286016103aa565b9150509250929050565b610435816105d8565b82525050565b600061044860158361053d565b915061045382610648565b602082019050919050565b600061046b60228361053d565b915061047682610671565b604082019050919050565b61048a8161060a565b82525050565b60006020820190506104a5600083018461042c565b92915050565b60006060820190506104c0600083018661042c565b6104cd602083018561042c565b6104da6040830184610481565b949350505050565b600060208201905081810360008301526104fb8161043b565b9050919050565b6000602082019050818103600083015261051b8161045e565b9050919050565b60006020820190506105376000830184610481565b92915050565b600082825260208201905092915050565b60006105598261060a565b91506105648361060a565b9250827fffffffffffffffffffffffffffffffffffffffffffffffffffffffffffffffff0382111561059957610598610614565b5b828201905092915050565b60006105af8261060a565b91506105ba8361060a565b9250828210156105cd576105cc610614565b5b828203905092915050565b60006105e3826105ea565b9050919050565b600073ffffffffffffffffffffffffffffffffffffffff82169050919050565b6000819050919050565b7f4e487b7100000000000000000000000000000000000000000000000000000000600052601160045260246000fd5b600080fd5b7f496e73756666696369656e742062616c616e63652e0000000000000000000000600082015250565b7f4f6e6c79206d696e7465722063616e2063616c6c20746869732066756e63746960008201527f6f6e000000000000000000000000000000000000000000000000000000000000602082015250565b6106c9816105d8565b81146106d457600080fd5b50565b6106e08161060a565b81146106eb57600080fd5b5056fea26469706673582212208a59b3d77311c75607b3aecfaa3e1193faed2ad0e6bd11eb9e90ec5a6caeb96a64736f6c63430008070033",
					"opcodes": "PUSH1 0x80 PUSH1 0x40 MSTORE CALLVALUE DUP1 ISZERO PUSH2 0x10 JUMPI PUSH1 0x0 DUP1 REVERT JUMPDEST POP CALLER PUSH1 0x1 PUSH1 0x0 PUSH2 0x100 EXP DUP2 SLOAD DUP2 PUSH20 0xFFFFFFFFFFFFFFFFFFFFFFFFFFFFFFFFFFFFFFFF MUL NOT AND SWAP1 DUP4 PUSH20 0xFFFFFFFFFFFFFFFFFFFFFFFFFFFFFFFFFFFFFFFF AND MUL OR SWAP1 SSTORE POP PUSH2 0x724 DUP1 PUSH2 0x61 PUSH1 0x0 CODECOPY PUSH1 0x0 RETURN INVALID PUSH1 0x80 PUSH1 0x40 MSTORE CALLVALUE DUP1 ISZERO PUSH2 0x10 JUMPI PUSH1 0x0 DUP1 REVERT JUMPDEST POP PUSH1 0x4 CALLDATASIZE LT PUSH2 0x4C JUMPI PUSH1 0x0 CALLDATALOAD PUSH1 0xE0 SHR DUP1 PUSH4 0x7546172 EQ PUSH2 0x51 JUMPI DUP1 PUSH4 0x27E235E3 EQ PUSH2 0x6F JUMPI DUP1 PUSH4 0x40C10F19 EQ PUSH2 0x9F JUMPI DUP1 PUSH4 0xD0679D34 EQ PUSH2 0xBB JUMPI JUMPDEST PUSH1 0x0 DUP1 REVERT JUMPDEST PUSH2 0x59 PUSH2 0xD7 JUMP JUMPDEST PUSH1 0x40 MLOAD PUSH2 0x66 SWAP2 SWAP1 PUSH2 0x490 JUMP JUMPDEST PUSH1 0x40 MLOAD DUP1 SWAP2 SUB SWAP1 RETURN JUMPDEST PUSH2 0x89 PUSH1 0x4 DUP1 CALLDATASIZE SUB DUP2 ADD SWAP1 PUSH2 0x84 SWAP2 SWAP1 PUSH2 0x3BF JUMP JUMPDEST PUSH2 0xFD JUMP JUMPDEST PUSH1 0x40 MLOAD PUSH2 0x96 SWAP2 SWAP1 PUSH2 0x522 JUMP JUMPDEST PUSH1 0x40 MLOAD DUP1 SWAP2 SUB SWAP1 RETURN JUMPDEST PUSH2 0xB9 PUSH1 0x4 DUP1 CALLDATASIZE SUB DUP2 ADD SWAP1 PUSH2 0xB4 SWAP2 SWAP1 PUSH2 0x3EC JUMP JUMPDEST PUSH2 0x115 JUMP JUMPDEST STOP JUMPDEST PUSH2 0xD5 PUSH1 0x4 DUP1 CALLDATASIZE SUB DUP2 ADD SWAP1 PUSH2 0xD0 SWAP2 SWAP1 PUSH2 0x3EC JUMP JUMPDEST PUSH2 0x226 JUMP JUMPDEST STOP JUMPDEST PUSH1 0x1 PUSH1 0x0 SWAP1 SLOAD SWAP1 PUSH2 0x100 EXP SWAP1 DIV PUSH20 0xFFFFFFFFFFFFFFFFFFFFFFFFFFFFFFFFFFFFFFFF AND DUP2 JUMP JUMPDEST PUSH1 0x2 PUSH1 0x20 MSTORE DUP1 PUSH1 0x0 MSTORE PUSH1 0x40 PUSH1 0x0 KECCAK256 PUSH1 0x0 SWAP2 POP SWAP1 POP SLOAD DUP2 JUMP JUMPDEST PUSH1 0x1 PUSH1 0x0 SWAP1 SLOAD SWAP1 PUSH2 0x100 EXP SWAP1 DIV PUSH20 0xFFFFFFFFFFFFFFFFFFFFFFFFFFFFFFFFFFFFFFFF AND PUSH20 0xFFFFFFFFFFFFFFFFFFFFFFFFFFFFFFFFFFFFFFFF AND CALLER PUSH20 0xFFFFFFFFFFFFFFFFFFFFFFFFFFFFFFFFFFFFFFFF AND EQ PUSH2 0x1A5 JUMPI PUSH1 0x40 MLOAD PUSH32 0x8C379A000000000000000000000000000000000000000000000000000000000 DUP2 MSTORE PUSH1 0x4 ADD PUSH2 0x19C SWAP1 PUSH2 0x502 JUMP JUMPDEST PUSH1 0x40 MLOAD DUP1 SWAP2 SUB SWAP1 REVERT JUMPDEST DUP1 PUSH25 0x9F4F2726179A224501D762422C946590D91000000000000000 DUP2 LT PUSH2 0x1CB JUMPI PUSH1 0x0 DUP1 REVERT JUMPDEST DUP2 PUSH1 0x2 PUSH1 0x0 DUP6 PUSH20 0xFFFFFFFFFFFFFFFFFFFFFFFFFFFFFFFFFFFFFFFF AND PUSH20 0xFFFFFFFFFFFFFFFFFFFFFFFFFFFFFFFFFFFFFFFF AND DUP2 MSTORE PUSH1 0x20 ADD SWAP1 DUP2 MSTORE PUSH1 0x20 ADD PUSH1 0x0 KECCAK256 PUSH1 0x0 DUP3 DUP3 SLOAD PUSH2 0x21A SWAP2 SWAP1 PUSH2 0x54E JUMP JUMPDEST SWAP3 POP POP DUP2 SWAP1 SSTORE POP POP POP POP JUMP JUMPDEST DUP1 PUSH1 0x2 PUSH1 0x0 CALLER PUSH20 0xFFFFFFFFFFFFFFFFFFFFFFFFFFFFFFFFFFFFFFFF AND PUSH20 0xFFFFFFFFFFFFFFFFFFFFFFFFFFFFFFFFFFFFFFFF AND DUP2 MSTORE PUSH1 0x20 ADD SWAP1 DUP2 MSTORE PUSH1 0x20 ADD PUSH1 0x0 KECCAK256 SLOAD DUP2 GT ISZERO PUSH2 0x2A9 JUMPI PUSH1 0x40 MLOAD PUSH32 0x8C379A000000000000000000000000000000000000000000000000000000000 DUP2 MSTORE PUSH1 0x4 ADD PUSH2 0x2A0 SWAP1 PUSH2 0x4E2 JUMP JUMPDEST PUSH1 0x40 MLOAD DUP1 SWAP2 SUB SWAP1 REVERT JUMPDEST DUP2 PUSH1 0x2 PUSH1 0x0 CALLER PUSH20 0xFFFFFFFFFFFFFFFFFFFFFFFFFFFFFFFFFFFFFFFF AND PUSH20 0xFFFFFFFFFFFFFFFFFFFFFFFFFFFFFFFFFFFFFFFF AND DUP2 MSTORE PUSH1 0x20 ADD SWAP1 DUP2 MSTORE PUSH1 0x20 ADD PUSH1 0x0 KECCAK256 PUSH1 0x0 DUP3 DUP3 SLOAD PUSH2 0x2F8 SWAP2 SWAP1 PUSH2 0x5A4 JUMP JUMPDEST SWAP3 POP POP DUP2 SWAP1 SSTORE POP DUP2 PUSH1 0x2 PUSH1 0x0 DUP6 PUSH20 0xFFFFFFFFFFFFFFFFFFFFFFFFFFFFFFFFFFFFFFFF AND PUSH20 0xFFFFFFFFFFFFFFFFFFFFFFFFFFFFFFFFFFFFFFFF AND DUP2 MSTORE PUSH1 0x20 ADD SWAP1 DUP2 MSTORE PUSH1 0x20 ADD PUSH1 0x0 KECCAK256 PUSH1 0x0 DUP3 DUP3 SLOAD PUSH2 0x34E SWAP2 SWAP1 PUSH2 0x54E JUMP JUMPDEST SWAP3 POP POP DUP2 SWAP1 SSTORE POP PUSH32 0x3990DB2D31862302A685E8086B5755072A6E2B5B780AF1EE81ECE35EE3CD3345 CALLER DUP5 DUP5 PUSH1 0x40 MLOAD PUSH2 0x388 SWAP4 SWAP3 SWAP2 SWAP1 PUSH2 0x4AB JUMP JUMPDEST PUSH1 0x40 MLOAD DUP1 SWAP2 SUB SWAP1 LOG1 POP POP POP JUMP JUMPDEST PUSH1 0x0 DUP2 CALLDATALOAD SWAP1 POP PUSH2 0x3A4 DUP2 PUSH2 0x6C0 JUMP JUMPDEST SWAP3 SWAP2 POP POP JUMP JUMPDEST PUSH1 0x0 DUP2 CALLDATALOAD SWAP1 POP PUSH2 0x3B9 DUP2 PUSH2 0x6D7 JUMP JUMPDEST SWAP3 SWAP2 POP POP JUMP JUMPDEST PUSH1 0x0 PUSH1 0x20 DUP3 DUP5 SUB SLT ISZERO PUSH2 0x3D5 JUMPI PUSH2 0x3D4 PUSH2 0x643 JUMP JUMPDEST JUMPDEST PUSH1 0x0 PUSH2 0x3E3 DUP5 DUP3 DUP6 ADD PUSH2 0x395 JUMP JUMPDEST SWAP2 POP POP SWAP3 SWAP2 POP POP JUMP JUMPDEST PUSH1 0x0 DUP1 PUSH1 0x40 DUP4 DUP6 SUB SLT ISZERO PUSH2 0x403 JUMPI PUSH2 0x402 PUSH2 0x643 JUMP JUMPDEST JUMPDEST PUSH1 0x0 PUSH2 0x411 DUP6 DUP3 DUP7 ADD PUSH2 0x395 JUMP JUMPDEST SWAP3 POP POP PUSH1 0x20 PUSH2 0x422 DUP6 DUP3 DUP7 ADD PUSH2 0x3AA JUMP JUMPDEST SWAP2 POP POP SWAP3 POP SWAP3 SWAP1 POP JUMP JUMPDEST PUSH2 0x435 DUP2 PUSH2 0x5D8 JUMP JUMPDEST DUP3 MSTORE POP POP JUMP JUMPDEST PUSH1 0x0 PUSH2 0x448 PUSH1 0x15 DUP4 PUSH2 0x53D JUMP JUMPDEST SWAP2 POP PUSH2 0x453 DUP3 PUSH2 0x648 JUMP JUMPDEST PUSH1 0x20 DUP3 ADD SWAP1 POP SWAP2 SWAP1 POP JUMP JUMPDEST PUSH1 0x0 PUSH2 0x46B PUSH1 0x22 DUP4 PUSH2 0x53D JUMP JUMPDEST SWAP2 POP PUSH2 0x476 DUP3 PUSH2 0x671 JUMP JUMPDEST PUSH1 0x40 DUP3 ADD SWAP1 POP SWAP2 SWAP1 POP JUMP JUMPDEST PUSH2 0x48A DUP2 PUSH2 0x60A JUMP JUMPDEST DUP3 MSTORE POP POP JUMP JUMPDEST PUSH1 0x0 PUSH1 0x20 DUP3 ADD SWAP1 POP PUSH2 0x4A5 PUSH1 0x0 DUP4 ADD DUP5 PUSH2 0x42C JUMP JUMPDEST SWAP3 SWAP2 POP POP JUMP JUMPDEST PUSH1 0x0 PUSH1 0x60 DUP3 ADD SWAP1 POP PUSH2 0x4C0 PUSH1 0x0 DUP4 ADD DUP7 PUSH2 0x42C JUMP JUMPDEST PUSH2 0x4CD PUSH1 0x20 DUP4 ADD DUP6 PUSH2 0x42C JUMP JUMPDEST PUSH2 0x4DA PUSH1 0x40 DUP4 ADD DUP5 PUSH2 0x481 JUMP JUMPDEST SWAP5 SWAP4 POP POP POP POP JUMP JUMPDEST PUSH1 0x0 PUSH1 0x20 DUP3 ADD SWAP1 POP DUP2 DUP2 SUB PUSH1 0x0 DUP4 ADD MSTORE PUSH2 0x4FB DUP2 PUSH2 0x43B JUMP JUMPDEST SWAP1 POP SWAP2 SWAP1 POP JUMP JUMPDEST PUSH1 0x0 PUSH1 0x20 DUP3 ADD SWAP1 POP DUP2 DUP2 SUB PUSH1 0x0 DUP4 ADD MSTORE PUSH2 0x51B DUP2 PUSH2 0x45E JUMP JUMPDEST SWAP1 POP SWAP2 SWAP1 POP JUMP JUMPDEST PUSH1 0x0 PUSH1 0x20 DUP3 ADD SWAP1 POP PUSH2 0x537 PUSH1 0x0 DUP4 ADD DUP5 PUSH2 0x481 JUMP JUMPDEST SWAP3 SWAP2 POP POP JUMP JUMPDEST PUSH1 0x0 DUP3 DUP3 MSTORE PUSH1 0x20 DUP3 ADD SWAP1 POP SWAP3 SWAP2 POP POP JUMP JUMPDEST PUSH1 0x0 PUSH2 0x559 DUP3 PUSH2 0x60A JUMP JUMPDEST SWAP2 POP PUSH2 0x564 DUP4 PUSH2 0x60A JUMP JUMPDEST SWAP3 POP DUP3 PUSH32 0xFFFFFFFFFFFFFFFFFFFFFFFFFFFFFFFFFFFFFFFFFFFFFFFFFFFFFFFFFFFFFFFF SUB DUP3 GT ISZERO PUSH2 0x599 JUMPI PUSH2 0x598 PUSH2 0x614 JUMP JUMPDEST JUMPDEST DUP3 DUP3 ADD SWAP1 POP SWAP3 SWAP2 POP POP JUMP JUMPDEST PUSH1 0x0 PUSH2 0x5AF DUP3 PUSH2 0x60A JUMP JUMPDEST SWAP2 POP PUSH2 0x5BA DUP4 PUSH2 0x60A JUMP JUMPDEST SWAP3 POP DUP3 DUP3 LT ISZERO PUSH2 0x5CD JUMPI PUSH2 0x5CC PUSH2 0x614 JUMP JUMPDEST JUMPDEST DUP3 DUP3 SUB SWAP1 POP SWAP3 SWAP2 POP POP JUMP JUMPDEST PUSH1 0x0 PUSH2 0x5E3 DUP3 PUSH2 0x5EA JUMP JUMPDEST SWAP1 POP SWAP2 SWAP1 POP JUMP JUMPDEST PUSH1 0x0 PUSH20 0xFFFFFFFFFFFFFFFFFFFFFFFFFFFFFFFFFFFFFFFF DUP3 AND SWAP1 POP SWAP2 SWAP1 POP JUMP JUMPDEST PUSH1 0x0 DUP2 SWAP1 POP SWAP2 SWAP1 POP JUMP JUMPDEST PUSH32 0x4E487B7100000000000000000000000000000000000000000000000000000000 PUSH1 0x0 MSTORE PUSH1 0x11 PUSH1 0x4 MSTORE PUSH1 0x24 PUSH1 0x0 REVERT JUMPDEST PUSH1 0x0 DUP1 REVERT JUMPDEST PUSH32 0x496E73756666696369656E742062616C616E63652E0000000000000000000000 PUSH1 0x0 DUP3 ADD MSTORE POP JUMP JUMPDEST PUSH32 0x4F6E6C79206D696E7465722063616E2063616C6C20746869732066756E637469 PUSH1 0x0 DUP3 ADD MSTORE PUSH32 0x6F6E000000000000000000000000000000000000000000000000000000000000 PUSH1 0x20 DUP3 ADD MSTORE POP JUMP JUMPDEST PUSH2 0x6C9 DUP2 PUSH2 0x5D8 JUMP JUMPDEST DUP2 EQ PUSH2 0x6D4 JUMPI PUSH1 0x0 DUP1 REVERT JUMPDEST POP JUMP JUMPDEST PUSH2 0x6E0 DUP2 PUSH2 0x60A JUMP JUMPDEST DUP2 EQ PUSH2 0x6EB JUMPI PUSH1 0x0 DUP1 REVERT JUMPDEST POP JUMP INVALID LOG2 PUSH5 0x6970667358 0x22 SLT KECCAK256 DUP11 MSIZE 0xB3 0xD7 PUSH20 0x11C75607B3AECFAA3E1193FAED2AD0E6BD11EB9E SWAP1 0xEC GAS PUSH13 0xAEB96A64736F6C634300080700 CALLER "
				},
				"gasEstimates": {
					"creation": {
						"codeDepositCost": "365600",
						"executionCost": "24671",
						"totalCost": "390271"
					},
					"external": {
						"balances(address)": "2814",
						"mint(address,uint256)": "infinite",
						"minter()": "2492",
						"send(address,uint256)": "infinite"
					}
				},
				"methodIdentifiers": {
					"balances(address)": "27e235e3",
					"mint(address,uint256)": "40c10f19",
					"minter()": "07546172",
					"send(address,uint256)": "d0679d34"
				}
			},
			"storageLayout": {
				"storage": [
					{
						"astId": 3,
						"contract": "contracts/SimpleTime2.sol:Coin",
						"label": "contractStartTime",
						"offset": 0,
						"slot": "0",
						"type": "t_uint256"
					},
					{
						"astId": 5,
						"contract": "contracts/SimpleTime2.sol:Coin",
						"label": "minter",
						"offset": 0,
						"slot": "1",
						"type": "t_address"
					},
					{
						"astId": 9,
						"contract": "contracts/SimpleTime2.sol:Coin",
						"label": "balances",
						"offset": 0,
						"slot": "2",
						"type": "t_mapping(t_address,t_uint256)"
					}
				],
				"types": {
					"t_address": {
						"encoding": "inplace",
						"label": "address",
						"numberOfBytes": "20"
					},
					"t_mapping(t_address,t_uint256)": {
						"encoding": "mapping",
						"key": "t_address",
						"label": "mapping(address => uint256)",
						"numberOfBytes": "32",
						"value": "t_uint256"
					},
					"t_uint256": {
						"encoding": "inplace",
						"label": "uint256",
						"numberOfBytes": "32"
					}
				}
			},
			"userdoc": {
				"kind": "user",
				"methods": {},
				"version": 1
			}
		}
	}
}