{
	"contracts/SimpleTime.sol": {
		"myGame": {
			"abi": [
				{
					"inputs": [
						{
							"internalType": "string",
							"name": "firstName",
							"type": "string"
						},
						{
							"internalType": "string",
							"name": "lastName",
							"type": "string"
						}
					],
					"name": "addPlayer",
					"outputs": [],
					"stateMutability": "nonpayable",
					"type": "function"
				},
				{
					"inputs": [
						{
							"internalType": "address",
							"name": "playerAddress",
							"type": "address"
						}
					],
					"name": "changePlayerLevel",
					"outputs": [],
					"stateMutability": "nonpayable",
					"type": "function"
				},
				{
					"inputs": [
						{
							"internalType": "address",
							"name": "playerAddress",
							"type": "address"
						}
					],
					"name": "getPlayerLevel",
					"outputs": [
						{
							"internalType": "enum myGame.Level",
							"name": "",
							"type": "uint8"
						}
					],
					"stateMutability": "view",
					"type": "function"
				},
				{
					"inputs": [],
					"name": "playerCount",
					"outputs": [
						{
							"internalType": "uint256",
							"name": "",
							"type": "uint256"
						}
					],
					"stateMutability": "view",
					"type": "function"
				},
				{
					"inputs": [
						{
							"internalType": "address",
							"name": "",
							"type": "address"
						}
					],
					"name": "players",
					"outputs": [
						{
							"internalType": "address",
							"name": "playerAddress",
							"type": "address"
						},
						{
							"internalType": "enum myGame.Level",
							"name": "playerLevel",
							"type": "uint8"
						},
						{
							"internalType": "string",
							"name": "firstName",
							"type": "string"
						},
						{
							"internalType": "string",
							"name": "lastName",
							"type": "string"
						},
						{
							"internalType": "uint256",
							"name": "createdTime",
							"type": "uint256"
						}
					],
					"stateMutability": "view",
					"type": "function"
				}
			],
			"devdoc": {
				"kind": "dev",
				"methods": {},
				"version": 1
			},
			"evm": {
				"assembly": "    /* \"contracts/SimpleTime.sol\":67:986  contract myGame {... */\n  mstore(0x40, 0x80)\n    /* \"contracts/SimpleTime.sol\":116:117  0 */\n  0x00\n    /* \"contracts/SimpleTime.sol\":90:117  uint public playerCount = 0 */\n  dup1\n  sstore\n    /* \"contracts/SimpleTime.sol\":67:986  contract myGame {... */\n  callvalue\n  dup1\n  iszero\n  tag_1\n  jumpi\n  0x00\n  dup1\n  revert\ntag_1:\n  pop\n  dataSize(sub_0)\n  dup1\n  dataOffset(sub_0)\n  0x00\n  codecopy\n  0x00\n  return\nstop\n\nsub_0: assembly {\n        /* \"contracts/SimpleTime.sol\":67:986  contract myGame {... */\n      mstore(0x40, 0x80)\n      callvalue\n      dup1\n      iszero\n      tag_1\n      jumpi\n      0x00\n      dup1\n      revert\n    tag_1:\n      pop\n      jumpi(tag_2, lt(calldatasize, 0x04))\n      shr(0xe0, calldataload(0x00))\n      dup1\n      0x302bcc57\n      eq\n      tag_3\n      jumpi\n      dup1\n      0x34b735a1\n      eq\n      tag_4\n      jumpi\n      dup1\n      0x5cb119a9\n      eq\n      tag_5\n      jumpi\n      dup1\n      0x8ddf0f7d\n      eq\n      tag_6\n      jumpi\n      dup1\n      0xe2eb41ff\n      eq\n      tag_7\n      jumpi\n    tag_2:\n      0x00\n      dup1\n      revert\n        /* \"contracts/SimpleTime.sol\":90:117  uint public playerCount = 0 */\n    tag_3:\n      tag_8\n      tag_9\n      jump\t// in\n    tag_8:\n      mload(0x40)\n      tag_10\n      swap2\n      swap1\n      tag_11\n      jump\t// in\n    tag_10:\n      mload(0x40)\n      dup1\n      swap2\n      sub\n      swap1\n      return\n        /* \"contracts/SimpleTime.sol\":603:776  function getPlayerLevel(address playerAddress) public view returns (Level) {... */\n    tag_4:\n      tag_12\n      0x04\n      dup1\n      calldatasize\n      sub\n      dup2\n      add\n      swap1\n      tag_13\n      swap2\n      swap1\n      tag_14\n      jump\t// in\n    tag_13:\n      tag_15\n      jump\t// in\n    tag_12:\n      mload(0x40)\n      tag_16\n      swap2\n      swap1\n      tag_17\n      jump\t// in\n    tag_16:\n      mload(0x40)\n      dup1\n      swap2\n      sub\n      swap1\n      return\n        /* \"contracts/SimpleTime.sol\":387:597  function addPlayer(string memory firstName, string memory lastName) public {... */\n    tag_5:\n      tag_18\n      0x04\n      dup1\n      calldatasize\n      sub\n      dup2\n      add\n      swap1\n      tag_19\n      swap2\n      swap1\n      tag_20\n      jump\t// in\n    tag_19:\n      tag_21\n      jump\t// in\n    tag_18:\n      stop\n        /* \"contracts/SimpleTime.sol\":782:984  function changePlayerLevel (address playerAddress) public {... */\n    tag_6:\n      tag_22\n      0x04\n      dup1\n      calldatasize\n      sub\n      dup2\n      add\n      swap1\n      tag_23\n      swap2\n      swap1\n      tag_14\n      jump\t// in\n    tag_23:\n      tag_24\n      jump\t// in\n    tag_22:\n      stop\n        /* \"contracts/SimpleTime.sol\":123:165  mapping (address => Player) public players */\n    tag_7:\n      tag_25\n      0x04\n      dup1\n      calldatasize\n      sub\n      dup2\n      add\n      swap1\n      tag_26\n      swap2\n      swap1\n      tag_14\n      jump\t// in\n    tag_26:\n      tag_27\n      jump\t// in\n    tag_25:\n      mload(0x40)\n      tag_28\n      swap6\n      swap5\n      swap4\n      swap3\n      swap2\n      swap1\n      tag_29\n      jump\t// in\n    tag_28:\n      mload(0x40)\n      dup1\n      swap2\n      sub\n      swap1\n      return\n        /* \"contracts/SimpleTime.sol\":90:117  uint public playerCount = 0 */\n    tag_9:\n      sload(0x00)\n      dup2\n      jump\t// out\n        /* \"contracts/SimpleTime.sol\":603:776  function getPlayerLevel(address playerAddress) public view returns (Level) {... */\n    tag_15:\n        /* \"contracts/SimpleTime.sol\":671:676  Level */\n      0x00\n        /* \"contracts/SimpleTime.sol\":688:709  Player storage player */\n      dup1\n        /* \"contracts/SimpleTime.sol\":712:719  players */\n      0x01\n        /* \"contracts/SimpleTime.sol\":712:734  players[playerAddress] */\n      0x00\n        /* \"contracts/SimpleTime.sol\":720:733  playerAddress */\n      dup5\n        /* \"contracts/SimpleTime.sol\":712:734  players[playerAddress] */\n      0xffffffffffffffffffffffffffffffffffffffff\n      and\n      0xffffffffffffffffffffffffffffffffffffffff\n      and\n      dup2\n      mstore\n      0x20\n      add\n      swap1\n      dup2\n      mstore\n      0x20\n      add\n      0x00\n      keccak256\n        /* \"contracts/SimpleTime.sol\":688:734  Player storage player = players[playerAddress] */\n      swap1\n      pop\n        /* \"contracts/SimpleTime.sol\":751:757  player */\n      dup1\n        /* \"contracts/SimpleTime.sol\":751:769  player.playerLevel */\n      0x00\n      add\n      0x14\n      swap1\n      sload\n      swap1\n      0x0100\n      exp\n      swap1\n      div\n      0xff\n      and\n        /* \"contracts/SimpleTime.sol\":744:769  return player.playerLevel */\n      swap2\n      pop\n      pop\n        /* \"contracts/SimpleTime.sol\":603:776  function getPlayerLevel(address playerAddress) public view returns (Level) {... */\n      swap2\n      swap1\n      pop\n      jump\t// out\n        /* \"contracts/SimpleTime.sol\":387:597  function addPlayer(string memory firstName, string memory lastName) public {... */\n    tag_21:\n        /* \"contracts/SimpleTime.sol\":494:564  Player(msg.sender, Level.Novice, firstName, lastName, block.timestamp) */\n      mload(0x40)\n      dup1\n      0xa0\n      add\n      0x40\n      mstore\n      dup1\n        /* \"contracts/SimpleTime.sol\":501:511  msg.sender */\n      caller\n        /* \"contracts/SimpleTime.sol\":494:564  Player(msg.sender, Level.Novice, firstName, lastName, block.timestamp) */\n      0xffffffffffffffffffffffffffffffffffffffff\n      and\n      dup2\n      mstore\n      0x20\n      add\n        /* \"contracts/SimpleTime.sol\":513:525  Level.Novice */\n      0x00\n        /* \"contracts/SimpleTime.sol\":494:564  Player(msg.sender, Level.Novice, firstName, lastName, block.timestamp) */\n      0x02\n      dup2\n      gt\n      iszero\n      tag_32\n      jumpi\n      tag_33\n      tag_34\n      jump\t// in\n    tag_33:\n    tag_32:\n      dup2\n      mstore\n      0x20\n      add\n        /* \"contracts/SimpleTime.sol\":527:536  firstName */\n      dup4\n        /* \"contracts/SimpleTime.sol\":494:564  Player(msg.sender, Level.Novice, firstName, lastName, block.timestamp) */\n      dup2\n      mstore\n      0x20\n      add\n        /* \"contracts/SimpleTime.sol\":538:546  lastName */\n      dup3\n        /* \"contracts/SimpleTime.sol\":494:564  Player(msg.sender, Level.Novice, firstName, lastName, block.timestamp) */\n      dup2\n      mstore\n      0x20\n      add\n        /* \"contracts/SimpleTime.sol\":548:563  block.timestamp */\n      timestamp\n        /* \"contracts/SimpleTime.sol\":494:564  Player(msg.sender, Level.Novice, firstName, lastName, block.timestamp) */\n      dup2\n      mstore\n      pop\n        /* \"contracts/SimpleTime.sol\":472:479  players */\n      0x01\n        /* \"contracts/SimpleTime.sol\":472:491  players[msg.sender] */\n      0x00\n        /* \"contracts/SimpleTime.sol\":480:490  msg.sender */\n      caller\n        /* \"contracts/SimpleTime.sol\":472:491  players[msg.sender] */\n      0xffffffffffffffffffffffffffffffffffffffff\n      and\n      0xffffffffffffffffffffffffffffffffffffffff\n      and\n      dup2\n      mstore\n      0x20\n      add\n      swap1\n      dup2\n      mstore\n      0x20\n      add\n      0x00\n      keccak256\n        /* \"contracts/SimpleTime.sol\":472:564  players[msg.sender] = Player(msg.sender, Level.Novice, firstName, lastName, block.timestamp) */\n      0x00\n      dup3\n      add\n      mload\n      dup2\n      0x00\n      add\n      exp(0x0100, 0x00)\n      dup2\n      sload\n      dup2\n      0xffffffffffffffffffffffffffffffffffffffff\n      mul\n      not\n      and\n      swap1\n      dup4\n      0xffffffffffffffffffffffffffffffffffffffff\n      and\n      mul\n      or\n      swap1\n      sstore\n      pop\n      0x20\n      dup3\n      add\n      mload\n      dup2\n      0x00\n      add\n      exp(0x0100, 0x14)\n      dup2\n      sload\n      dup2\n      0xff\n      mul\n      not\n      and\n      swap1\n      dup4\n      0x02\n      dup2\n      gt\n      iszero\n      tag_35\n      jumpi\n      tag_36\n      tag_34\n      jump\t// in\n    tag_36:\n    tag_35:\n      mul\n      or\n      swap1\n      sstore\n      pop\n      0x40\n      dup3\n      add\n      mload\n      dup2\n      0x01\n      add\n      swap1\n      dup1\n      mload\n      swap1\n      0x20\n      add\n      swap1\n      tag_37\n      swap3\n      swap2\n      swap1\n      tag_38\n      jump\t// in\n    tag_37:\n      pop\n      0x60\n      dup3\n      add\n      mload\n      dup2\n      0x02\n      add\n      swap1\n      dup1\n      mload\n      swap1\n      0x20\n      add\n      swap1\n      tag_39\n      swap3\n      swap2\n      swap1\n      tag_38\n      jump\t// in\n    tag_39:\n      pop\n      0x80\n      dup3\n      add\n      mload\n      dup2\n      0x03\n      add\n      sstore\n      swap1\n      pop\n      pop\n        /* \"contracts/SimpleTime.sol\":589:590  1 */\n      0x01\n        /* \"contracts/SimpleTime.sol\":574:585  playerCount */\n      0x00\n      dup1\n        /* \"contracts/SimpleTime.sol\":574:590  playerCount += 1 */\n      dup3\n      dup3\n      sload\n      tag_40\n      swap2\n      swap1\n      tag_41\n      jump\t// in\n    tag_40:\n      swap3\n      pop\n      pop\n      dup2\n      swap1\n      sstore\n      pop\n        /* \"contracts/SimpleTime.sol\":387:597  function addPlayer(string memory firstName, string memory lastName) public {... */\n      pop\n      pop\n      jump\t// out\n        /* \"contracts/SimpleTime.sol\":782:984  function changePlayerLevel (address playerAddress) public {... */\n    tag_24:\n        /* \"contracts/SimpleTime.sol\":850:871  Player storage player */\n      0x00\n        /* \"contracts/SimpleTime.sol\":874:881  players */\n      0x01\n        /* \"contracts/SimpleTime.sol\":874:896  players[playerAddress] */\n      0x00\n        /* \"contracts/SimpleTime.sol\":882:895  playerAddress */\n      dup4\n        /* \"contracts/SimpleTime.sol\":874:896  players[playerAddress] */\n      0xffffffffffffffffffffffffffffffffffffffff\n      and\n      0xffffffffffffffffffffffffffffffffffffffff\n      and\n      dup2\n      mstore\n      0x20\n      add\n      swap1\n      dup2\n      mstore\n      0x20\n      add\n      0x00\n      keccak256\n        /* \"contracts/SimpleTime.sol\":850:896  Player storage player = players[playerAddress] */\n      swap1\n      pop\n        /* \"contracts/SimpleTime.sol\":950:952  20 */\n      0x14\n        /* \"contracts/SimpleTime.sol\":929:935  player */\n      dup2\n        /* \"contracts/SimpleTime.sol\":929:947  player.createdTime */\n      0x03\n      add\n      sload\n        /* \"contracts/SimpleTime.sol\":929:952  player.createdTime + 20 */\n      tag_43\n      swap2\n      swap1\n      tag_41\n      jump\t// in\n    tag_43:\n        /* \"contracts/SimpleTime.sol\":910:952  block.timestamp >= player.createdTime + 20 */\n      pop\n        /* \"contracts/SimpleTime.sol\":840:984  {... */\n      pop\n        /* \"contracts/SimpleTime.sol\":782:984  function changePlayerLevel (address playerAddress) public {... */\n      pop\n      jump\t// out\n        /* \"contracts/SimpleTime.sol\":123:165  mapping (address => Player) public players */\n    tag_27:\n      mstore(0x20, 0x01)\n      dup1\n      0x00\n      mstore\n      keccak256(0x00, 0x40)\n      0x00\n      swap2\n      pop\n      swap1\n      pop\n      dup1\n      0x00\n      add\n      0x00\n      swap1\n      sload\n      swap1\n      0x0100\n      exp\n      swap1\n      div\n      0xffffffffffffffffffffffffffffffffffffffff\n      and\n      swap1\n      dup1\n      0x00\n      add\n      0x14\n      swap1\n      sload\n      swap1\n      0x0100\n      exp\n      swap1\n      div\n      0xff\n      and\n      swap1\n      dup1\n      0x01\n      add\n      dup1\n      sload\n      tag_45\n      swap1\n      tag_46\n      jump\t// in\n    tag_45:\n      dup1\n      0x1f\n      add\n      0x20\n      dup1\n      swap2\n      div\n      mul\n      0x20\n      add\n      mload(0x40)\n      swap1\n      dup2\n      add\n      0x40\n      mstore\n      dup1\n      swap3\n      swap2\n      swap1\n      dup2\n      dup2\n      mstore\n      0x20\n      add\n      dup3\n      dup1\n      sload\n      tag_47\n      swap1\n      tag_46\n      jump\t// in\n    tag_47:\n      dup1\n      iszero\n      tag_48\n      jumpi\n      dup1\n      0x1f\n      lt\n      tag_49\n      jumpi\n      0x0100\n      dup1\n      dup4\n      sload\n      div\n      mul\n      dup4\n      mstore\n      swap2\n      0x20\n      add\n      swap2\n      jump(tag_48)\n    tag_49:\n      dup3\n      add\n      swap2\n      swap1\n      0x00\n      mstore\n      keccak256(0x00, 0x20)\n      swap1\n    tag_50:\n      dup2\n      sload\n      dup2\n      mstore\n      swap1\n      0x01\n      add\n      swap1\n      0x20\n      add\n      dup1\n      dup4\n      gt\n      tag_50\n      jumpi\n      dup3\n      swap1\n      sub\n      0x1f\n      and\n      dup3\n      add\n      swap2\n    tag_48:\n      pop\n      pop\n      pop\n      pop\n      pop\n      swap1\n      dup1\n      0x02\n      add\n      dup1\n      sload\n      tag_51\n      swap1\n      tag_46\n      jump\t// in\n    tag_51:\n      dup1\n      0x1f\n      add\n      0x20\n      dup1\n      swap2\n      div\n      mul\n      0x20\n      add\n      mload(0x40)\n      swap1\n      dup2\n      add\n      0x40\n      mstore\n      dup1\n      swap3\n      swap2\n      swap1\n      dup2\n      dup2\n      mstore\n      0x20\n      add\n      dup3\n      dup1\n      sload\n      tag_52\n      swap1\n      tag_46\n      jump\t// in\n    tag_52:\n      dup1\n      iszero\n      tag_53\n      jumpi\n      dup1\n      0x1f\n      lt\n      tag_54\n      jumpi\n      0x0100\n      dup1\n      dup4\n      sload\n      div\n      mul\n      dup4\n      mstore\n      swap2\n      0x20\n      add\n      swap2\n      jump(tag_53)\n    tag_54:\n      dup3\n      add\n      swap2\n      swap1\n      0x00\n      mstore\n      keccak256(0x00, 0x20)\n      swap1\n    tag_55:\n      dup2\n      sload\n      dup2\n      mstore\n      swap1\n      0x01\n      add\n      swap1\n      0x20\n      add\n      dup1\n      dup4\n      gt\n      tag_55\n      jumpi\n      dup3\n      swap1\n      sub\n      0x1f\n      and\n      dup3\n      add\n      swap2\n    tag_53:\n      pop\n      pop\n      pop\n      pop\n      pop\n      swap1\n      dup1\n      0x03\n      add\n      sload\n      swap1\n      pop\n      dup6\n      jump\t// out\n    tag_38:\n      dup3\n      dup1\n      sload\n      tag_56\n      swap1\n      tag_46\n      jump\t// in\n    tag_56:\n      swap1\n      0x00\n      mstore\n      keccak256(0x00, 0x20)\n      swap1\n      0x1f\n      add\n      0x20\n      swap1\n      div\n      dup2\n      add\n      swap3\n      dup3\n      tag_58\n      jumpi\n      0x00\n      dup6\n      sstore\n      jump(tag_57)\n    tag_58:\n      dup3\n      0x1f\n      lt\n      tag_59\n      jumpi\n      dup1\n      mload\n      not(0xff)\n      and\n      dup4\n      dup1\n      add\n      or\n      dup6\n      sstore\n      jump(tag_57)\n    tag_59:\n      dup3\n      dup1\n      add\n      0x01\n      add\n      dup6\n      sstore\n      dup3\n      iszero\n      tag_57\n      jumpi\n      swap2\n      dup3\n      add\n    tag_60:\n      dup3\n      dup2\n      gt\n      iszero\n      tag_61\n      jumpi\n      dup3\n      mload\n      dup3\n      sstore\n      swap2\n      0x20\n      add\n      swap2\n      swap1\n      0x01\n      add\n      swap1\n      jump(tag_60)\n    tag_61:\n    tag_57:\n      pop\n      swap1\n      pop\n      tag_62\n      swap2\n      swap1\n      tag_63\n      jump\t// in\n    tag_62:\n      pop\n      swap1\n      jump\t// out\n    tag_63:\n    tag_64:\n      dup1\n      dup3\n      gt\n      iszero\n      tag_65\n      jumpi\n      0x00\n      dup2\n      0x00\n      swap1\n      sstore\n      pop\n      0x01\n      add\n      jump(tag_64)\n    tag_65:\n      pop\n      swap1\n      jump\t// out\n        /* \"#utility.yul\":7:419   */\n    tag_67:\n        /* \"#utility.yul\":85:90   */\n      0x00\n        /* \"#utility.yul\":110:176   */\n      tag_69\n        /* \"#utility.yul\":126:175   */\n      tag_70\n        /* \"#utility.yul\":168:174   */\n      dup5\n        /* \"#utility.yul\":126:175   */\n      tag_71\n      jump\t// in\n    tag_70:\n        /* \"#utility.yul\":110:176   */\n      tag_72\n      jump\t// in\n    tag_69:\n        /* \"#utility.yul\":101:176   */\n      swap1\n      pop\n        /* \"#utility.yul\":199:205   */\n      dup3\n        /* \"#utility.yul\":192:197   */\n      dup2\n        /* \"#utility.yul\":185:206   */\n      mstore\n        /* \"#utility.yul\":237:241   */\n      0x20\n        /* \"#utility.yul\":230:235   */\n      dup2\n        /* \"#utility.yul\":226:242   */\n      add\n        /* \"#utility.yul\":275:278   */\n      dup5\n        /* \"#utility.yul\":266:272   */\n      dup5\n        /* \"#utility.yul\":261:264   */\n      dup5\n        /* \"#utility.yul\":257:273   */\n      add\n        /* \"#utility.yul\":254:279   */\n      gt\n        /* \"#utility.yul\":251:363   */\n      iszero\n      tag_73\n      jumpi\n        /* \"#utility.yul\":282:361   */\n      tag_74\n      tag_75\n      jump\t// in\n    tag_74:\n        /* \"#utility.yul\":251:363   */\n    tag_73:\n        /* \"#utility.yul\":372:413   */\n      tag_76\n        /* \"#utility.yul\":406:412   */\n      dup5\n        /* \"#utility.yul\":401:404   */\n      dup3\n        /* \"#utility.yul\":396:399   */\n      dup6\n        /* \"#utility.yul\":372:413   */\n      tag_77\n      jump\t// in\n    tag_76:\n        /* \"#utility.yul\":91:419   */\n      pop\n        /* \"#utility.yul\":7:419   */\n      swap4\n      swap3\n      pop\n      pop\n      pop\n      jump\t// out\n        /* \"#utility.yul\":425:564   */\n    tag_78:\n        /* \"#utility.yul\":471:476   */\n      0x00\n        /* \"#utility.yul\":509:515   */\n      dup2\n        /* \"#utility.yul\":496:516   */\n      calldataload\n        /* \"#utility.yul\":487:516   */\n      swap1\n      pop\n        /* \"#utility.yul\":525:558   */\n      tag_80\n        /* \"#utility.yul\":552:557   */\n      dup2\n        /* \"#utility.yul\":525:558   */\n      tag_81\n      jump\t// in\n    tag_80:\n        /* \"#utility.yul\":425:564   */\n      swap3\n      swap2\n      pop\n      pop\n      jump\t// out\n        /* \"#utility.yul\":584:924   */\n    tag_82:\n        /* \"#utility.yul\":640:645   */\n      0x00\n        /* \"#utility.yul\":689:692   */\n      dup3\n        /* \"#utility.yul\":682:686   */\n      0x1f\n        /* \"#utility.yul\":674:680   */\n      dup4\n        /* \"#utility.yul\":670:687   */\n      add\n        /* \"#utility.yul\":666:693   */\n      slt\n        /* \"#utility.yul\":656:778   */\n      tag_84\n      jumpi\n        /* \"#utility.yul\":697:776   */\n      tag_85\n      tag_86\n      jump\t// in\n    tag_85:\n        /* \"#utility.yul\":656:778   */\n    tag_84:\n        /* \"#utility.yul\":814:820   */\n      dup2\n        /* \"#utility.yul\":801:821   */\n      calldataload\n        /* \"#utility.yul\":839:918   */\n      tag_87\n        /* \"#utility.yul\":914:917   */\n      dup5\n        /* \"#utility.yul\":906:912   */\n      dup3\n        /* \"#utility.yul\":899:903   */\n      0x20\n        /* \"#utility.yul\":891:897   */\n      dup7\n        /* \"#utility.yul\":887:904   */\n      add\n        /* \"#utility.yul\":839:918   */\n      tag_67\n      jump\t// in\n    tag_87:\n        /* \"#utility.yul\":830:918   */\n      swap2\n      pop\n        /* \"#utility.yul\":646:924   */\n      pop\n        /* \"#utility.yul\":584:924   */\n      swap3\n      swap2\n      pop\n      pop\n      jump\t// out\n        /* \"#utility.yul\":930:1259   */\n    tag_14:\n        /* \"#utility.yul\":989:995   */\n      0x00\n        /* \"#utility.yul\":1038:1040   */\n      0x20\n        /* \"#utility.yul\":1026:1035   */\n      dup3\n        /* \"#utility.yul\":1017:1024   */\n      dup5\n        /* \"#utility.yul\":1013:1036   */\n      sub\n        /* \"#utility.yul\":1009:1041   */\n      slt\n        /* \"#utility.yul\":1006:1125   */\n      iszero\n      tag_89\n      jumpi\n        /* \"#utility.yul\":1044:1123   */\n      tag_90\n      tag_91\n      jump\t// in\n    tag_90:\n        /* \"#utility.yul\":1006:1125   */\n    tag_89:\n        /* \"#utility.yul\":1164:1165   */\n      0x00\n        /* \"#utility.yul\":1189:1242   */\n      tag_92\n        /* \"#utility.yul\":1234:1241   */\n      dup5\n        /* \"#utility.yul\":1225:1231   */\n      dup3\n        /* \"#utility.yul\":1214:1223   */\n      dup6\n        /* \"#utility.yul\":1210:1232   */\n      add\n        /* \"#utility.yul\":1189:1242   */\n      tag_78\n      jump\t// in\n    tag_92:\n        /* \"#utility.yul\":1179:1242   */\n      swap2\n      pop\n        /* \"#utility.yul\":1135:1252   */\n      pop\n        /* \"#utility.yul\":930:1259   */\n      swap3\n      swap2\n      pop\n      pop\n      jump\t// out\n        /* \"#utility.yul\":1265:2099   */\n    tag_20:\n        /* \"#utility.yul\":1353:1359   */\n      0x00\n        /* \"#utility.yul\":1361:1367   */\n      dup1\n        /* \"#utility.yul\":1410:1412   */\n      0x40\n        /* \"#utility.yul\":1398:1407   */\n      dup4\n        /* \"#utility.yul\":1389:1396   */\n      dup6\n        /* \"#utility.yul\":1385:1408   */\n      sub\n        /* \"#utility.yul\":1381:1413   */\n      slt\n        /* \"#utility.yul\":1378:1497   */\n      iszero\n      tag_94\n      jumpi\n        /* \"#utility.yul\":1416:1495   */\n      tag_95\n      tag_91\n      jump\t// in\n    tag_95:\n        /* \"#utility.yul\":1378:1497   */\n    tag_94:\n        /* \"#utility.yul\":1564:1565   */\n      0x00\n        /* \"#utility.yul\":1553:1562   */\n      dup4\n        /* \"#utility.yul\":1549:1566   */\n      add\n        /* \"#utility.yul\":1536:1567   */\n      calldataload\n        /* \"#utility.yul\":1594:1612   */\n      0xffffffffffffffff\n        /* \"#utility.yul\":1586:1592   */\n      dup2\n        /* \"#utility.yul\":1583:1613   */\n      gt\n        /* \"#utility.yul\":1580:1697   */\n      iszero\n      tag_96\n      jumpi\n        /* \"#utility.yul\":1616:1695   */\n      tag_97\n      tag_98\n      jump\t// in\n    tag_97:\n        /* \"#utility.yul\":1580:1697   */\n    tag_96:\n        /* \"#utility.yul\":1721:1784   */\n      tag_99\n        /* \"#utility.yul\":1776:1783   */\n      dup6\n        /* \"#utility.yul\":1767:1773   */\n      dup3\n        /* \"#utility.yul\":1756:1765   */\n      dup7\n        /* \"#utility.yul\":1752:1774   */\n      add\n        /* \"#utility.yul\":1721:1784   */\n      tag_82\n      jump\t// in\n    tag_99:\n        /* \"#utility.yul\":1711:1784   */\n      swap3\n      pop\n        /* \"#utility.yul\":1507:1794   */\n      pop\n        /* \"#utility.yul\":1861:1863   */\n      0x20\n        /* \"#utility.yul\":1850:1859   */\n      dup4\n        /* \"#utility.yul\":1846:1864   */\n      add\n        /* \"#utility.yul\":1833:1865   */\n      calldataload\n        /* \"#utility.yul\":1892:1910   */\n      0xffffffffffffffff\n        /* \"#utility.yul\":1884:1890   */\n      dup2\n        /* \"#utility.yul\":1881:1911   */\n      gt\n        /* \"#utility.yul\":1878:1995   */\n      iszero\n      tag_100\n      jumpi\n        /* \"#utility.yul\":1914:1993   */\n      tag_101\n      tag_98\n      jump\t// in\n    tag_101:\n        /* \"#utility.yul\":1878:1995   */\n    tag_100:\n        /* \"#utility.yul\":2019:2082   */\n      tag_102\n        /* \"#utility.yul\":2074:2081   */\n      dup6\n        /* \"#utility.yul\":2065:2071   */\n      dup3\n        /* \"#utility.yul\":2054:2063   */\n      dup7\n        /* \"#utility.yul\":2050:2072   */\n      add\n        /* \"#utility.yul\":2019:2082   */\n      tag_82\n      jump\t// in\n    tag_102:\n        /* \"#utility.yul\":2009:2082   */\n      swap2\n      pop\n        /* \"#utility.yul\":1804:2092   */\n      pop\n        /* \"#utility.yul\":1265:2099   */\n      swap3\n      pop\n      swap3\n      swap1\n      pop\n      jump\t// out\n        /* \"#utility.yul\":2105:2223   */\n    tag_103:\n        /* \"#utility.yul\":2192:2216   */\n      tag_105\n        /* \"#utility.yul\":2210:2215   */\n      dup2\n        /* \"#utility.yul\":2192:2216   */\n      tag_106\n      jump\t// in\n    tag_105:\n        /* \"#utility.yul\":2187:2190   */\n      dup3\n        /* \"#utility.yul\":2180:2217   */\n      mstore\n        /* \"#utility.yul\":2105:2223   */\n      pop\n      pop\n      jump\t// out\n        /* \"#utility.yul\":2229:2372   */\n    tag_107:\n        /* \"#utility.yul\":2322:2365   */\n      tag_109\n        /* \"#utility.yul\":2359:2364   */\n      dup2\n        /* \"#utility.yul\":2322:2365   */\n      tag_110\n      jump\t// in\n    tag_109:\n        /* \"#utility.yul\":2317:2320   */\n      dup3\n        /* \"#utility.yul\":2310:2366   */\n      mstore\n        /* \"#utility.yul\":2229:2372   */\n      pop\n      pop\n      jump\t// out\n        /* \"#utility.yul\":2378:2742   */\n    tag_111:\n        /* \"#utility.yul\":2466:2469   */\n      0x00\n        /* \"#utility.yul\":2494:2533   */\n      tag_113\n        /* \"#utility.yul\":2527:2532   */\n      dup3\n        /* \"#utility.yul\":2494:2533   */\n      tag_114\n      jump\t// in\n    tag_113:\n        /* \"#utility.yul\":2549:2620   */\n      tag_115\n        /* \"#utility.yul\":2613:2619   */\n      dup2\n        /* \"#utility.yul\":2608:2611   */\n      dup6\n        /* \"#utility.yul\":2549:2620   */\n      tag_116\n      jump\t// in\n    tag_115:\n        /* \"#utility.yul\":2542:2620   */\n      swap4\n      pop\n        /* \"#utility.yul\":2629:2681   */\n      tag_117\n        /* \"#utility.yul\":2674:2680   */\n      dup2\n        /* \"#utility.yul\":2669:2672   */\n      dup6\n        /* \"#utility.yul\":2662:2666   */\n      0x20\n        /* \"#utility.yul\":2655:2660   */\n      dup7\n        /* \"#utility.yul\":2651:2667   */\n      add\n        /* \"#utility.yul\":2629:2681   */\n      tag_118\n      jump\t// in\n    tag_117:\n        /* \"#utility.yul\":2706:2735   */\n      tag_119\n        /* \"#utility.yul\":2728:2734   */\n      dup2\n        /* \"#utility.yul\":2706:2735   */\n      tag_120\n      jump\t// in\n    tag_119:\n        /* \"#utility.yul\":2701:2704   */\n      dup5\n        /* \"#utility.yul\":2697:2736   */\n      add\n        /* \"#utility.yul\":2690:2736   */\n      swap2\n      pop\n        /* \"#utility.yul\":2470:2742   */\n      pop\n        /* \"#utility.yul\":2378:2742   */\n      swap3\n      swap2\n      pop\n      pop\n      jump\t// out\n        /* \"#utility.yul\":2748:2866   */\n    tag_121:\n        /* \"#utility.yul\":2835:2859   */\n      tag_123\n        /* \"#utility.yul\":2853:2858   */\n      dup2\n        /* \"#utility.yul\":2835:2859   */\n      tag_124\n      jump\t// in\n    tag_123:\n        /* \"#utility.yul\":2830:2833   */\n      dup3\n        /* \"#utility.yul\":2823:2860   */\n      mstore\n        /* \"#utility.yul\":2748:2866   */\n      pop\n      pop\n      jump\t// out\n        /* \"#utility.yul\":2872:3730   */\n    tag_29:\n        /* \"#utility.yul\":3123:3127   */\n      0x00\n        /* \"#utility.yul\":3161:3164   */\n      0xa0\n        /* \"#utility.yul\":3150:3159   */\n      dup3\n        /* \"#utility.yul\":3146:3165   */\n      add\n        /* \"#utility.yul\":3138:3165   */\n      swap1\n      pop\n        /* \"#utility.yul\":3175:3246   */\n      tag_126\n        /* \"#utility.yul\":3243:3244   */\n      0x00\n        /* \"#utility.yul\":3232:3241   */\n      dup4\n        /* \"#utility.yul\":3228:3245   */\n      add\n        /* \"#utility.yul\":3219:3225   */\n      dup9\n        /* \"#utility.yul\":3175:3246   */\n      tag_103\n      jump\t// in\n    tag_126:\n        /* \"#utility.yul\":3256:3334   */\n      tag_127\n        /* \"#utility.yul\":3330:3332   */\n      0x20\n        /* \"#utility.yul\":3319:3328   */\n      dup4\n        /* \"#utility.yul\":3315:3333   */\n      add\n        /* \"#utility.yul\":3306:3312   */\n      dup8\n        /* \"#utility.yul\":3256:3334   */\n      tag_107\n      jump\t// in\n    tag_127:\n        /* \"#utility.yul\":3381:3390   */\n      dup2\n        /* \"#utility.yul\":3375:3379   */\n      dup2\n        /* \"#utility.yul\":3371:3391   */\n      sub\n        /* \"#utility.yul\":3366:3368   */\n      0x40\n        /* \"#utility.yul\":3355:3364   */\n      dup4\n        /* \"#utility.yul\":3351:3369   */\n      add\n        /* \"#utility.yul\":3344:3392   */\n      mstore\n        /* \"#utility.yul\":3409:3487   */\n      tag_128\n        /* \"#utility.yul\":3482:3486   */\n      dup2\n        /* \"#utility.yul\":3473:3479   */\n      dup7\n        /* \"#utility.yul\":3409:3487   */\n      tag_111\n      jump\t// in\n    tag_128:\n        /* \"#utility.yul\":3401:3487   */\n      swap1\n      pop\n        /* \"#utility.yul\":3534:3543   */\n      dup2\n        /* \"#utility.yul\":3528:3532   */\n      dup2\n        /* \"#utility.yul\":3524:3544   */\n      sub\n        /* \"#utility.yul\":3519:3521   */\n      0x60\n        /* \"#utility.yul\":3508:3517   */\n      dup4\n        /* \"#utility.yul\":3504:3522   */\n      add\n        /* \"#utility.yul\":3497:3545   */\n      mstore\n        /* \"#utility.yul\":3562:3640   */\n      tag_129\n        /* \"#utility.yul\":3635:3639   */\n      dup2\n        /* \"#utility.yul\":3626:3632   */\n      dup6\n        /* \"#utility.yul\":3562:3640   */\n      tag_111\n      jump\t// in\n    tag_129:\n        /* \"#utility.yul\":3554:3640   */\n      swap1\n      pop\n        /* \"#utility.yul\":3650:3723   */\n      tag_130\n        /* \"#utility.yul\":3718:3721   */\n      0x80\n        /* \"#utility.yul\":3707:3716   */\n      dup4\n        /* \"#utility.yul\":3703:3722   */\n      add\n        /* \"#utility.yul\":3694:3700   */\n      dup5\n        /* \"#utility.yul\":3650:3723   */\n      tag_121\n      jump\t// in\n    tag_130:\n        /* \"#utility.yul\":2872:3730   */\n      swap7\n      swap6\n      pop\n      pop\n      pop\n      pop\n      pop\n      pop\n      jump\t// out\n        /* \"#utility.yul\":3736:3970   */\n    tag_17:\n        /* \"#utility.yul\":3835:3839   */\n      0x00\n        /* \"#utility.yul\":3873:3875   */\n      0x20\n        /* \"#utility.yul\":3862:3871   */\n      dup3\n        /* \"#utility.yul\":3858:3876   */\n      add\n        /* \"#utility.yul\":3850:3876   */\n      swap1\n      pop\n        /* \"#utility.yul\":3886:3963   */\n      tag_132\n        /* \"#utility.yul\":3960:3961   */\n      0x00\n        /* \"#utility.yul\":3949:3958   */\n      dup4\n        /* \"#utility.yul\":3945:3962   */\n      add\n        /* \"#utility.yul\":3936:3942   */\n      dup5\n        /* \"#utility.yul\":3886:3963   */\n      tag_107\n      jump\t// in\n    tag_132:\n        /* \"#utility.yul\":3736:3970   */\n      swap3\n      swap2\n      pop\n      pop\n      jump\t// out\n        /* \"#utility.yul\":3976:4198   */\n    tag_11:\n        /* \"#utility.yul\":4069:4073   */\n      0x00\n        /* \"#utility.yul\":4107:4109   */\n      0x20\n        /* \"#utility.yul\":4096:4105   */\n      dup3\n        /* \"#utility.yul\":4092:4110   */\n      add\n        /* \"#utility.yul\":4084:4110   */\n      swap1\n      pop\n        /* \"#utility.yul\":4120:4191   */\n      tag_134\n        /* \"#utility.yul\":4188:4189   */\n      0x00\n        /* \"#utility.yul\":4177:4186   */\n      dup4\n        /* \"#utility.yul\":4173:4190   */\n      add\n        /* \"#utility.yul\":4164:4170   */\n      dup5\n        /* \"#utility.yul\":4120:4191   */\n      tag_121\n      jump\t// in\n    tag_134:\n        /* \"#utility.yul\":3976:4198   */\n      swap3\n      swap2\n      pop\n      pop\n      jump\t// out\n        /* \"#utility.yul\":4204:4333   */\n    tag_72:\n        /* \"#utility.yul\":4238:4244   */\n      0x00\n        /* \"#utility.yul\":4265:4285   */\n      tag_136\n      tag_137\n      jump\t// in\n    tag_136:\n        /* \"#utility.yul\":4255:4285   */\n      swap1\n      pop\n        /* \"#utility.yul\":4294:4327   */\n      tag_138\n        /* \"#utility.yul\":4322:4326   */\n      dup3\n        /* \"#utility.yul\":4314:4320   */\n      dup3\n        /* \"#utility.yul\":4294:4327   */\n      tag_139\n      jump\t// in\n    tag_138:\n        /* \"#utility.yul\":4204:4333   */\n      swap2\n      swap1\n      pop\n      jump\t// out\n        /* \"#utility.yul\":4339:4414   */\n    tag_137:\n        /* \"#utility.yul\":4372:4378   */\n      0x00\n        /* \"#utility.yul\":4405:4407   */\n      0x40\n        /* \"#utility.yul\":4399:4408   */\n      mload\n        /* \"#utility.yul\":4389:4408   */\n      swap1\n      pop\n        /* \"#utility.yul\":4339:4414   */\n      swap1\n      jump\t// out\n        /* \"#utility.yul\":4420:4728   */\n    tag_71:\n        /* \"#utility.yul\":4482:4486   */\n      0x00\n        /* \"#utility.yul\":4572:4590   */\n      0xffffffffffffffff\n        /* \"#utility.yul\":4564:4570   */\n      dup3\n        /* \"#utility.yul\":4561:4591   */\n      gt\n        /* \"#utility.yul\":4558:4614   */\n      iszero\n      tag_142\n      jumpi\n        /* \"#utility.yul\":4594:4612   */\n      tag_143\n      tag_144\n      jump\t// in\n    tag_143:\n        /* \"#utility.yul\":4558:4614   */\n    tag_142:\n        /* \"#utility.yul\":4632:4661   */\n      tag_145\n        /* \"#utility.yul\":4654:4660   */\n      dup3\n        /* \"#utility.yul\":4632:4661   */\n      tag_120\n      jump\t// in\n    tag_145:\n        /* \"#utility.yul\":4624:4661   */\n      swap1\n      pop\n        /* \"#utility.yul\":4716:4720   */\n      0x20\n        /* \"#utility.yul\":4710:4714   */\n      dup2\n        /* \"#utility.yul\":4706:4721   */\n      add\n        /* \"#utility.yul\":4698:4721   */\n      swap1\n      pop\n        /* \"#utility.yul\":4420:4728   */\n      swap2\n      swap1\n      pop\n      jump\t// out\n        /* \"#utility.yul\":4734:4833   */\n    tag_114:\n        /* \"#utility.yul\":4786:4792   */\n      0x00\n        /* \"#utility.yul\":4820:4825   */\n      dup2\n        /* \"#utility.yul\":4814:4826   */\n      mload\n        /* \"#utility.yul\":4804:4826   */\n      swap1\n      pop\n        /* \"#utility.yul\":4734:4833   */\n      swap2\n      swap1\n      pop\n      jump\t// out\n        /* \"#utility.yul\":4839:5008   */\n    tag_116:\n        /* \"#utility.yul\":4923:4934   */\n      0x00\n        /* \"#utility.yul\":4957:4963   */\n      dup3\n        /* \"#utility.yul\":4952:4955   */\n      dup3\n        /* \"#utility.yul\":4945:4964   */\n      mstore\n        /* \"#utility.yul\":4997:5001   */\n      0x20\n        /* \"#utility.yul\":4992:4995   */\n      dup3\n        /* \"#utility.yul\":4988:5002   */\n      add\n        /* \"#utility.yul\":4973:5002   */\n      swap1\n      pop\n        /* \"#utility.yul\":4839:5008   */\n      swap3\n      swap2\n      pop\n      pop\n      jump\t// out\n        /* \"#utility.yul\":5014:5319   */\n    tag_41:\n        /* \"#utility.yul\":5054:5057   */\n      0x00\n        /* \"#utility.yul\":5073:5093   */\n      tag_149\n        /* \"#utility.yul\":5091:5092   */\n      dup3\n        /* \"#utility.yul\":5073:5093   */\n      tag_124\n      jump\t// in\n    tag_149:\n        /* \"#utility.yul\":5068:5093   */\n      swap2\n      pop\n        /* \"#utility.yul\":5107:5127   */\n      tag_150\n        /* \"#utility.yul\":5125:5126   */\n      dup4\n        /* \"#utility.yul\":5107:5127   */\n      tag_124\n      jump\t// in\n    tag_150:\n        /* \"#utility.yul\":5102:5127   */\n      swap3\n      pop\n        /* \"#utility.yul\":5261:5262   */\n      dup3\n        /* \"#utility.yul\":5193:5259   */\n      0xffffffffffffffffffffffffffffffffffffffffffffffffffffffffffffffff\n        /* \"#utility.yul\":5189:5263   */\n      sub\n        /* \"#utility.yul\":5186:5187   */\n      dup3\n        /* \"#utility.yul\":5183:5264   */\n      gt\n        /* \"#utility.yul\":5180:5287   */\n      iszero\n      tag_151\n      jumpi\n        /* \"#utility.yul\":5267:5285   */\n      tag_152\n      tag_153\n      jump\t// in\n    tag_152:\n        /* \"#utility.yul\":5180:5287   */\n    tag_151:\n        /* \"#utility.yul\":5311:5312   */\n      dup3\n        /* \"#utility.yul\":5308:5309   */\n      dup3\n        /* \"#utility.yul\":5304:5313   */\n      add\n        /* \"#utility.yul\":5297:5313   */\n      swap1\n      pop\n        /* \"#utility.yul\":5014:5319   */\n      swap3\n      swap2\n      pop\n      pop\n      jump\t// out\n        /* \"#utility.yul\":5325:5421   */\n    tag_106:\n        /* \"#utility.yul\":5362:5369   */\n      0x00\n        /* \"#utility.yul\":5391:5415   */\n      tag_155\n        /* \"#utility.yul\":5409:5414   */\n      dup3\n        /* \"#utility.yul\":5391:5415   */\n      tag_156\n      jump\t// in\n    tag_155:\n        /* \"#utility.yul\":5380:5415   */\n      swap1\n      pop\n        /* \"#utility.yul\":5325:5421   */\n      swap2\n      swap1\n      pop\n      jump\t// out\n        /* \"#utility.yul\":5427:5554   */\n    tag_157:\n        /* \"#utility.yul\":5472:5479   */\n      0x00\n        /* \"#utility.yul\":5501:5506   */\n      dup2\n        /* \"#utility.yul\":5490:5506   */\n      swap1\n      pop\n        /* \"#utility.yul\":5507:5548   */\n      tag_159\n        /* \"#utility.yul\":5542:5547   */\n      dup3\n        /* \"#utility.yul\":5507:5548   */\n      tag_160\n      jump\t// in\n    tag_159:\n        /* \"#utility.yul\":5427:5554   */\n      swap2\n      swap1\n      pop\n      jump\t// out\n        /* \"#utility.yul\":5560:5686   */\n    tag_156:\n        /* \"#utility.yul\":5597:5604   */\n      0x00\n        /* \"#utility.yul\":5637:5679   */\n      0xffffffffffffffffffffffffffffffffffffffff\n        /* \"#utility.yul\":5630:5635   */\n      dup3\n        /* \"#utility.yul\":5626:5680   */\n      and\n        /* \"#utility.yul\":5615:5680   */\n      swap1\n      pop\n        /* \"#utility.yul\":5560:5686   */\n      swap2\n      swap1\n      pop\n      jump\t// out\n        /* \"#utility.yul\":5692:5769   */\n    tag_124:\n        /* \"#utility.yul\":5729:5736   */\n      0x00\n        /* \"#utility.yul\":5758:5763   */\n      dup2\n        /* \"#utility.yul\":5747:5763   */\n      swap1\n      pop\n        /* \"#utility.yul\":5692:5769   */\n      swap2\n      swap1\n      pop\n      jump\t// out\n        /* \"#utility.yul\":5775:5902   */\n    tag_110:\n        /* \"#utility.yul\":5831:5840   */\n      0x00\n        /* \"#utility.yul\":5864:5896   */\n      tag_164\n        /* \"#utility.yul\":5890:5895   */\n      dup3\n        /* \"#utility.yul\":5864:5896   */\n      tag_157\n      jump\t// in\n    tag_164:\n        /* \"#utility.yul\":5851:5896   */\n      swap1\n      pop\n        /* \"#utility.yul\":5775:5902   */\n      swap2\n      swap1\n      pop\n      jump\t// out\n        /* \"#utility.yul\":5908:6062   */\n    tag_77:\n        /* \"#utility.yul\":5992:5998   */\n      dup3\n        /* \"#utility.yul\":5987:5990   */\n      dup2\n        /* \"#utility.yul\":5982:5985   */\n      dup4\n        /* \"#utility.yul\":5969:5999   */\n      calldatacopy\n        /* \"#utility.yul\":6054:6055   */\n      0x00\n        /* \"#utility.yul\":6045:6051   */\n      dup4\n        /* \"#utility.yul\":6040:6043   */\n      dup4\n        /* \"#utility.yul\":6036:6052   */\n      add\n        /* \"#utility.yul\":6029:6056   */\n      mstore\n        /* \"#utility.yul\":5908:6062   */\n      pop\n      pop\n      pop\n      jump\t// out\n        /* \"#utility.yul\":6068:6375   */\n    tag_118:\n        /* \"#utility.yul\":6136:6137   */\n      0x00\n        /* \"#utility.yul\":6146:6259   */\n    tag_167:\n        /* \"#utility.yul\":6160:6166   */\n      dup4\n        /* \"#utility.yul\":6157:6158   */\n      dup2\n        /* \"#utility.yul\":6154:6167   */\n      lt\n        /* \"#utility.yul\":6146:6259   */\n      iszero\n      tag_169\n      jumpi\n        /* \"#utility.yul\":6245:6246   */\n      dup1\n        /* \"#utility.yul\":6240:6243   */\n      dup3\n        /* \"#utility.yul\":6236:6247   */\n      add\n        /* \"#utility.yul\":6230:6248   */\n      mload\n        /* \"#utility.yul\":6226:6227   */\n      dup2\n        /* \"#utility.yul\":6221:6224   */\n      dup5\n        /* \"#utility.yul\":6217:6228   */\n      add\n        /* \"#utility.yul\":6210:6249   */\n      mstore\n        /* \"#utility.yul\":6182:6184   */\n      0x20\n        /* \"#utility.yul\":6179:6180   */\n      dup2\n        /* \"#utility.yul\":6175:6185   */\n      add\n        /* \"#utility.yul\":6170:6185   */\n      swap1\n      pop\n        /* \"#utility.yul\":6146:6259   */\n      jump(tag_167)\n    tag_169:\n        /* \"#utility.yul\":6277:6283   */\n      dup4\n        /* \"#utility.yul\":6274:6275   */\n      dup2\n        /* \"#utility.yul\":6271:6284   */\n      gt\n        /* \"#utility.yul\":6268:6369   */\n      iszero\n      tag_170\n      jumpi\n        /* \"#utility.yul\":6357:6358   */\n      0x00\n        /* \"#utility.yul\":6348:6354   */\n      dup5\n        /* \"#utility.yul\":6343:6346   */\n      dup5\n        /* \"#utility.yul\":6339:6355   */\n      add\n        /* \"#utility.yul\":6332:6359   */\n      mstore\n        /* \"#utility.yul\":6268:6369   */\n    tag_170:\n        /* \"#utility.yul\":6117:6375   */\n      pop\n        /* \"#utility.yul\":6068:6375   */\n      pop\n      pop\n      pop\n      jump\t// out\n        /* \"#utility.yul\":6381:6701   */\n    tag_46:\n        /* \"#utility.yul\":6425:6431   */\n      0x00\n        /* \"#utility.yul\":6462:6463   */\n      0x02\n        /* \"#utility.yul\":6456:6460   */\n      dup3\n        /* \"#utility.yul\":6452:6464   */\n      div\n        /* \"#utility.yul\":6442:6464   */\n      swap1\n      pop\n        /* \"#utility.yul\":6509:6510   */\n      0x01\n        /* \"#utility.yul\":6503:6507   */\n      dup3\n        /* \"#utility.yul\":6499:6511   */\n      and\n        /* \"#utility.yul\":6530:6548   */\n      dup1\n        /* \"#utility.yul\":6520:6601   */\n      tag_172\n      jumpi\n        /* \"#utility.yul\":6586:6590   */\n      0x7f\n        /* \"#utility.yul\":6578:6584   */\n      dup3\n        /* \"#utility.yul\":6574:6591   */\n      and\n        /* \"#utility.yul\":6564:6591   */\n      swap2\n      pop\n        /* \"#utility.yul\":6520:6601   */\n    tag_172:\n        /* \"#utility.yul\":6648:6650   */\n      0x20\n        /* \"#utility.yul\":6640:6646   */\n      dup3\n        /* \"#utility.yul\":6637:6651   */\n      lt\n        /* \"#utility.yul\":6617:6635   */\n      dup2\n        /* \"#utility.yul\":6614:6652   */\n      eq\n        /* \"#utility.yul\":6611:6695   */\n      iszero\n      tag_173\n      jumpi\n        /* \"#utility.yul\":6667:6685   */\n      tag_174\n      tag_175\n      jump\t// in\n    tag_174:\n        /* \"#utility.yul\":6611:6695   */\n    tag_173:\n        /* \"#utility.yul\":6432:6701   */\n      pop\n        /* \"#utility.yul\":6381:6701   */\n      swap2\n      swap1\n      pop\n      jump\t// out\n        /* \"#utility.yul\":6707:6988   */\n    tag_139:\n        /* \"#utility.yul\":6790:6817   */\n      tag_177\n        /* \"#utility.yul\":6812:6816   */\n      dup3\n        /* \"#utility.yul\":6790:6817   */\n      tag_120\n      jump\t// in\n    tag_177:\n        /* \"#utility.yul\":6782:6788   */\n      dup2\n        /* \"#utility.yul\":6778:6818   */\n      add\n        /* \"#utility.yul\":6920:6926   */\n      dup2\n        /* \"#utility.yul\":6908:6918   */\n      dup2\n        /* \"#utility.yul\":6905:6927   */\n      lt\n        /* \"#utility.yul\":6884:6902   */\n      0xffffffffffffffff\n        /* \"#utility.yul\":6872:6882   */\n      dup3\n        /* \"#utility.yul\":6869:6903   */\n      gt\n        /* \"#utility.yul\":6866:6928   */\n      or\n        /* \"#utility.yul\":6863:6951   */\n      iszero\n      tag_178\n      jumpi\n        /* \"#utility.yul\":6931:6949   */\n      tag_179\n      tag_144\n      jump\t// in\n    tag_179:\n        /* \"#utility.yul\":6863:6951   */\n    tag_178:\n        /* \"#utility.yul\":6971:6981   */\n      dup1\n        /* \"#utility.yul\":6967:6969   */\n      0x40\n        /* \"#utility.yul\":6960:6982   */\n      mstore\n        /* \"#utility.yul\":6750:6988   */\n      pop\n        /* \"#utility.yul\":6707:6988   */\n      pop\n      pop\n      jump\t// out\n        /* \"#utility.yul\":6994:7174   */\n    tag_153:\n        /* \"#utility.yul\":7042:7119   */\n      0x4e487b7100000000000000000000000000000000000000000000000000000000\n        /* \"#utility.yul\":7039:7040   */\n      0x00\n        /* \"#utility.yul\":7032:7120   */\n      mstore\n        /* \"#utility.yul\":7139:7143   */\n      0x11\n        /* \"#utility.yul\":7136:7137   */\n      0x04\n        /* \"#utility.yul\":7129:7144   */\n      mstore\n        /* \"#utility.yul\":7163:7167   */\n      0x24\n        /* \"#utility.yul\":7160:7161   */\n      0x00\n        /* \"#utility.yul\":7153:7168   */\n      revert\n        /* \"#utility.yul\":7180:7360   */\n    tag_34:\n        /* \"#utility.yul\":7228:7305   */\n      0x4e487b7100000000000000000000000000000000000000000000000000000000\n        /* \"#utility.yul\":7225:7226   */\n      0x00\n        /* \"#utility.yul\":7218:7306   */\n      mstore\n        /* \"#utility.yul\":7325:7329   */\n      0x21\n        /* \"#utility.yul\":7322:7323   */\n      0x04\n        /* \"#utility.yul\":7315:7330   */\n      mstore\n        /* \"#utility.yul\":7349:7353   */\n      0x24\n        /* \"#utility.yul\":7346:7347   */\n      0x00\n        /* \"#utility.yul\":7339:7354   */\n      revert\n        /* \"#utility.yul\":7366:7546   */\n    tag_175:\n        /* \"#utility.yul\":7414:7491   */\n      0x4e487b7100000000000000000000000000000000000000000000000000000000\n        /* \"#utility.yul\":7411:7412   */\n      0x00\n        /* \"#utility.yul\":7404:7492   */\n      mstore\n        /* \"#utility.yul\":7511:7515   */\n      0x22\n        /* \"#utility.yul\":7508:7509   */\n      0x04\n        /* \"#utility.yul\":7501:7516   */\n      mstore\n        /* \"#utility.yul\":7535:7539   */\n      0x24\n        /* \"#utility.yul\":7532:7533   */\n      0x00\n        /* \"#utility.yul\":7525:7540   */\n      revert\n        /* \"#utility.yul\":7552:7732   */\n    tag_144:\n        /* \"#utility.yul\":7600:7677   */\n      0x4e487b7100000000000000000000000000000000000000000000000000000000\n        /* \"#utility.yul\":7597:7598   */\n      0x00\n        /* \"#utility.yul\":7590:7678   */\n      mstore\n        /* \"#utility.yul\":7697:7701   */\n      0x41\n        /* \"#utility.yul\":7694:7695   */\n      0x04\n        /* \"#utility.yul\":7687:7702   */\n      mstore\n        /* \"#utility.yul\":7721:7725   */\n      0x24\n        /* \"#utility.yul\":7718:7719   */\n      0x00\n        /* \"#utility.yul\":7711:7726   */\n      revert\n        /* \"#utility.yul\":7738:7855   */\n    tag_86:\n        /* \"#utility.yul\":7847:7848   */\n      0x00\n        /* \"#utility.yul\":7844:7845   */\n      dup1\n        /* \"#utility.yul\":7837:7849   */\n      revert\n        /* \"#utility.yul\":7861:7978   */\n    tag_75:\n        /* \"#utility.yul\":7970:7971   */\n      0x00\n        /* \"#utility.yul\":7967:7968   */\n      dup1\n        /* \"#utility.yul\":7960:7972   */\n      revert\n        /* \"#utility.yul\":7984:8101   */\n    tag_98:\n        /* \"#utility.yul\":8093:8094   */\n      0x00\n        /* \"#utility.yul\":8090:8091   */\n      dup1\n        /* \"#utility.yul\":8083:8095   */\n      revert\n        /* \"#utility.yul\":8107:8224   */\n    tag_91:\n        /* \"#utility.yul\":8216:8217   */\n      0x00\n        /* \"#utility.yul\":8213:8214   */\n      dup1\n        /* \"#utility.yul\":8206:8218   */\n      revert\n        /* \"#utility.yul\":8230:8332   */\n    tag_120:\n        /* \"#utility.yul\":8271:8277   */\n      0x00\n        /* \"#utility.yul\":8322:8324   */\n      0x1f\n        /* \"#utility.yul\":8318:8325   */\n      not\n        /* \"#utility.yul\":8313:8315   */\n      0x1f\n        /* \"#utility.yul\":8306:8311   */\n      dup4\n        /* \"#utility.yul\":8302:8316   */\n      add\n        /* \"#utility.yul\":8298:8326   */\n      and\n        /* \"#utility.yul\":8288:8326   */\n      swap1\n      pop\n        /* \"#utility.yul\":8230:8332   */\n      swap2\n      swap1\n      pop\n      jump\t// out\n        /* \"#utility.yul\":8338:8451   */\n    tag_160:\n        /* \"#utility.yul\":8419:8420   */\n      0x03\n        /* \"#utility.yul\":8412:8417   */\n      dup2\n        /* \"#utility.yul\":8409:8421   */\n      lt\n        /* \"#utility.yul\":8399:8445   */\n      tag_190\n      jumpi\n        /* \"#utility.yul\":8425:8443   */\n      tag_191\n      tag_34\n      jump\t// in\n    tag_191:\n        /* \"#utility.yul\":8399:8445   */\n    tag_190:\n        /* \"#utility.yul\":8338:8451   */\n      pop\n      jump\t// out\n        /* \"#utility.yul\":8457:8579   */\n    tag_81:\n        /* \"#utility.yul\":8530:8554   */\n      tag_193\n        /* \"#utility.yul\":8548:8553   */\n      dup2\n        /* \"#utility.yul\":8530:8554   */\n      tag_106\n      jump\t// in\n    tag_193:\n        /* \"#utility.yul\":8523:8528   */\n      dup2\n        /* \"#utility.yul\":8520:8555   */\n      eq\n        /* \"#utility.yul\":8510:8573   */\n      tag_194\n      jumpi\n        /* \"#utility.yul\":8569:8570   */\n      0x00\n        /* \"#utility.yul\":8566:8567   */\n      dup1\n        /* \"#utility.yul\":8559:8571   */\n      revert\n        /* \"#utility.yul\":8510:8573   */\n    tag_194:\n        /* \"#utility.yul\":8457:8579   */\n      pop\n      jump\t// out\n\n    auxdata: 0xa2646970667358221220e8aa071b8efed708176d7a660e0693452c69735c01b85784d88afeb6e53ae10c64736f6c63430008070033\n}\n",
				"bytecode": {
					"linkReferences": {},
					"object": "60806040526000805534801561001457600080fd5b50610a8a806100246000396000f3fe608060405234801561001057600080fd5b50600436106100575760003560e01c8063302bcc571461005c57806334b735a11461007a5780635cb119a9146100aa5780638ddf0f7d146100c6578063e2eb41ff146100e2575b600080fd5b610064610116565b604051610071919061075f565b60405180910390f35b610094600480360381019061008f91906105d8565b61011c565b6040516100a19190610744565b60405180910390f35b6100c460048036038101906100bf9190610605565b61017a565b005b6100e060048036038101906100db91906105d8565b6102e4565b005b6100fc60048036038101906100f791906105d8565b61033d565b60405161010d9594939291906106e3565b60405180910390f35b60005481565b600080600160008473ffffffffffffffffffffffffffffffffffffffff1673ffffffffffffffffffffffffffffffffffffffff16815260200190815260200160002090508060000160149054906101000a900460ff16915050919050565b6040518060a001604052803373ffffffffffffffffffffffffffffffffffffffff168152602001600060028111156101b5576101b4610977565b5b815260200183815260200182815260200142815250600160003373ffffffffffffffffffffffffffffffffffffffff1673ffffffffffffffffffffffffffffffffffffffff16815260200190815260200160002060008201518160000160006101000a81548173ffffffffffffffffffffffffffffffffffffffff021916908373ffffffffffffffffffffffffffffffffffffffff16021790555060208201518160000160146101000a81548160ff0219169083600281111561027b5761027a610977565b5b0217905550604082015181600101908051906020019061029c9291906104b0565b5060608201518160020190805190602001906102b99291906104b0565b506080820151816003015590505060016000808282546102d991906107ec565b925050819055505050565b6000600160008373ffffffffffffffffffffffffffffffffffffffff1673ffffffffffffffffffffffffffffffffffffffff16815260200190815260200160002090506014816003015461033891906107ec565b505050565b60016020528060005260406000206000915090508060000160009054906101000a900473ffffffffffffffffffffffffffffffffffffffff16908060000160149054906101000a900460ff1690806001018054610399906108e5565b80601f01602080910402602001604051908101604052809291908181526020018280546103c5906108e5565b80156104125780601f106103e757610100808354040283529160200191610412565b820191906000526020600020905b8154815290600101906020018083116103f557829003601f168201915b505050505090806002018054610427906108e5565b80601f0160208091040260200160405190810160405280929190818152602001828054610453906108e5565b80156104a05780601f10610475576101008083540402835291602001916104a0565b820191906000526020600020905b81548152906001019060200180831161048357829003601f168201915b5050505050908060030154905085565b8280546104bc906108e5565b90600052602060002090601f0160209004810192826104de5760008555610525565b82601f106104f757805160ff1916838001178555610525565b82800160010185558215610525579182015b82811115610524578251825591602001919060010190610509565b5b5090506105329190610536565b5090565b5b8082111561054f576000816000905550600101610537565b5090565b60006105666105618461079f565b61077a565b90508281526020810184848401111561058257610581610a09565b5b61058d8482856108a3565b509392505050565b6000813590506105a481610a3d565b92915050565b600082601f8301126105bf576105be610a04565b5b81356105cf848260208601610553565b91505092915050565b6000602082840312156105ee576105ed610a13565b5b60006105fc84828501610595565b91505092915050565b6000806040838503121561061c5761061b610a13565b5b600083013567ffffffffffffffff81111561063a57610639610a0e565b5b610646858286016105aa565b925050602083013567ffffffffffffffff81111561066757610666610a0e565b5b610673858286016105aa565b9150509250929050565b61068681610842565b82525050565b61069581610891565b82525050565b60006106a6826107d0565b6106b081856107db565b93506106c08185602086016108b2565b6106c981610a18565b840191505092915050565b6106dd81610887565b82525050565b600060a0820190506106f8600083018861067d565b610705602083018761068c565b8181036040830152610717818661069b565b9050818103606083015261072b818561069b565b905061073a60808301846106d4565b9695505050505050565b6000602082019050610759600083018461068c565b92915050565b600060208201905061077460008301846106d4565b92915050565b6000610784610795565b90506107908282610917565b919050565b6000604051905090565b600067ffffffffffffffff8211156107ba576107b96109d5565b5b6107c382610a18565b9050602081019050919050565b600081519050919050565b600082825260208201905092915050565b60006107f782610887565b915061080283610887565b9250827fffffffffffffffffffffffffffffffffffffffffffffffffffffffffffffffff0382111561083757610836610948565b5b828201905092915050565b600061084d82610867565b9050919050565b600081905061086282610a29565b919050565b600073ffffffffffffffffffffffffffffffffffffffff82169050919050565b6000819050919050565b600061089c82610854565b9050919050565b82818337600083830152505050565b60005b838110156108d05780820151818401526020810190506108b5565b838111156108df576000848401525b50505050565b600060028204905060018216806108fd57607f821691505b60208210811415610911576109106109a6565b5b50919050565b61092082610a18565b810181811067ffffffffffffffff8211171561093f5761093e6109d5565b5b80604052505050565b7f4e487b7100000000000000000000000000000000000000000000000000000000600052601160045260246000fd5b7f4e487b7100000000000000000000000000000000000000000000000000000000600052602160045260246000fd5b7f4e487b7100000000000000000000000000000000000000000000000000000000600052602260045260246000fd5b7f4e487b7100000000000000000000000000000000000000000000000000000000600052604160045260246000fd5b600080fd5b600080fd5b600080fd5b600080fd5b6000601f19601f8301169050919050565b60038110610a3a57610a39610977565b5b50565b610a4681610842565b8114610a5157600080fd5b5056fea2646970667358221220e8aa071b8efed708176d7a660e0693452c69735c01b85784d88afeb6e53ae10c64736f6c63430008070033",
					"opcodes": "PUSH1 0x80 PUSH1 0x40 MSTORE PUSH1 0x0 DUP1 SSTORE CALLVALUE DUP1 ISZERO PUSH2 0x14 JUMPI PUSH1 0x0 DUP1 REVERT JUMPDEST POP PUSH2 0xA8A DUP1 PUSH2 0x24 PUSH1 0x0 CODECOPY PUSH1 0x0 RETURN INVALID PUSH1 0x80 PUSH1 0x40 MSTORE CALLVALUE DUP1 ISZERO PUSH2 0x10 JUMPI PUSH1 0x0 DUP1 REVERT JUMPDEST POP PUSH1 0x4 CALLDATASIZE LT PUSH2 0x57 JUMPI PUSH1 0x0 CALLDATALOAD PUSH1 0xE0 SHR DUP1 PUSH4 0x302BCC57 EQ PUSH2 0x5C JUMPI DUP1 PUSH4 0x34B735A1 EQ PUSH2 0x7A JUMPI DUP1 PUSH4 0x5CB119A9 EQ PUSH2 0xAA JUMPI DUP1 PUSH4 0x8DDF0F7D EQ PUSH2 0xC6 JUMPI DUP1 PUSH4 0xE2EB41FF EQ PUSH2 0xE2 JUMPI JUMPDEST PUSH1 0x0 DUP1 REVERT JUMPDEST PUSH2 0x64 PUSH2 0x116 JUMP JUMPDEST PUSH1 0x40 MLOAD PUSH2 0x71 SWAP2 SWAP1 PUSH2 0x75F JUMP JUMPDEST PUSH1 0x40 MLOAD DUP1 SWAP2 SUB SWAP1 RETURN JUMPDEST PUSH2 0x94 PUSH1 0x4 DUP1 CALLDATASIZE SUB DUP2 ADD SWAP1 PUSH2 0x8F SWAP2 SWAP1 PUSH2 0x5D8 JUMP JUMPDEST PUSH2 0x11C JUMP JUMPDEST PUSH1 0x40 MLOAD PUSH2 0xA1 SWAP2 SWAP1 PUSH2 0x744 JUMP JUMPDEST PUSH1 0x40 MLOAD DUP1 SWAP2 SUB SWAP1 RETURN JUMPDEST PUSH2 0xC4 PUSH1 0x4 DUP1 CALLDATASIZE SUB DUP2 ADD SWAP1 PUSH2 0xBF SWAP2 SWAP1 PUSH2 0x605 JUMP JUMPDEST PUSH2 0x17A JUMP JUMPDEST STOP JUMPDEST PUSH2 0xE0 PUSH1 0x4 DUP1 CALLDATASIZE SUB DUP2 ADD SWAP1 PUSH2 0xDB SWAP2 SWAP1 PUSH2 0x5D8 JUMP JUMPDEST PUSH2 0x2E4 JUMP JUMPDEST STOP JUMPDEST PUSH2 0xFC PUSH1 0x4 DUP1 CALLDATASIZE SUB DUP2 ADD SWAP1 PUSH2 0xF7 SWAP2 SWAP1 PUSH2 0x5D8 JUMP JUMPDEST PUSH2 0x33D JUMP JUMPDEST PUSH1 0x40 MLOAD PUSH2 0x10D SWAP6 SWAP5 SWAP4 SWAP3 SWAP2 SWAP1 PUSH2 0x6E3 JUMP JUMPDEST PUSH1 0x40 MLOAD DUP1 SWAP2 SUB SWAP1 RETURN JUMPDEST PUSH1 0x0 SLOAD DUP2 JUMP JUMPDEST PUSH1 0x0 DUP1 PUSH1 0x1 PUSH1 0x0 DUP5 PUSH20 0xFFFFFFFFFFFFFFFFFFFFFFFFFFFFFFFFFFFFFFFF AND PUSH20 0xFFFFFFFFFFFFFFFFFFFFFFFFFFFFFFFFFFFFFFFF AND DUP2 MSTORE PUSH1 0x20 ADD SWAP1 DUP2 MSTORE PUSH1 0x20 ADD PUSH1 0x0 KECCAK256 SWAP1 POP DUP1 PUSH1 0x0 ADD PUSH1 0x14 SWAP1 SLOAD SWAP1 PUSH2 0x100 EXP SWAP1 DIV PUSH1 0xFF AND SWAP2 POP POP SWAP2 SWAP1 POP JUMP JUMPDEST PUSH1 0x40 MLOAD DUP1 PUSH1 0xA0 ADD PUSH1 0x40 MSTORE DUP1 CALLER PUSH20 0xFFFFFFFFFFFFFFFFFFFFFFFFFFFFFFFFFFFFFFFF AND DUP2 MSTORE PUSH1 0x20 ADD PUSH1 0x0 PUSH1 0x2 DUP2 GT ISZERO PUSH2 0x1B5 JUMPI PUSH2 0x1B4 PUSH2 0x977 JUMP JUMPDEST JUMPDEST DUP2 MSTORE PUSH1 0x20 ADD DUP4 DUP2 MSTORE PUSH1 0x20 ADD DUP3 DUP2 MSTORE PUSH1 0x20 ADD TIMESTAMP DUP2 MSTORE POP PUSH1 0x1 PUSH1 0x0 CALLER PUSH20 0xFFFFFFFFFFFFFFFFFFFFFFFFFFFFFFFFFFFFFFFF AND PUSH20 0xFFFFFFFFFFFFFFFFFFFFFFFFFFFFFFFFFFFFFFFF AND DUP2 MSTORE PUSH1 0x20 ADD SWAP1 DUP2 MSTORE PUSH1 0x20 ADD PUSH1 0x0 KECCAK256 PUSH1 0x0 DUP3 ADD MLOAD DUP2 PUSH1 0x0 ADD PUSH1 0x0 PUSH2 0x100 EXP DUP2 SLOAD DUP2 PUSH20 0xFFFFFFFFFFFFFFFFFFFFFFFFFFFFFFFFFFFFFFFF MUL NOT AND SWAP1 DUP4 PUSH20 0xFFFFFFFFFFFFFFFFFFFFFFFFFFFFFFFFFFFFFFFF AND MUL OR SWAP1 SSTORE POP PUSH1 0x20 DUP3 ADD MLOAD DUP2 PUSH1 0x0 ADD PUSH1 0x14 PUSH2 0x100 EXP DUP2 SLOAD DUP2 PUSH1 0xFF MUL NOT AND SWAP1 DUP4 PUSH1 0x2 DUP2 GT ISZERO PUSH2 0x27B JUMPI PUSH2 0x27A PUSH2 0x977 JUMP JUMPDEST JUMPDEST MUL OR SWAP1 SSTORE POP PUSH1 0x40 DUP3 ADD MLOAD DUP2 PUSH1 0x1 ADD SWAP1 DUP1 MLOAD SWAP1 PUSH1 0x20 ADD SWAP1 PUSH2 0x29C SWAP3 SWAP2 SWAP1 PUSH2 0x4B0 JUMP JUMPDEST POP PUSH1 0x60 DUP3 ADD MLOAD DUP2 PUSH1 0x2 ADD SWAP1 DUP1 MLOAD SWAP1 PUSH1 0x20 ADD SWAP1 PUSH2 0x2B9 SWAP3 SWAP2 SWAP1 PUSH2 0x4B0 JUMP JUMPDEST POP PUSH1 0x80 DUP3 ADD MLOAD DUP2 PUSH1 0x3 ADD SSTORE SWAP1 POP POP PUSH1 0x1 PUSH1 0x0 DUP1 DUP3 DUP3 SLOAD PUSH2 0x2D9 SWAP2 SWAP1 PUSH2 0x7EC JUMP JUMPDEST SWAP3 POP POP DUP2 SWAP1 SSTORE POP POP POP JUMP JUMPDEST PUSH1 0x0 PUSH1 0x1 PUSH1 0x0 DUP4 PUSH20 0xFFFFFFFFFFFFFFFFFFFFFFFFFFFFFFFFFFFFFFFF AND PUSH20 0xFFFFFFFFFFFFFFFFFFFFFFFFFFFFFFFFFFFFFFFF AND DUP2 MSTORE PUSH1 0x20 ADD SWAP1 DUP2 MSTORE PUSH1 0x20 ADD PUSH1 0x0 KECCAK256 SWAP1 POP PUSH1 0x14 DUP2 PUSH1 0x3 ADD SLOAD PUSH2 0x338 SWAP2 SWAP1 PUSH2 0x7EC JUMP JUMPDEST POP POP POP JUMP JUMPDEST PUSH1 0x1 PUSH1 0x20 MSTORE DUP1 PUSH1 0x0 MSTORE PUSH1 0x40 PUSH1 0x0 KECCAK256 PUSH1 0x0 SWAP2 POP SWAP1 POP DUP1 PUSH1 0x0 ADD PUSH1 0x0 SWAP1 SLOAD SWAP1 PUSH2 0x100 EXP SWAP1 DIV PUSH20 0xFFFFFFFFFFFFFFFFFFFFFFFFFFFFFFFFFFFFFFFF AND SWAP1 DUP1 PUSH1 0x0 ADD PUSH1 0x14 SWAP1 SLOAD SWAP1 PUSH2 0x100 EXP SWAP1 DIV PUSH1 0xFF AND SWAP1 DUP1 PUSH1 0x1 ADD DUP1 SLOAD PUSH2 0x399 SWAP1 PUSH2 0x8E5 JUMP JUMPDEST DUP1 PUSH1 0x1F ADD PUSH1 0x20 DUP1 SWAP2 DIV MUL PUSH1 0x20 ADD PUSH1 0x40 MLOAD SWAP1 DUP2 ADD PUSH1 0x40 MSTORE DUP1 SWAP3 SWAP2 SWAP1 DUP2 DUP2 MSTORE PUSH1 0x20 ADD DUP3 DUP1 SLOAD PUSH2 0x3C5 SWAP1 PUSH2 0x8E5 JUMP JUMPDEST DUP1 ISZERO PUSH2 0x412 JUMPI DUP1 PUSH1 0x1F LT PUSH2 0x3E7 JUMPI PUSH2 0x100 DUP1 DUP4 SLOAD DIV MUL DUP4 MSTORE SWAP2 PUSH1 0x20 ADD SWAP2 PUSH2 0x412 JUMP JUMPDEST DUP3 ADD SWAP2 SWAP1 PUSH1 0x0 MSTORE PUSH1 0x20 PUSH1 0x0 KECCAK256 SWAP1 JUMPDEST DUP2 SLOAD DUP2 MSTORE SWAP1 PUSH1 0x1 ADD SWAP1 PUSH1 0x20 ADD DUP1 DUP4 GT PUSH2 0x3F5 JUMPI DUP3 SWAP1 SUB PUSH1 0x1F AND DUP3 ADD SWAP2 JUMPDEST POP POP POP POP POP SWAP1 DUP1 PUSH1 0x2 ADD DUP1 SLOAD PUSH2 0x427 SWAP1 PUSH2 0x8E5 JUMP JUMPDEST DUP1 PUSH1 0x1F ADD PUSH1 0x20 DUP1 SWAP2 DIV MUL PUSH1 0x20 ADD PUSH1 0x40 MLOAD SWAP1 DUP2 ADD PUSH1 0x40 MSTORE DUP1 SWAP3 SWAP2 SWAP1 DUP2 DUP2 MSTORE PUSH1 0x20 ADD DUP3 DUP1 SLOAD PUSH2 0x453 SWAP1 PUSH2 0x8E5 JUMP JUMPDEST DUP1 ISZERO PUSH2 0x4A0 JUMPI DUP1 PUSH1 0x1F LT PUSH2 0x475 JUMPI PUSH2 0x100 DUP1 DUP4 SLOAD DIV MUL DUP4 MSTORE SWAP2 PUSH1 0x20 ADD SWAP2 PUSH2 0x4A0 JUMP JUMPDEST DUP3 ADD SWAP2 SWAP1 PUSH1 0x0 MSTORE PUSH1 0x20 PUSH1 0x0 KECCAK256 SWAP1 JUMPDEST DUP2 SLOAD DUP2 MSTORE SWAP1 PUSH1 0x1 ADD SWAP1 PUSH1 0x20 ADD DUP1 DUP4 GT PUSH2 0x483 JUMPI DUP3 SWAP1 SUB PUSH1 0x1F AND DUP3 ADD SWAP2 JUMPDEST POP POP POP POP POP SWAP1 DUP1 PUSH1 0x3 ADD SLOAD SWAP1 POP DUP6 JUMP JUMPDEST DUP3 DUP1 SLOAD PUSH2 0x4BC SWAP1 PUSH2 0x8E5 JUMP JUMPDEST SWAP1 PUSH1 0x0 MSTORE PUSH1 0x20 PUSH1 0x0 KECCAK256 SWAP1 PUSH1 0x1F ADD PUSH1 0x20 SWAP1 DIV DUP2 ADD SWAP3 DUP3 PUSH2 0x4DE JUMPI PUSH1 0x0 DUP6 SSTORE PUSH2 0x525 JUMP JUMPDEST DUP3 PUSH1 0x1F LT PUSH2 0x4F7 JUMPI DUP1 MLOAD PUSH1 0xFF NOT AND DUP4 DUP1 ADD OR DUP6 SSTORE PUSH2 0x525 JUMP JUMPDEST DUP3 DUP1 ADD PUSH1 0x1 ADD DUP6 SSTORE DUP3 ISZERO PUSH2 0x525 JUMPI SWAP2 DUP3 ADD JUMPDEST DUP3 DUP2 GT ISZERO PUSH2 0x524 JUMPI DUP3 MLOAD DUP3 SSTORE SWAP2 PUSH1 0x20 ADD SWAP2 SWAP1 PUSH1 0x1 ADD SWAP1 PUSH2 0x509 JUMP JUMPDEST JUMPDEST POP SWAP1 POP PUSH2 0x532 SWAP2 SWAP1 PUSH2 0x536 JUMP JUMPDEST POP SWAP1 JUMP JUMPDEST JUMPDEST DUP1 DUP3 GT ISZERO PUSH2 0x54F JUMPI PUSH1 0x0 DUP2 PUSH1 0x0 SWAP1 SSTORE POP PUSH1 0x1 ADD PUSH2 0x537 JUMP JUMPDEST POP SWAP1 JUMP JUMPDEST PUSH1 0x0 PUSH2 0x566 PUSH2 0x561 DUP5 PUSH2 0x79F JUMP JUMPDEST PUSH2 0x77A JUMP JUMPDEST SWAP1 POP DUP3 DUP2 MSTORE PUSH1 0x20 DUP2 ADD DUP5 DUP5 DUP5 ADD GT ISZERO PUSH2 0x582 JUMPI PUSH2 0x581 PUSH2 0xA09 JUMP JUMPDEST JUMPDEST PUSH2 0x58D DUP5 DUP3 DUP6 PUSH2 0x8A3 JUMP JUMPDEST POP SWAP4 SWAP3 POP POP POP JUMP JUMPDEST PUSH1 0x0 DUP2 CALLDATALOAD SWAP1 POP PUSH2 0x5A4 DUP2 PUSH2 0xA3D JUMP JUMPDEST SWAP3 SWAP2 POP POP JUMP JUMPDEST PUSH1 0x0 DUP3 PUSH1 0x1F DUP4 ADD SLT PUSH2 0x5BF JUMPI PUSH2 0x5BE PUSH2 0xA04 JUMP JUMPDEST JUMPDEST DUP2 CALLDATALOAD PUSH2 0x5CF DUP5 DUP3 PUSH1 0x20 DUP7 ADD PUSH2 0x553 JUMP JUMPDEST SWAP2 POP POP SWAP3 SWAP2 POP POP JUMP JUMPDEST PUSH1 0x0 PUSH1 0x20 DUP3 DUP5 SUB SLT ISZERO PUSH2 0x5EE JUMPI PUSH2 0x5ED PUSH2 0xA13 JUMP JUMPDEST JUMPDEST PUSH1 0x0 PUSH2 0x5FC DUP5 DUP3 DUP6 ADD PUSH2 0x595 JUMP JUMPDEST SWAP2 POP POP SWAP3 SWAP2 POP POP JUMP JUMPDEST PUSH1 0x0 DUP1 PUSH1 0x40 DUP4 DUP6 SUB SLT ISZERO PUSH2 0x61C JUMPI PUSH2 0x61B PUSH2 0xA13 JUMP JUMPDEST JUMPDEST PUSH1 0x0 DUP4 ADD CALLDATALOAD PUSH8 0xFFFFFFFFFFFFFFFF DUP2 GT ISZERO PUSH2 0x63A JUMPI PUSH2 0x639 PUSH2 0xA0E JUMP JUMPDEST JUMPDEST PUSH2 0x646 DUP6 DUP3 DUP7 ADD PUSH2 0x5AA JUMP JUMPDEST SWAP3 POP POP PUSH1 0x20 DUP4 ADD CALLDATALOAD PUSH8 0xFFFFFFFFFFFFFFFF DUP2 GT ISZERO PUSH2 0x667 JUMPI PUSH2 0x666 PUSH2 0xA0E JUMP JUMPDEST JUMPDEST PUSH2 0x673 DUP6 DUP3 DUP7 ADD PUSH2 0x5AA JUMP JUMPDEST SWAP2 POP POP SWAP3 POP SWAP3 SWAP1 POP JUMP JUMPDEST PUSH2 0x686 DUP2 PUSH2 0x842 JUMP JUMPDEST DUP3 MSTORE POP POP JUMP JUMPDEST PUSH2 0x695 DUP2 PUSH2 0x891 JUMP JUMPDEST DUP3 MSTORE POP POP JUMP JUMPDEST PUSH1 0x0 PUSH2 0x6A6 DUP3 PUSH2 0x7D0 JUMP JUMPDEST PUSH2 0x6B0 DUP2 DUP6 PUSH2 0x7DB JUMP JUMPDEST SWAP4 POP PUSH2 0x6C0 DUP2 DUP6 PUSH1 0x20 DUP7 ADD PUSH2 0x8B2 JUMP JUMPDEST PUSH2 0x6C9 DUP2 PUSH2 0xA18 JUMP JUMPDEST DUP5 ADD SWAP2 POP POP SWAP3 SWAP2 POP POP JUMP JUMPDEST PUSH2 0x6DD DUP2 PUSH2 0x887 JUMP JUMPDEST DUP3 MSTORE POP POP JUMP JUMPDEST PUSH1 0x0 PUSH1 0xA0 DUP3 ADD SWAP1 POP PUSH2 0x6F8 PUSH1 0x0 DUP4 ADD DUP9 PUSH2 0x67D JUMP JUMPDEST PUSH2 0x705 PUSH1 0x20 DUP4 ADD DUP8 PUSH2 0x68C JUMP JUMPDEST DUP2 DUP2 SUB PUSH1 0x40 DUP4 ADD MSTORE PUSH2 0x717 DUP2 DUP7 PUSH2 0x69B JUMP JUMPDEST SWAP1 POP DUP2 DUP2 SUB PUSH1 0x60 DUP4 ADD MSTORE PUSH2 0x72B DUP2 DUP6 PUSH2 0x69B JUMP JUMPDEST SWAP1 POP PUSH2 0x73A PUSH1 0x80 DUP4 ADD DUP5 PUSH2 0x6D4 JUMP JUMPDEST SWAP7 SWAP6 POP POP POP POP POP POP JUMP JUMPDEST PUSH1 0x0 PUSH1 0x20 DUP3 ADD SWAP1 POP PUSH2 0x759 PUSH1 0x0 DUP4 ADD DUP5 PUSH2 0x68C JUMP JUMPDEST SWAP3 SWAP2 POP POP JUMP JUMPDEST PUSH1 0x0 PUSH1 0x20 DUP3 ADD SWAP1 POP PUSH2 0x774 PUSH1 0x0 DUP4 ADD DUP5 PUSH2 0x6D4 JUMP JUMPDEST SWAP3 SWAP2 POP POP JUMP JUMPDEST PUSH1 0x0 PUSH2 0x784 PUSH2 0x795 JUMP JUMPDEST SWAP1 POP PUSH2 0x790 DUP3 DUP3 PUSH2 0x917 JUMP JUMPDEST SWAP2 SWAP1 POP JUMP JUMPDEST PUSH1 0x0 PUSH1 0x40 MLOAD SWAP1 POP SWAP1 JUMP JUMPDEST PUSH1 0x0 PUSH8 0xFFFFFFFFFFFFFFFF DUP3 GT ISZERO PUSH2 0x7BA JUMPI PUSH2 0x7B9 PUSH2 0x9D5 JUMP JUMPDEST JUMPDEST PUSH2 0x7C3 DUP3 PUSH2 0xA18 JUMP JUMPDEST SWAP1 POP PUSH1 0x20 DUP2 ADD SWAP1 POP SWAP2 SWAP1 POP JUMP JUMPDEST PUSH1 0x0 DUP2 MLOAD SWAP1 POP SWAP2 SWAP1 POP JUMP JUMPDEST PUSH1 0x0 DUP3 DUP3 MSTORE PUSH1 0x20 DUP3 ADD SWAP1 POP SWAP3 SWAP2 POP POP JUMP JUMPDEST PUSH1 0x0 PUSH2 0x7F7 DUP3 PUSH2 0x887 JUMP JUMPDEST SWAP2 POP PUSH2 0x802 DUP4 PUSH2 0x887 JUMP JUMPDEST SWAP3 POP DUP3 PUSH32 0xFFFFFFFFFFFFFFFFFFFFFFFFFFFFFFFFFFFFFFFFFFFFFFFFFFFFFFFFFFFFFFFF SUB DUP3 GT ISZERO PUSH2 0x837 JUMPI PUSH2 0x836 PUSH2 0x948 JUMP JUMPDEST JUMPDEST DUP3 DUP3 ADD SWAP1 POP SWAP3 SWAP2 POP POP JUMP JUMPDEST PUSH1 0x0 PUSH2 0x84D DUP3 PUSH2 0x867 JUMP JUMPDEST SWAP1 POP SWAP2 SWAP1 POP JUMP JUMPDEST PUSH1 0x0 DUP2 SWAP1 POP PUSH2 0x862 DUP3 PUSH2 0xA29 JUMP JUMPDEST SWAP2 SWAP1 POP JUMP JUMPDEST PUSH1 0x0 PUSH20 0xFFFFFFFFFFFFFFFFFFFFFFFFFFFFFFFFFFFFFFFF DUP3 AND SWAP1 POP SWAP2 SWAP1 POP JUMP JUMPDEST PUSH1 0x0 DUP2 SWAP1 POP SWAP2 SWAP1 POP JUMP JUMPDEST PUSH1 0x0 PUSH2 0x89C DUP3 PUSH2 0x854 JUMP JUMPDEST SWAP1 POP SWAP2 SWAP1 POP JUMP JUMPDEST DUP3 DUP2 DUP4 CALLDATACOPY PUSH1 0x0 DUP4 DUP4 ADD MSTORE POP POP POP JUMP JUMPDEST PUSH1 0x0 JUMPDEST DUP4 DUP2 LT ISZERO PUSH2 0x8D0 JUMPI DUP1 DUP3 ADD MLOAD DUP2 DUP5 ADD MSTORE PUSH1 0x20 DUP2 ADD SWAP1 POP PUSH2 0x8B5 JUMP JUMPDEST DUP4 DUP2 GT ISZERO PUSH2 0x8DF JUMPI PUSH1 0x0 DUP5 DUP5 ADD MSTORE JUMPDEST POP POP POP POP JUMP JUMPDEST PUSH1 0x0 PUSH1 0x2 DUP3 DIV SWAP1 POP PUSH1 0x1 DUP3 AND DUP1 PUSH2 0x8FD JUMPI PUSH1 0x7F DUP3 AND SWAP2 POP JUMPDEST PUSH1 0x20 DUP3 LT DUP2 EQ ISZERO PUSH2 0x911 JUMPI PUSH2 0x910 PUSH2 0x9A6 JUMP JUMPDEST JUMPDEST POP SWAP2 SWAP1 POP JUMP JUMPDEST PUSH2 0x920 DUP3 PUSH2 0xA18 JUMP JUMPDEST DUP2 ADD DUP2 DUP2 LT PUSH8 0xFFFFFFFFFFFFFFFF DUP3 GT OR ISZERO PUSH2 0x93F JUMPI PUSH2 0x93E PUSH2 0x9D5 JUMP JUMPDEST JUMPDEST DUP1 PUSH1 0x40 MSTORE POP POP POP JUMP JUMPDEST PUSH32 0x4E487B7100000000000000000000000000000000000000000000000000000000 PUSH1 0x0 MSTORE PUSH1 0x11 PUSH1 0x4 MSTORE PUSH1 0x24 PUSH1 0x0 REVERT JUMPDEST PUSH32 0x4E487B7100000000000000000000000000000000000000000000000000000000 PUSH1 0x0 MSTORE PUSH1 0x21 PUSH1 0x4 MSTORE PUSH1 0x24 PUSH1 0x0 REVERT JUMPDEST PUSH32 0x4E487B7100000000000000000000000000000000000000000000000000000000 PUSH1 0x0 MSTORE PUSH1 0x22 PUSH1 0x4 MSTORE PUSH1 0x24 PUSH1 0x0 REVERT JUMPDEST PUSH32 0x4E487B7100000000000000000000000000000000000000000000000000000000 PUSH1 0x0 MSTORE PUSH1 0x41 PUSH1 0x4 MSTORE PUSH1 0x24 PUSH1 0x0 REVERT JUMPDEST PUSH1 0x0 DUP1 REVERT JUMPDEST PUSH1 0x0 DUP1 REVERT JUMPDEST PUSH1 0x0 DUP1 REVERT JUMPDEST PUSH1 0x0 DUP1 REVERT JUMPDEST PUSH1 0x0 PUSH1 0x1F NOT PUSH1 0x1F DUP4 ADD AND SWAP1 POP SWAP2 SWAP1 POP JUMP JUMPDEST PUSH1 0x3 DUP2 LT PUSH2 0xA3A JUMPI PUSH2 0xA39 PUSH2 0x977 JUMP JUMPDEST JUMPDEST POP JUMP JUMPDEST PUSH2 0xA46 DUP2 PUSH2 0x842 JUMP JUMPDEST DUP2 EQ PUSH2 0xA51 JUMPI PUSH1 0x0 DUP1 REVERT JUMPDEST POP JUMP INVALID LOG2 PUSH5 0x6970667358 0x22 SLT KECCAK256 0xE8 0xAA SMOD SHL DUP15 INVALID 0xD7 ADDMOD OR PUSH14 0x7A660E0693452C69735C01B85784 0xD8 DUP11 INVALID 0xB6 0xE5 GASPRICE 0xE1 0xC PUSH5 0x736F6C6343 STOP ADDMOD SMOD STOP CALLER "
				},
				"gasEstimates": {
					"creation": {
						"codeDepositCost": "539600",
						"executionCost": "5581",
						"totalCost": "545181"
					},
					"external": {
						"addPlayer(string,string)": "infinite",
						"changePlayerLevel(address)": "infinite",
						"getPlayerLevel(address)": "3041",
						"playerCount()": "2407",
						"players(address)": "infinite"
					}
				},
				"methodIdentifiers": {
					"addPlayer(string,string)": "5cb119a9",
					"changePlayerLevel(address)": "8ddf0f7d",
					"getPlayerLevel(address)": "34b735a1",
					"playerCount()": "302bcc57",
					"players(address)": "e2eb41ff"
				}
			},
			"storageLayout": {
				"storage": [
					{
						"astId": 4,
						"contract": "contracts/SimpleTime.sol:myGame",
						"label": "playerCount",
						"offset": 0,
						"slot": "0",
						"type": "t_uint256"
					},
					{
						"astId": 9,
						"contract": "contracts/SimpleTime.sol:myGame",
						"label": "players",
						"offset": 0,
						"slot": "1",
						"type": "t_mapping(t_address,t_struct(Player)25_storage)"
					}
				],
				"types": {
					"t_address": {
						"encoding": "inplace",
						"label": "address",
						"numberOfBytes": "20"
					},
					"t_enum(Level)13": {
						"encoding": "inplace",
						"label": "enum myGame.Level",
						"numberOfBytes": "1"
					},
					"t_mapping(t_address,t_struct(Player)25_storage)": {
						"encoding": "mapping",
						"key": "t_address",
						"label": "mapping(address => struct myGame.Player)",
						"numberOfBytes": "32",
						"value": "t_struct(Player)25_storage"
					},
					"t_string_storage": {
						"encoding": "bytes",
						"label": "string",
						"numberOfBytes": "32"
					},
					"t_struct(Player)25_storage": {
						"encoding": "inplace",
						"label": "struct myGame.Player",
						"members": [
							{
								"astId": 15,
								"contract": "contracts/SimpleTime.sol:myGame",
								"label": "playerAddress",
								"offset": 0,
								"slot": "0",
								"type": "t_address"
							},
							{
								"astId": 18,
								"contract": "contracts/SimpleTime.sol:myGame",
								"label": "playerLevel",
								"offset": 20,
								"slot": "0",
								"type": "t_enum(Level)13"
							},
							{
								"astId": 20,
								"contract": "contracts/SimpleTime.sol:myGame",
								"label": "firstName",
								"offset": 0,
								"slot": "1",
								"type": "t_string_storage"
							},
							{
								"astId": 22,
								"contract": "contracts/SimpleTime.sol:myGame",
								"label": "lastName",
								"offset": 0,
								"slot": "2",
								"type": "t_string_storage"
							},
							{
								"astId": 24,
								"contract": "contracts/SimpleTime.sol:myGame",
								"label": "createdTime",
								"offset": 0,
								"slot": "3",
								"type": "t_uint256"
							}
						],
						"numberOfBytes": "128"
					},
					"t_uint256": {
						"encoding": "inplace",
						"label": "uint256",
						"numberOfBytes": "32"
					}
				}
			},
			"userdoc": {
				"kind": "user",
				"methods": {},
				"version": 1
			}
		}
	}
}