{
	"contracts/SimpleAuction.sol": {
		"SimpleAuction": {
			"abi": [
				{
					"inputs": [
						{
							"internalType": "uint256",
							"name": "_biddingTime",
							"type": "uint256"
						},
						{
							"internalType": "address payable",
							"name": "_beneficiary",
							"type": "address"
						}
					],
					"stateMutability": "nonpayable",
					"type": "constructor"
				},
				{
					"anonymous": false,
					"inputs": [
						{
							"indexed": false,
							"internalType": "address",
							"name": "winner",
							"type": "address"
						},
						{
							"indexed": false,
							"internalType": "uint256",
							"name": "amount",
							"type": "uint256"
						}
					],
					"name": "AuctionEnded",
					"type": "event"
				},
				{
					"anonymous": false,
					"inputs": [
						{
							"indexed": false,
							"internalType": "address",
							"name": "bidder",
							"type": "address"
						},
						{
							"indexed": false,
							"internalType": "uint256",
							"name": "amount",
							"type": "uint256"
						}
					],
					"name": "HighestBidIncrease",
					"type": "event"
				},
				{
					"inputs": [],
					"name": "auctionEnd",
					"outputs": [],
					"stateMutability": "nonpayable",
					"type": "function"
				},
				{
					"inputs": [],
					"name": "auctionEndTime",
					"outputs": [
						{
							"internalType": "uint256",
							"name": "",
							"type": "uint256"
						}
					],
					"stateMutability": "view",
					"type": "function"
				},
				{
					"inputs": [],
					"name": "beneficiary",
					"outputs": [
						{
							"internalType": "address payable",
							"name": "",
							"type": "address"
						}
					],
					"stateMutability": "view",
					"type": "function"
				},
				{
					"inputs": [],
					"name": "bid",
					"outputs": [],
					"stateMutability": "payable",
					"type": "function"
				},
				{
					"inputs": [],
					"name": "highestBid",
					"outputs": [
						{
							"internalType": "uint256",
							"name": "",
							"type": "uint256"
						}
					],
					"stateMutability": "view",
					"type": "function"
				},
				{
					"inputs": [],
					"name": "highestBidder",
					"outputs": [
						{
							"internalType": "address",
							"name": "",
							"type": "address"
						}
					],
					"stateMutability": "view",
					"type": "function"
				},
				{
					"inputs": [
						{
							"internalType": "address",
							"name": "",
							"type": "address"
						}
					],
					"name": "pendingReturns",
					"outputs": [
						{
							"internalType": "uint256",
							"name": "",
							"type": "uint256"
						}
					],
					"stateMutability": "view",
					"type": "function"
				},
				{
					"inputs": [],
					"name": "widthdraw",
					"outputs": [
						{
							"internalType": "bool",
							"name": "",
							"type": "bool"
						}
					],
					"stateMutability": "nonpayable",
					"type": "function"
				}
			],
			"devdoc": {
				"kind": "dev",
				"methods": {},
				"version": 1
			},
			"evm": {
				"assembly": "    /* \"contracts/SimpleAuction.sol\":62:1544  contract SimpleAuction {... */\n  mstore(0x40, 0x80)\n    /* \"contracts/SimpleAuction.sol\":369:374  false */\n  0x00\n    /* \"contracts/SimpleAuction.sol\":356:374  bool ended = false */\n  0x05\n  exp(0x0100, 0x00)\n  dup2\n  sload\n  dup2\n  0xff\n  mul\n  not\n  and\n  swap1\n  dup4\n  iszero\n  iszero\n  mul\n  or\n  swap1\n  sstore\n  pop\n    /* \"contracts/SimpleAuction.sol\":494:655  constructor(uint _biddingTime, address payable _beneficiary) {... */\n  callvalue\n  dup1\n  iszero\n  tag_1\n  jumpi\n  0x00\n  dup1\n  revert\ntag_1:\n  pop\n  mload(0x40)\n  sub(codesize, bytecodeSize)\n  dup1\n  bytecodeSize\n  dup4\n  codecopy\n  dup2\n  dup2\n  add\n  0x40\n  mstore\n  dup2\n  add\n  swap1\n  tag_2\n  swap2\n  swap1\n  tag_3\n  jump\t// in\ntag_2:\n    /* \"contracts/SimpleAuction.sol\":579:591  _beneficiary */\n  dup1\n    /* \"contracts/SimpleAuction.sol\":565:576  beneficiary */\n  0x00\n  dup1\n    /* \"contracts/SimpleAuction.sol\":565:591  beneficiary = _beneficiary */\n  0x0100\n  exp\n  dup2\n  sload\n  dup2\n  0xffffffffffffffffffffffffffffffffffffffff\n  mul\n  not\n  and\n  swap1\n  dup4\n  0xffffffffffffffffffffffffffffffffffffffff\n  and\n  mul\n  or\n  swap1\n  sstore\n  pop\n    /* \"contracts/SimpleAuction.sol\":636:648  _biddingTime */\n  dup2\n    /* \"contracts/SimpleAuction.sol\":618:633  block.timestamp */\n  timestamp\n    /* \"contracts/SimpleAuction.sol\":618:648  block.timestamp + _biddingTime */\n  tag_6\n  swap2\n  swap1\n  tag_7\n  jump\t// in\ntag_6:\n    /* \"contracts/SimpleAuction.sol\":601:615  auctionEndTime */\n  0x01\n    /* \"contracts/SimpleAuction.sol\":601:648  auctionEndTime = block.timestamp + _biddingTime */\n  dup2\n  swap1\n  sstore\n  pop\n    /* \"contracts/SimpleAuction.sol\":494:655  constructor(uint _biddingTime, address payable _beneficiary) {... */\n  pop\n  pop\n    /* \"contracts/SimpleAuction.sol\":62:1544  contract SimpleAuction {... */\n  jump(tag_8)\n    /* \"#utility.yul\":7:166   */\ntag_10:\n    /* \"#utility.yul\":72:77   */\n  0x00\n    /* \"#utility.yul\":103:109   */\n  dup2\n    /* \"#utility.yul\":97:110   */\n  mload\n    /* \"#utility.yul\":88:110   */\n  swap1\n  pop\n    /* \"#utility.yul\":119:160   */\n  tag_12\n    /* \"#utility.yul\":154:159   */\n  dup2\n    /* \"#utility.yul\":119:160   */\n  tag_13\n  jump\t// in\ntag_12:\n    /* \"#utility.yul\":7:166   */\n  swap3\n  swap2\n  pop\n  pop\n  jump\t// out\n    /* \"#utility.yul\":172:315   */\ntag_14:\n    /* \"#utility.yul\":229:234   */\n  0x00\n    /* \"#utility.yul\":260:266   */\n  dup2\n    /* \"#utility.yul\":254:267   */\n  mload\n    /* \"#utility.yul\":245:267   */\n  swap1\n  pop\n    /* \"#utility.yul\":276:309   */\n  tag_16\n    /* \"#utility.yul\":303:308   */\n  dup2\n    /* \"#utility.yul\":276:309   */\n  tag_17\n  jump\t// in\ntag_16:\n    /* \"#utility.yul\":172:315   */\n  swap3\n  swap2\n  pop\n  pop\n  jump\t// out\n    /* \"#utility.yul\":321:844   */\ntag_3:\n    /* \"#utility.yul\":408:414   */\n  0x00\n    /* \"#utility.yul\":416:422   */\n  dup1\n    /* \"#utility.yul\":465:467   */\n  0x40\n    /* \"#utility.yul\":453:462   */\n  dup4\n    /* \"#utility.yul\":444:451   */\n  dup6\n    /* \"#utility.yul\":440:463   */\n  sub\n    /* \"#utility.yul\":436:468   */\n  slt\n    /* \"#utility.yul\":433:552   */\n  iszero\n  tag_19\n  jumpi\n    /* \"#utility.yul\":471:550   */\n  tag_20\n  tag_21\n  jump\t// in\ntag_20:\n    /* \"#utility.yul\":433:552   */\ntag_19:\n    /* \"#utility.yul\":591:592   */\n  0x00\n    /* \"#utility.yul\":616:680   */\n  tag_22\n    /* \"#utility.yul\":672:679   */\n  dup6\n    /* \"#utility.yul\":663:669   */\n  dup3\n    /* \"#utility.yul\":652:661   */\n  dup7\n    /* \"#utility.yul\":648:670   */\n  add\n    /* \"#utility.yul\":616:680   */\n  tag_14\n  jump\t// in\ntag_22:\n    /* \"#utility.yul\":606:680   */\n  swap3\n  pop\n    /* \"#utility.yul\":562:690   */\n  pop\n    /* \"#utility.yul\":729:731   */\n  0x20\n    /* \"#utility.yul\":755:827   */\n  tag_23\n    /* \"#utility.yul\":819:826   */\n  dup6\n    /* \"#utility.yul\":810:816   */\n  dup3\n    /* \"#utility.yul\":799:808   */\n  dup7\n    /* \"#utility.yul\":795:817   */\n  add\n    /* \"#utility.yul\":755:827   */\n  tag_10\n  jump\t// in\ntag_23:\n    /* \"#utility.yul\":745:827   */\n  swap2\n  pop\n    /* \"#utility.yul\":700:837   */\n  pop\n    /* \"#utility.yul\":321:844   */\n  swap3\n  pop\n  swap3\n  swap1\n  pop\n  jump\t// out\n    /* \"#utility.yul\":931:1236   */\ntag_7:\n    /* \"#utility.yul\":971:974   */\n  0x00\n    /* \"#utility.yul\":990:1010   */\n  tag_27\n    /* \"#utility.yul\":1008:1009   */\n  dup3\n    /* \"#utility.yul\":990:1010   */\n  tag_28\n  jump\t// in\ntag_27:\n    /* \"#utility.yul\":985:1010   */\n  swap2\n  pop\n    /* \"#utility.yul\":1024:1044   */\n  tag_29\n    /* \"#utility.yul\":1042:1043   */\n  dup4\n    /* \"#utility.yul\":1024:1044   */\n  tag_28\n  jump\t// in\ntag_29:\n    /* \"#utility.yul\":1019:1044   */\n  swap3\n  pop\n    /* \"#utility.yul\":1178:1179   */\n  dup3\n    /* \"#utility.yul\":1110:1176   */\n  0xffffffffffffffffffffffffffffffffffffffffffffffffffffffffffffffff\n    /* \"#utility.yul\":1106:1180   */\n  sub\n    /* \"#utility.yul\":1103:1104   */\n  dup3\n    /* \"#utility.yul\":1100:1181   */\n  gt\n    /* \"#utility.yul\":1097:1204   */\n  iszero\n  tag_30\n  jumpi\n    /* \"#utility.yul\":1184:1202   */\n  tag_31\n  tag_32\n  jump\t// in\ntag_31:\n    /* \"#utility.yul\":1097:1204   */\ntag_30:\n    /* \"#utility.yul\":1228:1229   */\n  dup3\n    /* \"#utility.yul\":1225:1226   */\n  dup3\n    /* \"#utility.yul\":1221:1230   */\n  add\n    /* \"#utility.yul\":1214:1230   */\n  swap1\n  pop\n    /* \"#utility.yul\":931:1236   */\n  swap3\n  swap2\n  pop\n  pop\n  jump\t// out\n    /* \"#utility.yul\":1242:1346   */\ntag_33:\n    /* \"#utility.yul\":1287:1294   */\n  0x00\n    /* \"#utility.yul\":1316:1340   */\n  tag_35\n    /* \"#utility.yul\":1334:1339   */\n  dup3\n    /* \"#utility.yul\":1316:1340   */\n  tag_36\n  jump\t// in\ntag_35:\n    /* \"#utility.yul\":1305:1340   */\n  swap1\n  pop\n    /* \"#utility.yul\":1242:1346   */\n  swap2\n  swap1\n  pop\n  jump\t// out\n    /* \"#utility.yul\":1352:1478   */\ntag_36:\n    /* \"#utility.yul\":1389:1396   */\n  0x00\n    /* \"#utility.yul\":1429:1471   */\n  0xffffffffffffffffffffffffffffffffffffffff\n    /* \"#utility.yul\":1422:1427   */\n  dup3\n    /* \"#utility.yul\":1418:1472   */\n  and\n    /* \"#utility.yul\":1407:1472   */\n  swap1\n  pop\n    /* \"#utility.yul\":1352:1478   */\n  swap2\n  swap1\n  pop\n  jump\t// out\n    /* \"#utility.yul\":1484:1561   */\ntag_28:\n    /* \"#utility.yul\":1521:1528   */\n  0x00\n    /* \"#utility.yul\":1550:1555   */\n  dup2\n    /* \"#utility.yul\":1539:1555   */\n  swap1\n  pop\n    /* \"#utility.yul\":1484:1561   */\n  swap2\n  swap1\n  pop\n  jump\t// out\n    /* \"#utility.yul\":1567:1747   */\ntag_32:\n    /* \"#utility.yul\":1615:1692   */\n  0x4e487b7100000000000000000000000000000000000000000000000000000000\n    /* \"#utility.yul\":1612:1613   */\n  0x00\n    /* \"#utility.yul\":1605:1693   */\n  mstore\n    /* \"#utility.yul\":1712:1716   */\n  0x11\n    /* \"#utility.yul\":1709:1710   */\n  0x04\n    /* \"#utility.yul\":1702:1717   */\n  mstore\n    /* \"#utility.yul\":1736:1740   */\n  0x24\n    /* \"#utility.yul\":1733:1734   */\n  0x00\n    /* \"#utility.yul\":1726:1741   */\n  revert\n    /* \"#utility.yul\":1876:1993   */\ntag_21:\n    /* \"#utility.yul\":1985:1986   */\n  0x00\n    /* \"#utility.yul\":1982:1983   */\n  dup1\n    /* \"#utility.yul\":1975:1987   */\n  revert\n    /* \"#utility.yul\":1999:2137   */\ntag_13:\n    /* \"#utility.yul\":2080:2112   */\n  tag_44\n    /* \"#utility.yul\":2106:2111   */\n  dup2\n    /* \"#utility.yul\":2080:2112   */\n  tag_33\n  jump\t// in\ntag_44:\n    /* \"#utility.yul\":2073:2078   */\n  dup2\n    /* \"#utility.yul\":2070:2113   */\n  eq\n    /* \"#utility.yul\":2060:2131   */\n  tag_45\n  jumpi\n    /* \"#utility.yul\":2127:2128   */\n  0x00\n    /* \"#utility.yul\":2124:2125   */\n  dup1\n    /* \"#utility.yul\":2117:2129   */\n  revert\n    /* \"#utility.yul\":2060:2131   */\ntag_45:\n    /* \"#utility.yul\":1999:2137   */\n  pop\n  jump\t// out\n    /* \"#utility.yul\":2143:2265   */\ntag_17:\n    /* \"#utility.yul\":2216:2240   */\n  tag_47\n    /* \"#utility.yul\":2234:2239   */\n  dup2\n    /* \"#utility.yul\":2216:2240   */\n  tag_28\n  jump\t// in\ntag_47:\n    /* \"#utility.yul\":2209:2214   */\n  dup2\n    /* \"#utility.yul\":2206:2241   */\n  eq\n    /* \"#utility.yul\":2196:2259   */\n  tag_48\n  jumpi\n    /* \"#utility.yul\":2255:2256   */\n  0x00\n    /* \"#utility.yul\":2252:2253   */\n  dup1\n    /* \"#utility.yul\":2245:2257   */\n  revert\n    /* \"#utility.yul\":2196:2259   */\ntag_48:\n    /* \"#utility.yul\":2143:2265   */\n  pop\n  jump\t// out\n    /* \"contracts/SimpleAuction.sol\":62:1544  contract SimpleAuction {... */\ntag_8:\n  dataSize(sub_0)\n  dup1\n  dataOffset(sub_0)\n  0x00\n  codecopy\n  0x00\n  return\nstop\n\nsub_0: assembly {\n        /* \"contracts/SimpleAuction.sol\":62:1544  contract SimpleAuction {... */\n      mstore(0x40, 0x80)\n      jumpi(tag_1, lt(calldatasize, 0x04))\n      shr(0xe0, calldataload(0x00))\n      dup1\n      0x4b449cba\n      gt\n      tag_10\n      jumpi\n      dup1\n      0x4b449cba\n      eq\n      tag_6\n      jumpi\n      dup1\n      0x52b50a2a\n      eq\n      tag_7\n      jumpi\n      dup1\n      0x91f90157\n      eq\n      tag_8\n      jumpi\n      dup1\n      0xd57bde79\n      eq\n      tag_9\n      jumpi\n      jump(tag_1)\n    tag_10:\n      dup1\n      0x1998aeef\n      eq\n      tag_2\n      jumpi\n      dup1\n      0x26b387bb\n      eq\n      tag_3\n      jumpi\n      dup1\n      0x2a24f46c\n      eq\n      tag_4\n      jumpi\n      dup1\n      0x38af3eed\n      eq\n      tag_5\n      jumpi\n    tag_1:\n      0x00\n      dup1\n      revert\n        /* \"contracts/SimpleAuction.sol\":661:1145  function bid() public payable {... */\n    tag_2:\n      tag_11\n      tag_12\n      jump\t// in\n    tag_11:\n      stop\n        /* \"contracts/SimpleAuction.sol\":303:349  mapping(address => uint) public pendingReturns */\n    tag_3:\n      callvalue\n      dup1\n      iszero\n      tag_13\n      jumpi\n      0x00\n      dup1\n      revert\n    tag_13:\n      pop\n      tag_14\n      0x04\n      dup1\n      calldatasize\n      sub\n      dup2\n      add\n      swap1\n      tag_15\n      swap2\n      swap1\n      tag_16\n      jump\t// in\n    tag_15:\n      tag_17\n      jump\t// in\n    tag_14:\n      mload(0x40)\n      tag_18\n      swap2\n      swap1\n      tag_19\n      jump\t// in\n    tag_18:\n      mload(0x40)\n      dup1\n      swap2\n      sub\n      swap1\n      return\n        /* \"contracts/SimpleAuction.sol\":1505:1541  function auctionEnd() public{... */\n    tag_4:\n      callvalue\n      dup1\n      iszero\n      tag_20\n      jumpi\n      0x00\n      dup1\n      revert\n    tag_20:\n      pop\n      tag_21\n      tag_22\n      jump\t// in\n    tag_21:\n      stop\n        /* \"contracts/SimpleAuction.sol\":125:159  address payable public beneficiary */\n    tag_5:\n      callvalue\n      dup1\n      iszero\n      tag_23\n      jumpi\n      0x00\n      dup1\n      revert\n    tag_23:\n      pop\n      tag_24\n      tag_25\n      jump\t// in\n    tag_24:\n      mload(0x40)\n      tag_26\n      swap2\n      swap1\n      tag_27\n      jump\t// in\n    tag_26:\n      mload(0x40)\n      dup1\n      swap2\n      sub\n      swap1\n      return\n        /* \"contracts/SimpleAuction.sol\":165:191  uint public auctionEndTime */\n    tag_6:\n      callvalue\n      dup1\n      iszero\n      tag_28\n      jumpi\n      0x00\n      dup1\n      revert\n    tag_28:\n      pop\n      tag_29\n      tag_30\n      jump\t// in\n    tag_29:\n      mload(0x40)\n      tag_31\n      swap2\n      swap1\n      tag_19\n      jump\t// in\n    tag_31:\n      mload(0x40)\n      dup1\n      swap2\n      sub\n      swap1\n      return\n        /* \"contracts/SimpleAuction.sol\":1151:1499  function widthdraw() public returns (bool){... */\n    tag_7:\n      callvalue\n      dup1\n      iszero\n      tag_32\n      jumpi\n      0x00\n      dup1\n      revert\n    tag_32:\n      pop\n      tag_33\n      tag_34\n      jump\t// in\n    tag_33:\n      mload(0x40)\n      tag_35\n      swap2\n      swap1\n      tag_36\n      jump\t// in\n    tag_35:\n      mload(0x40)\n      dup1\n      swap2\n      sub\n      swap1\n      return\n        /* \"contracts/SimpleAuction.sol\":240:268  address public highestBidder */\n    tag_8:\n      callvalue\n      dup1\n      iszero\n      tag_37\n      jumpi\n      0x00\n      dup1\n      revert\n    tag_37:\n      pop\n      tag_38\n      tag_39\n      jump\t// in\n    tag_38:\n      mload(0x40)\n      tag_40\n      swap2\n      swap1\n      tag_41\n      jump\t// in\n    tag_40:\n      mload(0x40)\n      dup1\n      swap2\n      sub\n      swap1\n      return\n        /* \"contracts/SimpleAuction.sol\":274:296  uint public highestBid */\n    tag_9:\n      callvalue\n      dup1\n      iszero\n      tag_42\n      jumpi\n      0x00\n      dup1\n      revert\n    tag_42:\n      pop\n      tag_43\n      tag_44\n      jump\t// in\n    tag_43:\n      mload(0x40)\n      tag_45\n      swap2\n      swap1\n      tag_19\n      jump\t// in\n    tag_45:\n      mload(0x40)\n      dup1\n      swap2\n      sub\n      swap1\n      return\n        /* \"contracts/SimpleAuction.sol\":661:1145  function bid() public payable {... */\n    tag_12:\n        /* \"contracts/SimpleAuction.sol\":723:737  auctionEndTime */\n      sload(0x01)\n        /* \"contracts/SimpleAuction.sol\":705:720  block.timestamp */\n      timestamp\n        /* \"contracts/SimpleAuction.sol\":705:737  block.timestamp > auctionEndTime */\n      gt\n        /* \"contracts/SimpleAuction.sol\":701:803  if (block.timestamp > auctionEndTime) {... */\n      iszero\n      tag_47\n      jumpi\n        /* \"contracts/SimpleAuction.sol\":753:792  revert(\"The auction has already ended\") */\n      mload(0x40)\n      0x08c379a000000000000000000000000000000000000000000000000000000000\n      dup2\n      mstore\n      0x04\n      add\n      tag_48\n      swap1\n      tag_49\n      jump\t// in\n    tag_48:\n      mload(0x40)\n      dup1\n      swap2\n      sub\n      swap1\n      revert\n        /* \"contracts/SimpleAuction.sol\":701:803  if (block.timestamp > auctionEndTime) {... */\n    tag_47:\n        /* \"contracts/SimpleAuction.sol\":830:840  highestBid */\n      sload(0x03)\n        /* \"contracts/SimpleAuction.sol\":817:826  msg.value */\n      callvalue\n        /* \"contracts/SimpleAuction.sol\":817:840  msg.value <= highestBid */\n      gt\n        /* \"contracts/SimpleAuction.sol\":813:915  if (msg.value <= highestBid) {... */\n      tag_50\n      jumpi\n        /* \"contracts/SimpleAuction.sol\":856:904  revert(\"There is already a higher or equal bid\") */\n      mload(0x40)\n      0x08c379a000000000000000000000000000000000000000000000000000000000\n      dup2\n      mstore\n      0x04\n      add\n      tag_51\n      swap1\n      tag_52\n      jump\t// in\n    tag_51:\n      mload(0x40)\n      dup1\n      swap2\n      sub\n      swap1\n      revert\n        /* \"contracts/SimpleAuction.sol\":813:915  if (msg.value <= highestBid) {... */\n    tag_50:\n        /* \"contracts/SimpleAuction.sol\":943:944  0 */\n      0x00\n        /* \"contracts/SimpleAuction.sol\":929:939  highestBid */\n      sload(0x03)\n        /* \"contracts/SimpleAuction.sol\":929:944  highestBid != 0 */\n      eq\n        /* \"contracts/SimpleAuction.sol\":925:1014  if (highestBid != 0) {... */\n      tag_53\n      jumpi\n        /* \"contracts/SimpleAuction.sol\":993:1003  highestBid */\n      sload(0x03)\n        /* \"contracts/SimpleAuction.sol\":960:974  pendingReturns */\n      0x04\n        /* \"contracts/SimpleAuction.sol\":960:989  pendingReturns[highestBidder] */\n      0x00\n        /* \"contracts/SimpleAuction.sol\":975:988  highestBidder */\n      0x02\n      0x00\n      swap1\n      sload\n      swap1\n      0x0100\n      exp\n      swap1\n      div\n      0xffffffffffffffffffffffffffffffffffffffff\n      and\n        /* \"contracts/SimpleAuction.sol\":960:989  pendingReturns[highestBidder] */\n      0xffffffffffffffffffffffffffffffffffffffff\n      and\n      0xffffffffffffffffffffffffffffffffffffffff\n      and\n      dup2\n      mstore\n      0x20\n      add\n      swap1\n      dup2\n      mstore\n      0x20\n      add\n      0x00\n      keccak256\n      0x00\n        /* \"contracts/SimpleAuction.sol\":960:1003  pendingReturns[highestBidder] += highestBid */\n      dup3\n      dup3\n      sload\n      tag_54\n      swap2\n      swap1\n      tag_55\n      jump\t// in\n    tag_54:\n      swap3\n      pop\n      pop\n      dup2\n      swap1\n      sstore\n      pop\n        /* \"contracts/SimpleAuction.sol\":925:1014  if (highestBid != 0) {... */\n    tag_53:\n        /* \"contracts/SimpleAuction.sol\":1040:1050  msg.sender */\n      caller\n        /* \"contracts/SimpleAuction.sol\":1024:1037  highestBidder */\n      0x02\n      0x00\n        /* \"contracts/SimpleAuction.sol\":1024:1050  highestBidder = msg.sender */\n      0x0100\n      exp\n      dup2\n      sload\n      dup2\n      0xffffffffffffffffffffffffffffffffffffffff\n      mul\n      not\n      and\n      swap1\n      dup4\n      0xffffffffffffffffffffffffffffffffffffffff\n      and\n      mul\n      or\n      swap1\n      sstore\n      pop\n        /* \"contracts/SimpleAuction.sol\":1073:1082  msg.value */\n      callvalue\n        /* \"contracts/SimpleAuction.sol\":1060:1070  highestBid */\n      0x03\n        /* \"contracts/SimpleAuction.sol\":1060:1082  highestBid = msg.value */\n      dup2\n      swap1\n      sstore\n      pop\n        /* \"contracts/SimpleAuction.sol\":1097:1138  HighestBidIncrease(msg.sender, msg.value) */\n      0xdfea07ab8527bd08519bfa633240757a7bb0a7f3c7adc98e30604ba73c70f429\n        /* \"contracts/SimpleAuction.sol\":1116:1126  msg.sender */\n      caller\n        /* \"contracts/SimpleAuction.sol\":1128:1137  msg.value */\n      callvalue\n        /* \"contracts/SimpleAuction.sol\":1097:1138  HighestBidIncrease(msg.sender, msg.value) */\n      mload(0x40)\n      tag_56\n      swap3\n      swap2\n      swap1\n      tag_57\n      jump\t// in\n    tag_56:\n      mload(0x40)\n      dup1\n      swap2\n      sub\n      swap1\n      log1\n        /* \"contracts/SimpleAuction.sol\":661:1145  function bid() public payable {... */\n      jump\t// out\n        /* \"contracts/SimpleAuction.sol\":303:349  mapping(address => uint) public pendingReturns */\n    tag_17:\n      mstore(0x20, 0x04)\n      dup1\n      0x00\n      mstore\n      keccak256(0x00, 0x40)\n      0x00\n      swap2\n      pop\n      swap1\n      pop\n      sload\n      dup2\n      jump\t// out\n        /* \"contracts/SimpleAuction.sol\":1505:1541  function auctionEnd() public{... */\n    tag_22:\n      jump\t// out\n        /* \"contracts/SimpleAuction.sol\":125:159  address payable public beneficiary */\n    tag_25:\n      0x00\n      dup1\n      sload\n      swap1\n      0x0100\n      exp\n      swap1\n      div\n      0xffffffffffffffffffffffffffffffffffffffff\n      and\n      dup2\n      jump\t// out\n        /* \"contracts/SimpleAuction.sol\":165:191  uint public auctionEndTime */\n    tag_30:\n      sload(0x01)\n      dup2\n      jump\t// out\n        /* \"contracts/SimpleAuction.sol\":1151:1499  function widthdraw() public returns (bool){... */\n    tag_34:\n        /* \"contracts/SimpleAuction.sol\":1188:1192  bool */\n      0x00\n        /* \"contracts/SimpleAuction.sol\":1203:1214  uint amount */\n      dup1\n        /* \"contracts/SimpleAuction.sol\":1217:1231  pendingReturns */\n      0x04\n        /* \"contracts/SimpleAuction.sol\":1217:1243  pendingReturns[msg.sender] */\n      0x00\n        /* \"contracts/SimpleAuction.sol\":1232:1242  msg.sender */\n      caller\n        /* \"contracts/SimpleAuction.sol\":1217:1243  pendingReturns[msg.sender] */\n      0xffffffffffffffffffffffffffffffffffffffff\n      and\n      0xffffffffffffffffffffffffffffffffffffffff\n      and\n      dup2\n      mstore\n      0x20\n      add\n      swap1\n      dup2\n      mstore\n      0x20\n      add\n      0x00\n      keccak256\n      sload\n        /* \"contracts/SimpleAuction.sol\":1203:1243  uint amount = pendingReturns[msg.sender] */\n      swap1\n      pop\n        /* \"contracts/SimpleAuction.sol\":1266:1267  0 */\n      0x00\n        /* \"contracts/SimpleAuction.sol\":1257:1263  amount */\n      dup2\n        /* \"contracts/SimpleAuction.sol\":1257:1267  amount > 0 */\n      gt\n        /* \"contracts/SimpleAuction.sol\":1253:1472  if (amount > 0){... */\n      iszero\n      tag_60\n      jumpi\n        /* \"contracts/SimpleAuction.sol\":1310:1311  0 */\n      0x00\n        /* \"contracts/SimpleAuction.sol\":1282:1296  pendingReturns */\n      0x04\n        /* \"contracts/SimpleAuction.sol\":1282:1308  pendingReturns[msg.sender] */\n      0x00\n        /* \"contracts/SimpleAuction.sol\":1297:1307  msg.sender */\n      caller\n        /* \"contracts/SimpleAuction.sol\":1282:1308  pendingReturns[msg.sender] */\n      0xffffffffffffffffffffffffffffffffffffffff\n      and\n      0xffffffffffffffffffffffffffffffffffffffff\n      and\n      dup2\n      mstore\n      0x20\n      add\n      swap1\n      dup2\n      mstore\n      0x20\n      add\n      0x00\n      keccak256\n        /* \"contracts/SimpleAuction.sol\":1282:1311  pendingReturns[msg.sender]= 0 */\n      dup2\n      swap1\n      sstore\n      pop\n        /* \"contracts/SimpleAuction.sol\":1339:1349  msg.sender */\n      caller\n        /* \"contracts/SimpleAuction.sol\":1330:1355  payable (msg.sender).send */\n      0xffffffffffffffffffffffffffffffffffffffff\n      and\n        /* \"contracts/SimpleAuction.sol\":1330:1363  payable (msg.sender).send(amount) */\n      0x08fc\n        /* \"contracts/SimpleAuction.sol\":1356:1362  amount */\n      dup3\n        /* \"contracts/SimpleAuction.sol\":1330:1363  payable (msg.sender).send(amount) */\n      swap1\n      dup2\n      iszero\n      mul\n      swap1\n      mload(0x40)\n      0x00\n      mload(0x40)\n      dup1\n      dup4\n      sub\n      dup2\n      dup6\n      dup9\n      dup9\n      call\n      swap4\n      pop\n      pop\n      pop\n      pop\n        /* \"contracts/SimpleAuction.sol\":1326:1462  if(!payable (msg.sender).send(amount)){... */\n      tag_62\n      jumpi\n        /* \"contracts/SimpleAuction.sol\":1411:1417  amount */\n      dup1\n        /* \"contracts/SimpleAuction.sol\":1382:1396  pendingReturns */\n      0x04\n        /* \"contracts/SimpleAuction.sol\":1382:1408  pendingReturns[msg.sender] */\n      0x00\n        /* \"contracts/SimpleAuction.sol\":1397:1407  msg.sender */\n      caller\n        /* \"contracts/SimpleAuction.sol\":1382:1408  pendingReturns[msg.sender] */\n      0xffffffffffffffffffffffffffffffffffffffff\n      and\n      0xffffffffffffffffffffffffffffffffffffffff\n      and\n      dup2\n      mstore\n      0x20\n      add\n      swap1\n      dup2\n      mstore\n      0x20\n      add\n      0x00\n      keccak256\n        /* \"contracts/SimpleAuction.sol\":1382:1417  pendingReturns[msg.sender] = amount */\n      dup2\n      swap1\n      sstore\n      pop\n        /* \"contracts/SimpleAuction.sol\":1442:1447  false */\n      0x00\n        /* \"contracts/SimpleAuction.sol\":1435:1447  return false */\n      swap2\n      pop\n      pop\n      jump(tag_59)\n        /* \"contracts/SimpleAuction.sol\":1326:1462  if(!payable (msg.sender).send(amount)){... */\n    tag_62:\n        /* \"contracts/SimpleAuction.sol\":1253:1472  if (amount > 0){... */\n    tag_60:\n        /* \"contracts/SimpleAuction.sol\":1488:1492  true */\n      0x01\n        /* \"contracts/SimpleAuction.sol\":1481:1492  return true */\n      swap2\n      pop\n      pop\n        /* \"contracts/SimpleAuction.sol\":1151:1499  function widthdraw() public returns (bool){... */\n    tag_59:\n      swap1\n      jump\t// out\n        /* \"contracts/SimpleAuction.sol\":240:268  address public highestBidder */\n    tag_39:\n      0x02\n      0x00\n      swap1\n      sload\n      swap1\n      0x0100\n      exp\n      swap1\n      div\n      0xffffffffffffffffffffffffffffffffffffffff\n      and\n      dup2\n      jump\t// out\n        /* \"contracts/SimpleAuction.sol\":274:296  uint public highestBid */\n    tag_44:\n      sload(0x03)\n      dup2\n      jump\t// out\n        /* \"#utility.yul\":7:146   */\n    tag_64:\n        /* \"#utility.yul\":53:58   */\n      0x00\n        /* \"#utility.yul\":91:97   */\n      dup2\n        /* \"#utility.yul\":78:98   */\n      calldataload\n        /* \"#utility.yul\":69:98   */\n      swap1\n      pop\n        /* \"#utility.yul\":107:140   */\n      tag_66\n        /* \"#utility.yul\":134:139   */\n      dup2\n        /* \"#utility.yul\":107:140   */\n      tag_67\n      jump\t// in\n    tag_66:\n        /* \"#utility.yul\":7:146   */\n      swap3\n      swap2\n      pop\n      pop\n      jump\t// out\n        /* \"#utility.yul\":152:481   */\n    tag_16:\n        /* \"#utility.yul\":211:217   */\n      0x00\n        /* \"#utility.yul\":260:262   */\n      0x20\n        /* \"#utility.yul\":248:257   */\n      dup3\n        /* \"#utility.yul\":239:246   */\n      dup5\n        /* \"#utility.yul\":235:258   */\n      sub\n        /* \"#utility.yul\":231:263   */\n      slt\n        /* \"#utility.yul\":228:347   */\n      iszero\n      tag_69\n      jumpi\n        /* \"#utility.yul\":266:345   */\n      tag_70\n      tag_71\n      jump\t// in\n    tag_70:\n        /* \"#utility.yul\":228:347   */\n    tag_69:\n        /* \"#utility.yul\":386:387   */\n      0x00\n        /* \"#utility.yul\":411:464   */\n      tag_72\n        /* \"#utility.yul\":456:463   */\n      dup5\n        /* \"#utility.yul\":447:453   */\n      dup3\n        /* \"#utility.yul\":436:445   */\n      dup6\n        /* \"#utility.yul\":432:454   */\n      add\n        /* \"#utility.yul\":411:464   */\n      tag_64\n      jump\t// in\n    tag_72:\n        /* \"#utility.yul\":401:464   */\n      swap2\n      pop\n        /* \"#utility.yul\":357:474   */\n      pop\n        /* \"#utility.yul\":152:481   */\n      swap3\n      swap2\n      pop\n      pop\n      jump\t// out\n        /* \"#utility.yul\":487:629   */\n    tag_73:\n        /* \"#utility.yul\":590:622   */\n      tag_75\n        /* \"#utility.yul\":616:621   */\n      dup2\n        /* \"#utility.yul\":590:622   */\n      tag_76\n      jump\t// in\n    tag_75:\n        /* \"#utility.yul\":585:588   */\n      dup3\n        /* \"#utility.yul\":578:623   */\n      mstore\n        /* \"#utility.yul\":487:629   */\n      pop\n      pop\n      jump\t// out\n        /* \"#utility.yul\":635:753   */\n    tag_77:\n        /* \"#utility.yul\":722:746   */\n      tag_79\n        /* \"#utility.yul\":740:745   */\n      dup2\n        /* \"#utility.yul\":722:746   */\n      tag_80\n      jump\t// in\n    tag_79:\n        /* \"#utility.yul\":717:720   */\n      dup3\n        /* \"#utility.yul\":710:747   */\n      mstore\n        /* \"#utility.yul\":635:753   */\n      pop\n      pop\n      jump\t// out\n        /* \"#utility.yul\":759:868   */\n    tag_81:\n        /* \"#utility.yul\":840:861   */\n      tag_83\n        /* \"#utility.yul\":855:860   */\n      dup2\n        /* \"#utility.yul\":840:861   */\n      tag_84\n      jump\t// in\n    tag_83:\n        /* \"#utility.yul\":835:838   */\n      dup3\n        /* \"#utility.yul\":828:862   */\n      mstore\n        /* \"#utility.yul\":759:868   */\n      pop\n      pop\n      jump\t// out\n        /* \"#utility.yul\":874:1240   */\n    tag_85:\n        /* \"#utility.yul\":1016:1019   */\n      0x00\n        /* \"#utility.yul\":1037:1104   */\n      tag_87\n        /* \"#utility.yul\":1101:1103   */\n      0x26\n        /* \"#utility.yul\":1096:1099   */\n      dup4\n        /* \"#utility.yul\":1037:1104   */\n      tag_88\n      jump\t// in\n    tag_87:\n        /* \"#utility.yul\":1030:1104   */\n      swap2\n      pop\n        /* \"#utility.yul\":1113:1206   */\n      tag_89\n        /* \"#utility.yul\":1202:1205   */\n      dup3\n        /* \"#utility.yul\":1113:1206   */\n      tag_90\n      jump\t// in\n    tag_89:\n        /* \"#utility.yul\":1231:1233   */\n      0x40\n        /* \"#utility.yul\":1226:1229   */\n      dup3\n        /* \"#utility.yul\":1222:1234   */\n      add\n        /* \"#utility.yul\":1215:1234   */\n      swap1\n      pop\n        /* \"#utility.yul\":874:1240   */\n      swap2\n      swap1\n      pop\n      jump\t// out\n        /* \"#utility.yul\":1246:1612   */\n    tag_91:\n        /* \"#utility.yul\":1388:1391   */\n      0x00\n        /* \"#utility.yul\":1409:1476   */\n      tag_93\n        /* \"#utility.yul\":1473:1475   */\n      0x1d\n        /* \"#utility.yul\":1468:1471   */\n      dup4\n        /* \"#utility.yul\":1409:1476   */\n      tag_88\n      jump\t// in\n    tag_93:\n        /* \"#utility.yul\":1402:1476   */\n      swap2\n      pop\n        /* \"#utility.yul\":1485:1578   */\n      tag_94\n        /* \"#utility.yul\":1574:1577   */\n      dup3\n        /* \"#utility.yul\":1485:1578   */\n      tag_95\n      jump\t// in\n    tag_94:\n        /* \"#utility.yul\":1603:1605   */\n      0x20\n        /* \"#utility.yul\":1598:1601   */\n      dup3\n        /* \"#utility.yul\":1594:1606   */\n      add\n        /* \"#utility.yul\":1587:1606   */\n      swap1\n      pop\n        /* \"#utility.yul\":1246:1612   */\n      swap2\n      swap1\n      pop\n      jump\t// out\n        /* \"#utility.yul\":1618:1736   */\n    tag_96:\n        /* \"#utility.yul\":1705:1729   */\n      tag_98\n        /* \"#utility.yul\":1723:1728   */\n      dup2\n        /* \"#utility.yul\":1705:1729   */\n      tag_99\n      jump\t// in\n    tag_98:\n        /* \"#utility.yul\":1700:1703   */\n      dup3\n        /* \"#utility.yul\":1693:1730   */\n      mstore\n        /* \"#utility.yul\":1618:1736   */\n      pop\n      pop\n      jump\t// out\n        /* \"#utility.yul\":1742:1964   */\n    tag_41:\n        /* \"#utility.yul\":1835:1839   */\n      0x00\n        /* \"#utility.yul\":1873:1875   */\n      0x20\n        /* \"#utility.yul\":1862:1871   */\n      dup3\n        /* \"#utility.yul\":1858:1876   */\n      add\n        /* \"#utility.yul\":1850:1876   */\n      swap1\n      pop\n        /* \"#utility.yul\":1886:1957   */\n      tag_101\n        /* \"#utility.yul\":1954:1955   */\n      0x00\n        /* \"#utility.yul\":1943:1952   */\n      dup4\n        /* \"#utility.yul\":1939:1956   */\n      add\n        /* \"#utility.yul\":1930:1936   */\n      dup5\n        /* \"#utility.yul\":1886:1957   */\n      tag_77\n      jump\t// in\n    tag_101:\n        /* \"#utility.yul\":1742:1964   */\n      swap3\n      swap2\n      pop\n      pop\n      jump\t// out\n        /* \"#utility.yul\":1970:2224   */\n    tag_27:\n        /* \"#utility.yul\":2079:2083   */\n      0x00\n        /* \"#utility.yul\":2117:2119   */\n      0x20\n        /* \"#utility.yul\":2106:2115   */\n      dup3\n        /* \"#utility.yul\":2102:2120   */\n      add\n        /* \"#utility.yul\":2094:2120   */\n      swap1\n      pop\n        /* \"#utility.yul\":2130:2217   */\n      tag_103\n        /* \"#utility.yul\":2214:2215   */\n      0x00\n        /* \"#utility.yul\":2203:2212   */\n      dup4\n        /* \"#utility.yul\":2199:2216   */\n      add\n        /* \"#utility.yul\":2190:2196   */\n      dup5\n        /* \"#utility.yul\":2130:2217   */\n      tag_73\n      jump\t// in\n    tag_103:\n        /* \"#utility.yul\":1970:2224   */\n      swap3\n      swap2\n      pop\n      pop\n      jump\t// out\n        /* \"#utility.yul\":2230:2562   */\n    tag_57:\n        /* \"#utility.yul\":2351:2355   */\n      0x00\n        /* \"#utility.yul\":2389:2391   */\n      0x40\n        /* \"#utility.yul\":2378:2387   */\n      dup3\n        /* \"#utility.yul\":2374:2392   */\n      add\n        /* \"#utility.yul\":2366:2392   */\n      swap1\n      pop\n        /* \"#utility.yul\":2402:2473   */\n      tag_105\n        /* \"#utility.yul\":2470:2471   */\n      0x00\n        /* \"#utility.yul\":2459:2468   */\n      dup4\n        /* \"#utility.yul\":2455:2472   */\n      add\n        /* \"#utility.yul\":2446:2452   */\n      dup6\n        /* \"#utility.yul\":2402:2473   */\n      tag_77\n      jump\t// in\n    tag_105:\n        /* \"#utility.yul\":2483:2555   */\n      tag_106\n        /* \"#utility.yul\":2551:2553   */\n      0x20\n        /* \"#utility.yul\":2540:2549   */\n      dup4\n        /* \"#utility.yul\":2536:2554   */\n      add\n        /* \"#utility.yul\":2527:2533   */\n      dup5\n        /* \"#utility.yul\":2483:2555   */\n      tag_96\n      jump\t// in\n    tag_106:\n        /* \"#utility.yul\":2230:2562   */\n      swap4\n      swap3\n      pop\n      pop\n      pop\n      jump\t// out\n        /* \"#utility.yul\":2568:2778   */\n    tag_36:\n        /* \"#utility.yul\":2655:2659   */\n      0x00\n        /* \"#utility.yul\":2693:2695   */\n      0x20\n        /* \"#utility.yul\":2682:2691   */\n      dup3\n        /* \"#utility.yul\":2678:2696   */\n      add\n        /* \"#utility.yul\":2670:2696   */\n      swap1\n      pop\n        /* \"#utility.yul\":2706:2771   */\n      tag_108\n        /* \"#utility.yul\":2768:2769   */\n      0x00\n        /* \"#utility.yul\":2757:2766   */\n      dup4\n        /* \"#utility.yul\":2753:2770   */\n      add\n        /* \"#utility.yul\":2744:2750   */\n      dup5\n        /* \"#utility.yul\":2706:2771   */\n      tag_81\n      jump\t// in\n    tag_108:\n        /* \"#utility.yul\":2568:2778   */\n      swap3\n      swap2\n      pop\n      pop\n      jump\t// out\n        /* \"#utility.yul\":2784:3203   */\n    tag_52:\n        /* \"#utility.yul\":2950:2954   */\n      0x00\n        /* \"#utility.yul\":2988:2990   */\n      0x20\n        /* \"#utility.yul\":2977:2986   */\n      dup3\n        /* \"#utility.yul\":2973:2991   */\n      add\n        /* \"#utility.yul\":2965:2991   */\n      swap1\n      pop\n        /* \"#utility.yul\":3037:3046   */\n      dup2\n        /* \"#utility.yul\":3031:3035   */\n      dup2\n        /* \"#utility.yul\":3027:3047   */\n      sub\n        /* \"#utility.yul\":3023:3024   */\n      0x00\n        /* \"#utility.yul\":3012:3021   */\n      dup4\n        /* \"#utility.yul\":3008:3025   */\n      add\n        /* \"#utility.yul\":3001:3048   */\n      mstore\n        /* \"#utility.yul\":3065:3196   */\n      tag_110\n        /* \"#utility.yul\":3191:3195   */\n      dup2\n        /* \"#utility.yul\":3065:3196   */\n      tag_85\n      jump\t// in\n    tag_110:\n        /* \"#utility.yul\":3057:3196   */\n      swap1\n      pop\n        /* \"#utility.yul\":2784:3203   */\n      swap2\n      swap1\n      pop\n      jump\t// out\n        /* \"#utility.yul\":3209:3628   */\n    tag_49:\n        /* \"#utility.yul\":3375:3379   */\n      0x00\n        /* \"#utility.yul\":3413:3415   */\n      0x20\n        /* \"#utility.yul\":3402:3411   */\n      dup3\n        /* \"#utility.yul\":3398:3416   */\n      add\n        /* \"#utility.yul\":3390:3416   */\n      swap1\n      pop\n        /* \"#utility.yul\":3462:3471   */\n      dup2\n        /* \"#utility.yul\":3456:3460   */\n      dup2\n        /* \"#utility.yul\":3452:3472   */\n      sub\n        /* \"#utility.yul\":3448:3449   */\n      0x00\n        /* \"#utility.yul\":3437:3446   */\n      dup4\n        /* \"#utility.yul\":3433:3450   */\n      add\n        /* \"#utility.yul\":3426:3473   */\n      mstore\n        /* \"#utility.yul\":3490:3621   */\n      tag_112\n        /* \"#utility.yul\":3616:3620   */\n      dup2\n        /* \"#utility.yul\":3490:3621   */\n      tag_91\n      jump\t// in\n    tag_112:\n        /* \"#utility.yul\":3482:3621   */\n      swap1\n      pop\n        /* \"#utility.yul\":3209:3628   */\n      swap2\n      swap1\n      pop\n      jump\t// out\n        /* \"#utility.yul\":3634:3856   */\n    tag_19:\n        /* \"#utility.yul\":3727:3731   */\n      0x00\n        /* \"#utility.yul\":3765:3767   */\n      0x20\n        /* \"#utility.yul\":3754:3763   */\n      dup3\n        /* \"#utility.yul\":3750:3768   */\n      add\n        /* \"#utility.yul\":3742:3768   */\n      swap1\n      pop\n        /* \"#utility.yul\":3778:3849   */\n      tag_114\n        /* \"#utility.yul\":3846:3847   */\n      0x00\n        /* \"#utility.yul\":3835:3844   */\n      dup4\n        /* \"#utility.yul\":3831:3848   */\n      add\n        /* \"#utility.yul\":3822:3828   */\n      dup5\n        /* \"#utility.yul\":3778:3849   */\n      tag_96\n      jump\t// in\n    tag_114:\n        /* \"#utility.yul\":3634:3856   */\n      swap3\n      swap2\n      pop\n      pop\n      jump\t// out\n        /* \"#utility.yul\":3943:4112   */\n    tag_88:\n        /* \"#utility.yul\":4027:4038   */\n      0x00\n        /* \"#utility.yul\":4061:4067   */\n      dup3\n        /* \"#utility.yul\":4056:4059   */\n      dup3\n        /* \"#utility.yul\":4049:4068   */\n      mstore\n        /* \"#utility.yul\":4101:4105   */\n      0x20\n        /* \"#utility.yul\":4096:4099   */\n      dup3\n        /* \"#utility.yul\":4092:4106   */\n      add\n        /* \"#utility.yul\":4077:4106   */\n      swap1\n      pop\n        /* \"#utility.yul\":3943:4112   */\n      swap3\n      swap2\n      pop\n      pop\n      jump\t// out\n        /* \"#utility.yul\":4118:4423   */\n    tag_55:\n        /* \"#utility.yul\":4158:4161   */\n      0x00\n        /* \"#utility.yul\":4177:4197   */\n      tag_119\n        /* \"#utility.yul\":4195:4196   */\n      dup3\n        /* \"#utility.yul\":4177:4197   */\n      tag_99\n      jump\t// in\n    tag_119:\n        /* \"#utility.yul\":4172:4197   */\n      swap2\n      pop\n        /* \"#utility.yul\":4211:4231   */\n      tag_120\n        /* \"#utility.yul\":4229:4230   */\n      dup4\n        /* \"#utility.yul\":4211:4231   */\n      tag_99\n      jump\t// in\n    tag_120:\n        /* \"#utility.yul\":4206:4231   */\n      swap3\n      pop\n        /* \"#utility.yul\":4365:4366   */\n      dup3\n        /* \"#utility.yul\":4297:4363   */\n      0xffffffffffffffffffffffffffffffffffffffffffffffffffffffffffffffff\n        /* \"#utility.yul\":4293:4367   */\n      sub\n        /* \"#utility.yul\":4290:4291   */\n      dup3\n        /* \"#utility.yul\":4287:4368   */\n      gt\n        /* \"#utility.yul\":4284:4391   */\n      iszero\n      tag_121\n      jumpi\n        /* \"#utility.yul\":4371:4389   */\n      tag_122\n      tag_123\n      jump\t// in\n    tag_122:\n        /* \"#utility.yul\":4284:4391   */\n    tag_121:\n        /* \"#utility.yul\":4415:4416   */\n      dup3\n        /* \"#utility.yul\":4412:4413   */\n      dup3\n        /* \"#utility.yul\":4408:4417   */\n      add\n        /* \"#utility.yul\":4401:4417   */\n      swap1\n      pop\n        /* \"#utility.yul\":4118:4423   */\n      swap3\n      swap2\n      pop\n      pop\n      jump\t// out\n        /* \"#utility.yul\":4429:4525   */\n    tag_80:\n        /* \"#utility.yul\":4466:4473   */\n      0x00\n        /* \"#utility.yul\":4495:4519   */\n      tag_125\n        /* \"#utility.yul\":4513:4518   */\n      dup3\n        /* \"#utility.yul\":4495:4519   */\n      tag_126\n      jump\t// in\n    tag_125:\n        /* \"#utility.yul\":4484:4519   */\n      swap1\n      pop\n        /* \"#utility.yul\":4429:4525   */\n      swap2\n      swap1\n      pop\n      jump\t// out\n        /* \"#utility.yul\":4531:4635   */\n    tag_76:\n        /* \"#utility.yul\":4576:4583   */\n      0x00\n        /* \"#utility.yul\":4605:4629   */\n      tag_128\n        /* \"#utility.yul\":4623:4628   */\n      dup3\n        /* \"#utility.yul\":4605:4629   */\n      tag_126\n      jump\t// in\n    tag_128:\n        /* \"#utility.yul\":4594:4629   */\n      swap1\n      pop\n        /* \"#utility.yul\":4531:4635   */\n      swap2\n      swap1\n      pop\n      jump\t// out\n        /* \"#utility.yul\":4641:4731   */\n    tag_84:\n        /* \"#utility.yul\":4675:4682   */\n      0x00\n        /* \"#utility.yul\":4718:4723   */\n      dup2\n        /* \"#utility.yul\":4711:4724   */\n      iszero\n        /* \"#utility.yul\":4704:4725   */\n      iszero\n        /* \"#utility.yul\":4693:4725   */\n      swap1\n      pop\n        /* \"#utility.yul\":4641:4731   */\n      swap2\n      swap1\n      pop\n      jump\t// out\n        /* \"#utility.yul\":4737:4863   */\n    tag_126:\n        /* \"#utility.yul\":4774:4781   */\n      0x00\n        /* \"#utility.yul\":4814:4856   */\n      0xffffffffffffffffffffffffffffffffffffffff\n        /* \"#utility.yul\":4807:4812   */\n      dup3\n        /* \"#utility.yul\":4803:4857   */\n      and\n        /* \"#utility.yul\":4792:4857   */\n      swap1\n      pop\n        /* \"#utility.yul\":4737:4863   */\n      swap2\n      swap1\n      pop\n      jump\t// out\n        /* \"#utility.yul\":4869:4946   */\n    tag_99:\n        /* \"#utility.yul\":4906:4913   */\n      0x00\n        /* \"#utility.yul\":4935:4940   */\n      dup2\n        /* \"#utility.yul\":4924:4940   */\n      swap1\n      pop\n        /* \"#utility.yul\":4869:4946   */\n      swap2\n      swap1\n      pop\n      jump\t// out\n        /* \"#utility.yul\":4952:5132   */\n    tag_123:\n        /* \"#utility.yul\":5000:5077   */\n      0x4e487b7100000000000000000000000000000000000000000000000000000000\n        /* \"#utility.yul\":4997:4998   */\n      0x00\n        /* \"#utility.yul\":4990:5078   */\n      mstore\n        /* \"#utility.yul\":5097:5101   */\n      0x11\n        /* \"#utility.yul\":5094:5095   */\n      0x04\n        /* \"#utility.yul\":5087:5102   */\n      mstore\n        /* \"#utility.yul\":5121:5125   */\n      0x24\n        /* \"#utility.yul\":5118:5119   */\n      0x00\n        /* \"#utility.yul\":5111:5126   */\n      revert\n        /* \"#utility.yul\":5261:5378   */\n    tag_71:\n        /* \"#utility.yul\":5370:5371   */\n      0x00\n        /* \"#utility.yul\":5367:5368   */\n      dup1\n        /* \"#utility.yul\":5360:5372   */\n      revert\n        /* \"#utility.yul\":5384:5609   */\n    tag_90:\n        /* \"#utility.yul\":5524:5558   */\n      0x546865726520697320616c7265616479206120686967686572206f7220657175\n        /* \"#utility.yul\":5520:5521   */\n      0x00\n        /* \"#utility.yul\":5512:5518   */\n      dup3\n        /* \"#utility.yul\":5508:5522   */\n      add\n        /* \"#utility.yul\":5501:5559   */\n      mstore\n        /* \"#utility.yul\":5593:5601   */\n      0x616c206269640000000000000000000000000000000000000000000000000000\n        /* \"#utility.yul\":5588:5590   */\n      0x20\n        /* \"#utility.yul\":5580:5586   */\n      dup3\n        /* \"#utility.yul\":5576:5591   */\n      add\n        /* \"#utility.yul\":5569:5602   */\n      mstore\n        /* \"#utility.yul\":5384:5609   */\n      pop\n      jump\t// out\n        /* \"#utility.yul\":5615:5794   */\n    tag_95:\n        /* \"#utility.yul\":5755:5786   */\n      0x5468652061756374696f6e2068617320616c726561647920656e646564000000\n        /* \"#utility.yul\":5751:5752   */\n      0x00\n        /* \"#utility.yul\":5743:5749   */\n      dup3\n        /* \"#utility.yul\":5739:5753   */\n      add\n        /* \"#utility.yul\":5732:5787   */\n      mstore\n        /* \"#utility.yul\":5615:5794   */\n      pop\n      jump\t// out\n        /* \"#utility.yul\":5800:5922   */\n    tag_67:\n        /* \"#utility.yul\":5873:5897   */\n      tag_139\n        /* \"#utility.yul\":5891:5896   */\n      dup2\n        /* \"#utility.yul\":5873:5897   */\n      tag_80\n      jump\t// in\n    tag_139:\n        /* \"#utility.yul\":5866:5871   */\n      dup2\n        /* \"#utility.yul\":5863:5898   */\n      eq\n        /* \"#utility.yul\":5853:5916   */\n      tag_140\n      jumpi\n        /* \"#utility.yul\":5912:5913   */\n      0x00\n        /* \"#utility.yul\":5909:5910   */\n      dup1\n        /* \"#utility.yul\":5902:5914   */\n      revert\n        /* \"#utility.yul\":5853:5916   */\n    tag_140:\n        /* \"#utility.yul\":5800:5922   */\n      pop\n      jump\t// out\n\n    auxdata: 0xa2646970667358221220c33ff8980463a24d75557bd695b410961054d8328ea84d2e82d738e81ee6747764736f6c63430008070033\n}\n",
				"bytecode": {
					"linkReferences": {},
					"object": "60806040526000600560006101000a81548160ff0219169083151502179055503480156200002c57600080fd5b5060405162000a6338038062000a638339818101604052810190620000529190620000dc565b806000806101000a81548173ffffffffffffffffffffffffffffffffffffffff021916908373ffffffffffffffffffffffffffffffffffffffff1602179055508142620000a0919062000123565b600181905550505062000226565b600081519050620000bf81620001f2565b92915050565b600081519050620000d6816200020c565b92915050565b60008060408385031215620000f657620000f5620001ed565b5b60006200010685828601620000c5565b92505060206200011985828601620000ae565b9150509250929050565b60006200013082620001b4565b91506200013d83620001b4565b9250827fffffffffffffffffffffffffffffffffffffffffffffffffffffffffffffffff03821115620001755762000174620001be565b5b828201905092915050565b60006200018d8262000194565b9050919050565b600073ffffffffffffffffffffffffffffffffffffffff82169050919050565b6000819050919050565b7f4e487b7100000000000000000000000000000000000000000000000000000000600052601160045260246000fd5b600080fd5b620001fd8162000180565b81146200020957600080fd5b50565b6200021781620001b4565b81146200022357600080fd5b50565b61082d80620002366000396000f3fe60806040526004361061007b5760003560e01c80634b449cba1161004e5780634b449cba1461010957806352b50a2a1461013457806391f901571461015f578063d57bde791461018a5761007b565b80631998aeef1461008057806326b387bb1461008a5780632a24f46c146100c757806338af3eed146100de575b600080fd5b6100886101b5565b005b34801561009657600080fd5b506100b160048036038101906100ac91906104ef565b610346565b6040516100be9190610658565b60405180910390f35b3480156100d357600080fd5b506100dc61035e565b005b3480156100ea57600080fd5b506100f3610360565b60405161010091906105b9565b60405180910390f35b34801561011557600080fd5b5061011e610384565b60405161012b9190610658565b60405180910390f35b34801561014057600080fd5b5061014961038a565b60405161015691906105fd565b60405180910390f35b34801561016b57600080fd5b506101746104ae565b604051610181919061059e565b60405180910390f35b34801561019657600080fd5b5061019f6104d4565b6040516101ac9190610658565b60405180910390f35b6001544211156101fa576040517f08c379a00000000000000000000000000000000000000000000000000000000081526004016101f190610638565b60405180910390fd5b600354341161023e576040517f08c379a000000000000000000000000000000000000000000000000000000000815260040161023590610618565b60405180910390fd5b6000600354146102c35760035460046000600260009054906101000a900473ffffffffffffffffffffffffffffffffffffffff1673ffffffffffffffffffffffffffffffffffffffff1673ffffffffffffffffffffffffffffffffffffffff16815260200190815260200160002060008282546102bb9190610684565b925050819055505b33600260006101000a81548173ffffffffffffffffffffffffffffffffffffffff021916908373ffffffffffffffffffffffffffffffffffffffff160217905550346003819055507fdfea07ab8527bd08519bfa633240757a7bb0a7f3c7adc98e30604ba73c70f429333460405161033c9291906105d4565b60405180910390a1565b60046020528060005260406000206000915090505481565b565b60008054906101000a900473ffffffffffffffffffffffffffffffffffffffff1681565b60015481565b600080600460003373ffffffffffffffffffffffffffffffffffffffff1673ffffffffffffffffffffffffffffffffffffffff16815260200190815260200160002054905060008111156104a5576000600460003373ffffffffffffffffffffffffffffffffffffffff1673ffffffffffffffffffffffffffffffffffffffff168152602001908152602001600020819055503373ffffffffffffffffffffffffffffffffffffffff166108fc829081150290604051600060405180830381858888f193505050506104a45780600460003373ffffffffffffffffffffffffffffffffffffffff1673ffffffffffffffffffffffffffffffffffffffff1681526020019081526020016000208190555060009150506104ab565b5b60019150505b90565b600260009054906101000a900473ffffffffffffffffffffffffffffffffffffffff1681565b60035481565b6000813590506104e9816107e0565b92915050565b60006020828403121561050557610504610763565b5b6000610513848285016104da565b91505092915050565b610525816106ec565b82525050565b610534816106da565b82525050565b610543816106fe565b82525050565b6000610556602683610673565b915061056182610768565b604082019050919050565b6000610579601d83610673565b9150610584826107b7565b602082019050919050565b6105988161072a565b82525050565b60006020820190506105b3600083018461052b565b92915050565b60006020820190506105ce600083018461051c565b92915050565b60006040820190506105e9600083018561052b565b6105f6602083018461058f565b9392505050565b6000602082019050610612600083018461053a565b92915050565b6000602082019050818103600083015261063181610549565b9050919050565b600060208201905081810360008301526106518161056c565b9050919050565b600060208201905061066d600083018461058f565b92915050565b600082825260208201905092915050565b600061068f8261072a565b915061069a8361072a565b9250827fffffffffffffffffffffffffffffffffffffffffffffffffffffffffffffffff038211156106cf576106ce610734565b5b828201905092915050565b60006106e58261070a565b9050919050565b60006106f78261070a565b9050919050565b60008115159050919050565b600073ffffffffffffffffffffffffffffffffffffffff82169050919050565b6000819050919050565b7f4e487b7100000000000000000000000000000000000000000000000000000000600052601160045260246000fd5b600080fd5b7f546865726520697320616c7265616479206120686967686572206f722065717560008201527f616c206269640000000000000000000000000000000000000000000000000000602082015250565b7f5468652061756374696f6e2068617320616c726561647920656e646564000000600082015250565b6107e9816106da565b81146107f457600080fd5b5056fea2646970667358221220c33ff8980463a24d75557bd695b410961054d8328ea84d2e82d738e81ee6747764736f6c63430008070033",
					"opcodes": "PUSH1 0x80 PUSH1 0x40 MSTORE PUSH1 0x0 PUSH1 0x5 PUSH1 0x0 PUSH2 0x100 EXP DUP2 SLOAD DUP2 PUSH1 0xFF MUL NOT AND SWAP1 DUP4 ISZERO ISZERO MUL OR SWAP1 SSTORE POP CALLVALUE DUP1 ISZERO PUSH3 0x2C JUMPI PUSH1 0x0 DUP1 REVERT JUMPDEST POP PUSH1 0x40 MLOAD PUSH3 0xA63 CODESIZE SUB DUP1 PUSH3 0xA63 DUP4 CODECOPY DUP2 DUP2 ADD PUSH1 0x40 MSTORE DUP2 ADD SWAP1 PUSH3 0x52 SWAP2 SWAP1 PUSH3 0xDC JUMP JUMPDEST DUP1 PUSH1 0x0 DUP1 PUSH2 0x100 EXP DUP2 SLOAD DUP2 PUSH20 0xFFFFFFFFFFFFFFFFFFFFFFFFFFFFFFFFFFFFFFFF MUL NOT AND SWAP1 DUP4 PUSH20 0xFFFFFFFFFFFFFFFFFFFFFFFFFFFFFFFFFFFFFFFF AND MUL OR SWAP1 SSTORE POP DUP2 TIMESTAMP PUSH3 0xA0 SWAP2 SWAP1 PUSH3 0x123 JUMP JUMPDEST PUSH1 0x1 DUP2 SWAP1 SSTORE POP POP POP PUSH3 0x226 JUMP JUMPDEST PUSH1 0x0 DUP2 MLOAD SWAP1 POP PUSH3 0xBF DUP2 PUSH3 0x1F2 JUMP JUMPDEST SWAP3 SWAP2 POP POP JUMP JUMPDEST PUSH1 0x0 DUP2 MLOAD SWAP1 POP PUSH3 0xD6 DUP2 PUSH3 0x20C JUMP JUMPDEST SWAP3 SWAP2 POP POP JUMP JUMPDEST PUSH1 0x0 DUP1 PUSH1 0x40 DUP4 DUP6 SUB SLT ISZERO PUSH3 0xF6 JUMPI PUSH3 0xF5 PUSH3 0x1ED JUMP JUMPDEST JUMPDEST PUSH1 0x0 PUSH3 0x106 DUP6 DUP3 DUP7 ADD PUSH3 0xC5 JUMP JUMPDEST SWAP3 POP POP PUSH1 0x20 PUSH3 0x119 DUP6 DUP3 DUP7 ADD PUSH3 0xAE JUMP JUMPDEST SWAP2 POP POP SWAP3 POP SWAP3 SWAP1 POP JUMP JUMPDEST PUSH1 0x0 PUSH3 0x130 DUP3 PUSH3 0x1B4 JUMP JUMPDEST SWAP2 POP PUSH3 0x13D DUP4 PUSH3 0x1B4 JUMP JUMPDEST SWAP3 POP DUP3 PUSH32 0xFFFFFFFFFFFFFFFFFFFFFFFFFFFFFFFFFFFFFFFFFFFFFFFFFFFFFFFFFFFFFFFF SUB DUP3 GT ISZERO PUSH3 0x175 JUMPI PUSH3 0x174 PUSH3 0x1BE JUMP JUMPDEST JUMPDEST DUP3 DUP3 ADD SWAP1 POP SWAP3 SWAP2 POP POP JUMP JUMPDEST PUSH1 0x0 PUSH3 0x18D DUP3 PUSH3 0x194 JUMP JUMPDEST SWAP1 POP SWAP2 SWAP1 POP JUMP JUMPDEST PUSH1 0x0 PUSH20 0xFFFFFFFFFFFFFFFFFFFFFFFFFFFFFFFFFFFFFFFF DUP3 AND SWAP1 POP SWAP2 SWAP1 POP JUMP JUMPDEST PUSH1 0x0 DUP2 SWAP1 POP SWAP2 SWAP1 POP JUMP JUMPDEST PUSH32 0x4E487B7100000000000000000000000000000000000000000000000000000000 PUSH1 0x0 MSTORE PUSH1 0x11 PUSH1 0x4 MSTORE PUSH1 0x24 PUSH1 0x0 REVERT JUMPDEST PUSH1 0x0 DUP1 REVERT JUMPDEST PUSH3 0x1FD DUP2 PUSH3 0x180 JUMP JUMPDEST DUP2 EQ PUSH3 0x209 JUMPI PUSH1 0x0 DUP1 REVERT JUMPDEST POP JUMP JUMPDEST PUSH3 0x217 DUP2 PUSH3 0x1B4 JUMP JUMPDEST DUP2 EQ PUSH3 0x223 JUMPI PUSH1 0x0 DUP1 REVERT JUMPDEST POP JUMP JUMPDEST PUSH2 0x82D DUP1 PUSH3 0x236 PUSH1 0x0 CODECOPY PUSH1 0x0 RETURN INVALID PUSH1 0x80 PUSH1 0x40 MSTORE PUSH1 0x4 CALLDATASIZE LT PUSH2 0x7B JUMPI PUSH1 0x0 CALLDATALOAD PUSH1 0xE0 SHR DUP1 PUSH4 0x4B449CBA GT PUSH2 0x4E JUMPI DUP1 PUSH4 0x4B449CBA EQ PUSH2 0x109 JUMPI DUP1 PUSH4 0x52B50A2A EQ PUSH2 0x134 JUMPI DUP1 PUSH4 0x91F90157 EQ PUSH2 0x15F JUMPI DUP1 PUSH4 0xD57BDE79 EQ PUSH2 0x18A JUMPI PUSH2 0x7B JUMP JUMPDEST DUP1 PUSH4 0x1998AEEF EQ PUSH2 0x80 JUMPI DUP1 PUSH4 0x26B387BB EQ PUSH2 0x8A JUMPI DUP1 PUSH4 0x2A24F46C EQ PUSH2 0xC7 JUMPI DUP1 PUSH4 0x38AF3EED EQ PUSH2 0xDE JUMPI JUMPDEST PUSH1 0x0 DUP1 REVERT JUMPDEST PUSH2 0x88 PUSH2 0x1B5 JUMP JUMPDEST STOP JUMPDEST CALLVALUE DUP1 ISZERO PUSH2 0x96 JUMPI PUSH1 0x0 DUP1 REVERT JUMPDEST POP PUSH2 0xB1 PUSH1 0x4 DUP1 CALLDATASIZE SUB DUP2 ADD SWAP1 PUSH2 0xAC SWAP2 SWAP1 PUSH2 0x4EF JUMP JUMPDEST PUSH2 0x346 JUMP JUMPDEST PUSH1 0x40 MLOAD PUSH2 0xBE SWAP2 SWAP1 PUSH2 0x658 JUMP JUMPDEST PUSH1 0x40 MLOAD DUP1 SWAP2 SUB SWAP1 RETURN JUMPDEST CALLVALUE DUP1 ISZERO PUSH2 0xD3 JUMPI PUSH1 0x0 DUP1 REVERT JUMPDEST POP PUSH2 0xDC PUSH2 0x35E JUMP JUMPDEST STOP JUMPDEST CALLVALUE DUP1 ISZERO PUSH2 0xEA JUMPI PUSH1 0x0 DUP1 REVERT JUMPDEST POP PUSH2 0xF3 PUSH2 0x360 JUMP JUMPDEST PUSH1 0x40 MLOAD PUSH2 0x100 SWAP2 SWAP1 PUSH2 0x5B9 JUMP JUMPDEST PUSH1 0x40 MLOAD DUP1 SWAP2 SUB SWAP1 RETURN JUMPDEST CALLVALUE DUP1 ISZERO PUSH2 0x115 JUMPI PUSH1 0x0 DUP1 REVERT JUMPDEST POP PUSH2 0x11E PUSH2 0x384 JUMP JUMPDEST PUSH1 0x40 MLOAD PUSH2 0x12B SWAP2 SWAP1 PUSH2 0x658 JUMP JUMPDEST PUSH1 0x40 MLOAD DUP1 SWAP2 SUB SWAP1 RETURN JUMPDEST CALLVALUE DUP1 ISZERO PUSH2 0x140 JUMPI PUSH1 0x0 DUP1 REVERT JUMPDEST POP PUSH2 0x149 PUSH2 0x38A JUMP JUMPDEST PUSH1 0x40 MLOAD PUSH2 0x156 SWAP2 SWAP1 PUSH2 0x5FD JUMP JUMPDEST PUSH1 0x40 MLOAD DUP1 SWAP2 SUB SWAP1 RETURN JUMPDEST CALLVALUE DUP1 ISZERO PUSH2 0x16B JUMPI PUSH1 0x0 DUP1 REVERT JUMPDEST POP PUSH2 0x174 PUSH2 0x4AE JUMP JUMPDEST PUSH1 0x40 MLOAD PUSH2 0x181 SWAP2 SWAP1 PUSH2 0x59E JUMP JUMPDEST PUSH1 0x40 MLOAD DUP1 SWAP2 SUB SWAP1 RETURN JUMPDEST CALLVALUE DUP1 ISZERO PUSH2 0x196 JUMPI PUSH1 0x0 DUP1 REVERT JUMPDEST POP PUSH2 0x19F PUSH2 0x4D4 JUMP JUMPDEST PUSH1 0x40 MLOAD PUSH2 0x1AC SWAP2 SWAP1 PUSH2 0x658 JUMP JUMPDEST PUSH1 0x40 MLOAD DUP1 SWAP2 SUB SWAP1 RETURN JUMPDEST PUSH1 0x1 SLOAD TIMESTAMP GT ISZERO PUSH2 0x1FA JUMPI PUSH1 0x40 MLOAD PUSH32 0x8C379A000000000000000000000000000000000000000000000000000000000 DUP2 MSTORE PUSH1 0x4 ADD PUSH2 0x1F1 SWAP1 PUSH2 0x638 JUMP JUMPDEST PUSH1 0x40 MLOAD DUP1 SWAP2 SUB SWAP1 REVERT JUMPDEST PUSH1 0x3 SLOAD CALLVALUE GT PUSH2 0x23E JUMPI PUSH1 0x40 MLOAD PUSH32 0x8C379A000000000000000000000000000000000000000000000000000000000 DUP2 MSTORE PUSH1 0x4 ADD PUSH2 0x235 SWAP1 PUSH2 0x618 JUMP JUMPDEST PUSH1 0x40 MLOAD DUP1 SWAP2 SUB SWAP1 REVERT JUMPDEST PUSH1 0x0 PUSH1 0x3 SLOAD EQ PUSH2 0x2C3 JUMPI PUSH1 0x3 SLOAD PUSH1 0x4 PUSH1 0x0 PUSH1 0x2 PUSH1 0x0 SWAP1 SLOAD SWAP1 PUSH2 0x100 EXP SWAP1 DIV PUSH20 0xFFFFFFFFFFFFFFFFFFFFFFFFFFFFFFFFFFFFFFFF AND PUSH20 0xFFFFFFFFFFFFFFFFFFFFFFFFFFFFFFFFFFFFFFFF AND PUSH20 0xFFFFFFFFFFFFFFFFFFFFFFFFFFFFFFFFFFFFFFFF AND DUP2 MSTORE PUSH1 0x20 ADD SWAP1 DUP2 MSTORE PUSH1 0x20 ADD PUSH1 0x0 KECCAK256 PUSH1 0x0 DUP3 DUP3 SLOAD PUSH2 0x2BB SWAP2 SWAP1 PUSH2 0x684 JUMP JUMPDEST SWAP3 POP POP DUP2 SWAP1 SSTORE POP JUMPDEST CALLER PUSH1 0x2 PUSH1 0x0 PUSH2 0x100 EXP DUP2 SLOAD DUP2 PUSH20 0xFFFFFFFFFFFFFFFFFFFFFFFFFFFFFFFFFFFFFFFF MUL NOT AND SWAP1 DUP4 PUSH20 0xFFFFFFFFFFFFFFFFFFFFFFFFFFFFFFFFFFFFFFFF AND MUL OR SWAP1 SSTORE POP CALLVALUE PUSH1 0x3 DUP2 SWAP1 SSTORE POP PUSH32 0xDFEA07AB8527BD08519BFA633240757A7BB0A7F3C7ADC98E30604BA73C70F429 CALLER CALLVALUE PUSH1 0x40 MLOAD PUSH2 0x33C SWAP3 SWAP2 SWAP1 PUSH2 0x5D4 JUMP JUMPDEST PUSH1 0x40 MLOAD DUP1 SWAP2 SUB SWAP1 LOG1 JUMP JUMPDEST PUSH1 0x4 PUSH1 0x20 MSTORE DUP1 PUSH1 0x0 MSTORE PUSH1 0x40 PUSH1 0x0 KECCAK256 PUSH1 0x0 SWAP2 POP SWAP1 POP SLOAD DUP2 JUMP JUMPDEST JUMP JUMPDEST PUSH1 0x0 DUP1 SLOAD SWAP1 PUSH2 0x100 EXP SWAP1 DIV PUSH20 0xFFFFFFFFFFFFFFFFFFFFFFFFFFFFFFFFFFFFFFFF AND DUP2 JUMP JUMPDEST PUSH1 0x1 SLOAD DUP2 JUMP JUMPDEST PUSH1 0x0 DUP1 PUSH1 0x4 PUSH1 0x0 CALLER PUSH20 0xFFFFFFFFFFFFFFFFFFFFFFFFFFFFFFFFFFFFFFFF AND PUSH20 0xFFFFFFFFFFFFFFFFFFFFFFFFFFFFFFFFFFFFFFFF AND DUP2 MSTORE PUSH1 0x20 ADD SWAP1 DUP2 MSTORE PUSH1 0x20 ADD PUSH1 0x0 KECCAK256 SLOAD SWAP1 POP PUSH1 0x0 DUP2 GT ISZERO PUSH2 0x4A5 JUMPI PUSH1 0x0 PUSH1 0x4 PUSH1 0x0 CALLER PUSH20 0xFFFFFFFFFFFFFFFFFFFFFFFFFFFFFFFFFFFFFFFF AND PUSH20 0xFFFFFFFFFFFFFFFFFFFFFFFFFFFFFFFFFFFFFFFF AND DUP2 MSTORE PUSH1 0x20 ADD SWAP1 DUP2 MSTORE PUSH1 0x20 ADD PUSH1 0x0 KECCAK256 DUP2 SWAP1 SSTORE POP CALLER PUSH20 0xFFFFFFFFFFFFFFFFFFFFFFFFFFFFFFFFFFFFFFFF AND PUSH2 0x8FC DUP3 SWAP1 DUP2 ISZERO MUL SWAP1 PUSH1 0x40 MLOAD PUSH1 0x0 PUSH1 0x40 MLOAD DUP1 DUP4 SUB DUP2 DUP6 DUP9 DUP9 CALL SWAP4 POP POP POP POP PUSH2 0x4A4 JUMPI DUP1 PUSH1 0x4 PUSH1 0x0 CALLER PUSH20 0xFFFFFFFFFFFFFFFFFFFFFFFFFFFFFFFFFFFFFFFF AND PUSH20 0xFFFFFFFFFFFFFFFFFFFFFFFFFFFFFFFFFFFFFFFF AND DUP2 MSTORE PUSH1 0x20 ADD SWAP1 DUP2 MSTORE PUSH1 0x20 ADD PUSH1 0x0 KECCAK256 DUP2 SWAP1 SSTORE POP PUSH1 0x0 SWAP2 POP POP PUSH2 0x4AB JUMP JUMPDEST JUMPDEST PUSH1 0x1 SWAP2 POP POP JUMPDEST SWAP1 JUMP JUMPDEST PUSH1 0x2 PUSH1 0x0 SWAP1 SLOAD SWAP1 PUSH2 0x100 EXP SWAP1 DIV PUSH20 0xFFFFFFFFFFFFFFFFFFFFFFFFFFFFFFFFFFFFFFFF AND DUP2 JUMP JUMPDEST PUSH1 0x3 SLOAD DUP2 JUMP JUMPDEST PUSH1 0x0 DUP2 CALLDATALOAD SWAP1 POP PUSH2 0x4E9 DUP2 PUSH2 0x7E0 JUMP JUMPDEST SWAP3 SWAP2 POP POP JUMP JUMPDEST PUSH1 0x0 PUSH1 0x20 DUP3 DUP5 SUB SLT ISZERO PUSH2 0x505 JUMPI PUSH2 0x504 PUSH2 0x763 JUMP JUMPDEST JUMPDEST PUSH1 0x0 PUSH2 0x513 DUP5 DUP3 DUP6 ADD PUSH2 0x4DA JUMP JUMPDEST SWAP2 POP POP SWAP3 SWAP2 POP POP JUMP JUMPDEST PUSH2 0x525 DUP2 PUSH2 0x6EC JUMP JUMPDEST DUP3 MSTORE POP POP JUMP JUMPDEST PUSH2 0x534 DUP2 PUSH2 0x6DA JUMP JUMPDEST DUP3 MSTORE POP POP JUMP JUMPDEST PUSH2 0x543 DUP2 PUSH2 0x6FE JUMP JUMPDEST DUP3 MSTORE POP POP JUMP JUMPDEST PUSH1 0x0 PUSH2 0x556 PUSH1 0x26 DUP4 PUSH2 0x673 JUMP JUMPDEST SWAP2 POP PUSH2 0x561 DUP3 PUSH2 0x768 JUMP JUMPDEST PUSH1 0x40 DUP3 ADD SWAP1 POP SWAP2 SWAP1 POP JUMP JUMPDEST PUSH1 0x0 PUSH2 0x579 PUSH1 0x1D DUP4 PUSH2 0x673 JUMP JUMPDEST SWAP2 POP PUSH2 0x584 DUP3 PUSH2 0x7B7 JUMP JUMPDEST PUSH1 0x20 DUP3 ADD SWAP1 POP SWAP2 SWAP1 POP JUMP JUMPDEST PUSH2 0x598 DUP2 PUSH2 0x72A JUMP JUMPDEST DUP3 MSTORE POP POP JUMP JUMPDEST PUSH1 0x0 PUSH1 0x20 DUP3 ADD SWAP1 POP PUSH2 0x5B3 PUSH1 0x0 DUP4 ADD DUP5 PUSH2 0x52B JUMP JUMPDEST SWAP3 SWAP2 POP POP JUMP JUMPDEST PUSH1 0x0 PUSH1 0x20 DUP3 ADD SWAP1 POP PUSH2 0x5CE PUSH1 0x0 DUP4 ADD DUP5 PUSH2 0x51C JUMP JUMPDEST SWAP3 SWAP2 POP POP JUMP JUMPDEST PUSH1 0x0 PUSH1 0x40 DUP3 ADD SWAP1 POP PUSH2 0x5E9 PUSH1 0x0 DUP4 ADD DUP6 PUSH2 0x52B JUMP JUMPDEST PUSH2 0x5F6 PUSH1 0x20 DUP4 ADD DUP5 PUSH2 0x58F JUMP JUMPDEST SWAP4 SWAP3 POP POP POP JUMP JUMPDEST PUSH1 0x0 PUSH1 0x20 DUP3 ADD SWAP1 POP PUSH2 0x612 PUSH1 0x0 DUP4 ADD DUP5 PUSH2 0x53A JUMP JUMPDEST SWAP3 SWAP2 POP POP JUMP JUMPDEST PUSH1 0x0 PUSH1 0x20 DUP3 ADD SWAP1 POP DUP2 DUP2 SUB PUSH1 0x0 DUP4 ADD MSTORE PUSH2 0x631 DUP2 PUSH2 0x549 JUMP JUMPDEST SWAP1 POP SWAP2 SWAP1 POP JUMP JUMPDEST PUSH1 0x0 PUSH1 0x20 DUP3 ADD SWAP1 POP DUP2 DUP2 SUB PUSH1 0x0 DUP4 ADD MSTORE PUSH2 0x651 DUP2 PUSH2 0x56C JUMP JUMPDEST SWAP1 POP SWAP2 SWAP1 POP JUMP JUMPDEST PUSH1 0x0 PUSH1 0x20 DUP3 ADD SWAP1 POP PUSH2 0x66D PUSH1 0x0 DUP4 ADD DUP5 PUSH2 0x58F JUMP JUMPDEST SWAP3 SWAP2 POP POP JUMP JUMPDEST PUSH1 0x0 DUP3 DUP3 MSTORE PUSH1 0x20 DUP3 ADD SWAP1 POP SWAP3 SWAP2 POP POP JUMP JUMPDEST PUSH1 0x0 PUSH2 0x68F DUP3 PUSH2 0x72A JUMP JUMPDEST SWAP2 POP PUSH2 0x69A DUP4 PUSH2 0x72A JUMP JUMPDEST SWAP3 POP DUP3 PUSH32 0xFFFFFFFFFFFFFFFFFFFFFFFFFFFFFFFFFFFFFFFFFFFFFFFFFFFFFFFFFFFFFFFF SUB DUP3 GT ISZERO PUSH2 0x6CF JUMPI PUSH2 0x6CE PUSH2 0x734 JUMP JUMPDEST JUMPDEST DUP3 DUP3 ADD SWAP1 POP SWAP3 SWAP2 POP POP JUMP JUMPDEST PUSH1 0x0 PUSH2 0x6E5 DUP3 PUSH2 0x70A JUMP JUMPDEST SWAP1 POP SWAP2 SWAP1 POP JUMP JUMPDEST PUSH1 0x0 PUSH2 0x6F7 DUP3 PUSH2 0x70A JUMP JUMPDEST SWAP1 POP SWAP2 SWAP1 POP JUMP JUMPDEST PUSH1 0x0 DUP2 ISZERO ISZERO SWAP1 POP SWAP2 SWAP1 POP JUMP JUMPDEST PUSH1 0x0 PUSH20 0xFFFFFFFFFFFFFFFFFFFFFFFFFFFFFFFFFFFFFFFF DUP3 AND SWAP1 POP SWAP2 SWAP1 POP JUMP JUMPDEST PUSH1 0x0 DUP2 SWAP1 POP SWAP2 SWAP1 POP JUMP JUMPDEST PUSH32 0x4E487B7100000000000000000000000000000000000000000000000000000000 PUSH1 0x0 MSTORE PUSH1 0x11 PUSH1 0x4 MSTORE PUSH1 0x24 PUSH1 0x0 REVERT JUMPDEST PUSH1 0x0 DUP1 REVERT JUMPDEST PUSH32 0x546865726520697320616C7265616479206120686967686572206F7220657175 PUSH1 0x0 DUP3 ADD MSTORE PUSH32 0x616C206269640000000000000000000000000000000000000000000000000000 PUSH1 0x20 DUP3 ADD MSTORE POP JUMP JUMPDEST PUSH32 0x5468652061756374696F6E2068617320616C726561647920656E646564000000 PUSH1 0x0 DUP3 ADD MSTORE POP JUMP JUMPDEST PUSH2 0x7E9 DUP2 PUSH2 0x6DA JUMP JUMPDEST DUP2 EQ PUSH2 0x7F4 JUMPI PUSH1 0x0 DUP1 REVERT JUMPDEST POP JUMP INVALID LOG2 PUSH5 0x6970667358 0x22 SLT KECCAK256 0xC3 EXTCODEHASH 0xF8 SWAP9 DIV PUSH4 0xA24D7555 PUSH28 0xD695B410961054D8328EA84D2E82D738E81EE6747764736F6C634300 ADDMOD SMOD STOP CALLER "
				},
				"gasEstimates": {
					"creation": {
						"codeDepositCost": "418600",
						"executionCost": "infinite",
						"totalCost": "infinite"
					},
					"external": {
						"auctionEnd()": "189",
						"auctionEndTime()": "2429",
						"beneficiary()": "2578",
						"bid()": "infinite",
						"highestBid()": "2495",
						"highestBidder()": "2558",
						"pendingReturns(address)": "2837",
						"widthdraw()": "infinite"
					}
				},
				"methodIdentifiers": {
					"auctionEnd()": "2a24f46c",
					"auctionEndTime()": "4b449cba",
					"beneficiary()": "38af3eed",
					"bid()": "1998aeef",
					"highestBid()": "d57bde79",
					"highestBidder()": "91f90157",
					"pendingReturns(address)": "26b387bb",
					"widthdraw()": "52b50a2a"
				}
			},
			"storageLayout": {
				"storage": [
					{
						"astId": 3,
						"contract": "contracts/SimpleAuction.sol:SimpleAuction",
						"label": "beneficiary",
						"offset": 0,
						"slot": "0",
						"type": "t_address_payable"
					},
					{
						"astId": 5,
						"contract": "contracts/SimpleAuction.sol:SimpleAuction",
						"label": "auctionEndTime",
						"offset": 0,
						"slot": "1",
						"type": "t_uint256"
					},
					{
						"astId": 7,
						"contract": "contracts/SimpleAuction.sol:SimpleAuction",
						"label": "highestBidder",
						"offset": 0,
						"slot": "2",
						"type": "t_address"
					},
					{
						"astId": 9,
						"contract": "contracts/SimpleAuction.sol:SimpleAuction",
						"label": "highestBid",
						"offset": 0,
						"slot": "3",
						"type": "t_uint256"
					},
					{
						"astId": 13,
						"contract": "contracts/SimpleAuction.sol:SimpleAuction",
						"label": "pendingReturns",
						"offset": 0,
						"slot": "4",
						"type": "t_mapping(t_address,t_uint256)"
					},
					{
						"astId": 16,
						"contract": "contracts/SimpleAuction.sol:SimpleAuction",
						"label": "ended",
						"offset": 0,
						"slot": "5",
						"type": "t_bool"
					}
				],
				"types": {
					"t_address": {
						"encoding": "inplace",
						"label": "address",
						"numberOfBytes": "20"
					},
					"t_address_payable": {
						"encoding": "inplace",
						"label": "address payable",
						"numberOfBytes": "20"
					},
					"t_bool": {
						"encoding": "inplace",
						"label": "bool",
						"numberOfBytes": "1"
					},
					"t_mapping(t_address,t_uint256)": {
						"encoding": "mapping",
						"key": "t_address",
						"label": "mapping(address => uint256)",
						"numberOfBytes": "32",
						"value": "t_uint256"
					},
					"t_uint256": {
						"encoding": "inplace",
						"label": "uint256",
						"numberOfBytes": "32"
					}
				}
			},
			"userdoc": {
				"kind": "user",
				"methods": {},
				"version": 1
			}
		}
	}
}