{
	"contracts/DataTypes.sol": {
		"myGame": {
			"abi": [
				{
					"inputs": [
						{
							"internalType": "string",
							"name": "firstName",
							"type": "string"
						},
						{
							"internalType": "string",
							"name": "lastName",
							"type": "string"
						}
					],
					"name": "addPlayer",
					"outputs": [],
					"stateMutability": "nonpayable",
					"type": "function"
				},
				{
					"inputs": [
						{
							"internalType": "address",
							"name": "playerAddress",
							"type": "address"
						}
					],
					"name": "getPlayerLevel",
					"outputs": [
						{
							"internalType": "enum myGame.Level",
							"name": "",
							"type": "uint8"
						}
					],
					"stateMutability": "view",
					"type": "function"
				},
				{
					"inputs": [],
					"name": "playerCount",
					"outputs": [
						{
							"internalType": "uint256",
							"name": "",
							"type": "uint256"
						}
					],
					"stateMutability": "view",
					"type": "function"
				},
				{
					"inputs": [
						{
							"internalType": "address",
							"name": "",
							"type": "address"
						}
					],
					"name": "players",
					"outputs": [
						{
							"internalType": "address",
							"name": "playerAddress",
							"type": "address"
						},
						{
							"internalType": "enum myGame.Level",
							"name": "playerLevel",
							"type": "uint8"
						},
						{
							"internalType": "string",
							"name": "firstName",
							"type": "string"
						},
						{
							"internalType": "string",
							"name": "lastName",
							"type": "string"
						}
					],
					"stateMutability": "view",
					"type": "function"
				}
			],
			"devdoc": {
				"kind": "dev",
				"methods": {},
				"version": 1
			},
			"evm": {
				"assembly": "    /* \"contracts/DataTypes.sol\":67:695  contract myGame {... */\n  mstore(0x40, 0x80)\n    /* \"contracts/DataTypes.sol\":116:117  0 */\n  0x00\n    /* \"contracts/DataTypes.sol\":90:117  uint public playerCount = 0 */\n  dup1\n  sstore\n    /* \"contracts/DataTypes.sol\":67:695  contract myGame {... */\n  callvalue\n  dup1\n  iszero\n  tag_1\n  jumpi\n  0x00\n  dup1\n  revert\ntag_1:\n  pop\n  dataSize(sub_0)\n  dup1\n  dataOffset(sub_0)\n  0x00\n  codecopy\n  0x00\n  return\nstop\n\nsub_0: assembly {\n        /* \"contracts/DataTypes.sol\":67:695  contract myGame {... */\n      mstore(0x40, 0x80)\n      callvalue\n      dup1\n      iszero\n      tag_1\n      jumpi\n      0x00\n      dup1\n      revert\n    tag_1:\n      pop\n      jumpi(tag_2, lt(calldatasize, 0x04))\n      shr(0xe0, calldataload(0x00))\n      dup1\n      0x302bcc57\n      eq\n      tag_3\n      jumpi\n      dup1\n      0x34b735a1\n      eq\n      tag_4\n      jumpi\n      dup1\n      0x5cb119a9\n      eq\n      tag_5\n      jumpi\n      dup1\n      0xe2eb41ff\n      eq\n      tag_6\n      jumpi\n    tag_2:\n      0x00\n      dup1\n      revert\n        /* \"contracts/DataTypes.sol\":90:117  uint public playerCount = 0 */\n    tag_3:\n      tag_7\n      tag_8\n      jump\t// in\n    tag_7:\n      mload(0x40)\n      tag_9\n      swap2\n      swap1\n      tag_10\n      jump\t// in\n    tag_9:\n      mload(0x40)\n      dup1\n      swap2\n      sub\n      swap1\n      return\n        /* \"contracts/DataTypes.sol\":560:693  function getPlayerLevel(address playerAddress) public view returns (Level) {... */\n    tag_4:\n      tag_11\n      0x04\n      dup1\n      calldatasize\n      sub\n      dup2\n      add\n      swap1\n      tag_12\n      swap2\n      swap1\n      tag_13\n      jump\t// in\n    tag_12:\n      tag_14\n      jump\t// in\n    tag_11:\n      mload(0x40)\n      tag_15\n      swap2\n      swap1\n      tag_16\n      jump\t// in\n    tag_15:\n      mload(0x40)\n      dup1\n      swap2\n      sub\n      swap1\n      return\n        /* \"contracts/DataTypes.sol\":361:554  function addPlayer(string memory firstName, string memory lastName) public {... */\n    tag_5:\n      tag_17\n      0x04\n      dup1\n      calldatasize\n      sub\n      dup2\n      add\n      swap1\n      tag_18\n      swap2\n      swap1\n      tag_19\n      jump\t// in\n    tag_18:\n      tag_20\n      jump\t// in\n    tag_17:\n      stop\n        /* \"contracts/DataTypes.sol\":123:165  mapping (address => Player) public players */\n    tag_6:\n      tag_21\n      0x04\n      dup1\n      calldatasize\n      sub\n      dup2\n      add\n      swap1\n      tag_22\n      swap2\n      swap1\n      tag_13\n      jump\t// in\n    tag_22:\n      tag_23\n      jump\t// in\n    tag_21:\n      mload(0x40)\n      tag_24\n      swap5\n      swap4\n      swap3\n      swap2\n      swap1\n      tag_25\n      jump\t// in\n    tag_24:\n      mload(0x40)\n      dup1\n      swap2\n      sub\n      swap1\n      return\n        /* \"contracts/DataTypes.sol\":90:117  uint public playerCount = 0 */\n    tag_8:\n      sload(0x00)\n      dup2\n      jump\t// out\n        /* \"contracts/DataTypes.sol\":560:693  function getPlayerLevel(address playerAddress) public view returns (Level) {... */\n    tag_14:\n        /* \"contracts/DataTypes.sol\":628:633  Level */\n      0x00\n        /* \"contracts/DataTypes.sol\":652:659  players */\n      0x01\n        /* \"contracts/DataTypes.sol\":652:674  players[playerAddress] */\n      0x00\n        /* \"contracts/DataTypes.sol\":660:673  playerAddress */\n      dup4\n        /* \"contracts/DataTypes.sol\":652:674  players[playerAddress] */\n      0xffffffffffffffffffffffffffffffffffffffff\n      and\n      0xffffffffffffffffffffffffffffffffffffffff\n      and\n      dup2\n      mstore\n      0x20\n      add\n      swap1\n      dup2\n      mstore\n      0x20\n      add\n      0x00\n      keccak256\n        /* \"contracts/DataTypes.sol\":652:686  players[playerAddress].playerLevel */\n      0x00\n      add\n      0x14\n      swap1\n      sload\n      swap1\n      0x0100\n      exp\n      swap1\n      div\n      0xff\n      and\n        /* \"contracts/DataTypes.sol\":645:686  return players[playerAddress].playerLevel */\n      swap1\n      pop\n        /* \"contracts/DataTypes.sol\":560:693  function getPlayerLevel(address playerAddress) public view returns (Level) {... */\n      swap2\n      swap1\n      pop\n      jump\t// out\n        /* \"contracts/DataTypes.sol\":361:554  function addPlayer(string memory firstName, string memory lastName) public {... */\n    tag_20:\n        /* \"contracts/DataTypes.sol\":468:521  Player(msg.sender, Level.Novice, firstName, lastName) */\n      mload(0x40)\n      dup1\n      0x80\n      add\n      0x40\n      mstore\n      dup1\n        /* \"contracts/DataTypes.sol\":475:485  msg.sender */\n      caller\n        /* \"contracts/DataTypes.sol\":468:521  Player(msg.sender, Level.Novice, firstName, lastName) */\n      0xffffffffffffffffffffffffffffffffffffffff\n      and\n      dup2\n      mstore\n      0x20\n      add\n        /* \"contracts/DataTypes.sol\":487:499  Level.Novice */\n      0x00\n        /* \"contracts/DataTypes.sol\":468:521  Player(msg.sender, Level.Novice, firstName, lastName) */\n      0x02\n      dup2\n      gt\n      iszero\n      tag_28\n      jumpi\n      tag_29\n      tag_30\n      jump\t// in\n    tag_29:\n    tag_28:\n      dup2\n      mstore\n      0x20\n      add\n        /* \"contracts/DataTypes.sol\":501:510  firstName */\n      dup4\n        /* \"contracts/DataTypes.sol\":468:521  Player(msg.sender, Level.Novice, firstName, lastName) */\n      dup2\n      mstore\n      0x20\n      add\n        /* \"contracts/DataTypes.sol\":512:520  lastName */\n      dup3\n        /* \"contracts/DataTypes.sol\":468:521  Player(msg.sender, Level.Novice, firstName, lastName) */\n      dup2\n      mstore\n      pop\n        /* \"contracts/DataTypes.sol\":446:453  players */\n      0x01\n        /* \"contracts/DataTypes.sol\":446:465  players[msg.sender] */\n      0x00\n        /* \"contracts/DataTypes.sol\":454:464  msg.sender */\n      caller\n        /* \"contracts/DataTypes.sol\":446:465  players[msg.sender] */\n      0xffffffffffffffffffffffffffffffffffffffff\n      and\n      0xffffffffffffffffffffffffffffffffffffffff\n      and\n      dup2\n      mstore\n      0x20\n      add\n      swap1\n      dup2\n      mstore\n      0x20\n      add\n      0x00\n      keccak256\n        /* \"contracts/DataTypes.sol\":446:521  players[msg.sender] = Player(msg.sender, Level.Novice, firstName, lastName) */\n      0x00\n      dup3\n      add\n      mload\n      dup2\n      0x00\n      add\n      exp(0x0100, 0x00)\n      dup2\n      sload\n      dup2\n      0xffffffffffffffffffffffffffffffffffffffff\n      mul\n      not\n      and\n      swap1\n      dup4\n      0xffffffffffffffffffffffffffffffffffffffff\n      and\n      mul\n      or\n      swap1\n      sstore\n      pop\n      0x20\n      dup3\n      add\n      mload\n      dup2\n      0x00\n      add\n      exp(0x0100, 0x14)\n      dup2\n      sload\n      dup2\n      0xff\n      mul\n      not\n      and\n      swap1\n      dup4\n      0x02\n      dup2\n      gt\n      iszero\n      tag_31\n      jumpi\n      tag_32\n      tag_30\n      jump\t// in\n    tag_32:\n    tag_31:\n      mul\n      or\n      swap1\n      sstore\n      pop\n      0x40\n      dup3\n      add\n      mload\n      dup2\n      0x01\n      add\n      swap1\n      dup1\n      mload\n      swap1\n      0x20\n      add\n      swap1\n      tag_33\n      swap3\n      swap2\n      swap1\n      tag_34\n      jump\t// in\n    tag_33:\n      pop\n      0x60\n      dup3\n      add\n      mload\n      dup2\n      0x02\n      add\n      swap1\n      dup1\n      mload\n      swap1\n      0x20\n      add\n      swap1\n      tag_35\n      swap3\n      swap2\n      swap1\n      tag_34\n      jump\t// in\n    tag_35:\n      pop\n      swap1\n      pop\n      pop\n        /* \"contracts/DataTypes.sol\":546:547  1 */\n      0x01\n        /* \"contracts/DataTypes.sol\":531:542  playerCount */\n      0x00\n      dup1\n        /* \"contracts/DataTypes.sol\":531:547  playerCount += 1 */\n      dup3\n      dup3\n      sload\n      tag_36\n      swap2\n      swap1\n      tag_37\n      jump\t// in\n    tag_36:\n      swap3\n      pop\n      pop\n      dup2\n      swap1\n      sstore\n      pop\n        /* \"contracts/DataTypes.sol\":361:554  function addPlayer(string memory firstName, string memory lastName) public {... */\n      pop\n      pop\n      jump\t// out\n        /* \"contracts/DataTypes.sol\":123:165  mapping (address => Player) public players */\n    tag_23:\n      mstore(0x20, 0x01)\n      dup1\n      0x00\n      mstore\n      keccak256(0x00, 0x40)\n      0x00\n      swap2\n      pop\n      swap1\n      pop\n      dup1\n      0x00\n      add\n      0x00\n      swap1\n      sload\n      swap1\n      0x0100\n      exp\n      swap1\n      div\n      0xffffffffffffffffffffffffffffffffffffffff\n      and\n      swap1\n      dup1\n      0x00\n      add\n      0x14\n      swap1\n      sload\n      swap1\n      0x0100\n      exp\n      swap1\n      div\n      0xff\n      and\n      swap1\n      dup1\n      0x01\n      add\n      dup1\n      sload\n      tag_38\n      swap1\n      tag_39\n      jump\t// in\n    tag_38:\n      dup1\n      0x1f\n      add\n      0x20\n      dup1\n      swap2\n      div\n      mul\n      0x20\n      add\n      mload(0x40)\n      swap1\n      dup2\n      add\n      0x40\n      mstore\n      dup1\n      swap3\n      swap2\n      swap1\n      dup2\n      dup2\n      mstore\n      0x20\n      add\n      dup3\n      dup1\n      sload\n      tag_40\n      swap1\n      tag_39\n      jump\t// in\n    tag_40:\n      dup1\n      iszero\n      tag_41\n      jumpi\n      dup1\n      0x1f\n      lt\n      tag_42\n      jumpi\n      0x0100\n      dup1\n      dup4\n      sload\n      div\n      mul\n      dup4\n      mstore\n      swap2\n      0x20\n      add\n      swap2\n      jump(tag_41)\n    tag_42:\n      dup3\n      add\n      swap2\n      swap1\n      0x00\n      mstore\n      keccak256(0x00, 0x20)\n      swap1\n    tag_43:\n      dup2\n      sload\n      dup2\n      mstore\n      swap1\n      0x01\n      add\n      swap1\n      0x20\n      add\n      dup1\n      dup4\n      gt\n      tag_43\n      jumpi\n      dup3\n      swap1\n      sub\n      0x1f\n      and\n      dup3\n      add\n      swap2\n    tag_41:\n      pop\n      pop\n      pop\n      pop\n      pop\n      swap1\n      dup1\n      0x02\n      add\n      dup1\n      sload\n      tag_44\n      swap1\n      tag_39\n      jump\t// in\n    tag_44:\n      dup1\n      0x1f\n      add\n      0x20\n      dup1\n      swap2\n      div\n      mul\n      0x20\n      add\n      mload(0x40)\n      swap1\n      dup2\n      add\n      0x40\n      mstore\n      dup1\n      swap3\n      swap2\n      swap1\n      dup2\n      dup2\n      mstore\n      0x20\n      add\n      dup3\n      dup1\n      sload\n      tag_45\n      swap1\n      tag_39\n      jump\t// in\n    tag_45:\n      dup1\n      iszero\n      tag_46\n      jumpi\n      dup1\n      0x1f\n      lt\n      tag_47\n      jumpi\n      0x0100\n      dup1\n      dup4\n      sload\n      div\n      mul\n      dup4\n      mstore\n      swap2\n      0x20\n      add\n      swap2\n      jump(tag_46)\n    tag_47:\n      dup3\n      add\n      swap2\n      swap1\n      0x00\n      mstore\n      keccak256(0x00, 0x20)\n      swap1\n    tag_48:\n      dup2\n      sload\n      dup2\n      mstore\n      swap1\n      0x01\n      add\n      swap1\n      0x20\n      add\n      dup1\n      dup4\n      gt\n      tag_48\n      jumpi\n      dup3\n      swap1\n      sub\n      0x1f\n      and\n      dup3\n      add\n      swap2\n    tag_46:\n      pop\n      pop\n      pop\n      pop\n      pop\n      swap1\n      pop\n      dup5\n      jump\t// out\n    tag_34:\n      dup3\n      dup1\n      sload\n      tag_49\n      swap1\n      tag_39\n      jump\t// in\n    tag_49:\n      swap1\n      0x00\n      mstore\n      keccak256(0x00, 0x20)\n      swap1\n      0x1f\n      add\n      0x20\n      swap1\n      div\n      dup2\n      add\n      swap3\n      dup3\n      tag_51\n      jumpi\n      0x00\n      dup6\n      sstore\n      jump(tag_50)\n    tag_51:\n      dup3\n      0x1f\n      lt\n      tag_52\n      jumpi\n      dup1\n      mload\n      not(0xff)\n      and\n      dup4\n      dup1\n      add\n      or\n      dup6\n      sstore\n      jump(tag_50)\n    tag_52:\n      dup3\n      dup1\n      add\n      0x01\n      add\n      dup6\n      sstore\n      dup3\n      iszero\n      tag_50\n      jumpi\n      swap2\n      dup3\n      add\n    tag_53:\n      dup3\n      dup2\n      gt\n      iszero\n      tag_54\n      jumpi\n      dup3\n      mload\n      dup3\n      sstore\n      swap2\n      0x20\n      add\n      swap2\n      swap1\n      0x01\n      add\n      swap1\n      jump(tag_53)\n    tag_54:\n    tag_50:\n      pop\n      swap1\n      pop\n      tag_55\n      swap2\n      swap1\n      tag_56\n      jump\t// in\n    tag_55:\n      pop\n      swap1\n      jump\t// out\n    tag_56:\n    tag_57:\n      dup1\n      dup3\n      gt\n      iszero\n      tag_58\n      jumpi\n      0x00\n      dup2\n      0x00\n      swap1\n      sstore\n      pop\n      0x01\n      add\n      jump(tag_57)\n    tag_58:\n      pop\n      swap1\n      jump\t// out\n        /* \"#utility.yul\":7:419   */\n    tag_60:\n        /* \"#utility.yul\":85:90   */\n      0x00\n        /* \"#utility.yul\":110:176   */\n      tag_62\n        /* \"#utility.yul\":126:175   */\n      tag_63\n        /* \"#utility.yul\":168:174   */\n      dup5\n        /* \"#utility.yul\":126:175   */\n      tag_64\n      jump\t// in\n    tag_63:\n        /* \"#utility.yul\":110:176   */\n      tag_65\n      jump\t// in\n    tag_62:\n        /* \"#utility.yul\":101:176   */\n      swap1\n      pop\n        /* \"#utility.yul\":199:205   */\n      dup3\n        /* \"#utility.yul\":192:197   */\n      dup2\n        /* \"#utility.yul\":185:206   */\n      mstore\n        /* \"#utility.yul\":237:241   */\n      0x20\n        /* \"#utility.yul\":230:235   */\n      dup2\n        /* \"#utility.yul\":226:242   */\n      add\n        /* \"#utility.yul\":275:278   */\n      dup5\n        /* \"#utility.yul\":266:272   */\n      dup5\n        /* \"#utility.yul\":261:264   */\n      dup5\n        /* \"#utility.yul\":257:273   */\n      add\n        /* \"#utility.yul\":254:279   */\n      gt\n        /* \"#utility.yul\":251:363   */\n      iszero\n      tag_66\n      jumpi\n        /* \"#utility.yul\":282:361   */\n      tag_67\n      tag_68\n      jump\t// in\n    tag_67:\n        /* \"#utility.yul\":251:363   */\n    tag_66:\n        /* \"#utility.yul\":372:413   */\n      tag_69\n        /* \"#utility.yul\":406:412   */\n      dup5\n        /* \"#utility.yul\":401:404   */\n      dup3\n        /* \"#utility.yul\":396:399   */\n      dup6\n        /* \"#utility.yul\":372:413   */\n      tag_70\n      jump\t// in\n    tag_69:\n        /* \"#utility.yul\":91:419   */\n      pop\n        /* \"#utility.yul\":7:419   */\n      swap4\n      swap3\n      pop\n      pop\n      pop\n      jump\t// out\n        /* \"#utility.yul\":425:564   */\n    tag_71:\n        /* \"#utility.yul\":471:476   */\n      0x00\n        /* \"#utility.yul\":509:515   */\n      dup2\n        /* \"#utility.yul\":496:516   */\n      calldataload\n        /* \"#utility.yul\":487:516   */\n      swap1\n      pop\n        /* \"#utility.yul\":525:558   */\n      tag_73\n        /* \"#utility.yul\":552:557   */\n      dup2\n        /* \"#utility.yul\":525:558   */\n      tag_74\n      jump\t// in\n    tag_73:\n        /* \"#utility.yul\":425:564   */\n      swap3\n      swap2\n      pop\n      pop\n      jump\t// out\n        /* \"#utility.yul\":584:924   */\n    tag_75:\n        /* \"#utility.yul\":640:645   */\n      0x00\n        /* \"#utility.yul\":689:692   */\n      dup3\n        /* \"#utility.yul\":682:686   */\n      0x1f\n        /* \"#utility.yul\":674:680   */\n      dup4\n        /* \"#utility.yul\":670:687   */\n      add\n        /* \"#utility.yul\":666:693   */\n      slt\n        /* \"#utility.yul\":656:778   */\n      tag_77\n      jumpi\n        /* \"#utility.yul\":697:776   */\n      tag_78\n      tag_79\n      jump\t// in\n    tag_78:\n        /* \"#utility.yul\":656:778   */\n    tag_77:\n        /* \"#utility.yul\":814:820   */\n      dup2\n        /* \"#utility.yul\":801:821   */\n      calldataload\n        /* \"#utility.yul\":839:918   */\n      tag_80\n        /* \"#utility.yul\":914:917   */\n      dup5\n        /* \"#utility.yul\":906:912   */\n      dup3\n        /* \"#utility.yul\":899:903   */\n      0x20\n        /* \"#utility.yul\":891:897   */\n      dup7\n        /* \"#utility.yul\":887:904   */\n      add\n        /* \"#utility.yul\":839:918   */\n      tag_60\n      jump\t// in\n    tag_80:\n        /* \"#utility.yul\":830:918   */\n      swap2\n      pop\n        /* \"#utility.yul\":646:924   */\n      pop\n        /* \"#utility.yul\":584:924   */\n      swap3\n      swap2\n      pop\n      pop\n      jump\t// out\n        /* \"#utility.yul\":930:1259   */\n    tag_13:\n        /* \"#utility.yul\":989:995   */\n      0x00\n        /* \"#utility.yul\":1038:1040   */\n      0x20\n        /* \"#utility.yul\":1026:1035   */\n      dup3\n        /* \"#utility.yul\":1017:1024   */\n      dup5\n        /* \"#utility.yul\":1013:1036   */\n      sub\n        /* \"#utility.yul\":1009:1041   */\n      slt\n        /* \"#utility.yul\":1006:1125   */\n      iszero\n      tag_82\n      jumpi\n        /* \"#utility.yul\":1044:1123   */\n      tag_83\n      tag_84\n      jump\t// in\n    tag_83:\n        /* \"#utility.yul\":1006:1125   */\n    tag_82:\n        /* \"#utility.yul\":1164:1165   */\n      0x00\n        /* \"#utility.yul\":1189:1242   */\n      tag_85\n        /* \"#utility.yul\":1234:1241   */\n      dup5\n        /* \"#utility.yul\":1225:1231   */\n      dup3\n        /* \"#utility.yul\":1214:1223   */\n      dup6\n        /* \"#utility.yul\":1210:1232   */\n      add\n        /* \"#utility.yul\":1189:1242   */\n      tag_71\n      jump\t// in\n    tag_85:\n        /* \"#utility.yul\":1179:1242   */\n      swap2\n      pop\n        /* \"#utility.yul\":1135:1252   */\n      pop\n        /* \"#utility.yul\":930:1259   */\n      swap3\n      swap2\n      pop\n      pop\n      jump\t// out\n        /* \"#utility.yul\":1265:2099   */\n    tag_19:\n        /* \"#utility.yul\":1353:1359   */\n      0x00\n        /* \"#utility.yul\":1361:1367   */\n      dup1\n        /* \"#utility.yul\":1410:1412   */\n      0x40\n        /* \"#utility.yul\":1398:1407   */\n      dup4\n        /* \"#utility.yul\":1389:1396   */\n      dup6\n        /* \"#utility.yul\":1385:1408   */\n      sub\n        /* \"#utility.yul\":1381:1413   */\n      slt\n        /* \"#utility.yul\":1378:1497   */\n      iszero\n      tag_87\n      jumpi\n        /* \"#utility.yul\":1416:1495   */\n      tag_88\n      tag_84\n      jump\t// in\n    tag_88:\n        /* \"#utility.yul\":1378:1497   */\n    tag_87:\n        /* \"#utility.yul\":1564:1565   */\n      0x00\n        /* \"#utility.yul\":1553:1562   */\n      dup4\n        /* \"#utility.yul\":1549:1566   */\n      add\n        /* \"#utility.yul\":1536:1567   */\n      calldataload\n        /* \"#utility.yul\":1594:1612   */\n      0xffffffffffffffff\n        /* \"#utility.yul\":1586:1592   */\n      dup2\n        /* \"#utility.yul\":1583:1613   */\n      gt\n        /* \"#utility.yul\":1580:1697   */\n      iszero\n      tag_89\n      jumpi\n        /* \"#utility.yul\":1616:1695   */\n      tag_90\n      tag_91\n      jump\t// in\n    tag_90:\n        /* \"#utility.yul\":1580:1697   */\n    tag_89:\n        /* \"#utility.yul\":1721:1784   */\n      tag_92\n        /* \"#utility.yul\":1776:1783   */\n      dup6\n        /* \"#utility.yul\":1767:1773   */\n      dup3\n        /* \"#utility.yul\":1756:1765   */\n      dup7\n        /* \"#utility.yul\":1752:1774   */\n      add\n        /* \"#utility.yul\":1721:1784   */\n      tag_75\n      jump\t// in\n    tag_92:\n        /* \"#utility.yul\":1711:1784   */\n      swap3\n      pop\n        /* \"#utility.yul\":1507:1794   */\n      pop\n        /* \"#utility.yul\":1861:1863   */\n      0x20\n        /* \"#utility.yul\":1850:1859   */\n      dup4\n        /* \"#utility.yul\":1846:1864   */\n      add\n        /* \"#utility.yul\":1833:1865   */\n      calldataload\n        /* \"#utility.yul\":1892:1910   */\n      0xffffffffffffffff\n        /* \"#utility.yul\":1884:1890   */\n      dup2\n        /* \"#utility.yul\":1881:1911   */\n      gt\n        /* \"#utility.yul\":1878:1995   */\n      iszero\n      tag_93\n      jumpi\n        /* \"#utility.yul\":1914:1993   */\n      tag_94\n      tag_91\n      jump\t// in\n    tag_94:\n        /* \"#utility.yul\":1878:1995   */\n    tag_93:\n        /* \"#utility.yul\":2019:2082   */\n      tag_95\n        /* \"#utility.yul\":2074:2081   */\n      dup6\n        /* \"#utility.yul\":2065:2071   */\n      dup3\n        /* \"#utility.yul\":2054:2063   */\n      dup7\n        /* \"#utility.yul\":2050:2072   */\n      add\n        /* \"#utility.yul\":2019:2082   */\n      tag_75\n      jump\t// in\n    tag_95:\n        /* \"#utility.yul\":2009:2082   */\n      swap2\n      pop\n        /* \"#utility.yul\":1804:2092   */\n      pop\n        /* \"#utility.yul\":1265:2099   */\n      swap3\n      pop\n      swap3\n      swap1\n      pop\n      jump\t// out\n        /* \"#utility.yul\":2105:2223   */\n    tag_96:\n        /* \"#utility.yul\":2192:2216   */\n      tag_98\n        /* \"#utility.yul\":2210:2215   */\n      dup2\n        /* \"#utility.yul\":2192:2216   */\n      tag_99\n      jump\t// in\n    tag_98:\n        /* \"#utility.yul\":2187:2190   */\n      dup3\n        /* \"#utility.yul\":2180:2217   */\n      mstore\n        /* \"#utility.yul\":2105:2223   */\n      pop\n      pop\n      jump\t// out\n        /* \"#utility.yul\":2229:2372   */\n    tag_100:\n        /* \"#utility.yul\":2322:2365   */\n      tag_102\n        /* \"#utility.yul\":2359:2364   */\n      dup2\n        /* \"#utility.yul\":2322:2365   */\n      tag_103\n      jump\t// in\n    tag_102:\n        /* \"#utility.yul\":2317:2320   */\n      dup3\n        /* \"#utility.yul\":2310:2366   */\n      mstore\n        /* \"#utility.yul\":2229:2372   */\n      pop\n      pop\n      jump\t// out\n        /* \"#utility.yul\":2378:2742   */\n    tag_104:\n        /* \"#utility.yul\":2466:2469   */\n      0x00\n        /* \"#utility.yul\":2494:2533   */\n      tag_106\n        /* \"#utility.yul\":2527:2532   */\n      dup3\n        /* \"#utility.yul\":2494:2533   */\n      tag_107\n      jump\t// in\n    tag_106:\n        /* \"#utility.yul\":2549:2620   */\n      tag_108\n        /* \"#utility.yul\":2613:2619   */\n      dup2\n        /* \"#utility.yul\":2608:2611   */\n      dup6\n        /* \"#utility.yul\":2549:2620   */\n      tag_109\n      jump\t// in\n    tag_108:\n        /* \"#utility.yul\":2542:2620   */\n      swap4\n      pop\n        /* \"#utility.yul\":2629:2681   */\n      tag_110\n        /* \"#utility.yul\":2674:2680   */\n      dup2\n        /* \"#utility.yul\":2669:2672   */\n      dup6\n        /* \"#utility.yul\":2662:2666   */\n      0x20\n        /* \"#utility.yul\":2655:2660   */\n      dup7\n        /* \"#utility.yul\":2651:2667   */\n      add\n        /* \"#utility.yul\":2629:2681   */\n      tag_111\n      jump\t// in\n    tag_110:\n        /* \"#utility.yul\":2706:2735   */\n      tag_112\n        /* \"#utility.yul\":2728:2734   */\n      dup2\n        /* \"#utility.yul\":2706:2735   */\n      tag_113\n      jump\t// in\n    tag_112:\n        /* \"#utility.yul\":2701:2704   */\n      dup5\n        /* \"#utility.yul\":2697:2736   */\n      add\n        /* \"#utility.yul\":2690:2736   */\n      swap2\n      pop\n        /* \"#utility.yul\":2470:2742   */\n      pop\n        /* \"#utility.yul\":2378:2742   */\n      swap3\n      swap2\n      pop\n      pop\n      jump\t// out\n        /* \"#utility.yul\":2748:2866   */\n    tag_114:\n        /* \"#utility.yul\":2835:2859   */\n      tag_116\n        /* \"#utility.yul\":2853:2858   */\n      dup2\n        /* \"#utility.yul\":2835:2859   */\n      tag_117\n      jump\t// in\n    tag_116:\n        /* \"#utility.yul\":2830:2833   */\n      dup3\n        /* \"#utility.yul\":2823:2860   */\n      mstore\n        /* \"#utility.yul\":2748:2866   */\n      pop\n      pop\n      jump\t// out\n        /* \"#utility.yul\":2872:3619   */\n    tag_25:\n        /* \"#utility.yul\":3095:3099   */\n      0x00\n        /* \"#utility.yul\":3133:3136   */\n      0x80\n        /* \"#utility.yul\":3122:3131   */\n      dup3\n        /* \"#utility.yul\":3118:3137   */\n      add\n        /* \"#utility.yul\":3110:3137   */\n      swap1\n      pop\n        /* \"#utility.yul\":3147:3218   */\n      tag_119\n        /* \"#utility.yul\":3215:3216   */\n      0x00\n        /* \"#utility.yul\":3204:3213   */\n      dup4\n        /* \"#utility.yul\":3200:3217   */\n      add\n        /* \"#utility.yul\":3191:3197   */\n      dup8\n        /* \"#utility.yul\":3147:3218   */\n      tag_96\n      jump\t// in\n    tag_119:\n        /* \"#utility.yul\":3228:3306   */\n      tag_120\n        /* \"#utility.yul\":3302:3304   */\n      0x20\n        /* \"#utility.yul\":3291:3300   */\n      dup4\n        /* \"#utility.yul\":3287:3305   */\n      add\n        /* \"#utility.yul\":3278:3284   */\n      dup7\n        /* \"#utility.yul\":3228:3306   */\n      tag_100\n      jump\t// in\n    tag_120:\n        /* \"#utility.yul\":3353:3362   */\n      dup2\n        /* \"#utility.yul\":3347:3351   */\n      dup2\n        /* \"#utility.yul\":3343:3363   */\n      sub\n        /* \"#utility.yul\":3338:3340   */\n      0x40\n        /* \"#utility.yul\":3327:3336   */\n      dup4\n        /* \"#utility.yul\":3323:3341   */\n      add\n        /* \"#utility.yul\":3316:3364   */\n      mstore\n        /* \"#utility.yul\":3381:3459   */\n      tag_121\n        /* \"#utility.yul\":3454:3458   */\n      dup2\n        /* \"#utility.yul\":3445:3451   */\n      dup6\n        /* \"#utility.yul\":3381:3459   */\n      tag_104\n      jump\t// in\n    tag_121:\n        /* \"#utility.yul\":3373:3459   */\n      swap1\n      pop\n        /* \"#utility.yul\":3506:3515   */\n      dup2\n        /* \"#utility.yul\":3500:3504   */\n      dup2\n        /* \"#utility.yul\":3496:3516   */\n      sub\n        /* \"#utility.yul\":3491:3493   */\n      0x60\n        /* \"#utility.yul\":3480:3489   */\n      dup4\n        /* \"#utility.yul\":3476:3494   */\n      add\n        /* \"#utility.yul\":3469:3517   */\n      mstore\n        /* \"#utility.yul\":3534:3612   */\n      tag_122\n        /* \"#utility.yul\":3607:3611   */\n      dup2\n        /* \"#utility.yul\":3598:3604   */\n      dup5\n        /* \"#utility.yul\":3534:3612   */\n      tag_104\n      jump\t// in\n    tag_122:\n        /* \"#utility.yul\":3526:3612   */\n      swap1\n      pop\n        /* \"#utility.yul\":2872:3619   */\n      swap6\n      swap5\n      pop\n      pop\n      pop\n      pop\n      pop\n      jump\t// out\n        /* \"#utility.yul\":3625:3859   */\n    tag_16:\n        /* \"#utility.yul\":3724:3728   */\n      0x00\n        /* \"#utility.yul\":3762:3764   */\n      0x20\n        /* \"#utility.yul\":3751:3760   */\n      dup3\n        /* \"#utility.yul\":3747:3765   */\n      add\n        /* \"#utility.yul\":3739:3765   */\n      swap1\n      pop\n        /* \"#utility.yul\":3775:3852   */\n      tag_124\n        /* \"#utility.yul\":3849:3850   */\n      0x00\n        /* \"#utility.yul\":3838:3847   */\n      dup4\n        /* \"#utility.yul\":3834:3851   */\n      add\n        /* \"#utility.yul\":3825:3831   */\n      dup5\n        /* \"#utility.yul\":3775:3852   */\n      tag_100\n      jump\t// in\n    tag_124:\n        /* \"#utility.yul\":3625:3859   */\n      swap3\n      swap2\n      pop\n      pop\n      jump\t// out\n        /* \"#utility.yul\":3865:4087   */\n    tag_10:\n        /* \"#utility.yul\":3958:3962   */\n      0x00\n        /* \"#utility.yul\":3996:3998   */\n      0x20\n        /* \"#utility.yul\":3985:3994   */\n      dup3\n        /* \"#utility.yul\":3981:3999   */\n      add\n        /* \"#utility.yul\":3973:3999   */\n      swap1\n      pop\n        /* \"#utility.yul\":4009:4080   */\n      tag_126\n        /* \"#utility.yul\":4077:4078   */\n      0x00\n        /* \"#utility.yul\":4066:4075   */\n      dup4\n        /* \"#utility.yul\":4062:4079   */\n      add\n        /* \"#utility.yul\":4053:4059   */\n      dup5\n        /* \"#utility.yul\":4009:4080   */\n      tag_114\n      jump\t// in\n    tag_126:\n        /* \"#utility.yul\":3865:4087   */\n      swap3\n      swap2\n      pop\n      pop\n      jump\t// out\n        /* \"#utility.yul\":4093:4222   */\n    tag_65:\n        /* \"#utility.yul\":4127:4133   */\n      0x00\n        /* \"#utility.yul\":4154:4174   */\n      tag_128\n      tag_129\n      jump\t// in\n    tag_128:\n        /* \"#utility.yul\":4144:4174   */\n      swap1\n      pop\n        /* \"#utility.yul\":4183:4216   */\n      tag_130\n        /* \"#utility.yul\":4211:4215   */\n      dup3\n        /* \"#utility.yul\":4203:4209   */\n      dup3\n        /* \"#utility.yul\":4183:4216   */\n      tag_131\n      jump\t// in\n    tag_130:\n        /* \"#utility.yul\":4093:4222   */\n      swap2\n      swap1\n      pop\n      jump\t// out\n        /* \"#utility.yul\":4228:4303   */\n    tag_129:\n        /* \"#utility.yul\":4261:4267   */\n      0x00\n        /* \"#utility.yul\":4294:4296   */\n      0x40\n        /* \"#utility.yul\":4288:4297   */\n      mload\n        /* \"#utility.yul\":4278:4297   */\n      swap1\n      pop\n        /* \"#utility.yul\":4228:4303   */\n      swap1\n      jump\t// out\n        /* \"#utility.yul\":4309:4617   */\n    tag_64:\n        /* \"#utility.yul\":4371:4375   */\n      0x00\n        /* \"#utility.yul\":4461:4479   */\n      0xffffffffffffffff\n        /* \"#utility.yul\":4453:4459   */\n      dup3\n        /* \"#utility.yul\":4450:4480   */\n      gt\n        /* \"#utility.yul\":4447:4503   */\n      iszero\n      tag_134\n      jumpi\n        /* \"#utility.yul\":4483:4501   */\n      tag_135\n      tag_136\n      jump\t// in\n    tag_135:\n        /* \"#utility.yul\":4447:4503   */\n    tag_134:\n        /* \"#utility.yul\":4521:4550   */\n      tag_137\n        /* \"#utility.yul\":4543:4549   */\n      dup3\n        /* \"#utility.yul\":4521:4550   */\n      tag_113\n      jump\t// in\n    tag_137:\n        /* \"#utility.yul\":4513:4550   */\n      swap1\n      pop\n        /* \"#utility.yul\":4605:4609   */\n      0x20\n        /* \"#utility.yul\":4599:4603   */\n      dup2\n        /* \"#utility.yul\":4595:4610   */\n      add\n        /* \"#utility.yul\":4587:4610   */\n      swap1\n      pop\n        /* \"#utility.yul\":4309:4617   */\n      swap2\n      swap1\n      pop\n      jump\t// out\n        /* \"#utility.yul\":4623:4722   */\n    tag_107:\n        /* \"#utility.yul\":4675:4681   */\n      0x00\n        /* \"#utility.yul\":4709:4714   */\n      dup2\n        /* \"#utility.yul\":4703:4715   */\n      mload\n        /* \"#utility.yul\":4693:4715   */\n      swap1\n      pop\n        /* \"#utility.yul\":4623:4722   */\n      swap2\n      swap1\n      pop\n      jump\t// out\n        /* \"#utility.yul\":4728:4897   */\n    tag_109:\n        /* \"#utility.yul\":4812:4823   */\n      0x00\n        /* \"#utility.yul\":4846:4852   */\n      dup3\n        /* \"#utility.yul\":4841:4844   */\n      dup3\n        /* \"#utility.yul\":4834:4853   */\n      mstore\n        /* \"#utility.yul\":4886:4890   */\n      0x20\n        /* \"#utility.yul\":4881:4884   */\n      dup3\n        /* \"#utility.yul\":4877:4891   */\n      add\n        /* \"#utility.yul\":4862:4891   */\n      swap1\n      pop\n        /* \"#utility.yul\":4728:4897   */\n      swap3\n      swap2\n      pop\n      pop\n      jump\t// out\n        /* \"#utility.yul\":4903:5208   */\n    tag_37:\n        /* \"#utility.yul\":4943:4946   */\n      0x00\n        /* \"#utility.yul\":4962:4982   */\n      tag_141\n        /* \"#utility.yul\":4980:4981   */\n      dup3\n        /* \"#utility.yul\":4962:4982   */\n      tag_117\n      jump\t// in\n    tag_141:\n        /* \"#utility.yul\":4957:4982   */\n      swap2\n      pop\n        /* \"#utility.yul\":4996:5016   */\n      tag_142\n        /* \"#utility.yul\":5014:5015   */\n      dup4\n        /* \"#utility.yul\":4996:5016   */\n      tag_117\n      jump\t// in\n    tag_142:\n        /* \"#utility.yul\":4991:5016   */\n      swap3\n      pop\n        /* \"#utility.yul\":5150:5151   */\n      dup3\n        /* \"#utility.yul\":5082:5148   */\n      0xffffffffffffffffffffffffffffffffffffffffffffffffffffffffffffffff\n        /* \"#utility.yul\":5078:5152   */\n      sub\n        /* \"#utility.yul\":5075:5076   */\n      dup3\n        /* \"#utility.yul\":5072:5153   */\n      gt\n        /* \"#utility.yul\":5069:5176   */\n      iszero\n      tag_143\n      jumpi\n        /* \"#utility.yul\":5156:5174   */\n      tag_144\n      tag_145\n      jump\t// in\n    tag_144:\n        /* \"#utility.yul\":5069:5176   */\n    tag_143:\n        /* \"#utility.yul\":5200:5201   */\n      dup3\n        /* \"#utility.yul\":5197:5198   */\n      dup3\n        /* \"#utility.yul\":5193:5202   */\n      add\n        /* \"#utility.yul\":5186:5202   */\n      swap1\n      pop\n        /* \"#utility.yul\":4903:5208   */\n      swap3\n      swap2\n      pop\n      pop\n      jump\t// out\n        /* \"#utility.yul\":5214:5310   */\n    tag_99:\n        /* \"#utility.yul\":5251:5258   */\n      0x00\n        /* \"#utility.yul\":5280:5304   */\n      tag_147\n        /* \"#utility.yul\":5298:5303   */\n      dup3\n        /* \"#utility.yul\":5280:5304   */\n      tag_148\n      jump\t// in\n    tag_147:\n        /* \"#utility.yul\":5269:5304   */\n      swap1\n      pop\n        /* \"#utility.yul\":5214:5310   */\n      swap2\n      swap1\n      pop\n      jump\t// out\n        /* \"#utility.yul\":5316:5443   */\n    tag_149:\n        /* \"#utility.yul\":5361:5368   */\n      0x00\n        /* \"#utility.yul\":5390:5395   */\n      dup2\n        /* \"#utility.yul\":5379:5395   */\n      swap1\n      pop\n        /* \"#utility.yul\":5396:5437   */\n      tag_151\n        /* \"#utility.yul\":5431:5436   */\n      dup3\n        /* \"#utility.yul\":5396:5437   */\n      tag_152\n      jump\t// in\n    tag_151:\n        /* \"#utility.yul\":5316:5443   */\n      swap2\n      swap1\n      pop\n      jump\t// out\n        /* \"#utility.yul\":5449:5575   */\n    tag_148:\n        /* \"#utility.yul\":5486:5493   */\n      0x00\n        /* \"#utility.yul\":5526:5568   */\n      0xffffffffffffffffffffffffffffffffffffffff\n        /* \"#utility.yul\":5519:5524   */\n      dup3\n        /* \"#utility.yul\":5515:5569   */\n      and\n        /* \"#utility.yul\":5504:5569   */\n      swap1\n      pop\n        /* \"#utility.yul\":5449:5575   */\n      swap2\n      swap1\n      pop\n      jump\t// out\n        /* \"#utility.yul\":5581:5658   */\n    tag_117:\n        /* \"#utility.yul\":5618:5625   */\n      0x00\n        /* \"#utility.yul\":5647:5652   */\n      dup2\n        /* \"#utility.yul\":5636:5652   */\n      swap1\n      pop\n        /* \"#utility.yul\":5581:5658   */\n      swap2\n      swap1\n      pop\n      jump\t// out\n        /* \"#utility.yul\":5664:5791   */\n    tag_103:\n        /* \"#utility.yul\":5720:5729   */\n      0x00\n        /* \"#utility.yul\":5753:5785   */\n      tag_156\n        /* \"#utility.yul\":5779:5784   */\n      dup3\n        /* \"#utility.yul\":5753:5785   */\n      tag_149\n      jump\t// in\n    tag_156:\n        /* \"#utility.yul\":5740:5785   */\n      swap1\n      pop\n        /* \"#utility.yul\":5664:5791   */\n      swap2\n      swap1\n      pop\n      jump\t// out\n        /* \"#utility.yul\":5797:5951   */\n    tag_70:\n        /* \"#utility.yul\":5881:5887   */\n      dup3\n        /* \"#utility.yul\":5876:5879   */\n      dup2\n        /* \"#utility.yul\":5871:5874   */\n      dup4\n        /* \"#utility.yul\":5858:5888   */\n      calldatacopy\n        /* \"#utility.yul\":5943:5944   */\n      0x00\n        /* \"#utility.yul\":5934:5940   */\n      dup4\n        /* \"#utility.yul\":5929:5932   */\n      dup4\n        /* \"#utility.yul\":5925:5941   */\n      add\n        /* \"#utility.yul\":5918:5945   */\n      mstore\n        /* \"#utility.yul\":5797:5951   */\n      pop\n      pop\n      pop\n      jump\t// out\n        /* \"#utility.yul\":5957:6264   */\n    tag_111:\n        /* \"#utility.yul\":6025:6026   */\n      0x00\n        /* \"#utility.yul\":6035:6148   */\n    tag_159:\n        /* \"#utility.yul\":6049:6055   */\n      dup4\n        /* \"#utility.yul\":6046:6047   */\n      dup2\n        /* \"#utility.yul\":6043:6056   */\n      lt\n        /* \"#utility.yul\":6035:6148   */\n      iszero\n      tag_161\n      jumpi\n        /* \"#utility.yul\":6134:6135   */\n      dup1\n        /* \"#utility.yul\":6129:6132   */\n      dup3\n        /* \"#utility.yul\":6125:6136   */\n      add\n        /* \"#utility.yul\":6119:6137   */\n      mload\n        /* \"#utility.yul\":6115:6116   */\n      dup2\n        /* \"#utility.yul\":6110:6113   */\n      dup5\n        /* \"#utility.yul\":6106:6117   */\n      add\n        /* \"#utility.yul\":6099:6138   */\n      mstore\n        /* \"#utility.yul\":6071:6073   */\n      0x20\n        /* \"#utility.yul\":6068:6069   */\n      dup2\n        /* \"#utility.yul\":6064:6074   */\n      add\n        /* \"#utility.yul\":6059:6074   */\n      swap1\n      pop\n        /* \"#utility.yul\":6035:6148   */\n      jump(tag_159)\n    tag_161:\n        /* \"#utility.yul\":6166:6172   */\n      dup4\n        /* \"#utility.yul\":6163:6164   */\n      dup2\n        /* \"#utility.yul\":6160:6173   */\n      gt\n        /* \"#utility.yul\":6157:6258   */\n      iszero\n      tag_162\n      jumpi\n        /* \"#utility.yul\":6246:6247   */\n      0x00\n        /* \"#utility.yul\":6237:6243   */\n      dup5\n        /* \"#utility.yul\":6232:6235   */\n      dup5\n        /* \"#utility.yul\":6228:6244   */\n      add\n        /* \"#utility.yul\":6221:6248   */\n      mstore\n        /* \"#utility.yul\":6157:6258   */\n    tag_162:\n        /* \"#utility.yul\":6006:6264   */\n      pop\n        /* \"#utility.yul\":5957:6264   */\n      pop\n      pop\n      pop\n      jump\t// out\n        /* \"#utility.yul\":6270:6590   */\n    tag_39:\n        /* \"#utility.yul\":6314:6320   */\n      0x00\n        /* \"#utility.yul\":6351:6352   */\n      0x02\n        /* \"#utility.yul\":6345:6349   */\n      dup3\n        /* \"#utility.yul\":6341:6353   */\n      div\n        /* \"#utility.yul\":6331:6353   */\n      swap1\n      pop\n        /* \"#utility.yul\":6398:6399   */\n      0x01\n        /* \"#utility.yul\":6392:6396   */\n      dup3\n        /* \"#utility.yul\":6388:6400   */\n      and\n        /* \"#utility.yul\":6419:6437   */\n      dup1\n        /* \"#utility.yul\":6409:6490   */\n      tag_164\n      jumpi\n        /* \"#utility.yul\":6475:6479   */\n      0x7f\n        /* \"#utility.yul\":6467:6473   */\n      dup3\n        /* \"#utility.yul\":6463:6480   */\n      and\n        /* \"#utility.yul\":6453:6480   */\n      swap2\n      pop\n        /* \"#utility.yul\":6409:6490   */\n    tag_164:\n        /* \"#utility.yul\":6537:6539   */\n      0x20\n        /* \"#utility.yul\":6529:6535   */\n      dup3\n        /* \"#utility.yul\":6526:6540   */\n      lt\n        /* \"#utility.yul\":6506:6524   */\n      dup2\n        /* \"#utility.yul\":6503:6541   */\n      eq\n        /* \"#utility.yul\":6500:6584   */\n      iszero\n      tag_165\n      jumpi\n        /* \"#utility.yul\":6556:6574   */\n      tag_166\n      tag_167\n      jump\t// in\n    tag_166:\n        /* \"#utility.yul\":6500:6584   */\n    tag_165:\n        /* \"#utility.yul\":6321:6590   */\n      pop\n        /* \"#utility.yul\":6270:6590   */\n      swap2\n      swap1\n      pop\n      jump\t// out\n        /* \"#utility.yul\":6596:6877   */\n    tag_131:\n        /* \"#utility.yul\":6679:6706   */\n      tag_169\n        /* \"#utility.yul\":6701:6705   */\n      dup3\n        /* \"#utility.yul\":6679:6706   */\n      tag_113\n      jump\t// in\n    tag_169:\n        /* \"#utility.yul\":6671:6677   */\n      dup2\n        /* \"#utility.yul\":6667:6707   */\n      add\n        /* \"#utility.yul\":6809:6815   */\n      dup2\n        /* \"#utility.yul\":6797:6807   */\n      dup2\n        /* \"#utility.yul\":6794:6816   */\n      lt\n        /* \"#utility.yul\":6773:6791   */\n      0xffffffffffffffff\n        /* \"#utility.yul\":6761:6771   */\n      dup3\n        /* \"#utility.yul\":6758:6792   */\n      gt\n        /* \"#utility.yul\":6755:6817   */\n      or\n        /* \"#utility.yul\":6752:6840   */\n      iszero\n      tag_170\n      jumpi\n        /* \"#utility.yul\":6820:6838   */\n      tag_171\n      tag_136\n      jump\t// in\n    tag_171:\n        /* \"#utility.yul\":6752:6840   */\n    tag_170:\n        /* \"#utility.yul\":6860:6870   */\n      dup1\n        /* \"#utility.yul\":6856:6858   */\n      0x40\n        /* \"#utility.yul\":6849:6871   */\n      mstore\n        /* \"#utility.yul\":6639:6877   */\n      pop\n        /* \"#utility.yul\":6596:6877   */\n      pop\n      pop\n      jump\t// out\n        /* \"#utility.yul\":6883:7063   */\n    tag_145:\n        /* \"#utility.yul\":6931:7008   */\n      0x4e487b7100000000000000000000000000000000000000000000000000000000\n        /* \"#utility.yul\":6928:6929   */\n      0x00\n        /* \"#utility.yul\":6921:7009   */\n      mstore\n        /* \"#utility.yul\":7028:7032   */\n      0x11\n        /* \"#utility.yul\":7025:7026   */\n      0x04\n        /* \"#utility.yul\":7018:7033   */\n      mstore\n        /* \"#utility.yul\":7052:7056   */\n      0x24\n        /* \"#utility.yul\":7049:7050   */\n      0x00\n        /* \"#utility.yul\":7042:7057   */\n      revert\n        /* \"#utility.yul\":7069:7249   */\n    tag_30:\n        /* \"#utility.yul\":7117:7194   */\n      0x4e487b7100000000000000000000000000000000000000000000000000000000\n        /* \"#utility.yul\":7114:7115   */\n      0x00\n        /* \"#utility.yul\":7107:7195   */\n      mstore\n        /* \"#utility.yul\":7214:7218   */\n      0x21\n        /* \"#utility.yul\":7211:7212   */\n      0x04\n        /* \"#utility.yul\":7204:7219   */\n      mstore\n        /* \"#utility.yul\":7238:7242   */\n      0x24\n        /* \"#utility.yul\":7235:7236   */\n      0x00\n        /* \"#utility.yul\":7228:7243   */\n      revert\n        /* \"#utility.yul\":7255:7435   */\n    tag_167:\n        /* \"#utility.yul\":7303:7380   */\n      0x4e487b7100000000000000000000000000000000000000000000000000000000\n        /* \"#utility.yul\":7300:7301   */\n      0x00\n        /* \"#utility.yul\":7293:7381   */\n      mstore\n        /* \"#utility.yul\":7400:7404   */\n      0x22\n        /* \"#utility.yul\":7397:7398   */\n      0x04\n        /* \"#utility.yul\":7390:7405   */\n      mstore\n        /* \"#utility.yul\":7424:7428   */\n      0x24\n        /* \"#utility.yul\":7421:7422   */\n      0x00\n        /* \"#utility.yul\":7414:7429   */\n      revert\n        /* \"#utility.yul\":7441:7621   */\n    tag_136:\n        /* \"#utility.yul\":7489:7566   */\n      0x4e487b7100000000000000000000000000000000000000000000000000000000\n        /* \"#utility.yul\":7486:7487   */\n      0x00\n        /* \"#utility.yul\":7479:7567   */\n      mstore\n        /* \"#utility.yul\":7586:7590   */\n      0x41\n        /* \"#utility.yul\":7583:7584   */\n      0x04\n        /* \"#utility.yul\":7576:7591   */\n      mstore\n        /* \"#utility.yul\":7610:7614   */\n      0x24\n        /* \"#utility.yul\":7607:7608   */\n      0x00\n        /* \"#utility.yul\":7600:7615   */\n      revert\n        /* \"#utility.yul\":7627:7744   */\n    tag_79:\n        /* \"#utility.yul\":7736:7737   */\n      0x00\n        /* \"#utility.yul\":7733:7734   */\n      dup1\n        /* \"#utility.yul\":7726:7738   */\n      revert\n        /* \"#utility.yul\":7750:7867   */\n    tag_68:\n        /* \"#utility.yul\":7859:7860   */\n      0x00\n        /* \"#utility.yul\":7856:7857   */\n      dup1\n        /* \"#utility.yul\":7849:7861   */\n      revert\n        /* \"#utility.yul\":7873:7990   */\n    tag_91:\n        /* \"#utility.yul\":7982:7983   */\n      0x00\n        /* \"#utility.yul\":7979:7980   */\n      dup1\n        /* \"#utility.yul\":7972:7984   */\n      revert\n        /* \"#utility.yul\":7996:8113   */\n    tag_84:\n        /* \"#utility.yul\":8105:8106   */\n      0x00\n        /* \"#utility.yul\":8102:8103   */\n      dup1\n        /* \"#utility.yul\":8095:8107   */\n      revert\n        /* \"#utility.yul\":8119:8221   */\n    tag_113:\n        /* \"#utility.yul\":8160:8166   */\n      0x00\n        /* \"#utility.yul\":8211:8213   */\n      0x1f\n        /* \"#utility.yul\":8207:8214   */\n      not\n        /* \"#utility.yul\":8202:8204   */\n      0x1f\n        /* \"#utility.yul\":8195:8200   */\n      dup4\n        /* \"#utility.yul\":8191:8205   */\n      add\n        /* \"#utility.yul\":8187:8215   */\n      and\n        /* \"#utility.yul\":8177:8215   */\n      swap1\n      pop\n        /* \"#utility.yul\":8119:8221   */\n      swap2\n      swap1\n      pop\n      jump\t// out\n        /* \"#utility.yul\":8227:8340   */\n    tag_152:\n        /* \"#utility.yul\":8308:8309   */\n      0x03\n        /* \"#utility.yul\":8301:8306   */\n      dup2\n        /* \"#utility.yul\":8298:8310   */\n      lt\n        /* \"#utility.yul\":8288:8334   */\n      tag_182\n      jumpi\n        /* \"#utility.yul\":8314:8332   */\n      tag_183\n      tag_30\n      jump\t// in\n    tag_183:\n        /* \"#utility.yul\":8288:8334   */\n    tag_182:\n        /* \"#utility.yul\":8227:8340   */\n      pop\n      jump\t// out\n        /* \"#utility.yul\":8346:8468   */\n    tag_74:\n        /* \"#utility.yul\":8419:8443   */\n      tag_185\n        /* \"#utility.yul\":8437:8442   */\n      dup2\n        /* \"#utility.yul\":8419:8443   */\n      tag_99\n      jump\t// in\n    tag_185:\n        /* \"#utility.yul\":8412:8417   */\n      dup2\n        /* \"#utility.yul\":8409:8444   */\n      eq\n        /* \"#utility.yul\":8399:8462   */\n      tag_186\n      jumpi\n        /* \"#utility.yul\":8458:8459   */\n      0x00\n        /* \"#utility.yul\":8455:8456   */\n      dup1\n        /* \"#utility.yul\":8448:8460   */\n      revert\n        /* \"#utility.yul\":8399:8462   */\n    tag_186:\n        /* \"#utility.yul\":8346:8468   */\n      pop\n      jump\t// out\n\n    auxdata: 0xa264697066735822122005bf9fec9b51dc0a7db678877d2e38631ac2ab2af186025b0cdb81ad0204483f64736f6c63430008070033\n}\n",
				"bytecode": {
					"linkReferences": {},
					"object": "60806040526000805534801561001457600080fd5b506109e0806100246000396000f3fe608060405234801561001057600080fd5b506004361061004c5760003560e01c8063302bcc571461005157806334b735a11461006f5780635cb119a91461009f578063e2eb41ff146100bb575b600080fd5b6100596100ee565b60405161006691906106b5565b60405180910390f35b6100896004803603810190610084919061053c565b6100f4565b604051610096919061069a565b60405180910390f35b6100b960048036038101906100b49190610569565b61014d565b005b6100d560048036038101906100d0919061053c565b6102a7565b6040516100e59493929190610647565b60405180910390f35b60005481565b6000600160008373ffffffffffffffffffffffffffffffffffffffff1673ffffffffffffffffffffffffffffffffffffffff16815260200190815260200160002060000160149054906101000a900460ff169050919050565b60405180608001604052803373ffffffffffffffffffffffffffffffffffffffff16815260200160006002811115610188576101876108cd565b5b815260200183815260200182815250600160003373ffffffffffffffffffffffffffffffffffffffff1673ffffffffffffffffffffffffffffffffffffffff16815260200190815260200160002060008201518160000160006101000a81548173ffffffffffffffffffffffffffffffffffffffff021916908373ffffffffffffffffffffffffffffffffffffffff16021790555060208201518160000160146101000a81548160ff02191690836002811115610248576102476108cd565b5b02179055506040820151816001019080519060200190610269929190610414565b506060820151816002019080519060200190610286929190610414565b50905050600160008082825461029c9190610742565b925050819055505050565b60016020528060005260406000206000915090508060000160009054906101000a900473ffffffffffffffffffffffffffffffffffffffff16908060000160149054906101000a900460ff16908060010180546103039061083b565b80601f016020809104026020016040519081016040528092919081815260200182805461032f9061083b565b801561037c5780601f106103515761010080835404028352916020019161037c565b820191906000526020600020905b81548152906001019060200180831161035f57829003601f168201915b5050505050908060020180546103919061083b565b80601f01602080910402602001604051908101604052809291908181526020018280546103bd9061083b565b801561040a5780601f106103df5761010080835404028352916020019161040a565b820191906000526020600020905b8154815290600101906020018083116103ed57829003601f168201915b5050505050905084565b8280546104209061083b565b90600052602060002090601f0160209004810192826104425760008555610489565b82601f1061045b57805160ff1916838001178555610489565b82800160010185558215610489579182015b8281111561048857825182559160200191906001019061046d565b5b509050610496919061049a565b5090565b5b808211156104b357600081600090555060010161049b565b5090565b60006104ca6104c5846106f5565b6106d0565b9050828152602081018484840111156104e6576104e561095f565b5b6104f18482856107f9565b509392505050565b60008135905061050881610993565b92915050565b600082601f8301126105235761052261095a565b5b81356105338482602086016104b7565b91505092915050565b60006020828403121561055257610551610969565b5b6000610560848285016104f9565b91505092915050565b600080604083850312156105805761057f610969565b5b600083013567ffffffffffffffff81111561059e5761059d610964565b5b6105aa8582860161050e565b925050602083013567ffffffffffffffff8111156105cb576105ca610964565b5b6105d78582860161050e565b9150509250929050565b6105ea81610798565b82525050565b6105f9816107e7565b82525050565b600061060a82610726565b6106148185610731565b9350610624818560208601610808565b61062d8161096e565b840191505092915050565b610641816107dd565b82525050565b600060808201905061065c60008301876105e1565b61066960208301866105f0565b818103604083015261067b81856105ff565b9050818103606083015261068f81846105ff565b905095945050505050565b60006020820190506106af60008301846105f0565b92915050565b60006020820190506106ca6000830184610638565b92915050565b60006106da6106eb565b90506106e6828261086d565b919050565b6000604051905090565b600067ffffffffffffffff8211156107105761070f61092b565b5b6107198261096e565b9050602081019050919050565b600081519050919050565b600082825260208201905092915050565b600061074d826107dd565b9150610758836107dd565b9250827fffffffffffffffffffffffffffffffffffffffffffffffffffffffffffffffff0382111561078d5761078c61089e565b5b828201905092915050565b60006107a3826107bd565b9050919050565b60008190506107b88261097f565b919050565b600073ffffffffffffffffffffffffffffffffffffffff82169050919050565b6000819050919050565b60006107f2826107aa565b9050919050565b82818337600083830152505050565b60005b8381101561082657808201518184015260208101905061080b565b83811115610835576000848401525b50505050565b6000600282049050600182168061085357607f821691505b60208210811415610867576108666108fc565b5b50919050565b6108768261096e565b810181811067ffffffffffffffff821117156108955761089461092b565b5b80604052505050565b7f4e487b7100000000000000000000000000000000000000000000000000000000600052601160045260246000fd5b7f4e487b7100000000000000000000000000000000000000000000000000000000600052602160045260246000fd5b7f4e487b7100000000000000000000000000000000000000000000000000000000600052602260045260246000fd5b7f4e487b7100000000000000000000000000000000000000000000000000000000600052604160045260246000fd5b600080fd5b600080fd5b600080fd5b600080fd5b6000601f19601f8301169050919050565b600381106109905761098f6108cd565b5b50565b61099c81610798565b81146109a757600080fd5b5056fea264697066735822122005bf9fec9b51dc0a7db678877d2e38631ac2ab2af186025b0cdb81ad0204483f64736f6c63430008070033",
					"opcodes": "PUSH1 0x80 PUSH1 0x40 MSTORE PUSH1 0x0 DUP1 SSTORE CALLVALUE DUP1 ISZERO PUSH2 0x14 JUMPI PUSH1 0x0 DUP1 REVERT JUMPDEST POP PUSH2 0x9E0 DUP1 PUSH2 0x24 PUSH1 0x0 CODECOPY PUSH1 0x0 RETURN INVALID PUSH1 0x80 PUSH1 0x40 MSTORE CALLVALUE DUP1 ISZERO PUSH2 0x10 JUMPI PUSH1 0x0 DUP1 REVERT JUMPDEST POP PUSH1 0x4 CALLDATASIZE LT PUSH2 0x4C JUMPI PUSH1 0x0 CALLDATALOAD PUSH1 0xE0 SHR DUP1 PUSH4 0x302BCC57 EQ PUSH2 0x51 JUMPI DUP1 PUSH4 0x34B735A1 EQ PUSH2 0x6F JUMPI DUP1 PUSH4 0x5CB119A9 EQ PUSH2 0x9F JUMPI DUP1 PUSH4 0xE2EB41FF EQ PUSH2 0xBB JUMPI JUMPDEST PUSH1 0x0 DUP1 REVERT JUMPDEST PUSH2 0x59 PUSH2 0xEE JUMP JUMPDEST PUSH1 0x40 MLOAD PUSH2 0x66 SWAP2 SWAP1 PUSH2 0x6B5 JUMP JUMPDEST PUSH1 0x40 MLOAD DUP1 SWAP2 SUB SWAP1 RETURN JUMPDEST PUSH2 0x89 PUSH1 0x4 DUP1 CALLDATASIZE SUB DUP2 ADD SWAP1 PUSH2 0x84 SWAP2 SWAP1 PUSH2 0x53C JUMP JUMPDEST PUSH2 0xF4 JUMP JUMPDEST PUSH1 0x40 MLOAD PUSH2 0x96 SWAP2 SWAP1 PUSH2 0x69A JUMP JUMPDEST PUSH1 0x40 MLOAD DUP1 SWAP2 SUB SWAP1 RETURN JUMPDEST PUSH2 0xB9 PUSH1 0x4 DUP1 CALLDATASIZE SUB DUP2 ADD SWAP1 PUSH2 0xB4 SWAP2 SWAP1 PUSH2 0x569 JUMP JUMPDEST PUSH2 0x14D JUMP JUMPDEST STOP JUMPDEST PUSH2 0xD5 PUSH1 0x4 DUP1 CALLDATASIZE SUB DUP2 ADD SWAP1 PUSH2 0xD0 SWAP2 SWAP1 PUSH2 0x53C JUMP JUMPDEST PUSH2 0x2A7 JUMP JUMPDEST PUSH1 0x40 MLOAD PUSH2 0xE5 SWAP5 SWAP4 SWAP3 SWAP2 SWAP1 PUSH2 0x647 JUMP JUMPDEST PUSH1 0x40 MLOAD DUP1 SWAP2 SUB SWAP1 RETURN JUMPDEST PUSH1 0x0 SLOAD DUP2 JUMP JUMPDEST PUSH1 0x0 PUSH1 0x1 PUSH1 0x0 DUP4 PUSH20 0xFFFFFFFFFFFFFFFFFFFFFFFFFFFFFFFFFFFFFFFF AND PUSH20 0xFFFFFFFFFFFFFFFFFFFFFFFFFFFFFFFFFFFFFFFF AND DUP2 MSTORE PUSH1 0x20 ADD SWAP1 DUP2 MSTORE PUSH1 0x20 ADD PUSH1 0x0 KECCAK256 PUSH1 0x0 ADD PUSH1 0x14 SWAP1 SLOAD SWAP1 PUSH2 0x100 EXP SWAP1 DIV PUSH1 0xFF AND SWAP1 POP SWAP2 SWAP1 POP JUMP JUMPDEST PUSH1 0x40 MLOAD DUP1 PUSH1 0x80 ADD PUSH1 0x40 MSTORE DUP1 CALLER PUSH20 0xFFFFFFFFFFFFFFFFFFFFFFFFFFFFFFFFFFFFFFFF AND DUP2 MSTORE PUSH1 0x20 ADD PUSH1 0x0 PUSH1 0x2 DUP2 GT ISZERO PUSH2 0x188 JUMPI PUSH2 0x187 PUSH2 0x8CD JUMP JUMPDEST JUMPDEST DUP2 MSTORE PUSH1 0x20 ADD DUP4 DUP2 MSTORE PUSH1 0x20 ADD DUP3 DUP2 MSTORE POP PUSH1 0x1 PUSH1 0x0 CALLER PUSH20 0xFFFFFFFFFFFFFFFFFFFFFFFFFFFFFFFFFFFFFFFF AND PUSH20 0xFFFFFFFFFFFFFFFFFFFFFFFFFFFFFFFFFFFFFFFF AND DUP2 MSTORE PUSH1 0x20 ADD SWAP1 DUP2 MSTORE PUSH1 0x20 ADD PUSH1 0x0 KECCAK256 PUSH1 0x0 DUP3 ADD MLOAD DUP2 PUSH1 0x0 ADD PUSH1 0x0 PUSH2 0x100 EXP DUP2 SLOAD DUP2 PUSH20 0xFFFFFFFFFFFFFFFFFFFFFFFFFFFFFFFFFFFFFFFF MUL NOT AND SWAP1 DUP4 PUSH20 0xFFFFFFFFFFFFFFFFFFFFFFFFFFFFFFFFFFFFFFFF AND MUL OR SWAP1 SSTORE POP PUSH1 0x20 DUP3 ADD MLOAD DUP2 PUSH1 0x0 ADD PUSH1 0x14 PUSH2 0x100 EXP DUP2 SLOAD DUP2 PUSH1 0xFF MUL NOT AND SWAP1 DUP4 PUSH1 0x2 DUP2 GT ISZERO PUSH2 0x248 JUMPI PUSH2 0x247 PUSH2 0x8CD JUMP JUMPDEST JUMPDEST MUL OR SWAP1 SSTORE POP PUSH1 0x40 DUP3 ADD MLOAD DUP2 PUSH1 0x1 ADD SWAP1 DUP1 MLOAD SWAP1 PUSH1 0x20 ADD SWAP1 PUSH2 0x269 SWAP3 SWAP2 SWAP1 PUSH2 0x414 JUMP JUMPDEST POP PUSH1 0x60 DUP3 ADD MLOAD DUP2 PUSH1 0x2 ADD SWAP1 DUP1 MLOAD SWAP1 PUSH1 0x20 ADD SWAP1 PUSH2 0x286 SWAP3 SWAP2 SWAP1 PUSH2 0x414 JUMP JUMPDEST POP SWAP1 POP POP PUSH1 0x1 PUSH1 0x0 DUP1 DUP3 DUP3 SLOAD PUSH2 0x29C SWAP2 SWAP1 PUSH2 0x742 JUMP JUMPDEST SWAP3 POP POP DUP2 SWAP1 SSTORE POP POP POP JUMP JUMPDEST PUSH1 0x1 PUSH1 0x20 MSTORE DUP1 PUSH1 0x0 MSTORE PUSH1 0x40 PUSH1 0x0 KECCAK256 PUSH1 0x0 SWAP2 POP SWAP1 POP DUP1 PUSH1 0x0 ADD PUSH1 0x0 SWAP1 SLOAD SWAP1 PUSH2 0x100 EXP SWAP1 DIV PUSH20 0xFFFFFFFFFFFFFFFFFFFFFFFFFFFFFFFFFFFFFFFF AND SWAP1 DUP1 PUSH1 0x0 ADD PUSH1 0x14 SWAP1 SLOAD SWAP1 PUSH2 0x100 EXP SWAP1 DIV PUSH1 0xFF AND SWAP1 DUP1 PUSH1 0x1 ADD DUP1 SLOAD PUSH2 0x303 SWAP1 PUSH2 0x83B JUMP JUMPDEST DUP1 PUSH1 0x1F ADD PUSH1 0x20 DUP1 SWAP2 DIV MUL PUSH1 0x20 ADD PUSH1 0x40 MLOAD SWAP1 DUP2 ADD PUSH1 0x40 MSTORE DUP1 SWAP3 SWAP2 SWAP1 DUP2 DUP2 MSTORE PUSH1 0x20 ADD DUP3 DUP1 SLOAD PUSH2 0x32F SWAP1 PUSH2 0x83B JUMP JUMPDEST DUP1 ISZERO PUSH2 0x37C JUMPI DUP1 PUSH1 0x1F LT PUSH2 0x351 JUMPI PUSH2 0x100 DUP1 DUP4 SLOAD DIV MUL DUP4 MSTORE SWAP2 PUSH1 0x20 ADD SWAP2 PUSH2 0x37C JUMP JUMPDEST DUP3 ADD SWAP2 SWAP1 PUSH1 0x0 MSTORE PUSH1 0x20 PUSH1 0x0 KECCAK256 SWAP1 JUMPDEST DUP2 SLOAD DUP2 MSTORE SWAP1 PUSH1 0x1 ADD SWAP1 PUSH1 0x20 ADD DUP1 DUP4 GT PUSH2 0x35F JUMPI DUP3 SWAP1 SUB PUSH1 0x1F AND DUP3 ADD SWAP2 JUMPDEST POP POP POP POP POP SWAP1 DUP1 PUSH1 0x2 ADD DUP1 SLOAD PUSH2 0x391 SWAP1 PUSH2 0x83B JUMP JUMPDEST DUP1 PUSH1 0x1F ADD PUSH1 0x20 DUP1 SWAP2 DIV MUL PUSH1 0x20 ADD PUSH1 0x40 MLOAD SWAP1 DUP2 ADD PUSH1 0x40 MSTORE DUP1 SWAP3 SWAP2 SWAP1 DUP2 DUP2 MSTORE PUSH1 0x20 ADD DUP3 DUP1 SLOAD PUSH2 0x3BD SWAP1 PUSH2 0x83B JUMP JUMPDEST DUP1 ISZERO PUSH2 0x40A JUMPI DUP1 PUSH1 0x1F LT PUSH2 0x3DF JUMPI PUSH2 0x100 DUP1 DUP4 SLOAD DIV MUL DUP4 MSTORE SWAP2 PUSH1 0x20 ADD SWAP2 PUSH2 0x40A JUMP JUMPDEST DUP3 ADD SWAP2 SWAP1 PUSH1 0x0 MSTORE PUSH1 0x20 PUSH1 0x0 KECCAK256 SWAP1 JUMPDEST DUP2 SLOAD DUP2 MSTORE SWAP1 PUSH1 0x1 ADD SWAP1 PUSH1 0x20 ADD DUP1 DUP4 GT PUSH2 0x3ED JUMPI DUP3 SWAP1 SUB PUSH1 0x1F AND DUP3 ADD SWAP2 JUMPDEST POP POP POP POP POP SWAP1 POP DUP5 JUMP JUMPDEST DUP3 DUP1 SLOAD PUSH2 0x420 SWAP1 PUSH2 0x83B JUMP JUMPDEST SWAP1 PUSH1 0x0 MSTORE PUSH1 0x20 PUSH1 0x0 KECCAK256 SWAP1 PUSH1 0x1F ADD PUSH1 0x20 SWAP1 DIV DUP2 ADD SWAP3 DUP3 PUSH2 0x442 JUMPI PUSH1 0x0 DUP6 SSTORE PUSH2 0x489 JUMP JUMPDEST DUP3 PUSH1 0x1F LT PUSH2 0x45B JUMPI DUP1 MLOAD PUSH1 0xFF NOT AND DUP4 DUP1 ADD OR DUP6 SSTORE PUSH2 0x489 JUMP JUMPDEST DUP3 DUP1 ADD PUSH1 0x1 ADD DUP6 SSTORE DUP3 ISZERO PUSH2 0x489 JUMPI SWAP2 DUP3 ADD JUMPDEST DUP3 DUP2 GT ISZERO PUSH2 0x488 JUMPI DUP3 MLOAD DUP3 SSTORE SWAP2 PUSH1 0x20 ADD SWAP2 SWAP1 PUSH1 0x1 ADD SWAP1 PUSH2 0x46D JUMP JUMPDEST JUMPDEST POP SWAP1 POP PUSH2 0x496 SWAP2 SWAP1 PUSH2 0x49A JUMP JUMPDEST POP SWAP1 JUMP JUMPDEST JUMPDEST DUP1 DUP3 GT ISZERO PUSH2 0x4B3 JUMPI PUSH1 0x0 DUP2 PUSH1 0x0 SWAP1 SSTORE POP PUSH1 0x1 ADD PUSH2 0x49B JUMP JUMPDEST POP SWAP1 JUMP JUMPDEST PUSH1 0x0 PUSH2 0x4CA PUSH2 0x4C5 DUP5 PUSH2 0x6F5 JUMP JUMPDEST PUSH2 0x6D0 JUMP JUMPDEST SWAP1 POP DUP3 DUP2 MSTORE PUSH1 0x20 DUP2 ADD DUP5 DUP5 DUP5 ADD GT ISZERO PUSH2 0x4E6 JUMPI PUSH2 0x4E5 PUSH2 0x95F JUMP JUMPDEST JUMPDEST PUSH2 0x4F1 DUP5 DUP3 DUP6 PUSH2 0x7F9 JUMP JUMPDEST POP SWAP4 SWAP3 POP POP POP JUMP JUMPDEST PUSH1 0x0 DUP2 CALLDATALOAD SWAP1 POP PUSH2 0x508 DUP2 PUSH2 0x993 JUMP JUMPDEST SWAP3 SWAP2 POP POP JUMP JUMPDEST PUSH1 0x0 DUP3 PUSH1 0x1F DUP4 ADD SLT PUSH2 0x523 JUMPI PUSH2 0x522 PUSH2 0x95A JUMP JUMPDEST JUMPDEST DUP2 CALLDATALOAD PUSH2 0x533 DUP5 DUP3 PUSH1 0x20 DUP7 ADD PUSH2 0x4B7 JUMP JUMPDEST SWAP2 POP POP SWAP3 SWAP2 POP POP JUMP JUMPDEST PUSH1 0x0 PUSH1 0x20 DUP3 DUP5 SUB SLT ISZERO PUSH2 0x552 JUMPI PUSH2 0x551 PUSH2 0x969 JUMP JUMPDEST JUMPDEST PUSH1 0x0 PUSH2 0x560 DUP5 DUP3 DUP6 ADD PUSH2 0x4F9 JUMP JUMPDEST SWAP2 POP POP SWAP3 SWAP2 POP POP JUMP JUMPDEST PUSH1 0x0 DUP1 PUSH1 0x40 DUP4 DUP6 SUB SLT ISZERO PUSH2 0x580 JUMPI PUSH2 0x57F PUSH2 0x969 JUMP JUMPDEST JUMPDEST PUSH1 0x0 DUP4 ADD CALLDATALOAD PUSH8 0xFFFFFFFFFFFFFFFF DUP2 GT ISZERO PUSH2 0x59E JUMPI PUSH2 0x59D PUSH2 0x964 JUMP JUMPDEST JUMPDEST PUSH2 0x5AA DUP6 DUP3 DUP7 ADD PUSH2 0x50E JUMP JUMPDEST SWAP3 POP POP PUSH1 0x20 DUP4 ADD CALLDATALOAD PUSH8 0xFFFFFFFFFFFFFFFF DUP2 GT ISZERO PUSH2 0x5CB JUMPI PUSH2 0x5CA PUSH2 0x964 JUMP JUMPDEST JUMPDEST PUSH2 0x5D7 DUP6 DUP3 DUP7 ADD PUSH2 0x50E JUMP JUMPDEST SWAP2 POP POP SWAP3 POP SWAP3 SWAP1 POP JUMP JUMPDEST PUSH2 0x5EA DUP2 PUSH2 0x798 JUMP JUMPDEST DUP3 MSTORE POP POP JUMP JUMPDEST PUSH2 0x5F9 DUP2 PUSH2 0x7E7 JUMP JUMPDEST DUP3 MSTORE POP POP JUMP JUMPDEST PUSH1 0x0 PUSH2 0x60A DUP3 PUSH2 0x726 JUMP JUMPDEST PUSH2 0x614 DUP2 DUP6 PUSH2 0x731 JUMP JUMPDEST SWAP4 POP PUSH2 0x624 DUP2 DUP6 PUSH1 0x20 DUP7 ADD PUSH2 0x808 JUMP JUMPDEST PUSH2 0x62D DUP2 PUSH2 0x96E JUMP JUMPDEST DUP5 ADD SWAP2 POP POP SWAP3 SWAP2 POP POP JUMP JUMPDEST PUSH2 0x641 DUP2 PUSH2 0x7DD JUMP JUMPDEST DUP3 MSTORE POP POP JUMP JUMPDEST PUSH1 0x0 PUSH1 0x80 DUP3 ADD SWAP1 POP PUSH2 0x65C PUSH1 0x0 DUP4 ADD DUP8 PUSH2 0x5E1 JUMP JUMPDEST PUSH2 0x669 PUSH1 0x20 DUP4 ADD DUP7 PUSH2 0x5F0 JUMP JUMPDEST DUP2 DUP2 SUB PUSH1 0x40 DUP4 ADD MSTORE PUSH2 0x67B DUP2 DUP6 PUSH2 0x5FF JUMP JUMPDEST SWAP1 POP DUP2 DUP2 SUB PUSH1 0x60 DUP4 ADD MSTORE PUSH2 0x68F DUP2 DUP5 PUSH2 0x5FF JUMP JUMPDEST SWAP1 POP SWAP6 SWAP5 POP POP POP POP POP JUMP JUMPDEST PUSH1 0x0 PUSH1 0x20 DUP3 ADD SWAP1 POP PUSH2 0x6AF PUSH1 0x0 DUP4 ADD DUP5 PUSH2 0x5F0 JUMP JUMPDEST SWAP3 SWAP2 POP POP JUMP JUMPDEST PUSH1 0x0 PUSH1 0x20 DUP3 ADD SWAP1 POP PUSH2 0x6CA PUSH1 0x0 DUP4 ADD DUP5 PUSH2 0x638 JUMP JUMPDEST SWAP3 SWAP2 POP POP JUMP JUMPDEST PUSH1 0x0 PUSH2 0x6DA PUSH2 0x6EB JUMP JUMPDEST SWAP1 POP PUSH2 0x6E6 DUP3 DUP3 PUSH2 0x86D JUMP JUMPDEST SWAP2 SWAP1 POP JUMP JUMPDEST PUSH1 0x0 PUSH1 0x40 MLOAD SWAP1 POP SWAP1 JUMP JUMPDEST PUSH1 0x0 PUSH8 0xFFFFFFFFFFFFFFFF DUP3 GT ISZERO PUSH2 0x710 JUMPI PUSH2 0x70F PUSH2 0x92B JUMP JUMPDEST JUMPDEST PUSH2 0x719 DUP3 PUSH2 0x96E JUMP JUMPDEST SWAP1 POP PUSH1 0x20 DUP2 ADD SWAP1 POP SWAP2 SWAP1 POP JUMP JUMPDEST PUSH1 0x0 DUP2 MLOAD SWAP1 POP SWAP2 SWAP1 POP JUMP JUMPDEST PUSH1 0x0 DUP3 DUP3 MSTORE PUSH1 0x20 DUP3 ADD SWAP1 POP SWAP3 SWAP2 POP POP JUMP JUMPDEST PUSH1 0x0 PUSH2 0x74D DUP3 PUSH2 0x7DD JUMP JUMPDEST SWAP2 POP PUSH2 0x758 DUP4 PUSH2 0x7DD JUMP JUMPDEST SWAP3 POP DUP3 PUSH32 0xFFFFFFFFFFFFFFFFFFFFFFFFFFFFFFFFFFFFFFFFFFFFFFFFFFFFFFFFFFFFFFFF SUB DUP3 GT ISZERO PUSH2 0x78D JUMPI PUSH2 0x78C PUSH2 0x89E JUMP JUMPDEST JUMPDEST DUP3 DUP3 ADD SWAP1 POP SWAP3 SWAP2 POP POP JUMP JUMPDEST PUSH1 0x0 PUSH2 0x7A3 DUP3 PUSH2 0x7BD JUMP JUMPDEST SWAP1 POP SWAP2 SWAP1 POP JUMP JUMPDEST PUSH1 0x0 DUP2 SWAP1 POP PUSH2 0x7B8 DUP3 PUSH2 0x97F JUMP JUMPDEST SWAP2 SWAP1 POP JUMP JUMPDEST PUSH1 0x0 PUSH20 0xFFFFFFFFFFFFFFFFFFFFFFFFFFFFFFFFFFFFFFFF DUP3 AND SWAP1 POP SWAP2 SWAP1 POP JUMP JUMPDEST PUSH1 0x0 DUP2 SWAP1 POP SWAP2 SWAP1 POP JUMP JUMPDEST PUSH1 0x0 PUSH2 0x7F2 DUP3 PUSH2 0x7AA JUMP JUMPDEST SWAP1 POP SWAP2 SWAP1 POP JUMP JUMPDEST DUP3 DUP2 DUP4 CALLDATACOPY PUSH1 0x0 DUP4 DUP4 ADD MSTORE POP POP POP JUMP JUMPDEST PUSH1 0x0 JUMPDEST DUP4 DUP2 LT ISZERO PUSH2 0x826 JUMPI DUP1 DUP3 ADD MLOAD DUP2 DUP5 ADD MSTORE PUSH1 0x20 DUP2 ADD SWAP1 POP PUSH2 0x80B JUMP JUMPDEST DUP4 DUP2 GT ISZERO PUSH2 0x835 JUMPI PUSH1 0x0 DUP5 DUP5 ADD MSTORE JUMPDEST POP POP POP POP JUMP JUMPDEST PUSH1 0x0 PUSH1 0x2 DUP3 DIV SWAP1 POP PUSH1 0x1 DUP3 AND DUP1 PUSH2 0x853 JUMPI PUSH1 0x7F DUP3 AND SWAP2 POP JUMPDEST PUSH1 0x20 DUP3 LT DUP2 EQ ISZERO PUSH2 0x867 JUMPI PUSH2 0x866 PUSH2 0x8FC JUMP JUMPDEST JUMPDEST POP SWAP2 SWAP1 POP JUMP JUMPDEST PUSH2 0x876 DUP3 PUSH2 0x96E JUMP JUMPDEST DUP2 ADD DUP2 DUP2 LT PUSH8 0xFFFFFFFFFFFFFFFF DUP3 GT OR ISZERO PUSH2 0x895 JUMPI PUSH2 0x894 PUSH2 0x92B JUMP JUMPDEST JUMPDEST DUP1 PUSH1 0x40 MSTORE POP POP POP JUMP JUMPDEST PUSH32 0x4E487B7100000000000000000000000000000000000000000000000000000000 PUSH1 0x0 MSTORE PUSH1 0x11 PUSH1 0x4 MSTORE PUSH1 0x24 PUSH1 0x0 REVERT JUMPDEST PUSH32 0x4E487B7100000000000000000000000000000000000000000000000000000000 PUSH1 0x0 MSTORE PUSH1 0x21 PUSH1 0x4 MSTORE PUSH1 0x24 PUSH1 0x0 REVERT JUMPDEST PUSH32 0x4E487B7100000000000000000000000000000000000000000000000000000000 PUSH1 0x0 MSTORE PUSH1 0x22 PUSH1 0x4 MSTORE PUSH1 0x24 PUSH1 0x0 REVERT JUMPDEST PUSH32 0x4E487B7100000000000000000000000000000000000000000000000000000000 PUSH1 0x0 MSTORE PUSH1 0x41 PUSH1 0x4 MSTORE PUSH1 0x24 PUSH1 0x0 REVERT JUMPDEST PUSH1 0x0 DUP1 REVERT JUMPDEST PUSH1 0x0 DUP1 REVERT JUMPDEST PUSH1 0x0 DUP1 REVERT JUMPDEST PUSH1 0x0 DUP1 REVERT JUMPDEST PUSH1 0x0 PUSH1 0x1F NOT PUSH1 0x1F DUP4 ADD AND SWAP1 POP SWAP2 SWAP1 POP JUMP JUMPDEST PUSH1 0x3 DUP2 LT PUSH2 0x990 JUMPI PUSH2 0x98F PUSH2 0x8CD JUMP JUMPDEST JUMPDEST POP JUMP JUMPDEST PUSH2 0x99C DUP2 PUSH2 0x798 JUMP JUMPDEST DUP2 EQ PUSH2 0x9A7 JUMPI PUSH1 0x0 DUP1 REVERT JUMPDEST POP JUMP INVALID LOG2 PUSH5 0x6970667358 0x22 SLT KECCAK256 SDIV 0xBF SWAP16 0xEC SWAP12 MLOAD 0xDC EXP PUSH30 0xB678877D2E38631AC2AB2AF186025B0CDB81AD0204483F64736F6C634300 ADDMOD SMOD STOP CALLER "
				},
				"gasEstimates": {
					"creation": {
						"codeDepositCost": "505600",
						"executionCost": "5543",
						"totalCost": "511143"
					},
					"external": {
						"addPlayer(string,string)": "infinite",
						"getPlayerLevel(address)": "3028",
						"playerCount()": "2407",
						"players(address)": "infinite"
					}
				},
				"methodIdentifiers": {
					"addPlayer(string,string)": "5cb119a9",
					"getPlayerLevel(address)": "34b735a1",
					"playerCount()": "302bcc57",
					"players(address)": "e2eb41ff"
				}
			},
			"storageLayout": {
				"storage": [
					{
						"astId": 4,
						"contract": "contracts/DataTypes.sol:myGame",
						"label": "playerCount",
						"offset": 0,
						"slot": "0",
						"type": "t_uint256"
					},
					{
						"astId": 9,
						"contract": "contracts/DataTypes.sol:myGame",
						"label": "players",
						"offset": 0,
						"slot": "1",
						"type": "t_mapping(t_address,t_struct(Player)23_storage)"
					}
				],
				"types": {
					"t_address": {
						"encoding": "inplace",
						"label": "address",
						"numberOfBytes": "20"
					},
					"t_enum(Level)13": {
						"encoding": "inplace",
						"label": "enum myGame.Level",
						"numberOfBytes": "1"
					},
					"t_mapping(t_address,t_struct(Player)23_storage)": {
						"encoding": "mapping",
						"key": "t_address",
						"label": "mapping(address => struct myGame.Player)",
						"numberOfBytes": "32",
						"value": "t_struct(Player)23_storage"
					},
					"t_string_storage": {
						"encoding": "bytes",
						"label": "string",
						"numberOfBytes": "32"
					},
					"t_struct(Player)23_storage": {
						"encoding": "inplace",
						"label": "struct myGame.Player",
						"members": [
							{
								"astId": 15,
								"contract": "contracts/DataTypes.sol:myGame",
								"label": "playerAddress",
								"offset": 0,
								"slot": "0",
								"type": "t_address"
							},
							{
								"astId": 18,
								"contract": "contracts/DataTypes.sol:myGame",
								"label": "playerLevel",
								"offset": 20,
								"slot": "0",
								"type": "t_enum(Level)13"
							},
							{
								"astId": 20,
								"contract": "contracts/DataTypes.sol:myGame",
								"label": "firstName",
								"offset": 0,
								"slot": "1",
								"type": "t_string_storage"
							},
							{
								"astId": 22,
								"contract": "contracts/DataTypes.sol:myGame",
								"label": "lastName",
								"offset": 0,
								"slot": "2",
								"type": "t_string_storage"
							}
						],
						"numberOfBytes": "96"
					},
					"t_uint256": {
						"encoding": "inplace",
						"label": "uint256",
						"numberOfBytes": "32"
					}
				}
			},
			"userdoc": {
				"kind": "user",
				"methods": {},
				"version": 1
			}
		}
	}
}