{
	"contracts/SimpleAuction.sol": {
		"SimpleAuction": {
			"abi": [
				{
					"inputs": [
						{
							"internalType": "uint256",
							"name": "_biddingTime",
							"type": "uint256"
						},
						{
							"internalType": "address payable",
							"name": "_beneficiary",
							"type": "address"
						}
					],
					"stateMutability": "nonpayable",
					"type": "constructor"
				},
				{
					"anonymous": false,
					"inputs": [
						{
							"indexed": false,
							"internalType": "address",
							"name": "winner",
							"type": "address"
						},
						{
							"indexed": false,
							"internalType": "uint256",
							"name": "amount",
							"type": "uint256"
						}
					],
					"name": "AuctionEnded",
					"type": "event"
				},
				{
					"anonymous": false,
					"inputs": [
						{
							"indexed": false,
							"internalType": "address",
							"name": "bidder",
							"type": "address"
						},
						{
							"indexed": false,
							"internalType": "uint256",
							"name": "amount",
							"type": "uint256"
						}
					],
					"name": "HighestBidIncrease",
					"type": "event"
				},
				{
					"inputs": [],
					"name": "auctionEndTime",
					"outputs": [
						{
							"internalType": "uint256",
							"name": "",
							"type": "uint256"
						}
					],
					"stateMutability": "view",
					"type": "function"
				},
				{
					"inputs": [],
					"name": "beneficiary",
					"outputs": [
						{
							"internalType": "address payable",
							"name": "",
							"type": "address"
						}
					],
					"stateMutability": "view",
					"type": "function"
				},
				{
					"inputs": [],
					"name": "highestBid",
					"outputs": [
						{
							"internalType": "uint256",
							"name": "",
							"type": "uint256"
						}
					],
					"stateMutability": "view",
					"type": "function"
				},
				{
					"inputs": [],
					"name": "highestBidder",
					"outputs": [
						{
							"internalType": "address",
							"name": "",
							"type": "address"
						}
					],
					"stateMutability": "view",
					"type": "function"
				},
				{
					"inputs": [
						{
							"internalType": "address",
							"name": "",
							"type": "address"
						}
					],
					"name": "pendingReturns",
					"outputs": [
						{
							"internalType": "uint256",
							"name": "",
							"type": "uint256"
						}
					],
					"stateMutability": "view",
					"type": "function"
				}
			],
			"devdoc": {
				"kind": "dev",
				"methods": {},
				"version": 1
			},
			"evm": {
				"assembly": "    /* \"contracts/SimpleAuction.sol\":93:688  contract SimpleAuction {... */\n  mstore(0x40, 0x80)\n    /* \"contracts/SimpleAuction.sol\":400:405  false */\n  0x00\n    /* \"contracts/SimpleAuction.sol\":387:405  bool ended = false */\n  0x05\n  exp(0x0100, 0x00)\n  dup2\n  sload\n  dup2\n  0xff\n  mul\n  not\n  and\n  swap1\n  dup4\n  iszero\n  iszero\n  mul\n  or\n  swap1\n  sstore\n  pop\n    /* \"contracts/SimpleAuction.sol\":525:686  constructor(uint _biddingTime, address payable _beneficiary) {... */\n  callvalue\n  dup1\n  iszero\n  tag_1\n  jumpi\n  0x00\n  dup1\n  revert\ntag_1:\n  pop\n  mload(0x40)\n  sub(codesize, bytecodeSize)\n  dup1\n  bytecodeSize\n  dup4\n  codecopy\n  dup2\n  dup2\n  add\n  0x40\n  mstore\n  dup2\n  add\n  swap1\n  tag_2\n  swap2\n  swap1\n  tag_3\n  jump\t// in\ntag_2:\n    /* \"contracts/SimpleAuction.sol\":610:622  _beneficiary */\n  dup1\n    /* \"contracts/SimpleAuction.sol\":596:607  beneficiary */\n  0x00\n  dup1\n    /* \"contracts/SimpleAuction.sol\":596:622  beneficiary = _beneficiary */\n  0x0100\n  exp\n  dup2\n  sload\n  dup2\n  0xffffffffffffffffffffffffffffffffffffffff\n  mul\n  not\n  and\n  swap1\n  dup4\n  0xffffffffffffffffffffffffffffffffffffffff\n  and\n  mul\n  or\n  swap1\n  sstore\n  pop\n    /* \"contracts/SimpleAuction.sol\":667:679  _biddingTime */\n  dup2\n    /* \"contracts/SimpleAuction.sol\":649:664  block.timestamp */\n  timestamp\n    /* \"contracts/SimpleAuction.sol\":649:679  block.timestamp + _biddingTime */\n  tag_6\n  swap2\n  swap1\n  tag_7\n  jump\t// in\ntag_6:\n    /* \"contracts/SimpleAuction.sol\":632:646  auctionEndTime */\n  0x01\n    /* \"contracts/SimpleAuction.sol\":632:679  auctionEndTime = block.timestamp + _biddingTime */\n  dup2\n  swap1\n  sstore\n  pop\n    /* \"contracts/SimpleAuction.sol\":525:686  constructor(uint _biddingTime, address payable _beneficiary) {... */\n  pop\n  pop\n    /* \"contracts/SimpleAuction.sol\":93:688  contract SimpleAuction {... */\n  jump(tag_8)\n    /* \"#utility.yul\":7:166   */\ntag_10:\n    /* \"#utility.yul\":72:77   */\n  0x00\n    /* \"#utility.yul\":103:109   */\n  dup2\n    /* \"#utility.yul\":97:110   */\n  mload\n    /* \"#utility.yul\":88:110   */\n  swap1\n  pop\n    /* \"#utility.yul\":119:160   */\n  tag_12\n    /* \"#utility.yul\":154:159   */\n  dup2\n    /* \"#utility.yul\":119:160   */\n  tag_13\n  jump\t// in\ntag_12:\n    /* \"#utility.yul\":7:166   */\n  swap3\n  swap2\n  pop\n  pop\n  jump\t// out\n    /* \"#utility.yul\":172:315   */\ntag_14:\n    /* \"#utility.yul\":229:234   */\n  0x00\n    /* \"#utility.yul\":260:266   */\n  dup2\n    /* \"#utility.yul\":254:267   */\n  mload\n    /* \"#utility.yul\":245:267   */\n  swap1\n  pop\n    /* \"#utility.yul\":276:309   */\n  tag_16\n    /* \"#utility.yul\":303:308   */\n  dup2\n    /* \"#utility.yul\":276:309   */\n  tag_17\n  jump\t// in\ntag_16:\n    /* \"#utility.yul\":172:315   */\n  swap3\n  swap2\n  pop\n  pop\n  jump\t// out\n    /* \"#utility.yul\":321:844   */\ntag_3:\n    /* \"#utility.yul\":408:414   */\n  0x00\n    /* \"#utility.yul\":416:422   */\n  dup1\n    /* \"#utility.yul\":465:467   */\n  0x40\n    /* \"#utility.yul\":453:462   */\n  dup4\n    /* \"#utility.yul\":444:451   */\n  dup6\n    /* \"#utility.yul\":440:463   */\n  sub\n    /* \"#utility.yul\":436:468   */\n  slt\n    /* \"#utility.yul\":433:552   */\n  iszero\n  tag_19\n  jumpi\n    /* \"#utility.yul\":471:550   */\n  tag_20\n  tag_21\n  jump\t// in\ntag_20:\n    /* \"#utility.yul\":433:552   */\ntag_19:\n    /* \"#utility.yul\":591:592   */\n  0x00\n    /* \"#utility.yul\":616:680   */\n  tag_22\n    /* \"#utility.yul\":672:679   */\n  dup6\n    /* \"#utility.yul\":663:669   */\n  dup3\n    /* \"#utility.yul\":652:661   */\n  dup7\n    /* \"#utility.yul\":648:670   */\n  add\n    /* \"#utility.yul\":616:680   */\n  tag_14\n  jump\t// in\ntag_22:\n    /* \"#utility.yul\":606:680   */\n  swap3\n  pop\n    /* \"#utility.yul\":562:690   */\n  pop\n    /* \"#utility.yul\":729:731   */\n  0x20\n    /* \"#utility.yul\":755:827   */\n  tag_23\n    /* \"#utility.yul\":819:826   */\n  dup6\n    /* \"#utility.yul\":810:816   */\n  dup3\n    /* \"#utility.yul\":799:808   */\n  dup7\n    /* \"#utility.yul\":795:817   */\n  add\n    /* \"#utility.yul\":755:827   */\n  tag_10\n  jump\t// in\ntag_23:\n    /* \"#utility.yul\":745:827   */\n  swap2\n  pop\n    /* \"#utility.yul\":700:837   */\n  pop\n    /* \"#utility.yul\":321:844   */\n  swap3\n  pop\n  swap3\n  swap1\n  pop\n  jump\t// out\n    /* \"#utility.yul\":931:1236   */\ntag_7:\n    /* \"#utility.yul\":971:974   */\n  0x00\n    /* \"#utility.yul\":990:1010   */\n  tag_27\n    /* \"#utility.yul\":1008:1009   */\n  dup3\n    /* \"#utility.yul\":990:1010   */\n  tag_28\n  jump\t// in\ntag_27:\n    /* \"#utility.yul\":985:1010   */\n  swap2\n  pop\n    /* \"#utility.yul\":1024:1044   */\n  tag_29\n    /* \"#utility.yul\":1042:1043   */\n  dup4\n    /* \"#utility.yul\":1024:1044   */\n  tag_28\n  jump\t// in\ntag_29:\n    /* \"#utility.yul\":1019:1044   */\n  swap3\n  pop\n    /* \"#utility.yul\":1178:1179   */\n  dup3\n    /* \"#utility.yul\":1110:1176   */\n  0xffffffffffffffffffffffffffffffffffffffffffffffffffffffffffffffff\n    /* \"#utility.yul\":1106:1180   */\n  sub\n    /* \"#utility.yul\":1103:1104   */\n  dup3\n    /* \"#utility.yul\":1100:1181   */\n  gt\n    /* \"#utility.yul\":1097:1204   */\n  iszero\n  tag_30\n  jumpi\n    /* \"#utility.yul\":1184:1202   */\n  tag_31\n  tag_32\n  jump\t// in\ntag_31:\n    /* \"#utility.yul\":1097:1204   */\ntag_30:\n    /* \"#utility.yul\":1228:1229   */\n  dup3\n    /* \"#utility.yul\":1225:1226   */\n  dup3\n    /* \"#utility.yul\":1221:1230   */\n  add\n    /* \"#utility.yul\":1214:1230   */\n  swap1\n  pop\n    /* \"#utility.yul\":931:1236   */\n  swap3\n  swap2\n  pop\n  pop\n  jump\t// out\n    /* \"#utility.yul\":1242:1346   */\ntag_33:\n    /* \"#utility.yul\":1287:1294   */\n  0x00\n    /* \"#utility.yul\":1316:1340   */\n  tag_35\n    /* \"#utility.yul\":1334:1339   */\n  dup3\n    /* \"#utility.yul\":1316:1340   */\n  tag_36\n  jump\t// in\ntag_35:\n    /* \"#utility.yul\":1305:1340   */\n  swap1\n  pop\n    /* \"#utility.yul\":1242:1346   */\n  swap2\n  swap1\n  pop\n  jump\t// out\n    /* \"#utility.yul\":1352:1478   */\ntag_36:\n    /* \"#utility.yul\":1389:1396   */\n  0x00\n    /* \"#utility.yul\":1429:1471   */\n  0xffffffffffffffffffffffffffffffffffffffff\n    /* \"#utility.yul\":1422:1427   */\n  dup3\n    /* \"#utility.yul\":1418:1472   */\n  and\n    /* \"#utility.yul\":1407:1472   */\n  swap1\n  pop\n    /* \"#utility.yul\":1352:1478   */\n  swap2\n  swap1\n  pop\n  jump\t// out\n    /* \"#utility.yul\":1484:1561   */\ntag_28:\n    /* \"#utility.yul\":1521:1528   */\n  0x00\n    /* \"#utility.yul\":1550:1555   */\n  dup2\n    /* \"#utility.yul\":1539:1555   */\n  swap1\n  pop\n    /* \"#utility.yul\":1484:1561   */\n  swap2\n  swap1\n  pop\n  jump\t// out\n    /* \"#utility.yul\":1567:1747   */\ntag_32:\n    /* \"#utility.yul\":1615:1692   */\n  0x4e487b7100000000000000000000000000000000000000000000000000000000\n    /* \"#utility.yul\":1612:1613   */\n  0x00\n    /* \"#utility.yul\":1605:1693   */\n  mstore\n    /* \"#utility.yul\":1712:1716   */\n  0x11\n    /* \"#utility.yul\":1709:1710   */\n  0x04\n    /* \"#utility.yul\":1702:1717   */\n  mstore\n    /* \"#utility.yul\":1736:1740   */\n  0x24\n    /* \"#utility.yul\":1733:1734   */\n  0x00\n    /* \"#utility.yul\":1726:1741   */\n  revert\n    /* \"#utility.yul\":1876:1993   */\ntag_21:\n    /* \"#utility.yul\":1985:1986   */\n  0x00\n    /* \"#utility.yul\":1982:1983   */\n  dup1\n    /* \"#utility.yul\":1975:1987   */\n  revert\n    /* \"#utility.yul\":1999:2137   */\ntag_13:\n    /* \"#utility.yul\":2080:2112   */\n  tag_44\n    /* \"#utility.yul\":2106:2111   */\n  dup2\n    /* \"#utility.yul\":2080:2112   */\n  tag_33\n  jump\t// in\ntag_44:\n    /* \"#utility.yul\":2073:2078   */\n  dup2\n    /* \"#utility.yul\":2070:2113   */\n  eq\n    /* \"#utility.yul\":2060:2131   */\n  tag_45\n  jumpi\n    /* \"#utility.yul\":2127:2128   */\n  0x00\n    /* \"#utility.yul\":2124:2125   */\n  dup1\n    /* \"#utility.yul\":2117:2129   */\n  revert\n    /* \"#utility.yul\":2060:2131   */\ntag_45:\n    /* \"#utility.yul\":1999:2137   */\n  pop\n  jump\t// out\n    /* \"#utility.yul\":2143:2265   */\ntag_17:\n    /* \"#utility.yul\":2216:2240   */\n  tag_47\n    /* \"#utility.yul\":2234:2239   */\n  dup2\n    /* \"#utility.yul\":2216:2240   */\n  tag_28\n  jump\t// in\ntag_47:\n    /* \"#utility.yul\":2209:2214   */\n  dup2\n    /* \"#utility.yul\":2206:2241   */\n  eq\n    /* \"#utility.yul\":2196:2259   */\n  tag_48\n  jumpi\n    /* \"#utility.yul\":2255:2256   */\n  0x00\n    /* \"#utility.yul\":2252:2253   */\n  dup1\n    /* \"#utility.yul\":2245:2257   */\n  revert\n    /* \"#utility.yul\":2196:2259   */\ntag_48:\n    /* \"#utility.yul\":2143:2265   */\n  pop\n  jump\t// out\n    /* \"contracts/SimpleAuction.sol\":93:688  contract SimpleAuction {... */\ntag_8:\n  dataSize(sub_0)\n  dup1\n  dataOffset(sub_0)\n  0x00\n  codecopy\n  0x00\n  return\nstop\n\nsub_0: assembly {\n        /* \"contracts/SimpleAuction.sol\":93:688  contract SimpleAuction {... */\n      mstore(0x40, 0x80)\n      callvalue\n      dup1\n      iszero\n      tag_1\n      jumpi\n      0x00\n      dup1\n      revert\n    tag_1:\n      pop\n      jumpi(tag_2, lt(calldatasize, 0x04))\n      shr(0xe0, calldataload(0x00))\n      dup1\n      0x26b387bb\n      eq\n      tag_3\n      jumpi\n      dup1\n      0x38af3eed\n      eq\n      tag_4\n      jumpi\n      dup1\n      0x4b449cba\n      eq\n      tag_5\n      jumpi\n      dup1\n      0x91f90157\n      eq\n      tag_6\n      jumpi\n      dup1\n      0xd57bde79\n      eq\n      tag_7\n      jumpi\n    tag_2:\n      0x00\n      dup1\n      revert\n        /* \"contracts/SimpleAuction.sol\":334:380  mapping(address => uint) public pendingReturns */\n    tag_3:\n      tag_8\n      0x04\n      dup1\n      calldatasize\n      sub\n      dup2\n      add\n      swap1\n      tag_9\n      swap2\n      swap1\n      tag_10\n      jump\t// in\n    tag_9:\n      tag_11\n      jump\t// in\n    tag_8:\n      mload(0x40)\n      tag_12\n      swap2\n      swap1\n      tag_13\n      jump\t// in\n    tag_12:\n      mload(0x40)\n      dup1\n      swap2\n      sub\n      swap1\n      return\n        /* \"contracts/SimpleAuction.sol\":156:190  address payable public beneficiary */\n    tag_4:\n      tag_14\n      tag_15\n      jump\t// in\n    tag_14:\n      mload(0x40)\n      tag_16\n      swap2\n      swap1\n      tag_17\n      jump\t// in\n    tag_16:\n      mload(0x40)\n      dup1\n      swap2\n      sub\n      swap1\n      return\n        /* \"contracts/SimpleAuction.sol\":196:222  uint public auctionEndTime */\n    tag_5:\n      tag_18\n      tag_19\n      jump\t// in\n    tag_18:\n      mload(0x40)\n      tag_20\n      swap2\n      swap1\n      tag_13\n      jump\t// in\n    tag_20:\n      mload(0x40)\n      dup1\n      swap2\n      sub\n      swap1\n      return\n        /* \"contracts/SimpleAuction.sol\":271:299  address public highestBidder */\n    tag_6:\n      tag_21\n      tag_22\n      jump\t// in\n    tag_21:\n      mload(0x40)\n      tag_23\n      swap2\n      swap1\n      tag_24\n      jump\t// in\n    tag_23:\n      mload(0x40)\n      dup1\n      swap2\n      sub\n      swap1\n      return\n        /* \"contracts/SimpleAuction.sol\":305:327  uint public highestBid */\n    tag_7:\n      tag_25\n      tag_26\n      jump\t// in\n    tag_25:\n      mload(0x40)\n      tag_27\n      swap2\n      swap1\n      tag_13\n      jump\t// in\n    tag_27:\n      mload(0x40)\n      dup1\n      swap2\n      sub\n      swap1\n      return\n        /* \"contracts/SimpleAuction.sol\":334:380  mapping(address => uint) public pendingReturns */\n    tag_11:\n      mstore(0x20, 0x04)\n      dup1\n      0x00\n      mstore\n      keccak256(0x00, 0x40)\n      0x00\n      swap2\n      pop\n      swap1\n      pop\n      sload\n      dup2\n      jump\t// out\n        /* \"contracts/SimpleAuction.sol\":156:190  address payable public beneficiary */\n    tag_15:\n      0x00\n      dup1\n      sload\n      swap1\n      0x0100\n      exp\n      swap1\n      div\n      0xffffffffffffffffffffffffffffffffffffffff\n      and\n      dup2\n      jump\t// out\n        /* \"contracts/SimpleAuction.sol\":196:222  uint public auctionEndTime */\n    tag_19:\n      sload(0x01)\n      dup2\n      jump\t// out\n        /* \"contracts/SimpleAuction.sol\":271:299  address public highestBidder */\n    tag_22:\n      0x02\n      0x00\n      swap1\n      sload\n      swap1\n      0x0100\n      exp\n      swap1\n      div\n      0xffffffffffffffffffffffffffffffffffffffff\n      and\n      dup2\n      jump\t// out\n        /* \"contracts/SimpleAuction.sol\":305:327  uint public highestBid */\n    tag_26:\n      sload(0x03)\n      dup2\n      jump\t// out\n        /* \"#utility.yul\":7:146   */\n    tag_29:\n        /* \"#utility.yul\":53:58   */\n      0x00\n        /* \"#utility.yul\":91:97   */\n      dup2\n        /* \"#utility.yul\":78:98   */\n      calldataload\n        /* \"#utility.yul\":69:98   */\n      swap1\n      pop\n        /* \"#utility.yul\":107:140   */\n      tag_31\n        /* \"#utility.yul\":134:139   */\n      dup2\n        /* \"#utility.yul\":107:140   */\n      tag_32\n      jump\t// in\n    tag_31:\n        /* \"#utility.yul\":7:146   */\n      swap3\n      swap2\n      pop\n      pop\n      jump\t// out\n        /* \"#utility.yul\":152:481   */\n    tag_10:\n        /* \"#utility.yul\":211:217   */\n      0x00\n        /* \"#utility.yul\":260:262   */\n      0x20\n        /* \"#utility.yul\":248:257   */\n      dup3\n        /* \"#utility.yul\":239:246   */\n      dup5\n        /* \"#utility.yul\":235:258   */\n      sub\n        /* \"#utility.yul\":231:263   */\n      slt\n        /* \"#utility.yul\":228:347   */\n      iszero\n      tag_34\n      jumpi\n        /* \"#utility.yul\":266:345   */\n      tag_35\n      tag_36\n      jump\t// in\n    tag_35:\n        /* \"#utility.yul\":228:347   */\n    tag_34:\n        /* \"#utility.yul\":386:387   */\n      0x00\n        /* \"#utility.yul\":411:464   */\n      tag_37\n        /* \"#utility.yul\":456:463   */\n      dup5\n        /* \"#utility.yul\":447:453   */\n      dup3\n        /* \"#utility.yul\":436:445   */\n      dup6\n        /* \"#utility.yul\":432:454   */\n      add\n        /* \"#utility.yul\":411:464   */\n      tag_29\n      jump\t// in\n    tag_37:\n        /* \"#utility.yul\":401:464   */\n      swap2\n      pop\n        /* \"#utility.yul\":357:474   */\n      pop\n        /* \"#utility.yul\":152:481   */\n      swap3\n      swap2\n      pop\n      pop\n      jump\t// out\n        /* \"#utility.yul\":487:629   */\n    tag_38:\n        /* \"#utility.yul\":590:622   */\n      tag_40\n        /* \"#utility.yul\":616:621   */\n      dup2\n        /* \"#utility.yul\":590:622   */\n      tag_41\n      jump\t// in\n    tag_40:\n        /* \"#utility.yul\":585:588   */\n      dup3\n        /* \"#utility.yul\":578:623   */\n      mstore\n        /* \"#utility.yul\":487:629   */\n      pop\n      pop\n      jump\t// out\n        /* \"#utility.yul\":635:753   */\n    tag_42:\n        /* \"#utility.yul\":722:746   */\n      tag_44\n        /* \"#utility.yul\":740:745   */\n      dup2\n        /* \"#utility.yul\":722:746   */\n      tag_45\n      jump\t// in\n    tag_44:\n        /* \"#utility.yul\":717:720   */\n      dup3\n        /* \"#utility.yul\":710:747   */\n      mstore\n        /* \"#utility.yul\":635:753   */\n      pop\n      pop\n      jump\t// out\n        /* \"#utility.yul\":759:877   */\n    tag_46:\n        /* \"#utility.yul\":846:870   */\n      tag_48\n        /* \"#utility.yul\":864:869   */\n      dup2\n        /* \"#utility.yul\":846:870   */\n      tag_49\n      jump\t// in\n    tag_48:\n        /* \"#utility.yul\":841:844   */\n      dup3\n        /* \"#utility.yul\":834:871   */\n      mstore\n        /* \"#utility.yul\":759:877   */\n      pop\n      pop\n      jump\t// out\n        /* \"#utility.yul\":883:1105   */\n    tag_24:\n        /* \"#utility.yul\":976:980   */\n      0x00\n        /* \"#utility.yul\":1014:1016   */\n      0x20\n        /* \"#utility.yul\":1003:1012   */\n      dup3\n        /* \"#utility.yul\":999:1017   */\n      add\n        /* \"#utility.yul\":991:1017   */\n      swap1\n      pop\n        /* \"#utility.yul\":1027:1098   */\n      tag_51\n        /* \"#utility.yul\":1095:1096   */\n      0x00\n        /* \"#utility.yul\":1084:1093   */\n      dup4\n        /* \"#utility.yul\":1080:1097   */\n      add\n        /* \"#utility.yul\":1071:1077   */\n      dup5\n        /* \"#utility.yul\":1027:1098   */\n      tag_42\n      jump\t// in\n    tag_51:\n        /* \"#utility.yul\":883:1105   */\n      swap3\n      swap2\n      pop\n      pop\n      jump\t// out\n        /* \"#utility.yul\":1111:1365   */\n    tag_17:\n        /* \"#utility.yul\":1220:1224   */\n      0x00\n        /* \"#utility.yul\":1258:1260   */\n      0x20\n        /* \"#utility.yul\":1247:1256   */\n      dup3\n        /* \"#utility.yul\":1243:1261   */\n      add\n        /* \"#utility.yul\":1235:1261   */\n      swap1\n      pop\n        /* \"#utility.yul\":1271:1358   */\n      tag_53\n        /* \"#utility.yul\":1355:1356   */\n      0x00\n        /* \"#utility.yul\":1344:1353   */\n      dup4\n        /* \"#utility.yul\":1340:1357   */\n      add\n        /* \"#utility.yul\":1331:1337   */\n      dup5\n        /* \"#utility.yul\":1271:1358   */\n      tag_38\n      jump\t// in\n    tag_53:\n        /* \"#utility.yul\":1111:1365   */\n      swap3\n      swap2\n      pop\n      pop\n      jump\t// out\n        /* \"#utility.yul\":1371:1593   */\n    tag_13:\n        /* \"#utility.yul\":1464:1468   */\n      0x00\n        /* \"#utility.yul\":1502:1504   */\n      0x20\n        /* \"#utility.yul\":1491:1500   */\n      dup3\n        /* \"#utility.yul\":1487:1505   */\n      add\n        /* \"#utility.yul\":1479:1505   */\n      swap1\n      pop\n        /* \"#utility.yul\":1515:1586   */\n      tag_55\n        /* \"#utility.yul\":1583:1584   */\n      0x00\n        /* \"#utility.yul\":1572:1581   */\n      dup4\n        /* \"#utility.yul\":1568:1585   */\n      add\n        /* \"#utility.yul\":1559:1565   */\n      dup5\n        /* \"#utility.yul\":1515:1586   */\n      tag_46\n      jump\t// in\n    tag_55:\n        /* \"#utility.yul\":1371:1593   */\n      swap3\n      swap2\n      pop\n      pop\n      jump\t// out\n        /* \"#utility.yul\":1680:1776   */\n    tag_45:\n        /* \"#utility.yul\":1717:1724   */\n      0x00\n        /* \"#utility.yul\":1746:1770   */\n      tag_59\n        /* \"#utility.yul\":1764:1769   */\n      dup3\n        /* \"#utility.yul\":1746:1770   */\n      tag_60\n      jump\t// in\n    tag_59:\n        /* \"#utility.yul\":1735:1770   */\n      swap1\n      pop\n        /* \"#utility.yul\":1680:1776   */\n      swap2\n      swap1\n      pop\n      jump\t// out\n        /* \"#utility.yul\":1782:1886   */\n    tag_41:\n        /* \"#utility.yul\":1827:1834   */\n      0x00\n        /* \"#utility.yul\":1856:1880   */\n      tag_62\n        /* \"#utility.yul\":1874:1879   */\n      dup3\n        /* \"#utility.yul\":1856:1880   */\n      tag_60\n      jump\t// in\n    tag_62:\n        /* \"#utility.yul\":1845:1880   */\n      swap1\n      pop\n        /* \"#utility.yul\":1782:1886   */\n      swap2\n      swap1\n      pop\n      jump\t// out\n        /* \"#utility.yul\":1892:2018   */\n    tag_60:\n        /* \"#utility.yul\":1929:1936   */\n      0x00\n        /* \"#utility.yul\":1969:2011   */\n      0xffffffffffffffffffffffffffffffffffffffff\n        /* \"#utility.yul\":1962:1967   */\n      dup3\n        /* \"#utility.yul\":1958:2012   */\n      and\n        /* \"#utility.yul\":1947:2012   */\n      swap1\n      pop\n        /* \"#utility.yul\":1892:2018   */\n      swap2\n      swap1\n      pop\n      jump\t// out\n        /* \"#utility.yul\":2024:2101   */\n    tag_49:\n        /* \"#utility.yul\":2061:2068   */\n      0x00\n        /* \"#utility.yul\":2090:2095   */\n      dup2\n        /* \"#utility.yul\":2079:2095   */\n      swap1\n      pop\n        /* \"#utility.yul\":2024:2101   */\n      swap2\n      swap1\n      pop\n      jump\t// out\n        /* \"#utility.yul\":2230:2347   */\n    tag_36:\n        /* \"#utility.yul\":2339:2340   */\n      0x00\n        /* \"#utility.yul\":2336:2337   */\n      dup1\n        /* \"#utility.yul\":2329:2341   */\n      revert\n        /* \"#utility.yul\":2353:2475   */\n    tag_32:\n        /* \"#utility.yul\":2426:2450   */\n      tag_69\n        /* \"#utility.yul\":2444:2449   */\n      dup2\n        /* \"#utility.yul\":2426:2450   */\n      tag_45\n      jump\t// in\n    tag_69:\n        /* \"#utility.yul\":2419:2424   */\n      dup2\n        /* \"#utility.yul\":2416:2451   */\n      eq\n        /* \"#utility.yul\":2406:2469   */\n      tag_70\n      jumpi\n        /* \"#utility.yul\":2465:2466   */\n      0x00\n        /* \"#utility.yul\":2462:2463   */\n      dup1\n        /* \"#utility.yul\":2455:2467   */\n      revert\n        /* \"#utility.yul\":2406:2469   */\n    tag_70:\n        /* \"#utility.yul\":2353:2475   */\n      pop\n      jump\t// out\n\n    auxdata: 0xa26469706673582212201e99a3544b7912e6eef33342633311c4e4d7394160db353b27407294cc15a29264736f6c63430008070033\n}\n",
				"bytecode": {
					"linkReferences": {},
					"object": "60806040526000600560006101000a81548160ff02191690831515021790555034801561002b57600080fd5b506040516104e53803806104e5833981810160405281019061004d91906100d0565b806000806101000a81548173ffffffffffffffffffffffffffffffffffffffff021916908373ffffffffffffffffffffffffffffffffffffffff16021790555081426100999190610110565b6001819055505050610204565b6000815190506100b5816101d6565b92915050565b6000815190506100ca816101ed565b92915050565b600080604083850312156100e7576100e66101d1565b5b60006100f5858286016100bb565b9250506020610106858286016100a6565b9150509250929050565b600061011b82610198565b915061012683610198565b9250827fffffffffffffffffffffffffffffffffffffffffffffffffffffffffffffffff0382111561015b5761015a6101a2565b5b828201905092915050565b600061017182610178565b9050919050565b600073ffffffffffffffffffffffffffffffffffffffff82169050919050565b6000819050919050565b7f4e487b7100000000000000000000000000000000000000000000000000000000600052601160045260246000fd5b600080fd5b6101df81610166565b81146101ea57600080fd5b50565b6101f681610198565b811461020157600080fd5b50565b6102d2806102136000396000f3fe608060405234801561001057600080fd5b50600436106100575760003560e01c806326b387bb1461005c57806338af3eed1461008c5780634b449cba146100aa57806391f90157146100c8578063d57bde79146100e6575b600080fd5b61007660048036038101906100719190610187565b610104565b6040516100839190610217565b60405180910390f35b61009461011c565b6040516100a191906101fc565b60405180910390f35b6100b2610140565b6040516100bf9190610217565b60405180910390f35b6100d0610146565b6040516100dd91906101e1565b60405180910390f35b6100ee61016c565b6040516100fb9190610217565b60405180910390f35b60046020528060005260406000206000915090505481565b60008054906101000a900473ffffffffffffffffffffffffffffffffffffffff1681565b60015481565b600260009054906101000a900473ffffffffffffffffffffffffffffffffffffffff1681565b60035481565b60008135905061018181610285565b92915050565b60006020828403121561019d5761019c610280565b5b60006101ab84828501610172565b91505092915050565b6101bd81610244565b82525050565b6101cc81610232565b82525050565b6101db81610276565b82525050565b60006020820190506101f660008301846101c3565b92915050565b600060208201905061021160008301846101b4565b92915050565b600060208201905061022c60008301846101d2565b92915050565b600061023d82610256565b9050919050565b600061024f82610256565b9050919050565b600073ffffffffffffffffffffffffffffffffffffffff82169050919050565b6000819050919050565b600080fd5b61028e81610232565b811461029957600080fd5b5056fea26469706673582212201e99a3544b7912e6eef33342633311c4e4d7394160db353b27407294cc15a29264736f6c63430008070033",
					"opcodes": "PUSH1 0x80 PUSH1 0x40 MSTORE PUSH1 0x0 PUSH1 0x5 PUSH1 0x0 PUSH2 0x100 EXP DUP2 SLOAD DUP2 PUSH1 0xFF MUL NOT AND SWAP1 DUP4 ISZERO ISZERO MUL OR SWAP1 SSTORE POP CALLVALUE DUP1 ISZERO PUSH2 0x2B JUMPI PUSH1 0x0 DUP1 REVERT JUMPDEST POP PUSH1 0x40 MLOAD PUSH2 0x4E5 CODESIZE SUB DUP1 PUSH2 0x4E5 DUP4 CODECOPY DUP2 DUP2 ADD PUSH1 0x40 MSTORE DUP2 ADD SWAP1 PUSH2 0x4D SWAP2 SWAP1 PUSH2 0xD0 JUMP JUMPDEST DUP1 PUSH1 0x0 DUP1 PUSH2 0x100 EXP DUP2 SLOAD DUP2 PUSH20 0xFFFFFFFFFFFFFFFFFFFFFFFFFFFFFFFFFFFFFFFF MUL NOT AND SWAP1 DUP4 PUSH20 0xFFFFFFFFFFFFFFFFFFFFFFFFFFFFFFFFFFFFFFFF AND MUL OR SWAP1 SSTORE POP DUP2 TIMESTAMP PUSH2 0x99 SWAP2 SWAP1 PUSH2 0x110 JUMP JUMPDEST PUSH1 0x1 DUP2 SWAP1 SSTORE POP POP POP PUSH2 0x204 JUMP JUMPDEST PUSH1 0x0 DUP2 MLOAD SWAP1 POP PUSH2 0xB5 DUP2 PUSH2 0x1D6 JUMP JUMPDEST SWAP3 SWAP2 POP POP JUMP JUMPDEST PUSH1 0x0 DUP2 MLOAD SWAP1 POP PUSH2 0xCA DUP2 PUSH2 0x1ED JUMP JUMPDEST SWAP3 SWAP2 POP POP JUMP JUMPDEST PUSH1 0x0 DUP1 PUSH1 0x40 DUP4 DUP6 SUB SLT ISZERO PUSH2 0xE7 JUMPI PUSH2 0xE6 PUSH2 0x1D1 JUMP JUMPDEST JUMPDEST PUSH1 0x0 PUSH2 0xF5 DUP6 DUP3 DUP7 ADD PUSH2 0xBB JUMP JUMPDEST SWAP3 POP POP PUSH1 0x20 PUSH2 0x106 DUP6 DUP3 DUP7 ADD PUSH2 0xA6 JUMP JUMPDEST SWAP2 POP POP SWAP3 POP SWAP3 SWAP1 POP JUMP JUMPDEST PUSH1 0x0 PUSH2 0x11B DUP3 PUSH2 0x198 JUMP JUMPDEST SWAP2 POP PUSH2 0x126 DUP4 PUSH2 0x198 JUMP JUMPDEST SWAP3 POP DUP3 PUSH32 0xFFFFFFFFFFFFFFFFFFFFFFFFFFFFFFFFFFFFFFFFFFFFFFFFFFFFFFFFFFFFFFFF SUB DUP3 GT ISZERO PUSH2 0x15B JUMPI PUSH2 0x15A PUSH2 0x1A2 JUMP JUMPDEST JUMPDEST DUP3 DUP3 ADD SWAP1 POP SWAP3 SWAP2 POP POP JUMP JUMPDEST PUSH1 0x0 PUSH2 0x171 DUP3 PUSH2 0x178 JUMP JUMPDEST SWAP1 POP SWAP2 SWAP1 POP JUMP JUMPDEST PUSH1 0x0 PUSH20 0xFFFFFFFFFFFFFFFFFFFFFFFFFFFFFFFFFFFFFFFF DUP3 AND SWAP1 POP SWAP2 SWAP1 POP JUMP JUMPDEST PUSH1 0x0 DUP2 SWAP1 POP SWAP2 SWAP1 POP JUMP JUMPDEST PUSH32 0x4E487B7100000000000000000000000000000000000000000000000000000000 PUSH1 0x0 MSTORE PUSH1 0x11 PUSH1 0x4 MSTORE PUSH1 0x24 PUSH1 0x0 REVERT JUMPDEST PUSH1 0x0 DUP1 REVERT JUMPDEST PUSH2 0x1DF DUP2 PUSH2 0x166 JUMP JUMPDEST DUP2 EQ PUSH2 0x1EA JUMPI PUSH1 0x0 DUP1 REVERT JUMPDEST POP JUMP JUMPDEST PUSH2 0x1F6 DUP2 PUSH2 0x198 JUMP JUMPDEST DUP2 EQ PUSH2 0x201 JUMPI PUSH1 0x0 DUP1 REVERT JUMPDEST POP JUMP JUMPDEST PUSH2 0x2D2 DUP1 PUSH2 0x213 PUSH1 0x0 CODECOPY PUSH1 0x0 RETURN INVALID PUSH1 0x80 PUSH1 0x40 MSTORE CALLVALUE DUP1 ISZERO PUSH2 0x10 JUMPI PUSH1 0x0 DUP1 REVERT JUMPDEST POP PUSH1 0x4 CALLDATASIZE LT PUSH2 0x57 JUMPI PUSH1 0x0 CALLDATALOAD PUSH1 0xE0 SHR DUP1 PUSH4 0x26B387BB EQ PUSH2 0x5C JUMPI DUP1 PUSH4 0x38AF3EED EQ PUSH2 0x8C JUMPI DUP1 PUSH4 0x4B449CBA EQ PUSH2 0xAA JUMPI DUP1 PUSH4 0x91F90157 EQ PUSH2 0xC8 JUMPI DUP1 PUSH4 0xD57BDE79 EQ PUSH2 0xE6 JUMPI JUMPDEST PUSH1 0x0 DUP1 REVERT JUMPDEST PUSH2 0x76 PUSH1 0x4 DUP1 CALLDATASIZE SUB DUP2 ADD SWAP1 PUSH2 0x71 SWAP2 SWAP1 PUSH2 0x187 JUMP JUMPDEST PUSH2 0x104 JUMP JUMPDEST PUSH1 0x40 MLOAD PUSH2 0x83 SWAP2 SWAP1 PUSH2 0x217 JUMP JUMPDEST PUSH1 0x40 MLOAD DUP1 SWAP2 SUB SWAP1 RETURN JUMPDEST PUSH2 0x94 PUSH2 0x11C JUMP JUMPDEST PUSH1 0x40 MLOAD PUSH2 0xA1 SWAP2 SWAP1 PUSH2 0x1FC JUMP JUMPDEST PUSH1 0x40 MLOAD DUP1 SWAP2 SUB SWAP1 RETURN JUMPDEST PUSH2 0xB2 PUSH2 0x140 JUMP JUMPDEST PUSH1 0x40 MLOAD PUSH2 0xBF SWAP2 SWAP1 PUSH2 0x217 JUMP JUMPDEST PUSH1 0x40 MLOAD DUP1 SWAP2 SUB SWAP1 RETURN JUMPDEST PUSH2 0xD0 PUSH2 0x146 JUMP JUMPDEST PUSH1 0x40 MLOAD PUSH2 0xDD SWAP2 SWAP1 PUSH2 0x1E1 JUMP JUMPDEST PUSH1 0x40 MLOAD DUP1 SWAP2 SUB SWAP1 RETURN JUMPDEST PUSH2 0xEE PUSH2 0x16C JUMP JUMPDEST PUSH1 0x40 MLOAD PUSH2 0xFB SWAP2 SWAP1 PUSH2 0x217 JUMP JUMPDEST PUSH1 0x40 MLOAD DUP1 SWAP2 SUB SWAP1 RETURN JUMPDEST PUSH1 0x4 PUSH1 0x20 MSTORE DUP1 PUSH1 0x0 MSTORE PUSH1 0x40 PUSH1 0x0 KECCAK256 PUSH1 0x0 SWAP2 POP SWAP1 POP SLOAD DUP2 JUMP JUMPDEST PUSH1 0x0 DUP1 SLOAD SWAP1 PUSH2 0x100 EXP SWAP1 DIV PUSH20 0xFFFFFFFFFFFFFFFFFFFFFFFFFFFFFFFFFFFFFFFF AND DUP2 JUMP JUMPDEST PUSH1 0x1 SLOAD DUP2 JUMP JUMPDEST PUSH1 0x2 PUSH1 0x0 SWAP1 SLOAD SWAP1 PUSH2 0x100 EXP SWAP1 DIV PUSH20 0xFFFFFFFFFFFFFFFFFFFFFFFFFFFFFFFFFFFFFFFF AND DUP2 JUMP JUMPDEST PUSH1 0x3 SLOAD DUP2 JUMP JUMPDEST PUSH1 0x0 DUP2 CALLDATALOAD SWAP1 POP PUSH2 0x181 DUP2 PUSH2 0x285 JUMP JUMPDEST SWAP3 SWAP2 POP POP JUMP JUMPDEST PUSH1 0x0 PUSH1 0x20 DUP3 DUP5 SUB SLT ISZERO PUSH2 0x19D JUMPI PUSH2 0x19C PUSH2 0x280 JUMP JUMPDEST JUMPDEST PUSH1 0x0 PUSH2 0x1AB DUP5 DUP3 DUP6 ADD PUSH2 0x172 JUMP JUMPDEST SWAP2 POP POP SWAP3 SWAP2 POP POP JUMP JUMPDEST PUSH2 0x1BD DUP2 PUSH2 0x244 JUMP JUMPDEST DUP3 MSTORE POP POP JUMP JUMPDEST PUSH2 0x1CC DUP2 PUSH2 0x232 JUMP JUMPDEST DUP3 MSTORE POP POP JUMP JUMPDEST PUSH2 0x1DB DUP2 PUSH2 0x276 JUMP JUMPDEST DUP3 MSTORE POP POP JUMP JUMPDEST PUSH1 0x0 PUSH1 0x20 DUP3 ADD SWAP1 POP PUSH2 0x1F6 PUSH1 0x0 DUP4 ADD DUP5 PUSH2 0x1C3 JUMP JUMPDEST SWAP3 SWAP2 POP POP JUMP JUMPDEST PUSH1 0x0 PUSH1 0x20 DUP3 ADD SWAP1 POP PUSH2 0x211 PUSH1 0x0 DUP4 ADD DUP5 PUSH2 0x1B4 JUMP JUMPDEST SWAP3 SWAP2 POP POP JUMP JUMPDEST PUSH1 0x0 PUSH1 0x20 DUP3 ADD SWAP1 POP PUSH2 0x22C PUSH1 0x0 DUP4 ADD DUP5 PUSH2 0x1D2 JUMP JUMPDEST SWAP3 SWAP2 POP POP JUMP JUMPDEST PUSH1 0x0 PUSH2 0x23D DUP3 PUSH2 0x256 JUMP JUMPDEST SWAP1 POP SWAP2 SWAP1 POP JUMP JUMPDEST PUSH1 0x0 PUSH2 0x24F DUP3 PUSH2 0x256 JUMP JUMPDEST SWAP1 POP SWAP2 SWAP1 POP JUMP JUMPDEST PUSH1 0x0 PUSH20 0xFFFFFFFFFFFFFFFFFFFFFFFFFFFFFFFFFFFFFFFF DUP3 AND SWAP1 POP SWAP2 SWAP1 POP JUMP JUMPDEST PUSH1 0x0 DUP2 SWAP1 POP SWAP2 SWAP1 POP JUMP JUMPDEST PUSH1 0x0 DUP1 REVERT JUMPDEST PUSH2 0x28E DUP2 PUSH2 0x232 JUMP JUMPDEST DUP2 EQ PUSH2 0x299 JUMPI PUSH1 0x0 DUP1 REVERT JUMPDEST POP JUMP INVALID LOG2 PUSH5 0x6970667358 0x22 SLT KECCAK256 0x1E SWAP10 LOG3 SLOAD 0x4B PUSH26 0x12E6EEF33342633311C4E4D7394160DB353B27407294CC15A292 PUSH5 0x736F6C6343 STOP ADDMOD SMOD STOP CALLER "
				},
				"gasEstimates": {
					"creation": {
						"codeDepositCost": "144400",
						"executionCost": "infinite",
						"totalCost": "infinite"
					},
					"external": {
						"auctionEndTime()": "2451",
						"beneficiary()": "2511",
						"highestBid()": "2495",
						"highestBidder()": "2558",
						"pendingReturns(address)": "2792"
					}
				},
				"methodIdentifiers": {
					"auctionEndTime()": "4b449cba",
					"beneficiary()": "38af3eed",
					"highestBid()": "d57bde79",
					"highestBidder()": "91f90157",
					"pendingReturns(address)": "26b387bb"
				}
			},
			"storageLayout": {
				"storage": [
					{
						"astId": 4,
						"contract": "contracts/SimpleAuction.sol:SimpleAuction",
						"label": "beneficiary",
						"offset": 0,
						"slot": "0",
						"type": "t_address_payable"
					},
					{
						"astId": 6,
						"contract": "contracts/SimpleAuction.sol:SimpleAuction",
						"label": "auctionEndTime",
						"offset": 0,
						"slot": "1",
						"type": "t_uint256"
					},
					{
						"astId": 8,
						"contract": "contracts/SimpleAuction.sol:SimpleAuction",
						"label": "highestBidder",
						"offset": 0,
						"slot": "2",
						"type": "t_address"
					},
					{
						"astId": 10,
						"contract": "contracts/SimpleAuction.sol:SimpleAuction",
						"label": "highestBid",
						"offset": 0,
						"slot": "3",
						"type": "t_uint256"
					},
					{
						"astId": 14,
						"contract": "contracts/SimpleAuction.sol:SimpleAuction",
						"label": "pendingReturns",
						"offset": 0,
						"slot": "4",
						"type": "t_mapping(t_address,t_uint256)"
					},
					{
						"astId": 17,
						"contract": "contracts/SimpleAuction.sol:SimpleAuction",
						"label": "ended",
						"offset": 0,
						"slot": "5",
						"type": "t_bool"
					}
				],
				"types": {
					"t_address": {
						"encoding": "inplace",
						"label": "address",
						"numberOfBytes": "20"
					},
					"t_address_payable": {
						"encoding": "inplace",
						"label": "address payable",
						"numberOfBytes": "20"
					},
					"t_bool": {
						"encoding": "inplace",
						"label": "bool",
						"numberOfBytes": "1"
					},
					"t_mapping(t_address,t_uint256)": {
						"encoding": "mapping",
						"key": "t_address",
						"label": "mapping(address => uint256)",
						"numberOfBytes": "32",
						"value": "t_uint256"
					},
					"t_uint256": {
						"encoding": "inplace",
						"label": "uint256",
						"numberOfBytes": "32"
					}
				}
			},
			"userdoc": {
				"kind": "user",
				"methods": {},
				"version": 1
			}
		}
	}
}