{
	"contracts/SimpleMultSend.sol": {
		"myGame": {
			"abi": [
				{
					"inputs": [],
					"stateMutability": "nonpayable",
					"type": "constructor"
				},
				{
					"inputs": [],
					"name": "dealer",
					"outputs": [
						{
							"internalType": "address",
							"name": "",
							"type": "address"
						}
					],
					"stateMutability": "view",
					"type": "function"
				},
				{
					"inputs": [
						{
							"internalType": "string",
							"name": "firstName",
							"type": "string"
						},
						{
							"internalType": "string",
							"name": "lastName",
							"type": "string"
						}
					],
					"name": "joinGame",
					"outputs": [],
					"stateMutability": "payable",
					"type": "function"
				},
				{
					"inputs": [
						{
							"internalType": "address",
							"name": "loserAddress",
							"type": "address"
						}
					],
					"name": "payOutWinners",
					"outputs": [],
					"stateMutability": "payable",
					"type": "function"
				},
				{
					"inputs": [],
					"name": "playerCount",
					"outputs": [
						{
							"internalType": "uint256",
							"name": "",
							"type": "uint256"
						}
					],
					"stateMutability": "view",
					"type": "function"
				},
				{
					"inputs": [
						{
							"internalType": "address",
							"name": "",
							"type": "address"
						}
					],
					"name": "players",
					"outputs": [
						{
							"internalType": "address",
							"name": "playerAddress",
							"type": "address"
						},
						{
							"internalType": "enum myGame.Level",
							"name": "playerLevel",
							"type": "uint8"
						},
						{
							"internalType": "string",
							"name": "firstName",
							"type": "string"
						},
						{
							"internalType": "string",
							"name": "lastName",
							"type": "string"
						},
						{
							"internalType": "uint256",
							"name": "createdTime",
							"type": "uint256"
						}
					],
					"stateMutability": "view",
					"type": "function"
				},
				{
					"inputs": [
						{
							"internalType": "uint256",
							"name": "",
							"type": "uint256"
						}
					],
					"name": "playersInGame",
					"outputs": [
						{
							"internalType": "address",
							"name": "playerAddress",
							"type": "address"
						},
						{
							"internalType": "enum myGame.Level",
							"name": "playerLevel",
							"type": "uint8"
						},
						{
							"internalType": "string",
							"name": "firstName",
							"type": "string"
						},
						{
							"internalType": "string",
							"name": "lastName",
							"type": "string"
						},
						{
							"internalType": "uint256",
							"name": "createdTime",
							"type": "uint256"
						}
					],
					"stateMutability": "view",
					"type": "function"
				},
				{
					"inputs": [],
					"name": "pot",
					"outputs": [
						{
							"internalType": "uint256",
							"name": "",
							"type": "uint256"
						}
					],
					"stateMutability": "view",
					"type": "function"
				}
			],
			"devdoc": {
				"kind": "dev",
				"methods": {},
				"version": 1
			},
			"evm": {
				"assembly": "    /* \"contracts/SimpleMultSend.sol\":67:2100  contract myGame {... */\n  mstore(0x40, 0x80)\n    /* \"contracts/SimpleMultSend.sol\":116:117  0 */\n  0x00\n    /* \"contracts/SimpleMultSend.sol\":90:117  uint public playerCount = 0 */\n  dup1\n  sstore\n    /* \"contracts/SimpleMultSend.sol\":141:142  0 */\n  0x00\n    /* \"contracts/SimpleMultSend.sol\":123:142  uint public pot = 0 */\n  0x01\n  sstore\n    /* \"contracts/SimpleMultSend.sol\":477:526  constructor(){... */\n  callvalue\n  dup1\n  iszero\n  tag_1\n  jumpi\n  0x00\n  dup1\n  revert\ntag_1:\n  pop\n    /* \"contracts/SimpleMultSend.sol\":509:519  msg.sender */\n  caller\n    /* \"contracts/SimpleMultSend.sol\":500:506  dealer */\n  0x02\n  0x00\n    /* \"contracts/SimpleMultSend.sol\":500:519  dealer = msg.sender */\n  0x0100\n  exp\n  dup2\n  sload\n  dup2\n  0xffffffffffffffffffffffffffffffffffffffff\n  mul\n  not\n  and\n  swap1\n  dup4\n  0xffffffffffffffffffffffffffffffffffffffff\n  and\n  mul\n  or\n  swap1\n  sstore\n  pop\n    /* \"contracts/SimpleMultSend.sol\":67:2100  contract myGame {... */\n  dataSize(sub_0)\n  dup1\n  dataOffset(sub_0)\n  0x00\n  codecopy\n  0x00\n  return\nstop\n\nsub_0: assembly {\n        /* \"contracts/SimpleMultSend.sol\":67:2100  contract myGame {... */\n      mstore(0x40, 0x80)\n      jumpi(tag_1, lt(calldatasize, 0x04))\n      shr(0xe0, calldataload(0x00))\n      dup1\n      0xdbdef6f1\n      gt\n      tag_9\n      jumpi\n      dup1\n      0xdbdef6f1\n      eq\n      tag_5\n      jumpi\n      dup1\n      0xe2eb41ff\n      eq\n      tag_6\n      jumpi\n      dup1\n      0xf9593e14\n      eq\n      tag_7\n      jumpi\n      dup1\n      0xfed47dac\n      eq\n      tag_8\n      jumpi\n      jump(tag_1)\n    tag_9:\n      dup1\n      0x302bcc57\n      eq\n      tag_2\n      jumpi\n      dup1\n      0x4ba2363a\n      eq\n      tag_3\n      jumpi\n      dup1\n      0x9de2ee21\n      eq\n      tag_4\n      jumpi\n    tag_1:\n      0x00\n      dup1\n      revert\n        /* \"contracts/SimpleMultSend.sol\":90:117  uint public playerCount = 0 */\n    tag_2:\n      callvalue\n      dup1\n      iszero\n      tag_10\n      jumpi\n      0x00\n      dup1\n      revert\n    tag_10:\n      pop\n      tag_11\n      tag_12\n      jump\t// in\n    tag_11:\n      mload(0x40)\n      tag_13\n      swap2\n      swap1\n      tag_14\n      jump\t// in\n    tag_13:\n      mload(0x40)\n      dup1\n      swap2\n      sub\n      swap1\n      return\n        /* \"contracts/SimpleMultSend.sol\":123:142  uint public pot = 0 */\n    tag_3:\n      callvalue\n      dup1\n      iszero\n      tag_15\n      jumpi\n      0x00\n      dup1\n      revert\n    tag_15:\n      pop\n      tag_16\n      tag_17\n      jump\t// in\n    tag_16:\n      mload(0x40)\n      tag_18\n      swap2\n      swap1\n      tag_14\n      jump\t// in\n    tag_18:\n      mload(0x40)\n      dup1\n      swap2\n      sub\n      swap1\n      return\n        /* \"contracts/SimpleMultSend.sol\":149:170  address public dealer */\n    tag_4:\n      callvalue\n      dup1\n      iszero\n      tag_19\n      jumpi\n      0x00\n      dup1\n      revert\n    tag_19:\n      pop\n      tag_20\n      tag_21\n      jump\t// in\n    tag_20:\n      mload(0x40)\n      tag_22\n      swap2\n      swap1\n      tag_23\n      jump\t// in\n    tag_22:\n      mload(0x40)\n      dup1\n      swap2\n      sub\n      swap1\n      return\n        /* \"contracts/SimpleMultSend.sol\":1236:1550  function joinGame(string memory firstName, string memory lastName) payable public {... */\n    tag_5:\n      tag_24\n      0x04\n      dup1\n      calldatasize\n      sub\n      dup2\n      add\n      swap1\n      tag_25\n      swap2\n      swap1\n      tag_26\n      jump\t// in\n    tag_25:\n      tag_27\n      jump\t// in\n    tag_24:\n      stop\n        /* \"contracts/SimpleMultSend.sol\":213:255  mapping (address => Player) public players */\n    tag_6:\n      callvalue\n      dup1\n      iszero\n      tag_28\n      jumpi\n      0x00\n      dup1\n      revert\n    tag_28:\n      pop\n      tag_29\n      0x04\n      dup1\n      calldatasize\n      sub\n      dup2\n      add\n      swap1\n      tag_30\n      swap2\n      swap1\n      tag_31\n      jump\t// in\n    tag_30:\n      tag_32\n      jump\t// in\n    tag_29:\n      mload(0x40)\n      tag_33\n      swap6\n      swap5\n      swap4\n      swap3\n      swap2\n      swap1\n      tag_34\n      jump\t// in\n    tag_33:\n      mload(0x40)\n      dup1\n      swap2\n      sub\n      swap1\n      return\n        /* \"contracts/SimpleMultSend.sol\":177:206  Player[] public playersInGame */\n    tag_7:\n      callvalue\n      dup1\n      iszero\n      tag_35\n      jumpi\n      0x00\n      dup1\n      revert\n    tag_35:\n      pop\n      tag_36\n      0x04\n      dup1\n      calldatasize\n      sub\n      dup2\n      add\n      swap1\n      tag_37\n      swap2\n      swap1\n      tag_38\n      jump\t// in\n    tag_37:\n      tag_39\n      jump\t// in\n    tag_36:\n      mload(0x40)\n      tag_40\n      swap6\n      swap5\n      swap4\n      swap3\n      swap2\n      swap1\n      tag_34\n      jump\t// in\n    tag_40:\n      mload(0x40)\n      dup1\n      swap2\n      sub\n      swap1\n      return\n        /* \"contracts/SimpleMultSend.sol\":1561:2094  function payOutWinners(address loserAddress) payable public {... */\n    tag_8:\n      tag_41\n      0x04\n      dup1\n      calldatasize\n      sub\n      dup2\n      add\n      swap1\n      tag_42\n      swap2\n      swap1\n      tag_31\n      jump\t// in\n    tag_42:\n      tag_43\n      jump\t// in\n    tag_41:\n      stop\n        /* \"contracts/SimpleMultSend.sol\":90:117  uint public playerCount = 0 */\n    tag_12:\n      sload(0x00)\n      dup2\n      jump\t// out\n        /* \"contracts/SimpleMultSend.sol\":123:142  uint public pot = 0 */\n    tag_17:\n      sload(0x01)\n      dup2\n      jump\t// out\n        /* \"contracts/SimpleMultSend.sol\":149:170  address public dealer */\n    tag_21:\n      0x02\n      0x00\n      swap1\n      sload\n      swap1\n      0x0100\n      exp\n      swap1\n      div\n      0xffffffffffffffffffffffffffffffffffffffff\n      and\n      dup2\n      jump\t// out\n        /* \"contracts/SimpleMultSend.sol\":1236:1550  function joinGame(string memory firstName, string memory lastName) payable public {... */\n    tag_27:\n        /* \"contracts/SimpleMultSend.sol\":1349:1357  25 ether */\n      0x015af1d78b58c40000\n        /* \"contracts/SimpleMultSend.sol\":1336:1345  msg.value */\n      callvalue\n        /* \"contracts/SimpleMultSend.sol\":1336:1357  msg.value == 25 ether */\n      eq\n        /* \"contracts/SimpleMultSend.sol\":1328:1389  require(msg.value == 25 ether, \"The joining fee is 25 ether\") */\n      tag_45\n      jumpi\n      mload(0x40)\n      0x08c379a000000000000000000000000000000000000000000000000000000000\n      dup2\n      mstore\n      0x04\n      add\n      tag_46\n      swap1\n      tag_47\n      jump\t// in\n    tag_46:\n      mload(0x40)\n      dup1\n      swap2\n      sub\n      swap1\n      revert\n    tag_45:\n        /* \"contracts/SimpleMultSend.sol\":1411:1417  dealer */\n      0x02\n      0x00\n      swap1\n      sload\n      swap1\n      0x0100\n      exp\n      swap1\n      div\n      0xffffffffffffffffffffffffffffffffffffffff\n      and\n        /* \"contracts/SimpleMultSend.sol\":1403:1423  payable(dealer).send */\n      0xffffffffffffffffffffffffffffffffffffffff\n      and\n        /* \"contracts/SimpleMultSend.sol\":1403:1434  payable(dealer).send(msg.value) */\n      0x08fc\n        /* \"contracts/SimpleMultSend.sol\":1424:1433  msg.value */\n      callvalue\n        /* \"contracts/SimpleMultSend.sol\":1403:1434  payable(dealer).send(msg.value) */\n      swap1\n      dup2\n      iszero\n      mul\n      swap1\n      mload(0x40)\n      0x00\n      mload(0x40)\n      dup1\n      dup4\n      sub\n      dup2\n      dup6\n      dup9\n      dup9\n      call\n      swap4\n      pop\n      pop\n      pop\n      pop\n        /* \"contracts/SimpleMultSend.sol\":1399:1544  if (payable(dealer).send(msg.value)) {... */\n      iszero\n      tag_49\n      jumpi\n        /* \"contracts/SimpleMultSend.sol\":1450:1480  addPlayer(firstName, lastName) */\n      tag_50\n        /* \"contracts/SimpleMultSend.sol\":1460:1469  firstName */\n      dup3\n        /* \"contracts/SimpleMultSend.sol\":1471:1479  lastName */\n      dup3\n        /* \"contracts/SimpleMultSend.sol\":1450:1459  addPlayer */\n      tag_51\n        /* \"contracts/SimpleMultSend.sol\":1450:1480  addPlayer(firstName, lastName) */\n      jump\t// in\n    tag_50:\n        /* \"contracts/SimpleMultSend.sol\":1509:1510  1 */\n      0x01\n        /* \"contracts/SimpleMultSend.sol\":1494:1505  playerCount */\n      0x00\n      dup1\n        /* \"contracts/SimpleMultSend.sol\":1494:1510  playerCount += 1 */\n      dup3\n      dup3\n      sload\n      tag_52\n      swap2\n      swap1\n      tag_53\n      jump\t// in\n    tag_52:\n      swap3\n      pop\n      pop\n      dup2\n      swap1\n      sstore\n      pop\n        /* \"contracts/SimpleMultSend.sol\":1531:1533  25 */\n      0x19\n        /* \"contracts/SimpleMultSend.sol\":1524:1527  pot */\n      0x01\n      0x00\n        /* \"contracts/SimpleMultSend.sol\":1524:1533  pot += 25 */\n      dup3\n      dup3\n      sload\n      tag_54\n      swap2\n      swap1\n      tag_53\n      jump\t// in\n    tag_54:\n      swap3\n      pop\n      pop\n      dup2\n      swap1\n      sstore\n      pop\n        /* \"contracts/SimpleMultSend.sol\":1399:1544  if (payable(dealer).send(msg.value)) {... */\n    tag_49:\n        /* \"contracts/SimpleMultSend.sol\":1236:1550  function joinGame(string memory firstName, string memory lastName) payable public {... */\n      pop\n      pop\n      jump\t// out\n        /* \"contracts/SimpleMultSend.sol\":213:255  mapping (address => Player) public players */\n    tag_32:\n      mstore(0x20, 0x04)\n      dup1\n      0x00\n      mstore\n      keccak256(0x00, 0x40)\n      0x00\n      swap2\n      pop\n      swap1\n      pop\n      dup1\n      0x00\n      add\n      0x00\n      swap1\n      sload\n      swap1\n      0x0100\n      exp\n      swap1\n      div\n      0xffffffffffffffffffffffffffffffffffffffff\n      and\n      swap1\n      dup1\n      0x00\n      add\n      0x14\n      swap1\n      sload\n      swap1\n      0x0100\n      exp\n      swap1\n      div\n      0xff\n      and\n      swap1\n      dup1\n      0x01\n      add\n      dup1\n      sload\n      tag_55\n      swap1\n      tag_56\n      jump\t// in\n    tag_55:\n      dup1\n      0x1f\n      add\n      0x20\n      dup1\n      swap2\n      div\n      mul\n      0x20\n      add\n      mload(0x40)\n      swap1\n      dup2\n      add\n      0x40\n      mstore\n      dup1\n      swap3\n      swap2\n      swap1\n      dup2\n      dup2\n      mstore\n      0x20\n      add\n      dup3\n      dup1\n      sload\n      tag_57\n      swap1\n      tag_56\n      jump\t// in\n    tag_57:\n      dup1\n      iszero\n      tag_58\n      jumpi\n      dup1\n      0x1f\n      lt\n      tag_59\n      jumpi\n      0x0100\n      dup1\n      dup4\n      sload\n      div\n      mul\n      dup4\n      mstore\n      swap2\n      0x20\n      add\n      swap2\n      jump(tag_58)\n    tag_59:\n      dup3\n      add\n      swap2\n      swap1\n      0x00\n      mstore\n      keccak256(0x00, 0x20)\n      swap1\n    tag_60:\n      dup2\n      sload\n      dup2\n      mstore\n      swap1\n      0x01\n      add\n      swap1\n      0x20\n      add\n      dup1\n      dup4\n      gt\n      tag_60\n      jumpi\n      dup3\n      swap1\n      sub\n      0x1f\n      and\n      dup3\n      add\n      swap2\n    tag_58:\n      pop\n      pop\n      pop\n      pop\n      pop\n      swap1\n      dup1\n      0x02\n      add\n      dup1\n      sload\n      tag_61\n      swap1\n      tag_56\n      jump\t// in\n    tag_61:\n      dup1\n      0x1f\n      add\n      0x20\n      dup1\n      swap2\n      div\n      mul\n      0x20\n      add\n      mload(0x40)\n      swap1\n      dup2\n      add\n      0x40\n      mstore\n      dup1\n      swap3\n      swap2\n      swap1\n      dup2\n      dup2\n      mstore\n      0x20\n      add\n      dup3\n      dup1\n      sload\n      tag_62\n      swap1\n      tag_56\n      jump\t// in\n    tag_62:\n      dup1\n      iszero\n      tag_63\n      jumpi\n      dup1\n      0x1f\n      lt\n      tag_64\n      jumpi\n      0x0100\n      dup1\n      dup4\n      sload\n      div\n      mul\n      dup4\n      mstore\n      swap2\n      0x20\n      add\n      swap2\n      jump(tag_63)\n    tag_64:\n      dup3\n      add\n      swap2\n      swap1\n      0x00\n      mstore\n      keccak256(0x00, 0x20)\n      swap1\n    tag_65:\n      dup2\n      sload\n      dup2\n      mstore\n      swap1\n      0x01\n      add\n      swap1\n      0x20\n      add\n      dup1\n      dup4\n      gt\n      tag_65\n      jumpi\n      dup3\n      swap1\n      sub\n      0x1f\n      and\n      dup3\n      add\n      swap2\n    tag_63:\n      pop\n      pop\n      pop\n      pop\n      pop\n      swap1\n      dup1\n      0x03\n      add\n      sload\n      swap1\n      pop\n      dup6\n      jump\t// out\n        /* \"contracts/SimpleMultSend.sol\":177:206  Player[] public playersInGame */\n    tag_39:\n      0x03\n      dup2\n      dup2\n      sload\n      dup2\n      lt\n      tag_66\n      jumpi\n      0x00\n      dup1\n      revert\n    tag_66:\n      swap1\n      0x00\n      mstore\n      keccak256(0x00, 0x20)\n      swap1\n      0x04\n      mul\n      add\n      0x00\n      swap2\n      pop\n      swap1\n      pop\n      dup1\n      0x00\n      add\n      0x00\n      swap1\n      sload\n      swap1\n      0x0100\n      exp\n      swap1\n      div\n      0xffffffffffffffffffffffffffffffffffffffff\n      and\n      swap1\n      dup1\n      0x00\n      add\n      0x14\n      swap1\n      sload\n      swap1\n      0x0100\n      exp\n      swap1\n      div\n      0xff\n      and\n      swap1\n      dup1\n      0x01\n      add\n      dup1\n      sload\n      tag_68\n      swap1\n      tag_56\n      jump\t// in\n    tag_68:\n      dup1\n      0x1f\n      add\n      0x20\n      dup1\n      swap2\n      div\n      mul\n      0x20\n      add\n      mload(0x40)\n      swap1\n      dup2\n      add\n      0x40\n      mstore\n      dup1\n      swap3\n      swap2\n      swap1\n      dup2\n      dup2\n      mstore\n      0x20\n      add\n      dup3\n      dup1\n      sload\n      tag_69\n      swap1\n      tag_56\n      jump\t// in\n    tag_69:\n      dup1\n      iszero\n      tag_70\n      jumpi\n      dup1\n      0x1f\n      lt\n      tag_71\n      jumpi\n      0x0100\n      dup1\n      dup4\n      sload\n      div\n      mul\n      dup4\n      mstore\n      swap2\n      0x20\n      add\n      swap2\n      jump(tag_70)\n    tag_71:\n      dup3\n      add\n      swap2\n      swap1\n      0x00\n      mstore\n      keccak256(0x00, 0x20)\n      swap1\n    tag_72:\n      dup2\n      sload\n      dup2\n      mstore\n      swap1\n      0x01\n      add\n      swap1\n      0x20\n      add\n      dup1\n      dup4\n      gt\n      tag_72\n      jumpi\n      dup3\n      swap1\n      sub\n      0x1f\n      and\n      dup3\n      add\n      swap2\n    tag_70:\n      pop\n      pop\n      pop\n      pop\n      pop\n      swap1\n      dup1\n      0x02\n      add\n      dup1\n      sload\n      tag_73\n      swap1\n      tag_56\n      jump\t// in\n    tag_73:\n      dup1\n      0x1f\n      add\n      0x20\n      dup1\n      swap2\n      div\n      mul\n      0x20\n      add\n      mload(0x40)\n      swap1\n      dup2\n      add\n      0x40\n      mstore\n      dup1\n      swap3\n      swap2\n      swap1\n      dup2\n      dup2\n      mstore\n      0x20\n      add\n      dup3\n      dup1\n      sload\n      tag_74\n      swap1\n      tag_56\n      jump\t// in\n    tag_74:\n      dup1\n      iszero\n      tag_75\n      jumpi\n      dup1\n      0x1f\n      lt\n      tag_76\n      jumpi\n      0x0100\n      dup1\n      dup4\n      sload\n      div\n      mul\n      dup4\n      mstore\n      swap2\n      0x20\n      add\n      swap2\n      jump(tag_75)\n    tag_76:\n      dup3\n      add\n      swap2\n      swap1\n      0x00\n      mstore\n      keccak256(0x00, 0x20)\n      swap1\n    tag_77:\n      dup2\n      sload\n      dup2\n      mstore\n      swap1\n      0x01\n      add\n      swap1\n      0x20\n      add\n      dup1\n      dup4\n      gt\n      tag_77\n      jumpi\n      dup3\n      swap1\n      sub\n      0x1f\n      and\n      dup3\n      add\n      swap2\n    tag_75:\n      pop\n      pop\n      pop\n      pop\n      pop\n      swap1\n      dup1\n      0x03\n      add\n      sload\n      swap1\n      pop\n      dup6\n      jump\t// out\n        /* \"contracts/SimpleMultSend.sol\":1561:2094  function payOutWinners(address loserAddress) payable public {... */\n    tag_43:\n        /* \"contracts/SimpleMultSend.sol\":1653:1659  dealer */\n      0x02\n      0x00\n      swap1\n      sload\n      swap1\n      0x0100\n      exp\n      swap1\n      div\n      0xffffffffffffffffffffffffffffffffffffffff\n      and\n        /* \"contracts/SimpleMultSend.sol\":1639:1659  msg.sender == dealer */\n      0xffffffffffffffffffffffffffffffffffffffff\n      and\n        /* \"contracts/SimpleMultSend.sol\":1639:1649  msg.sender */\n      caller\n        /* \"contracts/SimpleMultSend.sol\":1639:1659  msg.sender == dealer */\n      0xffffffffffffffffffffffffffffffffffffffff\n      and\n      eq\n        /* \"contracts/SimpleMultSend.sol\":1631:1704  require(msg.sender == dealer, \"Only the dealer can pay out the winners.\") */\n      tag_79\n      jumpi\n      mload(0x40)\n      0x08c379a000000000000000000000000000000000000000000000000000000000\n      dup2\n      mstore\n      0x04\n      add\n      tag_80\n      swap1\n      tag_81\n      jump\t// in\n    tag_80:\n      mload(0x40)\n      dup1\n      swap2\n      sub\n      swap1\n      revert\n    tag_79:\n        /* \"contracts/SimpleMultSend.sol\":1742:1749  1 ether */\n      0x0de0b6b3a7640000\n        /* \"contracts/SimpleMultSend.sol\":1735:1738  pot */\n      sload(0x01)\n        /* \"contracts/SimpleMultSend.sol\":1735:1750  pot * (1 ether) */\n      tag_82\n      swap2\n      swap1\n      tag_83\n      jump\t// in\n    tag_82:\n        /* \"contracts/SimpleMultSend.sol\":1722:1731  msg.value */\n      callvalue\n        /* \"contracts/SimpleMultSend.sol\":1722:1750  msg.value == pot * (1 ether) */\n      eq\n        /* \"contracts/SimpleMultSend.sol\":1714:1751  require(msg.value == pot * (1 ether)) */\n      tag_84\n      jumpi\n      0x00\n      dup1\n      revert\n    tag_84:\n        /* \"contracts/SimpleMultSend.sol\":1761:1781  uint payoutPerWinner */\n      0x00\n        /* \"contracts/SimpleMultSend.sol\":1811:1812  1 */\n      0x01\n        /* \"contracts/SimpleMultSend.sol\":1797:1808  playerCount */\n      sload(0x00)\n        /* \"contracts/SimpleMultSend.sol\":1797:1812  playerCount - 1 */\n      tag_85\n      swap2\n      swap1\n      tag_86\n      jump\t// in\n    tag_85:\n        /* \"contracts/SimpleMultSend.sol\":1784:1793  msg.value */\n      callvalue\n        /* \"contracts/SimpleMultSend.sol\":1784:1813  msg.value / (playerCount - 1) */\n      tag_87\n      swap2\n      swap1\n      tag_88\n      jump\t// in\n    tag_87:\n        /* \"contracts/SimpleMultSend.sol\":1761:1813  uint payoutPerWinner = msg.value / (playerCount - 1) */\n      swap1\n      pop\n        /* \"contracts/SimpleMultSend.sol\":1828:1834  uint i */\n      0x00\n        /* \"contracts/SimpleMultSend.sol\":1823:2084  for (uint i=0; i<playersInGame.length; i++) {... */\n    tag_89:\n        /* \"contracts/SimpleMultSend.sol\":1840:1853  playersInGame */\n      0x03\n        /* \"contracts/SimpleMultSend.sol\":1840:1860  playersInGame.length */\n      dup1\n      sload\n      swap1\n      pop\n        /* \"contracts/SimpleMultSend.sol\":1838:1839  i */\n      dup2\n        /* \"contracts/SimpleMultSend.sol\":1838:1860  i<playersInGame.length */\n      lt\n        /* \"contracts/SimpleMultSend.sol\":1823:2084  for (uint i=0; i<playersInGame.length; i++) {... */\n      iszero\n      tag_90\n      jumpi\n        /* \"contracts/SimpleMultSend.sol\":1881:1909  address currentPlayerAddress */\n      0x00\n        /* \"contracts/SimpleMultSend.sol\":1912:1925  playersInGame */\n      0x03\n        /* \"contracts/SimpleMultSend.sol\":1926:1927  i */\n      dup3\n        /* \"contracts/SimpleMultSend.sol\":1912:1928  playersInGame[i] */\n      dup2\n      sload\n      dup2\n      lt\n      tag_92\n      jumpi\n      tag_93\n      tag_94\n      jump\t// in\n    tag_93:\n    tag_92:\n      swap1\n      0x00\n      mstore\n      keccak256(0x00, 0x20)\n      swap1\n      0x04\n      mul\n      add\n        /* \"contracts/SimpleMultSend.sol\":1912:1942  playersInGame[i].playerAddress */\n      0x00\n      add\n      0x00\n      swap1\n      sload\n      swap1\n      0x0100\n      exp\n      swap1\n      div\n      0xffffffffffffffffffffffffffffffffffffffff\n      and\n        /* \"contracts/SimpleMultSend.sol\":1881:1942  address currentPlayerAddress = playersInGame[i].playerAddress */\n      swap1\n      pop\n        /* \"contracts/SimpleMultSend.sol\":1984:1996  loserAddress */\n      dup4\n        /* \"contracts/SimpleMultSend.sol\":1960:1996  currentPlayerAddress != loserAddress */\n      0xffffffffffffffffffffffffffffffffffffffff\n      and\n        /* \"contracts/SimpleMultSend.sol\":1960:1980  currentPlayerAddress */\n      dup2\n        /* \"contracts/SimpleMultSend.sol\":1960:1996  currentPlayerAddress != loserAddress */\n      0xffffffffffffffffffffffffffffffffffffffff\n      and\n      eq\n        /* \"contracts/SimpleMultSend.sol\":1956:2069  if (currentPlayerAddress != loserAddress)... */\n      tag_96\n      jumpi\n        /* \"contracts/SimpleMultSend.sol\":2022:2042  currentPlayerAddress */\n      dup1\n        /* \"contracts/SimpleMultSend.sol\":2014:2052  payable(currentPlayerAddress).transfer */\n      0xffffffffffffffffffffffffffffffffffffffff\n      and\n        /* \"contracts/SimpleMultSend.sol\":2014:2069  payable(currentPlayerAddress).transfer(payoutPerWinner) */\n      0x08fc\n        /* \"contracts/SimpleMultSend.sol\":2053:2068  payoutPerWinner */\n      dup5\n        /* \"contracts/SimpleMultSend.sol\":2014:2069  payable(currentPlayerAddress).transfer(payoutPerWinner) */\n      swap1\n      dup2\n      iszero\n      mul\n      swap1\n      mload(0x40)\n      0x00\n      mload(0x40)\n      dup1\n      dup4\n      sub\n      dup2\n      dup6\n      dup9\n      dup9\n      call\n      swap4\n      pop\n      pop\n      pop\n      pop\n      iszero\n      dup1\n      iszero\n      tag_98\n      jumpi\n      returndatasize\n      0x00\n      dup1\n      returndatacopy\n      revert(0x00, returndatasize)\n    tag_98:\n      pop\n        /* \"contracts/SimpleMultSend.sol\":1956:2069  if (currentPlayerAddress != loserAddress)... */\n    tag_96:\n        /* \"contracts/SimpleMultSend.sol\":1867:2084  {... */\n      pop\n        /* \"contracts/SimpleMultSend.sol\":1862:1865  i++ */\n      dup1\n      dup1\n      tag_99\n      swap1\n      tag_100\n      jump\t// in\n    tag_99:\n      swap2\n      pop\n      pop\n        /* \"contracts/SimpleMultSend.sol\":1823:2084  for (uint i=0; i<playersInGame.length; i++) {... */\n      jump(tag_89)\n    tag_90:\n      pop\n        /* \"contracts/SimpleMultSend.sol\":1621:2094  {... */\n      pop\n        /* \"contracts/SimpleMultSend.sol\":1561:2094  function payOutWinners(address loserAddress) payable public {... */\n      pop\n      jump\t// out\n        /* \"contracts/SimpleMultSend.sol\":532:801  function addPlayer(string memory firstName, string memory lastName) private {... */\n    tag_51:\n        /* \"contracts/SimpleMultSend.sol\":618:641  Player memory newPlayer */\n      0x00\n        /* \"contracts/SimpleMultSend.sol\":644:714  Player(msg.sender, Level.Novice, firstName, lastName, block.timestamp) */\n      mload(0x40)\n      dup1\n      0xa0\n      add\n      0x40\n      mstore\n      dup1\n        /* \"contracts/SimpleMultSend.sol\":651:661  msg.sender */\n      caller\n        /* \"contracts/SimpleMultSend.sol\":644:714  Player(msg.sender, Level.Novice, firstName, lastName, block.timestamp) */\n      0xffffffffffffffffffffffffffffffffffffffff\n      and\n      dup2\n      mstore\n      0x20\n      add\n        /* \"contracts/SimpleMultSend.sol\":663:675  Level.Novice */\n      0x00\n        /* \"contracts/SimpleMultSend.sol\":644:714  Player(msg.sender, Level.Novice, firstName, lastName, block.timestamp) */\n      0x02\n      dup2\n      gt\n      iszero\n      tag_102\n      jumpi\n      tag_103\n      tag_104\n      jump\t// in\n    tag_103:\n    tag_102:\n      dup2\n      mstore\n      0x20\n      add\n        /* \"contracts/SimpleMultSend.sol\":677:686  firstName */\n      dup5\n        /* \"contracts/SimpleMultSend.sol\":644:714  Player(msg.sender, Level.Novice, firstName, lastName, block.timestamp) */\n      dup2\n      mstore\n      0x20\n      add\n        /* \"contracts/SimpleMultSend.sol\":688:696  lastName */\n      dup4\n        /* \"contracts/SimpleMultSend.sol\":644:714  Player(msg.sender, Level.Novice, firstName, lastName, block.timestamp) */\n      dup2\n      mstore\n      0x20\n      add\n        /* \"contracts/SimpleMultSend.sol\":698:713  block.timestamp */\n      timestamp\n        /* \"contracts/SimpleMultSend.sol\":644:714  Player(msg.sender, Level.Novice, firstName, lastName, block.timestamp) */\n      dup2\n      mstore\n      pop\n        /* \"contracts/SimpleMultSend.sol\":618:714  Player memory newPlayer = Player(msg.sender, Level.Novice, firstName, lastName, block.timestamp) */\n      swap1\n      pop\n        /* \"contracts/SimpleMultSend.sol\":746:755  newPlayer */\n      dup1\n        /* \"contracts/SimpleMultSend.sol\":724:731  players */\n      0x04\n        /* \"contracts/SimpleMultSend.sol\":724:743  players[msg.sender] */\n      0x00\n        /* \"contracts/SimpleMultSend.sol\":732:742  msg.sender */\n      caller\n        /* \"contracts/SimpleMultSend.sol\":724:743  players[msg.sender] */\n      0xffffffffffffffffffffffffffffffffffffffff\n      and\n      0xffffffffffffffffffffffffffffffffffffffff\n      and\n      dup2\n      mstore\n      0x20\n      add\n      swap1\n      dup2\n      mstore\n      0x20\n      add\n      0x00\n      keccak256\n        /* \"contracts/SimpleMultSend.sol\":724:755  players[msg.sender] = newPlayer */\n      0x00\n      dup3\n      add\n      mload\n      dup2\n      0x00\n      add\n      exp(0x0100, 0x00)\n      dup2\n      sload\n      dup2\n      0xffffffffffffffffffffffffffffffffffffffff\n      mul\n      not\n      and\n      swap1\n      dup4\n      0xffffffffffffffffffffffffffffffffffffffff\n      and\n      mul\n      or\n      swap1\n      sstore\n      pop\n      0x20\n      dup3\n      add\n      mload\n      dup2\n      0x00\n      add\n      exp(0x0100, 0x14)\n      dup2\n      sload\n      dup2\n      0xff\n      mul\n      not\n      and\n      swap1\n      dup4\n      0x02\n      dup2\n      gt\n      iszero\n      tag_105\n      jumpi\n      tag_106\n      tag_104\n      jump\t// in\n    tag_106:\n    tag_105:\n      mul\n      or\n      swap1\n      sstore\n      pop\n      0x40\n      dup3\n      add\n      mload\n      dup2\n      0x01\n      add\n      swap1\n      dup1\n      mload\n      swap1\n      0x20\n      add\n      swap1\n      tag_107\n      swap3\n      swap2\n      swap1\n      tag_108\n      jump\t// in\n    tag_107:\n      pop\n      0x60\n      dup3\n      add\n      mload\n      dup2\n      0x02\n      add\n      swap1\n      dup1\n      mload\n      swap1\n      0x20\n      add\n      swap1\n      tag_109\n      swap3\n      swap2\n      swap1\n      tag_108\n      jump\t// in\n    tag_109:\n      pop\n      0x80\n      dup3\n      add\n      mload\n      dup2\n      0x03\n      add\n      sstore\n      swap1\n      pop\n      pop\n        /* \"contracts/SimpleMultSend.sol\":765:778  playersInGame */\n      0x03\n        /* \"contracts/SimpleMultSend.sol\":784:793  newPlayer */\n      dup2\n        /* \"contracts/SimpleMultSend.sol\":765:794  playersInGame.push(newPlayer) */\n      swap1\n      dup1\n      0x01\n      dup2\n      sload\n      add\n      dup1\n      dup3\n      sstore\n      dup1\n      swap2\n      pop\n      pop\n      0x01\n      swap1\n      sub\n      swap1\n      0x00\n      mstore\n      keccak256(0x00, 0x20)\n      swap1\n      0x04\n      mul\n      add\n      0x00\n      swap1\n      swap2\n      swap1\n      swap2\n      swap1\n      swap2\n      pop\n      0x00\n      dup3\n      add\n      mload\n      dup2\n      0x00\n      add\n      exp(0x0100, 0x00)\n      dup2\n      sload\n      dup2\n      0xffffffffffffffffffffffffffffffffffffffff\n      mul\n      not\n      and\n      swap1\n      dup4\n      0xffffffffffffffffffffffffffffffffffffffff\n      and\n      mul\n      or\n      swap1\n      sstore\n      pop\n      0x20\n      dup3\n      add\n      mload\n      dup2\n      0x00\n      add\n      exp(0x0100, 0x14)\n      dup2\n      sload\n      dup2\n      0xff\n      mul\n      not\n      and\n      swap1\n      dup4\n      0x02\n      dup2\n      gt\n      iszero\n      tag_111\n      jumpi\n      tag_112\n      tag_104\n      jump\t// in\n    tag_112:\n    tag_111:\n      mul\n      or\n      swap1\n      sstore\n      pop\n      0x40\n      dup3\n      add\n      mload\n      dup2\n      0x01\n      add\n      swap1\n      dup1\n      mload\n      swap1\n      0x20\n      add\n      swap1\n      tag_113\n      swap3\n      swap2\n      swap1\n      tag_108\n      jump\t// in\n    tag_113:\n      pop\n      0x60\n      dup3\n      add\n      mload\n      dup2\n      0x02\n      add\n      swap1\n      dup1\n      mload\n      swap1\n      0x20\n      add\n      swap1\n      tag_114\n      swap3\n      swap2\n      swap1\n      tag_108\n      jump\t// in\n    tag_114:\n      pop\n      0x80\n      dup3\n      add\n      mload\n      dup2\n      0x03\n      add\n      sstore\n      pop\n      pop\n        /* \"contracts/SimpleMultSend.sol\":608:801  {... */\n      pop\n        /* \"contracts/SimpleMultSend.sol\":532:801  function addPlayer(string memory firstName, string memory lastName) private {... */\n      pop\n      pop\n      jump\t// out\n    tag_108:\n      dup3\n      dup1\n      sload\n      tag_115\n      swap1\n      tag_56\n      jump\t// in\n    tag_115:\n      swap1\n      0x00\n      mstore\n      keccak256(0x00, 0x20)\n      swap1\n      0x1f\n      add\n      0x20\n      swap1\n      div\n      dup2\n      add\n      swap3\n      dup3\n      tag_117\n      jumpi\n      0x00\n      dup6\n      sstore\n      jump(tag_116)\n    tag_117:\n      dup3\n      0x1f\n      lt\n      tag_118\n      jumpi\n      dup1\n      mload\n      not(0xff)\n      and\n      dup4\n      dup1\n      add\n      or\n      dup6\n      sstore\n      jump(tag_116)\n    tag_118:\n      dup3\n      dup1\n      add\n      0x01\n      add\n      dup6\n      sstore\n      dup3\n      iszero\n      tag_116\n      jumpi\n      swap2\n      dup3\n      add\n    tag_119:\n      dup3\n      dup2\n      gt\n      iszero\n      tag_120\n      jumpi\n      dup3\n      mload\n      dup3\n      sstore\n      swap2\n      0x20\n      add\n      swap2\n      swap1\n      0x01\n      add\n      swap1\n      jump(tag_119)\n    tag_120:\n    tag_116:\n      pop\n      swap1\n      pop\n      tag_121\n      swap2\n      swap1\n      tag_122\n      jump\t// in\n    tag_121:\n      pop\n      swap1\n      jump\t// out\n    tag_122:\n    tag_123:\n      dup1\n      dup3\n      gt\n      iszero\n      tag_124\n      jumpi\n      0x00\n      dup2\n      0x00\n      swap1\n      sstore\n      pop\n      0x01\n      add\n      jump(tag_123)\n    tag_124:\n      pop\n      swap1\n      jump\t// out\n        /* \"#utility.yul\":7:419   */\n    tag_126:\n        /* \"#utility.yul\":85:90   */\n      0x00\n        /* \"#utility.yul\":110:176   */\n      tag_128\n        /* \"#utility.yul\":126:175   */\n      tag_129\n        /* \"#utility.yul\":168:174   */\n      dup5\n        /* \"#utility.yul\":126:175   */\n      tag_130\n      jump\t// in\n    tag_129:\n        /* \"#utility.yul\":110:176   */\n      tag_131\n      jump\t// in\n    tag_128:\n        /* \"#utility.yul\":101:176   */\n      swap1\n      pop\n        /* \"#utility.yul\":199:205   */\n      dup3\n        /* \"#utility.yul\":192:197   */\n      dup2\n        /* \"#utility.yul\":185:206   */\n      mstore\n        /* \"#utility.yul\":237:241   */\n      0x20\n        /* \"#utility.yul\":230:235   */\n      dup2\n        /* \"#utility.yul\":226:242   */\n      add\n        /* \"#utility.yul\":275:278   */\n      dup5\n        /* \"#utility.yul\":266:272   */\n      dup5\n        /* \"#utility.yul\":261:264   */\n      dup5\n        /* \"#utility.yul\":257:273   */\n      add\n        /* \"#utility.yul\":254:279   */\n      gt\n        /* \"#utility.yul\":251:363   */\n      iszero\n      tag_132\n      jumpi\n        /* \"#utility.yul\":282:361   */\n      tag_133\n      tag_134\n      jump\t// in\n    tag_133:\n        /* \"#utility.yul\":251:363   */\n    tag_132:\n        /* \"#utility.yul\":372:413   */\n      tag_135\n        /* \"#utility.yul\":406:412   */\n      dup5\n        /* \"#utility.yul\":401:404   */\n      dup3\n        /* \"#utility.yul\":396:399   */\n      dup6\n        /* \"#utility.yul\":372:413   */\n      tag_136\n      jump\t// in\n    tag_135:\n        /* \"#utility.yul\":91:419   */\n      pop\n        /* \"#utility.yul\":7:419   */\n      swap4\n      swap3\n      pop\n      pop\n      pop\n      jump\t// out\n        /* \"#utility.yul\":425:564   */\n    tag_137:\n        /* \"#utility.yul\":471:476   */\n      0x00\n        /* \"#utility.yul\":509:515   */\n      dup2\n        /* \"#utility.yul\":496:516   */\n      calldataload\n        /* \"#utility.yul\":487:516   */\n      swap1\n      pop\n        /* \"#utility.yul\":525:558   */\n      tag_139\n        /* \"#utility.yul\":552:557   */\n      dup2\n        /* \"#utility.yul\":525:558   */\n      tag_140\n      jump\t// in\n    tag_139:\n        /* \"#utility.yul\":425:564   */\n      swap3\n      swap2\n      pop\n      pop\n      jump\t// out\n        /* \"#utility.yul\":584:924   */\n    tag_141:\n        /* \"#utility.yul\":640:645   */\n      0x00\n        /* \"#utility.yul\":689:692   */\n      dup3\n        /* \"#utility.yul\":682:686   */\n      0x1f\n        /* \"#utility.yul\":674:680   */\n      dup4\n        /* \"#utility.yul\":670:687   */\n      add\n        /* \"#utility.yul\":666:693   */\n      slt\n        /* \"#utility.yul\":656:778   */\n      tag_143\n      jumpi\n        /* \"#utility.yul\":697:776   */\n      tag_144\n      tag_145\n      jump\t// in\n    tag_144:\n        /* \"#utility.yul\":656:778   */\n    tag_143:\n        /* \"#utility.yul\":814:820   */\n      dup2\n        /* \"#utility.yul\":801:821   */\n      calldataload\n        /* \"#utility.yul\":839:918   */\n      tag_146\n        /* \"#utility.yul\":914:917   */\n      dup5\n        /* \"#utility.yul\":906:912   */\n      dup3\n        /* \"#utility.yul\":899:903   */\n      0x20\n        /* \"#utility.yul\":891:897   */\n      dup7\n        /* \"#utility.yul\":887:904   */\n      add\n        /* \"#utility.yul\":839:918   */\n      tag_126\n      jump\t// in\n    tag_146:\n        /* \"#utility.yul\":830:918   */\n      swap2\n      pop\n        /* \"#utility.yul\":646:924   */\n      pop\n        /* \"#utility.yul\":584:924   */\n      swap3\n      swap2\n      pop\n      pop\n      jump\t// out\n        /* \"#utility.yul\":930:1069   */\n    tag_147:\n        /* \"#utility.yul\":976:981   */\n      0x00\n        /* \"#utility.yul\":1014:1020   */\n      dup2\n        /* \"#utility.yul\":1001:1021   */\n      calldataload\n        /* \"#utility.yul\":992:1021   */\n      swap1\n      pop\n        /* \"#utility.yul\":1030:1063   */\n      tag_149\n        /* \"#utility.yul\":1057:1062   */\n      dup2\n        /* \"#utility.yul\":1030:1063   */\n      tag_150\n      jump\t// in\n    tag_149:\n        /* \"#utility.yul\":930:1069   */\n      swap3\n      swap2\n      pop\n      pop\n      jump\t// out\n        /* \"#utility.yul\":1075:1404   */\n    tag_31:\n        /* \"#utility.yul\":1134:1140   */\n      0x00\n        /* \"#utility.yul\":1183:1185   */\n      0x20\n        /* \"#utility.yul\":1171:1180   */\n      dup3\n        /* \"#utility.yul\":1162:1169   */\n      dup5\n        /* \"#utility.yul\":1158:1181   */\n      sub\n        /* \"#utility.yul\":1154:1186   */\n      slt\n        /* \"#utility.yul\":1151:1270   */\n      iszero\n      tag_152\n      jumpi\n        /* \"#utility.yul\":1189:1268   */\n      tag_153\n      tag_154\n      jump\t// in\n    tag_153:\n        /* \"#utility.yul\":1151:1270   */\n    tag_152:\n        /* \"#utility.yul\":1309:1310   */\n      0x00\n        /* \"#utility.yul\":1334:1387   */\n      tag_155\n        /* \"#utility.yul\":1379:1386   */\n      dup5\n        /* \"#utility.yul\":1370:1376   */\n      dup3\n        /* \"#utility.yul\":1359:1368   */\n      dup6\n        /* \"#utility.yul\":1355:1377   */\n      add\n        /* \"#utility.yul\":1334:1387   */\n      tag_137\n      jump\t// in\n    tag_155:\n        /* \"#utility.yul\":1324:1387   */\n      swap2\n      pop\n        /* \"#utility.yul\":1280:1397   */\n      pop\n        /* \"#utility.yul\":1075:1404   */\n      swap3\n      swap2\n      pop\n      pop\n      jump\t// out\n        /* \"#utility.yul\":1410:2244   */\n    tag_26:\n        /* \"#utility.yul\":1498:1504   */\n      0x00\n        /* \"#utility.yul\":1506:1512   */\n      dup1\n        /* \"#utility.yul\":1555:1557   */\n      0x40\n        /* \"#utility.yul\":1543:1552   */\n      dup4\n        /* \"#utility.yul\":1534:1541   */\n      dup6\n        /* \"#utility.yul\":1530:1553   */\n      sub\n        /* \"#utility.yul\":1526:1558   */\n      slt\n        /* \"#utility.yul\":1523:1642   */\n      iszero\n      tag_157\n      jumpi\n        /* \"#utility.yul\":1561:1640   */\n      tag_158\n      tag_154\n      jump\t// in\n    tag_158:\n        /* \"#utility.yul\":1523:1642   */\n    tag_157:\n        /* \"#utility.yul\":1709:1710   */\n      0x00\n        /* \"#utility.yul\":1698:1707   */\n      dup4\n        /* \"#utility.yul\":1694:1711   */\n      add\n        /* \"#utility.yul\":1681:1712   */\n      calldataload\n        /* \"#utility.yul\":1739:1757   */\n      0xffffffffffffffff\n        /* \"#utility.yul\":1731:1737   */\n      dup2\n        /* \"#utility.yul\":1728:1758   */\n      gt\n        /* \"#utility.yul\":1725:1842   */\n      iszero\n      tag_159\n      jumpi\n        /* \"#utility.yul\":1761:1840   */\n      tag_160\n      tag_161\n      jump\t// in\n    tag_160:\n        /* \"#utility.yul\":1725:1842   */\n    tag_159:\n        /* \"#utility.yul\":1866:1929   */\n      tag_162\n        /* \"#utility.yul\":1921:1928   */\n      dup6\n        /* \"#utility.yul\":1912:1918   */\n      dup3\n        /* \"#utility.yul\":1901:1910   */\n      dup7\n        /* \"#utility.yul\":1897:1919   */\n      add\n        /* \"#utility.yul\":1866:1929   */\n      tag_141\n      jump\t// in\n    tag_162:\n        /* \"#utility.yul\":1856:1929   */\n      swap3\n      pop\n        /* \"#utility.yul\":1652:1939   */\n      pop\n        /* \"#utility.yul\":2006:2008   */\n      0x20\n        /* \"#utility.yul\":1995:2004   */\n      dup4\n        /* \"#utility.yul\":1991:2009   */\n      add\n        /* \"#utility.yul\":1978:2010   */\n      calldataload\n        /* \"#utility.yul\":2037:2055   */\n      0xffffffffffffffff\n        /* \"#utility.yul\":2029:2035   */\n      dup2\n        /* \"#utility.yul\":2026:2056   */\n      gt\n        /* \"#utility.yul\":2023:2140   */\n      iszero\n      tag_163\n      jumpi\n        /* \"#utility.yul\":2059:2138   */\n      tag_164\n      tag_161\n      jump\t// in\n    tag_164:\n        /* \"#utility.yul\":2023:2140   */\n    tag_163:\n        /* \"#utility.yul\":2164:2227   */\n      tag_165\n        /* \"#utility.yul\":2219:2226   */\n      dup6\n        /* \"#utility.yul\":2210:2216   */\n      dup3\n        /* \"#utility.yul\":2199:2208   */\n      dup7\n        /* \"#utility.yul\":2195:2217   */\n      add\n        /* \"#utility.yul\":2164:2227   */\n      tag_141\n      jump\t// in\n    tag_165:\n        /* \"#utility.yul\":2154:2227   */\n      swap2\n      pop\n        /* \"#utility.yul\":1949:2237   */\n      pop\n        /* \"#utility.yul\":1410:2244   */\n      swap3\n      pop\n      swap3\n      swap1\n      pop\n      jump\t// out\n        /* \"#utility.yul\":2250:2579   */\n    tag_38:\n        /* \"#utility.yul\":2309:2315   */\n      0x00\n        /* \"#utility.yul\":2358:2360   */\n      0x20\n        /* \"#utility.yul\":2346:2355   */\n      dup3\n        /* \"#utility.yul\":2337:2344   */\n      dup5\n        /* \"#utility.yul\":2333:2356   */\n      sub\n        /* \"#utility.yul\":2329:2361   */\n      slt\n        /* \"#utility.yul\":2326:2445   */\n      iszero\n      tag_167\n      jumpi\n        /* \"#utility.yul\":2364:2443   */\n      tag_168\n      tag_154\n      jump\t// in\n    tag_168:\n        /* \"#utility.yul\":2326:2445   */\n    tag_167:\n        /* \"#utility.yul\":2484:2485   */\n      0x00\n        /* \"#utility.yul\":2509:2562   */\n      tag_169\n        /* \"#utility.yul\":2554:2561   */\n      dup5\n        /* \"#utility.yul\":2545:2551   */\n      dup3\n        /* \"#utility.yul\":2534:2543   */\n      dup6\n        /* \"#utility.yul\":2530:2552   */\n      add\n        /* \"#utility.yul\":2509:2562   */\n      tag_147\n      jump\t// in\n    tag_169:\n        /* \"#utility.yul\":2499:2562   */\n      swap2\n      pop\n        /* \"#utility.yul\":2455:2572   */\n      pop\n        /* \"#utility.yul\":2250:2579   */\n      swap3\n      swap2\n      pop\n      pop\n      jump\t// out\n        /* \"#utility.yul\":2585:2703   */\n    tag_170:\n        /* \"#utility.yul\":2672:2696   */\n      tag_172\n        /* \"#utility.yul\":2690:2695   */\n      dup2\n        /* \"#utility.yul\":2672:2696   */\n      tag_173\n      jump\t// in\n    tag_172:\n        /* \"#utility.yul\":2667:2670   */\n      dup3\n        /* \"#utility.yul\":2660:2697   */\n      mstore\n        /* \"#utility.yul\":2585:2703   */\n      pop\n      pop\n      jump\t// out\n        /* \"#utility.yul\":2709:2852   */\n    tag_174:\n        /* \"#utility.yul\":2802:2845   */\n      tag_176\n        /* \"#utility.yul\":2839:2844   */\n      dup2\n        /* \"#utility.yul\":2802:2845   */\n      tag_177\n      jump\t// in\n    tag_176:\n        /* \"#utility.yul\":2797:2800   */\n      dup3\n        /* \"#utility.yul\":2790:2846   */\n      mstore\n        /* \"#utility.yul\":2709:2852   */\n      pop\n      pop\n      jump\t// out\n        /* \"#utility.yul\":2858:3222   */\n    tag_178:\n        /* \"#utility.yul\":2946:2949   */\n      0x00\n        /* \"#utility.yul\":2974:3013   */\n      tag_180\n        /* \"#utility.yul\":3007:3012   */\n      dup3\n        /* \"#utility.yul\":2974:3013   */\n      tag_181\n      jump\t// in\n    tag_180:\n        /* \"#utility.yul\":3029:3100   */\n      tag_182\n        /* \"#utility.yul\":3093:3099   */\n      dup2\n        /* \"#utility.yul\":3088:3091   */\n      dup6\n        /* \"#utility.yul\":3029:3100   */\n      tag_183\n      jump\t// in\n    tag_182:\n        /* \"#utility.yul\":3022:3100   */\n      swap4\n      pop\n        /* \"#utility.yul\":3109:3161   */\n      tag_184\n        /* \"#utility.yul\":3154:3160   */\n      dup2\n        /* \"#utility.yul\":3149:3152   */\n      dup6\n        /* \"#utility.yul\":3142:3146   */\n      0x20\n        /* \"#utility.yul\":3135:3140   */\n      dup7\n        /* \"#utility.yul\":3131:3147   */\n      add\n        /* \"#utility.yul\":3109:3161   */\n      tag_185\n      jump\t// in\n    tag_184:\n        /* \"#utility.yul\":3186:3215   */\n      tag_186\n        /* \"#utility.yul\":3208:3214   */\n      dup2\n        /* \"#utility.yul\":3186:3215   */\n      tag_187\n      jump\t// in\n    tag_186:\n        /* \"#utility.yul\":3181:3184   */\n      dup5\n        /* \"#utility.yul\":3177:3216   */\n      add\n        /* \"#utility.yul\":3170:3216   */\n      swap2\n      pop\n        /* \"#utility.yul\":2950:3222   */\n      pop\n        /* \"#utility.yul\":2858:3222   */\n      swap3\n      swap2\n      pop\n      pop\n      jump\t// out\n        /* \"#utility.yul\":3228:3594   */\n    tag_188:\n        /* \"#utility.yul\":3370:3373   */\n      0x00\n        /* \"#utility.yul\":3391:3458   */\n      tag_190\n        /* \"#utility.yul\":3455:3457   */\n      0x28\n        /* \"#utility.yul\":3450:3453   */\n      dup4\n        /* \"#utility.yul\":3391:3458   */\n      tag_183\n      jump\t// in\n    tag_190:\n        /* \"#utility.yul\":3384:3458   */\n      swap2\n      pop\n        /* \"#utility.yul\":3467:3560   */\n      tag_191\n        /* \"#utility.yul\":3556:3559   */\n      dup3\n        /* \"#utility.yul\":3467:3560   */\n      tag_192\n      jump\t// in\n    tag_191:\n        /* \"#utility.yul\":3585:3587   */\n      0x40\n        /* \"#utility.yul\":3580:3583   */\n      dup3\n        /* \"#utility.yul\":3576:3588   */\n      add\n        /* \"#utility.yul\":3569:3588   */\n      swap1\n      pop\n        /* \"#utility.yul\":3228:3594   */\n      swap2\n      swap1\n      pop\n      jump\t// out\n        /* \"#utility.yul\":3600:3966   */\n    tag_193:\n        /* \"#utility.yul\":3742:3745   */\n      0x00\n        /* \"#utility.yul\":3763:3830   */\n      tag_195\n        /* \"#utility.yul\":3827:3829   */\n      0x1b\n        /* \"#utility.yul\":3822:3825   */\n      dup4\n        /* \"#utility.yul\":3763:3830   */\n      tag_183\n      jump\t// in\n    tag_195:\n        /* \"#utility.yul\":3756:3830   */\n      swap2\n      pop\n        /* \"#utility.yul\":3839:3932   */\n      tag_196\n        /* \"#utility.yul\":3928:3931   */\n      dup3\n        /* \"#utility.yul\":3839:3932   */\n      tag_197\n      jump\t// in\n    tag_196:\n        /* \"#utility.yul\":3957:3959   */\n      0x20\n        /* \"#utility.yul\":3952:3955   */\n      dup3\n        /* \"#utility.yul\":3948:3960   */\n      add\n        /* \"#utility.yul\":3941:3960   */\n      swap1\n      pop\n        /* \"#utility.yul\":3600:3966   */\n      swap2\n      swap1\n      pop\n      jump\t// out\n        /* \"#utility.yul\":3972:4090   */\n    tag_198:\n        /* \"#utility.yul\":4059:4083   */\n      tag_200\n        /* \"#utility.yul\":4077:4082   */\n      dup2\n        /* \"#utility.yul\":4059:4083   */\n      tag_201\n      jump\t// in\n    tag_200:\n        /* \"#utility.yul\":4054:4057   */\n      dup3\n        /* \"#utility.yul\":4047:4084   */\n      mstore\n        /* \"#utility.yul\":3972:4090   */\n      pop\n      pop\n      jump\t// out\n        /* \"#utility.yul\":4096:4318   */\n    tag_23:\n        /* \"#utility.yul\":4189:4193   */\n      0x00\n        /* \"#utility.yul\":4227:4229   */\n      0x20\n        /* \"#utility.yul\":4216:4225   */\n      dup3\n        /* \"#utility.yul\":4212:4230   */\n      add\n        /* \"#utility.yul\":4204:4230   */\n      swap1\n      pop\n        /* \"#utility.yul\":4240:4311   */\n      tag_203\n        /* \"#utility.yul\":4308:4309   */\n      0x00\n        /* \"#utility.yul\":4297:4306   */\n      dup4\n        /* \"#utility.yul\":4293:4310   */\n      add\n        /* \"#utility.yul\":4284:4290   */\n      dup5\n        /* \"#utility.yul\":4240:4311   */\n      tag_170\n      jump\t// in\n    tag_203:\n        /* \"#utility.yul\":4096:4318   */\n      swap3\n      swap2\n      pop\n      pop\n      jump\t// out\n        /* \"#utility.yul\":4324:5182   */\n    tag_34:\n        /* \"#utility.yul\":4575:4579   */\n      0x00\n        /* \"#utility.yul\":4613:4616   */\n      0xa0\n        /* \"#utility.yul\":4602:4611   */\n      dup3\n        /* \"#utility.yul\":4598:4617   */\n      add\n        /* \"#utility.yul\":4590:4617   */\n      swap1\n      pop\n        /* \"#utility.yul\":4627:4698   */\n      tag_205\n        /* \"#utility.yul\":4695:4696   */\n      0x00\n        /* \"#utility.yul\":4684:4693   */\n      dup4\n        /* \"#utility.yul\":4680:4697   */\n      add\n        /* \"#utility.yul\":4671:4677   */\n      dup9\n        /* \"#utility.yul\":4627:4698   */\n      tag_170\n      jump\t// in\n    tag_205:\n        /* \"#utility.yul\":4708:4786   */\n      tag_206\n        /* \"#utility.yul\":4782:4784   */\n      0x20\n        /* \"#utility.yul\":4771:4780   */\n      dup4\n        /* \"#utility.yul\":4767:4785   */\n      add\n        /* \"#utility.yul\":4758:4764   */\n      dup8\n        /* \"#utility.yul\":4708:4786   */\n      tag_174\n      jump\t// in\n    tag_206:\n        /* \"#utility.yul\":4833:4842   */\n      dup2\n        /* \"#utility.yul\":4827:4831   */\n      dup2\n        /* \"#utility.yul\":4823:4843   */\n      sub\n        /* \"#utility.yul\":4818:4820   */\n      0x40\n        /* \"#utility.yul\":4807:4816   */\n      dup4\n        /* \"#utility.yul\":4803:4821   */\n      add\n        /* \"#utility.yul\":4796:4844   */\n      mstore\n        /* \"#utility.yul\":4861:4939   */\n      tag_207\n        /* \"#utility.yul\":4934:4938   */\n      dup2\n        /* \"#utility.yul\":4925:4931   */\n      dup7\n        /* \"#utility.yul\":4861:4939   */\n      tag_178\n      jump\t// in\n    tag_207:\n        /* \"#utility.yul\":4853:4939   */\n      swap1\n      pop\n        /* \"#utility.yul\":4986:4995   */\n      dup2\n        /* \"#utility.yul\":4980:4984   */\n      dup2\n        /* \"#utility.yul\":4976:4996   */\n      sub\n        /* \"#utility.yul\":4971:4973   */\n      0x60\n        /* \"#utility.yul\":4960:4969   */\n      dup4\n        /* \"#utility.yul\":4956:4974   */\n      add\n        /* \"#utility.yul\":4949:4997   */\n      mstore\n        /* \"#utility.yul\":5014:5092   */\n      tag_208\n        /* \"#utility.yul\":5087:5091   */\n      dup2\n        /* \"#utility.yul\":5078:5084   */\n      dup6\n        /* \"#utility.yul\":5014:5092   */\n      tag_178\n      jump\t// in\n    tag_208:\n        /* \"#utility.yul\":5006:5092   */\n      swap1\n      pop\n        /* \"#utility.yul\":5102:5175   */\n      tag_209\n        /* \"#utility.yul\":5170:5173   */\n      0x80\n        /* \"#utility.yul\":5159:5168   */\n      dup4\n        /* \"#utility.yul\":5155:5174   */\n      add\n        /* \"#utility.yul\":5146:5152   */\n      dup5\n        /* \"#utility.yul\":5102:5175   */\n      tag_198\n      jump\t// in\n    tag_209:\n        /* \"#utility.yul\":4324:5182   */\n      swap7\n      swap6\n      pop\n      pop\n      pop\n      pop\n      pop\n      pop\n      jump\t// out\n        /* \"#utility.yul\":5188:5607   */\n    tag_81:\n        /* \"#utility.yul\":5354:5358   */\n      0x00\n        /* \"#utility.yul\":5392:5394   */\n      0x20\n        /* \"#utility.yul\":5381:5390   */\n      dup3\n        /* \"#utility.yul\":5377:5395   */\n      add\n        /* \"#utility.yul\":5369:5395   */\n      swap1\n      pop\n        /* \"#utility.yul\":5441:5450   */\n      dup2\n        /* \"#utility.yul\":5435:5439   */\n      dup2\n        /* \"#utility.yul\":5431:5451   */\n      sub\n        /* \"#utility.yul\":5427:5428   */\n      0x00\n        /* \"#utility.yul\":5416:5425   */\n      dup4\n        /* \"#utility.yul\":5412:5429   */\n      add\n        /* \"#utility.yul\":5405:5452   */\n      mstore\n        /* \"#utility.yul\":5469:5600   */\n      tag_211\n        /* \"#utility.yul\":5595:5599   */\n      dup2\n        /* \"#utility.yul\":5469:5600   */\n      tag_188\n      jump\t// in\n    tag_211:\n        /* \"#utility.yul\":5461:5600   */\n      swap1\n      pop\n        /* \"#utility.yul\":5188:5607   */\n      swap2\n      swap1\n      pop\n      jump\t// out\n        /* \"#utility.yul\":5613:6032   */\n    tag_47:\n        /* \"#utility.yul\":5779:5783   */\n      0x00\n        /* \"#utility.yul\":5817:5819   */\n      0x20\n        /* \"#utility.yul\":5806:5815   */\n      dup3\n        /* \"#utility.yul\":5802:5820   */\n      add\n        /* \"#utility.yul\":5794:5820   */\n      swap1\n      pop\n        /* \"#utility.yul\":5866:5875   */\n      dup2\n        /* \"#utility.yul\":5860:5864   */\n      dup2\n        /* \"#utility.yul\":5856:5876   */\n      sub\n        /* \"#utility.yul\":5852:5853   */\n      0x00\n        /* \"#utility.yul\":5841:5850   */\n      dup4\n        /* \"#utility.yul\":5837:5854   */\n      add\n        /* \"#utility.yul\":5830:5877   */\n      mstore\n        /* \"#utility.yul\":5894:6025   */\n      tag_213\n        /* \"#utility.yul\":6020:6024   */\n      dup2\n        /* \"#utility.yul\":5894:6025   */\n      tag_193\n      jump\t// in\n    tag_213:\n        /* \"#utility.yul\":5886:6025   */\n      swap1\n      pop\n        /* \"#utility.yul\":5613:6032   */\n      swap2\n      swap1\n      pop\n      jump\t// out\n        /* \"#utility.yul\":6038:6260   */\n    tag_14:\n        /* \"#utility.yul\":6131:6135   */\n      0x00\n        /* \"#utility.yul\":6169:6171   */\n      0x20\n        /* \"#utility.yul\":6158:6167   */\n      dup3\n        /* \"#utility.yul\":6154:6172   */\n      add\n        /* \"#utility.yul\":6146:6172   */\n      swap1\n      pop\n        /* \"#utility.yul\":6182:6253   */\n      tag_215\n        /* \"#utility.yul\":6250:6251   */\n      0x00\n        /* \"#utility.yul\":6239:6248   */\n      dup4\n        /* \"#utility.yul\":6235:6252   */\n      add\n        /* \"#utility.yul\":6226:6232   */\n      dup5\n        /* \"#utility.yul\":6182:6253   */\n      tag_198\n      jump\t// in\n    tag_215:\n        /* \"#utility.yul\":6038:6260   */\n      swap3\n      swap2\n      pop\n      pop\n      jump\t// out\n        /* \"#utility.yul\":6266:6395   */\n    tag_131:\n        /* \"#utility.yul\":6300:6306   */\n      0x00\n        /* \"#utility.yul\":6327:6347   */\n      tag_217\n      tag_218\n      jump\t// in\n    tag_217:\n        /* \"#utility.yul\":6317:6347   */\n      swap1\n      pop\n        /* \"#utility.yul\":6356:6389   */\n      tag_219\n        /* \"#utility.yul\":6384:6388   */\n      dup3\n        /* \"#utility.yul\":6376:6382   */\n      dup3\n        /* \"#utility.yul\":6356:6389   */\n      tag_220\n      jump\t// in\n    tag_219:\n        /* \"#utility.yul\":6266:6395   */\n      swap2\n      swap1\n      pop\n      jump\t// out\n        /* \"#utility.yul\":6401:6476   */\n    tag_218:\n        /* \"#utility.yul\":6434:6440   */\n      0x00\n        /* \"#utility.yul\":6467:6469   */\n      0x40\n        /* \"#utility.yul\":6461:6470   */\n      mload\n        /* \"#utility.yul\":6451:6470   */\n      swap1\n      pop\n        /* \"#utility.yul\":6401:6476   */\n      swap1\n      jump\t// out\n        /* \"#utility.yul\":6482:6790   */\n    tag_130:\n        /* \"#utility.yul\":6544:6548   */\n      0x00\n        /* \"#utility.yul\":6634:6652   */\n      0xffffffffffffffff\n        /* \"#utility.yul\":6626:6632   */\n      dup3\n        /* \"#utility.yul\":6623:6653   */\n      gt\n        /* \"#utility.yul\":6620:6676   */\n      iszero\n      tag_223\n      jumpi\n        /* \"#utility.yul\":6656:6674   */\n      tag_224\n      tag_225\n      jump\t// in\n    tag_224:\n        /* \"#utility.yul\":6620:6676   */\n    tag_223:\n        /* \"#utility.yul\":6694:6723   */\n      tag_226\n        /* \"#utility.yul\":6716:6722   */\n      dup3\n        /* \"#utility.yul\":6694:6723   */\n      tag_187\n      jump\t// in\n    tag_226:\n        /* \"#utility.yul\":6686:6723   */\n      swap1\n      pop\n        /* \"#utility.yul\":6778:6782   */\n      0x20\n        /* \"#utility.yul\":6772:6776   */\n      dup2\n        /* \"#utility.yul\":6768:6783   */\n      add\n        /* \"#utility.yul\":6760:6783   */\n      swap1\n      pop\n        /* \"#utility.yul\":6482:6790   */\n      swap2\n      swap1\n      pop\n      jump\t// out\n        /* \"#utility.yul\":6796:6895   */\n    tag_181:\n        /* \"#utility.yul\":6848:6854   */\n      0x00\n        /* \"#utility.yul\":6882:6887   */\n      dup2\n        /* \"#utility.yul\":6876:6888   */\n      mload\n        /* \"#utility.yul\":6866:6888   */\n      swap1\n      pop\n        /* \"#utility.yul\":6796:6895   */\n      swap2\n      swap1\n      pop\n      jump\t// out\n        /* \"#utility.yul\":6901:7070   */\n    tag_183:\n        /* \"#utility.yul\":6985:6996   */\n      0x00\n        /* \"#utility.yul\":7019:7025   */\n      dup3\n        /* \"#utility.yul\":7014:7017   */\n      dup3\n        /* \"#utility.yul\":7007:7026   */\n      mstore\n        /* \"#utility.yul\":7059:7063   */\n      0x20\n        /* \"#utility.yul\":7054:7057   */\n      dup3\n        /* \"#utility.yul\":7050:7064   */\n      add\n        /* \"#utility.yul\":7035:7064   */\n      swap1\n      pop\n        /* \"#utility.yul\":6901:7070   */\n      swap3\n      swap2\n      pop\n      pop\n      jump\t// out\n        /* \"#utility.yul\":7076:7381   */\n    tag_53:\n        /* \"#utility.yul\":7116:7119   */\n      0x00\n        /* \"#utility.yul\":7135:7155   */\n      tag_230\n        /* \"#utility.yul\":7153:7154   */\n      dup3\n        /* \"#utility.yul\":7135:7155   */\n      tag_201\n      jump\t// in\n    tag_230:\n        /* \"#utility.yul\":7130:7155   */\n      swap2\n      pop\n        /* \"#utility.yul\":7169:7189   */\n      tag_231\n        /* \"#utility.yul\":7187:7188   */\n      dup4\n        /* \"#utility.yul\":7169:7189   */\n      tag_201\n      jump\t// in\n    tag_231:\n        /* \"#utility.yul\":7164:7189   */\n      swap3\n      pop\n        /* \"#utility.yul\":7323:7324   */\n      dup3\n        /* \"#utility.yul\":7255:7321   */\n      0xffffffffffffffffffffffffffffffffffffffffffffffffffffffffffffffff\n        /* \"#utility.yul\":7251:7325   */\n      sub\n        /* \"#utility.yul\":7248:7249   */\n      dup3\n        /* \"#utility.yul\":7245:7326   */\n      gt\n        /* \"#utility.yul\":7242:7349   */\n      iszero\n      tag_232\n      jumpi\n        /* \"#utility.yul\":7329:7347   */\n      tag_233\n      tag_234\n      jump\t// in\n    tag_233:\n        /* \"#utility.yul\":7242:7349   */\n    tag_232:\n        /* \"#utility.yul\":7373:7374   */\n      dup3\n        /* \"#utility.yul\":7370:7371   */\n      dup3\n        /* \"#utility.yul\":7366:7375   */\n      add\n        /* \"#utility.yul\":7359:7375   */\n      swap1\n      pop\n        /* \"#utility.yul\":7076:7381   */\n      swap3\n      swap2\n      pop\n      pop\n      jump\t// out\n        /* \"#utility.yul\":7387:7572   */\n    tag_88:\n        /* \"#utility.yul\":7427:7428   */\n      0x00\n        /* \"#utility.yul\":7444:7464   */\n      tag_236\n        /* \"#utility.yul\":7462:7463   */\n      dup3\n        /* \"#utility.yul\":7444:7464   */\n      tag_201\n      jump\t// in\n    tag_236:\n        /* \"#utility.yul\":7439:7464   */\n      swap2\n      pop\n        /* \"#utility.yul\":7478:7498   */\n      tag_237\n        /* \"#utility.yul\":7496:7497   */\n      dup4\n        /* \"#utility.yul\":7478:7498   */\n      tag_201\n      jump\t// in\n    tag_237:\n        /* \"#utility.yul\":7473:7498   */\n      swap3\n      pop\n        /* \"#utility.yul\":7517:7518   */\n      dup3\n        /* \"#utility.yul\":7507:7542   */\n      tag_238\n      jumpi\n        /* \"#utility.yul\":7522:7540   */\n      tag_239\n      tag_240\n      jump\t// in\n    tag_239:\n        /* \"#utility.yul\":7507:7542   */\n    tag_238:\n        /* \"#utility.yul\":7564:7565   */\n      dup3\n        /* \"#utility.yul\":7561:7562   */\n      dup3\n        /* \"#utility.yul\":7557:7566   */\n      div\n        /* \"#utility.yul\":7552:7566   */\n      swap1\n      pop\n        /* \"#utility.yul\":7387:7572   */\n      swap3\n      swap2\n      pop\n      pop\n      jump\t// out\n        /* \"#utility.yul\":7578:7926   */\n    tag_83:\n        /* \"#utility.yul\":7618:7625   */\n      0x00\n        /* \"#utility.yul\":7641:7661   */\n      tag_242\n        /* \"#utility.yul\":7659:7660   */\n      dup3\n        /* \"#utility.yul\":7641:7661   */\n      tag_201\n      jump\t// in\n    tag_242:\n        /* \"#utility.yul\":7636:7661   */\n      swap2\n      pop\n        /* \"#utility.yul\":7675:7695   */\n      tag_243\n        /* \"#utility.yul\":7693:7694   */\n      dup4\n        /* \"#utility.yul\":7675:7695   */\n      tag_201\n      jump\t// in\n    tag_243:\n        /* \"#utility.yul\":7670:7695   */\n      swap3\n      pop\n        /* \"#utility.yul\":7863:7864   */\n      dup2\n        /* \"#utility.yul\":7795:7861   */\n      0xffffffffffffffffffffffffffffffffffffffffffffffffffffffffffffffff\n        /* \"#utility.yul\":7791:7865   */\n      div\n        /* \"#utility.yul\":7788:7789   */\n      dup4\n        /* \"#utility.yul\":7785:7866   */\n      gt\n        /* \"#utility.yul\":7780:7781   */\n      dup3\n        /* \"#utility.yul\":7773:7782   */\n      iszero\n        /* \"#utility.yul\":7766:7783   */\n      iszero\n        /* \"#utility.yul\":7762:7867   */\n      and\n        /* \"#utility.yul\":7759:7890   */\n      iszero\n      tag_244\n      jumpi\n        /* \"#utility.yul\":7870:7888   */\n      tag_245\n      tag_234\n      jump\t// in\n    tag_245:\n        /* \"#utility.yul\":7759:7890   */\n    tag_244:\n        /* \"#utility.yul\":7918:7919   */\n      dup3\n        /* \"#utility.yul\":7915:7916   */\n      dup3\n        /* \"#utility.yul\":7911:7920   */\n      mul\n        /* \"#utility.yul\":7900:7920   */\n      swap1\n      pop\n        /* \"#utility.yul\":7578:7926   */\n      swap3\n      swap2\n      pop\n      pop\n      jump\t// out\n        /* \"#utility.yul\":7932:8123   */\n    tag_86:\n        /* \"#utility.yul\":7972:7976   */\n      0x00\n        /* \"#utility.yul\":7992:8012   */\n      tag_247\n        /* \"#utility.yul\":8010:8011   */\n      dup3\n        /* \"#utility.yul\":7992:8012   */\n      tag_201\n      jump\t// in\n    tag_247:\n        /* \"#utility.yul\":7987:8012   */\n      swap2\n      pop\n        /* \"#utility.yul\":8026:8046   */\n      tag_248\n        /* \"#utility.yul\":8044:8045   */\n      dup4\n        /* \"#utility.yul\":8026:8046   */\n      tag_201\n      jump\t// in\n    tag_248:\n        /* \"#utility.yul\":8021:8046   */\n      swap3\n      pop\n        /* \"#utility.yul\":8065:8066   */\n      dup3\n        /* \"#utility.yul\":8062:8063   */\n      dup3\n        /* \"#utility.yul\":8059:8067   */\n      lt\n        /* \"#utility.yul\":8056:8090   */\n      iszero\n      tag_249\n      jumpi\n        /* \"#utility.yul\":8070:8088   */\n      tag_250\n      tag_234\n      jump\t// in\n    tag_250:\n        /* \"#utility.yul\":8056:8090   */\n    tag_249:\n        /* \"#utility.yul\":8115:8116   */\n      dup3\n        /* \"#utility.yul\":8112:8113   */\n      dup3\n        /* \"#utility.yul\":8108:8117   */\n      sub\n        /* \"#utility.yul\":8100:8117   */\n      swap1\n      pop\n        /* \"#utility.yul\":7932:8123   */\n      swap3\n      swap2\n      pop\n      pop\n      jump\t// out\n        /* \"#utility.yul\":8129:8225   */\n    tag_173:\n        /* \"#utility.yul\":8166:8173   */\n      0x00\n        /* \"#utility.yul\":8195:8219   */\n      tag_252\n        /* \"#utility.yul\":8213:8218   */\n      dup3\n        /* \"#utility.yul\":8195:8219   */\n      tag_253\n      jump\t// in\n    tag_252:\n        /* \"#utility.yul\":8184:8219   */\n      swap1\n      pop\n        /* \"#utility.yul\":8129:8225   */\n      swap2\n      swap1\n      pop\n      jump\t// out\n        /* \"#utility.yul\":8231:8358   */\n    tag_254:\n        /* \"#utility.yul\":8276:8283   */\n      0x00\n        /* \"#utility.yul\":8305:8310   */\n      dup2\n        /* \"#utility.yul\":8294:8310   */\n      swap1\n      pop\n        /* \"#utility.yul\":8311:8352   */\n      tag_256\n        /* \"#utility.yul\":8346:8351   */\n      dup3\n        /* \"#utility.yul\":8311:8352   */\n      tag_257\n      jump\t// in\n    tag_256:\n        /* \"#utility.yul\":8231:8358   */\n      swap2\n      swap1\n      pop\n      jump\t// out\n        /* \"#utility.yul\":8364:8490   */\n    tag_253:\n        /* \"#utility.yul\":8401:8408   */\n      0x00\n        /* \"#utility.yul\":8441:8483   */\n      0xffffffffffffffffffffffffffffffffffffffff\n        /* \"#utility.yul\":8434:8439   */\n      dup3\n        /* \"#utility.yul\":8430:8484   */\n      and\n        /* \"#utility.yul\":8419:8484   */\n      swap1\n      pop\n        /* \"#utility.yul\":8364:8490   */\n      swap2\n      swap1\n      pop\n      jump\t// out\n        /* \"#utility.yul\":8496:8573   */\n    tag_201:\n        /* \"#utility.yul\":8533:8540   */\n      0x00\n        /* \"#utility.yul\":8562:8567   */\n      dup2\n        /* \"#utility.yul\":8551:8567   */\n      swap1\n      pop\n        /* \"#utility.yul\":8496:8573   */\n      swap2\n      swap1\n      pop\n      jump\t// out\n        /* \"#utility.yul\":8579:8706   */\n    tag_177:\n        /* \"#utility.yul\":8635:8644   */\n      0x00\n        /* \"#utility.yul\":8668:8700   */\n      tag_261\n        /* \"#utility.yul\":8694:8699   */\n      dup3\n        /* \"#utility.yul\":8668:8700   */\n      tag_254\n      jump\t// in\n    tag_261:\n        /* \"#utility.yul\":8655:8700   */\n      swap1\n      pop\n        /* \"#utility.yul\":8579:8706   */\n      swap2\n      swap1\n      pop\n      jump\t// out\n        /* \"#utility.yul\":8712:8866   */\n    tag_136:\n        /* \"#utility.yul\":8796:8802   */\n      dup3\n        /* \"#utility.yul\":8791:8794   */\n      dup2\n        /* \"#utility.yul\":8786:8789   */\n      dup4\n        /* \"#utility.yul\":8773:8803   */\n      calldatacopy\n        /* \"#utility.yul\":8858:8859   */\n      0x00\n        /* \"#utility.yul\":8849:8855   */\n      dup4\n        /* \"#utility.yul\":8844:8847   */\n      dup4\n        /* \"#utility.yul\":8840:8856   */\n      add\n        /* \"#utility.yul\":8833:8860   */\n      mstore\n        /* \"#utility.yul\":8712:8866   */\n      pop\n      pop\n      pop\n      jump\t// out\n        /* \"#utility.yul\":8872:9179   */\n    tag_185:\n        /* \"#utility.yul\":8940:8941   */\n      0x00\n        /* \"#utility.yul\":8950:9063   */\n    tag_264:\n        /* \"#utility.yul\":8964:8970   */\n      dup4\n        /* \"#utility.yul\":8961:8962   */\n      dup2\n        /* \"#utility.yul\":8958:8971   */\n      lt\n        /* \"#utility.yul\":8950:9063   */\n      iszero\n      tag_266\n      jumpi\n        /* \"#utility.yul\":9049:9050   */\n      dup1\n        /* \"#utility.yul\":9044:9047   */\n      dup3\n        /* \"#utility.yul\":9040:9051   */\n      add\n        /* \"#utility.yul\":9034:9052   */\n      mload\n        /* \"#utility.yul\":9030:9031   */\n      dup2\n        /* \"#utility.yul\":9025:9028   */\n      dup5\n        /* \"#utility.yul\":9021:9032   */\n      add\n        /* \"#utility.yul\":9014:9053   */\n      mstore\n        /* \"#utility.yul\":8986:8988   */\n      0x20\n        /* \"#utility.yul\":8983:8984   */\n      dup2\n        /* \"#utility.yul\":8979:8989   */\n      add\n        /* \"#utility.yul\":8974:8989   */\n      swap1\n      pop\n        /* \"#utility.yul\":8950:9063   */\n      jump(tag_264)\n    tag_266:\n        /* \"#utility.yul\":9081:9087   */\n      dup4\n        /* \"#utility.yul\":9078:9079   */\n      dup2\n        /* \"#utility.yul\":9075:9088   */\n      gt\n        /* \"#utility.yul\":9072:9173   */\n      iszero\n      tag_267\n      jumpi\n        /* \"#utility.yul\":9161:9162   */\n      0x00\n        /* \"#utility.yul\":9152:9158   */\n      dup5\n        /* \"#utility.yul\":9147:9150   */\n      dup5\n        /* \"#utility.yul\":9143:9159   */\n      add\n        /* \"#utility.yul\":9136:9163   */\n      mstore\n        /* \"#utility.yul\":9072:9173   */\n    tag_267:\n        /* \"#utility.yul\":8921:9179   */\n      pop\n        /* \"#utility.yul\":8872:9179   */\n      pop\n      pop\n      pop\n      jump\t// out\n        /* \"#utility.yul\":9185:9505   */\n    tag_56:\n        /* \"#utility.yul\":9229:9235   */\n      0x00\n        /* \"#utility.yul\":9266:9267   */\n      0x02\n        /* \"#utility.yul\":9260:9264   */\n      dup3\n        /* \"#utility.yul\":9256:9268   */\n      div\n        /* \"#utility.yul\":9246:9268   */\n      swap1\n      pop\n        /* \"#utility.yul\":9313:9314   */\n      0x01\n        /* \"#utility.yul\":9307:9311   */\n      dup3\n        /* \"#utility.yul\":9303:9315   */\n      and\n        /* \"#utility.yul\":9334:9352   */\n      dup1\n        /* \"#utility.yul\":9324:9405   */\n      tag_269\n      jumpi\n        /* \"#utility.yul\":9390:9394   */\n      0x7f\n        /* \"#utility.yul\":9382:9388   */\n      dup3\n        /* \"#utility.yul\":9378:9395   */\n      and\n        /* \"#utility.yul\":9368:9395   */\n      swap2\n      pop\n        /* \"#utility.yul\":9324:9405   */\n    tag_269:\n        /* \"#utility.yul\":9452:9454   */\n      0x20\n        /* \"#utility.yul\":9444:9450   */\n      dup3\n        /* \"#utility.yul\":9441:9455   */\n      lt\n        /* \"#utility.yul\":9421:9439   */\n      dup2\n        /* \"#utility.yul\":9418:9456   */\n      eq\n        /* \"#utility.yul\":9415:9499   */\n      iszero\n      tag_270\n      jumpi\n        /* \"#utility.yul\":9471:9489   */\n      tag_271\n      tag_272\n      jump\t// in\n    tag_271:\n        /* \"#utility.yul\":9415:9499   */\n    tag_270:\n        /* \"#utility.yul\":9236:9505   */\n      pop\n        /* \"#utility.yul\":9185:9505   */\n      swap2\n      swap1\n      pop\n      jump\t// out\n        /* \"#utility.yul\":9511:9792   */\n    tag_220:\n        /* \"#utility.yul\":9594:9621   */\n      tag_274\n        /* \"#utility.yul\":9616:9620   */\n      dup3\n        /* \"#utility.yul\":9594:9621   */\n      tag_187\n      jump\t// in\n    tag_274:\n        /* \"#utility.yul\":9586:9592   */\n      dup2\n        /* \"#utility.yul\":9582:9622   */\n      add\n        /* \"#utility.yul\":9724:9730   */\n      dup2\n        /* \"#utility.yul\":9712:9722   */\n      dup2\n        /* \"#utility.yul\":9709:9731   */\n      lt\n        /* \"#utility.yul\":9688:9706   */\n      0xffffffffffffffff\n        /* \"#utility.yul\":9676:9686   */\n      dup3\n        /* \"#utility.yul\":9673:9707   */\n      gt\n        /* \"#utility.yul\":9670:9732   */\n      or\n        /* \"#utility.yul\":9667:9755   */\n      iszero\n      tag_275\n      jumpi\n        /* \"#utility.yul\":9735:9753   */\n      tag_276\n      tag_225\n      jump\t// in\n    tag_276:\n        /* \"#utility.yul\":9667:9755   */\n    tag_275:\n        /* \"#utility.yul\":9775:9785   */\n      dup1\n        /* \"#utility.yul\":9771:9773   */\n      0x40\n        /* \"#utility.yul\":9764:9786   */\n      mstore\n        /* \"#utility.yul\":9554:9792   */\n      pop\n        /* \"#utility.yul\":9511:9792   */\n      pop\n      pop\n      jump\t// out\n        /* \"#utility.yul\":9798:10031   */\n    tag_100:\n        /* \"#utility.yul\":9837:9840   */\n      0x00\n        /* \"#utility.yul\":9860:9884   */\n      tag_278\n        /* \"#utility.yul\":9878:9883   */\n      dup3\n        /* \"#utility.yul\":9860:9884   */\n      tag_201\n      jump\t// in\n    tag_278:\n        /* \"#utility.yul\":9851:9884   */\n      swap2\n      pop\n        /* \"#utility.yul\":9906:9972   */\n      0xffffffffffffffffffffffffffffffffffffffffffffffffffffffffffffffff\n        /* \"#utility.yul\":9899:9904   */\n      dup3\n        /* \"#utility.yul\":9896:9973   */\n      eq\n        /* \"#utility.yul\":9893:9996   */\n      iszero\n      tag_279\n      jumpi\n        /* \"#utility.yul\":9976:9994   */\n      tag_280\n      tag_234\n      jump\t// in\n    tag_280:\n        /* \"#utility.yul\":9893:9996   */\n    tag_279:\n        /* \"#utility.yul\":10023:10024   */\n      0x01\n        /* \"#utility.yul\":10016:10021   */\n      dup3\n        /* \"#utility.yul\":10012:10025   */\n      add\n        /* \"#utility.yul\":10005:10025   */\n      swap1\n      pop\n        /* \"#utility.yul\":9798:10031   */\n      swap2\n      swap1\n      pop\n      jump\t// out\n        /* \"#utility.yul\":10037:10217   */\n    tag_234:\n        /* \"#utility.yul\":10085:10162   */\n      0x4e487b7100000000000000000000000000000000000000000000000000000000\n        /* \"#utility.yul\":10082:10083   */\n      0x00\n        /* \"#utility.yul\":10075:10163   */\n      mstore\n        /* \"#utility.yul\":10182:10186   */\n      0x11\n        /* \"#utility.yul\":10179:10180   */\n      0x04\n        /* \"#utility.yul\":10172:10187   */\n      mstore\n        /* \"#utility.yul\":10206:10210   */\n      0x24\n        /* \"#utility.yul\":10203:10204   */\n      0x00\n        /* \"#utility.yul\":10196:10211   */\n      revert\n        /* \"#utility.yul\":10223:10403   */\n    tag_240:\n        /* \"#utility.yul\":10271:10348   */\n      0x4e487b7100000000000000000000000000000000000000000000000000000000\n        /* \"#utility.yul\":10268:10269   */\n      0x00\n        /* \"#utility.yul\":10261:10349   */\n      mstore\n        /* \"#utility.yul\":10368:10372   */\n      0x12\n        /* \"#utility.yul\":10365:10366   */\n      0x04\n        /* \"#utility.yul\":10358:10373   */\n      mstore\n        /* \"#utility.yul\":10392:10396   */\n      0x24\n        /* \"#utility.yul\":10389:10390   */\n      0x00\n        /* \"#utility.yul\":10382:10397   */\n      revert\n        /* \"#utility.yul\":10409:10589   */\n    tag_104:\n        /* \"#utility.yul\":10457:10534   */\n      0x4e487b7100000000000000000000000000000000000000000000000000000000\n        /* \"#utility.yul\":10454:10455   */\n      0x00\n        /* \"#utility.yul\":10447:10535   */\n      mstore\n        /* \"#utility.yul\":10554:10558   */\n      0x21\n        /* \"#utility.yul\":10551:10552   */\n      0x04\n        /* \"#utility.yul\":10544:10559   */\n      mstore\n        /* \"#utility.yul\":10578:10582   */\n      0x24\n        /* \"#utility.yul\":10575:10576   */\n      0x00\n        /* \"#utility.yul\":10568:10583   */\n      revert\n        /* \"#utility.yul\":10595:10775   */\n    tag_272:\n        /* \"#utility.yul\":10643:10720   */\n      0x4e487b7100000000000000000000000000000000000000000000000000000000\n        /* \"#utility.yul\":10640:10641   */\n      0x00\n        /* \"#utility.yul\":10633:10721   */\n      mstore\n        /* \"#utility.yul\":10740:10744   */\n      0x22\n        /* \"#utility.yul\":10737:10738   */\n      0x04\n        /* \"#utility.yul\":10730:10745   */\n      mstore\n        /* \"#utility.yul\":10764:10768   */\n      0x24\n        /* \"#utility.yul\":10761:10762   */\n      0x00\n        /* \"#utility.yul\":10754:10769   */\n      revert\n        /* \"#utility.yul\":10781:10961   */\n    tag_94:\n        /* \"#utility.yul\":10829:10906   */\n      0x4e487b7100000000000000000000000000000000000000000000000000000000\n        /* \"#utility.yul\":10826:10827   */\n      0x00\n        /* \"#utility.yul\":10819:10907   */\n      mstore\n        /* \"#utility.yul\":10926:10930   */\n      0x32\n        /* \"#utility.yul\":10923:10924   */\n      0x04\n        /* \"#utility.yul\":10916:10931   */\n      mstore\n        /* \"#utility.yul\":10950:10954   */\n      0x24\n        /* \"#utility.yul\":10947:10948   */\n      0x00\n        /* \"#utility.yul\":10940:10955   */\n      revert\n        /* \"#utility.yul\":10967:11147   */\n    tag_225:\n        /* \"#utility.yul\":11015:11092   */\n      0x4e487b7100000000000000000000000000000000000000000000000000000000\n        /* \"#utility.yul\":11012:11013   */\n      0x00\n        /* \"#utility.yul\":11005:11093   */\n      mstore\n        /* \"#utility.yul\":11112:11116   */\n      0x41\n        /* \"#utility.yul\":11109:11110   */\n      0x04\n        /* \"#utility.yul\":11102:11117   */\n      mstore\n        /* \"#utility.yul\":11136:11140   */\n      0x24\n        /* \"#utility.yul\":11133:11134   */\n      0x00\n        /* \"#utility.yul\":11126:11141   */\n      revert\n        /* \"#utility.yul\":11153:11270   */\n    tag_145:\n        /* \"#utility.yul\":11262:11263   */\n      0x00\n        /* \"#utility.yul\":11259:11260   */\n      dup1\n        /* \"#utility.yul\":11252:11264   */\n      revert\n        /* \"#utility.yul\":11276:11393   */\n    tag_134:\n        /* \"#utility.yul\":11385:11386   */\n      0x00\n        /* \"#utility.yul\":11382:11383   */\n      dup1\n        /* \"#utility.yul\":11375:11387   */\n      revert\n        /* \"#utility.yul\":11399:11516   */\n    tag_161:\n        /* \"#utility.yul\":11508:11509   */\n      0x00\n        /* \"#utility.yul\":11505:11506   */\n      dup1\n        /* \"#utility.yul\":11498:11510   */\n      revert\n        /* \"#utility.yul\":11522:11639   */\n    tag_154:\n        /* \"#utility.yul\":11631:11632   */\n      0x00\n        /* \"#utility.yul\":11628:11629   */\n      dup1\n        /* \"#utility.yul\":11621:11633   */\n      revert\n        /* \"#utility.yul\":11645:11747   */\n    tag_187:\n        /* \"#utility.yul\":11686:11692   */\n      0x00\n        /* \"#utility.yul\":11737:11739   */\n      0x1f\n        /* \"#utility.yul\":11733:11740   */\n      not\n        /* \"#utility.yul\":11728:11730   */\n      0x1f\n        /* \"#utility.yul\":11721:11726   */\n      dup4\n        /* \"#utility.yul\":11717:11731   */\n      add\n        /* \"#utility.yul\":11713:11741   */\n      and\n        /* \"#utility.yul\":11703:11741   */\n      swap1\n      pop\n        /* \"#utility.yul\":11645:11747   */\n      swap2\n      swap1\n      pop\n      jump\t// out\n        /* \"#utility.yul\":11753:11980   */\n    tag_192:\n        /* \"#utility.yul\":11893:11927   */\n      0x4f6e6c7920746865206465616c65722063616e20706179206f75742074686520\n        /* \"#utility.yul\":11889:11890   */\n      0x00\n        /* \"#utility.yul\":11881:11887   */\n      dup3\n        /* \"#utility.yul\":11877:11891   */\n      add\n        /* \"#utility.yul\":11870:11928   */\n      mstore\n        /* \"#utility.yul\":11962:11972   */\n      0x77696e6e6572732e000000000000000000000000000000000000000000000000\n        /* \"#utility.yul\":11957:11959   */\n      0x20\n        /* \"#utility.yul\":11949:11955   */\n      dup3\n        /* \"#utility.yul\":11945:11960   */\n      add\n        /* \"#utility.yul\":11938:11973   */\n      mstore\n        /* \"#utility.yul\":11753:11980   */\n      pop\n      jump\t// out\n        /* \"#utility.yul\":11986:12163   */\n    tag_197:\n        /* \"#utility.yul\":12126:12155   */\n      0x546865206a6f696e696e67206665652069732032352065746865720000000000\n        /* \"#utility.yul\":12122:12123   */\n      0x00\n        /* \"#utility.yul\":12114:12120   */\n      dup3\n        /* \"#utility.yul\":12110:12124   */\n      add\n        /* \"#utility.yul\":12103:12156   */\n      mstore\n        /* \"#utility.yul\":11986:12163   */\n      pop\n      jump\t// out\n        /* \"#utility.yul\":12169:12282   */\n    tag_257:\n        /* \"#utility.yul\":12250:12251   */\n      0x03\n        /* \"#utility.yul\":12243:12248   */\n      dup2\n        /* \"#utility.yul\":12240:12252   */\n      lt\n        /* \"#utility.yul\":12230:12276   */\n      tag_295\n      jumpi\n        /* \"#utility.yul\":12256:12274   */\n      tag_296\n      tag_104\n      jump\t// in\n    tag_296:\n        /* \"#utility.yul\":12230:12276   */\n    tag_295:\n        /* \"#utility.yul\":12169:12282   */\n      pop\n      jump\t// out\n        /* \"#utility.yul\":12288:12410   */\n    tag_140:\n        /* \"#utility.yul\":12361:12385   */\n      tag_298\n        /* \"#utility.yul\":12379:12384   */\n      dup2\n        /* \"#utility.yul\":12361:12385   */\n      tag_173\n      jump\t// in\n    tag_298:\n        /* \"#utility.yul\":12354:12359   */\n      dup2\n        /* \"#utility.yul\":12351:12386   */\n      eq\n        /* \"#utility.yul\":12341:12404   */\n      tag_299\n      jumpi\n        /* \"#utility.yul\":12400:12401   */\n      0x00\n        /* \"#utility.yul\":12397:12398   */\n      dup1\n        /* \"#utility.yul\":12390:12402   */\n      revert\n        /* \"#utility.yul\":12341:12404   */\n    tag_299:\n        /* \"#utility.yul\":12288:12410   */\n      pop\n      jump\t// out\n        /* \"#utility.yul\":12416:12538   */\n    tag_150:\n        /* \"#utility.yul\":12489:12513   */\n      tag_301\n        /* \"#utility.yul\":12507:12512   */\n      dup2\n        /* \"#utility.yul\":12489:12513   */\n      tag_201\n      jump\t// in\n    tag_301:\n        /* \"#utility.yul\":12482:12487   */\n      dup2\n        /* \"#utility.yul\":12479:12514   */\n      eq\n        /* \"#utility.yul\":12469:12532   */\n      tag_302\n      jumpi\n        /* \"#utility.yul\":12528:12529   */\n      0x00\n        /* \"#utility.yul\":12525:12526   */\n      dup1\n        /* \"#utility.yul\":12518:12530   */\n      revert\n        /* \"#utility.yul\":12469:12532   */\n    tag_302:\n        /* \"#utility.yul\":12416:12538   */\n      pop\n      jump\t// out\n\n    auxdata: 0xa264697066735822122093151d2de7016f11242240f056332704bd8128d64c96925d3b5b4a1677b3007264736f6c63430008070033\n}\n",
				"bytecode": {
					"linkReferences": {},
					"object": "608060405260008055600060015534801561001957600080fd5b5033600260006101000a81548173ffffffffffffffffffffffffffffffffffffffff021916908373ffffffffffffffffffffffffffffffffffffffff1602179055506112558061006a6000396000f3fe6080604052600436106100705760003560e01c8063dbdef6f11161004e578063dbdef6f1146100f6578063e2eb41ff14610112578063f9593e1414610153578063fed47dac1461019457610070565b8063302bcc57146100755780634ba2363a146100a05780639de2ee21146100cb575b600080fd5b34801561008157600080fd5b5061008a6101b0565b6040516100979190610d35565b60405180910390f35b3480156100ac57600080fd5b506100b56101b6565b6040516100c29190610d35565b60405180910390f35b3480156100d757600080fd5b506100e06101bc565b6040516100ed9190610c79565b60405180910390f35b610110600480360381019061010b9190610b28565b6101e2565b005b34801561011e57600080fd5b5061013960048036038101906101349190610afb565b6102cb565b60405161014a959493929190610c94565b60405180910390f35b34801561015f57600080fd5b5061017a60048036038101906101759190610ba0565b61043e565b60405161018b959493929190610c94565b60405180910390f35b6101ae60048036038101906101a99190610afb565b6105c1565b005b60005481565b60015481565b600260009054906101000a900473ffffffffffffffffffffffffffffffffffffffff1681565b68015af1d78b58c40000341461022d576040517f08c379a000000000000000000000000000000000000000000000000000000000815260040161022490610d15565b60405180910390fd5b600260009054906101000a900473ffffffffffffffffffffffffffffffffffffffff1673ffffffffffffffffffffffffffffffffffffffff166108fc349081150290604051600060405180830381858888f19350505050156102c757610293828261077e565b60016000808282546102a59190610dc2565b925050819055506019600160008282546102bf9190610dc2565b925050819055505b5050565b60046020528060005260406000206000915090508060000160009054906101000a900473ffffffffffffffffffffffffffffffffffffffff16908060000160149054906101000a900460ff169080600101805461032790610f7a565b80601f016020809104026020016040519081016040528092919081815260200182805461035390610f7a565b80156103a05780601f10610375576101008083540402835291602001916103a0565b820191906000526020600020905b81548152906001019060200180831161038357829003601f168201915b5050505050908060020180546103b590610f7a565b80601f01602080910402602001604051908101604052809291908181526020018280546103e190610f7a565b801561042e5780601f106104035761010080835404028352916020019161042e565b820191906000526020600020905b81548152906001019060200180831161041157829003601f168201915b5050505050908060030154905085565b6003818154811061044e57600080fd5b90600052602060002090600402016000915090508060000160009054906101000a900473ffffffffffffffffffffffffffffffffffffffff16908060000160149054906101000a900460ff16908060010180546104aa90610f7a565b80601f01602080910402602001604051908101604052809291908181526020018280546104d690610f7a565b80156105235780601f106104f857610100808354040283529160200191610523565b820191906000526020600020905b81548152906001019060200180831161050657829003601f168201915b50505050509080600201805461053890610f7a565b80601f016020809104026020016040519081016040528092919081815260200182805461056490610f7a565b80156105b15780601f10610586576101008083540402835291602001916105b1565b820191906000526020600020905b81548152906001019060200180831161059457829003601f168201915b5050505050908060030154905085565b600260009054906101000a900473ffffffffffffffffffffffffffffffffffffffff1673ffffffffffffffffffffffffffffffffffffffff163373ffffffffffffffffffffffffffffffffffffffff1614610651576040517f08c379a000000000000000000000000000000000000000000000000000000000815260040161064890610cf5565b60405180910390fd5b670de0b6b3a76400006001546106679190610e49565b341461067257600080fd5b600060016000546106839190610ea3565b3461068e9190610e18565b905060005b600380549050811015610779576000600382815481106106b6576106b56110e2565b5b906000526020600020906004020160000160009054906101000a900473ffffffffffffffffffffffffffffffffffffffff1690508373ffffffffffffffffffffffffffffffffffffffff168173ffffffffffffffffffffffffffffffffffffffff1614610765578073ffffffffffffffffffffffffffffffffffffffff166108fc849081150290604051600060405180830381858888f19350505050158015610763573d6000803e3d6000fd5b505b50808061077190610fdd565b915050610693565b505050565b60006040518060a001604052803373ffffffffffffffffffffffffffffffffffffffff168152602001600060028111156107bb576107ba611084565b5b815260200184815260200183815260200142815250905080600460003373ffffffffffffffffffffffffffffffffffffffff1673ffffffffffffffffffffffffffffffffffffffff16815260200190815260200160002060008201518160000160006101000a81548173ffffffffffffffffffffffffffffffffffffffff021916908373ffffffffffffffffffffffffffffffffffffffff16021790555060208201518160000160146101000a81548160ff0219169083600281111561088457610883611084565b5b021790555060408201518160010190805190602001906108a59291906109be565b5060608201518160020190805190602001906108c29291906109be565b5060808201518160030155905050600381908060018154018082558091505060019003906000526020600020906004020160009091909190915060008201518160000160006101000a81548173ffffffffffffffffffffffffffffffffffffffff021916908373ffffffffffffffffffffffffffffffffffffffff16021790555060208201518160000160146101000a81548160ff0219169083600281111561096e5761096d611084565b5b0217905550604082015181600101908051906020019061098f9291906109be565b5060608201518160020190805190602001906109ac9291906109be565b50608082015181600301555050505050565b8280546109ca90610f7a565b90600052602060002090601f0160209004810192826109ec5760008555610a33565b82601f10610a0557805160ff1916838001178555610a33565b82800160010185558215610a33579182015b82811115610a32578251825591602001919060010190610a17565b5b509050610a409190610a44565b5090565b5b80821115610a5d576000816000905550600101610a45565b5090565b6000610a74610a6f84610d75565b610d50565b905082815260208101848484011115610a9057610a8f611145565b5b610a9b848285610f38565b509392505050565b600081359050610ab2816111f1565b92915050565b600082601f830112610acd57610acc611140565b5b8135610add848260208601610a61565b91505092915050565b600081359050610af581611208565b92915050565b600060208284031215610b1157610b1061114f565b5b6000610b1f84828501610aa3565b91505092915050565b60008060408385031215610b3f57610b3e61114f565b5b600083013567ffffffffffffffff811115610b5d57610b5c61114a565b5b610b6985828601610ab8565b925050602083013567ffffffffffffffff811115610b8a57610b8961114a565b5b610b9685828601610ab8565b9150509250929050565b600060208284031215610bb657610bb561114f565b5b6000610bc484828501610ae6565b91505092915050565b610bd681610ed7565b82525050565b610be581610f26565b82525050565b6000610bf682610da6565b610c008185610db1565b9350610c10818560208601610f47565b610c1981611154565b840191505092915050565b6000610c31602883610db1565b9150610c3c82611165565b604082019050919050565b6000610c54601b83610db1565b9150610c5f826111b4565b602082019050919050565b610c7381610f1c565b82525050565b6000602082019050610c8e6000830184610bcd565b92915050565b600060a082019050610ca96000830188610bcd565b610cb66020830187610bdc565b8181036040830152610cc88186610beb565b90508181036060830152610cdc8185610beb565b9050610ceb6080830184610c6a565b9695505050505050565b60006020820190508181036000830152610d0e81610c24565b9050919050565b60006020820190508181036000830152610d2e81610c47565b9050919050565b6000602082019050610d4a6000830184610c6a565b92915050565b6000610d5a610d6b565b9050610d668282610fac565b919050565b6000604051905090565b600067ffffffffffffffff821115610d9057610d8f611111565b5b610d9982611154565b9050602081019050919050565b600081519050919050565b600082825260208201905092915050565b6000610dcd82610f1c565b9150610dd883610f1c565b9250827fffffffffffffffffffffffffffffffffffffffffffffffffffffffffffffffff03821115610e0d57610e0c611026565b5b828201905092915050565b6000610e2382610f1c565b9150610e2e83610f1c565b925082610e3e57610e3d611055565b5b828204905092915050565b6000610e5482610f1c565b9150610e5f83610f1c565b9250817fffffffffffffffffffffffffffffffffffffffffffffffffffffffffffffffff0483118215151615610e9857610e97611026565b5b828202905092915050565b6000610eae82610f1c565b9150610eb983610f1c565b925082821015610ecc57610ecb611026565b5b828203905092915050565b6000610ee282610efc565b9050919050565b6000819050610ef7826111dd565b919050565b600073ffffffffffffffffffffffffffffffffffffffff82169050919050565b6000819050919050565b6000610f3182610ee9565b9050919050565b82818337600083830152505050565b60005b83811015610f65578082015181840152602081019050610f4a565b83811115610f74576000848401525b50505050565b60006002820490506001821680610f9257607f821691505b60208210811415610fa657610fa56110b3565b5b50919050565b610fb582611154565b810181811067ffffffffffffffff82111715610fd457610fd3611111565b5b80604052505050565b6000610fe882610f1c565b91507fffffffffffffffffffffffffffffffffffffffffffffffffffffffffffffffff82141561101b5761101a611026565b5b600182019050919050565b7f4e487b7100000000000000000000000000000000000000000000000000000000600052601160045260246000fd5b7f4e487b7100000000000000000000000000000000000000000000000000000000600052601260045260246000fd5b7f4e487b7100000000000000000000000000000000000000000000000000000000600052602160045260246000fd5b7f4e487b7100000000000000000000000000000000000000000000000000000000600052602260045260246000fd5b7f4e487b7100000000000000000000000000000000000000000000000000000000600052603260045260246000fd5b7f4e487b7100000000000000000000000000000000000000000000000000000000600052604160045260246000fd5b600080fd5b600080fd5b600080fd5b600080fd5b6000601f19601f8301169050919050565b7f4f6e6c7920746865206465616c65722063616e20706179206f7574207468652060008201527f77696e6e6572732e000000000000000000000000000000000000000000000000602082015250565b7f546865206a6f696e696e67206665652069732032352065746865720000000000600082015250565b600381106111ee576111ed611084565b5b50565b6111fa81610ed7565b811461120557600080fd5b50565b61121181610f1c565b811461121c57600080fd5b5056fea264697066735822122093151d2de7016f11242240f056332704bd8128d64c96925d3b5b4a1677b3007264736f6c63430008070033",
					"opcodes": "PUSH1 0x80 PUSH1 0x40 MSTORE PUSH1 0x0 DUP1 SSTORE PUSH1 0x0 PUSH1 0x1 SSTORE CALLVALUE DUP1 ISZERO PUSH2 0x19 JUMPI PUSH1 0x0 DUP1 REVERT JUMPDEST POP CALLER PUSH1 0x2 PUSH1 0x0 PUSH2 0x100 EXP DUP2 SLOAD DUP2 PUSH20 0xFFFFFFFFFFFFFFFFFFFFFFFFFFFFFFFFFFFFFFFF MUL NOT AND SWAP1 DUP4 PUSH20 0xFFFFFFFFFFFFFFFFFFFFFFFFFFFFFFFFFFFFFFFF AND MUL OR SWAP1 SSTORE POP PUSH2 0x1255 DUP1 PUSH2 0x6A PUSH1 0x0 CODECOPY PUSH1 0x0 RETURN INVALID PUSH1 0x80 PUSH1 0x40 MSTORE PUSH1 0x4 CALLDATASIZE LT PUSH2 0x70 JUMPI PUSH1 0x0 CALLDATALOAD PUSH1 0xE0 SHR DUP1 PUSH4 0xDBDEF6F1 GT PUSH2 0x4E JUMPI DUP1 PUSH4 0xDBDEF6F1 EQ PUSH2 0xF6 JUMPI DUP1 PUSH4 0xE2EB41FF EQ PUSH2 0x112 JUMPI DUP1 PUSH4 0xF9593E14 EQ PUSH2 0x153 JUMPI DUP1 PUSH4 0xFED47DAC EQ PUSH2 0x194 JUMPI PUSH2 0x70 JUMP JUMPDEST DUP1 PUSH4 0x302BCC57 EQ PUSH2 0x75 JUMPI DUP1 PUSH4 0x4BA2363A EQ PUSH2 0xA0 JUMPI DUP1 PUSH4 0x9DE2EE21 EQ PUSH2 0xCB JUMPI JUMPDEST PUSH1 0x0 DUP1 REVERT JUMPDEST CALLVALUE DUP1 ISZERO PUSH2 0x81 JUMPI PUSH1 0x0 DUP1 REVERT JUMPDEST POP PUSH2 0x8A PUSH2 0x1B0 JUMP JUMPDEST PUSH1 0x40 MLOAD PUSH2 0x97 SWAP2 SWAP1 PUSH2 0xD35 JUMP JUMPDEST PUSH1 0x40 MLOAD DUP1 SWAP2 SUB SWAP1 RETURN JUMPDEST CALLVALUE DUP1 ISZERO PUSH2 0xAC JUMPI PUSH1 0x0 DUP1 REVERT JUMPDEST POP PUSH2 0xB5 PUSH2 0x1B6 JUMP JUMPDEST PUSH1 0x40 MLOAD PUSH2 0xC2 SWAP2 SWAP1 PUSH2 0xD35 JUMP JUMPDEST PUSH1 0x40 MLOAD DUP1 SWAP2 SUB SWAP1 RETURN JUMPDEST CALLVALUE DUP1 ISZERO PUSH2 0xD7 JUMPI PUSH1 0x0 DUP1 REVERT JUMPDEST POP PUSH2 0xE0 PUSH2 0x1BC JUMP JUMPDEST PUSH1 0x40 MLOAD PUSH2 0xED SWAP2 SWAP1 PUSH2 0xC79 JUMP JUMPDEST PUSH1 0x40 MLOAD DUP1 SWAP2 SUB SWAP1 RETURN JUMPDEST PUSH2 0x110 PUSH1 0x4 DUP1 CALLDATASIZE SUB DUP2 ADD SWAP1 PUSH2 0x10B SWAP2 SWAP1 PUSH2 0xB28 JUMP JUMPDEST PUSH2 0x1E2 JUMP JUMPDEST STOP JUMPDEST CALLVALUE DUP1 ISZERO PUSH2 0x11E JUMPI PUSH1 0x0 DUP1 REVERT JUMPDEST POP PUSH2 0x139 PUSH1 0x4 DUP1 CALLDATASIZE SUB DUP2 ADD SWAP1 PUSH2 0x134 SWAP2 SWAP1 PUSH2 0xAFB JUMP JUMPDEST PUSH2 0x2CB JUMP JUMPDEST PUSH1 0x40 MLOAD PUSH2 0x14A SWAP6 SWAP5 SWAP4 SWAP3 SWAP2 SWAP1 PUSH2 0xC94 JUMP JUMPDEST PUSH1 0x40 MLOAD DUP1 SWAP2 SUB SWAP1 RETURN JUMPDEST CALLVALUE DUP1 ISZERO PUSH2 0x15F JUMPI PUSH1 0x0 DUP1 REVERT JUMPDEST POP PUSH2 0x17A PUSH1 0x4 DUP1 CALLDATASIZE SUB DUP2 ADD SWAP1 PUSH2 0x175 SWAP2 SWAP1 PUSH2 0xBA0 JUMP JUMPDEST PUSH2 0x43E JUMP JUMPDEST PUSH1 0x40 MLOAD PUSH2 0x18B SWAP6 SWAP5 SWAP4 SWAP3 SWAP2 SWAP1 PUSH2 0xC94 JUMP JUMPDEST PUSH1 0x40 MLOAD DUP1 SWAP2 SUB SWAP1 RETURN JUMPDEST PUSH2 0x1AE PUSH1 0x4 DUP1 CALLDATASIZE SUB DUP2 ADD SWAP1 PUSH2 0x1A9 SWAP2 SWAP1 PUSH2 0xAFB JUMP JUMPDEST PUSH2 0x5C1 JUMP JUMPDEST STOP JUMPDEST PUSH1 0x0 SLOAD DUP2 JUMP JUMPDEST PUSH1 0x1 SLOAD DUP2 JUMP JUMPDEST PUSH1 0x2 PUSH1 0x0 SWAP1 SLOAD SWAP1 PUSH2 0x100 EXP SWAP1 DIV PUSH20 0xFFFFFFFFFFFFFFFFFFFFFFFFFFFFFFFFFFFFFFFF AND DUP2 JUMP JUMPDEST PUSH9 0x15AF1D78B58C40000 CALLVALUE EQ PUSH2 0x22D JUMPI PUSH1 0x40 MLOAD PUSH32 0x8C379A000000000000000000000000000000000000000000000000000000000 DUP2 MSTORE PUSH1 0x4 ADD PUSH2 0x224 SWAP1 PUSH2 0xD15 JUMP JUMPDEST PUSH1 0x40 MLOAD DUP1 SWAP2 SUB SWAP1 REVERT JUMPDEST PUSH1 0x2 PUSH1 0x0 SWAP1 SLOAD SWAP1 PUSH2 0x100 EXP SWAP1 DIV PUSH20 0xFFFFFFFFFFFFFFFFFFFFFFFFFFFFFFFFFFFFFFFF AND PUSH20 0xFFFFFFFFFFFFFFFFFFFFFFFFFFFFFFFFFFFFFFFF AND PUSH2 0x8FC CALLVALUE SWAP1 DUP2 ISZERO MUL SWAP1 PUSH1 0x40 MLOAD PUSH1 0x0 PUSH1 0x40 MLOAD DUP1 DUP4 SUB DUP2 DUP6 DUP9 DUP9 CALL SWAP4 POP POP POP POP ISZERO PUSH2 0x2C7 JUMPI PUSH2 0x293 DUP3 DUP3 PUSH2 0x77E JUMP JUMPDEST PUSH1 0x1 PUSH1 0x0 DUP1 DUP3 DUP3 SLOAD PUSH2 0x2A5 SWAP2 SWAP1 PUSH2 0xDC2 JUMP JUMPDEST SWAP3 POP POP DUP2 SWAP1 SSTORE POP PUSH1 0x19 PUSH1 0x1 PUSH1 0x0 DUP3 DUP3 SLOAD PUSH2 0x2BF SWAP2 SWAP1 PUSH2 0xDC2 JUMP JUMPDEST SWAP3 POP POP DUP2 SWAP1 SSTORE POP JUMPDEST POP POP JUMP JUMPDEST PUSH1 0x4 PUSH1 0x20 MSTORE DUP1 PUSH1 0x0 MSTORE PUSH1 0x40 PUSH1 0x0 KECCAK256 PUSH1 0x0 SWAP2 POP SWAP1 POP DUP1 PUSH1 0x0 ADD PUSH1 0x0 SWAP1 SLOAD SWAP1 PUSH2 0x100 EXP SWAP1 DIV PUSH20 0xFFFFFFFFFFFFFFFFFFFFFFFFFFFFFFFFFFFFFFFF AND SWAP1 DUP1 PUSH1 0x0 ADD PUSH1 0x14 SWAP1 SLOAD SWAP1 PUSH2 0x100 EXP SWAP1 DIV PUSH1 0xFF AND SWAP1 DUP1 PUSH1 0x1 ADD DUP1 SLOAD PUSH2 0x327 SWAP1 PUSH2 0xF7A JUMP JUMPDEST DUP1 PUSH1 0x1F ADD PUSH1 0x20 DUP1 SWAP2 DIV MUL PUSH1 0x20 ADD PUSH1 0x40 MLOAD SWAP1 DUP2 ADD PUSH1 0x40 MSTORE DUP1 SWAP3 SWAP2 SWAP1 DUP2 DUP2 MSTORE PUSH1 0x20 ADD DUP3 DUP1 SLOAD PUSH2 0x353 SWAP1 PUSH2 0xF7A JUMP JUMPDEST DUP1 ISZERO PUSH2 0x3A0 JUMPI DUP1 PUSH1 0x1F LT PUSH2 0x375 JUMPI PUSH2 0x100 DUP1 DUP4 SLOAD DIV MUL DUP4 MSTORE SWAP2 PUSH1 0x20 ADD SWAP2 PUSH2 0x3A0 JUMP JUMPDEST DUP3 ADD SWAP2 SWAP1 PUSH1 0x0 MSTORE PUSH1 0x20 PUSH1 0x0 KECCAK256 SWAP1 JUMPDEST DUP2 SLOAD DUP2 MSTORE SWAP1 PUSH1 0x1 ADD SWAP1 PUSH1 0x20 ADD DUP1 DUP4 GT PUSH2 0x383 JUMPI DUP3 SWAP1 SUB PUSH1 0x1F AND DUP3 ADD SWAP2 JUMPDEST POP POP POP POP POP SWAP1 DUP1 PUSH1 0x2 ADD DUP1 SLOAD PUSH2 0x3B5 SWAP1 PUSH2 0xF7A JUMP JUMPDEST DUP1 PUSH1 0x1F ADD PUSH1 0x20 DUP1 SWAP2 DIV MUL PUSH1 0x20 ADD PUSH1 0x40 MLOAD SWAP1 DUP2 ADD PUSH1 0x40 MSTORE DUP1 SWAP3 SWAP2 SWAP1 DUP2 DUP2 MSTORE PUSH1 0x20 ADD DUP3 DUP1 SLOAD PUSH2 0x3E1 SWAP1 PUSH2 0xF7A JUMP JUMPDEST DUP1 ISZERO PUSH2 0x42E JUMPI DUP1 PUSH1 0x1F LT PUSH2 0x403 JUMPI PUSH2 0x100 DUP1 DUP4 SLOAD DIV MUL DUP4 MSTORE SWAP2 PUSH1 0x20 ADD SWAP2 PUSH2 0x42E JUMP JUMPDEST DUP3 ADD SWAP2 SWAP1 PUSH1 0x0 MSTORE PUSH1 0x20 PUSH1 0x0 KECCAK256 SWAP1 JUMPDEST DUP2 SLOAD DUP2 MSTORE SWAP1 PUSH1 0x1 ADD SWAP1 PUSH1 0x20 ADD DUP1 DUP4 GT PUSH2 0x411 JUMPI DUP3 SWAP1 SUB PUSH1 0x1F AND DUP3 ADD SWAP2 JUMPDEST POP POP POP POP POP SWAP1 DUP1 PUSH1 0x3 ADD SLOAD SWAP1 POP DUP6 JUMP JUMPDEST PUSH1 0x3 DUP2 DUP2 SLOAD DUP2 LT PUSH2 0x44E JUMPI PUSH1 0x0 DUP1 REVERT JUMPDEST SWAP1 PUSH1 0x0 MSTORE PUSH1 0x20 PUSH1 0x0 KECCAK256 SWAP1 PUSH1 0x4 MUL ADD PUSH1 0x0 SWAP2 POP SWAP1 POP DUP1 PUSH1 0x0 ADD PUSH1 0x0 SWAP1 SLOAD SWAP1 PUSH2 0x100 EXP SWAP1 DIV PUSH20 0xFFFFFFFFFFFFFFFFFFFFFFFFFFFFFFFFFFFFFFFF AND SWAP1 DUP1 PUSH1 0x0 ADD PUSH1 0x14 SWAP1 SLOAD SWAP1 PUSH2 0x100 EXP SWAP1 DIV PUSH1 0xFF AND SWAP1 DUP1 PUSH1 0x1 ADD DUP1 SLOAD PUSH2 0x4AA SWAP1 PUSH2 0xF7A JUMP JUMPDEST DUP1 PUSH1 0x1F ADD PUSH1 0x20 DUP1 SWAP2 DIV MUL PUSH1 0x20 ADD PUSH1 0x40 MLOAD SWAP1 DUP2 ADD PUSH1 0x40 MSTORE DUP1 SWAP3 SWAP2 SWAP1 DUP2 DUP2 MSTORE PUSH1 0x20 ADD DUP3 DUP1 SLOAD PUSH2 0x4D6 SWAP1 PUSH2 0xF7A JUMP JUMPDEST DUP1 ISZERO PUSH2 0x523 JUMPI DUP1 PUSH1 0x1F LT PUSH2 0x4F8 JUMPI PUSH2 0x100 DUP1 DUP4 SLOAD DIV MUL DUP4 MSTORE SWAP2 PUSH1 0x20 ADD SWAP2 PUSH2 0x523 JUMP JUMPDEST DUP3 ADD SWAP2 SWAP1 PUSH1 0x0 MSTORE PUSH1 0x20 PUSH1 0x0 KECCAK256 SWAP1 JUMPDEST DUP2 SLOAD DUP2 MSTORE SWAP1 PUSH1 0x1 ADD SWAP1 PUSH1 0x20 ADD DUP1 DUP4 GT PUSH2 0x506 JUMPI DUP3 SWAP1 SUB PUSH1 0x1F AND DUP3 ADD SWAP2 JUMPDEST POP POP POP POP POP SWAP1 DUP1 PUSH1 0x2 ADD DUP1 SLOAD PUSH2 0x538 SWAP1 PUSH2 0xF7A JUMP JUMPDEST DUP1 PUSH1 0x1F ADD PUSH1 0x20 DUP1 SWAP2 DIV MUL PUSH1 0x20 ADD PUSH1 0x40 MLOAD SWAP1 DUP2 ADD PUSH1 0x40 MSTORE DUP1 SWAP3 SWAP2 SWAP1 DUP2 DUP2 MSTORE PUSH1 0x20 ADD DUP3 DUP1 SLOAD PUSH2 0x564 SWAP1 PUSH2 0xF7A JUMP JUMPDEST DUP1 ISZERO PUSH2 0x5B1 JUMPI DUP1 PUSH1 0x1F LT PUSH2 0x586 JUMPI PUSH2 0x100 DUP1 DUP4 SLOAD DIV MUL DUP4 MSTORE SWAP2 PUSH1 0x20 ADD SWAP2 PUSH2 0x5B1 JUMP JUMPDEST DUP3 ADD SWAP2 SWAP1 PUSH1 0x0 MSTORE PUSH1 0x20 PUSH1 0x0 KECCAK256 SWAP1 JUMPDEST DUP2 SLOAD DUP2 MSTORE SWAP1 PUSH1 0x1 ADD SWAP1 PUSH1 0x20 ADD DUP1 DUP4 GT PUSH2 0x594 JUMPI DUP3 SWAP1 SUB PUSH1 0x1F AND DUP3 ADD SWAP2 JUMPDEST POP POP POP POP POP SWAP1 DUP1 PUSH1 0x3 ADD SLOAD SWAP1 POP DUP6 JUMP JUMPDEST PUSH1 0x2 PUSH1 0x0 SWAP1 SLOAD SWAP1 PUSH2 0x100 EXP SWAP1 DIV PUSH20 0xFFFFFFFFFFFFFFFFFFFFFFFFFFFFFFFFFFFFFFFF AND PUSH20 0xFFFFFFFFFFFFFFFFFFFFFFFFFFFFFFFFFFFFFFFF AND CALLER PUSH20 0xFFFFFFFFFFFFFFFFFFFFFFFFFFFFFFFFFFFFFFFF AND EQ PUSH2 0x651 JUMPI PUSH1 0x40 MLOAD PUSH32 0x8C379A000000000000000000000000000000000000000000000000000000000 DUP2 MSTORE PUSH1 0x4 ADD PUSH2 0x648 SWAP1 PUSH2 0xCF5 JUMP JUMPDEST PUSH1 0x40 MLOAD DUP1 SWAP2 SUB SWAP1 REVERT JUMPDEST PUSH8 0xDE0B6B3A7640000 PUSH1 0x1 SLOAD PUSH2 0x667 SWAP2 SWAP1 PUSH2 0xE49 JUMP JUMPDEST CALLVALUE EQ PUSH2 0x672 JUMPI PUSH1 0x0 DUP1 REVERT JUMPDEST PUSH1 0x0 PUSH1 0x1 PUSH1 0x0 SLOAD PUSH2 0x683 SWAP2 SWAP1 PUSH2 0xEA3 JUMP JUMPDEST CALLVALUE PUSH2 0x68E SWAP2 SWAP1 PUSH2 0xE18 JUMP JUMPDEST SWAP1 POP PUSH1 0x0 JUMPDEST PUSH1 0x3 DUP1 SLOAD SWAP1 POP DUP2 LT ISZERO PUSH2 0x779 JUMPI PUSH1 0x0 PUSH1 0x3 DUP3 DUP2 SLOAD DUP2 LT PUSH2 0x6B6 JUMPI PUSH2 0x6B5 PUSH2 0x10E2 JUMP JUMPDEST JUMPDEST SWAP1 PUSH1 0x0 MSTORE PUSH1 0x20 PUSH1 0x0 KECCAK256 SWAP1 PUSH1 0x4 MUL ADD PUSH1 0x0 ADD PUSH1 0x0 SWAP1 SLOAD SWAP1 PUSH2 0x100 EXP SWAP1 DIV PUSH20 0xFFFFFFFFFFFFFFFFFFFFFFFFFFFFFFFFFFFFFFFF AND SWAP1 POP DUP4 PUSH20 0xFFFFFFFFFFFFFFFFFFFFFFFFFFFFFFFFFFFFFFFF AND DUP2 PUSH20 0xFFFFFFFFFFFFFFFFFFFFFFFFFFFFFFFFFFFFFFFF AND EQ PUSH2 0x765 JUMPI DUP1 PUSH20 0xFFFFFFFFFFFFFFFFFFFFFFFFFFFFFFFFFFFFFFFF AND PUSH2 0x8FC DUP5 SWAP1 DUP2 ISZERO MUL SWAP1 PUSH1 0x40 MLOAD PUSH1 0x0 PUSH1 0x40 MLOAD DUP1 DUP4 SUB DUP2 DUP6 DUP9 DUP9 CALL SWAP4 POP POP POP POP ISZERO DUP1 ISZERO PUSH2 0x763 JUMPI RETURNDATASIZE PUSH1 0x0 DUP1 RETURNDATACOPY RETURNDATASIZE PUSH1 0x0 REVERT JUMPDEST POP JUMPDEST POP DUP1 DUP1 PUSH2 0x771 SWAP1 PUSH2 0xFDD JUMP JUMPDEST SWAP2 POP POP PUSH2 0x693 JUMP JUMPDEST POP POP POP JUMP JUMPDEST PUSH1 0x0 PUSH1 0x40 MLOAD DUP1 PUSH1 0xA0 ADD PUSH1 0x40 MSTORE DUP1 CALLER PUSH20 0xFFFFFFFFFFFFFFFFFFFFFFFFFFFFFFFFFFFFFFFF AND DUP2 MSTORE PUSH1 0x20 ADD PUSH1 0x0 PUSH1 0x2 DUP2 GT ISZERO PUSH2 0x7BB JUMPI PUSH2 0x7BA PUSH2 0x1084 JUMP JUMPDEST JUMPDEST DUP2 MSTORE PUSH1 0x20 ADD DUP5 DUP2 MSTORE PUSH1 0x20 ADD DUP4 DUP2 MSTORE PUSH1 0x20 ADD TIMESTAMP DUP2 MSTORE POP SWAP1 POP DUP1 PUSH1 0x4 PUSH1 0x0 CALLER PUSH20 0xFFFFFFFFFFFFFFFFFFFFFFFFFFFFFFFFFFFFFFFF AND PUSH20 0xFFFFFFFFFFFFFFFFFFFFFFFFFFFFFFFFFFFFFFFF AND DUP2 MSTORE PUSH1 0x20 ADD SWAP1 DUP2 MSTORE PUSH1 0x20 ADD PUSH1 0x0 KECCAK256 PUSH1 0x0 DUP3 ADD MLOAD DUP2 PUSH1 0x0 ADD PUSH1 0x0 PUSH2 0x100 EXP DUP2 SLOAD DUP2 PUSH20 0xFFFFFFFFFFFFFFFFFFFFFFFFFFFFFFFFFFFFFFFF MUL NOT AND SWAP1 DUP4 PUSH20 0xFFFFFFFFFFFFFFFFFFFFFFFFFFFFFFFFFFFFFFFF AND MUL OR SWAP1 SSTORE POP PUSH1 0x20 DUP3 ADD MLOAD DUP2 PUSH1 0x0 ADD PUSH1 0x14 PUSH2 0x100 EXP DUP2 SLOAD DUP2 PUSH1 0xFF MUL NOT AND SWAP1 DUP4 PUSH1 0x2 DUP2 GT ISZERO PUSH2 0x884 JUMPI PUSH2 0x883 PUSH2 0x1084 JUMP JUMPDEST JUMPDEST MUL OR SWAP1 SSTORE POP PUSH1 0x40 DUP3 ADD MLOAD DUP2 PUSH1 0x1 ADD SWAP1 DUP1 MLOAD SWAP1 PUSH1 0x20 ADD SWAP1 PUSH2 0x8A5 SWAP3 SWAP2 SWAP1 PUSH2 0x9BE JUMP JUMPDEST POP PUSH1 0x60 DUP3 ADD MLOAD DUP2 PUSH1 0x2 ADD SWAP1 DUP1 MLOAD SWAP1 PUSH1 0x20 ADD SWAP1 PUSH2 0x8C2 SWAP3 SWAP2 SWAP1 PUSH2 0x9BE JUMP JUMPDEST POP PUSH1 0x80 DUP3 ADD MLOAD DUP2 PUSH1 0x3 ADD SSTORE SWAP1 POP POP PUSH1 0x3 DUP2 SWAP1 DUP1 PUSH1 0x1 DUP2 SLOAD ADD DUP1 DUP3 SSTORE DUP1 SWAP2 POP POP PUSH1 0x1 SWAP1 SUB SWAP1 PUSH1 0x0 MSTORE PUSH1 0x20 PUSH1 0x0 KECCAK256 SWAP1 PUSH1 0x4 MUL ADD PUSH1 0x0 SWAP1 SWAP2 SWAP1 SWAP2 SWAP1 SWAP2 POP PUSH1 0x0 DUP3 ADD MLOAD DUP2 PUSH1 0x0 ADD PUSH1 0x0 PUSH2 0x100 EXP DUP2 SLOAD DUP2 PUSH20 0xFFFFFFFFFFFFFFFFFFFFFFFFFFFFFFFFFFFFFFFF MUL NOT AND SWAP1 DUP4 PUSH20 0xFFFFFFFFFFFFFFFFFFFFFFFFFFFFFFFFFFFFFFFF AND MUL OR SWAP1 SSTORE POP PUSH1 0x20 DUP3 ADD MLOAD DUP2 PUSH1 0x0 ADD PUSH1 0x14 PUSH2 0x100 EXP DUP2 SLOAD DUP2 PUSH1 0xFF MUL NOT AND SWAP1 DUP4 PUSH1 0x2 DUP2 GT ISZERO PUSH2 0x96E JUMPI PUSH2 0x96D PUSH2 0x1084 JUMP JUMPDEST JUMPDEST MUL OR SWAP1 SSTORE POP PUSH1 0x40 DUP3 ADD MLOAD DUP2 PUSH1 0x1 ADD SWAP1 DUP1 MLOAD SWAP1 PUSH1 0x20 ADD SWAP1 PUSH2 0x98F SWAP3 SWAP2 SWAP1 PUSH2 0x9BE JUMP JUMPDEST POP PUSH1 0x60 DUP3 ADD MLOAD DUP2 PUSH1 0x2 ADD SWAP1 DUP1 MLOAD SWAP1 PUSH1 0x20 ADD SWAP1 PUSH2 0x9AC SWAP3 SWAP2 SWAP1 PUSH2 0x9BE JUMP JUMPDEST POP PUSH1 0x80 DUP3 ADD MLOAD DUP2 PUSH1 0x3 ADD SSTORE POP POP POP POP POP JUMP JUMPDEST DUP3 DUP1 SLOAD PUSH2 0x9CA SWAP1 PUSH2 0xF7A JUMP JUMPDEST SWAP1 PUSH1 0x0 MSTORE PUSH1 0x20 PUSH1 0x0 KECCAK256 SWAP1 PUSH1 0x1F ADD PUSH1 0x20 SWAP1 DIV DUP2 ADD SWAP3 DUP3 PUSH2 0x9EC JUMPI PUSH1 0x0 DUP6 SSTORE PUSH2 0xA33 JUMP JUMPDEST DUP3 PUSH1 0x1F LT PUSH2 0xA05 JUMPI DUP1 MLOAD PUSH1 0xFF NOT AND DUP4 DUP1 ADD OR DUP6 SSTORE PUSH2 0xA33 JUMP JUMPDEST DUP3 DUP1 ADD PUSH1 0x1 ADD DUP6 SSTORE DUP3 ISZERO PUSH2 0xA33 JUMPI SWAP2 DUP3 ADD JUMPDEST DUP3 DUP2 GT ISZERO PUSH2 0xA32 JUMPI DUP3 MLOAD DUP3 SSTORE SWAP2 PUSH1 0x20 ADD SWAP2 SWAP1 PUSH1 0x1 ADD SWAP1 PUSH2 0xA17 JUMP JUMPDEST JUMPDEST POP SWAP1 POP PUSH2 0xA40 SWAP2 SWAP1 PUSH2 0xA44 JUMP JUMPDEST POP SWAP1 JUMP JUMPDEST JUMPDEST DUP1 DUP3 GT ISZERO PUSH2 0xA5D JUMPI PUSH1 0x0 DUP2 PUSH1 0x0 SWAP1 SSTORE POP PUSH1 0x1 ADD PUSH2 0xA45 JUMP JUMPDEST POP SWAP1 JUMP JUMPDEST PUSH1 0x0 PUSH2 0xA74 PUSH2 0xA6F DUP5 PUSH2 0xD75 JUMP JUMPDEST PUSH2 0xD50 JUMP JUMPDEST SWAP1 POP DUP3 DUP2 MSTORE PUSH1 0x20 DUP2 ADD DUP5 DUP5 DUP5 ADD GT ISZERO PUSH2 0xA90 JUMPI PUSH2 0xA8F PUSH2 0x1145 JUMP JUMPDEST JUMPDEST PUSH2 0xA9B DUP5 DUP3 DUP6 PUSH2 0xF38 JUMP JUMPDEST POP SWAP4 SWAP3 POP POP POP JUMP JUMPDEST PUSH1 0x0 DUP2 CALLDATALOAD SWAP1 POP PUSH2 0xAB2 DUP2 PUSH2 0x11F1 JUMP JUMPDEST SWAP3 SWAP2 POP POP JUMP JUMPDEST PUSH1 0x0 DUP3 PUSH1 0x1F DUP4 ADD SLT PUSH2 0xACD JUMPI PUSH2 0xACC PUSH2 0x1140 JUMP JUMPDEST JUMPDEST DUP2 CALLDATALOAD PUSH2 0xADD DUP5 DUP3 PUSH1 0x20 DUP7 ADD PUSH2 0xA61 JUMP JUMPDEST SWAP2 POP POP SWAP3 SWAP2 POP POP JUMP JUMPDEST PUSH1 0x0 DUP2 CALLDATALOAD SWAP1 POP PUSH2 0xAF5 DUP2 PUSH2 0x1208 JUMP JUMPDEST SWAP3 SWAP2 POP POP JUMP JUMPDEST PUSH1 0x0 PUSH1 0x20 DUP3 DUP5 SUB SLT ISZERO PUSH2 0xB11 JUMPI PUSH2 0xB10 PUSH2 0x114F JUMP JUMPDEST JUMPDEST PUSH1 0x0 PUSH2 0xB1F DUP5 DUP3 DUP6 ADD PUSH2 0xAA3 JUMP JUMPDEST SWAP2 POP POP SWAP3 SWAP2 POP POP JUMP JUMPDEST PUSH1 0x0 DUP1 PUSH1 0x40 DUP4 DUP6 SUB SLT ISZERO PUSH2 0xB3F JUMPI PUSH2 0xB3E PUSH2 0x114F JUMP JUMPDEST JUMPDEST PUSH1 0x0 DUP4 ADD CALLDATALOAD PUSH8 0xFFFFFFFFFFFFFFFF DUP2 GT ISZERO PUSH2 0xB5D JUMPI PUSH2 0xB5C PUSH2 0x114A JUMP JUMPDEST JUMPDEST PUSH2 0xB69 DUP6 DUP3 DUP7 ADD PUSH2 0xAB8 JUMP JUMPDEST SWAP3 POP POP PUSH1 0x20 DUP4 ADD CALLDATALOAD PUSH8 0xFFFFFFFFFFFFFFFF DUP2 GT ISZERO PUSH2 0xB8A JUMPI PUSH2 0xB89 PUSH2 0x114A JUMP JUMPDEST JUMPDEST PUSH2 0xB96 DUP6 DUP3 DUP7 ADD PUSH2 0xAB8 JUMP JUMPDEST SWAP2 POP POP SWAP3 POP SWAP3 SWAP1 POP JUMP JUMPDEST PUSH1 0x0 PUSH1 0x20 DUP3 DUP5 SUB SLT ISZERO PUSH2 0xBB6 JUMPI PUSH2 0xBB5 PUSH2 0x114F JUMP JUMPDEST JUMPDEST PUSH1 0x0 PUSH2 0xBC4 DUP5 DUP3 DUP6 ADD PUSH2 0xAE6 JUMP JUMPDEST SWAP2 POP POP SWAP3 SWAP2 POP POP JUMP JUMPDEST PUSH2 0xBD6 DUP2 PUSH2 0xED7 JUMP JUMPDEST DUP3 MSTORE POP POP JUMP JUMPDEST PUSH2 0xBE5 DUP2 PUSH2 0xF26 JUMP JUMPDEST DUP3 MSTORE POP POP JUMP JUMPDEST PUSH1 0x0 PUSH2 0xBF6 DUP3 PUSH2 0xDA6 JUMP JUMPDEST PUSH2 0xC00 DUP2 DUP6 PUSH2 0xDB1 JUMP JUMPDEST SWAP4 POP PUSH2 0xC10 DUP2 DUP6 PUSH1 0x20 DUP7 ADD PUSH2 0xF47 JUMP JUMPDEST PUSH2 0xC19 DUP2 PUSH2 0x1154 JUMP JUMPDEST DUP5 ADD SWAP2 POP POP SWAP3 SWAP2 POP POP JUMP JUMPDEST PUSH1 0x0 PUSH2 0xC31 PUSH1 0x28 DUP4 PUSH2 0xDB1 JUMP JUMPDEST SWAP2 POP PUSH2 0xC3C DUP3 PUSH2 0x1165 JUMP JUMPDEST PUSH1 0x40 DUP3 ADD SWAP1 POP SWAP2 SWAP1 POP JUMP JUMPDEST PUSH1 0x0 PUSH2 0xC54 PUSH1 0x1B DUP4 PUSH2 0xDB1 JUMP JUMPDEST SWAP2 POP PUSH2 0xC5F DUP3 PUSH2 0x11B4 JUMP JUMPDEST PUSH1 0x20 DUP3 ADD SWAP1 POP SWAP2 SWAP1 POP JUMP JUMPDEST PUSH2 0xC73 DUP2 PUSH2 0xF1C JUMP JUMPDEST DUP3 MSTORE POP POP JUMP JUMPDEST PUSH1 0x0 PUSH1 0x20 DUP3 ADD SWAP1 POP PUSH2 0xC8E PUSH1 0x0 DUP4 ADD DUP5 PUSH2 0xBCD JUMP JUMPDEST SWAP3 SWAP2 POP POP JUMP JUMPDEST PUSH1 0x0 PUSH1 0xA0 DUP3 ADD SWAP1 POP PUSH2 0xCA9 PUSH1 0x0 DUP4 ADD DUP9 PUSH2 0xBCD JUMP JUMPDEST PUSH2 0xCB6 PUSH1 0x20 DUP4 ADD DUP8 PUSH2 0xBDC JUMP JUMPDEST DUP2 DUP2 SUB PUSH1 0x40 DUP4 ADD MSTORE PUSH2 0xCC8 DUP2 DUP7 PUSH2 0xBEB JUMP JUMPDEST SWAP1 POP DUP2 DUP2 SUB PUSH1 0x60 DUP4 ADD MSTORE PUSH2 0xCDC DUP2 DUP6 PUSH2 0xBEB JUMP JUMPDEST SWAP1 POP PUSH2 0xCEB PUSH1 0x80 DUP4 ADD DUP5 PUSH2 0xC6A JUMP JUMPDEST SWAP7 SWAP6 POP POP POP POP POP POP JUMP JUMPDEST PUSH1 0x0 PUSH1 0x20 DUP3 ADD SWAP1 POP DUP2 DUP2 SUB PUSH1 0x0 DUP4 ADD MSTORE PUSH2 0xD0E DUP2 PUSH2 0xC24 JUMP JUMPDEST SWAP1 POP SWAP2 SWAP1 POP JUMP JUMPDEST PUSH1 0x0 PUSH1 0x20 DUP3 ADD SWAP1 POP DUP2 DUP2 SUB PUSH1 0x0 DUP4 ADD MSTORE PUSH2 0xD2E DUP2 PUSH2 0xC47 JUMP JUMPDEST SWAP1 POP SWAP2 SWAP1 POP JUMP JUMPDEST PUSH1 0x0 PUSH1 0x20 DUP3 ADD SWAP1 POP PUSH2 0xD4A PUSH1 0x0 DUP4 ADD DUP5 PUSH2 0xC6A JUMP JUMPDEST SWAP3 SWAP2 POP POP JUMP JUMPDEST PUSH1 0x0 PUSH2 0xD5A PUSH2 0xD6B JUMP JUMPDEST SWAP1 POP PUSH2 0xD66 DUP3 DUP3 PUSH2 0xFAC JUMP JUMPDEST SWAP2 SWAP1 POP JUMP JUMPDEST PUSH1 0x0 PUSH1 0x40 MLOAD SWAP1 POP SWAP1 JUMP JUMPDEST PUSH1 0x0 PUSH8 0xFFFFFFFFFFFFFFFF DUP3 GT ISZERO PUSH2 0xD90 JUMPI PUSH2 0xD8F PUSH2 0x1111 JUMP JUMPDEST JUMPDEST PUSH2 0xD99 DUP3 PUSH2 0x1154 JUMP JUMPDEST SWAP1 POP PUSH1 0x20 DUP2 ADD SWAP1 POP SWAP2 SWAP1 POP JUMP JUMPDEST PUSH1 0x0 DUP2 MLOAD SWAP1 POP SWAP2 SWAP1 POP JUMP JUMPDEST PUSH1 0x0 DUP3 DUP3 MSTORE PUSH1 0x20 DUP3 ADD SWAP1 POP SWAP3 SWAP2 POP POP JUMP JUMPDEST PUSH1 0x0 PUSH2 0xDCD DUP3 PUSH2 0xF1C JUMP JUMPDEST SWAP2 POP PUSH2 0xDD8 DUP4 PUSH2 0xF1C JUMP JUMPDEST SWAP3 POP DUP3 PUSH32 0xFFFFFFFFFFFFFFFFFFFFFFFFFFFFFFFFFFFFFFFFFFFFFFFFFFFFFFFFFFFFFFFF SUB DUP3 GT ISZERO PUSH2 0xE0D JUMPI PUSH2 0xE0C PUSH2 0x1026 JUMP JUMPDEST JUMPDEST DUP3 DUP3 ADD SWAP1 POP SWAP3 SWAP2 POP POP JUMP JUMPDEST PUSH1 0x0 PUSH2 0xE23 DUP3 PUSH2 0xF1C JUMP JUMPDEST SWAP2 POP PUSH2 0xE2E DUP4 PUSH2 0xF1C JUMP JUMPDEST SWAP3 POP DUP3 PUSH2 0xE3E JUMPI PUSH2 0xE3D PUSH2 0x1055 JUMP JUMPDEST JUMPDEST DUP3 DUP3 DIV SWAP1 POP SWAP3 SWAP2 POP POP JUMP JUMPDEST PUSH1 0x0 PUSH2 0xE54 DUP3 PUSH2 0xF1C JUMP JUMPDEST SWAP2 POP PUSH2 0xE5F DUP4 PUSH2 0xF1C JUMP JUMPDEST SWAP3 POP DUP2 PUSH32 0xFFFFFFFFFFFFFFFFFFFFFFFFFFFFFFFFFFFFFFFFFFFFFFFFFFFFFFFFFFFFFFFF DIV DUP4 GT DUP3 ISZERO ISZERO AND ISZERO PUSH2 0xE98 JUMPI PUSH2 0xE97 PUSH2 0x1026 JUMP JUMPDEST JUMPDEST DUP3 DUP3 MUL SWAP1 POP SWAP3 SWAP2 POP POP JUMP JUMPDEST PUSH1 0x0 PUSH2 0xEAE DUP3 PUSH2 0xF1C JUMP JUMPDEST SWAP2 POP PUSH2 0xEB9 DUP4 PUSH2 0xF1C JUMP JUMPDEST SWAP3 POP DUP3 DUP3 LT ISZERO PUSH2 0xECC JUMPI PUSH2 0xECB PUSH2 0x1026 JUMP JUMPDEST JUMPDEST DUP3 DUP3 SUB SWAP1 POP SWAP3 SWAP2 POP POP JUMP JUMPDEST PUSH1 0x0 PUSH2 0xEE2 DUP3 PUSH2 0xEFC JUMP JUMPDEST SWAP1 POP SWAP2 SWAP1 POP JUMP JUMPDEST PUSH1 0x0 DUP2 SWAP1 POP PUSH2 0xEF7 DUP3 PUSH2 0x11DD JUMP JUMPDEST SWAP2 SWAP1 POP JUMP JUMPDEST PUSH1 0x0 PUSH20 0xFFFFFFFFFFFFFFFFFFFFFFFFFFFFFFFFFFFFFFFF DUP3 AND SWAP1 POP SWAP2 SWAP1 POP JUMP JUMPDEST PUSH1 0x0 DUP2 SWAP1 POP SWAP2 SWAP1 POP JUMP JUMPDEST PUSH1 0x0 PUSH2 0xF31 DUP3 PUSH2 0xEE9 JUMP JUMPDEST SWAP1 POP SWAP2 SWAP1 POP JUMP JUMPDEST DUP3 DUP2 DUP4 CALLDATACOPY PUSH1 0x0 DUP4 DUP4 ADD MSTORE POP POP POP JUMP JUMPDEST PUSH1 0x0 JUMPDEST DUP4 DUP2 LT ISZERO PUSH2 0xF65 JUMPI DUP1 DUP3 ADD MLOAD DUP2 DUP5 ADD MSTORE PUSH1 0x20 DUP2 ADD SWAP1 POP PUSH2 0xF4A JUMP JUMPDEST DUP4 DUP2 GT ISZERO PUSH2 0xF74 JUMPI PUSH1 0x0 DUP5 DUP5 ADD MSTORE JUMPDEST POP POP POP POP JUMP JUMPDEST PUSH1 0x0 PUSH1 0x2 DUP3 DIV SWAP1 POP PUSH1 0x1 DUP3 AND DUP1 PUSH2 0xF92 JUMPI PUSH1 0x7F DUP3 AND SWAP2 POP JUMPDEST PUSH1 0x20 DUP3 LT DUP2 EQ ISZERO PUSH2 0xFA6 JUMPI PUSH2 0xFA5 PUSH2 0x10B3 JUMP JUMPDEST JUMPDEST POP SWAP2 SWAP1 POP JUMP JUMPDEST PUSH2 0xFB5 DUP3 PUSH2 0x1154 JUMP JUMPDEST DUP2 ADD DUP2 DUP2 LT PUSH8 0xFFFFFFFFFFFFFFFF DUP3 GT OR ISZERO PUSH2 0xFD4 JUMPI PUSH2 0xFD3 PUSH2 0x1111 JUMP JUMPDEST JUMPDEST DUP1 PUSH1 0x40 MSTORE POP POP POP JUMP JUMPDEST PUSH1 0x0 PUSH2 0xFE8 DUP3 PUSH2 0xF1C JUMP JUMPDEST SWAP2 POP PUSH32 0xFFFFFFFFFFFFFFFFFFFFFFFFFFFFFFFFFFFFFFFFFFFFFFFFFFFFFFFFFFFFFFFF DUP3 EQ ISZERO PUSH2 0x101B JUMPI PUSH2 0x101A PUSH2 0x1026 JUMP JUMPDEST JUMPDEST PUSH1 0x1 DUP3 ADD SWAP1 POP SWAP2 SWAP1 POP JUMP JUMPDEST PUSH32 0x4E487B7100000000000000000000000000000000000000000000000000000000 PUSH1 0x0 MSTORE PUSH1 0x11 PUSH1 0x4 MSTORE PUSH1 0x24 PUSH1 0x0 REVERT JUMPDEST PUSH32 0x4E487B7100000000000000000000000000000000000000000000000000000000 PUSH1 0x0 MSTORE PUSH1 0x12 PUSH1 0x4 MSTORE PUSH1 0x24 PUSH1 0x0 REVERT JUMPDEST PUSH32 0x4E487B7100000000000000000000000000000000000000000000000000000000 PUSH1 0x0 MSTORE PUSH1 0x21 PUSH1 0x4 MSTORE PUSH1 0x24 PUSH1 0x0 REVERT JUMPDEST PUSH32 0x4E487B7100000000000000000000000000000000000000000000000000000000 PUSH1 0x0 MSTORE PUSH1 0x22 PUSH1 0x4 MSTORE PUSH1 0x24 PUSH1 0x0 REVERT JUMPDEST PUSH32 0x4E487B7100000000000000000000000000000000000000000000000000000000 PUSH1 0x0 MSTORE PUSH1 0x32 PUSH1 0x4 MSTORE PUSH1 0x24 PUSH1 0x0 REVERT JUMPDEST PUSH32 0x4E487B7100000000000000000000000000000000000000000000000000000000 PUSH1 0x0 MSTORE PUSH1 0x41 PUSH1 0x4 MSTORE PUSH1 0x24 PUSH1 0x0 REVERT JUMPDEST PUSH1 0x0 DUP1 REVERT JUMPDEST PUSH1 0x0 DUP1 REVERT JUMPDEST PUSH1 0x0 DUP1 REVERT JUMPDEST PUSH1 0x0 DUP1 REVERT JUMPDEST PUSH1 0x0 PUSH1 0x1F NOT PUSH1 0x1F DUP4 ADD AND SWAP1 POP SWAP2 SWAP1 POP JUMP JUMPDEST PUSH32 0x4F6E6C7920746865206465616C65722063616E20706179206F75742074686520 PUSH1 0x0 DUP3 ADD MSTORE PUSH32 0x77696E6E6572732E000000000000000000000000000000000000000000000000 PUSH1 0x20 DUP3 ADD MSTORE POP JUMP JUMPDEST PUSH32 0x546865206A6F696E696E67206665652069732032352065746865720000000000 PUSH1 0x0 DUP3 ADD MSTORE POP JUMP JUMPDEST PUSH1 0x3 DUP2 LT PUSH2 0x11EE JUMPI PUSH2 0x11ED PUSH2 0x1084 JUMP JUMPDEST JUMPDEST POP JUMP JUMPDEST PUSH2 0x11FA DUP2 PUSH2 0xED7 JUMP JUMPDEST DUP2 EQ PUSH2 0x1205 JUMPI PUSH1 0x0 DUP1 REVERT JUMPDEST POP JUMP JUMPDEST PUSH2 0x1211 DUP2 PUSH2 0xF1C JUMP JUMPDEST DUP2 EQ PUSH2 0x121C JUMPI PUSH1 0x0 DUP1 REVERT JUMPDEST POP JUMP INVALID LOG2 PUSH5 0x6970667358 0x22 SLT KECCAK256 SWAP4 ISZERO SAR 0x2D 0xE7 ADD PUSH16 0x11242240F056332704BD8128D64C9692 0x5D EXTCODESIZE JUMPDEST 0x4A AND PUSH24 0xB3007264736F6C6343000807003300000000000000000000 "
				},
				"gasEstimates": {
					"creation": {
						"codeDepositCost": "938600",
						"executionCost": "35253",
						"totalCost": "973853"
					},
					"external": {
						"dealer()": "2559",
						"joinGame(string,string)": "infinite",
						"payOutWinners(address)": "infinite",
						"playerCount()": "2430",
						"players(address)": "infinite",
						"playersInGame(uint256)": "infinite",
						"pot()": "2452"
					},
					"internal": {
						"addPlayer(string memory,string memory)": "infinite",
						"changePlayerLevel(address)": "infinite",
						"getPlayerLevel(address)": "infinite"
					}
				},
				"methodIdentifiers": {
					"dealer()": "9de2ee21",
					"joinGame(string,string)": "dbdef6f1",
					"payOutWinners(address)": "fed47dac",
					"playerCount()": "302bcc57",
					"players(address)": "e2eb41ff",
					"playersInGame(uint256)": "f9593e14",
					"pot()": "4ba2363a"
				}
			},
			"storageLayout": {
				"storage": [
					{
						"astId": 4,
						"contract": "contracts/SimpleMultSend.sol:myGame",
						"label": "playerCount",
						"offset": 0,
						"slot": "0",
						"type": "t_uint256"
					},
					{
						"astId": 7,
						"contract": "contracts/SimpleMultSend.sol:myGame",
						"label": "pot",
						"offset": 0,
						"slot": "1",
						"type": "t_uint256"
					},
					{
						"astId": 9,
						"contract": "contracts/SimpleMultSend.sol:myGame",
						"label": "dealer",
						"offset": 0,
						"slot": "2",
						"type": "t_address"
					},
					{
						"astId": 13,
						"contract": "contracts/SimpleMultSend.sol:myGame",
						"label": "playersInGame",
						"offset": 0,
						"slot": "3",
						"type": "t_array(t_struct(Player)34_storage)dyn_storage"
					},
					{
						"astId": 18,
						"contract": "contracts/SimpleMultSend.sol:myGame",
						"label": "players",
						"offset": 0,
						"slot": "4",
						"type": "t_mapping(t_address,t_struct(Player)34_storage)"
					}
				],
				"types": {
					"t_address": {
						"encoding": "inplace",
						"label": "address",
						"numberOfBytes": "20"
					},
					"t_array(t_struct(Player)34_storage)dyn_storage": {
						"base": "t_struct(Player)34_storage",
						"encoding": "dynamic_array",
						"label": "struct myGame.Player[]",
						"numberOfBytes": "32"
					},
					"t_enum(Level)22": {
						"encoding": "inplace",
						"label": "enum myGame.Level",
						"numberOfBytes": "1"
					},
					"t_mapping(t_address,t_struct(Player)34_storage)": {
						"encoding": "mapping",
						"key": "t_address",
						"label": "mapping(address => struct myGame.Player)",
						"numberOfBytes": "32",
						"value": "t_struct(Player)34_storage"
					},
					"t_string_storage": {
						"encoding": "bytes",
						"label": "string",
						"numberOfBytes": "32"
					},
					"t_struct(Player)34_storage": {
						"encoding": "inplace",
						"label": "struct myGame.Player",
						"members": [
							{
								"astId": 24,
								"contract": "contracts/SimpleMultSend.sol:myGame",
								"label": "playerAddress",
								"offset": 0,
								"slot": "0",
								"type": "t_address"
							},
							{
								"astId": 27,
								"contract": "contracts/SimpleMultSend.sol:myGame",
								"label": "playerLevel",
								"offset": 20,
								"slot": "0",
								"type": "t_enum(Level)22"
							},
							{
								"astId": 29,
								"contract": "contracts/SimpleMultSend.sol:myGame",
								"label": "firstName",
								"offset": 0,
								"slot": "1",
								"type": "t_string_storage"
							},
							{
								"astId": 31,
								"contract": "contracts/SimpleMultSend.sol:myGame",
								"label": "lastName",
								"offset": 0,
								"slot": "2",
								"type": "t_string_storage"
							},
							{
								"astId": 33,
								"contract": "contracts/SimpleMultSend.sol:myGame",
								"label": "createdTime",
								"offset": 0,
								"slot": "3",
								"type": "t_uint256"
							}
						],
						"numberOfBytes": "128"
					},
					"t_uint256": {
						"encoding": "inplace",
						"label": "uint256",
						"numberOfBytes": "32"
					}
				}
			},
			"userdoc": {
				"kind": "user",
				"methods": {},
				"version": 1
			}
		}
	}
}