{
	"contracts/SimpleMultSend.sol": {
		"myGame": {
			"abi": [
				{
					"inputs": [],
					"stateMutability": "nonpayable",
					"type": "constructor"
				},
				{
					"inputs": [
						{
							"internalType": "address",
							"name": "playerAddress",
							"type": "address"
						}
					],
					"name": "changePlayerLevel",
					"outputs": [],
					"stateMutability": "nonpayable",
					"type": "function"
				},
				{
					"inputs": [],
					"name": "dealer",
					"outputs": [
						{
							"internalType": "address",
							"name": "",
							"type": "address"
						}
					],
					"stateMutability": "view",
					"type": "function"
				},
				{
					"inputs": [
						{
							"internalType": "address",
							"name": "playerAddress",
							"type": "address"
						}
					],
					"name": "getPlayerLevel",
					"outputs": [
						{
							"internalType": "enum myGame.Level",
							"name": "",
							"type": "uint8"
						}
					],
					"stateMutability": "view",
					"type": "function"
				},
				{
					"inputs": [
						{
							"internalType": "string",
							"name": "firstName",
							"type": "string"
						},
						{
							"internalType": "string",
							"name": "lastName",
							"type": "string"
						}
					],
					"name": "joinGame",
					"outputs": [],
					"stateMutability": "payable",
					"type": "function"
				},
				{
					"inputs": [
						{
							"internalType": "address",
							"name": "loserAddress",
							"type": "address"
						}
					],
					"name": "payOutWinners",
					"outputs": [],
					"stateMutability": "payable",
					"type": "function"
				},
				{
					"inputs": [],
					"name": "playerCount",
					"outputs": [
						{
							"internalType": "uint256",
							"name": "",
							"type": "uint256"
						}
					],
					"stateMutability": "view",
					"type": "function"
				},
				{
					"inputs": [
						{
							"internalType": "address",
							"name": "",
							"type": "address"
						}
					],
					"name": "players",
					"outputs": [
						{
							"internalType": "address",
							"name": "playerAddress",
							"type": "address"
						},
						{
							"internalType": "enum myGame.Level",
							"name": "playerLevel",
							"type": "uint8"
						},
						{
							"internalType": "string",
							"name": "firstName",
							"type": "string"
						},
						{
							"internalType": "string",
							"name": "lastName",
							"type": "string"
						},
						{
							"internalType": "uint256",
							"name": "createdTime",
							"type": "uint256"
						}
					],
					"stateMutability": "view",
					"type": "function"
				},
				{
					"inputs": [
						{
							"internalType": "uint256",
							"name": "",
							"type": "uint256"
						}
					],
					"name": "playersInGame",
					"outputs": [
						{
							"internalType": "address",
							"name": "playerAddress",
							"type": "address"
						},
						{
							"internalType": "enum myGame.Level",
							"name": "playerLevel",
							"type": "uint8"
						},
						{
							"internalType": "string",
							"name": "firstName",
							"type": "string"
						},
						{
							"internalType": "string",
							"name": "lastName",
							"type": "string"
						},
						{
							"internalType": "uint256",
							"name": "createdTime",
							"type": "uint256"
						}
					],
					"stateMutability": "view",
					"type": "function"
				},
				{
					"inputs": [],
					"name": "pot",
					"outputs": [
						{
							"internalType": "uint256",
							"name": "",
							"type": "uint256"
						}
					],
					"stateMutability": "view",
					"type": "function"
				}
			],
			"devdoc": {
				"kind": "dev",
				"methods": {},
				"version": 1
			},
			"evm": {
				"assembly": "    /* \"contracts/SimpleMultSend.sol\":67:2093  contract myGame {... */\n  mstore(0x40, 0x80)\n    /* \"contracts/SimpleMultSend.sol\":116:117  0 */\n  0x00\n    /* \"contracts/SimpleMultSend.sol\":90:117  uint public playerCount = 0 */\n  dup1\n  sstore\n    /* \"contracts/SimpleMultSend.sol\":141:142  0 */\n  0x00\n    /* \"contracts/SimpleMultSend.sol\":123:142  uint public pot = 0 */\n  0x01\n  sstore\n    /* \"contracts/SimpleMultSend.sol\":477:526  constructor(){... */\n  callvalue\n  dup1\n  iszero\n  tag_1\n  jumpi\n  0x00\n  dup1\n  revert\ntag_1:\n  pop\n    /* \"contracts/SimpleMultSend.sol\":509:519  msg.sender */\n  caller\n    /* \"contracts/SimpleMultSend.sol\":500:506  dealer */\n  0x02\n  0x00\n    /* \"contracts/SimpleMultSend.sol\":500:519  dealer = msg.sender */\n  0x0100\n  exp\n  dup2\n  sload\n  dup2\n  0xffffffffffffffffffffffffffffffffffffffff\n  mul\n  not\n  and\n  swap1\n  dup4\n  0xffffffffffffffffffffffffffffffffffffffff\n  and\n  mul\n  or\n  swap1\n  sstore\n  pop\n    /* \"contracts/SimpleMultSend.sol\":67:2093  contract myGame {... */\n  dataSize(sub_0)\n  dup1\n  dataOffset(sub_0)\n  0x00\n  codecopy\n  0x00\n  return\nstop\n\nsub_0: assembly {\n        /* \"contracts/SimpleMultSend.sol\":67:2093  contract myGame {... */\n      mstore(0x40, 0x80)\n      jumpi(tag_1, lt(calldatasize, 0x04))\n      shr(0xe0, calldataload(0x00))\n      dup1\n      0x9de2ee21\n      gt\n      tag_11\n      jumpi\n      dup1\n      0x9de2ee21\n      eq\n      tag_6\n      jumpi\n      dup1\n      0xdbdef6f1\n      eq\n      tag_7\n      jumpi\n      dup1\n      0xe2eb41ff\n      eq\n      tag_8\n      jumpi\n      dup1\n      0xf9593e14\n      eq\n      tag_9\n      jumpi\n      dup1\n      0xfed47dac\n      eq\n      tag_10\n      jumpi\n      jump(tag_1)\n    tag_11:\n      dup1\n      0x302bcc57\n      eq\n      tag_2\n      jumpi\n      dup1\n      0x34b735a1\n      eq\n      tag_3\n      jumpi\n      dup1\n      0x4ba2363a\n      eq\n      tag_4\n      jumpi\n      dup1\n      0x8ddf0f7d\n      eq\n      tag_5\n      jumpi\n    tag_1:\n      0x00\n      dup1\n      revert\n        /* \"contracts/SimpleMultSend.sol\":90:117  uint public playerCount = 0 */\n    tag_2:\n      callvalue\n      dup1\n      iszero\n      tag_12\n      jumpi\n      0x00\n      dup1\n      revert\n    tag_12:\n      pop\n      tag_13\n      tag_14\n      jump\t// in\n    tag_13:\n      mload(0x40)\n      tag_15\n      swap2\n      swap1\n      tag_16\n      jump\t// in\n    tag_15:\n      mload(0x40)\n      dup1\n      swap2\n      sub\n      swap1\n      return\n        /* \"contracts/SimpleMultSend.sol\":807:980  function getPlayerLevel(address playerAddress) public view returns (Level) {... */\n    tag_3:\n      callvalue\n      dup1\n      iszero\n      tag_17\n      jumpi\n      0x00\n      dup1\n      revert\n    tag_17:\n      pop\n      tag_18\n      0x04\n      dup1\n      calldatasize\n      sub\n      dup2\n      add\n      swap1\n      tag_19\n      swap2\n      swap1\n      tag_20\n      jump\t// in\n    tag_19:\n      tag_21\n      jump\t// in\n    tag_18:\n      mload(0x40)\n      tag_22\n      swap2\n      swap1\n      tag_23\n      jump\t// in\n    tag_22:\n      mload(0x40)\n      dup1\n      swap2\n      sub\n      swap1\n      return\n        /* \"contracts/SimpleMultSend.sol\":123:142  uint public pot = 0 */\n    tag_4:\n      callvalue\n      dup1\n      iszero\n      tag_24\n      jumpi\n      0x00\n      dup1\n      revert\n    tag_24:\n      pop\n      tag_25\n      tag_26\n      jump\t// in\n    tag_25:\n      mload(0x40)\n      tag_27\n      swap2\n      swap1\n      tag_16\n      jump\t// in\n    tag_27:\n      mload(0x40)\n      dup1\n      swap2\n      sub\n      swap1\n      return\n        /* \"contracts/SimpleMultSend.sol\":986:1228  function changePlayerLevel (address playerAddress) public {... */\n    tag_5:\n      callvalue\n      dup1\n      iszero\n      tag_28\n      jumpi\n      0x00\n      dup1\n      revert\n    tag_28:\n      pop\n      tag_29\n      0x04\n      dup1\n      calldatasize\n      sub\n      dup2\n      add\n      swap1\n      tag_30\n      swap2\n      swap1\n      tag_20\n      jump\t// in\n    tag_30:\n      tag_31\n      jump\t// in\n    tag_29:\n      stop\n        /* \"contracts/SimpleMultSend.sol\":149:170  address public dealer */\n    tag_6:\n      callvalue\n      dup1\n      iszero\n      tag_32\n      jumpi\n      0x00\n      dup1\n      revert\n    tag_32:\n      pop\n      tag_33\n      tag_34\n      jump\t// in\n    tag_33:\n      mload(0x40)\n      tag_35\n      swap2\n      swap1\n      tag_36\n      jump\t// in\n    tag_35:\n      mload(0x40)\n      dup1\n      swap2\n      sub\n      swap1\n      return\n        /* \"contracts/SimpleMultSend.sol\":1234:1548  function joinGame(string memory firstName, string memory lastName) payable public {... */\n    tag_7:\n      tag_37\n      0x04\n      dup1\n      calldatasize\n      sub\n      dup2\n      add\n      swap1\n      tag_38\n      swap2\n      swap1\n      tag_39\n      jump\t// in\n    tag_38:\n      tag_40\n      jump\t// in\n    tag_37:\n      stop\n        /* \"contracts/SimpleMultSend.sol\":213:255  mapping (address => Player) public players */\n    tag_8:\n      callvalue\n      dup1\n      iszero\n      tag_41\n      jumpi\n      0x00\n      dup1\n      revert\n    tag_41:\n      pop\n      tag_42\n      0x04\n      dup1\n      calldatasize\n      sub\n      dup2\n      add\n      swap1\n      tag_43\n      swap2\n      swap1\n      tag_20\n      jump\t// in\n    tag_43:\n      tag_44\n      jump\t// in\n    tag_42:\n      mload(0x40)\n      tag_45\n      swap6\n      swap5\n      swap4\n      swap3\n      swap2\n      swap1\n      tag_46\n      jump\t// in\n    tag_45:\n      mload(0x40)\n      dup1\n      swap2\n      sub\n      swap1\n      return\n        /* \"contracts/SimpleMultSend.sol\":177:206  Player[] public playersInGame */\n    tag_9:\n      callvalue\n      dup1\n      iszero\n      tag_47\n      jumpi\n      0x00\n      dup1\n      revert\n    tag_47:\n      pop\n      tag_48\n      0x04\n      dup1\n      calldatasize\n      sub\n      dup2\n      add\n      swap1\n      tag_49\n      swap2\n      swap1\n      tag_50\n      jump\t// in\n    tag_49:\n      tag_51\n      jump\t// in\n    tag_48:\n      mload(0x40)\n      tag_52\n      swap6\n      swap5\n      swap4\n      swap3\n      swap2\n      swap1\n      tag_46\n      jump\t// in\n    tag_52:\n      mload(0x40)\n      dup1\n      swap2\n      sub\n      swap1\n      return\n        /* \"contracts/SimpleMultSend.sol\":1554:2087  function payOutWinners(address loserAddress) payable public {... */\n    tag_10:\n      tag_53\n      0x04\n      dup1\n      calldatasize\n      sub\n      dup2\n      add\n      swap1\n      tag_54\n      swap2\n      swap1\n      tag_20\n      jump\t// in\n    tag_54:\n      tag_55\n      jump\t// in\n    tag_53:\n      stop\n        /* \"contracts/SimpleMultSend.sol\":90:117  uint public playerCount = 0 */\n    tag_14:\n      sload(0x00)\n      dup2\n      jump\t// out\n        /* \"contracts/SimpleMultSend.sol\":807:980  function getPlayerLevel(address playerAddress) public view returns (Level) {... */\n    tag_21:\n        /* \"contracts/SimpleMultSend.sol\":875:880  Level */\n      0x00\n        /* \"contracts/SimpleMultSend.sol\":892:913  Player storage player */\n      dup1\n        /* \"contracts/SimpleMultSend.sol\":916:923  players */\n      0x04\n        /* \"contracts/SimpleMultSend.sol\":916:938  players[playerAddress] */\n      0x00\n        /* \"contracts/SimpleMultSend.sol\":924:937  playerAddress */\n      dup5\n        /* \"contracts/SimpleMultSend.sol\":916:938  players[playerAddress] */\n      0xffffffffffffffffffffffffffffffffffffffff\n      and\n      0xffffffffffffffffffffffffffffffffffffffff\n      and\n      dup2\n      mstore\n      0x20\n      add\n      swap1\n      dup2\n      mstore\n      0x20\n      add\n      0x00\n      keccak256\n        /* \"contracts/SimpleMultSend.sol\":892:938  Player storage player = players[playerAddress] */\n      swap1\n      pop\n        /* \"contracts/SimpleMultSend.sol\":955:961  player */\n      dup1\n        /* \"contracts/SimpleMultSend.sol\":955:973  player.playerLevel */\n      0x00\n      add\n      0x14\n      swap1\n      sload\n      swap1\n      0x0100\n      exp\n      swap1\n      div\n      0xff\n      and\n        /* \"contracts/SimpleMultSend.sol\":948:973  return player.playerLevel */\n      swap2\n      pop\n      pop\n        /* \"contracts/SimpleMultSend.sol\":807:980  function getPlayerLevel(address playerAddress) public view returns (Level) {... */\n      swap2\n      swap1\n      pop\n      jump\t// out\n        /* \"contracts/SimpleMultSend.sol\":123:142  uint public pot = 0 */\n    tag_26:\n      sload(0x01)\n      dup2\n      jump\t// out\n        /* \"contracts/SimpleMultSend.sol\":986:1228  function changePlayerLevel (address playerAddress) public {... */\n    tag_31:\n        /* \"contracts/SimpleMultSend.sol\":1054:1075  Player storage player */\n      0x00\n        /* \"contracts/SimpleMultSend.sol\":1078:1085  players */\n      0x04\n        /* \"contracts/SimpleMultSend.sol\":1078:1100  players[playerAddress] */\n      0x00\n        /* \"contracts/SimpleMultSend.sol\":1086:1099  playerAddress */\n      dup4\n        /* \"contracts/SimpleMultSend.sol\":1078:1100  players[playerAddress] */\n      0xffffffffffffffffffffffffffffffffffffffff\n      and\n      0xffffffffffffffffffffffffffffffffffffffff\n      and\n      dup2\n      mstore\n      0x20\n      add\n      swap1\n      dup2\n      mstore\n      0x20\n      add\n      0x00\n      keccak256\n        /* \"contracts/SimpleMultSend.sol\":1054:1100  Player storage player = players[playerAddress] */\n      swap1\n      pop\n        /* \"contracts/SimpleMultSend.sol\":1154:1156  20 */\n      0x14\n        /* \"contracts/SimpleMultSend.sol\":1133:1139  player */\n      dup2\n        /* \"contracts/SimpleMultSend.sol\":1133:1151  player.createdTime */\n      0x03\n      add\n      sload\n        /* \"contracts/SimpleMultSend.sol\":1133:1156  player.createdTime + 20 */\n      tag_58\n      swap2\n      swap1\n      tag_59\n      jump\t// in\n    tag_58:\n        /* \"contracts/SimpleMultSend.sol\":1114:1129  block.timestamp */\n      timestamp\n        /* \"contracts/SimpleMultSend.sol\":1114:1156  block.timestamp >= player.createdTime + 20 */\n      lt\n        /* \"contracts/SimpleMultSend.sol\":1110:1222  if (block.timestamp >= player.createdTime + 20) {... */\n      tag_60\n      jumpi\n        /* \"contracts/SimpleMultSend.sol\":1193:1211  Level.Intermediate */\n      0x01\n        /* \"contracts/SimpleMultSend.sol\":1172:1178  player */\n      dup2\n        /* \"contracts/SimpleMultSend.sol\":1172:1190  player.playerLevel */\n      0x00\n      add\n      0x14\n        /* \"contracts/SimpleMultSend.sol\":1172:1211  player.playerLevel = Level.Intermediate */\n      0x0100\n      exp\n      dup2\n      sload\n      dup2\n      0xff\n      mul\n      not\n      and\n      swap1\n      dup4\n      0x02\n      dup2\n      gt\n      iszero\n      tag_61\n      jumpi\n      tag_62\n      tag_63\n      jump\t// in\n    tag_62:\n    tag_61:\n      mul\n      or\n      swap1\n      sstore\n      pop\n        /* \"contracts/SimpleMultSend.sol\":1110:1222  if (block.timestamp >= player.createdTime + 20) {... */\n    tag_60:\n        /* \"contracts/SimpleMultSend.sol\":1044:1228  {... */\n      pop\n        /* \"contracts/SimpleMultSend.sol\":986:1228  function changePlayerLevel (address playerAddress) public {... */\n      pop\n      jump\t// out\n        /* \"contracts/SimpleMultSend.sol\":149:170  address public dealer */\n    tag_34:\n      0x02\n      0x00\n      swap1\n      sload\n      swap1\n      0x0100\n      exp\n      swap1\n      div\n      0xffffffffffffffffffffffffffffffffffffffff\n      and\n      dup2\n      jump\t// out\n        /* \"contracts/SimpleMultSend.sol\":1234:1548  function joinGame(string memory firstName, string memory lastName) payable public {... */\n    tag_40:\n        /* \"contracts/SimpleMultSend.sol\":1347:1355  25 ether */\n      0x015af1d78b58c40000\n        /* \"contracts/SimpleMultSend.sol\":1334:1343  msg.value */\n      callvalue\n        /* \"contracts/SimpleMultSend.sol\":1334:1355  msg.value == 25 ether */\n      eq\n        /* \"contracts/SimpleMultSend.sol\":1326:1387  require(msg.value == 25 ether, \"The joining fee is 25 ether\") */\n      tag_65\n      jumpi\n      mload(0x40)\n      0x08c379a000000000000000000000000000000000000000000000000000000000\n      dup2\n      mstore\n      0x04\n      add\n      tag_66\n      swap1\n      tag_67\n      jump\t// in\n    tag_66:\n      mload(0x40)\n      dup1\n      swap2\n      sub\n      swap1\n      revert\n    tag_65:\n        /* \"contracts/SimpleMultSend.sol\":1409:1415  dealer */\n      0x02\n      0x00\n      swap1\n      sload\n      swap1\n      0x0100\n      exp\n      swap1\n      div\n      0xffffffffffffffffffffffffffffffffffffffff\n      and\n        /* \"contracts/SimpleMultSend.sol\":1401:1421  payable(dealer).send */\n      0xffffffffffffffffffffffffffffffffffffffff\n      and\n        /* \"contracts/SimpleMultSend.sol\":1401:1432  payable(dealer).send(msg.value) */\n      0x08fc\n        /* \"contracts/SimpleMultSend.sol\":1422:1431  msg.value */\n      callvalue\n        /* \"contracts/SimpleMultSend.sol\":1401:1432  payable(dealer).send(msg.value) */\n      swap1\n      dup2\n      iszero\n      mul\n      swap1\n      mload(0x40)\n      0x00\n      mload(0x40)\n      dup1\n      dup4\n      sub\n      dup2\n      dup6\n      dup9\n      dup9\n      call\n      swap4\n      pop\n      pop\n      pop\n      pop\n        /* \"contracts/SimpleMultSend.sol\":1397:1542  if (payable(dealer).send(msg.value)) {... */\n      iszero\n      tag_69\n      jumpi\n        /* \"contracts/SimpleMultSend.sol\":1448:1478  addPlayer(firstName, lastName) */\n      tag_70\n        /* \"contracts/SimpleMultSend.sol\":1458:1467  firstName */\n      dup3\n        /* \"contracts/SimpleMultSend.sol\":1469:1477  lastName */\n      dup3\n        /* \"contracts/SimpleMultSend.sol\":1448:1457  addPlayer */\n      tag_71\n        /* \"contracts/SimpleMultSend.sol\":1448:1478  addPlayer(firstName, lastName) */\n      jump\t// in\n    tag_70:\n        /* \"contracts/SimpleMultSend.sol\":1507:1508  1 */\n      0x01\n        /* \"contracts/SimpleMultSend.sol\":1492:1503  playerCount */\n      0x00\n      dup1\n        /* \"contracts/SimpleMultSend.sol\":1492:1508  playerCount += 1 */\n      dup3\n      dup3\n      sload\n      tag_72\n      swap2\n      swap1\n      tag_59\n      jump\t// in\n    tag_72:\n      swap3\n      pop\n      pop\n      dup2\n      swap1\n      sstore\n      pop\n        /* \"contracts/SimpleMultSend.sol\":1529:1531  25 */\n      0x19\n        /* \"contracts/SimpleMultSend.sol\":1522:1525  pot */\n      0x01\n      0x00\n        /* \"contracts/SimpleMultSend.sol\":1522:1531  pot += 25 */\n      dup3\n      dup3\n      sload\n      tag_73\n      swap2\n      swap1\n      tag_59\n      jump\t// in\n    tag_73:\n      swap3\n      pop\n      pop\n      dup2\n      swap1\n      sstore\n      pop\n        /* \"contracts/SimpleMultSend.sol\":1397:1542  if (payable(dealer).send(msg.value)) {... */\n    tag_69:\n        /* \"contracts/SimpleMultSend.sol\":1234:1548  function joinGame(string memory firstName, string memory lastName) payable public {... */\n      pop\n      pop\n      jump\t// out\n        /* \"contracts/SimpleMultSend.sol\":213:255  mapping (address => Player) public players */\n    tag_44:\n      mstore(0x20, 0x04)\n      dup1\n      0x00\n      mstore\n      keccak256(0x00, 0x40)\n      0x00\n      swap2\n      pop\n      swap1\n      pop\n      dup1\n      0x00\n      add\n      0x00\n      swap1\n      sload\n      swap1\n      0x0100\n      exp\n      swap1\n      div\n      0xffffffffffffffffffffffffffffffffffffffff\n      and\n      swap1\n      dup1\n      0x00\n      add\n      0x14\n      swap1\n      sload\n      swap1\n      0x0100\n      exp\n      swap1\n      div\n      0xff\n      and\n      swap1\n      dup1\n      0x01\n      add\n      dup1\n      sload\n      tag_74\n      swap1\n      tag_75\n      jump\t// in\n    tag_74:\n      dup1\n      0x1f\n      add\n      0x20\n      dup1\n      swap2\n      div\n      mul\n      0x20\n      add\n      mload(0x40)\n      swap1\n      dup2\n      add\n      0x40\n      mstore\n      dup1\n      swap3\n      swap2\n      swap1\n      dup2\n      dup2\n      mstore\n      0x20\n      add\n      dup3\n      dup1\n      sload\n      tag_76\n      swap1\n      tag_75\n      jump\t// in\n    tag_76:\n      dup1\n      iszero\n      tag_77\n      jumpi\n      dup1\n      0x1f\n      lt\n      tag_78\n      jumpi\n      0x0100\n      dup1\n      dup4\n      sload\n      div\n      mul\n      dup4\n      mstore\n      swap2\n      0x20\n      add\n      swap2\n      jump(tag_77)\n    tag_78:\n      dup3\n      add\n      swap2\n      swap1\n      0x00\n      mstore\n      keccak256(0x00, 0x20)\n      swap1\n    tag_79:\n      dup2\n      sload\n      dup2\n      mstore\n      swap1\n      0x01\n      add\n      swap1\n      0x20\n      add\n      dup1\n      dup4\n      gt\n      tag_79\n      jumpi\n      dup3\n      swap1\n      sub\n      0x1f\n      and\n      dup3\n      add\n      swap2\n    tag_77:\n      pop\n      pop\n      pop\n      pop\n      pop\n      swap1\n      dup1\n      0x02\n      add\n      dup1\n      sload\n      tag_80\n      swap1\n      tag_75\n      jump\t// in\n    tag_80:\n      dup1\n      0x1f\n      add\n      0x20\n      dup1\n      swap2\n      div\n      mul\n      0x20\n      add\n      mload(0x40)\n      swap1\n      dup2\n      add\n      0x40\n      mstore\n      dup1\n      swap3\n      swap2\n      swap1\n      dup2\n      dup2\n      mstore\n      0x20\n      add\n      dup3\n      dup1\n      sload\n      tag_81\n      swap1\n      tag_75\n      jump\t// in\n    tag_81:\n      dup1\n      iszero\n      tag_82\n      jumpi\n      dup1\n      0x1f\n      lt\n      tag_83\n      jumpi\n      0x0100\n      dup1\n      dup4\n      sload\n      div\n      mul\n      dup4\n      mstore\n      swap2\n      0x20\n      add\n      swap2\n      jump(tag_82)\n    tag_83:\n      dup3\n      add\n      swap2\n      swap1\n      0x00\n      mstore\n      keccak256(0x00, 0x20)\n      swap1\n    tag_84:\n      dup2\n      sload\n      dup2\n      mstore\n      swap1\n      0x01\n      add\n      swap1\n      0x20\n      add\n      dup1\n      dup4\n      gt\n      tag_84\n      jumpi\n      dup3\n      swap1\n      sub\n      0x1f\n      and\n      dup3\n      add\n      swap2\n    tag_82:\n      pop\n      pop\n      pop\n      pop\n      pop\n      swap1\n      dup1\n      0x03\n      add\n      sload\n      swap1\n      pop\n      dup6\n      jump\t// out\n        /* \"contracts/SimpleMultSend.sol\":177:206  Player[] public playersInGame */\n    tag_51:\n      0x03\n      dup2\n      dup2\n      sload\n      dup2\n      lt\n      tag_85\n      jumpi\n      0x00\n      dup1\n      revert\n    tag_85:\n      swap1\n      0x00\n      mstore\n      keccak256(0x00, 0x20)\n      swap1\n      0x04\n      mul\n      add\n      0x00\n      swap2\n      pop\n      swap1\n      pop\n      dup1\n      0x00\n      add\n      0x00\n      swap1\n      sload\n      swap1\n      0x0100\n      exp\n      swap1\n      div\n      0xffffffffffffffffffffffffffffffffffffffff\n      and\n      swap1\n      dup1\n      0x00\n      add\n      0x14\n      swap1\n      sload\n      swap1\n      0x0100\n      exp\n      swap1\n      div\n      0xff\n      and\n      swap1\n      dup1\n      0x01\n      add\n      dup1\n      sload\n      tag_87\n      swap1\n      tag_75\n      jump\t// in\n    tag_87:\n      dup1\n      0x1f\n      add\n      0x20\n      dup1\n      swap2\n      div\n      mul\n      0x20\n      add\n      mload(0x40)\n      swap1\n      dup2\n      add\n      0x40\n      mstore\n      dup1\n      swap3\n      swap2\n      swap1\n      dup2\n      dup2\n      mstore\n      0x20\n      add\n      dup3\n      dup1\n      sload\n      tag_88\n      swap1\n      tag_75\n      jump\t// in\n    tag_88:\n      dup1\n      iszero\n      tag_89\n      jumpi\n      dup1\n      0x1f\n      lt\n      tag_90\n      jumpi\n      0x0100\n      dup1\n      dup4\n      sload\n      div\n      mul\n      dup4\n      mstore\n      swap2\n      0x20\n      add\n      swap2\n      jump(tag_89)\n    tag_90:\n      dup3\n      add\n      swap2\n      swap1\n      0x00\n      mstore\n      keccak256(0x00, 0x20)\n      swap1\n    tag_91:\n      dup2\n      sload\n      dup2\n      mstore\n      swap1\n      0x01\n      add\n      swap1\n      0x20\n      add\n      dup1\n      dup4\n      gt\n      tag_91\n      jumpi\n      dup3\n      swap1\n      sub\n      0x1f\n      and\n      dup3\n      add\n      swap2\n    tag_89:\n      pop\n      pop\n      pop\n      pop\n      pop\n      swap1\n      dup1\n      0x02\n      add\n      dup1\n      sload\n      tag_92\n      swap1\n      tag_75\n      jump\t// in\n    tag_92:\n      dup1\n      0x1f\n      add\n      0x20\n      dup1\n      swap2\n      div\n      mul\n      0x20\n      add\n      mload(0x40)\n      swap1\n      dup2\n      add\n      0x40\n      mstore\n      dup1\n      swap3\n      swap2\n      swap1\n      dup2\n      dup2\n      mstore\n      0x20\n      add\n      dup3\n      dup1\n      sload\n      tag_93\n      swap1\n      tag_75\n      jump\t// in\n    tag_93:\n      dup1\n      iszero\n      tag_94\n      jumpi\n      dup1\n      0x1f\n      lt\n      tag_95\n      jumpi\n      0x0100\n      dup1\n      dup4\n      sload\n      div\n      mul\n      dup4\n      mstore\n      swap2\n      0x20\n      add\n      swap2\n      jump(tag_94)\n    tag_95:\n      dup3\n      add\n      swap2\n      swap1\n      0x00\n      mstore\n      keccak256(0x00, 0x20)\n      swap1\n    tag_96:\n      dup2\n      sload\n      dup2\n      mstore\n      swap1\n      0x01\n      add\n      swap1\n      0x20\n      add\n      dup1\n      dup4\n      gt\n      tag_96\n      jumpi\n      dup3\n      swap1\n      sub\n      0x1f\n      and\n      dup3\n      add\n      swap2\n    tag_94:\n      pop\n      pop\n      pop\n      pop\n      pop\n      swap1\n      dup1\n      0x03\n      add\n      sload\n      swap1\n      pop\n      dup6\n      jump\t// out\n        /* \"contracts/SimpleMultSend.sol\":1554:2087  function payOutWinners(address loserAddress) payable public {... */\n    tag_55:\n        /* \"contracts/SimpleMultSend.sol\":1646:1652  dealer */\n      0x02\n      0x00\n      swap1\n      sload\n      swap1\n      0x0100\n      exp\n      swap1\n      div\n      0xffffffffffffffffffffffffffffffffffffffff\n      and\n        /* \"contracts/SimpleMultSend.sol\":1632:1652  msg.sender == dealer */\n      0xffffffffffffffffffffffffffffffffffffffff\n      and\n        /* \"contracts/SimpleMultSend.sol\":1632:1642  msg.sender */\n      caller\n        /* \"contracts/SimpleMultSend.sol\":1632:1652  msg.sender == dealer */\n      0xffffffffffffffffffffffffffffffffffffffff\n      and\n      eq\n        /* \"contracts/SimpleMultSend.sol\":1624:1697  require(msg.sender == dealer, \"Only the dealer can pay out the winners.\") */\n      tag_98\n      jumpi\n      mload(0x40)\n      0x08c379a000000000000000000000000000000000000000000000000000000000\n      dup2\n      mstore\n      0x04\n      add\n      tag_99\n      swap1\n      tag_100\n      jump\t// in\n    tag_99:\n      mload(0x40)\n      dup1\n      swap2\n      sub\n      swap1\n      revert\n    tag_98:\n        /* \"contracts/SimpleMultSend.sol\":1735:1742  1 ether */\n      0x0de0b6b3a7640000\n        /* \"contracts/SimpleMultSend.sol\":1728:1731  pot */\n      sload(0x01)\n        /* \"contracts/SimpleMultSend.sol\":1728:1743  pot * (1 ether) */\n      tag_101\n      swap2\n      swap1\n      tag_102\n      jump\t// in\n    tag_101:\n        /* \"contracts/SimpleMultSend.sol\":1715:1724  msg.value */\n      callvalue\n        /* \"contracts/SimpleMultSend.sol\":1715:1743  msg.value == pot * (1 ether) */\n      eq\n        /* \"contracts/SimpleMultSend.sol\":1707:1744  require(msg.value == pot * (1 ether)) */\n      tag_103\n      jumpi\n      0x00\n      dup1\n      revert\n    tag_103:\n        /* \"contracts/SimpleMultSend.sol\":1754:1774  uint payoutPerWinner */\n      0x00\n        /* \"contracts/SimpleMultSend.sol\":1804:1805  1 */\n      0x01\n        /* \"contracts/SimpleMultSend.sol\":1790:1801  playerCount */\n      sload(0x00)\n        /* \"contracts/SimpleMultSend.sol\":1790:1805  playerCount - 1 */\n      tag_104\n      swap2\n      swap1\n      tag_105\n      jump\t// in\n    tag_104:\n        /* \"contracts/SimpleMultSend.sol\":1777:1786  msg.value */\n      callvalue\n        /* \"contracts/SimpleMultSend.sol\":1777:1806  msg.value / (playerCount - 1) */\n      tag_106\n      swap2\n      swap1\n      tag_107\n      jump\t// in\n    tag_106:\n        /* \"contracts/SimpleMultSend.sol\":1754:1806  uint payoutPerWinner = msg.value / (playerCount - 1) */\n      swap1\n      pop\n        /* \"contracts/SimpleMultSend.sol\":1821:1827  uint i */\n      0x00\n        /* \"contracts/SimpleMultSend.sol\":1816:2077  for (uint i=0; i<playersInGame.length; i++) {... */\n    tag_108:\n        /* \"contracts/SimpleMultSend.sol\":1833:1846  playersInGame */\n      0x03\n        /* \"contracts/SimpleMultSend.sol\":1833:1853  playersInGame.length */\n      dup1\n      sload\n      swap1\n      pop\n        /* \"contracts/SimpleMultSend.sol\":1831:1832  i */\n      dup2\n        /* \"contracts/SimpleMultSend.sol\":1831:1853  i<playersInGame.length */\n      lt\n        /* \"contracts/SimpleMultSend.sol\":1816:2077  for (uint i=0; i<playersInGame.length; i++) {... */\n      iszero\n      tag_109\n      jumpi\n        /* \"contracts/SimpleMultSend.sol\":1874:1902  address currentPlayerAddress */\n      0x00\n        /* \"contracts/SimpleMultSend.sol\":1905:1918  playersInGame */\n      0x03\n        /* \"contracts/SimpleMultSend.sol\":1919:1920  i */\n      dup3\n        /* \"contracts/SimpleMultSend.sol\":1905:1921  playersInGame[i] */\n      dup2\n      sload\n      dup2\n      lt\n      tag_111\n      jumpi\n      tag_112\n      tag_113\n      jump\t// in\n    tag_112:\n    tag_111:\n      swap1\n      0x00\n      mstore\n      keccak256(0x00, 0x20)\n      swap1\n      0x04\n      mul\n      add\n        /* \"contracts/SimpleMultSend.sol\":1905:1935  playersInGame[i].playerAddress */\n      0x00\n      add\n      0x00\n      swap1\n      sload\n      swap1\n      0x0100\n      exp\n      swap1\n      div\n      0xffffffffffffffffffffffffffffffffffffffff\n      and\n        /* \"contracts/SimpleMultSend.sol\":1874:1935  address currentPlayerAddress = playersInGame[i].playerAddress */\n      swap1\n      pop\n        /* \"contracts/SimpleMultSend.sol\":1977:1989  loserAddress */\n      dup4\n        /* \"contracts/SimpleMultSend.sol\":1953:1989  currentPlayerAddress != loserAddress */\n      0xffffffffffffffffffffffffffffffffffffffff\n      and\n        /* \"contracts/SimpleMultSend.sol\":1953:1973  currentPlayerAddress */\n      dup2\n        /* \"contracts/SimpleMultSend.sol\":1953:1989  currentPlayerAddress != loserAddress */\n      0xffffffffffffffffffffffffffffffffffffffff\n      and\n      eq\n        /* \"contracts/SimpleMultSend.sol\":1949:2062  if (currentPlayerAddress != loserAddress)... */\n      tag_115\n      jumpi\n        /* \"contracts/SimpleMultSend.sol\":2015:2035  currentPlayerAddress */\n      dup1\n        /* \"contracts/SimpleMultSend.sol\":2007:2045  payable(currentPlayerAddress).transfer */\n      0xffffffffffffffffffffffffffffffffffffffff\n      and\n        /* \"contracts/SimpleMultSend.sol\":2007:2062  payable(currentPlayerAddress).transfer(payoutPerWinner) */\n      0x08fc\n        /* \"contracts/SimpleMultSend.sol\":2046:2061  payoutPerWinner */\n      dup5\n        /* \"contracts/SimpleMultSend.sol\":2007:2062  payable(currentPlayerAddress).transfer(payoutPerWinner) */\n      swap1\n      dup2\n      iszero\n      mul\n      swap1\n      mload(0x40)\n      0x00\n      mload(0x40)\n      dup1\n      dup4\n      sub\n      dup2\n      dup6\n      dup9\n      dup9\n      call\n      swap4\n      pop\n      pop\n      pop\n      pop\n      iszero\n      dup1\n      iszero\n      tag_117\n      jumpi\n      returndatasize\n      0x00\n      dup1\n      returndatacopy\n      revert(0x00, returndatasize)\n    tag_117:\n      pop\n        /* \"contracts/SimpleMultSend.sol\":1949:2062  if (currentPlayerAddress != loserAddress)... */\n    tag_115:\n        /* \"contracts/SimpleMultSend.sol\":1860:2077  {... */\n      pop\n        /* \"contracts/SimpleMultSend.sol\":1855:1858  i++ */\n      dup1\n      dup1\n      tag_118\n      swap1\n      tag_119\n      jump\t// in\n    tag_118:\n      swap2\n      pop\n      pop\n        /* \"contracts/SimpleMultSend.sol\":1816:2077  for (uint i=0; i<playersInGame.length; i++) {... */\n      jump(tag_108)\n    tag_109:\n      pop\n        /* \"contracts/SimpleMultSend.sol\":1614:2087  {... */\n      pop\n        /* \"contracts/SimpleMultSend.sol\":1554:2087  function payOutWinners(address loserAddress) payable public {... */\n      pop\n      jump\t// out\n        /* \"contracts/SimpleMultSend.sol\":532:801  function addPlayer(string memory firstName, string memory lastName) private {... */\n    tag_71:\n        /* \"contracts/SimpleMultSend.sol\":618:641  Player memory newPlayer */\n      0x00\n        /* \"contracts/SimpleMultSend.sol\":644:714  Player(msg.sender, Level.Novice, firstName, lastName, block.timestamp) */\n      mload(0x40)\n      dup1\n      0xa0\n      add\n      0x40\n      mstore\n      dup1\n        /* \"contracts/SimpleMultSend.sol\":651:661  msg.sender */\n      caller\n        /* \"contracts/SimpleMultSend.sol\":644:714  Player(msg.sender, Level.Novice, firstName, lastName, block.timestamp) */\n      0xffffffffffffffffffffffffffffffffffffffff\n      and\n      dup2\n      mstore\n      0x20\n      add\n        /* \"contracts/SimpleMultSend.sol\":663:675  Level.Novice */\n      0x00\n        /* \"contracts/SimpleMultSend.sol\":644:714  Player(msg.sender, Level.Novice, firstName, lastName, block.timestamp) */\n      0x02\n      dup2\n      gt\n      iszero\n      tag_121\n      jumpi\n      tag_122\n      tag_63\n      jump\t// in\n    tag_122:\n    tag_121:\n      dup2\n      mstore\n      0x20\n      add\n        /* \"contracts/SimpleMultSend.sol\":677:686  firstName */\n      dup5\n        /* \"contracts/SimpleMultSend.sol\":644:714  Player(msg.sender, Level.Novice, firstName, lastName, block.timestamp) */\n      dup2\n      mstore\n      0x20\n      add\n        /* \"contracts/SimpleMultSend.sol\":688:696  lastName */\n      dup4\n        /* \"contracts/SimpleMultSend.sol\":644:714  Player(msg.sender, Level.Novice, firstName, lastName, block.timestamp) */\n      dup2\n      mstore\n      0x20\n      add\n        /* \"contracts/SimpleMultSend.sol\":698:713  block.timestamp */\n      timestamp\n        /* \"contracts/SimpleMultSend.sol\":644:714  Player(msg.sender, Level.Novice, firstName, lastName, block.timestamp) */\n      dup2\n      mstore\n      pop\n        /* \"contracts/SimpleMultSend.sol\":618:714  Player memory newPlayer = Player(msg.sender, Level.Novice, firstName, lastName, block.timestamp) */\n      swap1\n      pop\n        /* \"contracts/SimpleMultSend.sol\":746:755  newPlayer */\n      dup1\n        /* \"contracts/SimpleMultSend.sol\":724:731  players */\n      0x04\n        /* \"contracts/SimpleMultSend.sol\":724:743  players[msg.sender] */\n      0x00\n        /* \"contracts/SimpleMultSend.sol\":732:742  msg.sender */\n      caller\n        /* \"contracts/SimpleMultSend.sol\":724:743  players[msg.sender] */\n      0xffffffffffffffffffffffffffffffffffffffff\n      and\n      0xffffffffffffffffffffffffffffffffffffffff\n      and\n      dup2\n      mstore\n      0x20\n      add\n      swap1\n      dup2\n      mstore\n      0x20\n      add\n      0x00\n      keccak256\n        /* \"contracts/SimpleMultSend.sol\":724:755  players[msg.sender] = newPlayer */\n      0x00\n      dup3\n      add\n      mload\n      dup2\n      0x00\n      add\n      exp(0x0100, 0x00)\n      dup2\n      sload\n      dup2\n      0xffffffffffffffffffffffffffffffffffffffff\n      mul\n      not\n      and\n      swap1\n      dup4\n      0xffffffffffffffffffffffffffffffffffffffff\n      and\n      mul\n      or\n      swap1\n      sstore\n      pop\n      0x20\n      dup3\n      add\n      mload\n      dup2\n      0x00\n      add\n      exp(0x0100, 0x14)\n      dup2\n      sload\n      dup2\n      0xff\n      mul\n      not\n      and\n      swap1\n      dup4\n      0x02\n      dup2\n      gt\n      iszero\n      tag_123\n      jumpi\n      tag_124\n      tag_63\n      jump\t// in\n    tag_124:\n    tag_123:\n      mul\n      or\n      swap1\n      sstore\n      pop\n      0x40\n      dup3\n      add\n      mload\n      dup2\n      0x01\n      add\n      swap1\n      dup1\n      mload\n      swap1\n      0x20\n      add\n      swap1\n      tag_125\n      swap3\n      swap2\n      swap1\n      tag_126\n      jump\t// in\n    tag_125:\n      pop\n      0x60\n      dup3\n      add\n      mload\n      dup2\n      0x02\n      add\n      swap1\n      dup1\n      mload\n      swap1\n      0x20\n      add\n      swap1\n      tag_127\n      swap3\n      swap2\n      swap1\n      tag_126\n      jump\t// in\n    tag_127:\n      pop\n      0x80\n      dup3\n      add\n      mload\n      dup2\n      0x03\n      add\n      sstore\n      swap1\n      pop\n      pop\n        /* \"contracts/SimpleMultSend.sol\":765:778  playersInGame */\n      0x03\n        /* \"contracts/SimpleMultSend.sol\":784:793  newPlayer */\n      dup2\n        /* \"contracts/SimpleMultSend.sol\":765:794  playersInGame.push(newPlayer) */\n      swap1\n      dup1\n      0x01\n      dup2\n      sload\n      add\n      dup1\n      dup3\n      sstore\n      dup1\n      swap2\n      pop\n      pop\n      0x01\n      swap1\n      sub\n      swap1\n      0x00\n      mstore\n      keccak256(0x00, 0x20)\n      swap1\n      0x04\n      mul\n      add\n      0x00\n      swap1\n      swap2\n      swap1\n      swap2\n      swap1\n      swap2\n      pop\n      0x00\n      dup3\n      add\n      mload\n      dup2\n      0x00\n      add\n      exp(0x0100, 0x00)\n      dup2\n      sload\n      dup2\n      0xffffffffffffffffffffffffffffffffffffffff\n      mul\n      not\n      and\n      swap1\n      dup4\n      0xffffffffffffffffffffffffffffffffffffffff\n      and\n      mul\n      or\n      swap1\n      sstore\n      pop\n      0x20\n      dup3\n      add\n      mload\n      dup2\n      0x00\n      add\n      exp(0x0100, 0x14)\n      dup2\n      sload\n      dup2\n      0xff\n      mul\n      not\n      and\n      swap1\n      dup4\n      0x02\n      dup2\n      gt\n      iszero\n      tag_129\n      jumpi\n      tag_130\n      tag_63\n      jump\t// in\n    tag_130:\n    tag_129:\n      mul\n      or\n      swap1\n      sstore\n      pop\n      0x40\n      dup3\n      add\n      mload\n      dup2\n      0x01\n      add\n      swap1\n      dup1\n      mload\n      swap1\n      0x20\n      add\n      swap1\n      tag_131\n      swap3\n      swap2\n      swap1\n      tag_126\n      jump\t// in\n    tag_131:\n      pop\n      0x60\n      dup3\n      add\n      mload\n      dup2\n      0x02\n      add\n      swap1\n      dup1\n      mload\n      swap1\n      0x20\n      add\n      swap1\n      tag_132\n      swap3\n      swap2\n      swap1\n      tag_126\n      jump\t// in\n    tag_132:\n      pop\n      0x80\n      dup3\n      add\n      mload\n      dup2\n      0x03\n      add\n      sstore\n      pop\n      pop\n        /* \"contracts/SimpleMultSend.sol\":608:801  {... */\n      pop\n        /* \"contracts/SimpleMultSend.sol\":532:801  function addPlayer(string memory firstName, string memory lastName) private {... */\n      pop\n      pop\n      jump\t// out\n    tag_126:\n      dup3\n      dup1\n      sload\n      tag_133\n      swap1\n      tag_75\n      jump\t// in\n    tag_133:\n      swap1\n      0x00\n      mstore\n      keccak256(0x00, 0x20)\n      swap1\n      0x1f\n      add\n      0x20\n      swap1\n      div\n      dup2\n      add\n      swap3\n      dup3\n      tag_135\n      jumpi\n      0x00\n      dup6\n      sstore\n      jump(tag_134)\n    tag_135:\n      dup3\n      0x1f\n      lt\n      tag_136\n      jumpi\n      dup1\n      mload\n      not(0xff)\n      and\n      dup4\n      dup1\n      add\n      or\n      dup6\n      sstore\n      jump(tag_134)\n    tag_136:\n      dup3\n      dup1\n      add\n      0x01\n      add\n      dup6\n      sstore\n      dup3\n      iszero\n      tag_134\n      jumpi\n      swap2\n      dup3\n      add\n    tag_137:\n      dup3\n      dup2\n      gt\n      iszero\n      tag_138\n      jumpi\n      dup3\n      mload\n      dup3\n      sstore\n      swap2\n      0x20\n      add\n      swap2\n      swap1\n      0x01\n      add\n      swap1\n      jump(tag_137)\n    tag_138:\n    tag_134:\n      pop\n      swap1\n      pop\n      tag_139\n      swap2\n      swap1\n      tag_140\n      jump\t// in\n    tag_139:\n      pop\n      swap1\n      jump\t// out\n    tag_140:\n    tag_141:\n      dup1\n      dup3\n      gt\n      iszero\n      tag_142\n      jumpi\n      0x00\n      dup2\n      0x00\n      swap1\n      sstore\n      pop\n      0x01\n      add\n      jump(tag_141)\n    tag_142:\n      pop\n      swap1\n      jump\t// out\n        /* \"#utility.yul\":7:419   */\n    tag_144:\n        /* \"#utility.yul\":85:90   */\n      0x00\n        /* \"#utility.yul\":110:176   */\n      tag_146\n        /* \"#utility.yul\":126:175   */\n      tag_147\n        /* \"#utility.yul\":168:174   */\n      dup5\n        /* \"#utility.yul\":126:175   */\n      tag_148\n      jump\t// in\n    tag_147:\n        /* \"#utility.yul\":110:176   */\n      tag_149\n      jump\t// in\n    tag_146:\n        /* \"#utility.yul\":101:176   */\n      swap1\n      pop\n        /* \"#utility.yul\":199:205   */\n      dup3\n        /* \"#utility.yul\":192:197   */\n      dup2\n        /* \"#utility.yul\":185:206   */\n      mstore\n        /* \"#utility.yul\":237:241   */\n      0x20\n        /* \"#utility.yul\":230:235   */\n      dup2\n        /* \"#utility.yul\":226:242   */\n      add\n        /* \"#utility.yul\":275:278   */\n      dup5\n        /* \"#utility.yul\":266:272   */\n      dup5\n        /* \"#utility.yul\":261:264   */\n      dup5\n        /* \"#utility.yul\":257:273   */\n      add\n        /* \"#utility.yul\":254:279   */\n      gt\n        /* \"#utility.yul\":251:363   */\n      iszero\n      tag_150\n      jumpi\n        /* \"#utility.yul\":282:361   */\n      tag_151\n      tag_152\n      jump\t// in\n    tag_151:\n        /* \"#utility.yul\":251:363   */\n    tag_150:\n        /* \"#utility.yul\":372:413   */\n      tag_153\n        /* \"#utility.yul\":406:412   */\n      dup5\n        /* \"#utility.yul\":401:404   */\n      dup3\n        /* \"#utility.yul\":396:399   */\n      dup6\n        /* \"#utility.yul\":372:413   */\n      tag_154\n      jump\t// in\n    tag_153:\n        /* \"#utility.yul\":91:419   */\n      pop\n        /* \"#utility.yul\":7:419   */\n      swap4\n      swap3\n      pop\n      pop\n      pop\n      jump\t// out\n        /* \"#utility.yul\":425:564   */\n    tag_155:\n        /* \"#utility.yul\":471:476   */\n      0x00\n        /* \"#utility.yul\":509:515   */\n      dup2\n        /* \"#utility.yul\":496:516   */\n      calldataload\n        /* \"#utility.yul\":487:516   */\n      swap1\n      pop\n        /* \"#utility.yul\":525:558   */\n      tag_157\n        /* \"#utility.yul\":552:557   */\n      dup2\n        /* \"#utility.yul\":525:558   */\n      tag_158\n      jump\t// in\n    tag_157:\n        /* \"#utility.yul\":425:564   */\n      swap3\n      swap2\n      pop\n      pop\n      jump\t// out\n        /* \"#utility.yul\":584:924   */\n    tag_159:\n        /* \"#utility.yul\":640:645   */\n      0x00\n        /* \"#utility.yul\":689:692   */\n      dup3\n        /* \"#utility.yul\":682:686   */\n      0x1f\n        /* \"#utility.yul\":674:680   */\n      dup4\n        /* \"#utility.yul\":670:687   */\n      add\n        /* \"#utility.yul\":666:693   */\n      slt\n        /* \"#utility.yul\":656:778   */\n      tag_161\n      jumpi\n        /* \"#utility.yul\":697:776   */\n      tag_162\n      tag_163\n      jump\t// in\n    tag_162:\n        /* \"#utility.yul\":656:778   */\n    tag_161:\n        /* \"#utility.yul\":814:820   */\n      dup2\n        /* \"#utility.yul\":801:821   */\n      calldataload\n        /* \"#utility.yul\":839:918   */\n      tag_164\n        /* \"#utility.yul\":914:917   */\n      dup5\n        /* \"#utility.yul\":906:912   */\n      dup3\n        /* \"#utility.yul\":899:903   */\n      0x20\n        /* \"#utility.yul\":891:897   */\n      dup7\n        /* \"#utility.yul\":887:904   */\n      add\n        /* \"#utility.yul\":839:918   */\n      tag_144\n      jump\t// in\n    tag_164:\n        /* \"#utility.yul\":830:918   */\n      swap2\n      pop\n        /* \"#utility.yul\":646:924   */\n      pop\n        /* \"#utility.yul\":584:924   */\n      swap3\n      swap2\n      pop\n      pop\n      jump\t// out\n        /* \"#utility.yul\":930:1069   */\n    tag_165:\n        /* \"#utility.yul\":976:981   */\n      0x00\n        /* \"#utility.yul\":1014:1020   */\n      dup2\n        /* \"#utility.yul\":1001:1021   */\n      calldataload\n        /* \"#utility.yul\":992:1021   */\n      swap1\n      pop\n        /* \"#utility.yul\":1030:1063   */\n      tag_167\n        /* \"#utility.yul\":1057:1062   */\n      dup2\n        /* \"#utility.yul\":1030:1063   */\n      tag_168\n      jump\t// in\n    tag_167:\n        /* \"#utility.yul\":930:1069   */\n      swap3\n      swap2\n      pop\n      pop\n      jump\t// out\n        /* \"#utility.yul\":1075:1404   */\n    tag_20:\n        /* \"#utility.yul\":1134:1140   */\n      0x00\n        /* \"#utility.yul\":1183:1185   */\n      0x20\n        /* \"#utility.yul\":1171:1180   */\n      dup3\n        /* \"#utility.yul\":1162:1169   */\n      dup5\n        /* \"#utility.yul\":1158:1181   */\n      sub\n        /* \"#utility.yul\":1154:1186   */\n      slt\n        /* \"#utility.yul\":1151:1270   */\n      iszero\n      tag_170\n      jumpi\n        /* \"#utility.yul\":1189:1268   */\n      tag_171\n      tag_172\n      jump\t// in\n    tag_171:\n        /* \"#utility.yul\":1151:1270   */\n    tag_170:\n        /* \"#utility.yul\":1309:1310   */\n      0x00\n        /* \"#utility.yul\":1334:1387   */\n      tag_173\n        /* \"#utility.yul\":1379:1386   */\n      dup5\n        /* \"#utility.yul\":1370:1376   */\n      dup3\n        /* \"#utility.yul\":1359:1368   */\n      dup6\n        /* \"#utility.yul\":1355:1377   */\n      add\n        /* \"#utility.yul\":1334:1387   */\n      tag_155\n      jump\t// in\n    tag_173:\n        /* \"#utility.yul\":1324:1387   */\n      swap2\n      pop\n        /* \"#utility.yul\":1280:1397   */\n      pop\n        /* \"#utility.yul\":1075:1404   */\n      swap3\n      swap2\n      pop\n      pop\n      jump\t// out\n        /* \"#utility.yul\":1410:2244   */\n    tag_39:\n        /* \"#utility.yul\":1498:1504   */\n      0x00\n        /* \"#utility.yul\":1506:1512   */\n      dup1\n        /* \"#utility.yul\":1555:1557   */\n      0x40\n        /* \"#utility.yul\":1543:1552   */\n      dup4\n        /* \"#utility.yul\":1534:1541   */\n      dup6\n        /* \"#utility.yul\":1530:1553   */\n      sub\n        /* \"#utility.yul\":1526:1558   */\n      slt\n        /* \"#utility.yul\":1523:1642   */\n      iszero\n      tag_175\n      jumpi\n        /* \"#utility.yul\":1561:1640   */\n      tag_176\n      tag_172\n      jump\t// in\n    tag_176:\n        /* \"#utility.yul\":1523:1642   */\n    tag_175:\n        /* \"#utility.yul\":1709:1710   */\n      0x00\n        /* \"#utility.yul\":1698:1707   */\n      dup4\n        /* \"#utility.yul\":1694:1711   */\n      add\n        /* \"#utility.yul\":1681:1712   */\n      calldataload\n        /* \"#utility.yul\":1739:1757   */\n      0xffffffffffffffff\n        /* \"#utility.yul\":1731:1737   */\n      dup2\n        /* \"#utility.yul\":1728:1758   */\n      gt\n        /* \"#utility.yul\":1725:1842   */\n      iszero\n      tag_177\n      jumpi\n        /* \"#utility.yul\":1761:1840   */\n      tag_178\n      tag_179\n      jump\t// in\n    tag_178:\n        /* \"#utility.yul\":1725:1842   */\n    tag_177:\n        /* \"#utility.yul\":1866:1929   */\n      tag_180\n        /* \"#utility.yul\":1921:1928   */\n      dup6\n        /* \"#utility.yul\":1912:1918   */\n      dup3\n        /* \"#utility.yul\":1901:1910   */\n      dup7\n        /* \"#utility.yul\":1897:1919   */\n      add\n        /* \"#utility.yul\":1866:1929   */\n      tag_159\n      jump\t// in\n    tag_180:\n        /* \"#utility.yul\":1856:1929   */\n      swap3\n      pop\n        /* \"#utility.yul\":1652:1939   */\n      pop\n        /* \"#utility.yul\":2006:2008   */\n      0x20\n        /* \"#utility.yul\":1995:2004   */\n      dup4\n        /* \"#utility.yul\":1991:2009   */\n      add\n        /* \"#utility.yul\":1978:2010   */\n      calldataload\n        /* \"#utility.yul\":2037:2055   */\n      0xffffffffffffffff\n        /* \"#utility.yul\":2029:2035   */\n      dup2\n        /* \"#utility.yul\":2026:2056   */\n      gt\n        /* \"#utility.yul\":2023:2140   */\n      iszero\n      tag_181\n      jumpi\n        /* \"#utility.yul\":2059:2138   */\n      tag_182\n      tag_179\n      jump\t// in\n    tag_182:\n        /* \"#utility.yul\":2023:2140   */\n    tag_181:\n        /* \"#utility.yul\":2164:2227   */\n      tag_183\n        /* \"#utility.yul\":2219:2226   */\n      dup6\n        /* \"#utility.yul\":2210:2216   */\n      dup3\n        /* \"#utility.yul\":2199:2208   */\n      dup7\n        /* \"#utility.yul\":2195:2217   */\n      add\n        /* \"#utility.yul\":2164:2227   */\n      tag_159\n      jump\t// in\n    tag_183:\n        /* \"#utility.yul\":2154:2227   */\n      swap2\n      pop\n        /* \"#utility.yul\":1949:2237   */\n      pop\n        /* \"#utility.yul\":1410:2244   */\n      swap3\n      pop\n      swap3\n      swap1\n      pop\n      jump\t// out\n        /* \"#utility.yul\":2250:2579   */\n    tag_50:\n        /* \"#utility.yul\":2309:2315   */\n      0x00\n        /* \"#utility.yul\":2358:2360   */\n      0x20\n        /* \"#utility.yul\":2346:2355   */\n      dup3\n        /* \"#utility.yul\":2337:2344   */\n      dup5\n        /* \"#utility.yul\":2333:2356   */\n      sub\n        /* \"#utility.yul\":2329:2361   */\n      slt\n        /* \"#utility.yul\":2326:2445   */\n      iszero\n      tag_185\n      jumpi\n        /* \"#utility.yul\":2364:2443   */\n      tag_186\n      tag_172\n      jump\t// in\n    tag_186:\n        /* \"#utility.yul\":2326:2445   */\n    tag_185:\n        /* \"#utility.yul\":2484:2485   */\n      0x00\n        /* \"#utility.yul\":2509:2562   */\n      tag_187\n        /* \"#utility.yul\":2554:2561   */\n      dup5\n        /* \"#utility.yul\":2545:2551   */\n      dup3\n        /* \"#utility.yul\":2534:2543   */\n      dup6\n        /* \"#utility.yul\":2530:2552   */\n      add\n        /* \"#utility.yul\":2509:2562   */\n      tag_165\n      jump\t// in\n    tag_187:\n        /* \"#utility.yul\":2499:2562   */\n      swap2\n      pop\n        /* \"#utility.yul\":2455:2572   */\n      pop\n        /* \"#utility.yul\":2250:2579   */\n      swap3\n      swap2\n      pop\n      pop\n      jump\t// out\n        /* \"#utility.yul\":2585:2703   */\n    tag_188:\n        /* \"#utility.yul\":2672:2696   */\n      tag_190\n        /* \"#utility.yul\":2690:2695   */\n      dup2\n        /* \"#utility.yul\":2672:2696   */\n      tag_191\n      jump\t// in\n    tag_190:\n        /* \"#utility.yul\":2667:2670   */\n      dup3\n        /* \"#utility.yul\":2660:2697   */\n      mstore\n        /* \"#utility.yul\":2585:2703   */\n      pop\n      pop\n      jump\t// out\n        /* \"#utility.yul\":2709:2852   */\n    tag_192:\n        /* \"#utility.yul\":2802:2845   */\n      tag_194\n        /* \"#utility.yul\":2839:2844   */\n      dup2\n        /* \"#utility.yul\":2802:2845   */\n      tag_195\n      jump\t// in\n    tag_194:\n        /* \"#utility.yul\":2797:2800   */\n      dup3\n        /* \"#utility.yul\":2790:2846   */\n      mstore\n        /* \"#utility.yul\":2709:2852   */\n      pop\n      pop\n      jump\t// out\n        /* \"#utility.yul\":2858:3222   */\n    tag_196:\n        /* \"#utility.yul\":2946:2949   */\n      0x00\n        /* \"#utility.yul\":2974:3013   */\n      tag_198\n        /* \"#utility.yul\":3007:3012   */\n      dup3\n        /* \"#utility.yul\":2974:3013   */\n      tag_199\n      jump\t// in\n    tag_198:\n        /* \"#utility.yul\":3029:3100   */\n      tag_200\n        /* \"#utility.yul\":3093:3099   */\n      dup2\n        /* \"#utility.yul\":3088:3091   */\n      dup6\n        /* \"#utility.yul\":3029:3100   */\n      tag_201\n      jump\t// in\n    tag_200:\n        /* \"#utility.yul\":3022:3100   */\n      swap4\n      pop\n        /* \"#utility.yul\":3109:3161   */\n      tag_202\n        /* \"#utility.yul\":3154:3160   */\n      dup2\n        /* \"#utility.yul\":3149:3152   */\n      dup6\n        /* \"#utility.yul\":3142:3146   */\n      0x20\n        /* \"#utility.yul\":3135:3140   */\n      dup7\n        /* \"#utility.yul\":3131:3147   */\n      add\n        /* \"#utility.yul\":3109:3161   */\n      tag_203\n      jump\t// in\n    tag_202:\n        /* \"#utility.yul\":3186:3215   */\n      tag_204\n        /* \"#utility.yul\":3208:3214   */\n      dup2\n        /* \"#utility.yul\":3186:3215   */\n      tag_205\n      jump\t// in\n    tag_204:\n        /* \"#utility.yul\":3181:3184   */\n      dup5\n        /* \"#utility.yul\":3177:3216   */\n      add\n        /* \"#utility.yul\":3170:3216   */\n      swap2\n      pop\n        /* \"#utility.yul\":2950:3222   */\n      pop\n        /* \"#utility.yul\":2858:3222   */\n      swap3\n      swap2\n      pop\n      pop\n      jump\t// out\n        /* \"#utility.yul\":3228:3594   */\n    tag_206:\n        /* \"#utility.yul\":3370:3373   */\n      0x00\n        /* \"#utility.yul\":3391:3458   */\n      tag_208\n        /* \"#utility.yul\":3455:3457   */\n      0x28\n        /* \"#utility.yul\":3450:3453   */\n      dup4\n        /* \"#utility.yul\":3391:3458   */\n      tag_201\n      jump\t// in\n    tag_208:\n        /* \"#utility.yul\":3384:3458   */\n      swap2\n      pop\n        /* \"#utility.yul\":3467:3560   */\n      tag_209\n        /* \"#utility.yul\":3556:3559   */\n      dup3\n        /* \"#utility.yul\":3467:3560   */\n      tag_210\n      jump\t// in\n    tag_209:\n        /* \"#utility.yul\":3585:3587   */\n      0x40\n        /* \"#utility.yul\":3580:3583   */\n      dup3\n        /* \"#utility.yul\":3576:3588   */\n      add\n        /* \"#utility.yul\":3569:3588   */\n      swap1\n      pop\n        /* \"#utility.yul\":3228:3594   */\n      swap2\n      swap1\n      pop\n      jump\t// out\n        /* \"#utility.yul\":3600:3966   */\n    tag_211:\n        /* \"#utility.yul\":3742:3745   */\n      0x00\n        /* \"#utility.yul\":3763:3830   */\n      tag_213\n        /* \"#utility.yul\":3827:3829   */\n      0x1b\n        /* \"#utility.yul\":3822:3825   */\n      dup4\n        /* \"#utility.yul\":3763:3830   */\n      tag_201\n      jump\t// in\n    tag_213:\n        /* \"#utility.yul\":3756:3830   */\n      swap2\n      pop\n        /* \"#utility.yul\":3839:3932   */\n      tag_214\n        /* \"#utility.yul\":3928:3931   */\n      dup3\n        /* \"#utility.yul\":3839:3932   */\n      tag_215\n      jump\t// in\n    tag_214:\n        /* \"#utility.yul\":3957:3959   */\n      0x20\n        /* \"#utility.yul\":3952:3955   */\n      dup3\n        /* \"#utility.yul\":3948:3960   */\n      add\n        /* \"#utility.yul\":3941:3960   */\n      swap1\n      pop\n        /* \"#utility.yul\":3600:3966   */\n      swap2\n      swap1\n      pop\n      jump\t// out\n        /* \"#utility.yul\":3972:4090   */\n    tag_216:\n        /* \"#utility.yul\":4059:4083   */\n      tag_218\n        /* \"#utility.yul\":4077:4082   */\n      dup2\n        /* \"#utility.yul\":4059:4083   */\n      tag_219\n      jump\t// in\n    tag_218:\n        /* \"#utility.yul\":4054:4057   */\n      dup3\n        /* \"#utility.yul\":4047:4084   */\n      mstore\n        /* \"#utility.yul\":3972:4090   */\n      pop\n      pop\n      jump\t// out\n        /* \"#utility.yul\":4096:4318   */\n    tag_36:\n        /* \"#utility.yul\":4189:4193   */\n      0x00\n        /* \"#utility.yul\":4227:4229   */\n      0x20\n        /* \"#utility.yul\":4216:4225   */\n      dup3\n        /* \"#utility.yul\":4212:4230   */\n      add\n        /* \"#utility.yul\":4204:4230   */\n      swap1\n      pop\n        /* \"#utility.yul\":4240:4311   */\n      tag_221\n        /* \"#utility.yul\":4308:4309   */\n      0x00\n        /* \"#utility.yul\":4297:4306   */\n      dup4\n        /* \"#utility.yul\":4293:4310   */\n      add\n        /* \"#utility.yul\":4284:4290   */\n      dup5\n        /* \"#utility.yul\":4240:4311   */\n      tag_188\n      jump\t// in\n    tag_221:\n        /* \"#utility.yul\":4096:4318   */\n      swap3\n      swap2\n      pop\n      pop\n      jump\t// out\n        /* \"#utility.yul\":4324:5182   */\n    tag_46:\n        /* \"#utility.yul\":4575:4579   */\n      0x00\n        /* \"#utility.yul\":4613:4616   */\n      0xa0\n        /* \"#utility.yul\":4602:4611   */\n      dup3\n        /* \"#utility.yul\":4598:4617   */\n      add\n        /* \"#utility.yul\":4590:4617   */\n      swap1\n      pop\n        /* \"#utility.yul\":4627:4698   */\n      tag_223\n        /* \"#utility.yul\":4695:4696   */\n      0x00\n        /* \"#utility.yul\":4684:4693   */\n      dup4\n        /* \"#utility.yul\":4680:4697   */\n      add\n        /* \"#utility.yul\":4671:4677   */\n      dup9\n        /* \"#utility.yul\":4627:4698   */\n      tag_188\n      jump\t// in\n    tag_223:\n        /* \"#utility.yul\":4708:4786   */\n      tag_224\n        /* \"#utility.yul\":4782:4784   */\n      0x20\n        /* \"#utility.yul\":4771:4780   */\n      dup4\n        /* \"#utility.yul\":4767:4785   */\n      add\n        /* \"#utility.yul\":4758:4764   */\n      dup8\n        /* \"#utility.yul\":4708:4786   */\n      tag_192\n      jump\t// in\n    tag_224:\n        /* \"#utility.yul\":4833:4842   */\n      dup2\n        /* \"#utility.yul\":4827:4831   */\n      dup2\n        /* \"#utility.yul\":4823:4843   */\n      sub\n        /* \"#utility.yul\":4818:4820   */\n      0x40\n        /* \"#utility.yul\":4807:4816   */\n      dup4\n        /* \"#utility.yul\":4803:4821   */\n      add\n        /* \"#utility.yul\":4796:4844   */\n      mstore\n        /* \"#utility.yul\":4861:4939   */\n      tag_225\n        /* \"#utility.yul\":4934:4938   */\n      dup2\n        /* \"#utility.yul\":4925:4931   */\n      dup7\n        /* \"#utility.yul\":4861:4939   */\n      tag_196\n      jump\t// in\n    tag_225:\n        /* \"#utility.yul\":4853:4939   */\n      swap1\n      pop\n        /* \"#utility.yul\":4986:4995   */\n      dup2\n        /* \"#utility.yul\":4980:4984   */\n      dup2\n        /* \"#utility.yul\":4976:4996   */\n      sub\n        /* \"#utility.yul\":4971:4973   */\n      0x60\n        /* \"#utility.yul\":4960:4969   */\n      dup4\n        /* \"#utility.yul\":4956:4974   */\n      add\n        /* \"#utility.yul\":4949:4997   */\n      mstore\n        /* \"#utility.yul\":5014:5092   */\n      tag_226\n        /* \"#utility.yul\":5087:5091   */\n      dup2\n        /* \"#utility.yul\":5078:5084   */\n      dup6\n        /* \"#utility.yul\":5014:5092   */\n      tag_196\n      jump\t// in\n    tag_226:\n        /* \"#utility.yul\":5006:5092   */\n      swap1\n      pop\n        /* \"#utility.yul\":5102:5175   */\n      tag_227\n        /* \"#utility.yul\":5170:5173   */\n      0x80\n        /* \"#utility.yul\":5159:5168   */\n      dup4\n        /* \"#utility.yul\":5155:5174   */\n      add\n        /* \"#utility.yul\":5146:5152   */\n      dup5\n        /* \"#utility.yul\":5102:5175   */\n      tag_216\n      jump\t// in\n    tag_227:\n        /* \"#utility.yul\":4324:5182   */\n      swap7\n      swap6\n      pop\n      pop\n      pop\n      pop\n      pop\n      pop\n      jump\t// out\n        /* \"#utility.yul\":5188:5422   */\n    tag_23:\n        /* \"#utility.yul\":5287:5291   */\n      0x00\n        /* \"#utility.yul\":5325:5327   */\n      0x20\n        /* \"#utility.yul\":5314:5323   */\n      dup3\n        /* \"#utility.yul\":5310:5328   */\n      add\n        /* \"#utility.yul\":5302:5328   */\n      swap1\n      pop\n        /* \"#utility.yul\":5338:5415   */\n      tag_229\n        /* \"#utility.yul\":5412:5413   */\n      0x00\n        /* \"#utility.yul\":5401:5410   */\n      dup4\n        /* \"#utility.yul\":5397:5414   */\n      add\n        /* \"#utility.yul\":5388:5394   */\n      dup5\n        /* \"#utility.yul\":5338:5415   */\n      tag_192\n      jump\t// in\n    tag_229:\n        /* \"#utility.yul\":5188:5422   */\n      swap3\n      swap2\n      pop\n      pop\n      jump\t// out\n        /* \"#utility.yul\":5428:5847   */\n    tag_100:\n        /* \"#utility.yul\":5594:5598   */\n      0x00\n        /* \"#utility.yul\":5632:5634   */\n      0x20\n        /* \"#utility.yul\":5621:5630   */\n      dup3\n        /* \"#utility.yul\":5617:5635   */\n      add\n        /* \"#utility.yul\":5609:5635   */\n      swap1\n      pop\n        /* \"#utility.yul\":5681:5690   */\n      dup2\n        /* \"#utility.yul\":5675:5679   */\n      dup2\n        /* \"#utility.yul\":5671:5691   */\n      sub\n        /* \"#utility.yul\":5667:5668   */\n      0x00\n        /* \"#utility.yul\":5656:5665   */\n      dup4\n        /* \"#utility.yul\":5652:5669   */\n      add\n        /* \"#utility.yul\":5645:5692   */\n      mstore\n        /* \"#utility.yul\":5709:5840   */\n      tag_231\n        /* \"#utility.yul\":5835:5839   */\n      dup2\n        /* \"#utility.yul\":5709:5840   */\n      tag_206\n      jump\t// in\n    tag_231:\n        /* \"#utility.yul\":5701:5840   */\n      swap1\n      pop\n        /* \"#utility.yul\":5428:5847   */\n      swap2\n      swap1\n      pop\n      jump\t// out\n        /* \"#utility.yul\":5853:6272   */\n    tag_67:\n        /* \"#utility.yul\":6019:6023   */\n      0x00\n        /* \"#utility.yul\":6057:6059   */\n      0x20\n        /* \"#utility.yul\":6046:6055   */\n      dup3\n        /* \"#utility.yul\":6042:6060   */\n      add\n        /* \"#utility.yul\":6034:6060   */\n      swap1\n      pop\n        /* \"#utility.yul\":6106:6115   */\n      dup2\n        /* \"#utility.yul\":6100:6104   */\n      dup2\n        /* \"#utility.yul\":6096:6116   */\n      sub\n        /* \"#utility.yul\":6092:6093   */\n      0x00\n        /* \"#utility.yul\":6081:6090   */\n      dup4\n        /* \"#utility.yul\":6077:6094   */\n      add\n        /* \"#utility.yul\":6070:6117   */\n      mstore\n        /* \"#utility.yul\":6134:6265   */\n      tag_233\n        /* \"#utility.yul\":6260:6264   */\n      dup2\n        /* \"#utility.yul\":6134:6265   */\n      tag_211\n      jump\t// in\n    tag_233:\n        /* \"#utility.yul\":6126:6265   */\n      swap1\n      pop\n        /* \"#utility.yul\":5853:6272   */\n      swap2\n      swap1\n      pop\n      jump\t// out\n        /* \"#utility.yul\":6278:6500   */\n    tag_16:\n        /* \"#utility.yul\":6371:6375   */\n      0x00\n        /* \"#utility.yul\":6409:6411   */\n      0x20\n        /* \"#utility.yul\":6398:6407   */\n      dup3\n        /* \"#utility.yul\":6394:6412   */\n      add\n        /* \"#utility.yul\":6386:6412   */\n      swap1\n      pop\n        /* \"#utility.yul\":6422:6493   */\n      tag_235\n        /* \"#utility.yul\":6490:6491   */\n      0x00\n        /* \"#utility.yul\":6479:6488   */\n      dup4\n        /* \"#utility.yul\":6475:6492   */\n      add\n        /* \"#utility.yul\":6466:6472   */\n      dup5\n        /* \"#utility.yul\":6422:6493   */\n      tag_216\n      jump\t// in\n    tag_235:\n        /* \"#utility.yul\":6278:6500   */\n      swap3\n      swap2\n      pop\n      pop\n      jump\t// out\n        /* \"#utility.yul\":6506:6635   */\n    tag_149:\n        /* \"#utility.yul\":6540:6546   */\n      0x00\n        /* \"#utility.yul\":6567:6587   */\n      tag_237\n      tag_238\n      jump\t// in\n    tag_237:\n        /* \"#utility.yul\":6557:6587   */\n      swap1\n      pop\n        /* \"#utility.yul\":6596:6629   */\n      tag_239\n        /* \"#utility.yul\":6624:6628   */\n      dup3\n        /* \"#utility.yul\":6616:6622   */\n      dup3\n        /* \"#utility.yul\":6596:6629   */\n      tag_240\n      jump\t// in\n    tag_239:\n        /* \"#utility.yul\":6506:6635   */\n      swap2\n      swap1\n      pop\n      jump\t// out\n        /* \"#utility.yul\":6641:6716   */\n    tag_238:\n        /* \"#utility.yul\":6674:6680   */\n      0x00\n        /* \"#utility.yul\":6707:6709   */\n      0x40\n        /* \"#utility.yul\":6701:6710   */\n      mload\n        /* \"#utility.yul\":6691:6710   */\n      swap1\n      pop\n        /* \"#utility.yul\":6641:6716   */\n      swap1\n      jump\t// out\n        /* \"#utility.yul\":6722:7030   */\n    tag_148:\n        /* \"#utility.yul\":6784:6788   */\n      0x00\n        /* \"#utility.yul\":6874:6892   */\n      0xffffffffffffffff\n        /* \"#utility.yul\":6866:6872   */\n      dup3\n        /* \"#utility.yul\":6863:6893   */\n      gt\n        /* \"#utility.yul\":6860:6916   */\n      iszero\n      tag_243\n      jumpi\n        /* \"#utility.yul\":6896:6914   */\n      tag_244\n      tag_245\n      jump\t// in\n    tag_244:\n        /* \"#utility.yul\":6860:6916   */\n    tag_243:\n        /* \"#utility.yul\":6934:6963   */\n      tag_246\n        /* \"#utility.yul\":6956:6962   */\n      dup3\n        /* \"#utility.yul\":6934:6963   */\n      tag_205\n      jump\t// in\n    tag_246:\n        /* \"#utility.yul\":6926:6963   */\n      swap1\n      pop\n        /* \"#utility.yul\":7018:7022   */\n      0x20\n        /* \"#utility.yul\":7012:7016   */\n      dup2\n        /* \"#utility.yul\":7008:7023   */\n      add\n        /* \"#utility.yul\":7000:7023   */\n      swap1\n      pop\n        /* \"#utility.yul\":6722:7030   */\n      swap2\n      swap1\n      pop\n      jump\t// out\n        /* \"#utility.yul\":7036:7135   */\n    tag_199:\n        /* \"#utility.yul\":7088:7094   */\n      0x00\n        /* \"#utility.yul\":7122:7127   */\n      dup2\n        /* \"#utility.yul\":7116:7128   */\n      mload\n        /* \"#utility.yul\":7106:7128   */\n      swap1\n      pop\n        /* \"#utility.yul\":7036:7135   */\n      swap2\n      swap1\n      pop\n      jump\t// out\n        /* \"#utility.yul\":7141:7310   */\n    tag_201:\n        /* \"#utility.yul\":7225:7236   */\n      0x00\n        /* \"#utility.yul\":7259:7265   */\n      dup3\n        /* \"#utility.yul\":7254:7257   */\n      dup3\n        /* \"#utility.yul\":7247:7266   */\n      mstore\n        /* \"#utility.yul\":7299:7303   */\n      0x20\n        /* \"#utility.yul\":7294:7297   */\n      dup3\n        /* \"#utility.yul\":7290:7304   */\n      add\n        /* \"#utility.yul\":7275:7304   */\n      swap1\n      pop\n        /* \"#utility.yul\":7141:7310   */\n      swap3\n      swap2\n      pop\n      pop\n      jump\t// out\n        /* \"#utility.yul\":7316:7621   */\n    tag_59:\n        /* \"#utility.yul\":7356:7359   */\n      0x00\n        /* \"#utility.yul\":7375:7395   */\n      tag_250\n        /* \"#utility.yul\":7393:7394   */\n      dup3\n        /* \"#utility.yul\":7375:7395   */\n      tag_219\n      jump\t// in\n    tag_250:\n        /* \"#utility.yul\":7370:7395   */\n      swap2\n      pop\n        /* \"#utility.yul\":7409:7429   */\n      tag_251\n        /* \"#utility.yul\":7427:7428   */\n      dup4\n        /* \"#utility.yul\":7409:7429   */\n      tag_219\n      jump\t// in\n    tag_251:\n        /* \"#utility.yul\":7404:7429   */\n      swap3\n      pop\n        /* \"#utility.yul\":7563:7564   */\n      dup3\n        /* \"#utility.yul\":7495:7561   */\n      0xffffffffffffffffffffffffffffffffffffffffffffffffffffffffffffffff\n        /* \"#utility.yul\":7491:7565   */\n      sub\n        /* \"#utility.yul\":7488:7489   */\n      dup3\n        /* \"#utility.yul\":7485:7566   */\n      gt\n        /* \"#utility.yul\":7482:7589   */\n      iszero\n      tag_252\n      jumpi\n        /* \"#utility.yul\":7569:7587   */\n      tag_253\n      tag_254\n      jump\t// in\n    tag_253:\n        /* \"#utility.yul\":7482:7589   */\n    tag_252:\n        /* \"#utility.yul\":7613:7614   */\n      dup3\n        /* \"#utility.yul\":7610:7611   */\n      dup3\n        /* \"#utility.yul\":7606:7615   */\n      add\n        /* \"#utility.yul\":7599:7615   */\n      swap1\n      pop\n        /* \"#utility.yul\":7316:7621   */\n      swap3\n      swap2\n      pop\n      pop\n      jump\t// out\n        /* \"#utility.yul\":7627:7812   */\n    tag_107:\n        /* \"#utility.yul\":7667:7668   */\n      0x00\n        /* \"#utility.yul\":7684:7704   */\n      tag_256\n        /* \"#utility.yul\":7702:7703   */\n      dup3\n        /* \"#utility.yul\":7684:7704   */\n      tag_219\n      jump\t// in\n    tag_256:\n        /* \"#utility.yul\":7679:7704   */\n      swap2\n      pop\n        /* \"#utility.yul\":7718:7738   */\n      tag_257\n        /* \"#utility.yul\":7736:7737   */\n      dup4\n        /* \"#utility.yul\":7718:7738   */\n      tag_219\n      jump\t// in\n    tag_257:\n        /* \"#utility.yul\":7713:7738   */\n      swap3\n      pop\n        /* \"#utility.yul\":7757:7758   */\n      dup3\n        /* \"#utility.yul\":7747:7782   */\n      tag_258\n      jumpi\n        /* \"#utility.yul\":7762:7780   */\n      tag_259\n      tag_260\n      jump\t// in\n    tag_259:\n        /* \"#utility.yul\":7747:7782   */\n    tag_258:\n        /* \"#utility.yul\":7804:7805   */\n      dup3\n        /* \"#utility.yul\":7801:7802   */\n      dup3\n        /* \"#utility.yul\":7797:7806   */\n      div\n        /* \"#utility.yul\":7792:7806   */\n      swap1\n      pop\n        /* \"#utility.yul\":7627:7812   */\n      swap3\n      swap2\n      pop\n      pop\n      jump\t// out\n        /* \"#utility.yul\":7818:8166   */\n    tag_102:\n        /* \"#utility.yul\":7858:7865   */\n      0x00\n        /* \"#utility.yul\":7881:7901   */\n      tag_262\n        /* \"#utility.yul\":7899:7900   */\n      dup3\n        /* \"#utility.yul\":7881:7901   */\n      tag_219\n      jump\t// in\n    tag_262:\n        /* \"#utility.yul\":7876:7901   */\n      swap2\n      pop\n        /* \"#utility.yul\":7915:7935   */\n      tag_263\n        /* \"#utility.yul\":7933:7934   */\n      dup4\n        /* \"#utility.yul\":7915:7935   */\n      tag_219\n      jump\t// in\n    tag_263:\n        /* \"#utility.yul\":7910:7935   */\n      swap3\n      pop\n        /* \"#utility.yul\":8103:8104   */\n      dup2\n        /* \"#utility.yul\":8035:8101   */\n      0xffffffffffffffffffffffffffffffffffffffffffffffffffffffffffffffff\n        /* \"#utility.yul\":8031:8105   */\n      div\n        /* \"#utility.yul\":8028:8029   */\n      dup4\n        /* \"#utility.yul\":8025:8106   */\n      gt\n        /* \"#utility.yul\":8020:8021   */\n      dup3\n        /* \"#utility.yul\":8013:8022   */\n      iszero\n        /* \"#utility.yul\":8006:8023   */\n      iszero\n        /* \"#utility.yul\":8002:8107   */\n      and\n        /* \"#utility.yul\":7999:8130   */\n      iszero\n      tag_264\n      jumpi\n        /* \"#utility.yul\":8110:8128   */\n      tag_265\n      tag_254\n      jump\t// in\n    tag_265:\n        /* \"#utility.yul\":7999:8130   */\n    tag_264:\n        /* \"#utility.yul\":8158:8159   */\n      dup3\n        /* \"#utility.yul\":8155:8156   */\n      dup3\n        /* \"#utility.yul\":8151:8160   */\n      mul\n        /* \"#utility.yul\":8140:8160   */\n      swap1\n      pop\n        /* \"#utility.yul\":7818:8166   */\n      swap3\n      swap2\n      pop\n      pop\n      jump\t// out\n        /* \"#utility.yul\":8172:8363   */\n    tag_105:\n        /* \"#utility.yul\":8212:8216   */\n      0x00\n        /* \"#utility.yul\":8232:8252   */\n      tag_267\n        /* \"#utility.yul\":8250:8251   */\n      dup3\n        /* \"#utility.yul\":8232:8252   */\n      tag_219\n      jump\t// in\n    tag_267:\n        /* \"#utility.yul\":8227:8252   */\n      swap2\n      pop\n        /* \"#utility.yul\":8266:8286   */\n      tag_268\n        /* \"#utility.yul\":8284:8285   */\n      dup4\n        /* \"#utility.yul\":8266:8286   */\n      tag_219\n      jump\t// in\n    tag_268:\n        /* \"#utility.yul\":8261:8286   */\n      swap3\n      pop\n        /* \"#utility.yul\":8305:8306   */\n      dup3\n        /* \"#utility.yul\":8302:8303   */\n      dup3\n        /* \"#utility.yul\":8299:8307   */\n      lt\n        /* \"#utility.yul\":8296:8330   */\n      iszero\n      tag_269\n      jumpi\n        /* \"#utility.yul\":8310:8328   */\n      tag_270\n      tag_254\n      jump\t// in\n    tag_270:\n        /* \"#utility.yul\":8296:8330   */\n    tag_269:\n        /* \"#utility.yul\":8355:8356   */\n      dup3\n        /* \"#utility.yul\":8352:8353   */\n      dup3\n        /* \"#utility.yul\":8348:8357   */\n      sub\n        /* \"#utility.yul\":8340:8357   */\n      swap1\n      pop\n        /* \"#utility.yul\":8172:8363   */\n      swap3\n      swap2\n      pop\n      pop\n      jump\t// out\n        /* \"#utility.yul\":8369:8465   */\n    tag_191:\n        /* \"#utility.yul\":8406:8413   */\n      0x00\n        /* \"#utility.yul\":8435:8459   */\n      tag_272\n        /* \"#utility.yul\":8453:8458   */\n      dup3\n        /* \"#utility.yul\":8435:8459   */\n      tag_273\n      jump\t// in\n    tag_272:\n        /* \"#utility.yul\":8424:8459   */\n      swap1\n      pop\n        /* \"#utility.yul\":8369:8465   */\n      swap2\n      swap1\n      pop\n      jump\t// out\n        /* \"#utility.yul\":8471:8598   */\n    tag_274:\n        /* \"#utility.yul\":8516:8523   */\n      0x00\n        /* \"#utility.yul\":8545:8550   */\n      dup2\n        /* \"#utility.yul\":8534:8550   */\n      swap1\n      pop\n        /* \"#utility.yul\":8551:8592   */\n      tag_276\n        /* \"#utility.yul\":8586:8591   */\n      dup3\n        /* \"#utility.yul\":8551:8592   */\n      tag_277\n      jump\t// in\n    tag_276:\n        /* \"#utility.yul\":8471:8598   */\n      swap2\n      swap1\n      pop\n      jump\t// out\n        /* \"#utility.yul\":8604:8730   */\n    tag_273:\n        /* \"#utility.yul\":8641:8648   */\n      0x00\n        /* \"#utility.yul\":8681:8723   */\n      0xffffffffffffffffffffffffffffffffffffffff\n        /* \"#utility.yul\":8674:8679   */\n      dup3\n        /* \"#utility.yul\":8670:8724   */\n      and\n        /* \"#utility.yul\":8659:8724   */\n      swap1\n      pop\n        /* \"#utility.yul\":8604:8730   */\n      swap2\n      swap1\n      pop\n      jump\t// out\n        /* \"#utility.yul\":8736:8813   */\n    tag_219:\n        /* \"#utility.yul\":8773:8780   */\n      0x00\n        /* \"#utility.yul\":8802:8807   */\n      dup2\n        /* \"#utility.yul\":8791:8807   */\n      swap1\n      pop\n        /* \"#utility.yul\":8736:8813   */\n      swap2\n      swap1\n      pop\n      jump\t// out\n        /* \"#utility.yul\":8819:8946   */\n    tag_195:\n        /* \"#utility.yul\":8875:8884   */\n      0x00\n        /* \"#utility.yul\":8908:8940   */\n      tag_281\n        /* \"#utility.yul\":8934:8939   */\n      dup3\n        /* \"#utility.yul\":8908:8940   */\n      tag_274\n      jump\t// in\n    tag_281:\n        /* \"#utility.yul\":8895:8940   */\n      swap1\n      pop\n        /* \"#utility.yul\":8819:8946   */\n      swap2\n      swap1\n      pop\n      jump\t// out\n        /* \"#utility.yul\":8952:9106   */\n    tag_154:\n        /* \"#utility.yul\":9036:9042   */\n      dup3\n        /* \"#utility.yul\":9031:9034   */\n      dup2\n        /* \"#utility.yul\":9026:9029   */\n      dup4\n        /* \"#utility.yul\":9013:9043   */\n      calldatacopy\n        /* \"#utility.yul\":9098:9099   */\n      0x00\n        /* \"#utility.yul\":9089:9095   */\n      dup4\n        /* \"#utility.yul\":9084:9087   */\n      dup4\n        /* \"#utility.yul\":9080:9096   */\n      add\n        /* \"#utility.yul\":9073:9100   */\n      mstore\n        /* \"#utility.yul\":8952:9106   */\n      pop\n      pop\n      pop\n      jump\t// out\n        /* \"#utility.yul\":9112:9419   */\n    tag_203:\n        /* \"#utility.yul\":9180:9181   */\n      0x00\n        /* \"#utility.yul\":9190:9303   */\n    tag_284:\n        /* \"#utility.yul\":9204:9210   */\n      dup4\n        /* \"#utility.yul\":9201:9202   */\n      dup2\n        /* \"#utility.yul\":9198:9211   */\n      lt\n        /* \"#utility.yul\":9190:9303   */\n      iszero\n      tag_286\n      jumpi\n        /* \"#utility.yul\":9289:9290   */\n      dup1\n        /* \"#utility.yul\":9284:9287   */\n      dup3\n        /* \"#utility.yul\":9280:9291   */\n      add\n        /* \"#utility.yul\":9274:9292   */\n      mload\n        /* \"#utility.yul\":9270:9271   */\n      dup2\n        /* \"#utility.yul\":9265:9268   */\n      dup5\n        /* \"#utility.yul\":9261:9272   */\n      add\n        /* \"#utility.yul\":9254:9293   */\n      mstore\n        /* \"#utility.yul\":9226:9228   */\n      0x20\n        /* \"#utility.yul\":9223:9224   */\n      dup2\n        /* \"#utility.yul\":9219:9229   */\n      add\n        /* \"#utility.yul\":9214:9229   */\n      swap1\n      pop\n        /* \"#utility.yul\":9190:9303   */\n      jump(tag_284)\n    tag_286:\n        /* \"#utility.yul\":9321:9327   */\n      dup4\n        /* \"#utility.yul\":9318:9319   */\n      dup2\n        /* \"#utility.yul\":9315:9328   */\n      gt\n        /* \"#utility.yul\":9312:9413   */\n      iszero\n      tag_287\n      jumpi\n        /* \"#utility.yul\":9401:9402   */\n      0x00\n        /* \"#utility.yul\":9392:9398   */\n      dup5\n        /* \"#utility.yul\":9387:9390   */\n      dup5\n        /* \"#utility.yul\":9383:9399   */\n      add\n        /* \"#utility.yul\":9376:9403   */\n      mstore\n        /* \"#utility.yul\":9312:9413   */\n    tag_287:\n        /* \"#utility.yul\":9161:9419   */\n      pop\n        /* \"#utility.yul\":9112:9419   */\n      pop\n      pop\n      pop\n      jump\t// out\n        /* \"#utility.yul\":9425:9745   */\n    tag_75:\n        /* \"#utility.yul\":9469:9475   */\n      0x00\n        /* \"#utility.yul\":9506:9507   */\n      0x02\n        /* \"#utility.yul\":9500:9504   */\n      dup3\n        /* \"#utility.yul\":9496:9508   */\n      div\n        /* \"#utility.yul\":9486:9508   */\n      swap1\n      pop\n        /* \"#utility.yul\":9553:9554   */\n      0x01\n        /* \"#utility.yul\":9547:9551   */\n      dup3\n        /* \"#utility.yul\":9543:9555   */\n      and\n        /* \"#utility.yul\":9574:9592   */\n      dup1\n        /* \"#utility.yul\":9564:9645   */\n      tag_289\n      jumpi\n        /* \"#utility.yul\":9630:9634   */\n      0x7f\n        /* \"#utility.yul\":9622:9628   */\n      dup3\n        /* \"#utility.yul\":9618:9635   */\n      and\n        /* \"#utility.yul\":9608:9635   */\n      swap2\n      pop\n        /* \"#utility.yul\":9564:9645   */\n    tag_289:\n        /* \"#utility.yul\":9692:9694   */\n      0x20\n        /* \"#utility.yul\":9684:9690   */\n      dup3\n        /* \"#utility.yul\":9681:9695   */\n      lt\n        /* \"#utility.yul\":9661:9679   */\n      dup2\n        /* \"#utility.yul\":9658:9696   */\n      eq\n        /* \"#utility.yul\":9655:9739   */\n      iszero\n      tag_290\n      jumpi\n        /* \"#utility.yul\":9711:9729   */\n      tag_291\n      tag_292\n      jump\t// in\n    tag_291:\n        /* \"#utility.yul\":9655:9739   */\n    tag_290:\n        /* \"#utility.yul\":9476:9745   */\n      pop\n        /* \"#utility.yul\":9425:9745   */\n      swap2\n      swap1\n      pop\n      jump\t// out\n        /* \"#utility.yul\":9751:10032   */\n    tag_240:\n        /* \"#utility.yul\":9834:9861   */\n      tag_294\n        /* \"#utility.yul\":9856:9860   */\n      dup3\n        /* \"#utility.yul\":9834:9861   */\n      tag_205\n      jump\t// in\n    tag_294:\n        /* \"#utility.yul\":9826:9832   */\n      dup2\n        /* \"#utility.yul\":9822:9862   */\n      add\n        /* \"#utility.yul\":9964:9970   */\n      dup2\n        /* \"#utility.yul\":9952:9962   */\n      dup2\n        /* \"#utility.yul\":9949:9971   */\n      lt\n        /* \"#utility.yul\":9928:9946   */\n      0xffffffffffffffff\n        /* \"#utility.yul\":9916:9926   */\n      dup3\n        /* \"#utility.yul\":9913:9947   */\n      gt\n        /* \"#utility.yul\":9910:9972   */\n      or\n        /* \"#utility.yul\":9907:9995   */\n      iszero\n      tag_295\n      jumpi\n        /* \"#utility.yul\":9975:9993   */\n      tag_296\n      tag_245\n      jump\t// in\n    tag_296:\n        /* \"#utility.yul\":9907:9995   */\n    tag_295:\n        /* \"#utility.yul\":10015:10025   */\n      dup1\n        /* \"#utility.yul\":10011:10013   */\n      0x40\n        /* \"#utility.yul\":10004:10026   */\n      mstore\n        /* \"#utility.yul\":9794:10032   */\n      pop\n        /* \"#utility.yul\":9751:10032   */\n      pop\n      pop\n      jump\t// out\n        /* \"#utility.yul\":10038:10271   */\n    tag_119:\n        /* \"#utility.yul\":10077:10080   */\n      0x00\n        /* \"#utility.yul\":10100:10124   */\n      tag_298\n        /* \"#utility.yul\":10118:10123   */\n      dup3\n        /* \"#utility.yul\":10100:10124   */\n      tag_219\n      jump\t// in\n    tag_298:\n        /* \"#utility.yul\":10091:10124   */\n      swap2\n      pop\n        /* \"#utility.yul\":10146:10212   */\n      0xffffffffffffffffffffffffffffffffffffffffffffffffffffffffffffffff\n        /* \"#utility.yul\":10139:10144   */\n      dup3\n        /* \"#utility.yul\":10136:10213   */\n      eq\n        /* \"#utility.yul\":10133:10236   */\n      iszero\n      tag_299\n      jumpi\n        /* \"#utility.yul\":10216:10234   */\n      tag_300\n      tag_254\n      jump\t// in\n    tag_300:\n        /* \"#utility.yul\":10133:10236   */\n    tag_299:\n        /* \"#utility.yul\":10263:10264   */\n      0x01\n        /* \"#utility.yul\":10256:10261   */\n      dup3\n        /* \"#utility.yul\":10252:10265   */\n      add\n        /* \"#utility.yul\":10245:10265   */\n      swap1\n      pop\n        /* \"#utility.yul\":10038:10271   */\n      swap2\n      swap1\n      pop\n      jump\t// out\n        /* \"#utility.yul\":10277:10457   */\n    tag_254:\n        /* \"#utility.yul\":10325:10402   */\n      0x4e487b7100000000000000000000000000000000000000000000000000000000\n        /* \"#utility.yul\":10322:10323   */\n      0x00\n        /* \"#utility.yul\":10315:10403   */\n      mstore\n        /* \"#utility.yul\":10422:10426   */\n      0x11\n        /* \"#utility.yul\":10419:10420   */\n      0x04\n        /* \"#utility.yul\":10412:10427   */\n      mstore\n        /* \"#utility.yul\":10446:10450   */\n      0x24\n        /* \"#utility.yul\":10443:10444   */\n      0x00\n        /* \"#utility.yul\":10436:10451   */\n      revert\n        /* \"#utility.yul\":10463:10643   */\n    tag_260:\n        /* \"#utility.yul\":10511:10588   */\n      0x4e487b7100000000000000000000000000000000000000000000000000000000\n        /* \"#utility.yul\":10508:10509   */\n      0x00\n        /* \"#utility.yul\":10501:10589   */\n      mstore\n        /* \"#utility.yul\":10608:10612   */\n      0x12\n        /* \"#utility.yul\":10605:10606   */\n      0x04\n        /* \"#utility.yul\":10598:10613   */\n      mstore\n        /* \"#utility.yul\":10632:10636   */\n      0x24\n        /* \"#utility.yul\":10629:10630   */\n      0x00\n        /* \"#utility.yul\":10622:10637   */\n      revert\n        /* \"#utility.yul\":10649:10829   */\n    tag_63:\n        /* \"#utility.yul\":10697:10774   */\n      0x4e487b7100000000000000000000000000000000000000000000000000000000\n        /* \"#utility.yul\":10694:10695   */\n      0x00\n        /* \"#utility.yul\":10687:10775   */\n      mstore\n        /* \"#utility.yul\":10794:10798   */\n      0x21\n        /* \"#utility.yul\":10791:10792   */\n      0x04\n        /* \"#utility.yul\":10784:10799   */\n      mstore\n        /* \"#utility.yul\":10818:10822   */\n      0x24\n        /* \"#utility.yul\":10815:10816   */\n      0x00\n        /* \"#utility.yul\":10808:10823   */\n      revert\n        /* \"#utility.yul\":10835:11015   */\n    tag_292:\n        /* \"#utility.yul\":10883:10960   */\n      0x4e487b7100000000000000000000000000000000000000000000000000000000\n        /* \"#utility.yul\":10880:10881   */\n      0x00\n        /* \"#utility.yul\":10873:10961   */\n      mstore\n        /* \"#utility.yul\":10980:10984   */\n      0x22\n        /* \"#utility.yul\":10977:10978   */\n      0x04\n        /* \"#utility.yul\":10970:10985   */\n      mstore\n        /* \"#utility.yul\":11004:11008   */\n      0x24\n        /* \"#utility.yul\":11001:11002   */\n      0x00\n        /* \"#utility.yul\":10994:11009   */\n      revert\n        /* \"#utility.yul\":11021:11201   */\n    tag_113:\n        /* \"#utility.yul\":11069:11146   */\n      0x4e487b7100000000000000000000000000000000000000000000000000000000\n        /* \"#utility.yul\":11066:11067   */\n      0x00\n        /* \"#utility.yul\":11059:11147   */\n      mstore\n        /* \"#utility.yul\":11166:11170   */\n      0x32\n        /* \"#utility.yul\":11163:11164   */\n      0x04\n        /* \"#utility.yul\":11156:11171   */\n      mstore\n        /* \"#utility.yul\":11190:11194   */\n      0x24\n        /* \"#utility.yul\":11187:11188   */\n      0x00\n        /* \"#utility.yul\":11180:11195   */\n      revert\n        /* \"#utility.yul\":11207:11387   */\n    tag_245:\n        /* \"#utility.yul\":11255:11332   */\n      0x4e487b7100000000000000000000000000000000000000000000000000000000\n        /* \"#utility.yul\":11252:11253   */\n      0x00\n        /* \"#utility.yul\":11245:11333   */\n      mstore\n        /* \"#utility.yul\":11352:11356   */\n      0x41\n        /* \"#utility.yul\":11349:11350   */\n      0x04\n        /* \"#utility.yul\":11342:11357   */\n      mstore\n        /* \"#utility.yul\":11376:11380   */\n      0x24\n        /* \"#utility.yul\":11373:11374   */\n      0x00\n        /* \"#utility.yul\":11366:11381   */\n      revert\n        /* \"#utility.yul\":11393:11510   */\n    tag_163:\n        /* \"#utility.yul\":11502:11503   */\n      0x00\n        /* \"#utility.yul\":11499:11500   */\n      dup1\n        /* \"#utility.yul\":11492:11504   */\n      revert\n        /* \"#utility.yul\":11516:11633   */\n    tag_152:\n        /* \"#utility.yul\":11625:11626   */\n      0x00\n        /* \"#utility.yul\":11622:11623   */\n      dup1\n        /* \"#utility.yul\":11615:11627   */\n      revert\n        /* \"#utility.yul\":11639:11756   */\n    tag_179:\n        /* \"#utility.yul\":11748:11749   */\n      0x00\n        /* \"#utility.yul\":11745:11746   */\n      dup1\n        /* \"#utility.yul\":11738:11750   */\n      revert\n        /* \"#utility.yul\":11762:11879   */\n    tag_172:\n        /* \"#utility.yul\":11871:11872   */\n      0x00\n        /* \"#utility.yul\":11868:11869   */\n      dup1\n        /* \"#utility.yul\":11861:11873   */\n      revert\n        /* \"#utility.yul\":11885:11987   */\n    tag_205:\n        /* \"#utility.yul\":11926:11932   */\n      0x00\n        /* \"#utility.yul\":11977:11979   */\n      0x1f\n        /* \"#utility.yul\":11973:11980   */\n      not\n        /* \"#utility.yul\":11968:11970   */\n      0x1f\n        /* \"#utility.yul\":11961:11966   */\n      dup4\n        /* \"#utility.yul\":11957:11971   */\n      add\n        /* \"#utility.yul\":11953:11981   */\n      and\n        /* \"#utility.yul\":11943:11981   */\n      swap1\n      pop\n        /* \"#utility.yul\":11885:11987   */\n      swap2\n      swap1\n      pop\n      jump\t// out\n        /* \"#utility.yul\":11993:12220   */\n    tag_210:\n        /* \"#utility.yul\":12133:12167   */\n      0x4f6e6c7920746865206465616c65722063616e20706179206f75742074686520\n        /* \"#utility.yul\":12129:12130   */\n      0x00\n        /* \"#utility.yul\":12121:12127   */\n      dup3\n        /* \"#utility.yul\":12117:12131   */\n      add\n        /* \"#utility.yul\":12110:12168   */\n      mstore\n        /* \"#utility.yul\":12202:12212   */\n      0x77696e6e6572732e000000000000000000000000000000000000000000000000\n        /* \"#utility.yul\":12197:12199   */\n      0x20\n        /* \"#utility.yul\":12189:12195   */\n      dup3\n        /* \"#utility.yul\":12185:12200   */\n      add\n        /* \"#utility.yul\":12178:12213   */\n      mstore\n        /* \"#utility.yul\":11993:12220   */\n      pop\n      jump\t// out\n        /* \"#utility.yul\":12226:12403   */\n    tag_215:\n        /* \"#utility.yul\":12366:12395   */\n      0x546865206a6f696e696e67206665652069732032352065746865720000000000\n        /* \"#utility.yul\":12362:12363   */\n      0x00\n        /* \"#utility.yul\":12354:12360   */\n      dup3\n        /* \"#utility.yul\":12350:12364   */\n      add\n        /* \"#utility.yul\":12343:12396   */\n      mstore\n        /* \"#utility.yul\":12226:12403   */\n      pop\n      jump\t// out\n        /* \"#utility.yul\":12409:12522   */\n    tag_277:\n        /* \"#utility.yul\":12490:12491   */\n      0x03\n        /* \"#utility.yul\":12483:12488   */\n      dup2\n        /* \"#utility.yul\":12480:12492   */\n      lt\n        /* \"#utility.yul\":12470:12516   */\n      tag_315\n      jumpi\n        /* \"#utility.yul\":12496:12514   */\n      tag_316\n      tag_63\n      jump\t// in\n    tag_316:\n        /* \"#utility.yul\":12470:12516   */\n    tag_315:\n        /* \"#utility.yul\":12409:12522   */\n      pop\n      jump\t// out\n        /* \"#utility.yul\":12528:12650   */\n    tag_158:\n        /* \"#utility.yul\":12601:12625   */\n      tag_318\n        /* \"#utility.yul\":12619:12624   */\n      dup2\n        /* \"#utility.yul\":12601:12625   */\n      tag_191\n      jump\t// in\n    tag_318:\n        /* \"#utility.yul\":12594:12599   */\n      dup2\n        /* \"#utility.yul\":12591:12626   */\n      eq\n        /* \"#utility.yul\":12581:12644   */\n      tag_319\n      jumpi\n        /* \"#utility.yul\":12640:12641   */\n      0x00\n        /* \"#utility.yul\":12637:12638   */\n      dup1\n        /* \"#utility.yul\":12630:12642   */\n      revert\n        /* \"#utility.yul\":12581:12644   */\n    tag_319:\n        /* \"#utility.yul\":12528:12650   */\n      pop\n      jump\t// out\n        /* \"#utility.yul\":12656:12778   */\n    tag_168:\n        /* \"#utility.yul\":12729:12753   */\n      tag_321\n        /* \"#utility.yul\":12747:12752   */\n      dup2\n        /* \"#utility.yul\":12729:12753   */\n      tag_219\n      jump\t// in\n    tag_321:\n        /* \"#utility.yul\":12722:12727   */\n      dup2\n        /* \"#utility.yul\":12719:12754   */\n      eq\n        /* \"#utility.yul\":12709:12772   */\n      tag_322\n      jumpi\n        /* \"#utility.yul\":12768:12769   */\n      0x00\n        /* \"#utility.yul\":12765:12766   */\n      dup1\n        /* \"#utility.yul\":12758:12770   */\n      revert\n        /* \"#utility.yul\":12709:12772   */\n    tag_322:\n        /* \"#utility.yul\":12656:12778   */\n      pop\n      jump\t// out\n\n    auxdata: 0xa2646970667358221220cb90b319b43525ac39140d8f83a18dcdd549cb243ea1b89fa0560f0960fd6f7964736f6c63430008070033\n}\n",
				"bytecode": {
					"linkReferences": {},
					"object": "608060405260008055600060015534801561001957600080fd5b5033600260006101000a81548173ffffffffffffffffffffffffffffffffffffffff021916908373ffffffffffffffffffffffffffffffffffffffff1602179055506113d68061006a6000396000f3fe6080604052600436106100865760003560e01c80639de2ee21116100595780639de2ee2114610147578063dbdef6f114610172578063e2eb41ff1461018e578063f9593e14146101cf578063fed47dac1461021057610086565b8063302bcc571461008b57806334b735a1146100b65780634ba2363a146100f35780638ddf0f7d1461011e575b600080fd5b34801561009757600080fd5b506100a061022c565b6040516100ad9190610eb6565b60405180910390f35b3480156100c257600080fd5b506100dd60048036038101906100d89190610c61565b610232565b6040516100ea9190610e5b565b60405180910390f35b3480156100ff57600080fd5b50610108610290565b6040516101159190610eb6565b60405180910390f35b34801561012a57600080fd5b5061014560048036038101906101409190610c61565b610296565b005b34801561015357600080fd5b5061015c610322565b6040516101699190610ddf565b60405180910390f35b61018c60048036038101906101879190610c8e565b610348565b005b34801561019a57600080fd5b506101b560048036038101906101b09190610c61565b610431565b6040516101c6959493929190610dfa565b60405180910390f35b3480156101db57600080fd5b506101f660048036038101906101f19190610d06565b6105a4565b604051610207959493929190610dfa565b60405180910390f35b61022a60048036038101906102259190610c61565b610727565b005b60005481565b600080600460008473ffffffffffffffffffffffffffffffffffffffff1673ffffffffffffffffffffffffffffffffffffffff16815260200190815260200160002090508060000160149054906101000a900460ff16915050919050565b60015481565b6000600460008373ffffffffffffffffffffffffffffffffffffffff1673ffffffffffffffffffffffffffffffffffffffff1681526020019081526020016000209050601481600301546102ea9190610f43565b421061031e5760018160000160146101000a81548160ff0219169083600281111561031857610317611205565b5b02179055505b5050565b600260009054906101000a900473ffffffffffffffffffffffffffffffffffffffff1681565b68015af1d78b58c400003414610393576040517f08c379a000000000000000000000000000000000000000000000000000000000815260040161038a90610e96565b60405180910390fd5b600260009054906101000a900473ffffffffffffffffffffffffffffffffffffffff1673ffffffffffffffffffffffffffffffffffffffff166108fc349081150290604051600060405180830381858888f193505050501561042d576103f982826108e4565b600160008082825461040b9190610f43565b925050819055506019600160008282546104259190610f43565b925050819055505b5050565b60046020528060005260406000206000915090508060000160009054906101000a900473ffffffffffffffffffffffffffffffffffffffff16908060000160149054906101000a900460ff169080600101805461048d906110fb565b80601f01602080910402602001604051908101604052809291908181526020018280546104b9906110fb565b80156105065780601f106104db57610100808354040283529160200191610506565b820191906000526020600020905b8154815290600101906020018083116104e957829003601f168201915b50505050509080600201805461051b906110fb565b80601f0160208091040260200160405190810160405280929190818152602001828054610547906110fb565b80156105945780601f1061056957610100808354040283529160200191610594565b820191906000526020600020905b81548152906001019060200180831161057757829003601f168201915b5050505050908060030154905085565b600381815481106105b457600080fd5b90600052602060002090600402016000915090508060000160009054906101000a900473ffffffffffffffffffffffffffffffffffffffff16908060000160149054906101000a900460ff1690806001018054610610906110fb565b80601f016020809104026020016040519081016040528092919081815260200182805461063c906110fb565b80156106895780601f1061065e57610100808354040283529160200191610689565b820191906000526020600020905b81548152906001019060200180831161066c57829003601f168201915b50505050509080600201805461069e906110fb565b80601f01602080910402602001604051908101604052809291908181526020018280546106ca906110fb565b80156107175780601f106106ec57610100808354040283529160200191610717565b820191906000526020600020905b8154815290600101906020018083116106fa57829003601f168201915b5050505050908060030154905085565b600260009054906101000a900473ffffffffffffffffffffffffffffffffffffffff1673ffffffffffffffffffffffffffffffffffffffff163373ffffffffffffffffffffffffffffffffffffffff16146107b7576040517f08c379a00000000000000000000000000000000000000000000000000000000081526004016107ae90610e76565b60405180910390fd5b670de0b6b3a76400006001546107cd9190610fca565b34146107d857600080fd5b600060016000546107e99190611024565b346107f49190610f99565b905060005b6003805490508110156108df5760006003828154811061081c5761081b611263565b5b906000526020600020906004020160000160009054906101000a900473ffffffffffffffffffffffffffffffffffffffff1690508373ffffffffffffffffffffffffffffffffffffffff168173ffffffffffffffffffffffffffffffffffffffff16146108cb578073ffffffffffffffffffffffffffffffffffffffff166108fc849081150290604051600060405180830381858888f193505050501580156108c9573d6000803e3d6000fd5b505b5080806108d79061115e565b9150506107f9565b505050565b60006040518060a001604052803373ffffffffffffffffffffffffffffffffffffffff1681526020016000600281111561092157610920611205565b5b815260200184815260200183815260200142815250905080600460003373ffffffffffffffffffffffffffffffffffffffff1673ffffffffffffffffffffffffffffffffffffffff16815260200190815260200160002060008201518160000160006101000a81548173ffffffffffffffffffffffffffffffffffffffff021916908373ffffffffffffffffffffffffffffffffffffffff16021790555060208201518160000160146101000a81548160ff021916908360028111156109ea576109e9611205565b5b02179055506040820151816001019080519060200190610a0b929190610b24565b506060820151816002019080519060200190610a28929190610b24565b5060808201518160030155905050600381908060018154018082558091505060019003906000526020600020906004020160009091909190915060008201518160000160006101000a81548173ffffffffffffffffffffffffffffffffffffffff021916908373ffffffffffffffffffffffffffffffffffffffff16021790555060208201518160000160146101000a81548160ff02191690836002811115610ad457610ad3611205565b5b02179055506040820151816001019080519060200190610af5929190610b24565b506060820151816002019080519060200190610b12929190610b24565b50608082015181600301555050505050565b828054610b30906110fb565b90600052602060002090601f016020900481019282610b525760008555610b99565b82601f10610b6b57805160ff1916838001178555610b99565b82800160010185558215610b99579182015b82811115610b98578251825591602001919060010190610b7d565b5b509050610ba69190610baa565b5090565b5b80821115610bc3576000816000905550600101610bab565b5090565b6000610bda610bd584610ef6565b610ed1565b905082815260208101848484011115610bf657610bf56112c6565b5b610c018482856110b9565b509392505050565b600081359050610c1881611372565b92915050565b600082601f830112610c3357610c326112c1565b5b8135610c43848260208601610bc7565b91505092915050565b600081359050610c5b81611389565b92915050565b600060208284031215610c7757610c766112d0565b5b6000610c8584828501610c09565b91505092915050565b60008060408385031215610ca557610ca46112d0565b5b600083013567ffffffffffffffff811115610cc357610cc26112cb565b5b610ccf85828601610c1e565b925050602083013567ffffffffffffffff811115610cf057610cef6112cb565b5b610cfc85828601610c1e565b9150509250929050565b600060208284031215610d1c57610d1b6112d0565b5b6000610d2a84828501610c4c565b91505092915050565b610d3c81611058565b82525050565b610d4b816110a7565b82525050565b6000610d5c82610f27565b610d668185610f32565b9350610d768185602086016110c8565b610d7f816112d5565b840191505092915050565b6000610d97602883610f32565b9150610da2826112e6565b604082019050919050565b6000610dba601b83610f32565b9150610dc582611335565b602082019050919050565b610dd98161109d565b82525050565b6000602082019050610df46000830184610d33565b92915050565b600060a082019050610e0f6000830188610d33565b610e1c6020830187610d42565b8181036040830152610e2e8186610d51565b90508181036060830152610e428185610d51565b9050610e516080830184610dd0565b9695505050505050565b6000602082019050610e706000830184610d42565b92915050565b60006020820190508181036000830152610e8f81610d8a565b9050919050565b60006020820190508181036000830152610eaf81610dad565b9050919050565b6000602082019050610ecb6000830184610dd0565b92915050565b6000610edb610eec565b9050610ee7828261112d565b919050565b6000604051905090565b600067ffffffffffffffff821115610f1157610f10611292565b5b610f1a826112d5565b9050602081019050919050565b600081519050919050565b600082825260208201905092915050565b6000610f4e8261109d565b9150610f598361109d565b9250827fffffffffffffffffffffffffffffffffffffffffffffffffffffffffffffffff03821115610f8e57610f8d6111a7565b5b828201905092915050565b6000610fa48261109d565b9150610faf8361109d565b925082610fbf57610fbe6111d6565b5b828204905092915050565b6000610fd58261109d565b9150610fe08361109d565b9250817fffffffffffffffffffffffffffffffffffffffffffffffffffffffffffffffff0483118215151615611019576110186111a7565b5b828202905092915050565b600061102f8261109d565b915061103a8361109d565b92508282101561104d5761104c6111a7565b5b828203905092915050565b60006110638261107d565b9050919050565b60008190506110788261135e565b919050565b600073ffffffffffffffffffffffffffffffffffffffff82169050919050565b6000819050919050565b60006110b28261106a565b9050919050565b82818337600083830152505050565b60005b838110156110e65780820151818401526020810190506110cb565b838111156110f5576000848401525b50505050565b6000600282049050600182168061111357607f821691505b6020821081141561112757611126611234565b5b50919050565b611136826112d5565b810181811067ffffffffffffffff8211171561115557611154611292565b5b80604052505050565b60006111698261109d565b91507fffffffffffffffffffffffffffffffffffffffffffffffffffffffffffffffff82141561119c5761119b6111a7565b5b600182019050919050565b7f4e487b7100000000000000000000000000000000000000000000000000000000600052601160045260246000fd5b7f4e487b7100000000000000000000000000000000000000000000000000000000600052601260045260246000fd5b7f4e487b7100000000000000000000000000000000000000000000000000000000600052602160045260246000fd5b7f4e487b7100000000000000000000000000000000000000000000000000000000600052602260045260246000fd5b7f4e487b7100000000000000000000000000000000000000000000000000000000600052603260045260246000fd5b7f4e487b7100000000000000000000000000000000000000000000000000000000600052604160045260246000fd5b600080fd5b600080fd5b600080fd5b600080fd5b6000601f19601f8301169050919050565b7f4f6e6c7920746865206465616c65722063616e20706179206f7574207468652060008201527f77696e6e6572732e000000000000000000000000000000000000000000000000602082015250565b7f546865206a6f696e696e67206665652069732032352065746865720000000000600082015250565b6003811061136f5761136e611205565b5b50565b61137b81611058565b811461138657600080fd5b50565b6113928161109d565b811461139d57600080fd5b5056fea2646970667358221220cb90b319b43525ac39140d8f83a18dcdd549cb243ea1b89fa0560f0960fd6f7964736f6c63430008070033",
					"opcodes": "PUSH1 0x80 PUSH1 0x40 MSTORE PUSH1 0x0 DUP1 SSTORE PUSH1 0x0 PUSH1 0x1 SSTORE CALLVALUE DUP1 ISZERO PUSH2 0x19 JUMPI PUSH1 0x0 DUP1 REVERT JUMPDEST POP CALLER PUSH1 0x2 PUSH1 0x0 PUSH2 0x100 EXP DUP2 SLOAD DUP2 PUSH20 0xFFFFFFFFFFFFFFFFFFFFFFFFFFFFFFFFFFFFFFFF MUL NOT AND SWAP1 DUP4 PUSH20 0xFFFFFFFFFFFFFFFFFFFFFFFFFFFFFFFFFFFFFFFF AND MUL OR SWAP1 SSTORE POP PUSH2 0x13D6 DUP1 PUSH2 0x6A PUSH1 0x0 CODECOPY PUSH1 0x0 RETURN INVALID PUSH1 0x80 PUSH1 0x40 MSTORE PUSH1 0x4 CALLDATASIZE LT PUSH2 0x86 JUMPI PUSH1 0x0 CALLDATALOAD PUSH1 0xE0 SHR DUP1 PUSH4 0x9DE2EE21 GT PUSH2 0x59 JUMPI DUP1 PUSH4 0x9DE2EE21 EQ PUSH2 0x147 JUMPI DUP1 PUSH4 0xDBDEF6F1 EQ PUSH2 0x172 JUMPI DUP1 PUSH4 0xE2EB41FF EQ PUSH2 0x18E JUMPI DUP1 PUSH4 0xF9593E14 EQ PUSH2 0x1CF JUMPI DUP1 PUSH4 0xFED47DAC EQ PUSH2 0x210 JUMPI PUSH2 0x86 JUMP JUMPDEST DUP1 PUSH4 0x302BCC57 EQ PUSH2 0x8B JUMPI DUP1 PUSH4 0x34B735A1 EQ PUSH2 0xB6 JUMPI DUP1 PUSH4 0x4BA2363A EQ PUSH2 0xF3 JUMPI DUP1 PUSH4 0x8DDF0F7D EQ PUSH2 0x11E JUMPI JUMPDEST PUSH1 0x0 DUP1 REVERT JUMPDEST CALLVALUE DUP1 ISZERO PUSH2 0x97 JUMPI PUSH1 0x0 DUP1 REVERT JUMPDEST POP PUSH2 0xA0 PUSH2 0x22C JUMP JUMPDEST PUSH1 0x40 MLOAD PUSH2 0xAD SWAP2 SWAP1 PUSH2 0xEB6 JUMP JUMPDEST PUSH1 0x40 MLOAD DUP1 SWAP2 SUB SWAP1 RETURN JUMPDEST CALLVALUE DUP1 ISZERO PUSH2 0xC2 JUMPI PUSH1 0x0 DUP1 REVERT JUMPDEST POP PUSH2 0xDD PUSH1 0x4 DUP1 CALLDATASIZE SUB DUP2 ADD SWAP1 PUSH2 0xD8 SWAP2 SWAP1 PUSH2 0xC61 JUMP JUMPDEST PUSH2 0x232 JUMP JUMPDEST PUSH1 0x40 MLOAD PUSH2 0xEA SWAP2 SWAP1 PUSH2 0xE5B JUMP JUMPDEST PUSH1 0x40 MLOAD DUP1 SWAP2 SUB SWAP1 RETURN JUMPDEST CALLVALUE DUP1 ISZERO PUSH2 0xFF JUMPI PUSH1 0x0 DUP1 REVERT JUMPDEST POP PUSH2 0x108 PUSH2 0x290 JUMP JUMPDEST PUSH1 0x40 MLOAD PUSH2 0x115 SWAP2 SWAP1 PUSH2 0xEB6 JUMP JUMPDEST PUSH1 0x40 MLOAD DUP1 SWAP2 SUB SWAP1 RETURN JUMPDEST CALLVALUE DUP1 ISZERO PUSH2 0x12A JUMPI PUSH1 0x0 DUP1 REVERT JUMPDEST POP PUSH2 0x145 PUSH1 0x4 DUP1 CALLDATASIZE SUB DUP2 ADD SWAP1 PUSH2 0x140 SWAP2 SWAP1 PUSH2 0xC61 JUMP JUMPDEST PUSH2 0x296 JUMP JUMPDEST STOP JUMPDEST CALLVALUE DUP1 ISZERO PUSH2 0x153 JUMPI PUSH1 0x0 DUP1 REVERT JUMPDEST POP PUSH2 0x15C PUSH2 0x322 JUMP JUMPDEST PUSH1 0x40 MLOAD PUSH2 0x169 SWAP2 SWAP1 PUSH2 0xDDF JUMP JUMPDEST PUSH1 0x40 MLOAD DUP1 SWAP2 SUB SWAP1 RETURN JUMPDEST PUSH2 0x18C PUSH1 0x4 DUP1 CALLDATASIZE SUB DUP2 ADD SWAP1 PUSH2 0x187 SWAP2 SWAP1 PUSH2 0xC8E JUMP JUMPDEST PUSH2 0x348 JUMP JUMPDEST STOP JUMPDEST CALLVALUE DUP1 ISZERO PUSH2 0x19A JUMPI PUSH1 0x0 DUP1 REVERT JUMPDEST POP PUSH2 0x1B5 PUSH1 0x4 DUP1 CALLDATASIZE SUB DUP2 ADD SWAP1 PUSH2 0x1B0 SWAP2 SWAP1 PUSH2 0xC61 JUMP JUMPDEST PUSH2 0x431 JUMP JUMPDEST PUSH1 0x40 MLOAD PUSH2 0x1C6 SWAP6 SWAP5 SWAP4 SWAP3 SWAP2 SWAP1 PUSH2 0xDFA JUMP JUMPDEST PUSH1 0x40 MLOAD DUP1 SWAP2 SUB SWAP1 RETURN JUMPDEST CALLVALUE DUP1 ISZERO PUSH2 0x1DB JUMPI PUSH1 0x0 DUP1 REVERT JUMPDEST POP PUSH2 0x1F6 PUSH1 0x4 DUP1 CALLDATASIZE SUB DUP2 ADD SWAP1 PUSH2 0x1F1 SWAP2 SWAP1 PUSH2 0xD06 JUMP JUMPDEST PUSH2 0x5A4 JUMP JUMPDEST PUSH1 0x40 MLOAD PUSH2 0x207 SWAP6 SWAP5 SWAP4 SWAP3 SWAP2 SWAP1 PUSH2 0xDFA JUMP JUMPDEST PUSH1 0x40 MLOAD DUP1 SWAP2 SUB SWAP1 RETURN JUMPDEST PUSH2 0x22A PUSH1 0x4 DUP1 CALLDATASIZE SUB DUP2 ADD SWAP1 PUSH2 0x225 SWAP2 SWAP1 PUSH2 0xC61 JUMP JUMPDEST PUSH2 0x727 JUMP JUMPDEST STOP JUMPDEST PUSH1 0x0 SLOAD DUP2 JUMP JUMPDEST PUSH1 0x0 DUP1 PUSH1 0x4 PUSH1 0x0 DUP5 PUSH20 0xFFFFFFFFFFFFFFFFFFFFFFFFFFFFFFFFFFFFFFFF AND PUSH20 0xFFFFFFFFFFFFFFFFFFFFFFFFFFFFFFFFFFFFFFFF AND DUP2 MSTORE PUSH1 0x20 ADD SWAP1 DUP2 MSTORE PUSH1 0x20 ADD PUSH1 0x0 KECCAK256 SWAP1 POP DUP1 PUSH1 0x0 ADD PUSH1 0x14 SWAP1 SLOAD SWAP1 PUSH2 0x100 EXP SWAP1 DIV PUSH1 0xFF AND SWAP2 POP POP SWAP2 SWAP1 POP JUMP JUMPDEST PUSH1 0x1 SLOAD DUP2 JUMP JUMPDEST PUSH1 0x0 PUSH1 0x4 PUSH1 0x0 DUP4 PUSH20 0xFFFFFFFFFFFFFFFFFFFFFFFFFFFFFFFFFFFFFFFF AND PUSH20 0xFFFFFFFFFFFFFFFFFFFFFFFFFFFFFFFFFFFFFFFF AND DUP2 MSTORE PUSH1 0x20 ADD SWAP1 DUP2 MSTORE PUSH1 0x20 ADD PUSH1 0x0 KECCAK256 SWAP1 POP PUSH1 0x14 DUP2 PUSH1 0x3 ADD SLOAD PUSH2 0x2EA SWAP2 SWAP1 PUSH2 0xF43 JUMP JUMPDEST TIMESTAMP LT PUSH2 0x31E JUMPI PUSH1 0x1 DUP2 PUSH1 0x0 ADD PUSH1 0x14 PUSH2 0x100 EXP DUP2 SLOAD DUP2 PUSH1 0xFF MUL NOT AND SWAP1 DUP4 PUSH1 0x2 DUP2 GT ISZERO PUSH2 0x318 JUMPI PUSH2 0x317 PUSH2 0x1205 JUMP JUMPDEST JUMPDEST MUL OR SWAP1 SSTORE POP JUMPDEST POP POP JUMP JUMPDEST PUSH1 0x2 PUSH1 0x0 SWAP1 SLOAD SWAP1 PUSH2 0x100 EXP SWAP1 DIV PUSH20 0xFFFFFFFFFFFFFFFFFFFFFFFFFFFFFFFFFFFFFFFF AND DUP2 JUMP JUMPDEST PUSH9 0x15AF1D78B58C40000 CALLVALUE EQ PUSH2 0x393 JUMPI PUSH1 0x40 MLOAD PUSH32 0x8C379A000000000000000000000000000000000000000000000000000000000 DUP2 MSTORE PUSH1 0x4 ADD PUSH2 0x38A SWAP1 PUSH2 0xE96 JUMP JUMPDEST PUSH1 0x40 MLOAD DUP1 SWAP2 SUB SWAP1 REVERT JUMPDEST PUSH1 0x2 PUSH1 0x0 SWAP1 SLOAD SWAP1 PUSH2 0x100 EXP SWAP1 DIV PUSH20 0xFFFFFFFFFFFFFFFFFFFFFFFFFFFFFFFFFFFFFFFF AND PUSH20 0xFFFFFFFFFFFFFFFFFFFFFFFFFFFFFFFFFFFFFFFF AND PUSH2 0x8FC CALLVALUE SWAP1 DUP2 ISZERO MUL SWAP1 PUSH1 0x40 MLOAD PUSH1 0x0 PUSH1 0x40 MLOAD DUP1 DUP4 SUB DUP2 DUP6 DUP9 DUP9 CALL SWAP4 POP POP POP POP ISZERO PUSH2 0x42D JUMPI PUSH2 0x3F9 DUP3 DUP3 PUSH2 0x8E4 JUMP JUMPDEST PUSH1 0x1 PUSH1 0x0 DUP1 DUP3 DUP3 SLOAD PUSH2 0x40B SWAP2 SWAP1 PUSH2 0xF43 JUMP JUMPDEST SWAP3 POP POP DUP2 SWAP1 SSTORE POP PUSH1 0x19 PUSH1 0x1 PUSH1 0x0 DUP3 DUP3 SLOAD PUSH2 0x425 SWAP2 SWAP1 PUSH2 0xF43 JUMP JUMPDEST SWAP3 POP POP DUP2 SWAP1 SSTORE POP JUMPDEST POP POP JUMP JUMPDEST PUSH1 0x4 PUSH1 0x20 MSTORE DUP1 PUSH1 0x0 MSTORE PUSH1 0x40 PUSH1 0x0 KECCAK256 PUSH1 0x0 SWAP2 POP SWAP1 POP DUP1 PUSH1 0x0 ADD PUSH1 0x0 SWAP1 SLOAD SWAP1 PUSH2 0x100 EXP SWAP1 DIV PUSH20 0xFFFFFFFFFFFFFFFFFFFFFFFFFFFFFFFFFFFFFFFF AND SWAP1 DUP1 PUSH1 0x0 ADD PUSH1 0x14 SWAP1 SLOAD SWAP1 PUSH2 0x100 EXP SWAP1 DIV PUSH1 0xFF AND SWAP1 DUP1 PUSH1 0x1 ADD DUP1 SLOAD PUSH2 0x48D SWAP1 PUSH2 0x10FB JUMP JUMPDEST DUP1 PUSH1 0x1F ADD PUSH1 0x20 DUP1 SWAP2 DIV MUL PUSH1 0x20 ADD PUSH1 0x40 MLOAD SWAP1 DUP2 ADD PUSH1 0x40 MSTORE DUP1 SWAP3 SWAP2 SWAP1 DUP2 DUP2 MSTORE PUSH1 0x20 ADD DUP3 DUP1 SLOAD PUSH2 0x4B9 SWAP1 PUSH2 0x10FB JUMP JUMPDEST DUP1 ISZERO PUSH2 0x506 JUMPI DUP1 PUSH1 0x1F LT PUSH2 0x4DB JUMPI PUSH2 0x100 DUP1 DUP4 SLOAD DIV MUL DUP4 MSTORE SWAP2 PUSH1 0x20 ADD SWAP2 PUSH2 0x506 JUMP JUMPDEST DUP3 ADD SWAP2 SWAP1 PUSH1 0x0 MSTORE PUSH1 0x20 PUSH1 0x0 KECCAK256 SWAP1 JUMPDEST DUP2 SLOAD DUP2 MSTORE SWAP1 PUSH1 0x1 ADD SWAP1 PUSH1 0x20 ADD DUP1 DUP4 GT PUSH2 0x4E9 JUMPI DUP3 SWAP1 SUB PUSH1 0x1F AND DUP3 ADD SWAP2 JUMPDEST POP POP POP POP POP SWAP1 DUP1 PUSH1 0x2 ADD DUP1 SLOAD PUSH2 0x51B SWAP1 PUSH2 0x10FB JUMP JUMPDEST DUP1 PUSH1 0x1F ADD PUSH1 0x20 DUP1 SWAP2 DIV MUL PUSH1 0x20 ADD PUSH1 0x40 MLOAD SWAP1 DUP2 ADD PUSH1 0x40 MSTORE DUP1 SWAP3 SWAP2 SWAP1 DUP2 DUP2 MSTORE PUSH1 0x20 ADD DUP3 DUP1 SLOAD PUSH2 0x547 SWAP1 PUSH2 0x10FB JUMP JUMPDEST DUP1 ISZERO PUSH2 0x594 JUMPI DUP1 PUSH1 0x1F LT PUSH2 0x569 JUMPI PUSH2 0x100 DUP1 DUP4 SLOAD DIV MUL DUP4 MSTORE SWAP2 PUSH1 0x20 ADD SWAP2 PUSH2 0x594 JUMP JUMPDEST DUP3 ADD SWAP2 SWAP1 PUSH1 0x0 MSTORE PUSH1 0x20 PUSH1 0x0 KECCAK256 SWAP1 JUMPDEST DUP2 SLOAD DUP2 MSTORE SWAP1 PUSH1 0x1 ADD SWAP1 PUSH1 0x20 ADD DUP1 DUP4 GT PUSH2 0x577 JUMPI DUP3 SWAP1 SUB PUSH1 0x1F AND DUP3 ADD SWAP2 JUMPDEST POP POP POP POP POP SWAP1 DUP1 PUSH1 0x3 ADD SLOAD SWAP1 POP DUP6 JUMP JUMPDEST PUSH1 0x3 DUP2 DUP2 SLOAD DUP2 LT PUSH2 0x5B4 JUMPI PUSH1 0x0 DUP1 REVERT JUMPDEST SWAP1 PUSH1 0x0 MSTORE PUSH1 0x20 PUSH1 0x0 KECCAK256 SWAP1 PUSH1 0x4 MUL ADD PUSH1 0x0 SWAP2 POP SWAP1 POP DUP1 PUSH1 0x0 ADD PUSH1 0x0 SWAP1 SLOAD SWAP1 PUSH2 0x100 EXP SWAP1 DIV PUSH20 0xFFFFFFFFFFFFFFFFFFFFFFFFFFFFFFFFFFFFFFFF AND SWAP1 DUP1 PUSH1 0x0 ADD PUSH1 0x14 SWAP1 SLOAD SWAP1 PUSH2 0x100 EXP SWAP1 DIV PUSH1 0xFF AND SWAP1 DUP1 PUSH1 0x1 ADD DUP1 SLOAD PUSH2 0x610 SWAP1 PUSH2 0x10FB JUMP JUMPDEST DUP1 PUSH1 0x1F ADD PUSH1 0x20 DUP1 SWAP2 DIV MUL PUSH1 0x20 ADD PUSH1 0x40 MLOAD SWAP1 DUP2 ADD PUSH1 0x40 MSTORE DUP1 SWAP3 SWAP2 SWAP1 DUP2 DUP2 MSTORE PUSH1 0x20 ADD DUP3 DUP1 SLOAD PUSH2 0x63C SWAP1 PUSH2 0x10FB JUMP JUMPDEST DUP1 ISZERO PUSH2 0x689 JUMPI DUP1 PUSH1 0x1F LT PUSH2 0x65E JUMPI PUSH2 0x100 DUP1 DUP4 SLOAD DIV MUL DUP4 MSTORE SWAP2 PUSH1 0x20 ADD SWAP2 PUSH2 0x689 JUMP JUMPDEST DUP3 ADD SWAP2 SWAP1 PUSH1 0x0 MSTORE PUSH1 0x20 PUSH1 0x0 KECCAK256 SWAP1 JUMPDEST DUP2 SLOAD DUP2 MSTORE SWAP1 PUSH1 0x1 ADD SWAP1 PUSH1 0x20 ADD DUP1 DUP4 GT PUSH2 0x66C JUMPI DUP3 SWAP1 SUB PUSH1 0x1F AND DUP3 ADD SWAP2 JUMPDEST POP POP POP POP POP SWAP1 DUP1 PUSH1 0x2 ADD DUP1 SLOAD PUSH2 0x69E SWAP1 PUSH2 0x10FB JUMP JUMPDEST DUP1 PUSH1 0x1F ADD PUSH1 0x20 DUP1 SWAP2 DIV MUL PUSH1 0x20 ADD PUSH1 0x40 MLOAD SWAP1 DUP2 ADD PUSH1 0x40 MSTORE DUP1 SWAP3 SWAP2 SWAP1 DUP2 DUP2 MSTORE PUSH1 0x20 ADD DUP3 DUP1 SLOAD PUSH2 0x6CA SWAP1 PUSH2 0x10FB JUMP JUMPDEST DUP1 ISZERO PUSH2 0x717 JUMPI DUP1 PUSH1 0x1F LT PUSH2 0x6EC JUMPI PUSH2 0x100 DUP1 DUP4 SLOAD DIV MUL DUP4 MSTORE SWAP2 PUSH1 0x20 ADD SWAP2 PUSH2 0x717 JUMP JUMPDEST DUP3 ADD SWAP2 SWAP1 PUSH1 0x0 MSTORE PUSH1 0x20 PUSH1 0x0 KECCAK256 SWAP1 JUMPDEST DUP2 SLOAD DUP2 MSTORE SWAP1 PUSH1 0x1 ADD SWAP1 PUSH1 0x20 ADD DUP1 DUP4 GT PUSH2 0x6FA JUMPI DUP3 SWAP1 SUB PUSH1 0x1F AND DUP3 ADD SWAP2 JUMPDEST POP POP POP POP POP SWAP1 DUP1 PUSH1 0x3 ADD SLOAD SWAP1 POP DUP6 JUMP JUMPDEST PUSH1 0x2 PUSH1 0x0 SWAP1 SLOAD SWAP1 PUSH2 0x100 EXP SWAP1 DIV PUSH20 0xFFFFFFFFFFFFFFFFFFFFFFFFFFFFFFFFFFFFFFFF AND PUSH20 0xFFFFFFFFFFFFFFFFFFFFFFFFFFFFFFFFFFFFFFFF AND CALLER PUSH20 0xFFFFFFFFFFFFFFFFFFFFFFFFFFFFFFFFFFFFFFFF AND EQ PUSH2 0x7B7 JUMPI PUSH1 0x40 MLOAD PUSH32 0x8C379A000000000000000000000000000000000000000000000000000000000 DUP2 MSTORE PUSH1 0x4 ADD PUSH2 0x7AE SWAP1 PUSH2 0xE76 JUMP JUMPDEST PUSH1 0x40 MLOAD DUP1 SWAP2 SUB SWAP1 REVERT JUMPDEST PUSH8 0xDE0B6B3A7640000 PUSH1 0x1 SLOAD PUSH2 0x7CD SWAP2 SWAP1 PUSH2 0xFCA JUMP JUMPDEST CALLVALUE EQ PUSH2 0x7D8 JUMPI PUSH1 0x0 DUP1 REVERT JUMPDEST PUSH1 0x0 PUSH1 0x1 PUSH1 0x0 SLOAD PUSH2 0x7E9 SWAP2 SWAP1 PUSH2 0x1024 JUMP JUMPDEST CALLVALUE PUSH2 0x7F4 SWAP2 SWAP1 PUSH2 0xF99 JUMP JUMPDEST SWAP1 POP PUSH1 0x0 JUMPDEST PUSH1 0x3 DUP1 SLOAD SWAP1 POP DUP2 LT ISZERO PUSH2 0x8DF JUMPI PUSH1 0x0 PUSH1 0x3 DUP3 DUP2 SLOAD DUP2 LT PUSH2 0x81C JUMPI PUSH2 0x81B PUSH2 0x1263 JUMP JUMPDEST JUMPDEST SWAP1 PUSH1 0x0 MSTORE PUSH1 0x20 PUSH1 0x0 KECCAK256 SWAP1 PUSH1 0x4 MUL ADD PUSH1 0x0 ADD PUSH1 0x0 SWAP1 SLOAD SWAP1 PUSH2 0x100 EXP SWAP1 DIV PUSH20 0xFFFFFFFFFFFFFFFFFFFFFFFFFFFFFFFFFFFFFFFF AND SWAP1 POP DUP4 PUSH20 0xFFFFFFFFFFFFFFFFFFFFFFFFFFFFFFFFFFFFFFFF AND DUP2 PUSH20 0xFFFFFFFFFFFFFFFFFFFFFFFFFFFFFFFFFFFFFFFF AND EQ PUSH2 0x8CB JUMPI DUP1 PUSH20 0xFFFFFFFFFFFFFFFFFFFFFFFFFFFFFFFFFFFFFFFF AND PUSH2 0x8FC DUP5 SWAP1 DUP2 ISZERO MUL SWAP1 PUSH1 0x40 MLOAD PUSH1 0x0 PUSH1 0x40 MLOAD DUP1 DUP4 SUB DUP2 DUP6 DUP9 DUP9 CALL SWAP4 POP POP POP POP ISZERO DUP1 ISZERO PUSH2 0x8C9 JUMPI RETURNDATASIZE PUSH1 0x0 DUP1 RETURNDATACOPY RETURNDATASIZE PUSH1 0x0 REVERT JUMPDEST POP JUMPDEST POP DUP1 DUP1 PUSH2 0x8D7 SWAP1 PUSH2 0x115E JUMP JUMPDEST SWAP2 POP POP PUSH2 0x7F9 JUMP JUMPDEST POP POP POP JUMP JUMPDEST PUSH1 0x0 PUSH1 0x40 MLOAD DUP1 PUSH1 0xA0 ADD PUSH1 0x40 MSTORE DUP1 CALLER PUSH20 0xFFFFFFFFFFFFFFFFFFFFFFFFFFFFFFFFFFFFFFFF AND DUP2 MSTORE PUSH1 0x20 ADD PUSH1 0x0 PUSH1 0x2 DUP2 GT ISZERO PUSH2 0x921 JUMPI PUSH2 0x920 PUSH2 0x1205 JUMP JUMPDEST JUMPDEST DUP2 MSTORE PUSH1 0x20 ADD DUP5 DUP2 MSTORE PUSH1 0x20 ADD DUP4 DUP2 MSTORE PUSH1 0x20 ADD TIMESTAMP DUP2 MSTORE POP SWAP1 POP DUP1 PUSH1 0x4 PUSH1 0x0 CALLER PUSH20 0xFFFFFFFFFFFFFFFFFFFFFFFFFFFFFFFFFFFFFFFF AND PUSH20 0xFFFFFFFFFFFFFFFFFFFFFFFFFFFFFFFFFFFFFFFF AND DUP2 MSTORE PUSH1 0x20 ADD SWAP1 DUP2 MSTORE PUSH1 0x20 ADD PUSH1 0x0 KECCAK256 PUSH1 0x0 DUP3 ADD MLOAD DUP2 PUSH1 0x0 ADD PUSH1 0x0 PUSH2 0x100 EXP DUP2 SLOAD DUP2 PUSH20 0xFFFFFFFFFFFFFFFFFFFFFFFFFFFFFFFFFFFFFFFF MUL NOT AND SWAP1 DUP4 PUSH20 0xFFFFFFFFFFFFFFFFFFFFFFFFFFFFFFFFFFFFFFFF AND MUL OR SWAP1 SSTORE POP PUSH1 0x20 DUP3 ADD MLOAD DUP2 PUSH1 0x0 ADD PUSH1 0x14 PUSH2 0x100 EXP DUP2 SLOAD DUP2 PUSH1 0xFF MUL NOT AND SWAP1 DUP4 PUSH1 0x2 DUP2 GT ISZERO PUSH2 0x9EA JUMPI PUSH2 0x9E9 PUSH2 0x1205 JUMP JUMPDEST JUMPDEST MUL OR SWAP1 SSTORE POP PUSH1 0x40 DUP3 ADD MLOAD DUP2 PUSH1 0x1 ADD SWAP1 DUP1 MLOAD SWAP1 PUSH1 0x20 ADD SWAP1 PUSH2 0xA0B SWAP3 SWAP2 SWAP1 PUSH2 0xB24 JUMP JUMPDEST POP PUSH1 0x60 DUP3 ADD MLOAD DUP2 PUSH1 0x2 ADD SWAP1 DUP1 MLOAD SWAP1 PUSH1 0x20 ADD SWAP1 PUSH2 0xA28 SWAP3 SWAP2 SWAP1 PUSH2 0xB24 JUMP JUMPDEST POP PUSH1 0x80 DUP3 ADD MLOAD DUP2 PUSH1 0x3 ADD SSTORE SWAP1 POP POP PUSH1 0x3 DUP2 SWAP1 DUP1 PUSH1 0x1 DUP2 SLOAD ADD DUP1 DUP3 SSTORE DUP1 SWAP2 POP POP PUSH1 0x1 SWAP1 SUB SWAP1 PUSH1 0x0 MSTORE PUSH1 0x20 PUSH1 0x0 KECCAK256 SWAP1 PUSH1 0x4 MUL ADD PUSH1 0x0 SWAP1 SWAP2 SWAP1 SWAP2 SWAP1 SWAP2 POP PUSH1 0x0 DUP3 ADD MLOAD DUP2 PUSH1 0x0 ADD PUSH1 0x0 PUSH2 0x100 EXP DUP2 SLOAD DUP2 PUSH20 0xFFFFFFFFFFFFFFFFFFFFFFFFFFFFFFFFFFFFFFFF MUL NOT AND SWAP1 DUP4 PUSH20 0xFFFFFFFFFFFFFFFFFFFFFFFFFFFFFFFFFFFFFFFF AND MUL OR SWAP1 SSTORE POP PUSH1 0x20 DUP3 ADD MLOAD DUP2 PUSH1 0x0 ADD PUSH1 0x14 PUSH2 0x100 EXP DUP2 SLOAD DUP2 PUSH1 0xFF MUL NOT AND SWAP1 DUP4 PUSH1 0x2 DUP2 GT ISZERO PUSH2 0xAD4 JUMPI PUSH2 0xAD3 PUSH2 0x1205 JUMP JUMPDEST JUMPDEST MUL OR SWAP1 SSTORE POP PUSH1 0x40 DUP3 ADD MLOAD DUP2 PUSH1 0x1 ADD SWAP1 DUP1 MLOAD SWAP1 PUSH1 0x20 ADD SWAP1 PUSH2 0xAF5 SWAP3 SWAP2 SWAP1 PUSH2 0xB24 JUMP JUMPDEST POP PUSH1 0x60 DUP3 ADD MLOAD DUP2 PUSH1 0x2 ADD SWAP1 DUP1 MLOAD SWAP1 PUSH1 0x20 ADD SWAP1 PUSH2 0xB12 SWAP3 SWAP2 SWAP1 PUSH2 0xB24 JUMP JUMPDEST POP PUSH1 0x80 DUP3 ADD MLOAD DUP2 PUSH1 0x3 ADD SSTORE POP POP POP POP POP JUMP JUMPDEST DUP3 DUP1 SLOAD PUSH2 0xB30 SWAP1 PUSH2 0x10FB JUMP JUMPDEST SWAP1 PUSH1 0x0 MSTORE PUSH1 0x20 PUSH1 0x0 KECCAK256 SWAP1 PUSH1 0x1F ADD PUSH1 0x20 SWAP1 DIV DUP2 ADD SWAP3 DUP3 PUSH2 0xB52 JUMPI PUSH1 0x0 DUP6 SSTORE PUSH2 0xB99 JUMP JUMPDEST DUP3 PUSH1 0x1F LT PUSH2 0xB6B JUMPI DUP1 MLOAD PUSH1 0xFF NOT AND DUP4 DUP1 ADD OR DUP6 SSTORE PUSH2 0xB99 JUMP JUMPDEST DUP3 DUP1 ADD PUSH1 0x1 ADD DUP6 SSTORE DUP3 ISZERO PUSH2 0xB99 JUMPI SWAP2 DUP3 ADD JUMPDEST DUP3 DUP2 GT ISZERO PUSH2 0xB98 JUMPI DUP3 MLOAD DUP3 SSTORE SWAP2 PUSH1 0x20 ADD SWAP2 SWAP1 PUSH1 0x1 ADD SWAP1 PUSH2 0xB7D JUMP JUMPDEST JUMPDEST POP SWAP1 POP PUSH2 0xBA6 SWAP2 SWAP1 PUSH2 0xBAA JUMP JUMPDEST POP SWAP1 JUMP JUMPDEST JUMPDEST DUP1 DUP3 GT ISZERO PUSH2 0xBC3 JUMPI PUSH1 0x0 DUP2 PUSH1 0x0 SWAP1 SSTORE POP PUSH1 0x1 ADD PUSH2 0xBAB JUMP JUMPDEST POP SWAP1 JUMP JUMPDEST PUSH1 0x0 PUSH2 0xBDA PUSH2 0xBD5 DUP5 PUSH2 0xEF6 JUMP JUMPDEST PUSH2 0xED1 JUMP JUMPDEST SWAP1 POP DUP3 DUP2 MSTORE PUSH1 0x20 DUP2 ADD DUP5 DUP5 DUP5 ADD GT ISZERO PUSH2 0xBF6 JUMPI PUSH2 0xBF5 PUSH2 0x12C6 JUMP JUMPDEST JUMPDEST PUSH2 0xC01 DUP5 DUP3 DUP6 PUSH2 0x10B9 JUMP JUMPDEST POP SWAP4 SWAP3 POP POP POP JUMP JUMPDEST PUSH1 0x0 DUP2 CALLDATALOAD SWAP1 POP PUSH2 0xC18 DUP2 PUSH2 0x1372 JUMP JUMPDEST SWAP3 SWAP2 POP POP JUMP JUMPDEST PUSH1 0x0 DUP3 PUSH1 0x1F DUP4 ADD SLT PUSH2 0xC33 JUMPI PUSH2 0xC32 PUSH2 0x12C1 JUMP JUMPDEST JUMPDEST DUP2 CALLDATALOAD PUSH2 0xC43 DUP5 DUP3 PUSH1 0x20 DUP7 ADD PUSH2 0xBC7 JUMP JUMPDEST SWAP2 POP POP SWAP3 SWAP2 POP POP JUMP JUMPDEST PUSH1 0x0 DUP2 CALLDATALOAD SWAP1 POP PUSH2 0xC5B DUP2 PUSH2 0x1389 JUMP JUMPDEST SWAP3 SWAP2 POP POP JUMP JUMPDEST PUSH1 0x0 PUSH1 0x20 DUP3 DUP5 SUB SLT ISZERO PUSH2 0xC77 JUMPI PUSH2 0xC76 PUSH2 0x12D0 JUMP JUMPDEST JUMPDEST PUSH1 0x0 PUSH2 0xC85 DUP5 DUP3 DUP6 ADD PUSH2 0xC09 JUMP JUMPDEST SWAP2 POP POP SWAP3 SWAP2 POP POP JUMP JUMPDEST PUSH1 0x0 DUP1 PUSH1 0x40 DUP4 DUP6 SUB SLT ISZERO PUSH2 0xCA5 JUMPI PUSH2 0xCA4 PUSH2 0x12D0 JUMP JUMPDEST JUMPDEST PUSH1 0x0 DUP4 ADD CALLDATALOAD PUSH8 0xFFFFFFFFFFFFFFFF DUP2 GT ISZERO PUSH2 0xCC3 JUMPI PUSH2 0xCC2 PUSH2 0x12CB JUMP JUMPDEST JUMPDEST PUSH2 0xCCF DUP6 DUP3 DUP7 ADD PUSH2 0xC1E JUMP JUMPDEST SWAP3 POP POP PUSH1 0x20 DUP4 ADD CALLDATALOAD PUSH8 0xFFFFFFFFFFFFFFFF DUP2 GT ISZERO PUSH2 0xCF0 JUMPI PUSH2 0xCEF PUSH2 0x12CB JUMP JUMPDEST JUMPDEST PUSH2 0xCFC DUP6 DUP3 DUP7 ADD PUSH2 0xC1E JUMP JUMPDEST SWAP2 POP POP SWAP3 POP SWAP3 SWAP1 POP JUMP JUMPDEST PUSH1 0x0 PUSH1 0x20 DUP3 DUP5 SUB SLT ISZERO PUSH2 0xD1C JUMPI PUSH2 0xD1B PUSH2 0x12D0 JUMP JUMPDEST JUMPDEST PUSH1 0x0 PUSH2 0xD2A DUP5 DUP3 DUP6 ADD PUSH2 0xC4C JUMP JUMPDEST SWAP2 POP POP SWAP3 SWAP2 POP POP JUMP JUMPDEST PUSH2 0xD3C DUP2 PUSH2 0x1058 JUMP JUMPDEST DUP3 MSTORE POP POP JUMP JUMPDEST PUSH2 0xD4B DUP2 PUSH2 0x10A7 JUMP JUMPDEST DUP3 MSTORE POP POP JUMP JUMPDEST PUSH1 0x0 PUSH2 0xD5C DUP3 PUSH2 0xF27 JUMP JUMPDEST PUSH2 0xD66 DUP2 DUP6 PUSH2 0xF32 JUMP JUMPDEST SWAP4 POP PUSH2 0xD76 DUP2 DUP6 PUSH1 0x20 DUP7 ADD PUSH2 0x10C8 JUMP JUMPDEST PUSH2 0xD7F DUP2 PUSH2 0x12D5 JUMP JUMPDEST DUP5 ADD SWAP2 POP POP SWAP3 SWAP2 POP POP JUMP JUMPDEST PUSH1 0x0 PUSH2 0xD97 PUSH1 0x28 DUP4 PUSH2 0xF32 JUMP JUMPDEST SWAP2 POP PUSH2 0xDA2 DUP3 PUSH2 0x12E6 JUMP JUMPDEST PUSH1 0x40 DUP3 ADD SWAP1 POP SWAP2 SWAP1 POP JUMP JUMPDEST PUSH1 0x0 PUSH2 0xDBA PUSH1 0x1B DUP4 PUSH2 0xF32 JUMP JUMPDEST SWAP2 POP PUSH2 0xDC5 DUP3 PUSH2 0x1335 JUMP JUMPDEST PUSH1 0x20 DUP3 ADD SWAP1 POP SWAP2 SWAP1 POP JUMP JUMPDEST PUSH2 0xDD9 DUP2 PUSH2 0x109D JUMP JUMPDEST DUP3 MSTORE POP POP JUMP JUMPDEST PUSH1 0x0 PUSH1 0x20 DUP3 ADD SWAP1 POP PUSH2 0xDF4 PUSH1 0x0 DUP4 ADD DUP5 PUSH2 0xD33 JUMP JUMPDEST SWAP3 SWAP2 POP POP JUMP JUMPDEST PUSH1 0x0 PUSH1 0xA0 DUP3 ADD SWAP1 POP PUSH2 0xE0F PUSH1 0x0 DUP4 ADD DUP9 PUSH2 0xD33 JUMP JUMPDEST PUSH2 0xE1C PUSH1 0x20 DUP4 ADD DUP8 PUSH2 0xD42 JUMP JUMPDEST DUP2 DUP2 SUB PUSH1 0x40 DUP4 ADD MSTORE PUSH2 0xE2E DUP2 DUP7 PUSH2 0xD51 JUMP JUMPDEST SWAP1 POP DUP2 DUP2 SUB PUSH1 0x60 DUP4 ADD MSTORE PUSH2 0xE42 DUP2 DUP6 PUSH2 0xD51 JUMP JUMPDEST SWAP1 POP PUSH2 0xE51 PUSH1 0x80 DUP4 ADD DUP5 PUSH2 0xDD0 JUMP JUMPDEST SWAP7 SWAP6 POP POP POP POP POP POP JUMP JUMPDEST PUSH1 0x0 PUSH1 0x20 DUP3 ADD SWAP1 POP PUSH2 0xE70 PUSH1 0x0 DUP4 ADD DUP5 PUSH2 0xD42 JUMP JUMPDEST SWAP3 SWAP2 POP POP JUMP JUMPDEST PUSH1 0x0 PUSH1 0x20 DUP3 ADD SWAP1 POP DUP2 DUP2 SUB PUSH1 0x0 DUP4 ADD MSTORE PUSH2 0xE8F DUP2 PUSH2 0xD8A JUMP JUMPDEST SWAP1 POP SWAP2 SWAP1 POP JUMP JUMPDEST PUSH1 0x0 PUSH1 0x20 DUP3 ADD SWAP1 POP DUP2 DUP2 SUB PUSH1 0x0 DUP4 ADD MSTORE PUSH2 0xEAF DUP2 PUSH2 0xDAD JUMP JUMPDEST SWAP1 POP SWAP2 SWAP1 POP JUMP JUMPDEST PUSH1 0x0 PUSH1 0x20 DUP3 ADD SWAP1 POP PUSH2 0xECB PUSH1 0x0 DUP4 ADD DUP5 PUSH2 0xDD0 JUMP JUMPDEST SWAP3 SWAP2 POP POP JUMP JUMPDEST PUSH1 0x0 PUSH2 0xEDB PUSH2 0xEEC JUMP JUMPDEST SWAP1 POP PUSH2 0xEE7 DUP3 DUP3 PUSH2 0x112D JUMP JUMPDEST SWAP2 SWAP1 POP JUMP JUMPDEST PUSH1 0x0 PUSH1 0x40 MLOAD SWAP1 POP SWAP1 JUMP JUMPDEST PUSH1 0x0 PUSH8 0xFFFFFFFFFFFFFFFF DUP3 GT ISZERO PUSH2 0xF11 JUMPI PUSH2 0xF10 PUSH2 0x1292 JUMP JUMPDEST JUMPDEST PUSH2 0xF1A DUP3 PUSH2 0x12D5 JUMP JUMPDEST SWAP1 POP PUSH1 0x20 DUP2 ADD SWAP1 POP SWAP2 SWAP1 POP JUMP JUMPDEST PUSH1 0x0 DUP2 MLOAD SWAP1 POP SWAP2 SWAP1 POP JUMP JUMPDEST PUSH1 0x0 DUP3 DUP3 MSTORE PUSH1 0x20 DUP3 ADD SWAP1 POP SWAP3 SWAP2 POP POP JUMP JUMPDEST PUSH1 0x0 PUSH2 0xF4E DUP3 PUSH2 0x109D JUMP JUMPDEST SWAP2 POP PUSH2 0xF59 DUP4 PUSH2 0x109D JUMP JUMPDEST SWAP3 POP DUP3 PUSH32 0xFFFFFFFFFFFFFFFFFFFFFFFFFFFFFFFFFFFFFFFFFFFFFFFFFFFFFFFFFFFFFFFF SUB DUP3 GT ISZERO PUSH2 0xF8E JUMPI PUSH2 0xF8D PUSH2 0x11A7 JUMP JUMPDEST JUMPDEST DUP3 DUP3 ADD SWAP1 POP SWAP3 SWAP2 POP POP JUMP JUMPDEST PUSH1 0x0 PUSH2 0xFA4 DUP3 PUSH2 0x109D JUMP JUMPDEST SWAP2 POP PUSH2 0xFAF DUP4 PUSH2 0x109D JUMP JUMPDEST SWAP3 POP DUP3 PUSH2 0xFBF JUMPI PUSH2 0xFBE PUSH2 0x11D6 JUMP JUMPDEST JUMPDEST DUP3 DUP3 DIV SWAP1 POP SWAP3 SWAP2 POP POP JUMP JUMPDEST PUSH1 0x0 PUSH2 0xFD5 DUP3 PUSH2 0x109D JUMP JUMPDEST SWAP2 POP PUSH2 0xFE0 DUP4 PUSH2 0x109D JUMP JUMPDEST SWAP3 POP DUP2 PUSH32 0xFFFFFFFFFFFFFFFFFFFFFFFFFFFFFFFFFFFFFFFFFFFFFFFFFFFFFFFFFFFFFFFF DIV DUP4 GT DUP3 ISZERO ISZERO AND ISZERO PUSH2 0x1019 JUMPI PUSH2 0x1018 PUSH2 0x11A7 JUMP JUMPDEST JUMPDEST DUP3 DUP3 MUL SWAP1 POP SWAP3 SWAP2 POP POP JUMP JUMPDEST PUSH1 0x0 PUSH2 0x102F DUP3 PUSH2 0x109D JUMP JUMPDEST SWAP2 POP PUSH2 0x103A DUP4 PUSH2 0x109D JUMP JUMPDEST SWAP3 POP DUP3 DUP3 LT ISZERO PUSH2 0x104D JUMPI PUSH2 0x104C PUSH2 0x11A7 JUMP JUMPDEST JUMPDEST DUP3 DUP3 SUB SWAP1 POP SWAP3 SWAP2 POP POP JUMP JUMPDEST PUSH1 0x0 PUSH2 0x1063 DUP3 PUSH2 0x107D JUMP JUMPDEST SWAP1 POP SWAP2 SWAP1 POP JUMP JUMPDEST PUSH1 0x0 DUP2 SWAP1 POP PUSH2 0x1078 DUP3 PUSH2 0x135E JUMP JUMPDEST SWAP2 SWAP1 POP JUMP JUMPDEST PUSH1 0x0 PUSH20 0xFFFFFFFFFFFFFFFFFFFFFFFFFFFFFFFFFFFFFFFF DUP3 AND SWAP1 POP SWAP2 SWAP1 POP JUMP JUMPDEST PUSH1 0x0 DUP2 SWAP1 POP SWAP2 SWAP1 POP JUMP JUMPDEST PUSH1 0x0 PUSH2 0x10B2 DUP3 PUSH2 0x106A JUMP JUMPDEST SWAP1 POP SWAP2 SWAP1 POP JUMP JUMPDEST DUP3 DUP2 DUP4 CALLDATACOPY PUSH1 0x0 DUP4 DUP4 ADD MSTORE POP POP POP JUMP JUMPDEST PUSH1 0x0 JUMPDEST DUP4 DUP2 LT ISZERO PUSH2 0x10E6 JUMPI DUP1 DUP3 ADD MLOAD DUP2 DUP5 ADD MSTORE PUSH1 0x20 DUP2 ADD SWAP1 POP PUSH2 0x10CB JUMP JUMPDEST DUP4 DUP2 GT ISZERO PUSH2 0x10F5 JUMPI PUSH1 0x0 DUP5 DUP5 ADD MSTORE JUMPDEST POP POP POP POP JUMP JUMPDEST PUSH1 0x0 PUSH1 0x2 DUP3 DIV SWAP1 POP PUSH1 0x1 DUP3 AND DUP1 PUSH2 0x1113 JUMPI PUSH1 0x7F DUP3 AND SWAP2 POP JUMPDEST PUSH1 0x20 DUP3 LT DUP2 EQ ISZERO PUSH2 0x1127 JUMPI PUSH2 0x1126 PUSH2 0x1234 JUMP JUMPDEST JUMPDEST POP SWAP2 SWAP1 POP JUMP JUMPDEST PUSH2 0x1136 DUP3 PUSH2 0x12D5 JUMP JUMPDEST DUP2 ADD DUP2 DUP2 LT PUSH8 0xFFFFFFFFFFFFFFFF DUP3 GT OR ISZERO PUSH2 0x1155 JUMPI PUSH2 0x1154 PUSH2 0x1292 JUMP JUMPDEST JUMPDEST DUP1 PUSH1 0x40 MSTORE POP POP POP JUMP JUMPDEST PUSH1 0x0 PUSH2 0x1169 DUP3 PUSH2 0x109D JUMP JUMPDEST SWAP2 POP PUSH32 0xFFFFFFFFFFFFFFFFFFFFFFFFFFFFFFFFFFFFFFFFFFFFFFFFFFFFFFFFFFFFFFFF DUP3 EQ ISZERO PUSH2 0x119C JUMPI PUSH2 0x119B PUSH2 0x11A7 JUMP JUMPDEST JUMPDEST PUSH1 0x1 DUP3 ADD SWAP1 POP SWAP2 SWAP1 POP JUMP JUMPDEST PUSH32 0x4E487B7100000000000000000000000000000000000000000000000000000000 PUSH1 0x0 MSTORE PUSH1 0x11 PUSH1 0x4 MSTORE PUSH1 0x24 PUSH1 0x0 REVERT JUMPDEST PUSH32 0x4E487B7100000000000000000000000000000000000000000000000000000000 PUSH1 0x0 MSTORE PUSH1 0x12 PUSH1 0x4 MSTORE PUSH1 0x24 PUSH1 0x0 REVERT JUMPDEST PUSH32 0x4E487B7100000000000000000000000000000000000000000000000000000000 PUSH1 0x0 MSTORE PUSH1 0x21 PUSH1 0x4 MSTORE PUSH1 0x24 PUSH1 0x0 REVERT JUMPDEST PUSH32 0x4E487B7100000000000000000000000000000000000000000000000000000000 PUSH1 0x0 MSTORE PUSH1 0x22 PUSH1 0x4 MSTORE PUSH1 0x24 PUSH1 0x0 REVERT JUMPDEST PUSH32 0x4E487B7100000000000000000000000000000000000000000000000000000000 PUSH1 0x0 MSTORE PUSH1 0x32 PUSH1 0x4 MSTORE PUSH1 0x24 PUSH1 0x0 REVERT JUMPDEST PUSH32 0x4E487B7100000000000000000000000000000000000000000000000000000000 PUSH1 0x0 MSTORE PUSH1 0x41 PUSH1 0x4 MSTORE PUSH1 0x24 PUSH1 0x0 REVERT JUMPDEST PUSH1 0x0 DUP1 REVERT JUMPDEST PUSH1 0x0 DUP1 REVERT JUMPDEST PUSH1 0x0 DUP1 REVERT JUMPDEST PUSH1 0x0 DUP1 REVERT JUMPDEST PUSH1 0x0 PUSH1 0x1F NOT PUSH1 0x1F DUP4 ADD AND SWAP1 POP SWAP2 SWAP1 POP JUMP JUMPDEST PUSH32 0x4F6E6C7920746865206465616C65722063616E20706179206F75742074686520 PUSH1 0x0 DUP3 ADD MSTORE PUSH32 0x77696E6E6572732E000000000000000000000000000000000000000000000000 PUSH1 0x20 DUP3 ADD MSTORE POP JUMP JUMPDEST PUSH32 0x546865206A6F696E696E67206665652069732032352065746865720000000000 PUSH1 0x0 DUP3 ADD MSTORE POP JUMP JUMPDEST PUSH1 0x3 DUP2 LT PUSH2 0x136F JUMPI PUSH2 0x136E PUSH2 0x1205 JUMP JUMPDEST JUMPDEST POP JUMP JUMPDEST PUSH2 0x137B DUP2 PUSH2 0x1058 JUMP JUMPDEST DUP2 EQ PUSH2 0x1386 JUMPI PUSH1 0x0 DUP1 REVERT JUMPDEST POP JUMP JUMPDEST PUSH2 0x1392 DUP2 PUSH2 0x109D JUMP JUMPDEST DUP2 EQ PUSH2 0x139D JUMPI PUSH1 0x0 DUP1 REVERT JUMPDEST POP JUMP INVALID LOG2 PUSH5 0x6970667358 0x22 SLT KECCAK256 0xCB SWAP1 0xB3 NOT 0xB4 CALLDATALOAD 0x25 0xAC CODECOPY EQ 0xD DUP16 DUP4 LOG1 DUP14 0xCD 0xD5 0x49 0xCB 0x24 RETURNDATACOPY LOG1 0xB8 SWAP16 LOG0 JUMP 0xF MULMOD PUSH1 0xFD PUSH16 0x7964736F6C6343000807003300000000 "
				},
				"gasEstimates": {
					"creation": {
						"codeDepositCost": "1015600",
						"executionCost": "35332",
						"totalCost": "1050932"
					},
					"external": {
						"changePlayerLevel(address)": "infinite",
						"dealer()": "2514",
						"getPlayerLevel(address)": "3064",
						"joinGame(string,string)": "infinite",
						"payOutWinners(address)": "infinite",
						"playerCount()": "2430",
						"players(address)": "infinite",
						"playersInGame(uint256)": "infinite",
						"pot()": "2474"
					},
					"internal": {
						"addPlayer(string memory,string memory)": "infinite"
					}
				},
				"methodIdentifiers": {
					"changePlayerLevel(address)": "8ddf0f7d",
					"dealer()": "9de2ee21",
					"getPlayerLevel(address)": "34b735a1",
					"joinGame(string,string)": "dbdef6f1",
					"payOutWinners(address)": "fed47dac",
					"playerCount()": "302bcc57",
					"players(address)": "e2eb41ff",
					"playersInGame(uint256)": "f9593e14",
					"pot()": "4ba2363a"
				}
			},
			"storageLayout": {
				"storage": [
					{
						"astId": 4,
						"contract": "contracts/SimpleMultSend.sol:myGame",
						"label": "playerCount",
						"offset": 0,
						"slot": "0",
						"type": "t_uint256"
					},
					{
						"astId": 7,
						"contract": "contracts/SimpleMultSend.sol:myGame",
						"label": "pot",
						"offset": 0,
						"slot": "1",
						"type": "t_uint256"
					},
					{
						"astId": 9,
						"contract": "contracts/SimpleMultSend.sol:myGame",
						"label": "dealer",
						"offset": 0,
						"slot": "2",
						"type": "t_address"
					},
					{
						"astId": 13,
						"contract": "contracts/SimpleMultSend.sol:myGame",
						"label": "playersInGame",
						"offset": 0,
						"slot": "3",
						"type": "t_array(t_struct(Player)34_storage)dyn_storage"
					},
					{
						"astId": 18,
						"contract": "contracts/SimpleMultSend.sol:myGame",
						"label": "players",
						"offset": 0,
						"slot": "4",
						"type": "t_mapping(t_address,t_struct(Player)34_storage)"
					}
				],
				"types": {
					"t_address": {
						"encoding": "inplace",
						"label": "address",
						"numberOfBytes": "20"
					},
					"t_array(t_struct(Player)34_storage)dyn_storage": {
						"base": "t_struct(Player)34_storage",
						"encoding": "dynamic_array",
						"label": "struct myGame.Player[]",
						"numberOfBytes": "32"
					},
					"t_enum(Level)22": {
						"encoding": "inplace",
						"label": "enum myGame.Level",
						"numberOfBytes": "1"
					},
					"t_mapping(t_address,t_struct(Player)34_storage)": {
						"encoding": "mapping",
						"key": "t_address",
						"label": "mapping(address => struct myGame.Player)",
						"numberOfBytes": "32",
						"value": "t_struct(Player)34_storage"
					},
					"t_string_storage": {
						"encoding": "bytes",
						"label": "string",
						"numberOfBytes": "32"
					},
					"t_struct(Player)34_storage": {
						"encoding": "inplace",
						"label": "struct myGame.Player",
						"members": [
							{
								"astId": 24,
								"contract": "contracts/SimpleMultSend.sol:myGame",
								"label": "playerAddress",
								"offset": 0,
								"slot": "0",
								"type": "t_address"
							},
							{
								"astId": 27,
								"contract": "contracts/SimpleMultSend.sol:myGame",
								"label": "playerLevel",
								"offset": 20,
								"slot": "0",
								"type": "t_enum(Level)22"
							},
							{
								"astId": 29,
								"contract": "contracts/SimpleMultSend.sol:myGame",
								"label": "firstName",
								"offset": 0,
								"slot": "1",
								"type": "t_string_storage"
							},
							{
								"astId": 31,
								"contract": "contracts/SimpleMultSend.sol:myGame",
								"label": "lastName",
								"offset": 0,
								"slot": "2",
								"type": "t_string_storage"
							},
							{
								"astId": 33,
								"contract": "contracts/SimpleMultSend.sol:myGame",
								"label": "createdTime",
								"offset": 0,
								"slot": "3",
								"type": "t_uint256"
							}
						],
						"numberOfBytes": "128"
					},
					"t_uint256": {
						"encoding": "inplace",
						"label": "uint256",
						"numberOfBytes": "32"
					}
				}
			},
			"userdoc": {
				"kind": "user",
				"methods": {},
				"version": 1
			}
		}
	}
}