{
	"contracts/DataTypes.sol": {
		"myContract": {
			"abi": [
				{
					"inputs": [],
					"name": "myInt",
					"outputs": [
						{
							"internalType": "int256",
							"name": "",
							"type": "int256"
						}
					],
					"stateMutability": "view",
					"type": "function"
				},
				{
					"inputs": [],
					"name": "myUint",
					"outputs": [
						{
							"internalType": "uint256",
							"name": "",
							"type": "uint256"
						}
					],
					"stateMutability": "view",
					"type": "function"
				}
			],
			"devdoc": {
				"kind": "dev",
				"methods": {},
				"version": 1
			},
			"evm": {
				"assembly": "    /* \"contracts/DataTypes.sol\":67:150  contract myContract {... */\n  mstore(0x40, 0x80)\n    /* \"contracts/DataTypes.sol\":114:115  1 */\n  0x01\n    /* \"contracts/DataTypes.sol\":93:115  uint public myUint = 1 */\n  0x00\n  sstore\n    /* \"contracts/DataTypes.sol\":140:142  -1 */\n  0xffffffffffffffffffffffffffffffffffffffffffffffffffffffffffffffff\n    /* \"contracts/DataTypes.sol\":121:142  int public myInt = -1 */\n  0x01\n  sstore\n    /* \"contracts/DataTypes.sol\":67:150  contract myContract {... */\n  callvalue\n  dup1\n  iszero\n  tag_1\n  jumpi\n  0x00\n  dup1\n  revert\ntag_1:\n  pop\n  dataSize(sub_0)\n  dup1\n  dataOffset(sub_0)\n  0x00\n  codecopy\n  0x00\n  return\nstop\n\nsub_0: assembly {\n        /* \"contracts/DataTypes.sol\":67:150  contract myContract {... */\n      mstore(0x40, 0x80)\n      callvalue\n      dup1\n      iszero\n      tag_1\n      jumpi\n      0x00\n      dup1\n      revert\n    tag_1:\n      pop\n      jumpi(tag_2, lt(calldatasize, 0x04))\n      shr(0xe0, calldataload(0x00))\n      dup1\n      0x06540f7e\n      eq\n      tag_3\n      jumpi\n      dup1\n      0x2cb777a6\n      eq\n      tag_4\n      jumpi\n    tag_2:\n      0x00\n      dup1\n      revert\n        /* \"contracts/DataTypes.sol\":93:115  uint public myUint = 1 */\n    tag_3:\n      tag_5\n      tag_6\n      jump\t// in\n    tag_5:\n      mload(0x40)\n      tag_7\n      swap2\n      swap1\n      tag_8\n      jump\t// in\n    tag_7:\n      mload(0x40)\n      dup1\n      swap2\n      sub\n      swap1\n      return\n        /* \"contracts/DataTypes.sol\":121:142  int public myInt = -1 */\n    tag_4:\n      tag_9\n      tag_10\n      jump\t// in\n    tag_9:\n      mload(0x40)\n      tag_11\n      swap2\n      swap1\n      tag_12\n      jump\t// in\n    tag_11:\n      mload(0x40)\n      dup1\n      swap2\n      sub\n      swap1\n      return\n        /* \"contracts/DataTypes.sol\":93:115  uint public myUint = 1 */\n    tag_6:\n      sload(0x00)\n      dup2\n      jump\t// out\n        /* \"contracts/DataTypes.sol\":121:142  int public myInt = -1 */\n    tag_10:\n      sload(0x01)\n      dup2\n      jump\t// out\n        /* \"#utility.yul\":7:122   */\n    tag_14:\n        /* \"#utility.yul\":92:115   */\n      tag_16\n        /* \"#utility.yul\":109:114   */\n      dup2\n        /* \"#utility.yul\":92:115   */\n      tag_17\n      jump\t// in\n    tag_16:\n        /* \"#utility.yul\":87:90   */\n      dup3\n        /* \"#utility.yul\":80:116   */\n      mstore\n        /* \"#utility.yul\":7:122   */\n      pop\n      pop\n      jump\t// out\n        /* \"#utility.yul\":128:246   */\n    tag_18:\n        /* \"#utility.yul\":215:239   */\n      tag_20\n        /* \"#utility.yul\":233:238   */\n      dup2\n        /* \"#utility.yul\":215:239   */\n      tag_21\n      jump\t// in\n    tag_20:\n        /* \"#utility.yul\":210:213   */\n      dup3\n        /* \"#utility.yul\":203:240   */\n      mstore\n        /* \"#utility.yul\":128:246   */\n      pop\n      pop\n      jump\t// out\n        /* \"#utility.yul\":252:470   */\n    tag_12:\n        /* \"#utility.yul\":343:347   */\n      0x00\n        /* \"#utility.yul\":381:383   */\n      0x20\n        /* \"#utility.yul\":370:379   */\n      dup3\n        /* \"#utility.yul\":366:384   */\n      add\n        /* \"#utility.yul\":358:384   */\n      swap1\n      pop\n        /* \"#utility.yul\":394:463   */\n      tag_23\n        /* \"#utility.yul\":460:461   */\n      0x00\n        /* \"#utility.yul\":449:458   */\n      dup4\n        /* \"#utility.yul\":445:462   */\n      add\n        /* \"#utility.yul\":436:442   */\n      dup5\n        /* \"#utility.yul\":394:463   */\n      tag_14\n      jump\t// in\n    tag_23:\n        /* \"#utility.yul\":252:470   */\n      swap3\n      swap2\n      pop\n      pop\n      jump\t// out\n        /* \"#utility.yul\":476:698   */\n    tag_8:\n        /* \"#utility.yul\":569:573   */\n      0x00\n        /* \"#utility.yul\":607:609   */\n      0x20\n        /* \"#utility.yul\":596:605   */\n      dup3\n        /* \"#utility.yul\":592:610   */\n      add\n        /* \"#utility.yul\":584:610   */\n      swap1\n      pop\n        /* \"#utility.yul\":620:691   */\n      tag_25\n        /* \"#utility.yul\":688:689   */\n      0x00\n        /* \"#utility.yul\":677:686   */\n      dup4\n        /* \"#utility.yul\":673:690   */\n      add\n        /* \"#utility.yul\":664:670   */\n      dup5\n        /* \"#utility.yul\":620:691   */\n      tag_18\n      jump\t// in\n    tag_25:\n        /* \"#utility.yul\":476:698   */\n      swap3\n      swap2\n      pop\n      pop\n      jump\t// out\n        /* \"#utility.yul\":704:780   */\n    tag_17:\n        /* \"#utility.yul\":740:747   */\n      0x00\n        /* \"#utility.yul\":769:774   */\n      dup2\n        /* \"#utility.yul\":758:774   */\n      swap1\n      pop\n        /* \"#utility.yul\":704:780   */\n      swap2\n      swap1\n      pop\n      jump\t// out\n        /* \"#utility.yul\":786:863   */\n    tag_21:\n        /* \"#utility.yul\":823:830   */\n      0x00\n        /* \"#utility.yul\":852:857   */\n      dup2\n        /* \"#utility.yul\":841:857   */\n      swap1\n      pop\n        /* \"#utility.yul\":786:863   */\n      swap2\n      swap1\n      pop\n      jump\t// out\n\n    auxdata: 0xa2646970667358221220ae5824077650d5317a405cb2056f5fe1b7d9d14f632236a6b7c294411debf37764736f6c63430008070033\n}\n",
				"bytecode": {
					"linkReferences": {},
					"object": "608060405260016000557fffffffffffffffffffffffffffffffffffffffffffffffffffffffffffffffff60015534801561003957600080fd5b5061010d806100496000396000f3fe6080604052348015600f57600080fd5b506004361060325760003560e01c806306540f7e1460375780632cb777a6146051575b600080fd5b603d606b565b6040516048919060aa565b60405180910390f35b60576071565b604051606291906091565b60405180910390f35b60005481565b60015481565b607e8160c3565b82525050565b608b8160cd565b82525050565b600060208201905060a460008301846077565b92915050565b600060208201905060bd60008301846084565b92915050565b6000819050919050565b600081905091905056fea2646970667358221220ae5824077650d5317a405cb2056f5fe1b7d9d14f632236a6b7c294411debf37764736f6c63430008070033",
					"opcodes": "PUSH1 0x80 PUSH1 0x40 MSTORE PUSH1 0x1 PUSH1 0x0 SSTORE PUSH32 0xFFFFFFFFFFFFFFFFFFFFFFFFFFFFFFFFFFFFFFFFFFFFFFFFFFFFFFFFFFFFFFFF PUSH1 0x1 SSTORE CALLVALUE DUP1 ISZERO PUSH2 0x39 JUMPI PUSH1 0x0 DUP1 REVERT JUMPDEST POP PUSH2 0x10D DUP1 PUSH2 0x49 PUSH1 0x0 CODECOPY PUSH1 0x0 RETURN INVALID PUSH1 0x80 PUSH1 0x40 MSTORE CALLVALUE DUP1 ISZERO PUSH1 0xF JUMPI PUSH1 0x0 DUP1 REVERT JUMPDEST POP PUSH1 0x4 CALLDATASIZE LT PUSH1 0x32 JUMPI PUSH1 0x0 CALLDATALOAD PUSH1 0xE0 SHR DUP1 PUSH4 0x6540F7E EQ PUSH1 0x37 JUMPI DUP1 PUSH4 0x2CB777A6 EQ PUSH1 0x51 JUMPI JUMPDEST PUSH1 0x0 DUP1 REVERT JUMPDEST PUSH1 0x3D PUSH1 0x6B JUMP JUMPDEST PUSH1 0x40 MLOAD PUSH1 0x48 SWAP2 SWAP1 PUSH1 0xAA JUMP JUMPDEST PUSH1 0x40 MLOAD DUP1 SWAP2 SUB SWAP1 RETURN JUMPDEST PUSH1 0x57 PUSH1 0x71 JUMP JUMPDEST PUSH1 0x40 MLOAD PUSH1 0x62 SWAP2 SWAP1 PUSH1 0x91 JUMP JUMPDEST PUSH1 0x40 MLOAD DUP1 SWAP2 SUB SWAP1 RETURN JUMPDEST PUSH1 0x0 SLOAD DUP2 JUMP JUMPDEST PUSH1 0x1 SLOAD DUP2 JUMP JUMPDEST PUSH1 0x7E DUP2 PUSH1 0xC3 JUMP JUMPDEST DUP3 MSTORE POP POP JUMP JUMPDEST PUSH1 0x8B DUP2 PUSH1 0xCD JUMP JUMPDEST DUP3 MSTORE POP POP JUMP JUMPDEST PUSH1 0x0 PUSH1 0x20 DUP3 ADD SWAP1 POP PUSH1 0xA4 PUSH1 0x0 DUP4 ADD DUP5 PUSH1 0x77 JUMP JUMPDEST SWAP3 SWAP2 POP POP JUMP JUMPDEST PUSH1 0x0 PUSH1 0x20 DUP3 ADD SWAP1 POP PUSH1 0xBD PUSH1 0x0 DUP4 ADD DUP5 PUSH1 0x84 JUMP JUMPDEST SWAP3 SWAP2 POP POP JUMP JUMPDEST PUSH1 0x0 DUP2 SWAP1 POP SWAP2 SWAP1 POP JUMP JUMPDEST PUSH1 0x0 DUP2 SWAP1 POP SWAP2 SWAP1 POP JUMP INVALID LOG2 PUSH5 0x6970667358 0x22 SLT KECCAK256 0xAE PC 0x24 SMOD PUSH23 0x50D5317A405CB2056F5FE1B7D9D14F632236A6B7C29441 SAR 0xEB RETURN PUSH24 0x64736F6C6343000807003300000000000000000000000000 "
				},
				"gasEstimates": {
					"creation": {
						"codeDepositCost": "53800",
						"executionCost": "44317",
						"totalCost": "98117"
					},
					"external": {
						"myInt()": "2429",
						"myUint()": "2407"
					}
				},
				"methodIdentifiers": {
					"myInt()": "2cb777a6",
					"myUint()": "06540f7e"
				}
			},
			"storageLayout": {
				"storage": [
					{
						"astId": 4,
						"contract": "contracts/DataTypes.sol:myContract",
						"label": "myUint",
						"offset": 0,
						"slot": "0",
						"type": "t_uint256"
					},
					{
						"astId": 8,
						"contract": "contracts/DataTypes.sol:myContract",
						"label": "myInt",
						"offset": 0,
						"slot": "1",
						"type": "t_int256"
					}
				],
				"types": {
					"t_int256": {
						"encoding": "inplace",
						"label": "int256",
						"numberOfBytes": "32"
					},
					"t_uint256": {
						"encoding": "inplace",
						"label": "uint256",
						"numberOfBytes": "32"
					}
				}
			},
			"userdoc": {
				"kind": "user",
				"methods": {},
				"version": 1
			}
		}
	}
}