{
	"contracts/DataTypes.sol": {
		"myGame": {
			"abi": [
				{
					"inputs": [
						{
							"internalType": "string",
							"name": "firstName",
							"type": "string"
						},
						{
							"internalType": "string",
							"name": "lastName",
							"type": "string"
						}
					],
					"name": "addPlayer",
					"outputs": [],
					"stateMutability": "nonpayable",
					"type": "function"
				},
				{
					"inputs": [],
					"name": "playerCount",
					"outputs": [
						{
							"internalType": "uint256",
							"name": "",
							"type": "uint256"
						}
					],
					"stateMutability": "view",
					"type": "function"
				},
				{
					"inputs": [
						{
							"internalType": "address",
							"name": "",
							"type": "address"
						}
					],
					"name": "players",
					"outputs": [
						{
							"internalType": "address",
							"name": "playerAddress",
							"type": "address"
						},
						{
							"internalType": "enum myGame.Level",
							"name": "playerLevel",
							"type": "uint8"
						},
						{
							"internalType": "string",
							"name": "firstName",
							"type": "string"
						},
						{
							"internalType": "string",
							"name": "lastName",
							"type": "string"
						}
					],
					"stateMutability": "view",
					"type": "function"
				}
			],
			"devdoc": {
				"kind": "dev",
				"methods": {},
				"version": 1
			},
			"evm": {
				"assembly": "    /* \"contracts/DataTypes.sol\":67:556  contract myGame {... */\n  mstore(0x40, 0x80)\n    /* \"contracts/DataTypes.sol\":116:117  0 */\n  0x00\n    /* \"contracts/DataTypes.sol\":90:117  uint public playerCount = 0 */\n  dup1\n  sstore\n    /* \"contracts/DataTypes.sol\":67:556  contract myGame {... */\n  callvalue\n  dup1\n  iszero\n  tag_1\n  jumpi\n  0x00\n  dup1\n  revert\ntag_1:\n  pop\n  dataSize(sub_0)\n  dup1\n  dataOffset(sub_0)\n  0x00\n  codecopy\n  0x00\n  return\nstop\n\nsub_0: assembly {\n        /* \"contracts/DataTypes.sol\":67:556  contract myGame {... */\n      mstore(0x40, 0x80)\n      callvalue\n      dup1\n      iszero\n      tag_1\n      jumpi\n      0x00\n      dup1\n      revert\n    tag_1:\n      pop\n      jumpi(tag_2, lt(calldatasize, 0x04))\n      shr(0xe0, calldataload(0x00))\n      dup1\n      0x302bcc57\n      eq\n      tag_3\n      jumpi\n      dup1\n      0x5cb119a9\n      eq\n      tag_4\n      jumpi\n      dup1\n      0xe2eb41ff\n      eq\n      tag_5\n      jumpi\n    tag_2:\n      0x00\n      dup1\n      revert\n        /* \"contracts/DataTypes.sol\":90:117  uint public playerCount = 0 */\n    tag_3:\n      tag_6\n      tag_7\n      jump\t// in\n    tag_6:\n      mload(0x40)\n      tag_8\n      swap2\n      swap1\n      tag_9\n      jump\t// in\n    tag_8:\n      mload(0x40)\n      dup1\n      swap2\n      sub\n      swap1\n      return\n        /* \"contracts/DataTypes.sol\":361:554  function addPlayer(string memory firstName, string memory lastName) public {... */\n    tag_4:\n      tag_10\n      0x04\n      dup1\n      calldatasize\n      sub\n      dup2\n      add\n      swap1\n      tag_11\n      swap2\n      swap1\n      tag_12\n      jump\t// in\n    tag_11:\n      tag_13\n      jump\t// in\n    tag_10:\n      stop\n        /* \"contracts/DataTypes.sol\":123:165  mapping (address => Player) public players */\n    tag_5:\n      tag_14\n      0x04\n      dup1\n      calldatasize\n      sub\n      dup2\n      add\n      swap1\n      tag_15\n      swap2\n      swap1\n      tag_16\n      jump\t// in\n    tag_15:\n      tag_17\n      jump\t// in\n    tag_14:\n      mload(0x40)\n      tag_18\n      swap5\n      swap4\n      swap3\n      swap2\n      swap1\n      tag_19\n      jump\t// in\n    tag_18:\n      mload(0x40)\n      dup1\n      swap2\n      sub\n      swap1\n      return\n        /* \"contracts/DataTypes.sol\":90:117  uint public playerCount = 0 */\n    tag_7:\n      sload(0x00)\n      dup2\n      jump\t// out\n        /* \"contracts/DataTypes.sol\":361:554  function addPlayer(string memory firstName, string memory lastName) public {... */\n    tag_13:\n        /* \"contracts/DataTypes.sol\":468:521  Player(msg.sender, Level.Novice, firstName, lastName) */\n      mload(0x40)\n      dup1\n      0x80\n      add\n      0x40\n      mstore\n      dup1\n        /* \"contracts/DataTypes.sol\":475:485  msg.sender */\n      caller\n        /* \"contracts/DataTypes.sol\":468:521  Player(msg.sender, Level.Novice, firstName, lastName) */\n      0xffffffffffffffffffffffffffffffffffffffff\n      and\n      dup2\n      mstore\n      0x20\n      add\n        /* \"contracts/DataTypes.sol\":487:499  Level.Novice */\n      0x00\n        /* \"contracts/DataTypes.sol\":468:521  Player(msg.sender, Level.Novice, firstName, lastName) */\n      0x02\n      dup2\n      gt\n      iszero\n      tag_21\n      jumpi\n      tag_22\n      tag_23\n      jump\t// in\n    tag_22:\n    tag_21:\n      dup2\n      mstore\n      0x20\n      add\n        /* \"contracts/DataTypes.sol\":501:510  firstName */\n      dup4\n        /* \"contracts/DataTypes.sol\":468:521  Player(msg.sender, Level.Novice, firstName, lastName) */\n      dup2\n      mstore\n      0x20\n      add\n        /* \"contracts/DataTypes.sol\":512:520  lastName */\n      dup3\n        /* \"contracts/DataTypes.sol\":468:521  Player(msg.sender, Level.Novice, firstName, lastName) */\n      dup2\n      mstore\n      pop\n        /* \"contracts/DataTypes.sol\":446:453  players */\n      0x01\n        /* \"contracts/DataTypes.sol\":446:465  players[msg.sender] */\n      0x00\n        /* \"contracts/DataTypes.sol\":454:464  msg.sender */\n      caller\n        /* \"contracts/DataTypes.sol\":446:465  players[msg.sender] */\n      0xffffffffffffffffffffffffffffffffffffffff\n      and\n      0xffffffffffffffffffffffffffffffffffffffff\n      and\n      dup2\n      mstore\n      0x20\n      add\n      swap1\n      dup2\n      mstore\n      0x20\n      add\n      0x00\n      keccak256\n        /* \"contracts/DataTypes.sol\":446:521  players[msg.sender] = Player(msg.sender, Level.Novice, firstName, lastName) */\n      0x00\n      dup3\n      add\n      mload\n      dup2\n      0x00\n      add\n      exp(0x0100, 0x00)\n      dup2\n      sload\n      dup2\n      0xffffffffffffffffffffffffffffffffffffffff\n      mul\n      not\n      and\n      swap1\n      dup4\n      0xffffffffffffffffffffffffffffffffffffffff\n      and\n      mul\n      or\n      swap1\n      sstore\n      pop\n      0x20\n      dup3\n      add\n      mload\n      dup2\n      0x00\n      add\n      exp(0x0100, 0x14)\n      dup2\n      sload\n      dup2\n      0xff\n      mul\n      not\n      and\n      swap1\n      dup4\n      0x02\n      dup2\n      gt\n      iszero\n      tag_24\n      jumpi\n      tag_25\n      tag_23\n      jump\t// in\n    tag_25:\n    tag_24:\n      mul\n      or\n      swap1\n      sstore\n      pop\n      0x40\n      dup3\n      add\n      mload\n      dup2\n      0x01\n      add\n      swap1\n      dup1\n      mload\n      swap1\n      0x20\n      add\n      swap1\n      tag_26\n      swap3\n      swap2\n      swap1\n      tag_27\n      jump\t// in\n    tag_26:\n      pop\n      0x60\n      dup3\n      add\n      mload\n      dup2\n      0x02\n      add\n      swap1\n      dup1\n      mload\n      swap1\n      0x20\n      add\n      swap1\n      tag_28\n      swap3\n      swap2\n      swap1\n      tag_27\n      jump\t// in\n    tag_28:\n      pop\n      swap1\n      pop\n      pop\n        /* \"contracts/DataTypes.sol\":546:547  1 */\n      0x01\n        /* \"contracts/DataTypes.sol\":531:542  playerCount */\n      0x00\n      dup1\n        /* \"contracts/DataTypes.sol\":531:547  playerCount += 1 */\n      dup3\n      dup3\n      sload\n      tag_29\n      swap2\n      swap1\n      tag_30\n      jump\t// in\n    tag_29:\n      swap3\n      pop\n      pop\n      dup2\n      swap1\n      sstore\n      pop\n        /* \"contracts/DataTypes.sol\":361:554  function addPlayer(string memory firstName, string memory lastName) public {... */\n      pop\n      pop\n      jump\t// out\n        /* \"contracts/DataTypes.sol\":123:165  mapping (address => Player) public players */\n    tag_17:\n      mstore(0x20, 0x01)\n      dup1\n      0x00\n      mstore\n      keccak256(0x00, 0x40)\n      0x00\n      swap2\n      pop\n      swap1\n      pop\n      dup1\n      0x00\n      add\n      0x00\n      swap1\n      sload\n      swap1\n      0x0100\n      exp\n      swap1\n      div\n      0xffffffffffffffffffffffffffffffffffffffff\n      and\n      swap1\n      dup1\n      0x00\n      add\n      0x14\n      swap1\n      sload\n      swap1\n      0x0100\n      exp\n      swap1\n      div\n      0xff\n      and\n      swap1\n      dup1\n      0x01\n      add\n      dup1\n      sload\n      tag_31\n      swap1\n      tag_32\n      jump\t// in\n    tag_31:\n      dup1\n      0x1f\n      add\n      0x20\n      dup1\n      swap2\n      div\n      mul\n      0x20\n      add\n      mload(0x40)\n      swap1\n      dup2\n      add\n      0x40\n      mstore\n      dup1\n      swap3\n      swap2\n      swap1\n      dup2\n      dup2\n      mstore\n      0x20\n      add\n      dup3\n      dup1\n      sload\n      tag_33\n      swap1\n      tag_32\n      jump\t// in\n    tag_33:\n      dup1\n      iszero\n      tag_34\n      jumpi\n      dup1\n      0x1f\n      lt\n      tag_35\n      jumpi\n      0x0100\n      dup1\n      dup4\n      sload\n      div\n      mul\n      dup4\n      mstore\n      swap2\n      0x20\n      add\n      swap2\n      jump(tag_34)\n    tag_35:\n      dup3\n      add\n      swap2\n      swap1\n      0x00\n      mstore\n      keccak256(0x00, 0x20)\n      swap1\n    tag_36:\n      dup2\n      sload\n      dup2\n      mstore\n      swap1\n      0x01\n      add\n      swap1\n      0x20\n      add\n      dup1\n      dup4\n      gt\n      tag_36\n      jumpi\n      dup3\n      swap1\n      sub\n      0x1f\n      and\n      dup3\n      add\n      swap2\n    tag_34:\n      pop\n      pop\n      pop\n      pop\n      pop\n      swap1\n      dup1\n      0x02\n      add\n      dup1\n      sload\n      tag_37\n      swap1\n      tag_32\n      jump\t// in\n    tag_37:\n      dup1\n      0x1f\n      add\n      0x20\n      dup1\n      swap2\n      div\n      mul\n      0x20\n      add\n      mload(0x40)\n      swap1\n      dup2\n      add\n      0x40\n      mstore\n      dup1\n      swap3\n      swap2\n      swap1\n      dup2\n      dup2\n      mstore\n      0x20\n      add\n      dup3\n      dup1\n      sload\n      tag_38\n      swap1\n      tag_32\n      jump\t// in\n    tag_38:\n      dup1\n      iszero\n      tag_39\n      jumpi\n      dup1\n      0x1f\n      lt\n      tag_40\n      jumpi\n      0x0100\n      dup1\n      dup4\n      sload\n      div\n      mul\n      dup4\n      mstore\n      swap2\n      0x20\n      add\n      swap2\n      jump(tag_39)\n    tag_40:\n      dup3\n      add\n      swap2\n      swap1\n      0x00\n      mstore\n      keccak256(0x00, 0x20)\n      swap1\n    tag_41:\n      dup2\n      sload\n      dup2\n      mstore\n      swap1\n      0x01\n      add\n      swap1\n      0x20\n      add\n      dup1\n      dup4\n      gt\n      tag_41\n      jumpi\n      dup3\n      swap1\n      sub\n      0x1f\n      and\n      dup3\n      add\n      swap2\n    tag_39:\n      pop\n      pop\n      pop\n      pop\n      pop\n      swap1\n      pop\n      dup5\n      jump\t// out\n    tag_27:\n      dup3\n      dup1\n      sload\n      tag_42\n      swap1\n      tag_32\n      jump\t// in\n    tag_42:\n      swap1\n      0x00\n      mstore\n      keccak256(0x00, 0x20)\n      swap1\n      0x1f\n      add\n      0x20\n      swap1\n      div\n      dup2\n      add\n      swap3\n      dup3\n      tag_44\n      jumpi\n      0x00\n      dup6\n      sstore\n      jump(tag_43)\n    tag_44:\n      dup3\n      0x1f\n      lt\n      tag_45\n      jumpi\n      dup1\n      mload\n      not(0xff)\n      and\n      dup4\n      dup1\n      add\n      or\n      dup6\n      sstore\n      jump(tag_43)\n    tag_45:\n      dup3\n      dup1\n      add\n      0x01\n      add\n      dup6\n      sstore\n      dup3\n      iszero\n      tag_43\n      jumpi\n      swap2\n      dup3\n      add\n    tag_46:\n      dup3\n      dup2\n      gt\n      iszero\n      tag_47\n      jumpi\n      dup3\n      mload\n      dup3\n      sstore\n      swap2\n      0x20\n      add\n      swap2\n      swap1\n      0x01\n      add\n      swap1\n      jump(tag_46)\n    tag_47:\n    tag_43:\n      pop\n      swap1\n      pop\n      tag_48\n      swap2\n      swap1\n      tag_49\n      jump\t// in\n    tag_48:\n      pop\n      swap1\n      jump\t// out\n    tag_49:\n    tag_50:\n      dup1\n      dup3\n      gt\n      iszero\n      tag_51\n      jumpi\n      0x00\n      dup2\n      0x00\n      swap1\n      sstore\n      pop\n      0x01\n      add\n      jump(tag_50)\n    tag_51:\n      pop\n      swap1\n      jump\t// out\n        /* \"#utility.yul\":7:419   */\n    tag_53:\n        /* \"#utility.yul\":85:90   */\n      0x00\n        /* \"#utility.yul\":110:176   */\n      tag_55\n        /* \"#utility.yul\":126:175   */\n      tag_56\n        /* \"#utility.yul\":168:174   */\n      dup5\n        /* \"#utility.yul\":126:175   */\n      tag_57\n      jump\t// in\n    tag_56:\n        /* \"#utility.yul\":110:176   */\n      tag_58\n      jump\t// in\n    tag_55:\n        /* \"#utility.yul\":101:176   */\n      swap1\n      pop\n        /* \"#utility.yul\":199:205   */\n      dup3\n        /* \"#utility.yul\":192:197   */\n      dup2\n        /* \"#utility.yul\":185:206   */\n      mstore\n        /* \"#utility.yul\":237:241   */\n      0x20\n        /* \"#utility.yul\":230:235   */\n      dup2\n        /* \"#utility.yul\":226:242   */\n      add\n        /* \"#utility.yul\":275:278   */\n      dup5\n        /* \"#utility.yul\":266:272   */\n      dup5\n        /* \"#utility.yul\":261:264   */\n      dup5\n        /* \"#utility.yul\":257:273   */\n      add\n        /* \"#utility.yul\":254:279   */\n      gt\n        /* \"#utility.yul\":251:363   */\n      iszero\n      tag_59\n      jumpi\n        /* \"#utility.yul\":282:361   */\n      tag_60\n      tag_61\n      jump\t// in\n    tag_60:\n        /* \"#utility.yul\":251:363   */\n    tag_59:\n        /* \"#utility.yul\":372:413   */\n      tag_62\n        /* \"#utility.yul\":406:412   */\n      dup5\n        /* \"#utility.yul\":401:404   */\n      dup3\n        /* \"#utility.yul\":396:399   */\n      dup6\n        /* \"#utility.yul\":372:413   */\n      tag_63\n      jump\t// in\n    tag_62:\n        /* \"#utility.yul\":91:419   */\n      pop\n        /* \"#utility.yul\":7:419   */\n      swap4\n      swap3\n      pop\n      pop\n      pop\n      jump\t// out\n        /* \"#utility.yul\":425:564   */\n    tag_64:\n        /* \"#utility.yul\":471:476   */\n      0x00\n        /* \"#utility.yul\":509:515   */\n      dup2\n        /* \"#utility.yul\":496:516   */\n      calldataload\n        /* \"#utility.yul\":487:516   */\n      swap1\n      pop\n        /* \"#utility.yul\":525:558   */\n      tag_66\n        /* \"#utility.yul\":552:557   */\n      dup2\n        /* \"#utility.yul\":525:558   */\n      tag_67\n      jump\t// in\n    tag_66:\n        /* \"#utility.yul\":425:564   */\n      swap3\n      swap2\n      pop\n      pop\n      jump\t// out\n        /* \"#utility.yul\":584:924   */\n    tag_68:\n        /* \"#utility.yul\":640:645   */\n      0x00\n        /* \"#utility.yul\":689:692   */\n      dup3\n        /* \"#utility.yul\":682:686   */\n      0x1f\n        /* \"#utility.yul\":674:680   */\n      dup4\n        /* \"#utility.yul\":670:687   */\n      add\n        /* \"#utility.yul\":666:693   */\n      slt\n        /* \"#utility.yul\":656:778   */\n      tag_70\n      jumpi\n        /* \"#utility.yul\":697:776   */\n      tag_71\n      tag_72\n      jump\t// in\n    tag_71:\n        /* \"#utility.yul\":656:778   */\n    tag_70:\n        /* \"#utility.yul\":814:820   */\n      dup2\n        /* \"#utility.yul\":801:821   */\n      calldataload\n        /* \"#utility.yul\":839:918   */\n      tag_73\n        /* \"#utility.yul\":914:917   */\n      dup5\n        /* \"#utility.yul\":906:912   */\n      dup3\n        /* \"#utility.yul\":899:903   */\n      0x20\n        /* \"#utility.yul\":891:897   */\n      dup7\n        /* \"#utility.yul\":887:904   */\n      add\n        /* \"#utility.yul\":839:918   */\n      tag_53\n      jump\t// in\n    tag_73:\n        /* \"#utility.yul\":830:918   */\n      swap2\n      pop\n        /* \"#utility.yul\":646:924   */\n      pop\n        /* \"#utility.yul\":584:924   */\n      swap3\n      swap2\n      pop\n      pop\n      jump\t// out\n        /* \"#utility.yul\":930:1259   */\n    tag_16:\n        /* \"#utility.yul\":989:995   */\n      0x00\n        /* \"#utility.yul\":1038:1040   */\n      0x20\n        /* \"#utility.yul\":1026:1035   */\n      dup3\n        /* \"#utility.yul\":1017:1024   */\n      dup5\n        /* \"#utility.yul\":1013:1036   */\n      sub\n        /* \"#utility.yul\":1009:1041   */\n      slt\n        /* \"#utility.yul\":1006:1125   */\n      iszero\n      tag_75\n      jumpi\n        /* \"#utility.yul\":1044:1123   */\n      tag_76\n      tag_77\n      jump\t// in\n    tag_76:\n        /* \"#utility.yul\":1006:1125   */\n    tag_75:\n        /* \"#utility.yul\":1164:1165   */\n      0x00\n        /* \"#utility.yul\":1189:1242   */\n      tag_78\n        /* \"#utility.yul\":1234:1241   */\n      dup5\n        /* \"#utility.yul\":1225:1231   */\n      dup3\n        /* \"#utility.yul\":1214:1223   */\n      dup6\n        /* \"#utility.yul\":1210:1232   */\n      add\n        /* \"#utility.yul\":1189:1242   */\n      tag_64\n      jump\t// in\n    tag_78:\n        /* \"#utility.yul\":1179:1242   */\n      swap2\n      pop\n        /* \"#utility.yul\":1135:1252   */\n      pop\n        /* \"#utility.yul\":930:1259   */\n      swap3\n      swap2\n      pop\n      pop\n      jump\t// out\n        /* \"#utility.yul\":1265:2099   */\n    tag_12:\n        /* \"#utility.yul\":1353:1359   */\n      0x00\n        /* \"#utility.yul\":1361:1367   */\n      dup1\n        /* \"#utility.yul\":1410:1412   */\n      0x40\n        /* \"#utility.yul\":1398:1407   */\n      dup4\n        /* \"#utility.yul\":1389:1396   */\n      dup6\n        /* \"#utility.yul\":1385:1408   */\n      sub\n        /* \"#utility.yul\":1381:1413   */\n      slt\n        /* \"#utility.yul\":1378:1497   */\n      iszero\n      tag_80\n      jumpi\n        /* \"#utility.yul\":1416:1495   */\n      tag_81\n      tag_77\n      jump\t// in\n    tag_81:\n        /* \"#utility.yul\":1378:1497   */\n    tag_80:\n        /* \"#utility.yul\":1564:1565   */\n      0x00\n        /* \"#utility.yul\":1553:1562   */\n      dup4\n        /* \"#utility.yul\":1549:1566   */\n      add\n        /* \"#utility.yul\":1536:1567   */\n      calldataload\n        /* \"#utility.yul\":1594:1612   */\n      0xffffffffffffffff\n        /* \"#utility.yul\":1586:1592   */\n      dup2\n        /* \"#utility.yul\":1583:1613   */\n      gt\n        /* \"#utility.yul\":1580:1697   */\n      iszero\n      tag_82\n      jumpi\n        /* \"#utility.yul\":1616:1695   */\n      tag_83\n      tag_84\n      jump\t// in\n    tag_83:\n        /* \"#utility.yul\":1580:1697   */\n    tag_82:\n        /* \"#utility.yul\":1721:1784   */\n      tag_85\n        /* \"#utility.yul\":1776:1783   */\n      dup6\n        /* \"#utility.yul\":1767:1773   */\n      dup3\n        /* \"#utility.yul\":1756:1765   */\n      dup7\n        /* \"#utility.yul\":1752:1774   */\n      add\n        /* \"#utility.yul\":1721:1784   */\n      tag_68\n      jump\t// in\n    tag_85:\n        /* \"#utility.yul\":1711:1784   */\n      swap3\n      pop\n        /* \"#utility.yul\":1507:1794   */\n      pop\n        /* \"#utility.yul\":1861:1863   */\n      0x20\n        /* \"#utility.yul\":1850:1859   */\n      dup4\n        /* \"#utility.yul\":1846:1864   */\n      add\n        /* \"#utility.yul\":1833:1865   */\n      calldataload\n        /* \"#utility.yul\":1892:1910   */\n      0xffffffffffffffff\n        /* \"#utility.yul\":1884:1890   */\n      dup2\n        /* \"#utility.yul\":1881:1911   */\n      gt\n        /* \"#utility.yul\":1878:1995   */\n      iszero\n      tag_86\n      jumpi\n        /* \"#utility.yul\":1914:1993   */\n      tag_87\n      tag_84\n      jump\t// in\n    tag_87:\n        /* \"#utility.yul\":1878:1995   */\n    tag_86:\n        /* \"#utility.yul\":2019:2082   */\n      tag_88\n        /* \"#utility.yul\":2074:2081   */\n      dup6\n        /* \"#utility.yul\":2065:2071   */\n      dup3\n        /* \"#utility.yul\":2054:2063   */\n      dup7\n        /* \"#utility.yul\":2050:2072   */\n      add\n        /* \"#utility.yul\":2019:2082   */\n      tag_68\n      jump\t// in\n    tag_88:\n        /* \"#utility.yul\":2009:2082   */\n      swap2\n      pop\n        /* \"#utility.yul\":1804:2092   */\n      pop\n        /* \"#utility.yul\":1265:2099   */\n      swap3\n      pop\n      swap3\n      swap1\n      pop\n      jump\t// out\n        /* \"#utility.yul\":2105:2223   */\n    tag_89:\n        /* \"#utility.yul\":2192:2216   */\n      tag_91\n        /* \"#utility.yul\":2210:2215   */\n      dup2\n        /* \"#utility.yul\":2192:2216   */\n      tag_92\n      jump\t// in\n    tag_91:\n        /* \"#utility.yul\":2187:2190   */\n      dup3\n        /* \"#utility.yul\":2180:2217   */\n      mstore\n        /* \"#utility.yul\":2105:2223   */\n      pop\n      pop\n      jump\t// out\n        /* \"#utility.yul\":2229:2372   */\n    tag_93:\n        /* \"#utility.yul\":2322:2365   */\n      tag_95\n        /* \"#utility.yul\":2359:2364   */\n      dup2\n        /* \"#utility.yul\":2322:2365   */\n      tag_96\n      jump\t// in\n    tag_95:\n        /* \"#utility.yul\":2317:2320   */\n      dup3\n        /* \"#utility.yul\":2310:2366   */\n      mstore\n        /* \"#utility.yul\":2229:2372   */\n      pop\n      pop\n      jump\t// out\n        /* \"#utility.yul\":2378:2742   */\n    tag_97:\n        /* \"#utility.yul\":2466:2469   */\n      0x00\n        /* \"#utility.yul\":2494:2533   */\n      tag_99\n        /* \"#utility.yul\":2527:2532   */\n      dup3\n        /* \"#utility.yul\":2494:2533   */\n      tag_100\n      jump\t// in\n    tag_99:\n        /* \"#utility.yul\":2549:2620   */\n      tag_101\n        /* \"#utility.yul\":2613:2619   */\n      dup2\n        /* \"#utility.yul\":2608:2611   */\n      dup6\n        /* \"#utility.yul\":2549:2620   */\n      tag_102\n      jump\t// in\n    tag_101:\n        /* \"#utility.yul\":2542:2620   */\n      swap4\n      pop\n        /* \"#utility.yul\":2629:2681   */\n      tag_103\n        /* \"#utility.yul\":2674:2680   */\n      dup2\n        /* \"#utility.yul\":2669:2672   */\n      dup6\n        /* \"#utility.yul\":2662:2666   */\n      0x20\n        /* \"#utility.yul\":2655:2660   */\n      dup7\n        /* \"#utility.yul\":2651:2667   */\n      add\n        /* \"#utility.yul\":2629:2681   */\n      tag_104\n      jump\t// in\n    tag_103:\n        /* \"#utility.yul\":2706:2735   */\n      tag_105\n        /* \"#utility.yul\":2728:2734   */\n      dup2\n        /* \"#utility.yul\":2706:2735   */\n      tag_106\n      jump\t// in\n    tag_105:\n        /* \"#utility.yul\":2701:2704   */\n      dup5\n        /* \"#utility.yul\":2697:2736   */\n      add\n        /* \"#utility.yul\":2690:2736   */\n      swap2\n      pop\n        /* \"#utility.yul\":2470:2742   */\n      pop\n        /* \"#utility.yul\":2378:2742   */\n      swap3\n      swap2\n      pop\n      pop\n      jump\t// out\n        /* \"#utility.yul\":2748:2866   */\n    tag_107:\n        /* \"#utility.yul\":2835:2859   */\n      tag_109\n        /* \"#utility.yul\":2853:2858   */\n      dup2\n        /* \"#utility.yul\":2835:2859   */\n      tag_110\n      jump\t// in\n    tag_109:\n        /* \"#utility.yul\":2830:2833   */\n      dup3\n        /* \"#utility.yul\":2823:2860   */\n      mstore\n        /* \"#utility.yul\":2748:2866   */\n      pop\n      pop\n      jump\t// out\n        /* \"#utility.yul\":2872:3619   */\n    tag_19:\n        /* \"#utility.yul\":3095:3099   */\n      0x00\n        /* \"#utility.yul\":3133:3136   */\n      0x80\n        /* \"#utility.yul\":3122:3131   */\n      dup3\n        /* \"#utility.yul\":3118:3137   */\n      add\n        /* \"#utility.yul\":3110:3137   */\n      swap1\n      pop\n        /* \"#utility.yul\":3147:3218   */\n      tag_112\n        /* \"#utility.yul\":3215:3216   */\n      0x00\n        /* \"#utility.yul\":3204:3213   */\n      dup4\n        /* \"#utility.yul\":3200:3217   */\n      add\n        /* \"#utility.yul\":3191:3197   */\n      dup8\n        /* \"#utility.yul\":3147:3218   */\n      tag_89\n      jump\t// in\n    tag_112:\n        /* \"#utility.yul\":3228:3306   */\n      tag_113\n        /* \"#utility.yul\":3302:3304   */\n      0x20\n        /* \"#utility.yul\":3291:3300   */\n      dup4\n        /* \"#utility.yul\":3287:3305   */\n      add\n        /* \"#utility.yul\":3278:3284   */\n      dup7\n        /* \"#utility.yul\":3228:3306   */\n      tag_93\n      jump\t// in\n    tag_113:\n        /* \"#utility.yul\":3353:3362   */\n      dup2\n        /* \"#utility.yul\":3347:3351   */\n      dup2\n        /* \"#utility.yul\":3343:3363   */\n      sub\n        /* \"#utility.yul\":3338:3340   */\n      0x40\n        /* \"#utility.yul\":3327:3336   */\n      dup4\n        /* \"#utility.yul\":3323:3341   */\n      add\n        /* \"#utility.yul\":3316:3364   */\n      mstore\n        /* \"#utility.yul\":3381:3459   */\n      tag_114\n        /* \"#utility.yul\":3454:3458   */\n      dup2\n        /* \"#utility.yul\":3445:3451   */\n      dup6\n        /* \"#utility.yul\":3381:3459   */\n      tag_97\n      jump\t// in\n    tag_114:\n        /* \"#utility.yul\":3373:3459   */\n      swap1\n      pop\n        /* \"#utility.yul\":3506:3515   */\n      dup2\n        /* \"#utility.yul\":3500:3504   */\n      dup2\n        /* \"#utility.yul\":3496:3516   */\n      sub\n        /* \"#utility.yul\":3491:3493   */\n      0x60\n        /* \"#utility.yul\":3480:3489   */\n      dup4\n        /* \"#utility.yul\":3476:3494   */\n      add\n        /* \"#utility.yul\":3469:3517   */\n      mstore\n        /* \"#utility.yul\":3534:3612   */\n      tag_115\n        /* \"#utility.yul\":3607:3611   */\n      dup2\n        /* \"#utility.yul\":3598:3604   */\n      dup5\n        /* \"#utility.yul\":3534:3612   */\n      tag_97\n      jump\t// in\n    tag_115:\n        /* \"#utility.yul\":3526:3612   */\n      swap1\n      pop\n        /* \"#utility.yul\":2872:3619   */\n      swap6\n      swap5\n      pop\n      pop\n      pop\n      pop\n      pop\n      jump\t// out\n        /* \"#utility.yul\":3625:3847   */\n    tag_9:\n        /* \"#utility.yul\":3718:3722   */\n      0x00\n        /* \"#utility.yul\":3756:3758   */\n      0x20\n        /* \"#utility.yul\":3745:3754   */\n      dup3\n        /* \"#utility.yul\":3741:3759   */\n      add\n        /* \"#utility.yul\":3733:3759   */\n      swap1\n      pop\n        /* \"#utility.yul\":3769:3840   */\n      tag_117\n        /* \"#utility.yul\":3837:3838   */\n      0x00\n        /* \"#utility.yul\":3826:3835   */\n      dup4\n        /* \"#utility.yul\":3822:3839   */\n      add\n        /* \"#utility.yul\":3813:3819   */\n      dup5\n        /* \"#utility.yul\":3769:3840   */\n      tag_107\n      jump\t// in\n    tag_117:\n        /* \"#utility.yul\":3625:3847   */\n      swap3\n      swap2\n      pop\n      pop\n      jump\t// out\n        /* \"#utility.yul\":3853:3982   */\n    tag_58:\n        /* \"#utility.yul\":3887:3893   */\n      0x00\n        /* \"#utility.yul\":3914:3934   */\n      tag_119\n      tag_120\n      jump\t// in\n    tag_119:\n        /* \"#utility.yul\":3904:3934   */\n      swap1\n      pop\n        /* \"#utility.yul\":3943:3976   */\n      tag_121\n        /* \"#utility.yul\":3971:3975   */\n      dup3\n        /* \"#utility.yul\":3963:3969   */\n      dup3\n        /* \"#utility.yul\":3943:3976   */\n      tag_122\n      jump\t// in\n    tag_121:\n        /* \"#utility.yul\":3853:3982   */\n      swap2\n      swap1\n      pop\n      jump\t// out\n        /* \"#utility.yul\":3988:4063   */\n    tag_120:\n        /* \"#utility.yul\":4021:4027   */\n      0x00\n        /* \"#utility.yul\":4054:4056   */\n      0x40\n        /* \"#utility.yul\":4048:4057   */\n      mload\n        /* \"#utility.yul\":4038:4057   */\n      swap1\n      pop\n        /* \"#utility.yul\":3988:4063   */\n      swap1\n      jump\t// out\n        /* \"#utility.yul\":4069:4377   */\n    tag_57:\n        /* \"#utility.yul\":4131:4135   */\n      0x00\n        /* \"#utility.yul\":4221:4239   */\n      0xffffffffffffffff\n        /* \"#utility.yul\":4213:4219   */\n      dup3\n        /* \"#utility.yul\":4210:4240   */\n      gt\n        /* \"#utility.yul\":4207:4263   */\n      iszero\n      tag_125\n      jumpi\n        /* \"#utility.yul\":4243:4261   */\n      tag_126\n      tag_127\n      jump\t// in\n    tag_126:\n        /* \"#utility.yul\":4207:4263   */\n    tag_125:\n        /* \"#utility.yul\":4281:4310   */\n      tag_128\n        /* \"#utility.yul\":4303:4309   */\n      dup3\n        /* \"#utility.yul\":4281:4310   */\n      tag_106\n      jump\t// in\n    tag_128:\n        /* \"#utility.yul\":4273:4310   */\n      swap1\n      pop\n        /* \"#utility.yul\":4365:4369   */\n      0x20\n        /* \"#utility.yul\":4359:4363   */\n      dup2\n        /* \"#utility.yul\":4355:4370   */\n      add\n        /* \"#utility.yul\":4347:4370   */\n      swap1\n      pop\n        /* \"#utility.yul\":4069:4377   */\n      swap2\n      swap1\n      pop\n      jump\t// out\n        /* \"#utility.yul\":4383:4482   */\n    tag_100:\n        /* \"#utility.yul\":4435:4441   */\n      0x00\n        /* \"#utility.yul\":4469:4474   */\n      dup2\n        /* \"#utility.yul\":4463:4475   */\n      mload\n        /* \"#utility.yul\":4453:4475   */\n      swap1\n      pop\n        /* \"#utility.yul\":4383:4482   */\n      swap2\n      swap1\n      pop\n      jump\t// out\n        /* \"#utility.yul\":4488:4657   */\n    tag_102:\n        /* \"#utility.yul\":4572:4583   */\n      0x00\n        /* \"#utility.yul\":4606:4612   */\n      dup3\n        /* \"#utility.yul\":4601:4604   */\n      dup3\n        /* \"#utility.yul\":4594:4613   */\n      mstore\n        /* \"#utility.yul\":4646:4650   */\n      0x20\n        /* \"#utility.yul\":4641:4644   */\n      dup3\n        /* \"#utility.yul\":4637:4651   */\n      add\n        /* \"#utility.yul\":4622:4651   */\n      swap1\n      pop\n        /* \"#utility.yul\":4488:4657   */\n      swap3\n      swap2\n      pop\n      pop\n      jump\t// out\n        /* \"#utility.yul\":4663:4968   */\n    tag_30:\n        /* \"#utility.yul\":4703:4706   */\n      0x00\n        /* \"#utility.yul\":4722:4742   */\n      tag_132\n        /* \"#utility.yul\":4740:4741   */\n      dup3\n        /* \"#utility.yul\":4722:4742   */\n      tag_110\n      jump\t// in\n    tag_132:\n        /* \"#utility.yul\":4717:4742   */\n      swap2\n      pop\n        /* \"#utility.yul\":4756:4776   */\n      tag_133\n        /* \"#utility.yul\":4774:4775   */\n      dup4\n        /* \"#utility.yul\":4756:4776   */\n      tag_110\n      jump\t// in\n    tag_133:\n        /* \"#utility.yul\":4751:4776   */\n      swap3\n      pop\n        /* \"#utility.yul\":4910:4911   */\n      dup3\n        /* \"#utility.yul\":4842:4908   */\n      0xffffffffffffffffffffffffffffffffffffffffffffffffffffffffffffffff\n        /* \"#utility.yul\":4838:4912   */\n      sub\n        /* \"#utility.yul\":4835:4836   */\n      dup3\n        /* \"#utility.yul\":4832:4913   */\n      gt\n        /* \"#utility.yul\":4829:4936   */\n      iszero\n      tag_134\n      jumpi\n        /* \"#utility.yul\":4916:4934   */\n      tag_135\n      tag_136\n      jump\t// in\n    tag_135:\n        /* \"#utility.yul\":4829:4936   */\n    tag_134:\n        /* \"#utility.yul\":4960:4961   */\n      dup3\n        /* \"#utility.yul\":4957:4958   */\n      dup3\n        /* \"#utility.yul\":4953:4962   */\n      add\n        /* \"#utility.yul\":4946:4962   */\n      swap1\n      pop\n        /* \"#utility.yul\":4663:4968   */\n      swap3\n      swap2\n      pop\n      pop\n      jump\t// out\n        /* \"#utility.yul\":4974:5070   */\n    tag_92:\n        /* \"#utility.yul\":5011:5018   */\n      0x00\n        /* \"#utility.yul\":5040:5064   */\n      tag_138\n        /* \"#utility.yul\":5058:5063   */\n      dup3\n        /* \"#utility.yul\":5040:5064   */\n      tag_139\n      jump\t// in\n    tag_138:\n        /* \"#utility.yul\":5029:5064   */\n      swap1\n      pop\n        /* \"#utility.yul\":4974:5070   */\n      swap2\n      swap1\n      pop\n      jump\t// out\n        /* \"#utility.yul\":5076:5203   */\n    tag_140:\n        /* \"#utility.yul\":5121:5128   */\n      0x00\n        /* \"#utility.yul\":5150:5155   */\n      dup2\n        /* \"#utility.yul\":5139:5155   */\n      swap1\n      pop\n        /* \"#utility.yul\":5156:5197   */\n      tag_142\n        /* \"#utility.yul\":5191:5196   */\n      dup3\n        /* \"#utility.yul\":5156:5197   */\n      tag_143\n      jump\t// in\n    tag_142:\n        /* \"#utility.yul\":5076:5203   */\n      swap2\n      swap1\n      pop\n      jump\t// out\n        /* \"#utility.yul\":5209:5335   */\n    tag_139:\n        /* \"#utility.yul\":5246:5253   */\n      0x00\n        /* \"#utility.yul\":5286:5328   */\n      0xffffffffffffffffffffffffffffffffffffffff\n        /* \"#utility.yul\":5279:5284   */\n      dup3\n        /* \"#utility.yul\":5275:5329   */\n      and\n        /* \"#utility.yul\":5264:5329   */\n      swap1\n      pop\n        /* \"#utility.yul\":5209:5335   */\n      swap2\n      swap1\n      pop\n      jump\t// out\n        /* \"#utility.yul\":5341:5418   */\n    tag_110:\n        /* \"#utility.yul\":5378:5385   */\n      0x00\n        /* \"#utility.yul\":5407:5412   */\n      dup2\n        /* \"#utility.yul\":5396:5412   */\n      swap1\n      pop\n        /* \"#utility.yul\":5341:5418   */\n      swap2\n      swap1\n      pop\n      jump\t// out\n        /* \"#utility.yul\":5424:5551   */\n    tag_96:\n        /* \"#utility.yul\":5480:5489   */\n      0x00\n        /* \"#utility.yul\":5513:5545   */\n      tag_147\n        /* \"#utility.yul\":5539:5544   */\n      dup3\n        /* \"#utility.yul\":5513:5545   */\n      tag_140\n      jump\t// in\n    tag_147:\n        /* \"#utility.yul\":5500:5545   */\n      swap1\n      pop\n        /* \"#utility.yul\":5424:5551   */\n      swap2\n      swap1\n      pop\n      jump\t// out\n        /* \"#utility.yul\":5557:5711   */\n    tag_63:\n        /* \"#utility.yul\":5641:5647   */\n      dup3\n        /* \"#utility.yul\":5636:5639   */\n      dup2\n        /* \"#utility.yul\":5631:5634   */\n      dup4\n        /* \"#utility.yul\":5618:5648   */\n      calldatacopy\n        /* \"#utility.yul\":5703:5704   */\n      0x00\n        /* \"#utility.yul\":5694:5700   */\n      dup4\n        /* \"#utility.yul\":5689:5692   */\n      dup4\n        /* \"#utility.yul\":5685:5701   */\n      add\n        /* \"#utility.yul\":5678:5705   */\n      mstore\n        /* \"#utility.yul\":5557:5711   */\n      pop\n      pop\n      pop\n      jump\t// out\n        /* \"#utility.yul\":5717:6024   */\n    tag_104:\n        /* \"#utility.yul\":5785:5786   */\n      0x00\n        /* \"#utility.yul\":5795:5908   */\n    tag_150:\n        /* \"#utility.yul\":5809:5815   */\n      dup4\n        /* \"#utility.yul\":5806:5807   */\n      dup2\n        /* \"#utility.yul\":5803:5816   */\n      lt\n        /* \"#utility.yul\":5795:5908   */\n      iszero\n      tag_152\n      jumpi\n        /* \"#utility.yul\":5894:5895   */\n      dup1\n        /* \"#utility.yul\":5889:5892   */\n      dup3\n        /* \"#utility.yul\":5885:5896   */\n      add\n        /* \"#utility.yul\":5879:5897   */\n      mload\n        /* \"#utility.yul\":5875:5876   */\n      dup2\n        /* \"#utility.yul\":5870:5873   */\n      dup5\n        /* \"#utility.yul\":5866:5877   */\n      add\n        /* \"#utility.yul\":5859:5898   */\n      mstore\n        /* \"#utility.yul\":5831:5833   */\n      0x20\n        /* \"#utility.yul\":5828:5829   */\n      dup2\n        /* \"#utility.yul\":5824:5834   */\n      add\n        /* \"#utility.yul\":5819:5834   */\n      swap1\n      pop\n        /* \"#utility.yul\":5795:5908   */\n      jump(tag_150)\n    tag_152:\n        /* \"#utility.yul\":5926:5932   */\n      dup4\n        /* \"#utility.yul\":5923:5924   */\n      dup2\n        /* \"#utility.yul\":5920:5933   */\n      gt\n        /* \"#utility.yul\":5917:6018   */\n      iszero\n      tag_153\n      jumpi\n        /* \"#utility.yul\":6006:6007   */\n      0x00\n        /* \"#utility.yul\":5997:6003   */\n      dup5\n        /* \"#utility.yul\":5992:5995   */\n      dup5\n        /* \"#utility.yul\":5988:6004   */\n      add\n        /* \"#utility.yul\":5981:6008   */\n      mstore\n        /* \"#utility.yul\":5917:6018   */\n    tag_153:\n        /* \"#utility.yul\":5766:6024   */\n      pop\n        /* \"#utility.yul\":5717:6024   */\n      pop\n      pop\n      pop\n      jump\t// out\n        /* \"#utility.yul\":6030:6350   */\n    tag_32:\n        /* \"#utility.yul\":6074:6080   */\n      0x00\n        /* \"#utility.yul\":6111:6112   */\n      0x02\n        /* \"#utility.yul\":6105:6109   */\n      dup3\n        /* \"#utility.yul\":6101:6113   */\n      div\n        /* \"#utility.yul\":6091:6113   */\n      swap1\n      pop\n        /* \"#utility.yul\":6158:6159   */\n      0x01\n        /* \"#utility.yul\":6152:6156   */\n      dup3\n        /* \"#utility.yul\":6148:6160   */\n      and\n        /* \"#utility.yul\":6179:6197   */\n      dup1\n        /* \"#utility.yul\":6169:6250   */\n      tag_155\n      jumpi\n        /* \"#utility.yul\":6235:6239   */\n      0x7f\n        /* \"#utility.yul\":6227:6233   */\n      dup3\n        /* \"#utility.yul\":6223:6240   */\n      and\n        /* \"#utility.yul\":6213:6240   */\n      swap2\n      pop\n        /* \"#utility.yul\":6169:6250   */\n    tag_155:\n        /* \"#utility.yul\":6297:6299   */\n      0x20\n        /* \"#utility.yul\":6289:6295   */\n      dup3\n        /* \"#utility.yul\":6286:6300   */\n      lt\n        /* \"#utility.yul\":6266:6284   */\n      dup2\n        /* \"#utility.yul\":6263:6301   */\n      eq\n        /* \"#utility.yul\":6260:6344   */\n      iszero\n      tag_156\n      jumpi\n        /* \"#utility.yul\":6316:6334   */\n      tag_157\n      tag_158\n      jump\t// in\n    tag_157:\n        /* \"#utility.yul\":6260:6344   */\n    tag_156:\n        /* \"#utility.yul\":6081:6350   */\n      pop\n        /* \"#utility.yul\":6030:6350   */\n      swap2\n      swap1\n      pop\n      jump\t// out\n        /* \"#utility.yul\":6356:6637   */\n    tag_122:\n        /* \"#utility.yul\":6439:6466   */\n      tag_160\n        /* \"#utility.yul\":6461:6465   */\n      dup3\n        /* \"#utility.yul\":6439:6466   */\n      tag_106\n      jump\t// in\n    tag_160:\n        /* \"#utility.yul\":6431:6437   */\n      dup2\n        /* \"#utility.yul\":6427:6467   */\n      add\n        /* \"#utility.yul\":6569:6575   */\n      dup2\n        /* \"#utility.yul\":6557:6567   */\n      dup2\n        /* \"#utility.yul\":6554:6576   */\n      lt\n        /* \"#utility.yul\":6533:6551   */\n      0xffffffffffffffff\n        /* \"#utility.yul\":6521:6531   */\n      dup3\n        /* \"#utility.yul\":6518:6552   */\n      gt\n        /* \"#utility.yul\":6515:6577   */\n      or\n        /* \"#utility.yul\":6512:6600   */\n      iszero\n      tag_161\n      jumpi\n        /* \"#utility.yul\":6580:6598   */\n      tag_162\n      tag_127\n      jump\t// in\n    tag_162:\n        /* \"#utility.yul\":6512:6600   */\n    tag_161:\n        /* \"#utility.yul\":6620:6630   */\n      dup1\n        /* \"#utility.yul\":6616:6618   */\n      0x40\n        /* \"#utility.yul\":6609:6631   */\n      mstore\n        /* \"#utility.yul\":6399:6637   */\n      pop\n        /* \"#utility.yul\":6356:6637   */\n      pop\n      pop\n      jump\t// out\n        /* \"#utility.yul\":6643:6823   */\n    tag_136:\n        /* \"#utility.yul\":6691:6768   */\n      0x4e487b7100000000000000000000000000000000000000000000000000000000\n        /* \"#utility.yul\":6688:6689   */\n      0x00\n        /* \"#utility.yul\":6681:6769   */\n      mstore\n        /* \"#utility.yul\":6788:6792   */\n      0x11\n        /* \"#utility.yul\":6785:6786   */\n      0x04\n        /* \"#utility.yul\":6778:6793   */\n      mstore\n        /* \"#utility.yul\":6812:6816   */\n      0x24\n        /* \"#utility.yul\":6809:6810   */\n      0x00\n        /* \"#utility.yul\":6802:6817   */\n      revert\n        /* \"#utility.yul\":6829:7009   */\n    tag_23:\n        /* \"#utility.yul\":6877:6954   */\n      0x4e487b7100000000000000000000000000000000000000000000000000000000\n        /* \"#utility.yul\":6874:6875   */\n      0x00\n        /* \"#utility.yul\":6867:6955   */\n      mstore\n        /* \"#utility.yul\":6974:6978   */\n      0x21\n        /* \"#utility.yul\":6971:6972   */\n      0x04\n        /* \"#utility.yul\":6964:6979   */\n      mstore\n        /* \"#utility.yul\":6998:7002   */\n      0x24\n        /* \"#utility.yul\":6995:6996   */\n      0x00\n        /* \"#utility.yul\":6988:7003   */\n      revert\n        /* \"#utility.yul\":7015:7195   */\n    tag_158:\n        /* \"#utility.yul\":7063:7140   */\n      0x4e487b7100000000000000000000000000000000000000000000000000000000\n        /* \"#utility.yul\":7060:7061   */\n      0x00\n        /* \"#utility.yul\":7053:7141   */\n      mstore\n        /* \"#utility.yul\":7160:7164   */\n      0x22\n        /* \"#utility.yul\":7157:7158   */\n      0x04\n        /* \"#utility.yul\":7150:7165   */\n      mstore\n        /* \"#utility.yul\":7184:7188   */\n      0x24\n        /* \"#utility.yul\":7181:7182   */\n      0x00\n        /* \"#utility.yul\":7174:7189   */\n      revert\n        /* \"#utility.yul\":7201:7381   */\n    tag_127:\n        /* \"#utility.yul\":7249:7326   */\n      0x4e487b7100000000000000000000000000000000000000000000000000000000\n        /* \"#utility.yul\":7246:7247   */\n      0x00\n        /* \"#utility.yul\":7239:7327   */\n      mstore\n        /* \"#utility.yul\":7346:7350   */\n      0x41\n        /* \"#utility.yul\":7343:7344   */\n      0x04\n        /* \"#utility.yul\":7336:7351   */\n      mstore\n        /* \"#utility.yul\":7370:7374   */\n      0x24\n        /* \"#utility.yul\":7367:7368   */\n      0x00\n        /* \"#utility.yul\":7360:7375   */\n      revert\n        /* \"#utility.yul\":7387:7504   */\n    tag_72:\n        /* \"#utility.yul\":7496:7497   */\n      0x00\n        /* \"#utility.yul\":7493:7494   */\n      dup1\n        /* \"#utility.yul\":7486:7498   */\n      revert\n        /* \"#utility.yul\":7510:7627   */\n    tag_61:\n        /* \"#utility.yul\":7619:7620   */\n      0x00\n        /* \"#utility.yul\":7616:7617   */\n      dup1\n        /* \"#utility.yul\":7609:7621   */\n      revert\n        /* \"#utility.yul\":7633:7750   */\n    tag_84:\n        /* \"#utility.yul\":7742:7743   */\n      0x00\n        /* \"#utility.yul\":7739:7740   */\n      dup1\n        /* \"#utility.yul\":7732:7744   */\n      revert\n        /* \"#utility.yul\":7756:7873   */\n    tag_77:\n        /* \"#utility.yul\":7865:7866   */\n      0x00\n        /* \"#utility.yul\":7862:7863   */\n      dup1\n        /* \"#utility.yul\":7855:7867   */\n      revert\n        /* \"#utility.yul\":7879:7981   */\n    tag_106:\n        /* \"#utility.yul\":7920:7926   */\n      0x00\n        /* \"#utility.yul\":7971:7973   */\n      0x1f\n        /* \"#utility.yul\":7967:7974   */\n      not\n        /* \"#utility.yul\":7962:7964   */\n      0x1f\n        /* \"#utility.yul\":7955:7960   */\n      dup4\n        /* \"#utility.yul\":7951:7965   */\n      add\n        /* \"#utility.yul\":7947:7975   */\n      and\n        /* \"#utility.yul\":7937:7975   */\n      swap1\n      pop\n        /* \"#utility.yul\":7879:7981   */\n      swap2\n      swap1\n      pop\n      jump\t// out\n        /* \"#utility.yul\":7987:8100   */\n    tag_143:\n        /* \"#utility.yul\":8068:8069   */\n      0x03\n        /* \"#utility.yul\":8061:8066   */\n      dup2\n        /* \"#utility.yul\":8058:8070   */\n      lt\n        /* \"#utility.yul\":8048:8094   */\n      tag_173\n      jumpi\n        /* \"#utility.yul\":8074:8092   */\n      tag_174\n      tag_23\n      jump\t// in\n    tag_174:\n        /* \"#utility.yul\":8048:8094   */\n    tag_173:\n        /* \"#utility.yul\":7987:8100   */\n      pop\n      jump\t// out\n        /* \"#utility.yul\":8106:8228   */\n    tag_67:\n        /* \"#utility.yul\":8179:8203   */\n      tag_176\n        /* \"#utility.yul\":8197:8202   */\n      dup2\n        /* \"#utility.yul\":8179:8203   */\n      tag_92\n      jump\t// in\n    tag_176:\n        /* \"#utility.yul\":8172:8177   */\n      dup2\n        /* \"#utility.yul\":8169:8204   */\n      eq\n        /* \"#utility.yul\":8159:8222   */\n      tag_177\n      jumpi\n        /* \"#utility.yul\":8218:8219   */\n      0x00\n        /* \"#utility.yul\":8215:8216   */\n      dup1\n        /* \"#utility.yul\":8208:8220   */\n      revert\n        /* \"#utility.yul\":8159:8222   */\n    tag_177:\n        /* \"#utility.yul\":8106:8228   */\n      pop\n      jump\t// out\n\n    auxdata: 0xa2646970667358221220f1e03fe702ba877a37a6c89b9c1325169da9d0464da7f516e74deed91adbaca464736f6c63430008070033\n}\n",
				"bytecode": {
					"linkReferences": {},
					"object": "60806040526000805534801561001457600080fd5b50610931806100246000396000f3fe608060405234801561001057600080fd5b50600436106100415760003560e01c8063302bcc57146100465780635cb119a914610064578063e2eb41ff14610080575b600080fd5b61004e6100b3565b60405161005b9190610606565b60405180910390f35b61007e600480360381019061007991906104d5565b6100b9565b005b61009a600480360381019061009591906104a8565b610213565b6040516100aa94939291906105b3565b60405180910390f35b60005481565b60405180608001604052803373ffffffffffffffffffffffffffffffffffffffff168152602001600060028111156100f4576100f361081e565b5b815260200183815260200182815250600160003373ffffffffffffffffffffffffffffffffffffffff1673ffffffffffffffffffffffffffffffffffffffff16815260200190815260200160002060008201518160000160006101000a81548173ffffffffffffffffffffffffffffffffffffffff021916908373ffffffffffffffffffffffffffffffffffffffff16021790555060208201518160000160146101000a81548160ff021916908360028111156101b4576101b361081e565b5b021790555060408201518160010190805190602001906101d5929190610380565b5060608201518160020190805190602001906101f2929190610380565b5090505060016000808282546102089190610693565b925050819055505050565b60016020528060005260406000206000915090508060000160009054906101000a900473ffffffffffffffffffffffffffffffffffffffff16908060000160149054906101000a900460ff169080600101805461026f9061078c565b80601f016020809104026020016040519081016040528092919081815260200182805461029b9061078c565b80156102e85780601f106102bd576101008083540402835291602001916102e8565b820191906000526020600020905b8154815290600101906020018083116102cb57829003601f168201915b5050505050908060020180546102fd9061078c565b80601f01602080910402602001604051908101604052809291908181526020018280546103299061078c565b80156103765780601f1061034b57610100808354040283529160200191610376565b820191906000526020600020905b81548152906001019060200180831161035957829003601f168201915b5050505050905084565b82805461038c9061078c565b90600052602060002090601f0160209004810192826103ae57600085556103f5565b82601f106103c757805160ff19168380011785556103f5565b828001600101855582156103f5579182015b828111156103f45782518255916020019190600101906103d9565b5b5090506104029190610406565b5090565b5b8082111561041f576000816000905550600101610407565b5090565b600061043661043184610646565b610621565b905082815260208101848484011115610452576104516108b0565b5b61045d84828561074a565b509392505050565b600081359050610474816108e4565b92915050565b600082601f83011261048f5761048e6108ab565b5b813561049f848260208601610423565b91505092915050565b6000602082840312156104be576104bd6108ba565b5b60006104cc84828501610465565b91505092915050565b600080604083850312156104ec576104eb6108ba565b5b600083013567ffffffffffffffff81111561050a576105096108b5565b5b6105168582860161047a565b925050602083013567ffffffffffffffff811115610537576105366108b5565b5b6105438582860161047a565b9150509250929050565b610556816106e9565b82525050565b61056581610738565b82525050565b600061057682610677565b6105808185610682565b9350610590818560208601610759565b610599816108bf565b840191505092915050565b6105ad8161072e565b82525050565b60006080820190506105c8600083018761054d565b6105d5602083018661055c565b81810360408301526105e7818561056b565b905081810360608301526105fb818461056b565b905095945050505050565b600060208201905061061b60008301846105a4565b92915050565b600061062b61063c565b905061063782826107be565b919050565b6000604051905090565b600067ffffffffffffffff8211156106615761066061087c565b5b61066a826108bf565b9050602081019050919050565b600081519050919050565b600082825260208201905092915050565b600061069e8261072e565b91506106a98361072e565b9250827fffffffffffffffffffffffffffffffffffffffffffffffffffffffffffffffff038211156106de576106dd6107ef565b5b828201905092915050565b60006106f48261070e565b9050919050565b6000819050610709826108d0565b919050565b600073ffffffffffffffffffffffffffffffffffffffff82169050919050565b6000819050919050565b6000610743826106fb565b9050919050565b82818337600083830152505050565b60005b8381101561077757808201518184015260208101905061075c565b83811115610786576000848401525b50505050565b600060028204905060018216806107a457607f821691505b602082108114156107b8576107b761084d565b5b50919050565b6107c7826108bf565b810181811067ffffffffffffffff821117156107e6576107e561087c565b5b80604052505050565b7f4e487b7100000000000000000000000000000000000000000000000000000000600052601160045260246000fd5b7f4e487b7100000000000000000000000000000000000000000000000000000000600052602160045260246000fd5b7f4e487b7100000000000000000000000000000000000000000000000000000000600052602260045260246000fd5b7f4e487b7100000000000000000000000000000000000000000000000000000000600052604160045260246000fd5b600080fd5b600080fd5b600080fd5b600080fd5b6000601f19601f8301169050919050565b600381106108e1576108e061081e565b5b50565b6108ed816106e9565b81146108f857600080fd5b5056fea2646970667358221220f1e03fe702ba877a37a6c89b9c1325169da9d0464da7f516e74deed91adbaca464736f6c63430008070033",
					"opcodes": "PUSH1 0x80 PUSH1 0x40 MSTORE PUSH1 0x0 DUP1 SSTORE CALLVALUE DUP1 ISZERO PUSH2 0x14 JUMPI PUSH1 0x0 DUP1 REVERT JUMPDEST POP PUSH2 0x931 DUP1 PUSH2 0x24 PUSH1 0x0 CODECOPY PUSH1 0x0 RETURN INVALID PUSH1 0x80 PUSH1 0x40 MSTORE CALLVALUE DUP1 ISZERO PUSH2 0x10 JUMPI PUSH1 0x0 DUP1 REVERT JUMPDEST POP PUSH1 0x4 CALLDATASIZE LT PUSH2 0x41 JUMPI PUSH1 0x0 CALLDATALOAD PUSH1 0xE0 SHR DUP1 PUSH4 0x302BCC57 EQ PUSH2 0x46 JUMPI DUP1 PUSH4 0x5CB119A9 EQ PUSH2 0x64 JUMPI DUP1 PUSH4 0xE2EB41FF EQ PUSH2 0x80 JUMPI JUMPDEST PUSH1 0x0 DUP1 REVERT JUMPDEST PUSH2 0x4E PUSH2 0xB3 JUMP JUMPDEST PUSH1 0x40 MLOAD PUSH2 0x5B SWAP2 SWAP1 PUSH2 0x606 JUMP JUMPDEST PUSH1 0x40 MLOAD DUP1 SWAP2 SUB SWAP1 RETURN JUMPDEST PUSH2 0x7E PUSH1 0x4 DUP1 CALLDATASIZE SUB DUP2 ADD SWAP1 PUSH2 0x79 SWAP2 SWAP1 PUSH2 0x4D5 JUMP JUMPDEST PUSH2 0xB9 JUMP JUMPDEST STOP JUMPDEST PUSH2 0x9A PUSH1 0x4 DUP1 CALLDATASIZE SUB DUP2 ADD SWAP1 PUSH2 0x95 SWAP2 SWAP1 PUSH2 0x4A8 JUMP JUMPDEST PUSH2 0x213 JUMP JUMPDEST PUSH1 0x40 MLOAD PUSH2 0xAA SWAP5 SWAP4 SWAP3 SWAP2 SWAP1 PUSH2 0x5B3 JUMP JUMPDEST PUSH1 0x40 MLOAD DUP1 SWAP2 SUB SWAP1 RETURN JUMPDEST PUSH1 0x0 SLOAD DUP2 JUMP JUMPDEST PUSH1 0x40 MLOAD DUP1 PUSH1 0x80 ADD PUSH1 0x40 MSTORE DUP1 CALLER PUSH20 0xFFFFFFFFFFFFFFFFFFFFFFFFFFFFFFFFFFFFFFFF AND DUP2 MSTORE PUSH1 0x20 ADD PUSH1 0x0 PUSH1 0x2 DUP2 GT ISZERO PUSH2 0xF4 JUMPI PUSH2 0xF3 PUSH2 0x81E JUMP JUMPDEST JUMPDEST DUP2 MSTORE PUSH1 0x20 ADD DUP4 DUP2 MSTORE PUSH1 0x20 ADD DUP3 DUP2 MSTORE POP PUSH1 0x1 PUSH1 0x0 CALLER PUSH20 0xFFFFFFFFFFFFFFFFFFFFFFFFFFFFFFFFFFFFFFFF AND PUSH20 0xFFFFFFFFFFFFFFFFFFFFFFFFFFFFFFFFFFFFFFFF AND DUP2 MSTORE PUSH1 0x20 ADD SWAP1 DUP2 MSTORE PUSH1 0x20 ADD PUSH1 0x0 KECCAK256 PUSH1 0x0 DUP3 ADD MLOAD DUP2 PUSH1 0x0 ADD PUSH1 0x0 PUSH2 0x100 EXP DUP2 SLOAD DUP2 PUSH20 0xFFFFFFFFFFFFFFFFFFFFFFFFFFFFFFFFFFFFFFFF MUL NOT AND SWAP1 DUP4 PUSH20 0xFFFFFFFFFFFFFFFFFFFFFFFFFFFFFFFFFFFFFFFF AND MUL OR SWAP1 SSTORE POP PUSH1 0x20 DUP3 ADD MLOAD DUP2 PUSH1 0x0 ADD PUSH1 0x14 PUSH2 0x100 EXP DUP2 SLOAD DUP2 PUSH1 0xFF MUL NOT AND SWAP1 DUP4 PUSH1 0x2 DUP2 GT ISZERO PUSH2 0x1B4 JUMPI PUSH2 0x1B3 PUSH2 0x81E JUMP JUMPDEST JUMPDEST MUL OR SWAP1 SSTORE POP PUSH1 0x40 DUP3 ADD MLOAD DUP2 PUSH1 0x1 ADD SWAP1 DUP1 MLOAD SWAP1 PUSH1 0x20 ADD SWAP1 PUSH2 0x1D5 SWAP3 SWAP2 SWAP1 PUSH2 0x380 JUMP JUMPDEST POP PUSH1 0x60 DUP3 ADD MLOAD DUP2 PUSH1 0x2 ADD SWAP1 DUP1 MLOAD SWAP1 PUSH1 0x20 ADD SWAP1 PUSH2 0x1F2 SWAP3 SWAP2 SWAP1 PUSH2 0x380 JUMP JUMPDEST POP SWAP1 POP POP PUSH1 0x1 PUSH1 0x0 DUP1 DUP3 DUP3 SLOAD PUSH2 0x208 SWAP2 SWAP1 PUSH2 0x693 JUMP JUMPDEST SWAP3 POP POP DUP2 SWAP1 SSTORE POP POP POP JUMP JUMPDEST PUSH1 0x1 PUSH1 0x20 MSTORE DUP1 PUSH1 0x0 MSTORE PUSH1 0x40 PUSH1 0x0 KECCAK256 PUSH1 0x0 SWAP2 POP SWAP1 POP DUP1 PUSH1 0x0 ADD PUSH1 0x0 SWAP1 SLOAD SWAP1 PUSH2 0x100 EXP SWAP1 DIV PUSH20 0xFFFFFFFFFFFFFFFFFFFFFFFFFFFFFFFFFFFFFFFF AND SWAP1 DUP1 PUSH1 0x0 ADD PUSH1 0x14 SWAP1 SLOAD SWAP1 PUSH2 0x100 EXP SWAP1 DIV PUSH1 0xFF AND SWAP1 DUP1 PUSH1 0x1 ADD DUP1 SLOAD PUSH2 0x26F SWAP1 PUSH2 0x78C JUMP JUMPDEST DUP1 PUSH1 0x1F ADD PUSH1 0x20 DUP1 SWAP2 DIV MUL PUSH1 0x20 ADD PUSH1 0x40 MLOAD SWAP1 DUP2 ADD PUSH1 0x40 MSTORE DUP1 SWAP3 SWAP2 SWAP1 DUP2 DUP2 MSTORE PUSH1 0x20 ADD DUP3 DUP1 SLOAD PUSH2 0x29B SWAP1 PUSH2 0x78C JUMP JUMPDEST DUP1 ISZERO PUSH2 0x2E8 JUMPI DUP1 PUSH1 0x1F LT PUSH2 0x2BD JUMPI PUSH2 0x100 DUP1 DUP4 SLOAD DIV MUL DUP4 MSTORE SWAP2 PUSH1 0x20 ADD SWAP2 PUSH2 0x2E8 JUMP JUMPDEST DUP3 ADD SWAP2 SWAP1 PUSH1 0x0 MSTORE PUSH1 0x20 PUSH1 0x0 KECCAK256 SWAP1 JUMPDEST DUP2 SLOAD DUP2 MSTORE SWAP1 PUSH1 0x1 ADD SWAP1 PUSH1 0x20 ADD DUP1 DUP4 GT PUSH2 0x2CB JUMPI DUP3 SWAP1 SUB PUSH1 0x1F AND DUP3 ADD SWAP2 JUMPDEST POP POP POP POP POP SWAP1 DUP1 PUSH1 0x2 ADD DUP1 SLOAD PUSH2 0x2FD SWAP1 PUSH2 0x78C JUMP JUMPDEST DUP1 PUSH1 0x1F ADD PUSH1 0x20 DUP1 SWAP2 DIV MUL PUSH1 0x20 ADD PUSH1 0x40 MLOAD SWAP1 DUP2 ADD PUSH1 0x40 MSTORE DUP1 SWAP3 SWAP2 SWAP1 DUP2 DUP2 MSTORE PUSH1 0x20 ADD DUP3 DUP1 SLOAD PUSH2 0x329 SWAP1 PUSH2 0x78C JUMP JUMPDEST DUP1 ISZERO PUSH2 0x376 JUMPI DUP1 PUSH1 0x1F LT PUSH2 0x34B JUMPI PUSH2 0x100 DUP1 DUP4 SLOAD DIV MUL DUP4 MSTORE SWAP2 PUSH1 0x20 ADD SWAP2 PUSH2 0x376 JUMP JUMPDEST DUP3 ADD SWAP2 SWAP1 PUSH1 0x0 MSTORE PUSH1 0x20 PUSH1 0x0 KECCAK256 SWAP1 JUMPDEST DUP2 SLOAD DUP2 MSTORE SWAP1 PUSH1 0x1 ADD SWAP1 PUSH1 0x20 ADD DUP1 DUP4 GT PUSH2 0x359 JUMPI DUP3 SWAP1 SUB PUSH1 0x1F AND DUP3 ADD SWAP2 JUMPDEST POP POP POP POP POP SWAP1 POP DUP5 JUMP JUMPDEST DUP3 DUP1 SLOAD PUSH2 0x38C SWAP1 PUSH2 0x78C JUMP JUMPDEST SWAP1 PUSH1 0x0 MSTORE PUSH1 0x20 PUSH1 0x0 KECCAK256 SWAP1 PUSH1 0x1F ADD PUSH1 0x20 SWAP1 DIV DUP2 ADD SWAP3 DUP3 PUSH2 0x3AE JUMPI PUSH1 0x0 DUP6 SSTORE PUSH2 0x3F5 JUMP JUMPDEST DUP3 PUSH1 0x1F LT PUSH2 0x3C7 JUMPI DUP1 MLOAD PUSH1 0xFF NOT AND DUP4 DUP1 ADD OR DUP6 SSTORE PUSH2 0x3F5 JUMP JUMPDEST DUP3 DUP1 ADD PUSH1 0x1 ADD DUP6 SSTORE DUP3 ISZERO PUSH2 0x3F5 JUMPI SWAP2 DUP3 ADD JUMPDEST DUP3 DUP2 GT ISZERO PUSH2 0x3F4 JUMPI DUP3 MLOAD DUP3 SSTORE SWAP2 PUSH1 0x20 ADD SWAP2 SWAP1 PUSH1 0x1 ADD SWAP1 PUSH2 0x3D9 JUMP JUMPDEST JUMPDEST POP SWAP1 POP PUSH2 0x402 SWAP2 SWAP1 PUSH2 0x406 JUMP JUMPDEST POP SWAP1 JUMP JUMPDEST JUMPDEST DUP1 DUP3 GT ISZERO PUSH2 0x41F JUMPI PUSH1 0x0 DUP2 PUSH1 0x0 SWAP1 SSTORE POP PUSH1 0x1 ADD PUSH2 0x407 JUMP JUMPDEST POP SWAP1 JUMP JUMPDEST PUSH1 0x0 PUSH2 0x436 PUSH2 0x431 DUP5 PUSH2 0x646 JUMP JUMPDEST PUSH2 0x621 JUMP JUMPDEST SWAP1 POP DUP3 DUP2 MSTORE PUSH1 0x20 DUP2 ADD DUP5 DUP5 DUP5 ADD GT ISZERO PUSH2 0x452 JUMPI PUSH2 0x451 PUSH2 0x8B0 JUMP JUMPDEST JUMPDEST PUSH2 0x45D DUP5 DUP3 DUP6 PUSH2 0x74A JUMP JUMPDEST POP SWAP4 SWAP3 POP POP POP JUMP JUMPDEST PUSH1 0x0 DUP2 CALLDATALOAD SWAP1 POP PUSH2 0x474 DUP2 PUSH2 0x8E4 JUMP JUMPDEST SWAP3 SWAP2 POP POP JUMP JUMPDEST PUSH1 0x0 DUP3 PUSH1 0x1F DUP4 ADD SLT PUSH2 0x48F JUMPI PUSH2 0x48E PUSH2 0x8AB JUMP JUMPDEST JUMPDEST DUP2 CALLDATALOAD PUSH2 0x49F DUP5 DUP3 PUSH1 0x20 DUP7 ADD PUSH2 0x423 JUMP JUMPDEST SWAP2 POP POP SWAP3 SWAP2 POP POP JUMP JUMPDEST PUSH1 0x0 PUSH1 0x20 DUP3 DUP5 SUB SLT ISZERO PUSH2 0x4BE JUMPI PUSH2 0x4BD PUSH2 0x8BA JUMP JUMPDEST JUMPDEST PUSH1 0x0 PUSH2 0x4CC DUP5 DUP3 DUP6 ADD PUSH2 0x465 JUMP JUMPDEST SWAP2 POP POP SWAP3 SWAP2 POP POP JUMP JUMPDEST PUSH1 0x0 DUP1 PUSH1 0x40 DUP4 DUP6 SUB SLT ISZERO PUSH2 0x4EC JUMPI PUSH2 0x4EB PUSH2 0x8BA JUMP JUMPDEST JUMPDEST PUSH1 0x0 DUP4 ADD CALLDATALOAD PUSH8 0xFFFFFFFFFFFFFFFF DUP2 GT ISZERO PUSH2 0x50A JUMPI PUSH2 0x509 PUSH2 0x8B5 JUMP JUMPDEST JUMPDEST PUSH2 0x516 DUP6 DUP3 DUP7 ADD PUSH2 0x47A JUMP JUMPDEST SWAP3 POP POP PUSH1 0x20 DUP4 ADD CALLDATALOAD PUSH8 0xFFFFFFFFFFFFFFFF DUP2 GT ISZERO PUSH2 0x537 JUMPI PUSH2 0x536 PUSH2 0x8B5 JUMP JUMPDEST JUMPDEST PUSH2 0x543 DUP6 DUP3 DUP7 ADD PUSH2 0x47A JUMP JUMPDEST SWAP2 POP POP SWAP3 POP SWAP3 SWAP1 POP JUMP JUMPDEST PUSH2 0x556 DUP2 PUSH2 0x6E9 JUMP JUMPDEST DUP3 MSTORE POP POP JUMP JUMPDEST PUSH2 0x565 DUP2 PUSH2 0x738 JUMP JUMPDEST DUP3 MSTORE POP POP JUMP JUMPDEST PUSH1 0x0 PUSH2 0x576 DUP3 PUSH2 0x677 JUMP JUMPDEST PUSH2 0x580 DUP2 DUP6 PUSH2 0x682 JUMP JUMPDEST SWAP4 POP PUSH2 0x590 DUP2 DUP6 PUSH1 0x20 DUP7 ADD PUSH2 0x759 JUMP JUMPDEST PUSH2 0x599 DUP2 PUSH2 0x8BF JUMP JUMPDEST DUP5 ADD SWAP2 POP POP SWAP3 SWAP2 POP POP JUMP JUMPDEST PUSH2 0x5AD DUP2 PUSH2 0x72E JUMP JUMPDEST DUP3 MSTORE POP POP JUMP JUMPDEST PUSH1 0x0 PUSH1 0x80 DUP3 ADD SWAP1 POP PUSH2 0x5C8 PUSH1 0x0 DUP4 ADD DUP8 PUSH2 0x54D JUMP JUMPDEST PUSH2 0x5D5 PUSH1 0x20 DUP4 ADD DUP7 PUSH2 0x55C JUMP JUMPDEST DUP2 DUP2 SUB PUSH1 0x40 DUP4 ADD MSTORE PUSH2 0x5E7 DUP2 DUP6 PUSH2 0x56B JUMP JUMPDEST SWAP1 POP DUP2 DUP2 SUB PUSH1 0x60 DUP4 ADD MSTORE PUSH2 0x5FB DUP2 DUP5 PUSH2 0x56B JUMP JUMPDEST SWAP1 POP SWAP6 SWAP5 POP POP POP POP POP JUMP JUMPDEST PUSH1 0x0 PUSH1 0x20 DUP3 ADD SWAP1 POP PUSH2 0x61B PUSH1 0x0 DUP4 ADD DUP5 PUSH2 0x5A4 JUMP JUMPDEST SWAP3 SWAP2 POP POP JUMP JUMPDEST PUSH1 0x0 PUSH2 0x62B PUSH2 0x63C JUMP JUMPDEST SWAP1 POP PUSH2 0x637 DUP3 DUP3 PUSH2 0x7BE JUMP JUMPDEST SWAP2 SWAP1 POP JUMP JUMPDEST PUSH1 0x0 PUSH1 0x40 MLOAD SWAP1 POP SWAP1 JUMP JUMPDEST PUSH1 0x0 PUSH8 0xFFFFFFFFFFFFFFFF DUP3 GT ISZERO PUSH2 0x661 JUMPI PUSH2 0x660 PUSH2 0x87C JUMP JUMPDEST JUMPDEST PUSH2 0x66A DUP3 PUSH2 0x8BF JUMP JUMPDEST SWAP1 POP PUSH1 0x20 DUP2 ADD SWAP1 POP SWAP2 SWAP1 POP JUMP JUMPDEST PUSH1 0x0 DUP2 MLOAD SWAP1 POP SWAP2 SWAP1 POP JUMP JUMPDEST PUSH1 0x0 DUP3 DUP3 MSTORE PUSH1 0x20 DUP3 ADD SWAP1 POP SWAP3 SWAP2 POP POP JUMP JUMPDEST PUSH1 0x0 PUSH2 0x69E DUP3 PUSH2 0x72E JUMP JUMPDEST SWAP2 POP PUSH2 0x6A9 DUP4 PUSH2 0x72E JUMP JUMPDEST SWAP3 POP DUP3 PUSH32 0xFFFFFFFFFFFFFFFFFFFFFFFFFFFFFFFFFFFFFFFFFFFFFFFFFFFFFFFFFFFFFFFF SUB DUP3 GT ISZERO PUSH2 0x6DE JUMPI PUSH2 0x6DD PUSH2 0x7EF JUMP JUMPDEST JUMPDEST DUP3 DUP3 ADD SWAP1 POP SWAP3 SWAP2 POP POP JUMP JUMPDEST PUSH1 0x0 PUSH2 0x6F4 DUP3 PUSH2 0x70E JUMP JUMPDEST SWAP1 POP SWAP2 SWAP1 POP JUMP JUMPDEST PUSH1 0x0 DUP2 SWAP1 POP PUSH2 0x709 DUP3 PUSH2 0x8D0 JUMP JUMPDEST SWAP2 SWAP1 POP JUMP JUMPDEST PUSH1 0x0 PUSH20 0xFFFFFFFFFFFFFFFFFFFFFFFFFFFFFFFFFFFFFFFF DUP3 AND SWAP1 POP SWAP2 SWAP1 POP JUMP JUMPDEST PUSH1 0x0 DUP2 SWAP1 POP SWAP2 SWAP1 POP JUMP JUMPDEST PUSH1 0x0 PUSH2 0x743 DUP3 PUSH2 0x6FB JUMP JUMPDEST SWAP1 POP SWAP2 SWAP1 POP JUMP JUMPDEST DUP3 DUP2 DUP4 CALLDATACOPY PUSH1 0x0 DUP4 DUP4 ADD MSTORE POP POP POP JUMP JUMPDEST PUSH1 0x0 JUMPDEST DUP4 DUP2 LT ISZERO PUSH2 0x777 JUMPI DUP1 DUP3 ADD MLOAD DUP2 DUP5 ADD MSTORE PUSH1 0x20 DUP2 ADD SWAP1 POP PUSH2 0x75C JUMP JUMPDEST DUP4 DUP2 GT ISZERO PUSH2 0x786 JUMPI PUSH1 0x0 DUP5 DUP5 ADD MSTORE JUMPDEST POP POP POP POP JUMP JUMPDEST PUSH1 0x0 PUSH1 0x2 DUP3 DIV SWAP1 POP PUSH1 0x1 DUP3 AND DUP1 PUSH2 0x7A4 JUMPI PUSH1 0x7F DUP3 AND SWAP2 POP JUMPDEST PUSH1 0x20 DUP3 LT DUP2 EQ ISZERO PUSH2 0x7B8 JUMPI PUSH2 0x7B7 PUSH2 0x84D JUMP JUMPDEST JUMPDEST POP SWAP2 SWAP1 POP JUMP JUMPDEST PUSH2 0x7C7 DUP3 PUSH2 0x8BF JUMP JUMPDEST DUP2 ADD DUP2 DUP2 LT PUSH8 0xFFFFFFFFFFFFFFFF DUP3 GT OR ISZERO PUSH2 0x7E6 JUMPI PUSH2 0x7E5 PUSH2 0x87C JUMP JUMPDEST JUMPDEST DUP1 PUSH1 0x40 MSTORE POP POP POP JUMP JUMPDEST PUSH32 0x4E487B7100000000000000000000000000000000000000000000000000000000 PUSH1 0x0 MSTORE PUSH1 0x11 PUSH1 0x4 MSTORE PUSH1 0x24 PUSH1 0x0 REVERT JUMPDEST PUSH32 0x4E487B7100000000000000000000000000000000000000000000000000000000 PUSH1 0x0 MSTORE PUSH1 0x21 PUSH1 0x4 MSTORE PUSH1 0x24 PUSH1 0x0 REVERT JUMPDEST PUSH32 0x4E487B7100000000000000000000000000000000000000000000000000000000 PUSH1 0x0 MSTORE PUSH1 0x22 PUSH1 0x4 MSTORE PUSH1 0x24 PUSH1 0x0 REVERT JUMPDEST PUSH32 0x4E487B7100000000000000000000000000000000000000000000000000000000 PUSH1 0x0 MSTORE PUSH1 0x41 PUSH1 0x4 MSTORE PUSH1 0x24 PUSH1 0x0 REVERT JUMPDEST PUSH1 0x0 DUP1 REVERT JUMPDEST PUSH1 0x0 DUP1 REVERT JUMPDEST PUSH1 0x0 DUP1 REVERT JUMPDEST PUSH1 0x0 DUP1 REVERT JUMPDEST PUSH1 0x0 PUSH1 0x1F NOT PUSH1 0x1F DUP4 ADD AND SWAP1 POP SWAP2 SWAP1 POP JUMP JUMPDEST PUSH1 0x3 DUP2 LT PUSH2 0x8E1 JUMPI PUSH2 0x8E0 PUSH2 0x81E JUMP JUMPDEST JUMPDEST POP JUMP JUMPDEST PUSH2 0x8ED DUP2 PUSH2 0x6E9 JUMP JUMPDEST DUP2 EQ PUSH2 0x8F8 JUMPI PUSH1 0x0 DUP1 REVERT JUMPDEST POP JUMP INVALID LOG2 PUSH5 0x6970667358 0x22 SLT KECCAK256 CALL 0xE0 EXTCODEHASH 0xE7 MUL 0xBA DUP8 PUSH27 0x37A6C89B9C1325169DA9D0464DA7F516E74DEED91ADBACA464736F PUSH13 0x63430008070033000000000000 "
				},
				"gasEstimates": {
					"creation": {
						"codeDepositCost": "470600",
						"executionCost": "5511",
						"totalCost": "476111"
					},
					"external": {
						"addPlayer(string,string)": "infinite",
						"playerCount()": "2407",
						"players(address)": "infinite"
					}
				},
				"methodIdentifiers": {
					"addPlayer(string,string)": "5cb119a9",
					"playerCount()": "302bcc57",
					"players(address)": "e2eb41ff"
				}
			},
			"storageLayout": {
				"storage": [
					{
						"astId": 4,
						"contract": "contracts/DataTypes.sol:myGame",
						"label": "playerCount",
						"offset": 0,
						"slot": "0",
						"type": "t_uint256"
					},
					{
						"astId": 9,
						"contract": "contracts/DataTypes.sol:myGame",
						"label": "players",
						"offset": 0,
						"slot": "1",
						"type": "t_mapping(t_address,t_struct(Player)23_storage)"
					}
				],
				"types": {
					"t_address": {
						"encoding": "inplace",
						"label": "address",
						"numberOfBytes": "20"
					},
					"t_enum(Level)13": {
						"encoding": "inplace",
						"label": "enum myGame.Level",
						"numberOfBytes": "1"
					},
					"t_mapping(t_address,t_struct(Player)23_storage)": {
						"encoding": "mapping",
						"key": "t_address",
						"label": "mapping(address => struct myGame.Player)",
						"numberOfBytes": "32",
						"value": "t_struct(Player)23_storage"
					},
					"t_string_storage": {
						"encoding": "bytes",
						"label": "string",
						"numberOfBytes": "32"
					},
					"t_struct(Player)23_storage": {
						"encoding": "inplace",
						"label": "struct myGame.Player",
						"members": [
							{
								"astId": 15,
								"contract": "contracts/DataTypes.sol:myGame",
								"label": "playerAddress",
								"offset": 0,
								"slot": "0",
								"type": "t_address"
							},
							{
								"astId": 18,
								"contract": "contracts/DataTypes.sol:myGame",
								"label": "playerLevel",
								"offset": 20,
								"slot": "0",
								"type": "t_enum(Level)13"
							},
							{
								"astId": 20,
								"contract": "contracts/DataTypes.sol:myGame",
								"label": "firstName",
								"offset": 0,
								"slot": "1",
								"type": "t_string_storage"
							},
							{
								"astId": 22,
								"contract": "contracts/DataTypes.sol:myGame",
								"label": "lastName",
								"offset": 0,
								"slot": "2",
								"type": "t_string_storage"
							}
						],
						"numberOfBytes": "96"
					},
					"t_uint256": {
						"encoding": "inplace",
						"label": "uint256",
						"numberOfBytes": "32"
					}
				}
			},
			"userdoc": {
				"kind": "user",
				"methods": {},
				"version": 1
			}
		}
	}
}