{
	"contracts/DataTypes.sol": {
		"myGame": {
			"abi": [
				{
					"inputs": [
						{
							"internalType": "string",
							"name": "firstName",
							"type": "string"
						},
						{
							"internalType": "string",
							"name": "lastName",
							"type": "string"
						}
					],
					"name": "addPlayer",
					"outputs": [],
					"stateMutability": "nonpayable",
					"type": "function"
				},
				{
					"inputs": [
						{
							"internalType": "uint256",
							"name": "",
							"type": "uint256"
						}
					],
					"name": "players",
					"outputs": [
						{
							"internalType": "string",
							"name": "firstName",
							"type": "string"
						},
						{
							"internalType": "string",
							"name": "lastName",
							"type": "string"
						}
					],
					"stateMutability": "view",
					"type": "function"
				}
			],
			"devdoc": {
				"kind": "dev",
				"methods": {},
				"version": 1
			},
			"evm": {
				"assembly": "    /* \"contracts/DataTypes.sol\":67:323  contract myGame {... */\n  mstore(0x40, 0x80)\n  callvalue\n  dup1\n  iszero\n  tag_1\n  jumpi\n  0x00\n  dup1\n  revert\ntag_1:\n  pop\n  dataSize(sub_0)\n  dup1\n  dataOffset(sub_0)\n  0x00\n  codecopy\n  0x00\n  return\nstop\n\nsub_0: assembly {\n        /* \"contracts/DataTypes.sol\":67:323  contract myGame {... */\n      mstore(0x40, 0x80)\n      callvalue\n      dup1\n      iszero\n      tag_1\n      jumpi\n      0x00\n      dup1\n      revert\n    tag_1:\n      pop\n      jumpi(tag_2, lt(calldatasize, 0x04))\n      shr(0xe0, calldataload(0x00))\n      dup1\n      0x5cb119a9\n      eq\n      tag_3\n      jumpi\n      dup1\n      0xf71d96cb\n      eq\n      tag_4\n      jumpi\n    tag_2:\n      0x00\n      dup1\n      revert\n        /* \"contracts/DataTypes.sol\":202:321  function addPlayer(string memory firstName, string memory lastName) public {... */\n    tag_3:\n      tag_5\n      0x04\n      dup1\n      calldatasize\n      sub\n      dup2\n      add\n      swap1\n      tag_6\n      swap2\n      swap1\n      tag_7\n      jump\t// in\n    tag_6:\n      tag_8\n      jump\t// in\n    tag_5:\n      stop\n        /* \"contracts/DataTypes.sol\":90:113  Player[] public players */\n    tag_4:\n      tag_9\n      0x04\n      dup1\n      calldatasize\n      sub\n      dup2\n      add\n      swap1\n      tag_10\n      swap2\n      swap1\n      tag_11\n      jump\t// in\n    tag_10:\n      tag_12\n      jump\t// in\n    tag_9:\n      mload(0x40)\n      tag_13\n      swap3\n      swap2\n      swap1\n      tag_14\n      jump\t// in\n    tag_13:\n      mload(0x40)\n      dup1\n      swap2\n      sub\n      swap1\n      return\n        /* \"contracts/DataTypes.sol\":202:321  function addPlayer(string memory firstName, string memory lastName) public {... */\n    tag_8:\n        /* \"contracts/DataTypes.sol\":287:314  Player(firstName, lastName) */\n      mload(0x40)\n      dup1\n      0x40\n      add\n      0x40\n      mstore\n      dup1\n        /* \"contracts/DataTypes.sol\":294:303  firstName */\n      dup4\n        /* \"contracts/DataTypes.sol\":287:314  Player(firstName, lastName) */\n      dup2\n      mstore\n      0x20\n      add\n        /* \"contracts/DataTypes.sol\":305:313  lastName */\n      dup3\n        /* \"contracts/DataTypes.sol\":287:314  Player(firstName, lastName) */\n      dup2\n      mstore\n      pop\n      pop\n        /* \"contracts/DataTypes.sol\":202:321  function addPlayer(string memory firstName, string memory lastName) public {... */\n      pop\n      pop\n      jump\t// out\n        /* \"contracts/DataTypes.sol\":90:113  Player[] public players */\n    tag_12:\n      0x00\n      dup2\n      dup2\n      sload\n      dup2\n      lt\n      tag_16\n      jumpi\n      0x00\n      dup1\n      revert\n    tag_16:\n      swap1\n      0x00\n      mstore\n      keccak256(0x00, 0x20)\n      swap1\n      0x02\n      mul\n      add\n      0x00\n      swap2\n      pop\n      swap1\n      pop\n      dup1\n      0x00\n      add\n      dup1\n      sload\n      tag_18\n      swap1\n      tag_19\n      jump\t// in\n    tag_18:\n      dup1\n      0x1f\n      add\n      0x20\n      dup1\n      swap2\n      div\n      mul\n      0x20\n      add\n      mload(0x40)\n      swap1\n      dup2\n      add\n      0x40\n      mstore\n      dup1\n      swap3\n      swap2\n      swap1\n      dup2\n      dup2\n      mstore\n      0x20\n      add\n      dup3\n      dup1\n      sload\n      tag_20\n      swap1\n      tag_19\n      jump\t// in\n    tag_20:\n      dup1\n      iszero\n      tag_21\n      jumpi\n      dup1\n      0x1f\n      lt\n      tag_22\n      jumpi\n      0x0100\n      dup1\n      dup4\n      sload\n      div\n      mul\n      dup4\n      mstore\n      swap2\n      0x20\n      add\n      swap2\n      jump(tag_21)\n    tag_22:\n      dup3\n      add\n      swap2\n      swap1\n      0x00\n      mstore\n      keccak256(0x00, 0x20)\n      swap1\n    tag_23:\n      dup2\n      sload\n      dup2\n      mstore\n      swap1\n      0x01\n      add\n      swap1\n      0x20\n      add\n      dup1\n      dup4\n      gt\n      tag_23\n      jumpi\n      dup3\n      swap1\n      sub\n      0x1f\n      and\n      dup3\n      add\n      swap2\n    tag_21:\n      pop\n      pop\n      pop\n      pop\n      pop\n      swap1\n      dup1\n      0x01\n      add\n      dup1\n      sload\n      tag_24\n      swap1\n      tag_19\n      jump\t// in\n    tag_24:\n      dup1\n      0x1f\n      add\n      0x20\n      dup1\n      swap2\n      div\n      mul\n      0x20\n      add\n      mload(0x40)\n      swap1\n      dup2\n      add\n      0x40\n      mstore\n      dup1\n      swap3\n      swap2\n      swap1\n      dup2\n      dup2\n      mstore\n      0x20\n      add\n      dup3\n      dup1\n      sload\n      tag_25\n      swap1\n      tag_19\n      jump\t// in\n    tag_25:\n      dup1\n      iszero\n      tag_26\n      jumpi\n      dup1\n      0x1f\n      lt\n      tag_27\n      jumpi\n      0x0100\n      dup1\n      dup4\n      sload\n      div\n      mul\n      dup4\n      mstore\n      swap2\n      0x20\n      add\n      swap2\n      jump(tag_26)\n    tag_27:\n      dup3\n      add\n      swap2\n      swap1\n      0x00\n      mstore\n      keccak256(0x00, 0x20)\n      swap1\n    tag_28:\n      dup2\n      sload\n      dup2\n      mstore\n      swap1\n      0x01\n      add\n      swap1\n      0x20\n      add\n      dup1\n      dup4\n      gt\n      tag_28\n      jumpi\n      dup3\n      swap1\n      sub\n      0x1f\n      and\n      dup3\n      add\n      swap2\n    tag_26:\n      pop\n      pop\n      pop\n      pop\n      pop\n      swap1\n      pop\n      dup3\n      jump\t// out\n        /* \"#utility.yul\":7:419   */\n    tag_30:\n        /* \"#utility.yul\":85:90   */\n      0x00\n        /* \"#utility.yul\":110:176   */\n      tag_32\n        /* \"#utility.yul\":126:175   */\n      tag_33\n        /* \"#utility.yul\":168:174   */\n      dup5\n        /* \"#utility.yul\":126:175   */\n      tag_34\n      jump\t// in\n    tag_33:\n        /* \"#utility.yul\":110:176   */\n      tag_35\n      jump\t// in\n    tag_32:\n        /* \"#utility.yul\":101:176   */\n      swap1\n      pop\n        /* \"#utility.yul\":199:205   */\n      dup3\n        /* \"#utility.yul\":192:197   */\n      dup2\n        /* \"#utility.yul\":185:206   */\n      mstore\n        /* \"#utility.yul\":237:241   */\n      0x20\n        /* \"#utility.yul\":230:235   */\n      dup2\n        /* \"#utility.yul\":226:242   */\n      add\n        /* \"#utility.yul\":275:278   */\n      dup5\n        /* \"#utility.yul\":266:272   */\n      dup5\n        /* \"#utility.yul\":261:264   */\n      dup5\n        /* \"#utility.yul\":257:273   */\n      add\n        /* \"#utility.yul\":254:279   */\n      gt\n        /* \"#utility.yul\":251:363   */\n      iszero\n      tag_36\n      jumpi\n        /* \"#utility.yul\":282:361   */\n      tag_37\n      tag_38\n      jump\t// in\n    tag_37:\n        /* \"#utility.yul\":251:363   */\n    tag_36:\n        /* \"#utility.yul\":372:413   */\n      tag_39\n        /* \"#utility.yul\":406:412   */\n      dup5\n        /* \"#utility.yul\":401:404   */\n      dup3\n        /* \"#utility.yul\":396:399   */\n      dup6\n        /* \"#utility.yul\":372:413   */\n      tag_40\n      jump\t// in\n    tag_39:\n        /* \"#utility.yul\":91:419   */\n      pop\n        /* \"#utility.yul\":7:419   */\n      swap4\n      swap3\n      pop\n      pop\n      pop\n      jump\t// out\n        /* \"#utility.yul\":439:779   */\n    tag_41:\n        /* \"#utility.yul\":495:500   */\n      0x00\n        /* \"#utility.yul\":544:547   */\n      dup3\n        /* \"#utility.yul\":537:541   */\n      0x1f\n        /* \"#utility.yul\":529:535   */\n      dup4\n        /* \"#utility.yul\":525:542   */\n      add\n        /* \"#utility.yul\":521:548   */\n      slt\n        /* \"#utility.yul\":511:633   */\n      tag_43\n      jumpi\n        /* \"#utility.yul\":552:631   */\n      tag_44\n      tag_45\n      jump\t// in\n    tag_44:\n        /* \"#utility.yul\":511:633   */\n    tag_43:\n        /* \"#utility.yul\":669:675   */\n      dup2\n        /* \"#utility.yul\":656:676   */\n      calldataload\n        /* \"#utility.yul\":694:773   */\n      tag_46\n        /* \"#utility.yul\":769:772   */\n      dup5\n        /* \"#utility.yul\":761:767   */\n      dup3\n        /* \"#utility.yul\":754:758   */\n      0x20\n        /* \"#utility.yul\":746:752   */\n      dup7\n        /* \"#utility.yul\":742:759   */\n      add\n        /* \"#utility.yul\":694:773   */\n      tag_30\n      jump\t// in\n    tag_46:\n        /* \"#utility.yul\":685:773   */\n      swap2\n      pop\n        /* \"#utility.yul\":501:779   */\n      pop\n        /* \"#utility.yul\":439:779   */\n      swap3\n      swap2\n      pop\n      pop\n      jump\t// out\n        /* \"#utility.yul\":785:924   */\n    tag_47:\n        /* \"#utility.yul\":831:836   */\n      0x00\n        /* \"#utility.yul\":869:875   */\n      dup2\n        /* \"#utility.yul\":856:876   */\n      calldataload\n        /* \"#utility.yul\":847:876   */\n      swap1\n      pop\n        /* \"#utility.yul\":885:918   */\n      tag_49\n        /* \"#utility.yul\":912:917   */\n      dup2\n        /* \"#utility.yul\":885:918   */\n      tag_50\n      jump\t// in\n    tag_49:\n        /* \"#utility.yul\":785:924   */\n      swap3\n      swap2\n      pop\n      pop\n      jump\t// out\n        /* \"#utility.yul\":930:1764   */\n    tag_7:\n        /* \"#utility.yul\":1018:1024   */\n      0x00\n        /* \"#utility.yul\":1026:1032   */\n      dup1\n        /* \"#utility.yul\":1075:1077   */\n      0x40\n        /* \"#utility.yul\":1063:1072   */\n      dup4\n        /* \"#utility.yul\":1054:1061   */\n      dup6\n        /* \"#utility.yul\":1050:1073   */\n      sub\n        /* \"#utility.yul\":1046:1078   */\n      slt\n        /* \"#utility.yul\":1043:1162   */\n      iszero\n      tag_52\n      jumpi\n        /* \"#utility.yul\":1081:1160   */\n      tag_53\n      tag_54\n      jump\t// in\n    tag_53:\n        /* \"#utility.yul\":1043:1162   */\n    tag_52:\n        /* \"#utility.yul\":1229:1230   */\n      0x00\n        /* \"#utility.yul\":1218:1227   */\n      dup4\n        /* \"#utility.yul\":1214:1231   */\n      add\n        /* \"#utility.yul\":1201:1232   */\n      calldataload\n        /* \"#utility.yul\":1259:1277   */\n      0xffffffffffffffff\n        /* \"#utility.yul\":1251:1257   */\n      dup2\n        /* \"#utility.yul\":1248:1278   */\n      gt\n        /* \"#utility.yul\":1245:1362   */\n      iszero\n      tag_55\n      jumpi\n        /* \"#utility.yul\":1281:1360   */\n      tag_56\n      tag_57\n      jump\t// in\n    tag_56:\n        /* \"#utility.yul\":1245:1362   */\n    tag_55:\n        /* \"#utility.yul\":1386:1449   */\n      tag_58\n        /* \"#utility.yul\":1441:1448   */\n      dup6\n        /* \"#utility.yul\":1432:1438   */\n      dup3\n        /* \"#utility.yul\":1421:1430   */\n      dup7\n        /* \"#utility.yul\":1417:1439   */\n      add\n        /* \"#utility.yul\":1386:1449   */\n      tag_41\n      jump\t// in\n    tag_58:\n        /* \"#utility.yul\":1376:1449   */\n      swap3\n      pop\n        /* \"#utility.yul\":1172:1459   */\n      pop\n        /* \"#utility.yul\":1526:1528   */\n      0x20\n        /* \"#utility.yul\":1515:1524   */\n      dup4\n        /* \"#utility.yul\":1511:1529   */\n      add\n        /* \"#utility.yul\":1498:1530   */\n      calldataload\n        /* \"#utility.yul\":1557:1575   */\n      0xffffffffffffffff\n        /* \"#utility.yul\":1549:1555   */\n      dup2\n        /* \"#utility.yul\":1546:1576   */\n      gt\n        /* \"#utility.yul\":1543:1660   */\n      iszero\n      tag_59\n      jumpi\n        /* \"#utility.yul\":1579:1658   */\n      tag_60\n      tag_57\n      jump\t// in\n    tag_60:\n        /* \"#utility.yul\":1543:1660   */\n    tag_59:\n        /* \"#utility.yul\":1684:1747   */\n      tag_61\n        /* \"#utility.yul\":1739:1746   */\n      dup6\n        /* \"#utility.yul\":1730:1736   */\n      dup3\n        /* \"#utility.yul\":1719:1728   */\n      dup7\n        /* \"#utility.yul\":1715:1737   */\n      add\n        /* \"#utility.yul\":1684:1747   */\n      tag_41\n      jump\t// in\n    tag_61:\n        /* \"#utility.yul\":1674:1747   */\n      swap2\n      pop\n        /* \"#utility.yul\":1469:1757   */\n      pop\n        /* \"#utility.yul\":930:1764   */\n      swap3\n      pop\n      swap3\n      swap1\n      pop\n      jump\t// out\n        /* \"#utility.yul\":1770:2099   */\n    tag_11:\n        /* \"#utility.yul\":1829:1835   */\n      0x00\n        /* \"#utility.yul\":1878:1880   */\n      0x20\n        /* \"#utility.yul\":1866:1875   */\n      dup3\n        /* \"#utility.yul\":1857:1864   */\n      dup5\n        /* \"#utility.yul\":1853:1876   */\n      sub\n        /* \"#utility.yul\":1849:1881   */\n      slt\n        /* \"#utility.yul\":1846:1965   */\n      iszero\n      tag_63\n      jumpi\n        /* \"#utility.yul\":1884:1963   */\n      tag_64\n      tag_54\n      jump\t// in\n    tag_64:\n        /* \"#utility.yul\":1846:1965   */\n    tag_63:\n        /* \"#utility.yul\":2004:2005   */\n      0x00\n        /* \"#utility.yul\":2029:2082   */\n      tag_65\n        /* \"#utility.yul\":2074:2081   */\n      dup5\n        /* \"#utility.yul\":2065:2071   */\n      dup3\n        /* \"#utility.yul\":2054:2063   */\n      dup6\n        /* \"#utility.yul\":2050:2072   */\n      add\n        /* \"#utility.yul\":2029:2082   */\n      tag_47\n      jump\t// in\n    tag_65:\n        /* \"#utility.yul\":2019:2082   */\n      swap2\n      pop\n        /* \"#utility.yul\":1975:2092   */\n      pop\n        /* \"#utility.yul\":1770:2099   */\n      swap3\n      swap2\n      pop\n      pop\n      jump\t// out\n        /* \"#utility.yul\":2105:2469   */\n    tag_66:\n        /* \"#utility.yul\":2193:2196   */\n      0x00\n        /* \"#utility.yul\":2221:2260   */\n      tag_68\n        /* \"#utility.yul\":2254:2259   */\n      dup3\n        /* \"#utility.yul\":2221:2260   */\n      tag_69\n      jump\t// in\n    tag_68:\n        /* \"#utility.yul\":2276:2347   */\n      tag_70\n        /* \"#utility.yul\":2340:2346   */\n      dup2\n        /* \"#utility.yul\":2335:2338   */\n      dup6\n        /* \"#utility.yul\":2276:2347   */\n      tag_71\n      jump\t// in\n    tag_70:\n        /* \"#utility.yul\":2269:2347   */\n      swap4\n      pop\n        /* \"#utility.yul\":2356:2408   */\n      tag_72\n        /* \"#utility.yul\":2401:2407   */\n      dup2\n        /* \"#utility.yul\":2396:2399   */\n      dup6\n        /* \"#utility.yul\":2389:2393   */\n      0x20\n        /* \"#utility.yul\":2382:2387   */\n      dup7\n        /* \"#utility.yul\":2378:2394   */\n      add\n        /* \"#utility.yul\":2356:2408   */\n      tag_73\n      jump\t// in\n    tag_72:\n        /* \"#utility.yul\":2433:2462   */\n      tag_74\n        /* \"#utility.yul\":2455:2461   */\n      dup2\n        /* \"#utility.yul\":2433:2462   */\n      tag_75\n      jump\t// in\n    tag_74:\n        /* \"#utility.yul\":2428:2431   */\n      dup5\n        /* \"#utility.yul\":2424:2463   */\n      add\n        /* \"#utility.yul\":2417:2463   */\n      swap2\n      pop\n        /* \"#utility.yul\":2197:2469   */\n      pop\n        /* \"#utility.yul\":2105:2469   */\n      swap3\n      swap2\n      pop\n      pop\n      jump\t// out\n        /* \"#utility.yul\":2475:2989   */\n    tag_14:\n        /* \"#utility.yul\":2636:2640   */\n      0x00\n        /* \"#utility.yul\":2674:2676   */\n      0x40\n        /* \"#utility.yul\":2663:2672   */\n      dup3\n        /* \"#utility.yul\":2659:2677   */\n      add\n        /* \"#utility.yul\":2651:2677   */\n      swap1\n      pop\n        /* \"#utility.yul\":2723:2732   */\n      dup2\n        /* \"#utility.yul\":2717:2721   */\n      dup2\n        /* \"#utility.yul\":2713:2733   */\n      sub\n        /* \"#utility.yul\":2709:2710   */\n      0x00\n        /* \"#utility.yul\":2698:2707   */\n      dup4\n        /* \"#utility.yul\":2694:2711   */\n      add\n        /* \"#utility.yul\":2687:2734   */\n      mstore\n        /* \"#utility.yul\":2751:2829   */\n      tag_77\n        /* \"#utility.yul\":2824:2828   */\n      dup2\n        /* \"#utility.yul\":2815:2821   */\n      dup6\n        /* \"#utility.yul\":2751:2829   */\n      tag_66\n      jump\t// in\n    tag_77:\n        /* \"#utility.yul\":2743:2829   */\n      swap1\n      pop\n        /* \"#utility.yul\":2876:2885   */\n      dup2\n        /* \"#utility.yul\":2870:2874   */\n      dup2\n        /* \"#utility.yul\":2866:2886   */\n      sub\n        /* \"#utility.yul\":2861:2863   */\n      0x20\n        /* \"#utility.yul\":2850:2859   */\n      dup4\n        /* \"#utility.yul\":2846:2864   */\n      add\n        /* \"#utility.yul\":2839:2887   */\n      mstore\n        /* \"#utility.yul\":2904:2982   */\n      tag_78\n        /* \"#utility.yul\":2977:2981   */\n      dup2\n        /* \"#utility.yul\":2968:2974   */\n      dup5\n        /* \"#utility.yul\":2904:2982   */\n      tag_66\n      jump\t// in\n    tag_78:\n        /* \"#utility.yul\":2896:2982   */\n      swap1\n      pop\n        /* \"#utility.yul\":2475:2989   */\n      swap4\n      swap3\n      pop\n      pop\n      pop\n      jump\t// out\n        /* \"#utility.yul\":2995:3124   */\n    tag_35:\n        /* \"#utility.yul\":3029:3035   */\n      0x00\n        /* \"#utility.yul\":3056:3076   */\n      tag_80\n      tag_81\n      jump\t// in\n    tag_80:\n        /* \"#utility.yul\":3046:3076   */\n      swap1\n      pop\n        /* \"#utility.yul\":3085:3118   */\n      tag_82\n        /* \"#utility.yul\":3113:3117   */\n      dup3\n        /* \"#utility.yul\":3105:3111   */\n      dup3\n        /* \"#utility.yul\":3085:3118   */\n      tag_83\n      jump\t// in\n    tag_82:\n        /* \"#utility.yul\":2995:3124   */\n      swap2\n      swap1\n      pop\n      jump\t// out\n        /* \"#utility.yul\":3130:3205   */\n    tag_81:\n        /* \"#utility.yul\":3163:3169   */\n      0x00\n        /* \"#utility.yul\":3196:3198   */\n      0x40\n        /* \"#utility.yul\":3190:3199   */\n      mload\n        /* \"#utility.yul\":3180:3199   */\n      swap1\n      pop\n        /* \"#utility.yul\":3130:3205   */\n      swap1\n      jump\t// out\n        /* \"#utility.yul\":3211:3519   */\n    tag_34:\n        /* \"#utility.yul\":3273:3277   */\n      0x00\n        /* \"#utility.yul\":3363:3381   */\n      0xffffffffffffffff\n        /* \"#utility.yul\":3355:3361   */\n      dup3\n        /* \"#utility.yul\":3352:3382   */\n      gt\n        /* \"#utility.yul\":3349:3405   */\n      iszero\n      tag_86\n      jumpi\n        /* \"#utility.yul\":3385:3403   */\n      tag_87\n      tag_88\n      jump\t// in\n    tag_87:\n        /* \"#utility.yul\":3349:3405   */\n    tag_86:\n        /* \"#utility.yul\":3423:3452   */\n      tag_89\n        /* \"#utility.yul\":3445:3451   */\n      dup3\n        /* \"#utility.yul\":3423:3452   */\n      tag_75\n      jump\t// in\n    tag_89:\n        /* \"#utility.yul\":3415:3452   */\n      swap1\n      pop\n        /* \"#utility.yul\":3507:3511   */\n      0x20\n        /* \"#utility.yul\":3501:3505   */\n      dup2\n        /* \"#utility.yul\":3497:3512   */\n      add\n        /* \"#utility.yul\":3489:3512   */\n      swap1\n      pop\n        /* \"#utility.yul\":3211:3519   */\n      swap2\n      swap1\n      pop\n      jump\t// out\n        /* \"#utility.yul\":3525:3624   */\n    tag_69:\n        /* \"#utility.yul\":3577:3583   */\n      0x00\n        /* \"#utility.yul\":3611:3616   */\n      dup2\n        /* \"#utility.yul\":3605:3617   */\n      mload\n        /* \"#utility.yul\":3595:3617   */\n      swap1\n      pop\n        /* \"#utility.yul\":3525:3624   */\n      swap2\n      swap1\n      pop\n      jump\t// out\n        /* \"#utility.yul\":3630:3799   */\n    tag_71:\n        /* \"#utility.yul\":3714:3725   */\n      0x00\n        /* \"#utility.yul\":3748:3754   */\n      dup3\n        /* \"#utility.yul\":3743:3746   */\n      dup3\n        /* \"#utility.yul\":3736:3755   */\n      mstore\n        /* \"#utility.yul\":3788:3792   */\n      0x20\n        /* \"#utility.yul\":3783:3786   */\n      dup3\n        /* \"#utility.yul\":3779:3793   */\n      add\n        /* \"#utility.yul\":3764:3793   */\n      swap1\n      pop\n        /* \"#utility.yul\":3630:3799   */\n      swap3\n      swap2\n      pop\n      pop\n      jump\t// out\n        /* \"#utility.yul\":3805:3882   */\n    tag_92:\n        /* \"#utility.yul\":3842:3849   */\n      0x00\n        /* \"#utility.yul\":3871:3876   */\n      dup2\n        /* \"#utility.yul\":3860:3876   */\n      swap1\n      pop\n        /* \"#utility.yul\":3805:3882   */\n      swap2\n      swap1\n      pop\n      jump\t// out\n        /* \"#utility.yul\":3888:4042   */\n    tag_40:\n        /* \"#utility.yul\":3972:3978   */\n      dup3\n        /* \"#utility.yul\":3967:3970   */\n      dup2\n        /* \"#utility.yul\":3962:3965   */\n      dup4\n        /* \"#utility.yul\":3949:3979   */\n      calldatacopy\n        /* \"#utility.yul\":4034:4035   */\n      0x00\n        /* \"#utility.yul\":4025:4031   */\n      dup4\n        /* \"#utility.yul\":4020:4023   */\n      dup4\n        /* \"#utility.yul\":4016:4032   */\n      add\n        /* \"#utility.yul\":4009:4036   */\n      mstore\n        /* \"#utility.yul\":3888:4042   */\n      pop\n      pop\n      pop\n      jump\t// out\n        /* \"#utility.yul\":4048:4355   */\n    tag_73:\n        /* \"#utility.yul\":4116:4117   */\n      0x00\n        /* \"#utility.yul\":4126:4239   */\n    tag_96:\n        /* \"#utility.yul\":4140:4146   */\n      dup4\n        /* \"#utility.yul\":4137:4138   */\n      dup2\n        /* \"#utility.yul\":4134:4147   */\n      lt\n        /* \"#utility.yul\":4126:4239   */\n      iszero\n      tag_98\n      jumpi\n        /* \"#utility.yul\":4225:4226   */\n      dup1\n        /* \"#utility.yul\":4220:4223   */\n      dup3\n        /* \"#utility.yul\":4216:4227   */\n      add\n        /* \"#utility.yul\":4210:4228   */\n      mload\n        /* \"#utility.yul\":4206:4207   */\n      dup2\n        /* \"#utility.yul\":4201:4204   */\n      dup5\n        /* \"#utility.yul\":4197:4208   */\n      add\n        /* \"#utility.yul\":4190:4229   */\n      mstore\n        /* \"#utility.yul\":4162:4164   */\n      0x20\n        /* \"#utility.yul\":4159:4160   */\n      dup2\n        /* \"#utility.yul\":4155:4165   */\n      add\n        /* \"#utility.yul\":4150:4165   */\n      swap1\n      pop\n        /* \"#utility.yul\":4126:4239   */\n      jump(tag_96)\n    tag_98:\n        /* \"#utility.yul\":4257:4263   */\n      dup4\n        /* \"#utility.yul\":4254:4255   */\n      dup2\n        /* \"#utility.yul\":4251:4264   */\n      gt\n        /* \"#utility.yul\":4248:4349   */\n      iszero\n      tag_99\n      jumpi\n        /* \"#utility.yul\":4337:4338   */\n      0x00\n        /* \"#utility.yul\":4328:4334   */\n      dup5\n        /* \"#utility.yul\":4323:4326   */\n      dup5\n        /* \"#utility.yul\":4319:4335   */\n      add\n        /* \"#utility.yul\":4312:4339   */\n      mstore\n        /* \"#utility.yul\":4248:4349   */\n    tag_99:\n        /* \"#utility.yul\":4097:4355   */\n      pop\n        /* \"#utility.yul\":4048:4355   */\n      pop\n      pop\n      pop\n      jump\t// out\n        /* \"#utility.yul\":4361:4681   */\n    tag_19:\n        /* \"#utility.yul\":4405:4411   */\n      0x00\n        /* \"#utility.yul\":4442:4443   */\n      0x02\n        /* \"#utility.yul\":4436:4440   */\n      dup3\n        /* \"#utility.yul\":4432:4444   */\n      div\n        /* \"#utility.yul\":4422:4444   */\n      swap1\n      pop\n        /* \"#utility.yul\":4489:4490   */\n      0x01\n        /* \"#utility.yul\":4483:4487   */\n      dup3\n        /* \"#utility.yul\":4479:4491   */\n      and\n        /* \"#utility.yul\":4510:4528   */\n      dup1\n        /* \"#utility.yul\":4500:4581   */\n      tag_101\n      jumpi\n        /* \"#utility.yul\":4566:4570   */\n      0x7f\n        /* \"#utility.yul\":4558:4564   */\n      dup3\n        /* \"#utility.yul\":4554:4571   */\n      and\n        /* \"#utility.yul\":4544:4571   */\n      swap2\n      pop\n        /* \"#utility.yul\":4500:4581   */\n    tag_101:\n        /* \"#utility.yul\":4628:4630   */\n      0x20\n        /* \"#utility.yul\":4620:4626   */\n      dup3\n        /* \"#utility.yul\":4617:4631   */\n      lt\n        /* \"#utility.yul\":4597:4615   */\n      dup2\n        /* \"#utility.yul\":4594:4632   */\n      eq\n        /* \"#utility.yul\":4591:4675   */\n      iszero\n      tag_102\n      jumpi\n        /* \"#utility.yul\":4647:4665   */\n      tag_103\n      tag_104\n      jump\t// in\n    tag_103:\n        /* \"#utility.yul\":4591:4675   */\n    tag_102:\n        /* \"#utility.yul\":4412:4681   */\n      pop\n        /* \"#utility.yul\":4361:4681   */\n      swap2\n      swap1\n      pop\n      jump\t// out\n        /* \"#utility.yul\":4687:4968   */\n    tag_83:\n        /* \"#utility.yul\":4770:4797   */\n      tag_106\n        /* \"#utility.yul\":4792:4796   */\n      dup3\n        /* \"#utility.yul\":4770:4797   */\n      tag_75\n      jump\t// in\n    tag_106:\n        /* \"#utility.yul\":4762:4768   */\n      dup2\n        /* \"#utility.yul\":4758:4798   */\n      add\n        /* \"#utility.yul\":4900:4906   */\n      dup2\n        /* \"#utility.yul\":4888:4898   */\n      dup2\n        /* \"#utility.yul\":4885:4907   */\n      lt\n        /* \"#utility.yul\":4864:4882   */\n      0xffffffffffffffff\n        /* \"#utility.yul\":4852:4862   */\n      dup3\n        /* \"#utility.yul\":4849:4883   */\n      gt\n        /* \"#utility.yul\":4846:4908   */\n      or\n        /* \"#utility.yul\":4843:4931   */\n      iszero\n      tag_107\n      jumpi\n        /* \"#utility.yul\":4911:4929   */\n      tag_108\n      tag_88\n      jump\t// in\n    tag_108:\n        /* \"#utility.yul\":4843:4931   */\n    tag_107:\n        /* \"#utility.yul\":4951:4961   */\n      dup1\n        /* \"#utility.yul\":4947:4949   */\n      0x40\n        /* \"#utility.yul\":4940:4962   */\n      mstore\n        /* \"#utility.yul\":4730:4968   */\n      pop\n        /* \"#utility.yul\":4687:4968   */\n      pop\n      pop\n      jump\t// out\n        /* \"#utility.yul\":4974:5154   */\n    tag_104:\n        /* \"#utility.yul\":5022:5099   */\n      0x4e487b7100000000000000000000000000000000000000000000000000000000\n        /* \"#utility.yul\":5019:5020   */\n      0x00\n        /* \"#utility.yul\":5012:5100   */\n      mstore\n        /* \"#utility.yul\":5119:5123   */\n      0x22\n        /* \"#utility.yul\":5116:5117   */\n      0x04\n        /* \"#utility.yul\":5109:5124   */\n      mstore\n        /* \"#utility.yul\":5143:5147   */\n      0x24\n        /* \"#utility.yul\":5140:5141   */\n      0x00\n        /* \"#utility.yul\":5133:5148   */\n      revert\n        /* \"#utility.yul\":5160:5340   */\n    tag_88:\n        /* \"#utility.yul\":5208:5285   */\n      0x4e487b7100000000000000000000000000000000000000000000000000000000\n        /* \"#utility.yul\":5205:5206   */\n      0x00\n        /* \"#utility.yul\":5198:5286   */\n      mstore\n        /* \"#utility.yul\":5305:5309   */\n      0x41\n        /* \"#utility.yul\":5302:5303   */\n      0x04\n        /* \"#utility.yul\":5295:5310   */\n      mstore\n        /* \"#utility.yul\":5329:5333   */\n      0x24\n        /* \"#utility.yul\":5326:5327   */\n      0x00\n        /* \"#utility.yul\":5319:5334   */\n      revert\n        /* \"#utility.yul\":5346:5463   */\n    tag_45:\n        /* \"#utility.yul\":5455:5456   */\n      0x00\n        /* \"#utility.yul\":5452:5453   */\n      dup1\n        /* \"#utility.yul\":5445:5457   */\n      revert\n        /* \"#utility.yul\":5469:5586   */\n    tag_38:\n        /* \"#utility.yul\":5578:5579   */\n      0x00\n        /* \"#utility.yul\":5575:5576   */\n      dup1\n        /* \"#utility.yul\":5568:5580   */\n      revert\n        /* \"#utility.yul\":5592:5709   */\n    tag_57:\n        /* \"#utility.yul\":5701:5702   */\n      0x00\n        /* \"#utility.yul\":5698:5699   */\n      dup1\n        /* \"#utility.yul\":5691:5703   */\n      revert\n        /* \"#utility.yul\":5715:5832   */\n    tag_54:\n        /* \"#utility.yul\":5824:5825   */\n      0x00\n        /* \"#utility.yul\":5821:5822   */\n      dup1\n        /* \"#utility.yul\":5814:5826   */\n      revert\n        /* \"#utility.yul\":5838:5940   */\n    tag_75:\n        /* \"#utility.yul\":5879:5885   */\n      0x00\n        /* \"#utility.yul\":5930:5932   */\n      0x1f\n        /* \"#utility.yul\":5926:5933   */\n      not\n        /* \"#utility.yul\":5921:5923   */\n      0x1f\n        /* \"#utility.yul\":5914:5919   */\n      dup4\n        /* \"#utility.yul\":5910:5924   */\n      add\n        /* \"#utility.yul\":5906:5934   */\n      and\n        /* \"#utility.yul\":5896:5934   */\n      swap1\n      pop\n        /* \"#utility.yul\":5838:5940   */\n      swap2\n      swap1\n      pop\n      jump\t// out\n        /* \"#utility.yul\":5946:6068   */\n    tag_50:\n        /* \"#utility.yul\":6019:6043   */\n      tag_117\n        /* \"#utility.yul\":6037:6042   */\n      dup2\n        /* \"#utility.yul\":6019:6043   */\n      tag_92\n      jump\t// in\n    tag_117:\n        /* \"#utility.yul\":6012:6017   */\n      dup2\n        /* \"#utility.yul\":6009:6044   */\n      eq\n        /* \"#utility.yul\":5999:6062   */\n      tag_118\n      jumpi\n        /* \"#utility.yul\":6058:6059   */\n      0x00\n        /* \"#utility.yul\":6055:6056   */\n      dup1\n        /* \"#utility.yul\":6048:6060   */\n      revert\n        /* \"#utility.yul\":5999:6062   */\n    tag_118:\n        /* \"#utility.yul\":5946:6068   */\n      pop\n      jump\t// out\n\n    auxdata: 0xa26469706673582212209a2f16c0c03f0d62040210c7462a8e4ca8be6757d469fdbbca71ffbe5ba5f87164736f6c63430008070033\n}\n",
				"bytecode": {
					"linkReferences": {},
					"object": "608060405234801561001057600080fd5b50610571806100206000396000f3fe608060405234801561001057600080fd5b50600436106100365760003560e01c80635cb119a91461003b578063f71d96cb14610057575b600080fd5b6100556004803603810190610050919061026b565b610088565b005b610071600480360381019061006c91906102e3565b6100a2565b60405161007f929190610349565b60405180910390f35b604051806040016040528083815260200182815250505050565b600081815481106100b257600080fd5b90600052602060002090600202016000915090508060000180546100d59061043e565b80601f01602080910402602001604051908101604052809291908181526020018280546101019061043e565b801561014e5780601f106101235761010080835404028352916020019161014e565b820191906000526020600020905b81548152906001019060200180831161013157829003601f168201915b5050505050908060010180546101639061043e565b80601f016020809104026020016040519081016040528092919081815260200182805461018f9061043e565b80156101dc5780601f106101b1576101008083540402835291602001916101dc565b820191906000526020600020905b8154815290600101906020018083116101bf57829003601f168201915b5050505050905082565b60006101f96101f4846103a5565b610380565b90508281526020810184848401111561021557610214610504565b5b6102208482856103fc565b509392505050565b600082601f83011261023d5761023c6104ff565b5b813561024d8482602086016101e6565b91505092915050565b60008135905061026581610524565b92915050565b600080604083850312156102825761028161050e565b5b600083013567ffffffffffffffff8111156102a05761029f610509565b5b6102ac85828601610228565b925050602083013567ffffffffffffffff8111156102cd576102cc610509565b5b6102d985828601610228565b9150509250929050565b6000602082840312156102f9576102f861050e565b5b600061030784828501610256565b91505092915050565b600061031b826103d6565b61032581856103e1565b935061033581856020860161040b565b61033e81610513565b840191505092915050565b600060408201905081810360008301526103638185610310565b905081810360208301526103778184610310565b90509392505050565b600061038a61039b565b90506103968282610470565b919050565b6000604051905090565b600067ffffffffffffffff8211156103c0576103bf6104d0565b5b6103c982610513565b9050602081019050919050565b600081519050919050565b600082825260208201905092915050565b6000819050919050565b82818337600083830152505050565b60005b8381101561042957808201518184015260208101905061040e565b83811115610438576000848401525b50505050565b6000600282049050600182168061045657607f821691505b6020821081141561046a576104696104a1565b5b50919050565b61047982610513565b810181811067ffffffffffffffff82111715610498576104976104d0565b5b80604052505050565b7f4e487b7100000000000000000000000000000000000000000000000000000000600052602260045260246000fd5b7f4e487b7100000000000000000000000000000000000000000000000000000000600052604160045260246000fd5b600080fd5b600080fd5b600080fd5b600080fd5b6000601f19601f8301169050919050565b61052d816103f2565b811461053857600080fd5b5056fea26469706673582212209a2f16c0c03f0d62040210c7462a8e4ca8be6757d469fdbbca71ffbe5ba5f87164736f6c63430008070033",
					"opcodes": "PUSH1 0x80 PUSH1 0x40 MSTORE CALLVALUE DUP1 ISZERO PUSH2 0x10 JUMPI PUSH1 0x0 DUP1 REVERT JUMPDEST POP PUSH2 0x571 DUP1 PUSH2 0x20 PUSH1 0x0 CODECOPY PUSH1 0x0 RETURN INVALID PUSH1 0x80 PUSH1 0x40 MSTORE CALLVALUE DUP1 ISZERO PUSH2 0x10 JUMPI PUSH1 0x0 DUP1 REVERT JUMPDEST POP PUSH1 0x4 CALLDATASIZE LT PUSH2 0x36 JUMPI PUSH1 0x0 CALLDATALOAD PUSH1 0xE0 SHR DUP1 PUSH4 0x5CB119A9 EQ PUSH2 0x3B JUMPI DUP1 PUSH4 0xF71D96CB EQ PUSH2 0x57 JUMPI JUMPDEST PUSH1 0x0 DUP1 REVERT JUMPDEST PUSH2 0x55 PUSH1 0x4 DUP1 CALLDATASIZE SUB DUP2 ADD SWAP1 PUSH2 0x50 SWAP2 SWAP1 PUSH2 0x26B JUMP JUMPDEST PUSH2 0x88 JUMP JUMPDEST STOP JUMPDEST PUSH2 0x71 PUSH1 0x4 DUP1 CALLDATASIZE SUB DUP2 ADD SWAP1 PUSH2 0x6C SWAP2 SWAP1 PUSH2 0x2E3 JUMP JUMPDEST PUSH2 0xA2 JUMP JUMPDEST PUSH1 0x40 MLOAD PUSH2 0x7F SWAP3 SWAP2 SWAP1 PUSH2 0x349 JUMP JUMPDEST PUSH1 0x40 MLOAD DUP1 SWAP2 SUB SWAP1 RETURN JUMPDEST PUSH1 0x40 MLOAD DUP1 PUSH1 0x40 ADD PUSH1 0x40 MSTORE DUP1 DUP4 DUP2 MSTORE PUSH1 0x20 ADD DUP3 DUP2 MSTORE POP POP POP POP JUMP JUMPDEST PUSH1 0x0 DUP2 DUP2 SLOAD DUP2 LT PUSH2 0xB2 JUMPI PUSH1 0x0 DUP1 REVERT JUMPDEST SWAP1 PUSH1 0x0 MSTORE PUSH1 0x20 PUSH1 0x0 KECCAK256 SWAP1 PUSH1 0x2 MUL ADD PUSH1 0x0 SWAP2 POP SWAP1 POP DUP1 PUSH1 0x0 ADD DUP1 SLOAD PUSH2 0xD5 SWAP1 PUSH2 0x43E JUMP JUMPDEST DUP1 PUSH1 0x1F ADD PUSH1 0x20 DUP1 SWAP2 DIV MUL PUSH1 0x20 ADD PUSH1 0x40 MLOAD SWAP1 DUP2 ADD PUSH1 0x40 MSTORE DUP1 SWAP3 SWAP2 SWAP1 DUP2 DUP2 MSTORE PUSH1 0x20 ADD DUP3 DUP1 SLOAD PUSH2 0x101 SWAP1 PUSH2 0x43E JUMP JUMPDEST DUP1 ISZERO PUSH2 0x14E JUMPI DUP1 PUSH1 0x1F LT PUSH2 0x123 JUMPI PUSH2 0x100 DUP1 DUP4 SLOAD DIV MUL DUP4 MSTORE SWAP2 PUSH1 0x20 ADD SWAP2 PUSH2 0x14E JUMP JUMPDEST DUP3 ADD SWAP2 SWAP1 PUSH1 0x0 MSTORE PUSH1 0x20 PUSH1 0x0 KECCAK256 SWAP1 JUMPDEST DUP2 SLOAD DUP2 MSTORE SWAP1 PUSH1 0x1 ADD SWAP1 PUSH1 0x20 ADD DUP1 DUP4 GT PUSH2 0x131 JUMPI DUP3 SWAP1 SUB PUSH1 0x1F AND DUP3 ADD SWAP2 JUMPDEST POP POP POP POP POP SWAP1 DUP1 PUSH1 0x1 ADD DUP1 SLOAD PUSH2 0x163 SWAP1 PUSH2 0x43E JUMP JUMPDEST DUP1 PUSH1 0x1F ADD PUSH1 0x20 DUP1 SWAP2 DIV MUL PUSH1 0x20 ADD PUSH1 0x40 MLOAD SWAP1 DUP2 ADD PUSH1 0x40 MSTORE DUP1 SWAP3 SWAP2 SWAP1 DUP2 DUP2 MSTORE PUSH1 0x20 ADD DUP3 DUP1 SLOAD PUSH2 0x18F SWAP1 PUSH2 0x43E JUMP JUMPDEST DUP1 ISZERO PUSH2 0x1DC JUMPI DUP1 PUSH1 0x1F LT PUSH2 0x1B1 JUMPI PUSH2 0x100 DUP1 DUP4 SLOAD DIV MUL DUP4 MSTORE SWAP2 PUSH1 0x20 ADD SWAP2 PUSH2 0x1DC JUMP JUMPDEST DUP3 ADD SWAP2 SWAP1 PUSH1 0x0 MSTORE PUSH1 0x20 PUSH1 0x0 KECCAK256 SWAP1 JUMPDEST DUP2 SLOAD DUP2 MSTORE SWAP1 PUSH1 0x1 ADD SWAP1 PUSH1 0x20 ADD DUP1 DUP4 GT PUSH2 0x1BF JUMPI DUP3 SWAP1 SUB PUSH1 0x1F AND DUP3 ADD SWAP2 JUMPDEST POP POP POP POP POP SWAP1 POP DUP3 JUMP JUMPDEST PUSH1 0x0 PUSH2 0x1F9 PUSH2 0x1F4 DUP5 PUSH2 0x3A5 JUMP JUMPDEST PUSH2 0x380 JUMP JUMPDEST SWAP1 POP DUP3 DUP2 MSTORE PUSH1 0x20 DUP2 ADD DUP5 DUP5 DUP5 ADD GT ISZERO PUSH2 0x215 JUMPI PUSH2 0x214 PUSH2 0x504 JUMP JUMPDEST JUMPDEST PUSH2 0x220 DUP5 DUP3 DUP6 PUSH2 0x3FC JUMP JUMPDEST POP SWAP4 SWAP3 POP POP POP JUMP JUMPDEST PUSH1 0x0 DUP3 PUSH1 0x1F DUP4 ADD SLT PUSH2 0x23D JUMPI PUSH2 0x23C PUSH2 0x4FF JUMP JUMPDEST JUMPDEST DUP2 CALLDATALOAD PUSH2 0x24D DUP5 DUP3 PUSH1 0x20 DUP7 ADD PUSH2 0x1E6 JUMP JUMPDEST SWAP2 POP POP SWAP3 SWAP2 POP POP JUMP JUMPDEST PUSH1 0x0 DUP2 CALLDATALOAD SWAP1 POP PUSH2 0x265 DUP2 PUSH2 0x524 JUMP JUMPDEST SWAP3 SWAP2 POP POP JUMP JUMPDEST PUSH1 0x0 DUP1 PUSH1 0x40 DUP4 DUP6 SUB SLT ISZERO PUSH2 0x282 JUMPI PUSH2 0x281 PUSH2 0x50E JUMP JUMPDEST JUMPDEST PUSH1 0x0 DUP4 ADD CALLDATALOAD PUSH8 0xFFFFFFFFFFFFFFFF DUP2 GT ISZERO PUSH2 0x2A0 JUMPI PUSH2 0x29F PUSH2 0x509 JUMP JUMPDEST JUMPDEST PUSH2 0x2AC DUP6 DUP3 DUP7 ADD PUSH2 0x228 JUMP JUMPDEST SWAP3 POP POP PUSH1 0x20 DUP4 ADD CALLDATALOAD PUSH8 0xFFFFFFFFFFFFFFFF DUP2 GT ISZERO PUSH2 0x2CD JUMPI PUSH2 0x2CC PUSH2 0x509 JUMP JUMPDEST JUMPDEST PUSH2 0x2D9 DUP6 DUP3 DUP7 ADD PUSH2 0x228 JUMP JUMPDEST SWAP2 POP POP SWAP3 POP SWAP3 SWAP1 POP JUMP JUMPDEST PUSH1 0x0 PUSH1 0x20 DUP3 DUP5 SUB SLT ISZERO PUSH2 0x2F9 JUMPI PUSH2 0x2F8 PUSH2 0x50E JUMP JUMPDEST JUMPDEST PUSH1 0x0 PUSH2 0x307 DUP5 DUP3 DUP6 ADD PUSH2 0x256 JUMP JUMPDEST SWAP2 POP POP SWAP3 SWAP2 POP POP JUMP JUMPDEST PUSH1 0x0 PUSH2 0x31B DUP3 PUSH2 0x3D6 JUMP JUMPDEST PUSH2 0x325 DUP2 DUP6 PUSH2 0x3E1 JUMP JUMPDEST SWAP4 POP PUSH2 0x335 DUP2 DUP6 PUSH1 0x20 DUP7 ADD PUSH2 0x40B JUMP JUMPDEST PUSH2 0x33E DUP2 PUSH2 0x513 JUMP JUMPDEST DUP5 ADD SWAP2 POP POP SWAP3 SWAP2 POP POP JUMP JUMPDEST PUSH1 0x0 PUSH1 0x40 DUP3 ADD SWAP1 POP DUP2 DUP2 SUB PUSH1 0x0 DUP4 ADD MSTORE PUSH2 0x363 DUP2 DUP6 PUSH2 0x310 JUMP JUMPDEST SWAP1 POP DUP2 DUP2 SUB PUSH1 0x20 DUP4 ADD MSTORE PUSH2 0x377 DUP2 DUP5 PUSH2 0x310 JUMP JUMPDEST SWAP1 POP SWAP4 SWAP3 POP POP POP JUMP JUMPDEST PUSH1 0x0 PUSH2 0x38A PUSH2 0x39B JUMP JUMPDEST SWAP1 POP PUSH2 0x396 DUP3 DUP3 PUSH2 0x470 JUMP JUMPDEST SWAP2 SWAP1 POP JUMP JUMPDEST PUSH1 0x0 PUSH1 0x40 MLOAD SWAP1 POP SWAP1 JUMP JUMPDEST PUSH1 0x0 PUSH8 0xFFFFFFFFFFFFFFFF DUP3 GT ISZERO PUSH2 0x3C0 JUMPI PUSH2 0x3BF PUSH2 0x4D0 JUMP JUMPDEST JUMPDEST PUSH2 0x3C9 DUP3 PUSH2 0x513 JUMP JUMPDEST SWAP1 POP PUSH1 0x20 DUP2 ADD SWAP1 POP SWAP2 SWAP1 POP JUMP JUMPDEST PUSH1 0x0 DUP2 MLOAD SWAP1 POP SWAP2 SWAP1 POP JUMP JUMPDEST PUSH1 0x0 DUP3 DUP3 MSTORE PUSH1 0x20 DUP3 ADD SWAP1 POP SWAP3 SWAP2 POP POP JUMP JUMPDEST PUSH1 0x0 DUP2 SWAP1 POP SWAP2 SWAP1 POP JUMP JUMPDEST DUP3 DUP2 DUP4 CALLDATACOPY PUSH1 0x0 DUP4 DUP4 ADD MSTORE POP POP POP JUMP JUMPDEST PUSH1 0x0 JUMPDEST DUP4 DUP2 LT ISZERO PUSH2 0x429 JUMPI DUP1 DUP3 ADD MLOAD DUP2 DUP5 ADD MSTORE PUSH1 0x20 DUP2 ADD SWAP1 POP PUSH2 0x40E JUMP JUMPDEST DUP4 DUP2 GT ISZERO PUSH2 0x438 JUMPI PUSH1 0x0 DUP5 DUP5 ADD MSTORE JUMPDEST POP POP POP POP JUMP JUMPDEST PUSH1 0x0 PUSH1 0x2 DUP3 DIV SWAP1 POP PUSH1 0x1 DUP3 AND DUP1 PUSH2 0x456 JUMPI PUSH1 0x7F DUP3 AND SWAP2 POP JUMPDEST PUSH1 0x20 DUP3 LT DUP2 EQ ISZERO PUSH2 0x46A JUMPI PUSH2 0x469 PUSH2 0x4A1 JUMP JUMPDEST JUMPDEST POP SWAP2 SWAP1 POP JUMP JUMPDEST PUSH2 0x479 DUP3 PUSH2 0x513 JUMP JUMPDEST DUP2 ADD DUP2 DUP2 LT PUSH8 0xFFFFFFFFFFFFFFFF DUP3 GT OR ISZERO PUSH2 0x498 JUMPI PUSH2 0x497 PUSH2 0x4D0 JUMP JUMPDEST JUMPDEST DUP1 PUSH1 0x40 MSTORE POP POP POP JUMP JUMPDEST PUSH32 0x4E487B7100000000000000000000000000000000000000000000000000000000 PUSH1 0x0 MSTORE PUSH1 0x22 PUSH1 0x4 MSTORE PUSH1 0x24 PUSH1 0x0 REVERT JUMPDEST PUSH32 0x4E487B7100000000000000000000000000000000000000000000000000000000 PUSH1 0x0 MSTORE PUSH1 0x41 PUSH1 0x4 MSTORE PUSH1 0x24 PUSH1 0x0 REVERT JUMPDEST PUSH1 0x0 DUP1 REVERT JUMPDEST PUSH1 0x0 DUP1 REVERT JUMPDEST PUSH1 0x0 DUP1 REVERT JUMPDEST PUSH1 0x0 DUP1 REVERT JUMPDEST PUSH1 0x0 PUSH1 0x1F NOT PUSH1 0x1F DUP4 ADD AND SWAP1 POP SWAP2 SWAP1 POP JUMP JUMPDEST PUSH2 0x52D DUP2 PUSH2 0x3F2 JUMP JUMPDEST DUP2 EQ PUSH2 0x538 JUMPI PUSH1 0x0 DUP1 REVERT JUMPDEST POP JUMP INVALID LOG2 PUSH5 0x6970667358 0x22 SLT KECCAK256 SWAP11 0x2F AND 0xC0 0xC0 EXTCODEHASH 0xD PUSH3 0x40210 0xC7 CHAINID 0x2A DUP15 0x4C 0xA8 0xBE PUSH8 0x57D469FDBBCA71FF 0xBE JUMPDEST 0xA5 0xF8 PUSH18 0x64736F6C6343000807003300000000000000 "
				},
				"gasEstimates": {
					"creation": {
						"codeDepositCost": "278600",
						"executionCost": "318",
						"totalCost": "278918"
					},
					"external": {
						"addPlayer(string,string)": "infinite",
						"players(uint256)": "infinite"
					}
				},
				"methodIdentifiers": {
					"addPlayer(string,string)": "5cb119a9",
					"players(uint256)": "f71d96cb"
				}
			},
			"storageLayout": {
				"storage": [
					{
						"astId": 5,
						"contract": "contracts/DataTypes.sol:myGame",
						"label": "players",
						"offset": 0,
						"slot": "0",
						"type": "t_array(t_struct(Player)10_storage)dyn_storage"
					}
				],
				"types": {
					"t_array(t_struct(Player)10_storage)dyn_storage": {
						"base": "t_struct(Player)10_storage",
						"encoding": "dynamic_array",
						"label": "struct myGame.Player[]",
						"numberOfBytes": "32"
					},
					"t_string_storage": {
						"encoding": "bytes",
						"label": "string",
						"numberOfBytes": "32"
					},
					"t_struct(Player)10_storage": {
						"encoding": "inplace",
						"label": "struct myGame.Player",
						"members": [
							{
								"astId": 7,
								"contract": "contracts/DataTypes.sol:myGame",
								"label": "firstName",
								"offset": 0,
								"slot": "0",
								"type": "t_string_storage"
							},
							{
								"astId": 9,
								"contract": "contracts/DataTypes.sol:myGame",
								"label": "lastName",
								"offset": 0,
								"slot": "1",
								"type": "t_string_storage"
							}
						],
						"numberOfBytes": "64"
					}
				}
			},
			"userdoc": {
				"kind": "user",
				"methods": {},
				"version": 1
			}
		}
	}
}