{
	"contracts/SimpleMultSend.sol": {
		"myGame": {
			"abi": [
				{
					"inputs": [],
					"stateMutability": "nonpayable",
					"type": "constructor"
				},
				{
					"inputs": [
						{
							"internalType": "address",
							"name": "playerAddress",
							"type": "address"
						}
					],
					"name": "changePlayerLevel",
					"outputs": [],
					"stateMutability": "nonpayable",
					"type": "function"
				},
				{
					"inputs": [],
					"name": "dealer",
					"outputs": [
						{
							"internalType": "address",
							"name": "",
							"type": "address"
						}
					],
					"stateMutability": "view",
					"type": "function"
				},
				{
					"inputs": [
						{
							"internalType": "string",
							"name": "firstName",
							"type": "string"
						},
						{
							"internalType": "string",
							"name": "lastName",
							"type": "string"
						}
					],
					"name": "joinGame",
					"outputs": [],
					"stateMutability": "payable",
					"type": "function"
				},
				{
					"inputs": [
						{
							"internalType": "address",
							"name": "loserAddress",
							"type": "address"
						}
					],
					"name": "payOutWinners",
					"outputs": [],
					"stateMutability": "payable",
					"type": "function"
				},
				{
					"inputs": [],
					"name": "playerCount",
					"outputs": [
						{
							"internalType": "uint256",
							"name": "",
							"type": "uint256"
						}
					],
					"stateMutability": "view",
					"type": "function"
				},
				{
					"inputs": [
						{
							"internalType": "address",
							"name": "",
							"type": "address"
						}
					],
					"name": "players",
					"outputs": [
						{
							"internalType": "address",
							"name": "playerAddress",
							"type": "address"
						},
						{
							"internalType": "enum myGame.Level",
							"name": "playerLevel",
							"type": "uint8"
						},
						{
							"internalType": "string",
							"name": "firstName",
							"type": "string"
						},
						{
							"internalType": "string",
							"name": "lastName",
							"type": "string"
						},
						{
							"internalType": "uint256",
							"name": "createdTime",
							"type": "uint256"
						}
					],
					"stateMutability": "view",
					"type": "function"
				},
				{
					"inputs": [
						{
							"internalType": "uint256",
							"name": "",
							"type": "uint256"
						}
					],
					"name": "playersInGame",
					"outputs": [
						{
							"internalType": "address",
							"name": "playerAddress",
							"type": "address"
						},
						{
							"internalType": "enum myGame.Level",
							"name": "playerLevel",
							"type": "uint8"
						},
						{
							"internalType": "string",
							"name": "firstName",
							"type": "string"
						},
						{
							"internalType": "string",
							"name": "lastName",
							"type": "string"
						},
						{
							"internalType": "uint256",
							"name": "createdTime",
							"type": "uint256"
						}
					],
					"stateMutability": "view",
					"type": "function"
				},
				{
					"inputs": [],
					"name": "pot",
					"outputs": [
						{
							"internalType": "uint256",
							"name": "",
							"type": "uint256"
						}
					],
					"stateMutability": "view",
					"type": "function"
				}
			],
			"devdoc": {
				"kind": "dev",
				"methods": {},
				"version": 1
			},
			"evm": {
				"assembly": "    /* \"contracts/SimpleMultSend.sol\":67:2094  contract myGame {... */\n  mstore(0x40, 0x80)\n    /* \"contracts/SimpleMultSend.sol\":116:117  0 */\n  0x00\n    /* \"contracts/SimpleMultSend.sol\":90:117  uint public playerCount = 0 */\n  dup1\n  sstore\n    /* \"contracts/SimpleMultSend.sol\":141:142  0 */\n  0x00\n    /* \"contracts/SimpleMultSend.sol\":123:142  uint public pot = 0 */\n  0x01\n  sstore\n    /* \"contracts/SimpleMultSend.sol\":477:526  constructor(){... */\n  callvalue\n  dup1\n  iszero\n  tag_1\n  jumpi\n  0x00\n  dup1\n  revert\ntag_1:\n  pop\n    /* \"contracts/SimpleMultSend.sol\":509:519  msg.sender */\n  caller\n    /* \"contracts/SimpleMultSend.sol\":500:506  dealer */\n  0x02\n  0x00\n    /* \"contracts/SimpleMultSend.sol\":500:519  dealer = msg.sender */\n  0x0100\n  exp\n  dup2\n  sload\n  dup2\n  0xffffffffffffffffffffffffffffffffffffffff\n  mul\n  not\n  and\n  swap1\n  dup4\n  0xffffffffffffffffffffffffffffffffffffffff\n  and\n  mul\n  or\n  swap1\n  sstore\n  pop\n    /* \"contracts/SimpleMultSend.sol\":67:2094  contract myGame {... */\n  dataSize(sub_0)\n  dup1\n  dataOffset(sub_0)\n  0x00\n  codecopy\n  0x00\n  return\nstop\n\nsub_0: assembly {\n        /* \"contracts/SimpleMultSend.sol\":67:2094  contract myGame {... */\n      mstore(0x40, 0x80)\n      jumpi(tag_1, lt(calldatasize, 0x04))\n      shr(0xe0, calldataload(0x00))\n      dup1\n      0xdbdef6f1\n      gt\n      tag_10\n      jumpi\n      dup1\n      0xdbdef6f1\n      eq\n      tag_6\n      jumpi\n      dup1\n      0xe2eb41ff\n      eq\n      tag_7\n      jumpi\n      dup1\n      0xf9593e14\n      eq\n      tag_8\n      jumpi\n      dup1\n      0xfed47dac\n      eq\n      tag_9\n      jumpi\n      jump(tag_1)\n    tag_10:\n      dup1\n      0x302bcc57\n      eq\n      tag_2\n      jumpi\n      dup1\n      0x4ba2363a\n      eq\n      tag_3\n      jumpi\n      dup1\n      0x8ddf0f7d\n      eq\n      tag_4\n      jumpi\n      dup1\n      0x9de2ee21\n      eq\n      tag_5\n      jumpi\n    tag_1:\n      0x00\n      dup1\n      revert\n        /* \"contracts/SimpleMultSend.sol\":90:117  uint public playerCount = 0 */\n    tag_2:\n      callvalue\n      dup1\n      iszero\n      tag_11\n      jumpi\n      0x00\n      dup1\n      revert\n    tag_11:\n      pop\n      tag_12\n      tag_13\n      jump\t// in\n    tag_12:\n      mload(0x40)\n      tag_14\n      swap2\n      swap1\n      tag_15\n      jump\t// in\n    tag_14:\n      mload(0x40)\n      dup1\n      swap2\n      sub\n      swap1\n      return\n        /* \"contracts/SimpleMultSend.sol\":123:142  uint public pot = 0 */\n    tag_3:\n      callvalue\n      dup1\n      iszero\n      tag_16\n      jumpi\n      0x00\n      dup1\n      revert\n    tag_16:\n      pop\n      tag_17\n      tag_18\n      jump\t// in\n    tag_17:\n      mload(0x40)\n      tag_19\n      swap2\n      swap1\n      tag_15\n      jump\t// in\n    tag_19:\n      mload(0x40)\n      dup1\n      swap2\n      sub\n      swap1\n      return\n        /* \"contracts/SimpleMultSend.sol\":987:1229  function changePlayerLevel (address playerAddress) public {... */\n    tag_4:\n      callvalue\n      dup1\n      iszero\n      tag_20\n      jumpi\n      0x00\n      dup1\n      revert\n    tag_20:\n      pop\n      tag_21\n      0x04\n      dup1\n      calldatasize\n      sub\n      dup2\n      add\n      swap1\n      tag_22\n      swap2\n      swap1\n      tag_23\n      jump\t// in\n    tag_22:\n      tag_24\n      jump\t// in\n    tag_21:\n      stop\n        /* \"contracts/SimpleMultSend.sol\":149:170  address public dealer */\n    tag_5:\n      callvalue\n      dup1\n      iszero\n      tag_25\n      jumpi\n      0x00\n      dup1\n      revert\n    tag_25:\n      pop\n      tag_26\n      tag_27\n      jump\t// in\n    tag_26:\n      mload(0x40)\n      tag_28\n      swap2\n      swap1\n      tag_29\n      jump\t// in\n    tag_28:\n      mload(0x40)\n      dup1\n      swap2\n      sub\n      swap1\n      return\n        /* \"contracts/SimpleMultSend.sol\":1235:1549  function joinGame(string memory firstName, string memory lastName) payable public {... */\n    tag_6:\n      tag_30\n      0x04\n      dup1\n      calldatasize\n      sub\n      dup2\n      add\n      swap1\n      tag_31\n      swap2\n      swap1\n      tag_32\n      jump\t// in\n    tag_31:\n      tag_33\n      jump\t// in\n    tag_30:\n      stop\n        /* \"contracts/SimpleMultSend.sol\":213:255  mapping (address => Player) public players */\n    tag_7:\n      callvalue\n      dup1\n      iszero\n      tag_34\n      jumpi\n      0x00\n      dup1\n      revert\n    tag_34:\n      pop\n      tag_35\n      0x04\n      dup1\n      calldatasize\n      sub\n      dup2\n      add\n      swap1\n      tag_36\n      swap2\n      swap1\n      tag_23\n      jump\t// in\n    tag_36:\n      tag_37\n      jump\t// in\n    tag_35:\n      mload(0x40)\n      tag_38\n      swap6\n      swap5\n      swap4\n      swap3\n      swap2\n      swap1\n      tag_39\n      jump\t// in\n    tag_38:\n      mload(0x40)\n      dup1\n      swap2\n      sub\n      swap1\n      return\n        /* \"contracts/SimpleMultSend.sol\":177:206  Player[] public playersInGame */\n    tag_8:\n      callvalue\n      dup1\n      iszero\n      tag_40\n      jumpi\n      0x00\n      dup1\n      revert\n    tag_40:\n      pop\n      tag_41\n      0x04\n      dup1\n      calldatasize\n      sub\n      dup2\n      add\n      swap1\n      tag_42\n      swap2\n      swap1\n      tag_43\n      jump\t// in\n    tag_42:\n      tag_44\n      jump\t// in\n    tag_41:\n      mload(0x40)\n      tag_45\n      swap6\n      swap5\n      swap4\n      swap3\n      swap2\n      swap1\n      tag_39\n      jump\t// in\n    tag_45:\n      mload(0x40)\n      dup1\n      swap2\n      sub\n      swap1\n      return\n        /* \"contracts/SimpleMultSend.sol\":1555:2088  function payOutWinners(address loserAddress) payable public {... */\n    tag_9:\n      tag_46\n      0x04\n      dup1\n      calldatasize\n      sub\n      dup2\n      add\n      swap1\n      tag_47\n      swap2\n      swap1\n      tag_23\n      jump\t// in\n    tag_47:\n      tag_48\n      jump\t// in\n    tag_46:\n      stop\n        /* \"contracts/SimpleMultSend.sol\":90:117  uint public playerCount = 0 */\n    tag_13:\n      sload(0x00)\n      dup2\n      jump\t// out\n        /* \"contracts/SimpleMultSend.sol\":123:142  uint public pot = 0 */\n    tag_18:\n      sload(0x01)\n      dup2\n      jump\t// out\n        /* \"contracts/SimpleMultSend.sol\":987:1229  function changePlayerLevel (address playerAddress) public {... */\n    tag_24:\n        /* \"contracts/SimpleMultSend.sol\":1055:1076  Player storage player */\n      0x00\n        /* \"contracts/SimpleMultSend.sol\":1079:1086  players */\n      0x04\n        /* \"contracts/SimpleMultSend.sol\":1079:1101  players[playerAddress] */\n      0x00\n        /* \"contracts/SimpleMultSend.sol\":1087:1100  playerAddress */\n      dup4\n        /* \"contracts/SimpleMultSend.sol\":1079:1101  players[playerAddress] */\n      0xffffffffffffffffffffffffffffffffffffffff\n      and\n      0xffffffffffffffffffffffffffffffffffffffff\n      and\n      dup2\n      mstore\n      0x20\n      add\n      swap1\n      dup2\n      mstore\n      0x20\n      add\n      0x00\n      keccak256\n        /* \"contracts/SimpleMultSend.sol\":1055:1101  Player storage player = players[playerAddress] */\n      swap1\n      pop\n        /* \"contracts/SimpleMultSend.sol\":1155:1157  20 */\n      0x14\n        /* \"contracts/SimpleMultSend.sol\":1134:1140  player */\n      dup2\n        /* \"contracts/SimpleMultSend.sol\":1134:1152  player.createdTime */\n      0x03\n      add\n      sload\n        /* \"contracts/SimpleMultSend.sol\":1134:1157  player.createdTime + 20 */\n      tag_50\n      swap2\n      swap1\n      tag_51\n      jump\t// in\n    tag_50:\n        /* \"contracts/SimpleMultSend.sol\":1115:1130  block.timestamp */\n      timestamp\n        /* \"contracts/SimpleMultSend.sol\":1115:1157  block.timestamp >= player.createdTime + 20 */\n      lt\n        /* \"contracts/SimpleMultSend.sol\":1111:1223  if (block.timestamp >= player.createdTime + 20) {... */\n      tag_52\n      jumpi\n        /* \"contracts/SimpleMultSend.sol\":1194:1212  Level.Intermediate */\n      0x01\n        /* \"contracts/SimpleMultSend.sol\":1173:1179  player */\n      dup2\n        /* \"contracts/SimpleMultSend.sol\":1173:1191  player.playerLevel */\n      0x00\n      add\n      0x14\n        /* \"contracts/SimpleMultSend.sol\":1173:1212  player.playerLevel = Level.Intermediate */\n      0x0100\n      exp\n      dup2\n      sload\n      dup2\n      0xff\n      mul\n      not\n      and\n      swap1\n      dup4\n      0x02\n      dup2\n      gt\n      iszero\n      tag_53\n      jumpi\n      tag_54\n      tag_55\n      jump\t// in\n    tag_54:\n    tag_53:\n      mul\n      or\n      swap1\n      sstore\n      pop\n        /* \"contracts/SimpleMultSend.sol\":1111:1223  if (block.timestamp >= player.createdTime + 20) {... */\n    tag_52:\n        /* \"contracts/SimpleMultSend.sol\":1045:1229  {... */\n      pop\n        /* \"contracts/SimpleMultSend.sol\":987:1229  function changePlayerLevel (address playerAddress) public {... */\n      pop\n      jump\t// out\n        /* \"contracts/SimpleMultSend.sol\":149:170  address public dealer */\n    tag_27:\n      0x02\n      0x00\n      swap1\n      sload\n      swap1\n      0x0100\n      exp\n      swap1\n      div\n      0xffffffffffffffffffffffffffffffffffffffff\n      and\n      dup2\n      jump\t// out\n        /* \"contracts/SimpleMultSend.sol\":1235:1549  function joinGame(string memory firstName, string memory lastName) payable public {... */\n    tag_33:\n        /* \"contracts/SimpleMultSend.sol\":1348:1356  25 ether */\n      0x015af1d78b58c40000\n        /* \"contracts/SimpleMultSend.sol\":1335:1344  msg.value */\n      callvalue\n        /* \"contracts/SimpleMultSend.sol\":1335:1356  msg.value == 25 ether */\n      eq\n        /* \"contracts/SimpleMultSend.sol\":1327:1388  require(msg.value == 25 ether, \"The joining fee is 25 ether\") */\n      tag_57\n      jumpi\n      mload(0x40)\n      0x08c379a000000000000000000000000000000000000000000000000000000000\n      dup2\n      mstore\n      0x04\n      add\n      tag_58\n      swap1\n      tag_59\n      jump\t// in\n    tag_58:\n      mload(0x40)\n      dup1\n      swap2\n      sub\n      swap1\n      revert\n    tag_57:\n        /* \"contracts/SimpleMultSend.sol\":1410:1416  dealer */\n      0x02\n      0x00\n      swap1\n      sload\n      swap1\n      0x0100\n      exp\n      swap1\n      div\n      0xffffffffffffffffffffffffffffffffffffffff\n      and\n        /* \"contracts/SimpleMultSend.sol\":1402:1422  payable(dealer).send */\n      0xffffffffffffffffffffffffffffffffffffffff\n      and\n        /* \"contracts/SimpleMultSend.sol\":1402:1433  payable(dealer).send(msg.value) */\n      0x08fc\n        /* \"contracts/SimpleMultSend.sol\":1423:1432  msg.value */\n      callvalue\n        /* \"contracts/SimpleMultSend.sol\":1402:1433  payable(dealer).send(msg.value) */\n      swap1\n      dup2\n      iszero\n      mul\n      swap1\n      mload(0x40)\n      0x00\n      mload(0x40)\n      dup1\n      dup4\n      sub\n      dup2\n      dup6\n      dup9\n      dup9\n      call\n      swap4\n      pop\n      pop\n      pop\n      pop\n        /* \"contracts/SimpleMultSend.sol\":1398:1543  if (payable(dealer).send(msg.value)) {... */\n      iszero\n      tag_61\n      jumpi\n        /* \"contracts/SimpleMultSend.sol\":1449:1479  addPlayer(firstName, lastName) */\n      tag_62\n        /* \"contracts/SimpleMultSend.sol\":1459:1468  firstName */\n      dup3\n        /* \"contracts/SimpleMultSend.sol\":1470:1478  lastName */\n      dup3\n        /* \"contracts/SimpleMultSend.sol\":1449:1458  addPlayer */\n      tag_63\n        /* \"contracts/SimpleMultSend.sol\":1449:1479  addPlayer(firstName, lastName) */\n      jump\t// in\n    tag_62:\n        /* \"contracts/SimpleMultSend.sol\":1508:1509  1 */\n      0x01\n        /* \"contracts/SimpleMultSend.sol\":1493:1504  playerCount */\n      0x00\n      dup1\n        /* \"contracts/SimpleMultSend.sol\":1493:1509  playerCount += 1 */\n      dup3\n      dup3\n      sload\n      tag_64\n      swap2\n      swap1\n      tag_51\n      jump\t// in\n    tag_64:\n      swap3\n      pop\n      pop\n      dup2\n      swap1\n      sstore\n      pop\n        /* \"contracts/SimpleMultSend.sol\":1530:1532  25 */\n      0x19\n        /* \"contracts/SimpleMultSend.sol\":1523:1526  pot */\n      0x01\n      0x00\n        /* \"contracts/SimpleMultSend.sol\":1523:1532  pot += 25 */\n      dup3\n      dup3\n      sload\n      tag_65\n      swap2\n      swap1\n      tag_51\n      jump\t// in\n    tag_65:\n      swap3\n      pop\n      pop\n      dup2\n      swap1\n      sstore\n      pop\n        /* \"contracts/SimpleMultSend.sol\":1398:1543  if (payable(dealer).send(msg.value)) {... */\n    tag_61:\n        /* \"contracts/SimpleMultSend.sol\":1235:1549  function joinGame(string memory firstName, string memory lastName) payable public {... */\n      pop\n      pop\n      jump\t// out\n        /* \"contracts/SimpleMultSend.sol\":213:255  mapping (address => Player) public players */\n    tag_37:\n      mstore(0x20, 0x04)\n      dup1\n      0x00\n      mstore\n      keccak256(0x00, 0x40)\n      0x00\n      swap2\n      pop\n      swap1\n      pop\n      dup1\n      0x00\n      add\n      0x00\n      swap1\n      sload\n      swap1\n      0x0100\n      exp\n      swap1\n      div\n      0xffffffffffffffffffffffffffffffffffffffff\n      and\n      swap1\n      dup1\n      0x00\n      add\n      0x14\n      swap1\n      sload\n      swap1\n      0x0100\n      exp\n      swap1\n      div\n      0xff\n      and\n      swap1\n      dup1\n      0x01\n      add\n      dup1\n      sload\n      tag_66\n      swap1\n      tag_67\n      jump\t// in\n    tag_66:\n      dup1\n      0x1f\n      add\n      0x20\n      dup1\n      swap2\n      div\n      mul\n      0x20\n      add\n      mload(0x40)\n      swap1\n      dup2\n      add\n      0x40\n      mstore\n      dup1\n      swap3\n      swap2\n      swap1\n      dup2\n      dup2\n      mstore\n      0x20\n      add\n      dup3\n      dup1\n      sload\n      tag_68\n      swap1\n      tag_67\n      jump\t// in\n    tag_68:\n      dup1\n      iszero\n      tag_69\n      jumpi\n      dup1\n      0x1f\n      lt\n      tag_70\n      jumpi\n      0x0100\n      dup1\n      dup4\n      sload\n      div\n      mul\n      dup4\n      mstore\n      swap2\n      0x20\n      add\n      swap2\n      jump(tag_69)\n    tag_70:\n      dup3\n      add\n      swap2\n      swap1\n      0x00\n      mstore\n      keccak256(0x00, 0x20)\n      swap1\n    tag_71:\n      dup2\n      sload\n      dup2\n      mstore\n      swap1\n      0x01\n      add\n      swap1\n      0x20\n      add\n      dup1\n      dup4\n      gt\n      tag_71\n      jumpi\n      dup3\n      swap1\n      sub\n      0x1f\n      and\n      dup3\n      add\n      swap2\n    tag_69:\n      pop\n      pop\n      pop\n      pop\n      pop\n      swap1\n      dup1\n      0x02\n      add\n      dup1\n      sload\n      tag_72\n      swap1\n      tag_67\n      jump\t// in\n    tag_72:\n      dup1\n      0x1f\n      add\n      0x20\n      dup1\n      swap2\n      div\n      mul\n      0x20\n      add\n      mload(0x40)\n      swap1\n      dup2\n      add\n      0x40\n      mstore\n      dup1\n      swap3\n      swap2\n      swap1\n      dup2\n      dup2\n      mstore\n      0x20\n      add\n      dup3\n      dup1\n      sload\n      tag_73\n      swap1\n      tag_67\n      jump\t// in\n    tag_73:\n      dup1\n      iszero\n      tag_74\n      jumpi\n      dup1\n      0x1f\n      lt\n      tag_75\n      jumpi\n      0x0100\n      dup1\n      dup4\n      sload\n      div\n      mul\n      dup4\n      mstore\n      swap2\n      0x20\n      add\n      swap2\n      jump(tag_74)\n    tag_75:\n      dup3\n      add\n      swap2\n      swap1\n      0x00\n      mstore\n      keccak256(0x00, 0x20)\n      swap1\n    tag_76:\n      dup2\n      sload\n      dup2\n      mstore\n      swap1\n      0x01\n      add\n      swap1\n      0x20\n      add\n      dup1\n      dup4\n      gt\n      tag_76\n      jumpi\n      dup3\n      swap1\n      sub\n      0x1f\n      and\n      dup3\n      add\n      swap2\n    tag_74:\n      pop\n      pop\n      pop\n      pop\n      pop\n      swap1\n      dup1\n      0x03\n      add\n      sload\n      swap1\n      pop\n      dup6\n      jump\t// out\n        /* \"contracts/SimpleMultSend.sol\":177:206  Player[] public playersInGame */\n    tag_44:\n      0x03\n      dup2\n      dup2\n      sload\n      dup2\n      lt\n      tag_77\n      jumpi\n      0x00\n      dup1\n      revert\n    tag_77:\n      swap1\n      0x00\n      mstore\n      keccak256(0x00, 0x20)\n      swap1\n      0x04\n      mul\n      add\n      0x00\n      swap2\n      pop\n      swap1\n      pop\n      dup1\n      0x00\n      add\n      0x00\n      swap1\n      sload\n      swap1\n      0x0100\n      exp\n      swap1\n      div\n      0xffffffffffffffffffffffffffffffffffffffff\n      and\n      swap1\n      dup1\n      0x00\n      add\n      0x14\n      swap1\n      sload\n      swap1\n      0x0100\n      exp\n      swap1\n      div\n      0xff\n      and\n      swap1\n      dup1\n      0x01\n      add\n      dup1\n      sload\n      tag_79\n      swap1\n      tag_67\n      jump\t// in\n    tag_79:\n      dup1\n      0x1f\n      add\n      0x20\n      dup1\n      swap2\n      div\n      mul\n      0x20\n      add\n      mload(0x40)\n      swap1\n      dup2\n      add\n      0x40\n      mstore\n      dup1\n      swap3\n      swap2\n      swap1\n      dup2\n      dup2\n      mstore\n      0x20\n      add\n      dup3\n      dup1\n      sload\n      tag_80\n      swap1\n      tag_67\n      jump\t// in\n    tag_80:\n      dup1\n      iszero\n      tag_81\n      jumpi\n      dup1\n      0x1f\n      lt\n      tag_82\n      jumpi\n      0x0100\n      dup1\n      dup4\n      sload\n      div\n      mul\n      dup4\n      mstore\n      swap2\n      0x20\n      add\n      swap2\n      jump(tag_81)\n    tag_82:\n      dup3\n      add\n      swap2\n      swap1\n      0x00\n      mstore\n      keccak256(0x00, 0x20)\n      swap1\n    tag_83:\n      dup2\n      sload\n      dup2\n      mstore\n      swap1\n      0x01\n      add\n      swap1\n      0x20\n      add\n      dup1\n      dup4\n      gt\n      tag_83\n      jumpi\n      dup3\n      swap1\n      sub\n      0x1f\n      and\n      dup3\n      add\n      swap2\n    tag_81:\n      pop\n      pop\n      pop\n      pop\n      pop\n      swap1\n      dup1\n      0x02\n      add\n      dup1\n      sload\n      tag_84\n      swap1\n      tag_67\n      jump\t// in\n    tag_84:\n      dup1\n      0x1f\n      add\n      0x20\n      dup1\n      swap2\n      div\n      mul\n      0x20\n      add\n      mload(0x40)\n      swap1\n      dup2\n      add\n      0x40\n      mstore\n      dup1\n      swap3\n      swap2\n      swap1\n      dup2\n      dup2\n      mstore\n      0x20\n      add\n      dup3\n      dup1\n      sload\n      tag_85\n      swap1\n      tag_67\n      jump\t// in\n    tag_85:\n      dup1\n      iszero\n      tag_86\n      jumpi\n      dup1\n      0x1f\n      lt\n      tag_87\n      jumpi\n      0x0100\n      dup1\n      dup4\n      sload\n      div\n      mul\n      dup4\n      mstore\n      swap2\n      0x20\n      add\n      swap2\n      jump(tag_86)\n    tag_87:\n      dup3\n      add\n      swap2\n      swap1\n      0x00\n      mstore\n      keccak256(0x00, 0x20)\n      swap1\n    tag_88:\n      dup2\n      sload\n      dup2\n      mstore\n      swap1\n      0x01\n      add\n      swap1\n      0x20\n      add\n      dup1\n      dup4\n      gt\n      tag_88\n      jumpi\n      dup3\n      swap1\n      sub\n      0x1f\n      and\n      dup3\n      add\n      swap2\n    tag_86:\n      pop\n      pop\n      pop\n      pop\n      pop\n      swap1\n      dup1\n      0x03\n      add\n      sload\n      swap1\n      pop\n      dup6\n      jump\t// out\n        /* \"contracts/SimpleMultSend.sol\":1555:2088  function payOutWinners(address loserAddress) payable public {... */\n    tag_48:\n        /* \"contracts/SimpleMultSend.sol\":1647:1653  dealer */\n      0x02\n      0x00\n      swap1\n      sload\n      swap1\n      0x0100\n      exp\n      swap1\n      div\n      0xffffffffffffffffffffffffffffffffffffffff\n      and\n        /* \"contracts/SimpleMultSend.sol\":1633:1653  msg.sender == dealer */\n      0xffffffffffffffffffffffffffffffffffffffff\n      and\n        /* \"contracts/SimpleMultSend.sol\":1633:1643  msg.sender */\n      caller\n        /* \"contracts/SimpleMultSend.sol\":1633:1653  msg.sender == dealer */\n      0xffffffffffffffffffffffffffffffffffffffff\n      and\n      eq\n        /* \"contracts/SimpleMultSend.sol\":1625:1698  require(msg.sender == dealer, \"Only the dealer can pay out the winners.\") */\n      tag_90\n      jumpi\n      mload(0x40)\n      0x08c379a000000000000000000000000000000000000000000000000000000000\n      dup2\n      mstore\n      0x04\n      add\n      tag_91\n      swap1\n      tag_92\n      jump\t// in\n    tag_91:\n      mload(0x40)\n      dup1\n      swap2\n      sub\n      swap1\n      revert\n    tag_90:\n        /* \"contracts/SimpleMultSend.sol\":1736:1743  1 ether */\n      0x0de0b6b3a7640000\n        /* \"contracts/SimpleMultSend.sol\":1729:1732  pot */\n      sload(0x01)\n        /* \"contracts/SimpleMultSend.sol\":1729:1744  pot * (1 ether) */\n      tag_93\n      swap2\n      swap1\n      tag_94\n      jump\t// in\n    tag_93:\n        /* \"contracts/SimpleMultSend.sol\":1716:1725  msg.value */\n      callvalue\n        /* \"contracts/SimpleMultSend.sol\":1716:1744  msg.value == pot * (1 ether) */\n      eq\n        /* \"contracts/SimpleMultSend.sol\":1708:1745  require(msg.value == pot * (1 ether)) */\n      tag_95\n      jumpi\n      0x00\n      dup1\n      revert\n    tag_95:\n        /* \"contracts/SimpleMultSend.sol\":1755:1775  uint payoutPerWinner */\n      0x00\n        /* \"contracts/SimpleMultSend.sol\":1805:1806  1 */\n      0x01\n        /* \"contracts/SimpleMultSend.sol\":1791:1802  playerCount */\n      sload(0x00)\n        /* \"contracts/SimpleMultSend.sol\":1791:1806  playerCount - 1 */\n      tag_96\n      swap2\n      swap1\n      tag_97\n      jump\t// in\n    tag_96:\n        /* \"contracts/SimpleMultSend.sol\":1778:1787  msg.value */\n      callvalue\n        /* \"contracts/SimpleMultSend.sol\":1778:1807  msg.value / (playerCount - 1) */\n      tag_98\n      swap2\n      swap1\n      tag_99\n      jump\t// in\n    tag_98:\n        /* \"contracts/SimpleMultSend.sol\":1755:1807  uint payoutPerWinner = msg.value / (playerCount - 1) */\n      swap1\n      pop\n        /* \"contracts/SimpleMultSend.sol\":1822:1828  uint i */\n      0x00\n        /* \"contracts/SimpleMultSend.sol\":1817:2078  for (uint i=0; i<playersInGame.length; i++) {... */\n    tag_100:\n        /* \"contracts/SimpleMultSend.sol\":1834:1847  playersInGame */\n      0x03\n        /* \"contracts/SimpleMultSend.sol\":1834:1854  playersInGame.length */\n      dup1\n      sload\n      swap1\n      pop\n        /* \"contracts/SimpleMultSend.sol\":1832:1833  i */\n      dup2\n        /* \"contracts/SimpleMultSend.sol\":1832:1854  i<playersInGame.length */\n      lt\n        /* \"contracts/SimpleMultSend.sol\":1817:2078  for (uint i=0; i<playersInGame.length; i++) {... */\n      iszero\n      tag_101\n      jumpi\n        /* \"contracts/SimpleMultSend.sol\":1875:1903  address currentPlayerAddress */\n      0x00\n        /* \"contracts/SimpleMultSend.sol\":1906:1919  playersInGame */\n      0x03\n        /* \"contracts/SimpleMultSend.sol\":1920:1921  i */\n      dup3\n        /* \"contracts/SimpleMultSend.sol\":1906:1922  playersInGame[i] */\n      dup2\n      sload\n      dup2\n      lt\n      tag_103\n      jumpi\n      tag_104\n      tag_105\n      jump\t// in\n    tag_104:\n    tag_103:\n      swap1\n      0x00\n      mstore\n      keccak256(0x00, 0x20)\n      swap1\n      0x04\n      mul\n      add\n        /* \"contracts/SimpleMultSend.sol\":1906:1936  playersInGame[i].playerAddress */\n      0x00\n      add\n      0x00\n      swap1\n      sload\n      swap1\n      0x0100\n      exp\n      swap1\n      div\n      0xffffffffffffffffffffffffffffffffffffffff\n      and\n        /* \"contracts/SimpleMultSend.sol\":1875:1936  address currentPlayerAddress = playersInGame[i].playerAddress */\n      swap1\n      pop\n        /* \"contracts/SimpleMultSend.sol\":1978:1990  loserAddress */\n      dup4\n        /* \"contracts/SimpleMultSend.sol\":1954:1990  currentPlayerAddress != loserAddress */\n      0xffffffffffffffffffffffffffffffffffffffff\n      and\n        /* \"contracts/SimpleMultSend.sol\":1954:1974  currentPlayerAddress */\n      dup2\n        /* \"contracts/SimpleMultSend.sol\":1954:1990  currentPlayerAddress != loserAddress */\n      0xffffffffffffffffffffffffffffffffffffffff\n      and\n      eq\n        /* \"contracts/SimpleMultSend.sol\":1950:2063  if (currentPlayerAddress != loserAddress)... */\n      tag_107\n      jumpi\n        /* \"contracts/SimpleMultSend.sol\":2016:2036  currentPlayerAddress */\n      dup1\n        /* \"contracts/SimpleMultSend.sol\":2008:2046  payable(currentPlayerAddress).transfer */\n      0xffffffffffffffffffffffffffffffffffffffff\n      and\n        /* \"contracts/SimpleMultSend.sol\":2008:2063  payable(currentPlayerAddress).transfer(payoutPerWinner) */\n      0x08fc\n        /* \"contracts/SimpleMultSend.sol\":2047:2062  payoutPerWinner */\n      dup5\n        /* \"contracts/SimpleMultSend.sol\":2008:2063  payable(currentPlayerAddress).transfer(payoutPerWinner) */\n      swap1\n      dup2\n      iszero\n      mul\n      swap1\n      mload(0x40)\n      0x00\n      mload(0x40)\n      dup1\n      dup4\n      sub\n      dup2\n      dup6\n      dup9\n      dup9\n      call\n      swap4\n      pop\n      pop\n      pop\n      pop\n      iszero\n      dup1\n      iszero\n      tag_109\n      jumpi\n      returndatasize\n      0x00\n      dup1\n      returndatacopy\n      revert(0x00, returndatasize)\n    tag_109:\n      pop\n        /* \"contracts/SimpleMultSend.sol\":1950:2063  if (currentPlayerAddress != loserAddress)... */\n    tag_107:\n        /* \"contracts/SimpleMultSend.sol\":1861:2078  {... */\n      pop\n        /* \"contracts/SimpleMultSend.sol\":1856:1859  i++ */\n      dup1\n      dup1\n      tag_110\n      swap1\n      tag_111\n      jump\t// in\n    tag_110:\n      swap2\n      pop\n      pop\n        /* \"contracts/SimpleMultSend.sol\":1817:2078  for (uint i=0; i<playersInGame.length; i++) {... */\n      jump(tag_100)\n    tag_101:\n      pop\n        /* \"contracts/SimpleMultSend.sol\":1615:2088  {... */\n      pop\n        /* \"contracts/SimpleMultSend.sol\":1555:2088  function payOutWinners(address loserAddress) payable public {... */\n      pop\n      jump\t// out\n        /* \"contracts/SimpleMultSend.sol\":532:801  function addPlayer(string memory firstName, string memory lastName) private {... */\n    tag_63:\n        /* \"contracts/SimpleMultSend.sol\":618:641  Player memory newPlayer */\n      0x00\n        /* \"contracts/SimpleMultSend.sol\":644:714  Player(msg.sender, Level.Novice, firstName, lastName, block.timestamp) */\n      mload(0x40)\n      dup1\n      0xa0\n      add\n      0x40\n      mstore\n      dup1\n        /* \"contracts/SimpleMultSend.sol\":651:661  msg.sender */\n      caller\n        /* \"contracts/SimpleMultSend.sol\":644:714  Player(msg.sender, Level.Novice, firstName, lastName, block.timestamp) */\n      0xffffffffffffffffffffffffffffffffffffffff\n      and\n      dup2\n      mstore\n      0x20\n      add\n        /* \"contracts/SimpleMultSend.sol\":663:675  Level.Novice */\n      0x00\n        /* \"contracts/SimpleMultSend.sol\":644:714  Player(msg.sender, Level.Novice, firstName, lastName, block.timestamp) */\n      0x02\n      dup2\n      gt\n      iszero\n      tag_113\n      jumpi\n      tag_114\n      tag_55\n      jump\t// in\n    tag_114:\n    tag_113:\n      dup2\n      mstore\n      0x20\n      add\n        /* \"contracts/SimpleMultSend.sol\":677:686  firstName */\n      dup5\n        /* \"contracts/SimpleMultSend.sol\":644:714  Player(msg.sender, Level.Novice, firstName, lastName, block.timestamp) */\n      dup2\n      mstore\n      0x20\n      add\n        /* \"contracts/SimpleMultSend.sol\":688:696  lastName */\n      dup4\n        /* \"contracts/SimpleMultSend.sol\":644:714  Player(msg.sender, Level.Novice, firstName, lastName, block.timestamp) */\n      dup2\n      mstore\n      0x20\n      add\n        /* \"contracts/SimpleMultSend.sol\":698:713  block.timestamp */\n      timestamp\n        /* \"contracts/SimpleMultSend.sol\":644:714  Player(msg.sender, Level.Novice, firstName, lastName, block.timestamp) */\n      dup2\n      mstore\n      pop\n        /* \"contracts/SimpleMultSend.sol\":618:714  Player memory newPlayer = Player(msg.sender, Level.Novice, firstName, lastName, block.timestamp) */\n      swap1\n      pop\n        /* \"contracts/SimpleMultSend.sol\":746:755  newPlayer */\n      dup1\n        /* \"contracts/SimpleMultSend.sol\":724:731  players */\n      0x04\n        /* \"contracts/SimpleMultSend.sol\":724:743  players[msg.sender] */\n      0x00\n        /* \"contracts/SimpleMultSend.sol\":732:742  msg.sender */\n      caller\n        /* \"contracts/SimpleMultSend.sol\":724:743  players[msg.sender] */\n      0xffffffffffffffffffffffffffffffffffffffff\n      and\n      0xffffffffffffffffffffffffffffffffffffffff\n      and\n      dup2\n      mstore\n      0x20\n      add\n      swap1\n      dup2\n      mstore\n      0x20\n      add\n      0x00\n      keccak256\n        /* \"contracts/SimpleMultSend.sol\":724:755  players[msg.sender] = newPlayer */\n      0x00\n      dup3\n      add\n      mload\n      dup2\n      0x00\n      add\n      exp(0x0100, 0x00)\n      dup2\n      sload\n      dup2\n      0xffffffffffffffffffffffffffffffffffffffff\n      mul\n      not\n      and\n      swap1\n      dup4\n      0xffffffffffffffffffffffffffffffffffffffff\n      and\n      mul\n      or\n      swap1\n      sstore\n      pop\n      0x20\n      dup3\n      add\n      mload\n      dup2\n      0x00\n      add\n      exp(0x0100, 0x14)\n      dup2\n      sload\n      dup2\n      0xff\n      mul\n      not\n      and\n      swap1\n      dup4\n      0x02\n      dup2\n      gt\n      iszero\n      tag_115\n      jumpi\n      tag_116\n      tag_55\n      jump\t// in\n    tag_116:\n    tag_115:\n      mul\n      or\n      swap1\n      sstore\n      pop\n      0x40\n      dup3\n      add\n      mload\n      dup2\n      0x01\n      add\n      swap1\n      dup1\n      mload\n      swap1\n      0x20\n      add\n      swap1\n      tag_117\n      swap3\n      swap2\n      swap1\n      tag_118\n      jump\t// in\n    tag_117:\n      pop\n      0x60\n      dup3\n      add\n      mload\n      dup2\n      0x02\n      add\n      swap1\n      dup1\n      mload\n      swap1\n      0x20\n      add\n      swap1\n      tag_119\n      swap3\n      swap2\n      swap1\n      tag_118\n      jump\t// in\n    tag_119:\n      pop\n      0x80\n      dup3\n      add\n      mload\n      dup2\n      0x03\n      add\n      sstore\n      swap1\n      pop\n      pop\n        /* \"contracts/SimpleMultSend.sol\":765:778  playersInGame */\n      0x03\n        /* \"contracts/SimpleMultSend.sol\":784:793  newPlayer */\n      dup2\n        /* \"contracts/SimpleMultSend.sol\":765:794  playersInGame.push(newPlayer) */\n      swap1\n      dup1\n      0x01\n      dup2\n      sload\n      add\n      dup1\n      dup3\n      sstore\n      dup1\n      swap2\n      pop\n      pop\n      0x01\n      swap1\n      sub\n      swap1\n      0x00\n      mstore\n      keccak256(0x00, 0x20)\n      swap1\n      0x04\n      mul\n      add\n      0x00\n      swap1\n      swap2\n      swap1\n      swap2\n      swap1\n      swap2\n      pop\n      0x00\n      dup3\n      add\n      mload\n      dup2\n      0x00\n      add\n      exp(0x0100, 0x00)\n      dup2\n      sload\n      dup2\n      0xffffffffffffffffffffffffffffffffffffffff\n      mul\n      not\n      and\n      swap1\n      dup4\n      0xffffffffffffffffffffffffffffffffffffffff\n      and\n      mul\n      or\n      swap1\n      sstore\n      pop\n      0x20\n      dup3\n      add\n      mload\n      dup2\n      0x00\n      add\n      exp(0x0100, 0x14)\n      dup2\n      sload\n      dup2\n      0xff\n      mul\n      not\n      and\n      swap1\n      dup4\n      0x02\n      dup2\n      gt\n      iszero\n      tag_121\n      jumpi\n      tag_122\n      tag_55\n      jump\t// in\n    tag_122:\n    tag_121:\n      mul\n      or\n      swap1\n      sstore\n      pop\n      0x40\n      dup3\n      add\n      mload\n      dup2\n      0x01\n      add\n      swap1\n      dup1\n      mload\n      swap1\n      0x20\n      add\n      swap1\n      tag_123\n      swap3\n      swap2\n      swap1\n      tag_118\n      jump\t// in\n    tag_123:\n      pop\n      0x60\n      dup3\n      add\n      mload\n      dup2\n      0x02\n      add\n      swap1\n      dup1\n      mload\n      swap1\n      0x20\n      add\n      swap1\n      tag_124\n      swap3\n      swap2\n      swap1\n      tag_118\n      jump\t// in\n    tag_124:\n      pop\n      0x80\n      dup3\n      add\n      mload\n      dup2\n      0x03\n      add\n      sstore\n      pop\n      pop\n        /* \"contracts/SimpleMultSend.sol\":608:801  {... */\n      pop\n        /* \"contracts/SimpleMultSend.sol\":532:801  function addPlayer(string memory firstName, string memory lastName) private {... */\n      pop\n      pop\n      jump\t// out\n    tag_118:\n      dup3\n      dup1\n      sload\n      tag_125\n      swap1\n      tag_67\n      jump\t// in\n    tag_125:\n      swap1\n      0x00\n      mstore\n      keccak256(0x00, 0x20)\n      swap1\n      0x1f\n      add\n      0x20\n      swap1\n      div\n      dup2\n      add\n      swap3\n      dup3\n      tag_127\n      jumpi\n      0x00\n      dup6\n      sstore\n      jump(tag_126)\n    tag_127:\n      dup3\n      0x1f\n      lt\n      tag_128\n      jumpi\n      dup1\n      mload\n      not(0xff)\n      and\n      dup4\n      dup1\n      add\n      or\n      dup6\n      sstore\n      jump(tag_126)\n    tag_128:\n      dup3\n      dup1\n      add\n      0x01\n      add\n      dup6\n      sstore\n      dup3\n      iszero\n      tag_126\n      jumpi\n      swap2\n      dup3\n      add\n    tag_129:\n      dup3\n      dup2\n      gt\n      iszero\n      tag_130\n      jumpi\n      dup3\n      mload\n      dup3\n      sstore\n      swap2\n      0x20\n      add\n      swap2\n      swap1\n      0x01\n      add\n      swap1\n      jump(tag_129)\n    tag_130:\n    tag_126:\n      pop\n      swap1\n      pop\n      tag_131\n      swap2\n      swap1\n      tag_132\n      jump\t// in\n    tag_131:\n      pop\n      swap1\n      jump\t// out\n    tag_132:\n    tag_133:\n      dup1\n      dup3\n      gt\n      iszero\n      tag_134\n      jumpi\n      0x00\n      dup2\n      0x00\n      swap1\n      sstore\n      pop\n      0x01\n      add\n      jump(tag_133)\n    tag_134:\n      pop\n      swap1\n      jump\t// out\n        /* \"#utility.yul\":7:419   */\n    tag_136:\n        /* \"#utility.yul\":85:90   */\n      0x00\n        /* \"#utility.yul\":110:176   */\n      tag_138\n        /* \"#utility.yul\":126:175   */\n      tag_139\n        /* \"#utility.yul\":168:174   */\n      dup5\n        /* \"#utility.yul\":126:175   */\n      tag_140\n      jump\t// in\n    tag_139:\n        /* \"#utility.yul\":110:176   */\n      tag_141\n      jump\t// in\n    tag_138:\n        /* \"#utility.yul\":101:176   */\n      swap1\n      pop\n        /* \"#utility.yul\":199:205   */\n      dup3\n        /* \"#utility.yul\":192:197   */\n      dup2\n        /* \"#utility.yul\":185:206   */\n      mstore\n        /* \"#utility.yul\":237:241   */\n      0x20\n        /* \"#utility.yul\":230:235   */\n      dup2\n        /* \"#utility.yul\":226:242   */\n      add\n        /* \"#utility.yul\":275:278   */\n      dup5\n        /* \"#utility.yul\":266:272   */\n      dup5\n        /* \"#utility.yul\":261:264   */\n      dup5\n        /* \"#utility.yul\":257:273   */\n      add\n        /* \"#utility.yul\":254:279   */\n      gt\n        /* \"#utility.yul\":251:363   */\n      iszero\n      tag_142\n      jumpi\n        /* \"#utility.yul\":282:361   */\n      tag_143\n      tag_144\n      jump\t// in\n    tag_143:\n        /* \"#utility.yul\":251:363   */\n    tag_142:\n        /* \"#utility.yul\":372:413   */\n      tag_145\n        /* \"#utility.yul\":406:412   */\n      dup5\n        /* \"#utility.yul\":401:404   */\n      dup3\n        /* \"#utility.yul\":396:399   */\n      dup6\n        /* \"#utility.yul\":372:413   */\n      tag_146\n      jump\t// in\n    tag_145:\n        /* \"#utility.yul\":91:419   */\n      pop\n        /* \"#utility.yul\":7:419   */\n      swap4\n      swap3\n      pop\n      pop\n      pop\n      jump\t// out\n        /* \"#utility.yul\":425:564   */\n    tag_147:\n        /* \"#utility.yul\":471:476   */\n      0x00\n        /* \"#utility.yul\":509:515   */\n      dup2\n        /* \"#utility.yul\":496:516   */\n      calldataload\n        /* \"#utility.yul\":487:516   */\n      swap1\n      pop\n        /* \"#utility.yul\":525:558   */\n      tag_149\n        /* \"#utility.yul\":552:557   */\n      dup2\n        /* \"#utility.yul\":525:558   */\n      tag_150\n      jump\t// in\n    tag_149:\n        /* \"#utility.yul\":425:564   */\n      swap3\n      swap2\n      pop\n      pop\n      jump\t// out\n        /* \"#utility.yul\":584:924   */\n    tag_151:\n        /* \"#utility.yul\":640:645   */\n      0x00\n        /* \"#utility.yul\":689:692   */\n      dup3\n        /* \"#utility.yul\":682:686   */\n      0x1f\n        /* \"#utility.yul\":674:680   */\n      dup4\n        /* \"#utility.yul\":670:687   */\n      add\n        /* \"#utility.yul\":666:693   */\n      slt\n        /* \"#utility.yul\":656:778   */\n      tag_153\n      jumpi\n        /* \"#utility.yul\":697:776   */\n      tag_154\n      tag_155\n      jump\t// in\n    tag_154:\n        /* \"#utility.yul\":656:778   */\n    tag_153:\n        /* \"#utility.yul\":814:820   */\n      dup2\n        /* \"#utility.yul\":801:821   */\n      calldataload\n        /* \"#utility.yul\":839:918   */\n      tag_156\n        /* \"#utility.yul\":914:917   */\n      dup5\n        /* \"#utility.yul\":906:912   */\n      dup3\n        /* \"#utility.yul\":899:903   */\n      0x20\n        /* \"#utility.yul\":891:897   */\n      dup7\n        /* \"#utility.yul\":887:904   */\n      add\n        /* \"#utility.yul\":839:918   */\n      tag_136\n      jump\t// in\n    tag_156:\n        /* \"#utility.yul\":830:918   */\n      swap2\n      pop\n        /* \"#utility.yul\":646:924   */\n      pop\n        /* \"#utility.yul\":584:924   */\n      swap3\n      swap2\n      pop\n      pop\n      jump\t// out\n        /* \"#utility.yul\":930:1069   */\n    tag_157:\n        /* \"#utility.yul\":976:981   */\n      0x00\n        /* \"#utility.yul\":1014:1020   */\n      dup2\n        /* \"#utility.yul\":1001:1021   */\n      calldataload\n        /* \"#utility.yul\":992:1021   */\n      swap1\n      pop\n        /* \"#utility.yul\":1030:1063   */\n      tag_159\n        /* \"#utility.yul\":1057:1062   */\n      dup2\n        /* \"#utility.yul\":1030:1063   */\n      tag_160\n      jump\t// in\n    tag_159:\n        /* \"#utility.yul\":930:1069   */\n      swap3\n      swap2\n      pop\n      pop\n      jump\t// out\n        /* \"#utility.yul\":1075:1404   */\n    tag_23:\n        /* \"#utility.yul\":1134:1140   */\n      0x00\n        /* \"#utility.yul\":1183:1185   */\n      0x20\n        /* \"#utility.yul\":1171:1180   */\n      dup3\n        /* \"#utility.yul\":1162:1169   */\n      dup5\n        /* \"#utility.yul\":1158:1181   */\n      sub\n        /* \"#utility.yul\":1154:1186   */\n      slt\n        /* \"#utility.yul\":1151:1270   */\n      iszero\n      tag_162\n      jumpi\n        /* \"#utility.yul\":1189:1268   */\n      tag_163\n      tag_164\n      jump\t// in\n    tag_163:\n        /* \"#utility.yul\":1151:1270   */\n    tag_162:\n        /* \"#utility.yul\":1309:1310   */\n      0x00\n        /* \"#utility.yul\":1334:1387   */\n      tag_165\n        /* \"#utility.yul\":1379:1386   */\n      dup5\n        /* \"#utility.yul\":1370:1376   */\n      dup3\n        /* \"#utility.yul\":1359:1368   */\n      dup6\n        /* \"#utility.yul\":1355:1377   */\n      add\n        /* \"#utility.yul\":1334:1387   */\n      tag_147\n      jump\t// in\n    tag_165:\n        /* \"#utility.yul\":1324:1387   */\n      swap2\n      pop\n        /* \"#utility.yul\":1280:1397   */\n      pop\n        /* \"#utility.yul\":1075:1404   */\n      swap3\n      swap2\n      pop\n      pop\n      jump\t// out\n        /* \"#utility.yul\":1410:2244   */\n    tag_32:\n        /* \"#utility.yul\":1498:1504   */\n      0x00\n        /* \"#utility.yul\":1506:1512   */\n      dup1\n        /* \"#utility.yul\":1555:1557   */\n      0x40\n        /* \"#utility.yul\":1543:1552   */\n      dup4\n        /* \"#utility.yul\":1534:1541   */\n      dup6\n        /* \"#utility.yul\":1530:1553   */\n      sub\n        /* \"#utility.yul\":1526:1558   */\n      slt\n        /* \"#utility.yul\":1523:1642   */\n      iszero\n      tag_167\n      jumpi\n        /* \"#utility.yul\":1561:1640   */\n      tag_168\n      tag_164\n      jump\t// in\n    tag_168:\n        /* \"#utility.yul\":1523:1642   */\n    tag_167:\n        /* \"#utility.yul\":1709:1710   */\n      0x00\n        /* \"#utility.yul\":1698:1707   */\n      dup4\n        /* \"#utility.yul\":1694:1711   */\n      add\n        /* \"#utility.yul\":1681:1712   */\n      calldataload\n        /* \"#utility.yul\":1739:1757   */\n      0xffffffffffffffff\n        /* \"#utility.yul\":1731:1737   */\n      dup2\n        /* \"#utility.yul\":1728:1758   */\n      gt\n        /* \"#utility.yul\":1725:1842   */\n      iszero\n      tag_169\n      jumpi\n        /* \"#utility.yul\":1761:1840   */\n      tag_170\n      tag_171\n      jump\t// in\n    tag_170:\n        /* \"#utility.yul\":1725:1842   */\n    tag_169:\n        /* \"#utility.yul\":1866:1929   */\n      tag_172\n        /* \"#utility.yul\":1921:1928   */\n      dup6\n        /* \"#utility.yul\":1912:1918   */\n      dup3\n        /* \"#utility.yul\":1901:1910   */\n      dup7\n        /* \"#utility.yul\":1897:1919   */\n      add\n        /* \"#utility.yul\":1866:1929   */\n      tag_151\n      jump\t// in\n    tag_172:\n        /* \"#utility.yul\":1856:1929   */\n      swap3\n      pop\n        /* \"#utility.yul\":1652:1939   */\n      pop\n        /* \"#utility.yul\":2006:2008   */\n      0x20\n        /* \"#utility.yul\":1995:2004   */\n      dup4\n        /* \"#utility.yul\":1991:2009   */\n      add\n        /* \"#utility.yul\":1978:2010   */\n      calldataload\n        /* \"#utility.yul\":2037:2055   */\n      0xffffffffffffffff\n        /* \"#utility.yul\":2029:2035   */\n      dup2\n        /* \"#utility.yul\":2026:2056   */\n      gt\n        /* \"#utility.yul\":2023:2140   */\n      iszero\n      tag_173\n      jumpi\n        /* \"#utility.yul\":2059:2138   */\n      tag_174\n      tag_171\n      jump\t// in\n    tag_174:\n        /* \"#utility.yul\":2023:2140   */\n    tag_173:\n        /* \"#utility.yul\":2164:2227   */\n      tag_175\n        /* \"#utility.yul\":2219:2226   */\n      dup6\n        /* \"#utility.yul\":2210:2216   */\n      dup3\n        /* \"#utility.yul\":2199:2208   */\n      dup7\n        /* \"#utility.yul\":2195:2217   */\n      add\n        /* \"#utility.yul\":2164:2227   */\n      tag_151\n      jump\t// in\n    tag_175:\n        /* \"#utility.yul\":2154:2227   */\n      swap2\n      pop\n        /* \"#utility.yul\":1949:2237   */\n      pop\n        /* \"#utility.yul\":1410:2244   */\n      swap3\n      pop\n      swap3\n      swap1\n      pop\n      jump\t// out\n        /* \"#utility.yul\":2250:2579   */\n    tag_43:\n        /* \"#utility.yul\":2309:2315   */\n      0x00\n        /* \"#utility.yul\":2358:2360   */\n      0x20\n        /* \"#utility.yul\":2346:2355   */\n      dup3\n        /* \"#utility.yul\":2337:2344   */\n      dup5\n        /* \"#utility.yul\":2333:2356   */\n      sub\n        /* \"#utility.yul\":2329:2361   */\n      slt\n        /* \"#utility.yul\":2326:2445   */\n      iszero\n      tag_177\n      jumpi\n        /* \"#utility.yul\":2364:2443   */\n      tag_178\n      tag_164\n      jump\t// in\n    tag_178:\n        /* \"#utility.yul\":2326:2445   */\n    tag_177:\n        /* \"#utility.yul\":2484:2485   */\n      0x00\n        /* \"#utility.yul\":2509:2562   */\n      tag_179\n        /* \"#utility.yul\":2554:2561   */\n      dup5\n        /* \"#utility.yul\":2545:2551   */\n      dup3\n        /* \"#utility.yul\":2534:2543   */\n      dup6\n        /* \"#utility.yul\":2530:2552   */\n      add\n        /* \"#utility.yul\":2509:2562   */\n      tag_157\n      jump\t// in\n    tag_179:\n        /* \"#utility.yul\":2499:2562   */\n      swap2\n      pop\n        /* \"#utility.yul\":2455:2572   */\n      pop\n        /* \"#utility.yul\":2250:2579   */\n      swap3\n      swap2\n      pop\n      pop\n      jump\t// out\n        /* \"#utility.yul\":2585:2703   */\n    tag_180:\n        /* \"#utility.yul\":2672:2696   */\n      tag_182\n        /* \"#utility.yul\":2690:2695   */\n      dup2\n        /* \"#utility.yul\":2672:2696   */\n      tag_183\n      jump\t// in\n    tag_182:\n        /* \"#utility.yul\":2667:2670   */\n      dup3\n        /* \"#utility.yul\":2660:2697   */\n      mstore\n        /* \"#utility.yul\":2585:2703   */\n      pop\n      pop\n      jump\t// out\n        /* \"#utility.yul\":2709:2852   */\n    tag_184:\n        /* \"#utility.yul\":2802:2845   */\n      tag_186\n        /* \"#utility.yul\":2839:2844   */\n      dup2\n        /* \"#utility.yul\":2802:2845   */\n      tag_187\n      jump\t// in\n    tag_186:\n        /* \"#utility.yul\":2797:2800   */\n      dup3\n        /* \"#utility.yul\":2790:2846   */\n      mstore\n        /* \"#utility.yul\":2709:2852   */\n      pop\n      pop\n      jump\t// out\n        /* \"#utility.yul\":2858:3222   */\n    tag_188:\n        /* \"#utility.yul\":2946:2949   */\n      0x00\n        /* \"#utility.yul\":2974:3013   */\n      tag_190\n        /* \"#utility.yul\":3007:3012   */\n      dup3\n        /* \"#utility.yul\":2974:3013   */\n      tag_191\n      jump\t// in\n    tag_190:\n        /* \"#utility.yul\":3029:3100   */\n      tag_192\n        /* \"#utility.yul\":3093:3099   */\n      dup2\n        /* \"#utility.yul\":3088:3091   */\n      dup6\n        /* \"#utility.yul\":3029:3100   */\n      tag_193\n      jump\t// in\n    tag_192:\n        /* \"#utility.yul\":3022:3100   */\n      swap4\n      pop\n        /* \"#utility.yul\":3109:3161   */\n      tag_194\n        /* \"#utility.yul\":3154:3160   */\n      dup2\n        /* \"#utility.yul\":3149:3152   */\n      dup6\n        /* \"#utility.yul\":3142:3146   */\n      0x20\n        /* \"#utility.yul\":3135:3140   */\n      dup7\n        /* \"#utility.yul\":3131:3147   */\n      add\n        /* \"#utility.yul\":3109:3161   */\n      tag_195\n      jump\t// in\n    tag_194:\n        /* \"#utility.yul\":3186:3215   */\n      tag_196\n        /* \"#utility.yul\":3208:3214   */\n      dup2\n        /* \"#utility.yul\":3186:3215   */\n      tag_197\n      jump\t// in\n    tag_196:\n        /* \"#utility.yul\":3181:3184   */\n      dup5\n        /* \"#utility.yul\":3177:3216   */\n      add\n        /* \"#utility.yul\":3170:3216   */\n      swap2\n      pop\n        /* \"#utility.yul\":2950:3222   */\n      pop\n        /* \"#utility.yul\":2858:3222   */\n      swap3\n      swap2\n      pop\n      pop\n      jump\t// out\n        /* \"#utility.yul\":3228:3594   */\n    tag_198:\n        /* \"#utility.yul\":3370:3373   */\n      0x00\n        /* \"#utility.yul\":3391:3458   */\n      tag_200\n        /* \"#utility.yul\":3455:3457   */\n      0x28\n        /* \"#utility.yul\":3450:3453   */\n      dup4\n        /* \"#utility.yul\":3391:3458   */\n      tag_193\n      jump\t// in\n    tag_200:\n        /* \"#utility.yul\":3384:3458   */\n      swap2\n      pop\n        /* \"#utility.yul\":3467:3560   */\n      tag_201\n        /* \"#utility.yul\":3556:3559   */\n      dup3\n        /* \"#utility.yul\":3467:3560   */\n      tag_202\n      jump\t// in\n    tag_201:\n        /* \"#utility.yul\":3585:3587   */\n      0x40\n        /* \"#utility.yul\":3580:3583   */\n      dup3\n        /* \"#utility.yul\":3576:3588   */\n      add\n        /* \"#utility.yul\":3569:3588   */\n      swap1\n      pop\n        /* \"#utility.yul\":3228:3594   */\n      swap2\n      swap1\n      pop\n      jump\t// out\n        /* \"#utility.yul\":3600:3966   */\n    tag_203:\n        /* \"#utility.yul\":3742:3745   */\n      0x00\n        /* \"#utility.yul\":3763:3830   */\n      tag_205\n        /* \"#utility.yul\":3827:3829   */\n      0x1b\n        /* \"#utility.yul\":3822:3825   */\n      dup4\n        /* \"#utility.yul\":3763:3830   */\n      tag_193\n      jump\t// in\n    tag_205:\n        /* \"#utility.yul\":3756:3830   */\n      swap2\n      pop\n        /* \"#utility.yul\":3839:3932   */\n      tag_206\n        /* \"#utility.yul\":3928:3931   */\n      dup3\n        /* \"#utility.yul\":3839:3932   */\n      tag_207\n      jump\t// in\n    tag_206:\n        /* \"#utility.yul\":3957:3959   */\n      0x20\n        /* \"#utility.yul\":3952:3955   */\n      dup3\n        /* \"#utility.yul\":3948:3960   */\n      add\n        /* \"#utility.yul\":3941:3960   */\n      swap1\n      pop\n        /* \"#utility.yul\":3600:3966   */\n      swap2\n      swap1\n      pop\n      jump\t// out\n        /* \"#utility.yul\":3972:4090   */\n    tag_208:\n        /* \"#utility.yul\":4059:4083   */\n      tag_210\n        /* \"#utility.yul\":4077:4082   */\n      dup2\n        /* \"#utility.yul\":4059:4083   */\n      tag_211\n      jump\t// in\n    tag_210:\n        /* \"#utility.yul\":4054:4057   */\n      dup3\n        /* \"#utility.yul\":4047:4084   */\n      mstore\n        /* \"#utility.yul\":3972:4090   */\n      pop\n      pop\n      jump\t// out\n        /* \"#utility.yul\":4096:4318   */\n    tag_29:\n        /* \"#utility.yul\":4189:4193   */\n      0x00\n        /* \"#utility.yul\":4227:4229   */\n      0x20\n        /* \"#utility.yul\":4216:4225   */\n      dup3\n        /* \"#utility.yul\":4212:4230   */\n      add\n        /* \"#utility.yul\":4204:4230   */\n      swap1\n      pop\n        /* \"#utility.yul\":4240:4311   */\n      tag_213\n        /* \"#utility.yul\":4308:4309   */\n      0x00\n        /* \"#utility.yul\":4297:4306   */\n      dup4\n        /* \"#utility.yul\":4293:4310   */\n      add\n        /* \"#utility.yul\":4284:4290   */\n      dup5\n        /* \"#utility.yul\":4240:4311   */\n      tag_180\n      jump\t// in\n    tag_213:\n        /* \"#utility.yul\":4096:4318   */\n      swap3\n      swap2\n      pop\n      pop\n      jump\t// out\n        /* \"#utility.yul\":4324:5182   */\n    tag_39:\n        /* \"#utility.yul\":4575:4579   */\n      0x00\n        /* \"#utility.yul\":4613:4616   */\n      0xa0\n        /* \"#utility.yul\":4602:4611   */\n      dup3\n        /* \"#utility.yul\":4598:4617   */\n      add\n        /* \"#utility.yul\":4590:4617   */\n      swap1\n      pop\n        /* \"#utility.yul\":4627:4698   */\n      tag_215\n        /* \"#utility.yul\":4695:4696   */\n      0x00\n        /* \"#utility.yul\":4684:4693   */\n      dup4\n        /* \"#utility.yul\":4680:4697   */\n      add\n        /* \"#utility.yul\":4671:4677   */\n      dup9\n        /* \"#utility.yul\":4627:4698   */\n      tag_180\n      jump\t// in\n    tag_215:\n        /* \"#utility.yul\":4708:4786   */\n      tag_216\n        /* \"#utility.yul\":4782:4784   */\n      0x20\n        /* \"#utility.yul\":4771:4780   */\n      dup4\n        /* \"#utility.yul\":4767:4785   */\n      add\n        /* \"#utility.yul\":4758:4764   */\n      dup8\n        /* \"#utility.yul\":4708:4786   */\n      tag_184\n      jump\t// in\n    tag_216:\n        /* \"#utility.yul\":4833:4842   */\n      dup2\n        /* \"#utility.yul\":4827:4831   */\n      dup2\n        /* \"#utility.yul\":4823:4843   */\n      sub\n        /* \"#utility.yul\":4818:4820   */\n      0x40\n        /* \"#utility.yul\":4807:4816   */\n      dup4\n        /* \"#utility.yul\":4803:4821   */\n      add\n        /* \"#utility.yul\":4796:4844   */\n      mstore\n        /* \"#utility.yul\":4861:4939   */\n      tag_217\n        /* \"#utility.yul\":4934:4938   */\n      dup2\n        /* \"#utility.yul\":4925:4931   */\n      dup7\n        /* \"#utility.yul\":4861:4939   */\n      tag_188\n      jump\t// in\n    tag_217:\n        /* \"#utility.yul\":4853:4939   */\n      swap1\n      pop\n        /* \"#utility.yul\":4986:4995   */\n      dup2\n        /* \"#utility.yul\":4980:4984   */\n      dup2\n        /* \"#utility.yul\":4976:4996   */\n      sub\n        /* \"#utility.yul\":4971:4973   */\n      0x60\n        /* \"#utility.yul\":4960:4969   */\n      dup4\n        /* \"#utility.yul\":4956:4974   */\n      add\n        /* \"#utility.yul\":4949:4997   */\n      mstore\n        /* \"#utility.yul\":5014:5092   */\n      tag_218\n        /* \"#utility.yul\":5087:5091   */\n      dup2\n        /* \"#utility.yul\":5078:5084   */\n      dup6\n        /* \"#utility.yul\":5014:5092   */\n      tag_188\n      jump\t// in\n    tag_218:\n        /* \"#utility.yul\":5006:5092   */\n      swap1\n      pop\n        /* \"#utility.yul\":5102:5175   */\n      tag_219\n        /* \"#utility.yul\":5170:5173   */\n      0x80\n        /* \"#utility.yul\":5159:5168   */\n      dup4\n        /* \"#utility.yul\":5155:5174   */\n      add\n        /* \"#utility.yul\":5146:5152   */\n      dup5\n        /* \"#utility.yul\":5102:5175   */\n      tag_208\n      jump\t// in\n    tag_219:\n        /* \"#utility.yul\":4324:5182   */\n      swap7\n      swap6\n      pop\n      pop\n      pop\n      pop\n      pop\n      pop\n      jump\t// out\n        /* \"#utility.yul\":5188:5607   */\n    tag_92:\n        /* \"#utility.yul\":5354:5358   */\n      0x00\n        /* \"#utility.yul\":5392:5394   */\n      0x20\n        /* \"#utility.yul\":5381:5390   */\n      dup3\n        /* \"#utility.yul\":5377:5395   */\n      add\n        /* \"#utility.yul\":5369:5395   */\n      swap1\n      pop\n        /* \"#utility.yul\":5441:5450   */\n      dup2\n        /* \"#utility.yul\":5435:5439   */\n      dup2\n        /* \"#utility.yul\":5431:5451   */\n      sub\n        /* \"#utility.yul\":5427:5428   */\n      0x00\n        /* \"#utility.yul\":5416:5425   */\n      dup4\n        /* \"#utility.yul\":5412:5429   */\n      add\n        /* \"#utility.yul\":5405:5452   */\n      mstore\n        /* \"#utility.yul\":5469:5600   */\n      tag_221\n        /* \"#utility.yul\":5595:5599   */\n      dup2\n        /* \"#utility.yul\":5469:5600   */\n      tag_198\n      jump\t// in\n    tag_221:\n        /* \"#utility.yul\":5461:5600   */\n      swap1\n      pop\n        /* \"#utility.yul\":5188:5607   */\n      swap2\n      swap1\n      pop\n      jump\t// out\n        /* \"#utility.yul\":5613:6032   */\n    tag_59:\n        /* \"#utility.yul\":5779:5783   */\n      0x00\n        /* \"#utility.yul\":5817:5819   */\n      0x20\n        /* \"#utility.yul\":5806:5815   */\n      dup3\n        /* \"#utility.yul\":5802:5820   */\n      add\n        /* \"#utility.yul\":5794:5820   */\n      swap1\n      pop\n        /* \"#utility.yul\":5866:5875   */\n      dup2\n        /* \"#utility.yul\":5860:5864   */\n      dup2\n        /* \"#utility.yul\":5856:5876   */\n      sub\n        /* \"#utility.yul\":5852:5853   */\n      0x00\n        /* \"#utility.yul\":5841:5850   */\n      dup4\n        /* \"#utility.yul\":5837:5854   */\n      add\n        /* \"#utility.yul\":5830:5877   */\n      mstore\n        /* \"#utility.yul\":5894:6025   */\n      tag_223\n        /* \"#utility.yul\":6020:6024   */\n      dup2\n        /* \"#utility.yul\":5894:6025   */\n      tag_203\n      jump\t// in\n    tag_223:\n        /* \"#utility.yul\":5886:6025   */\n      swap1\n      pop\n        /* \"#utility.yul\":5613:6032   */\n      swap2\n      swap1\n      pop\n      jump\t// out\n        /* \"#utility.yul\":6038:6260   */\n    tag_15:\n        /* \"#utility.yul\":6131:6135   */\n      0x00\n        /* \"#utility.yul\":6169:6171   */\n      0x20\n        /* \"#utility.yul\":6158:6167   */\n      dup3\n        /* \"#utility.yul\":6154:6172   */\n      add\n        /* \"#utility.yul\":6146:6172   */\n      swap1\n      pop\n        /* \"#utility.yul\":6182:6253   */\n      tag_225\n        /* \"#utility.yul\":6250:6251   */\n      0x00\n        /* \"#utility.yul\":6239:6248   */\n      dup4\n        /* \"#utility.yul\":6235:6252   */\n      add\n        /* \"#utility.yul\":6226:6232   */\n      dup5\n        /* \"#utility.yul\":6182:6253   */\n      tag_208\n      jump\t// in\n    tag_225:\n        /* \"#utility.yul\":6038:6260   */\n      swap3\n      swap2\n      pop\n      pop\n      jump\t// out\n        /* \"#utility.yul\":6266:6395   */\n    tag_141:\n        /* \"#utility.yul\":6300:6306   */\n      0x00\n        /* \"#utility.yul\":6327:6347   */\n      tag_227\n      tag_228\n      jump\t// in\n    tag_227:\n        /* \"#utility.yul\":6317:6347   */\n      swap1\n      pop\n        /* \"#utility.yul\":6356:6389   */\n      tag_229\n        /* \"#utility.yul\":6384:6388   */\n      dup3\n        /* \"#utility.yul\":6376:6382   */\n      dup3\n        /* \"#utility.yul\":6356:6389   */\n      tag_230\n      jump\t// in\n    tag_229:\n        /* \"#utility.yul\":6266:6395   */\n      swap2\n      swap1\n      pop\n      jump\t// out\n        /* \"#utility.yul\":6401:6476   */\n    tag_228:\n        /* \"#utility.yul\":6434:6440   */\n      0x00\n        /* \"#utility.yul\":6467:6469   */\n      0x40\n        /* \"#utility.yul\":6461:6470   */\n      mload\n        /* \"#utility.yul\":6451:6470   */\n      swap1\n      pop\n        /* \"#utility.yul\":6401:6476   */\n      swap1\n      jump\t// out\n        /* \"#utility.yul\":6482:6790   */\n    tag_140:\n        /* \"#utility.yul\":6544:6548   */\n      0x00\n        /* \"#utility.yul\":6634:6652   */\n      0xffffffffffffffff\n        /* \"#utility.yul\":6626:6632   */\n      dup3\n        /* \"#utility.yul\":6623:6653   */\n      gt\n        /* \"#utility.yul\":6620:6676   */\n      iszero\n      tag_233\n      jumpi\n        /* \"#utility.yul\":6656:6674   */\n      tag_234\n      tag_235\n      jump\t// in\n    tag_234:\n        /* \"#utility.yul\":6620:6676   */\n    tag_233:\n        /* \"#utility.yul\":6694:6723   */\n      tag_236\n        /* \"#utility.yul\":6716:6722   */\n      dup3\n        /* \"#utility.yul\":6694:6723   */\n      tag_197\n      jump\t// in\n    tag_236:\n        /* \"#utility.yul\":6686:6723   */\n      swap1\n      pop\n        /* \"#utility.yul\":6778:6782   */\n      0x20\n        /* \"#utility.yul\":6772:6776   */\n      dup2\n        /* \"#utility.yul\":6768:6783   */\n      add\n        /* \"#utility.yul\":6760:6783   */\n      swap1\n      pop\n        /* \"#utility.yul\":6482:6790   */\n      swap2\n      swap1\n      pop\n      jump\t// out\n        /* \"#utility.yul\":6796:6895   */\n    tag_191:\n        /* \"#utility.yul\":6848:6854   */\n      0x00\n        /* \"#utility.yul\":6882:6887   */\n      dup2\n        /* \"#utility.yul\":6876:6888   */\n      mload\n        /* \"#utility.yul\":6866:6888   */\n      swap1\n      pop\n        /* \"#utility.yul\":6796:6895   */\n      swap2\n      swap1\n      pop\n      jump\t// out\n        /* \"#utility.yul\":6901:7070   */\n    tag_193:\n        /* \"#utility.yul\":6985:6996   */\n      0x00\n        /* \"#utility.yul\":7019:7025   */\n      dup3\n        /* \"#utility.yul\":7014:7017   */\n      dup3\n        /* \"#utility.yul\":7007:7026   */\n      mstore\n        /* \"#utility.yul\":7059:7063   */\n      0x20\n        /* \"#utility.yul\":7054:7057   */\n      dup3\n        /* \"#utility.yul\":7050:7064   */\n      add\n        /* \"#utility.yul\":7035:7064   */\n      swap1\n      pop\n        /* \"#utility.yul\":6901:7070   */\n      swap3\n      swap2\n      pop\n      pop\n      jump\t// out\n        /* \"#utility.yul\":7076:7381   */\n    tag_51:\n        /* \"#utility.yul\":7116:7119   */\n      0x00\n        /* \"#utility.yul\":7135:7155   */\n      tag_240\n        /* \"#utility.yul\":7153:7154   */\n      dup3\n        /* \"#utility.yul\":7135:7155   */\n      tag_211\n      jump\t// in\n    tag_240:\n        /* \"#utility.yul\":7130:7155   */\n      swap2\n      pop\n        /* \"#utility.yul\":7169:7189   */\n      tag_241\n        /* \"#utility.yul\":7187:7188   */\n      dup4\n        /* \"#utility.yul\":7169:7189   */\n      tag_211\n      jump\t// in\n    tag_241:\n        /* \"#utility.yul\":7164:7189   */\n      swap3\n      pop\n        /* \"#utility.yul\":7323:7324   */\n      dup3\n        /* \"#utility.yul\":7255:7321   */\n      0xffffffffffffffffffffffffffffffffffffffffffffffffffffffffffffffff\n        /* \"#utility.yul\":7251:7325   */\n      sub\n        /* \"#utility.yul\":7248:7249   */\n      dup3\n        /* \"#utility.yul\":7245:7326   */\n      gt\n        /* \"#utility.yul\":7242:7349   */\n      iszero\n      tag_242\n      jumpi\n        /* \"#utility.yul\":7329:7347   */\n      tag_243\n      tag_244\n      jump\t// in\n    tag_243:\n        /* \"#utility.yul\":7242:7349   */\n    tag_242:\n        /* \"#utility.yul\":7373:7374   */\n      dup3\n        /* \"#utility.yul\":7370:7371   */\n      dup3\n        /* \"#utility.yul\":7366:7375   */\n      add\n        /* \"#utility.yul\":7359:7375   */\n      swap1\n      pop\n        /* \"#utility.yul\":7076:7381   */\n      swap3\n      swap2\n      pop\n      pop\n      jump\t// out\n        /* \"#utility.yul\":7387:7572   */\n    tag_99:\n        /* \"#utility.yul\":7427:7428   */\n      0x00\n        /* \"#utility.yul\":7444:7464   */\n      tag_246\n        /* \"#utility.yul\":7462:7463   */\n      dup3\n        /* \"#utility.yul\":7444:7464   */\n      tag_211\n      jump\t// in\n    tag_246:\n        /* \"#utility.yul\":7439:7464   */\n      swap2\n      pop\n        /* \"#utility.yul\":7478:7498   */\n      tag_247\n        /* \"#utility.yul\":7496:7497   */\n      dup4\n        /* \"#utility.yul\":7478:7498   */\n      tag_211\n      jump\t// in\n    tag_247:\n        /* \"#utility.yul\":7473:7498   */\n      swap3\n      pop\n        /* \"#utility.yul\":7517:7518   */\n      dup3\n        /* \"#utility.yul\":7507:7542   */\n      tag_248\n      jumpi\n        /* \"#utility.yul\":7522:7540   */\n      tag_249\n      tag_250\n      jump\t// in\n    tag_249:\n        /* \"#utility.yul\":7507:7542   */\n    tag_248:\n        /* \"#utility.yul\":7564:7565   */\n      dup3\n        /* \"#utility.yul\":7561:7562   */\n      dup3\n        /* \"#utility.yul\":7557:7566   */\n      div\n        /* \"#utility.yul\":7552:7566   */\n      swap1\n      pop\n        /* \"#utility.yul\":7387:7572   */\n      swap3\n      swap2\n      pop\n      pop\n      jump\t// out\n        /* \"#utility.yul\":7578:7926   */\n    tag_94:\n        /* \"#utility.yul\":7618:7625   */\n      0x00\n        /* \"#utility.yul\":7641:7661   */\n      tag_252\n        /* \"#utility.yul\":7659:7660   */\n      dup3\n        /* \"#utility.yul\":7641:7661   */\n      tag_211\n      jump\t// in\n    tag_252:\n        /* \"#utility.yul\":7636:7661   */\n      swap2\n      pop\n        /* \"#utility.yul\":7675:7695   */\n      tag_253\n        /* \"#utility.yul\":7693:7694   */\n      dup4\n        /* \"#utility.yul\":7675:7695   */\n      tag_211\n      jump\t// in\n    tag_253:\n        /* \"#utility.yul\":7670:7695   */\n      swap3\n      pop\n        /* \"#utility.yul\":7863:7864   */\n      dup2\n        /* \"#utility.yul\":7795:7861   */\n      0xffffffffffffffffffffffffffffffffffffffffffffffffffffffffffffffff\n        /* \"#utility.yul\":7791:7865   */\n      div\n        /* \"#utility.yul\":7788:7789   */\n      dup4\n        /* \"#utility.yul\":7785:7866   */\n      gt\n        /* \"#utility.yul\":7780:7781   */\n      dup3\n        /* \"#utility.yul\":7773:7782   */\n      iszero\n        /* \"#utility.yul\":7766:7783   */\n      iszero\n        /* \"#utility.yul\":7762:7867   */\n      and\n        /* \"#utility.yul\":7759:7890   */\n      iszero\n      tag_254\n      jumpi\n        /* \"#utility.yul\":7870:7888   */\n      tag_255\n      tag_244\n      jump\t// in\n    tag_255:\n        /* \"#utility.yul\":7759:7890   */\n    tag_254:\n        /* \"#utility.yul\":7918:7919   */\n      dup3\n        /* \"#utility.yul\":7915:7916   */\n      dup3\n        /* \"#utility.yul\":7911:7920   */\n      mul\n        /* \"#utility.yul\":7900:7920   */\n      swap1\n      pop\n        /* \"#utility.yul\":7578:7926   */\n      swap3\n      swap2\n      pop\n      pop\n      jump\t// out\n        /* \"#utility.yul\":7932:8123   */\n    tag_97:\n        /* \"#utility.yul\":7972:7976   */\n      0x00\n        /* \"#utility.yul\":7992:8012   */\n      tag_257\n        /* \"#utility.yul\":8010:8011   */\n      dup3\n        /* \"#utility.yul\":7992:8012   */\n      tag_211\n      jump\t// in\n    tag_257:\n        /* \"#utility.yul\":7987:8012   */\n      swap2\n      pop\n        /* \"#utility.yul\":8026:8046   */\n      tag_258\n        /* \"#utility.yul\":8044:8045   */\n      dup4\n        /* \"#utility.yul\":8026:8046   */\n      tag_211\n      jump\t// in\n    tag_258:\n        /* \"#utility.yul\":8021:8046   */\n      swap3\n      pop\n        /* \"#utility.yul\":8065:8066   */\n      dup3\n        /* \"#utility.yul\":8062:8063   */\n      dup3\n        /* \"#utility.yul\":8059:8067   */\n      lt\n        /* \"#utility.yul\":8056:8090   */\n      iszero\n      tag_259\n      jumpi\n        /* \"#utility.yul\":8070:8088   */\n      tag_260\n      tag_244\n      jump\t// in\n    tag_260:\n        /* \"#utility.yul\":8056:8090   */\n    tag_259:\n        /* \"#utility.yul\":8115:8116   */\n      dup3\n        /* \"#utility.yul\":8112:8113   */\n      dup3\n        /* \"#utility.yul\":8108:8117   */\n      sub\n        /* \"#utility.yul\":8100:8117   */\n      swap1\n      pop\n        /* \"#utility.yul\":7932:8123   */\n      swap3\n      swap2\n      pop\n      pop\n      jump\t// out\n        /* \"#utility.yul\":8129:8225   */\n    tag_183:\n        /* \"#utility.yul\":8166:8173   */\n      0x00\n        /* \"#utility.yul\":8195:8219   */\n      tag_262\n        /* \"#utility.yul\":8213:8218   */\n      dup3\n        /* \"#utility.yul\":8195:8219   */\n      tag_263\n      jump\t// in\n    tag_262:\n        /* \"#utility.yul\":8184:8219   */\n      swap1\n      pop\n        /* \"#utility.yul\":8129:8225   */\n      swap2\n      swap1\n      pop\n      jump\t// out\n        /* \"#utility.yul\":8231:8358   */\n    tag_264:\n        /* \"#utility.yul\":8276:8283   */\n      0x00\n        /* \"#utility.yul\":8305:8310   */\n      dup2\n        /* \"#utility.yul\":8294:8310   */\n      swap1\n      pop\n        /* \"#utility.yul\":8311:8352   */\n      tag_266\n        /* \"#utility.yul\":8346:8351   */\n      dup3\n        /* \"#utility.yul\":8311:8352   */\n      tag_267\n      jump\t// in\n    tag_266:\n        /* \"#utility.yul\":8231:8358   */\n      swap2\n      swap1\n      pop\n      jump\t// out\n        /* \"#utility.yul\":8364:8490   */\n    tag_263:\n        /* \"#utility.yul\":8401:8408   */\n      0x00\n        /* \"#utility.yul\":8441:8483   */\n      0xffffffffffffffffffffffffffffffffffffffff\n        /* \"#utility.yul\":8434:8439   */\n      dup3\n        /* \"#utility.yul\":8430:8484   */\n      and\n        /* \"#utility.yul\":8419:8484   */\n      swap1\n      pop\n        /* \"#utility.yul\":8364:8490   */\n      swap2\n      swap1\n      pop\n      jump\t// out\n        /* \"#utility.yul\":8496:8573   */\n    tag_211:\n        /* \"#utility.yul\":8533:8540   */\n      0x00\n        /* \"#utility.yul\":8562:8567   */\n      dup2\n        /* \"#utility.yul\":8551:8567   */\n      swap1\n      pop\n        /* \"#utility.yul\":8496:8573   */\n      swap2\n      swap1\n      pop\n      jump\t// out\n        /* \"#utility.yul\":8579:8706   */\n    tag_187:\n        /* \"#utility.yul\":8635:8644   */\n      0x00\n        /* \"#utility.yul\":8668:8700   */\n      tag_271\n        /* \"#utility.yul\":8694:8699   */\n      dup3\n        /* \"#utility.yul\":8668:8700   */\n      tag_264\n      jump\t// in\n    tag_271:\n        /* \"#utility.yul\":8655:8700   */\n      swap1\n      pop\n        /* \"#utility.yul\":8579:8706   */\n      swap2\n      swap1\n      pop\n      jump\t// out\n        /* \"#utility.yul\":8712:8866   */\n    tag_146:\n        /* \"#utility.yul\":8796:8802   */\n      dup3\n        /* \"#utility.yul\":8791:8794   */\n      dup2\n        /* \"#utility.yul\":8786:8789   */\n      dup4\n        /* \"#utility.yul\":8773:8803   */\n      calldatacopy\n        /* \"#utility.yul\":8858:8859   */\n      0x00\n        /* \"#utility.yul\":8849:8855   */\n      dup4\n        /* \"#utility.yul\":8844:8847   */\n      dup4\n        /* \"#utility.yul\":8840:8856   */\n      add\n        /* \"#utility.yul\":8833:8860   */\n      mstore\n        /* \"#utility.yul\":8712:8866   */\n      pop\n      pop\n      pop\n      jump\t// out\n        /* \"#utility.yul\":8872:9179   */\n    tag_195:\n        /* \"#utility.yul\":8940:8941   */\n      0x00\n        /* \"#utility.yul\":8950:9063   */\n    tag_274:\n        /* \"#utility.yul\":8964:8970   */\n      dup4\n        /* \"#utility.yul\":8961:8962   */\n      dup2\n        /* \"#utility.yul\":8958:8971   */\n      lt\n        /* \"#utility.yul\":8950:9063   */\n      iszero\n      tag_276\n      jumpi\n        /* \"#utility.yul\":9049:9050   */\n      dup1\n        /* \"#utility.yul\":9044:9047   */\n      dup3\n        /* \"#utility.yul\":9040:9051   */\n      add\n        /* \"#utility.yul\":9034:9052   */\n      mload\n        /* \"#utility.yul\":9030:9031   */\n      dup2\n        /* \"#utility.yul\":9025:9028   */\n      dup5\n        /* \"#utility.yul\":9021:9032   */\n      add\n        /* \"#utility.yul\":9014:9053   */\n      mstore\n        /* \"#utility.yul\":8986:8988   */\n      0x20\n        /* \"#utility.yul\":8983:8984   */\n      dup2\n        /* \"#utility.yul\":8979:8989   */\n      add\n        /* \"#utility.yul\":8974:8989   */\n      swap1\n      pop\n        /* \"#utility.yul\":8950:9063   */\n      jump(tag_274)\n    tag_276:\n        /* \"#utility.yul\":9081:9087   */\n      dup4\n        /* \"#utility.yul\":9078:9079   */\n      dup2\n        /* \"#utility.yul\":9075:9088   */\n      gt\n        /* \"#utility.yul\":9072:9173   */\n      iszero\n      tag_277\n      jumpi\n        /* \"#utility.yul\":9161:9162   */\n      0x00\n        /* \"#utility.yul\":9152:9158   */\n      dup5\n        /* \"#utility.yul\":9147:9150   */\n      dup5\n        /* \"#utility.yul\":9143:9159   */\n      add\n        /* \"#utility.yul\":9136:9163   */\n      mstore\n        /* \"#utility.yul\":9072:9173   */\n    tag_277:\n        /* \"#utility.yul\":8921:9179   */\n      pop\n        /* \"#utility.yul\":8872:9179   */\n      pop\n      pop\n      pop\n      jump\t// out\n        /* \"#utility.yul\":9185:9505   */\n    tag_67:\n        /* \"#utility.yul\":9229:9235   */\n      0x00\n        /* \"#utility.yul\":9266:9267   */\n      0x02\n        /* \"#utility.yul\":9260:9264   */\n      dup3\n        /* \"#utility.yul\":9256:9268   */\n      div\n        /* \"#utility.yul\":9246:9268   */\n      swap1\n      pop\n        /* \"#utility.yul\":9313:9314   */\n      0x01\n        /* \"#utility.yul\":9307:9311   */\n      dup3\n        /* \"#utility.yul\":9303:9315   */\n      and\n        /* \"#utility.yul\":9334:9352   */\n      dup1\n        /* \"#utility.yul\":9324:9405   */\n      tag_279\n      jumpi\n        /* \"#utility.yul\":9390:9394   */\n      0x7f\n        /* \"#utility.yul\":9382:9388   */\n      dup3\n        /* \"#utility.yul\":9378:9395   */\n      and\n        /* \"#utility.yul\":9368:9395   */\n      swap2\n      pop\n        /* \"#utility.yul\":9324:9405   */\n    tag_279:\n        /* \"#utility.yul\":9452:9454   */\n      0x20\n        /* \"#utility.yul\":9444:9450   */\n      dup3\n        /* \"#utility.yul\":9441:9455   */\n      lt\n        /* \"#utility.yul\":9421:9439   */\n      dup2\n        /* \"#utility.yul\":9418:9456   */\n      eq\n        /* \"#utility.yul\":9415:9499   */\n      iszero\n      tag_280\n      jumpi\n        /* \"#utility.yul\":9471:9489   */\n      tag_281\n      tag_282\n      jump\t// in\n    tag_281:\n        /* \"#utility.yul\":9415:9499   */\n    tag_280:\n        /* \"#utility.yul\":9236:9505   */\n      pop\n        /* \"#utility.yul\":9185:9505   */\n      swap2\n      swap1\n      pop\n      jump\t// out\n        /* \"#utility.yul\":9511:9792   */\n    tag_230:\n        /* \"#utility.yul\":9594:9621   */\n      tag_284\n        /* \"#utility.yul\":9616:9620   */\n      dup3\n        /* \"#utility.yul\":9594:9621   */\n      tag_197\n      jump\t// in\n    tag_284:\n        /* \"#utility.yul\":9586:9592   */\n      dup2\n        /* \"#utility.yul\":9582:9622   */\n      add\n        /* \"#utility.yul\":9724:9730   */\n      dup2\n        /* \"#utility.yul\":9712:9722   */\n      dup2\n        /* \"#utility.yul\":9709:9731   */\n      lt\n        /* \"#utility.yul\":9688:9706   */\n      0xffffffffffffffff\n        /* \"#utility.yul\":9676:9686   */\n      dup3\n        /* \"#utility.yul\":9673:9707   */\n      gt\n        /* \"#utility.yul\":9670:9732   */\n      or\n        /* \"#utility.yul\":9667:9755   */\n      iszero\n      tag_285\n      jumpi\n        /* \"#utility.yul\":9735:9753   */\n      tag_286\n      tag_235\n      jump\t// in\n    tag_286:\n        /* \"#utility.yul\":9667:9755   */\n    tag_285:\n        /* \"#utility.yul\":9775:9785   */\n      dup1\n        /* \"#utility.yul\":9771:9773   */\n      0x40\n        /* \"#utility.yul\":9764:9786   */\n      mstore\n        /* \"#utility.yul\":9554:9792   */\n      pop\n        /* \"#utility.yul\":9511:9792   */\n      pop\n      pop\n      jump\t// out\n        /* \"#utility.yul\":9798:10031   */\n    tag_111:\n        /* \"#utility.yul\":9837:9840   */\n      0x00\n        /* \"#utility.yul\":9860:9884   */\n      tag_288\n        /* \"#utility.yul\":9878:9883   */\n      dup3\n        /* \"#utility.yul\":9860:9884   */\n      tag_211\n      jump\t// in\n    tag_288:\n        /* \"#utility.yul\":9851:9884   */\n      swap2\n      pop\n        /* \"#utility.yul\":9906:9972   */\n      0xffffffffffffffffffffffffffffffffffffffffffffffffffffffffffffffff\n        /* \"#utility.yul\":9899:9904   */\n      dup3\n        /* \"#utility.yul\":9896:9973   */\n      eq\n        /* \"#utility.yul\":9893:9996   */\n      iszero\n      tag_289\n      jumpi\n        /* \"#utility.yul\":9976:9994   */\n      tag_290\n      tag_244\n      jump\t// in\n    tag_290:\n        /* \"#utility.yul\":9893:9996   */\n    tag_289:\n        /* \"#utility.yul\":10023:10024   */\n      0x01\n        /* \"#utility.yul\":10016:10021   */\n      dup3\n        /* \"#utility.yul\":10012:10025   */\n      add\n        /* \"#utility.yul\":10005:10025   */\n      swap1\n      pop\n        /* \"#utility.yul\":9798:10031   */\n      swap2\n      swap1\n      pop\n      jump\t// out\n        /* \"#utility.yul\":10037:10217   */\n    tag_244:\n        /* \"#utility.yul\":10085:10162   */\n      0x4e487b7100000000000000000000000000000000000000000000000000000000\n        /* \"#utility.yul\":10082:10083   */\n      0x00\n        /* \"#utility.yul\":10075:10163   */\n      mstore\n        /* \"#utility.yul\":10182:10186   */\n      0x11\n        /* \"#utility.yul\":10179:10180   */\n      0x04\n        /* \"#utility.yul\":10172:10187   */\n      mstore\n        /* \"#utility.yul\":10206:10210   */\n      0x24\n        /* \"#utility.yul\":10203:10204   */\n      0x00\n        /* \"#utility.yul\":10196:10211   */\n      revert\n        /* \"#utility.yul\":10223:10403   */\n    tag_250:\n        /* \"#utility.yul\":10271:10348   */\n      0x4e487b7100000000000000000000000000000000000000000000000000000000\n        /* \"#utility.yul\":10268:10269   */\n      0x00\n        /* \"#utility.yul\":10261:10349   */\n      mstore\n        /* \"#utility.yul\":10368:10372   */\n      0x12\n        /* \"#utility.yul\":10365:10366   */\n      0x04\n        /* \"#utility.yul\":10358:10373   */\n      mstore\n        /* \"#utility.yul\":10392:10396   */\n      0x24\n        /* \"#utility.yul\":10389:10390   */\n      0x00\n        /* \"#utility.yul\":10382:10397   */\n      revert\n        /* \"#utility.yul\":10409:10589   */\n    tag_55:\n        /* \"#utility.yul\":10457:10534   */\n      0x4e487b7100000000000000000000000000000000000000000000000000000000\n        /* \"#utility.yul\":10454:10455   */\n      0x00\n        /* \"#utility.yul\":10447:10535   */\n      mstore\n        /* \"#utility.yul\":10554:10558   */\n      0x21\n        /* \"#utility.yul\":10551:10552   */\n      0x04\n        /* \"#utility.yul\":10544:10559   */\n      mstore\n        /* \"#utility.yul\":10578:10582   */\n      0x24\n        /* \"#utility.yul\":10575:10576   */\n      0x00\n        /* \"#utility.yul\":10568:10583   */\n      revert\n        /* \"#utility.yul\":10595:10775   */\n    tag_282:\n        /* \"#utility.yul\":10643:10720   */\n      0x4e487b7100000000000000000000000000000000000000000000000000000000\n        /* \"#utility.yul\":10640:10641   */\n      0x00\n        /* \"#utility.yul\":10633:10721   */\n      mstore\n        /* \"#utility.yul\":10740:10744   */\n      0x22\n        /* \"#utility.yul\":10737:10738   */\n      0x04\n        /* \"#utility.yul\":10730:10745   */\n      mstore\n        /* \"#utility.yul\":10764:10768   */\n      0x24\n        /* \"#utility.yul\":10761:10762   */\n      0x00\n        /* \"#utility.yul\":10754:10769   */\n      revert\n        /* \"#utility.yul\":10781:10961   */\n    tag_105:\n        /* \"#utility.yul\":10829:10906   */\n      0x4e487b7100000000000000000000000000000000000000000000000000000000\n        /* \"#utility.yul\":10826:10827   */\n      0x00\n        /* \"#utility.yul\":10819:10907   */\n      mstore\n        /* \"#utility.yul\":10926:10930   */\n      0x32\n        /* \"#utility.yul\":10923:10924   */\n      0x04\n        /* \"#utility.yul\":10916:10931   */\n      mstore\n        /* \"#utility.yul\":10950:10954   */\n      0x24\n        /* \"#utility.yul\":10947:10948   */\n      0x00\n        /* \"#utility.yul\":10940:10955   */\n      revert\n        /* \"#utility.yul\":10967:11147   */\n    tag_235:\n        /* \"#utility.yul\":11015:11092   */\n      0x4e487b7100000000000000000000000000000000000000000000000000000000\n        /* \"#utility.yul\":11012:11013   */\n      0x00\n        /* \"#utility.yul\":11005:11093   */\n      mstore\n        /* \"#utility.yul\":11112:11116   */\n      0x41\n        /* \"#utility.yul\":11109:11110   */\n      0x04\n        /* \"#utility.yul\":11102:11117   */\n      mstore\n        /* \"#utility.yul\":11136:11140   */\n      0x24\n        /* \"#utility.yul\":11133:11134   */\n      0x00\n        /* \"#utility.yul\":11126:11141   */\n      revert\n        /* \"#utility.yul\":11153:11270   */\n    tag_155:\n        /* \"#utility.yul\":11262:11263   */\n      0x00\n        /* \"#utility.yul\":11259:11260   */\n      dup1\n        /* \"#utility.yul\":11252:11264   */\n      revert\n        /* \"#utility.yul\":11276:11393   */\n    tag_144:\n        /* \"#utility.yul\":11385:11386   */\n      0x00\n        /* \"#utility.yul\":11382:11383   */\n      dup1\n        /* \"#utility.yul\":11375:11387   */\n      revert\n        /* \"#utility.yul\":11399:11516   */\n    tag_171:\n        /* \"#utility.yul\":11508:11509   */\n      0x00\n        /* \"#utility.yul\":11505:11506   */\n      dup1\n        /* \"#utility.yul\":11498:11510   */\n      revert\n        /* \"#utility.yul\":11522:11639   */\n    tag_164:\n        /* \"#utility.yul\":11631:11632   */\n      0x00\n        /* \"#utility.yul\":11628:11629   */\n      dup1\n        /* \"#utility.yul\":11621:11633   */\n      revert\n        /* \"#utility.yul\":11645:11747   */\n    tag_197:\n        /* \"#utility.yul\":11686:11692   */\n      0x00\n        /* \"#utility.yul\":11737:11739   */\n      0x1f\n        /* \"#utility.yul\":11733:11740   */\n      not\n        /* \"#utility.yul\":11728:11730   */\n      0x1f\n        /* \"#utility.yul\":11721:11726   */\n      dup4\n        /* \"#utility.yul\":11717:11731   */\n      add\n        /* \"#utility.yul\":11713:11741   */\n      and\n        /* \"#utility.yul\":11703:11741   */\n      swap1\n      pop\n        /* \"#utility.yul\":11645:11747   */\n      swap2\n      swap1\n      pop\n      jump\t// out\n        /* \"#utility.yul\":11753:11980   */\n    tag_202:\n        /* \"#utility.yul\":11893:11927   */\n      0x4f6e6c7920746865206465616c65722063616e20706179206f75742074686520\n        /* \"#utility.yul\":11889:11890   */\n      0x00\n        /* \"#utility.yul\":11881:11887   */\n      dup3\n        /* \"#utility.yul\":11877:11891   */\n      add\n        /* \"#utility.yul\":11870:11928   */\n      mstore\n        /* \"#utility.yul\":11962:11972   */\n      0x77696e6e6572732e000000000000000000000000000000000000000000000000\n        /* \"#utility.yul\":11957:11959   */\n      0x20\n        /* \"#utility.yul\":11949:11955   */\n      dup3\n        /* \"#utility.yul\":11945:11960   */\n      add\n        /* \"#utility.yul\":11938:11973   */\n      mstore\n        /* \"#utility.yul\":11753:11980   */\n      pop\n      jump\t// out\n        /* \"#utility.yul\":11986:12163   */\n    tag_207:\n        /* \"#utility.yul\":12126:12155   */\n      0x546865206a6f696e696e67206665652069732032352065746865720000000000\n        /* \"#utility.yul\":12122:12123   */\n      0x00\n        /* \"#utility.yul\":12114:12120   */\n      dup3\n        /* \"#utility.yul\":12110:12124   */\n      add\n        /* \"#utility.yul\":12103:12156   */\n      mstore\n        /* \"#utility.yul\":11986:12163   */\n      pop\n      jump\t// out\n        /* \"#utility.yul\":12169:12282   */\n    tag_267:\n        /* \"#utility.yul\":12250:12251   */\n      0x03\n        /* \"#utility.yul\":12243:12248   */\n      dup2\n        /* \"#utility.yul\":12240:12252   */\n      lt\n        /* \"#utility.yul\":12230:12276   */\n      tag_305\n      jumpi\n        /* \"#utility.yul\":12256:12274   */\n      tag_306\n      tag_55\n      jump\t// in\n    tag_306:\n        /* \"#utility.yul\":12230:12276   */\n    tag_305:\n        /* \"#utility.yul\":12169:12282   */\n      pop\n      jump\t// out\n        /* \"#utility.yul\":12288:12410   */\n    tag_150:\n        /* \"#utility.yul\":12361:12385   */\n      tag_308\n        /* \"#utility.yul\":12379:12384   */\n      dup2\n        /* \"#utility.yul\":12361:12385   */\n      tag_183\n      jump\t// in\n    tag_308:\n        /* \"#utility.yul\":12354:12359   */\n      dup2\n        /* \"#utility.yul\":12351:12386   */\n      eq\n        /* \"#utility.yul\":12341:12404   */\n      tag_309\n      jumpi\n        /* \"#utility.yul\":12400:12401   */\n      0x00\n        /* \"#utility.yul\":12397:12398   */\n      dup1\n        /* \"#utility.yul\":12390:12402   */\n      revert\n        /* \"#utility.yul\":12341:12404   */\n    tag_309:\n        /* \"#utility.yul\":12288:12410   */\n      pop\n      jump\t// out\n        /* \"#utility.yul\":12416:12538   */\n    tag_160:\n        /* \"#utility.yul\":12489:12513   */\n      tag_311\n        /* \"#utility.yul\":12507:12512   */\n      dup2\n        /* \"#utility.yul\":12489:12513   */\n      tag_211\n      jump\t// in\n    tag_311:\n        /* \"#utility.yul\":12482:12487   */\n      dup2\n        /* \"#utility.yul\":12479:12514   */\n      eq\n        /* \"#utility.yul\":12469:12532   */\n      tag_312\n      jumpi\n        /* \"#utility.yul\":12528:12529   */\n      0x00\n        /* \"#utility.yul\":12525:12526   */\n      dup1\n        /* \"#utility.yul\":12518:12530   */\n      revert\n        /* \"#utility.yul\":12469:12532   */\n    tag_312:\n        /* \"#utility.yul\":12416:12538   */\n      pop\n      jump\t// out\n\n    auxdata: 0xa2646970667358221220b4390a939e01d0f914c464226da1b3000410ccbd06170282f952b942b3ec61f964736f6c63430008070033\n}\n",
				"bytecode": {
					"linkReferences": {},
					"object": "608060405260008055600060015534801561001957600080fd5b5033600260006101000a81548173ffffffffffffffffffffffffffffffffffffffff021916908373ffffffffffffffffffffffffffffffffffffffff1602179055506113158061006a6000396000f3fe60806040526004361061007b5760003560e01c8063dbdef6f11161004e578063dbdef6f11461012a578063e2eb41ff14610146578063f9593e1414610187578063fed47dac146101c85761007b565b8063302bcc57146100805780634ba2363a146100ab5780638ddf0f7d146100d65780639de2ee21146100ff575b600080fd5b34801561008c57600080fd5b506100956101e4565b6040516100a29190610df5565b60405180910390f35b3480156100b757600080fd5b506100c06101ea565b6040516100cd9190610df5565b60405180910390f35b3480156100e257600080fd5b506100fd60048036038101906100f89190610bbb565b6101f0565b005b34801561010b57600080fd5b5061011461027c565b6040516101219190610d39565b60405180910390f35b610144600480360381019061013f9190610be8565b6102a2565b005b34801561015257600080fd5b5061016d60048036038101906101689190610bbb565b61038b565b60405161017e959493929190610d54565b60405180910390f35b34801561019357600080fd5b506101ae60048036038101906101a99190610c60565b6104fe565b6040516101bf959493929190610d54565b60405180910390f35b6101e260048036038101906101dd9190610bbb565b610681565b005b60005481565b60015481565b6000600460008373ffffffffffffffffffffffffffffffffffffffff1673ffffffffffffffffffffffffffffffffffffffff1681526020019081526020016000209050601481600301546102449190610e82565b42106102785760018160000160146101000a81548160ff0219169083600281111561027257610271611144565b5b02179055505b5050565b600260009054906101000a900473ffffffffffffffffffffffffffffffffffffffff1681565b68015af1d78b58c4000034146102ed576040517f08c379a00000000000000000000000000000000000000000000000000000000081526004016102e490610dd5565b60405180910390fd5b600260009054906101000a900473ffffffffffffffffffffffffffffffffffffffff1673ffffffffffffffffffffffffffffffffffffffff166108fc349081150290604051600060405180830381858888f193505050501561038757610353828261083e565b60016000808282546103659190610e82565b9250508190555060196001600082825461037f9190610e82565b925050819055505b5050565b60046020528060005260406000206000915090508060000160009054906101000a900473ffffffffffffffffffffffffffffffffffffffff16908060000160149054906101000a900460ff16908060010180546103e79061103a565b80601f01602080910402602001604051908101604052809291908181526020018280546104139061103a565b80156104605780601f1061043557610100808354040283529160200191610460565b820191906000526020600020905b81548152906001019060200180831161044357829003601f168201915b5050505050908060020180546104759061103a565b80601f01602080910402602001604051908101604052809291908181526020018280546104a19061103a565b80156104ee5780601f106104c3576101008083540402835291602001916104ee565b820191906000526020600020905b8154815290600101906020018083116104d157829003601f168201915b5050505050908060030154905085565b6003818154811061050e57600080fd5b90600052602060002090600402016000915090508060000160009054906101000a900473ffffffffffffffffffffffffffffffffffffffff16908060000160149054906101000a900460ff169080600101805461056a9061103a565b80601f01602080910402602001604051908101604052809291908181526020018280546105969061103a565b80156105e35780601f106105b8576101008083540402835291602001916105e3565b820191906000526020600020905b8154815290600101906020018083116105c657829003601f168201915b5050505050908060020180546105f89061103a565b80601f01602080910402602001604051908101604052809291908181526020018280546106249061103a565b80156106715780601f1061064657610100808354040283529160200191610671565b820191906000526020600020905b81548152906001019060200180831161065457829003601f168201915b5050505050908060030154905085565b600260009054906101000a900473ffffffffffffffffffffffffffffffffffffffff1673ffffffffffffffffffffffffffffffffffffffff163373ffffffffffffffffffffffffffffffffffffffff1614610711576040517f08c379a000000000000000000000000000000000000000000000000000000000815260040161070890610db5565b60405180910390fd5b670de0b6b3a76400006001546107279190610f09565b341461073257600080fd5b600060016000546107439190610f63565b3461074e9190610ed8565b905060005b60038054905081101561083957600060038281548110610776576107756111a2565b5b906000526020600020906004020160000160009054906101000a900473ffffffffffffffffffffffffffffffffffffffff1690508373ffffffffffffffffffffffffffffffffffffffff168173ffffffffffffffffffffffffffffffffffffffff1614610825578073ffffffffffffffffffffffffffffffffffffffff166108fc849081150290604051600060405180830381858888f19350505050158015610823573d6000803e3d6000fd5b505b5080806108319061109d565b915050610753565b505050565b60006040518060a001604052803373ffffffffffffffffffffffffffffffffffffffff1681526020016000600281111561087b5761087a611144565b5b815260200184815260200183815260200142815250905080600460003373ffffffffffffffffffffffffffffffffffffffff1673ffffffffffffffffffffffffffffffffffffffff16815260200190815260200160002060008201518160000160006101000a81548173ffffffffffffffffffffffffffffffffffffffff021916908373ffffffffffffffffffffffffffffffffffffffff16021790555060208201518160000160146101000a81548160ff0219169083600281111561094457610943611144565b5b02179055506040820151816001019080519060200190610965929190610a7e565b506060820151816002019080519060200190610982929190610a7e565b5060808201518160030155905050600381908060018154018082558091505060019003906000526020600020906004020160009091909190915060008201518160000160006101000a81548173ffffffffffffffffffffffffffffffffffffffff021916908373ffffffffffffffffffffffffffffffffffffffff16021790555060208201518160000160146101000a81548160ff02191690836002811115610a2e57610a2d611144565b5b02179055506040820151816001019080519060200190610a4f929190610a7e565b506060820151816002019080519060200190610a6c929190610a7e565b50608082015181600301555050505050565b828054610a8a9061103a565b90600052602060002090601f016020900481019282610aac5760008555610af3565b82601f10610ac557805160ff1916838001178555610af3565b82800160010185558215610af3579182015b82811115610af2578251825591602001919060010190610ad7565b5b509050610b009190610b04565b5090565b5b80821115610b1d576000816000905550600101610b05565b5090565b6000610b34610b2f84610e35565b610e10565b905082815260208101848484011115610b5057610b4f611205565b5b610b5b848285610ff8565b509392505050565b600081359050610b72816112b1565b92915050565b600082601f830112610b8d57610b8c611200565b5b8135610b9d848260208601610b21565b91505092915050565b600081359050610bb5816112c8565b92915050565b600060208284031215610bd157610bd061120f565b5b6000610bdf84828501610b63565b91505092915050565b60008060408385031215610bff57610bfe61120f565b5b600083013567ffffffffffffffff811115610c1d57610c1c61120a565b5b610c2985828601610b78565b925050602083013567ffffffffffffffff811115610c4a57610c4961120a565b5b610c5685828601610b78565b9150509250929050565b600060208284031215610c7657610c7561120f565b5b6000610c8484828501610ba6565b91505092915050565b610c9681610f97565b82525050565b610ca581610fe6565b82525050565b6000610cb682610e66565b610cc08185610e71565b9350610cd0818560208601611007565b610cd981611214565b840191505092915050565b6000610cf1602883610e71565b9150610cfc82611225565b604082019050919050565b6000610d14601b83610e71565b9150610d1f82611274565b602082019050919050565b610d3381610fdc565b82525050565b6000602082019050610d4e6000830184610c8d565b92915050565b600060a082019050610d696000830188610c8d565b610d766020830187610c9c565b8181036040830152610d888186610cab565b90508181036060830152610d9c8185610cab565b9050610dab6080830184610d2a565b9695505050505050565b60006020820190508181036000830152610dce81610ce4565b9050919050565b60006020820190508181036000830152610dee81610d07565b9050919050565b6000602082019050610e0a6000830184610d2a565b92915050565b6000610e1a610e2b565b9050610e26828261106c565b919050565b6000604051905090565b600067ffffffffffffffff821115610e5057610e4f6111d1565b5b610e5982611214565b9050602081019050919050565b600081519050919050565b600082825260208201905092915050565b6000610e8d82610fdc565b9150610e9883610fdc565b9250827fffffffffffffffffffffffffffffffffffffffffffffffffffffffffffffffff03821115610ecd57610ecc6110e6565b5b828201905092915050565b6000610ee382610fdc565b9150610eee83610fdc565b925082610efe57610efd611115565b5b828204905092915050565b6000610f1482610fdc565b9150610f1f83610fdc565b9250817fffffffffffffffffffffffffffffffffffffffffffffffffffffffffffffffff0483118215151615610f5857610f576110e6565b5b828202905092915050565b6000610f6e82610fdc565b9150610f7983610fdc565b925082821015610f8c57610f8b6110e6565b5b828203905092915050565b6000610fa282610fbc565b9050919050565b6000819050610fb78261129d565b919050565b600073ffffffffffffffffffffffffffffffffffffffff82169050919050565b6000819050919050565b6000610ff182610fa9565b9050919050565b82818337600083830152505050565b60005b8381101561102557808201518184015260208101905061100a565b83811115611034576000848401525b50505050565b6000600282049050600182168061105257607f821691505b6020821081141561106657611065611173565b5b50919050565b61107582611214565b810181811067ffffffffffffffff82111715611094576110936111d1565b5b80604052505050565b60006110a882610fdc565b91507fffffffffffffffffffffffffffffffffffffffffffffffffffffffffffffffff8214156110db576110da6110e6565b5b600182019050919050565b7f4e487b7100000000000000000000000000000000000000000000000000000000600052601160045260246000fd5b7f4e487b7100000000000000000000000000000000000000000000000000000000600052601260045260246000fd5b7f4e487b7100000000000000000000000000000000000000000000000000000000600052602160045260246000fd5b7f4e487b7100000000000000000000000000000000000000000000000000000000600052602260045260246000fd5b7f4e487b7100000000000000000000000000000000000000000000000000000000600052603260045260246000fd5b7f4e487b7100000000000000000000000000000000000000000000000000000000600052604160045260246000fd5b600080fd5b600080fd5b600080fd5b600080fd5b6000601f19601f8301169050919050565b7f4f6e6c7920746865206465616c65722063616e20706179206f7574207468652060008201527f77696e6e6572732e000000000000000000000000000000000000000000000000602082015250565b7f546865206a6f696e696e67206665652069732032352065746865720000000000600082015250565b600381106112ae576112ad611144565b5b50565b6112ba81610f97565b81146112c557600080fd5b50565b6112d181610fdc565b81146112dc57600080fd5b5056fea2646970667358221220b4390a939e01d0f914c464226da1b3000410ccbd06170282f952b942b3ec61f964736f6c63430008070033",
					"opcodes": "PUSH1 0x80 PUSH1 0x40 MSTORE PUSH1 0x0 DUP1 SSTORE PUSH1 0x0 PUSH1 0x1 SSTORE CALLVALUE DUP1 ISZERO PUSH2 0x19 JUMPI PUSH1 0x0 DUP1 REVERT JUMPDEST POP CALLER PUSH1 0x2 PUSH1 0x0 PUSH2 0x100 EXP DUP2 SLOAD DUP2 PUSH20 0xFFFFFFFFFFFFFFFFFFFFFFFFFFFFFFFFFFFFFFFF MUL NOT AND SWAP1 DUP4 PUSH20 0xFFFFFFFFFFFFFFFFFFFFFFFFFFFFFFFFFFFFFFFF AND MUL OR SWAP1 SSTORE POP PUSH2 0x1315 DUP1 PUSH2 0x6A PUSH1 0x0 CODECOPY PUSH1 0x0 RETURN INVALID PUSH1 0x80 PUSH1 0x40 MSTORE PUSH1 0x4 CALLDATASIZE LT PUSH2 0x7B JUMPI PUSH1 0x0 CALLDATALOAD PUSH1 0xE0 SHR DUP1 PUSH4 0xDBDEF6F1 GT PUSH2 0x4E JUMPI DUP1 PUSH4 0xDBDEF6F1 EQ PUSH2 0x12A JUMPI DUP1 PUSH4 0xE2EB41FF EQ PUSH2 0x146 JUMPI DUP1 PUSH4 0xF9593E14 EQ PUSH2 0x187 JUMPI DUP1 PUSH4 0xFED47DAC EQ PUSH2 0x1C8 JUMPI PUSH2 0x7B JUMP JUMPDEST DUP1 PUSH4 0x302BCC57 EQ PUSH2 0x80 JUMPI DUP1 PUSH4 0x4BA2363A EQ PUSH2 0xAB JUMPI DUP1 PUSH4 0x8DDF0F7D EQ PUSH2 0xD6 JUMPI DUP1 PUSH4 0x9DE2EE21 EQ PUSH2 0xFF JUMPI JUMPDEST PUSH1 0x0 DUP1 REVERT JUMPDEST CALLVALUE DUP1 ISZERO PUSH2 0x8C JUMPI PUSH1 0x0 DUP1 REVERT JUMPDEST POP PUSH2 0x95 PUSH2 0x1E4 JUMP JUMPDEST PUSH1 0x40 MLOAD PUSH2 0xA2 SWAP2 SWAP1 PUSH2 0xDF5 JUMP JUMPDEST PUSH1 0x40 MLOAD DUP1 SWAP2 SUB SWAP1 RETURN JUMPDEST CALLVALUE DUP1 ISZERO PUSH2 0xB7 JUMPI PUSH1 0x0 DUP1 REVERT JUMPDEST POP PUSH2 0xC0 PUSH2 0x1EA JUMP JUMPDEST PUSH1 0x40 MLOAD PUSH2 0xCD SWAP2 SWAP1 PUSH2 0xDF5 JUMP JUMPDEST PUSH1 0x40 MLOAD DUP1 SWAP2 SUB SWAP1 RETURN JUMPDEST CALLVALUE DUP1 ISZERO PUSH2 0xE2 JUMPI PUSH1 0x0 DUP1 REVERT JUMPDEST POP PUSH2 0xFD PUSH1 0x4 DUP1 CALLDATASIZE SUB DUP2 ADD SWAP1 PUSH2 0xF8 SWAP2 SWAP1 PUSH2 0xBBB JUMP JUMPDEST PUSH2 0x1F0 JUMP JUMPDEST STOP JUMPDEST CALLVALUE DUP1 ISZERO PUSH2 0x10B JUMPI PUSH1 0x0 DUP1 REVERT JUMPDEST POP PUSH2 0x114 PUSH2 0x27C JUMP JUMPDEST PUSH1 0x40 MLOAD PUSH2 0x121 SWAP2 SWAP1 PUSH2 0xD39 JUMP JUMPDEST PUSH1 0x40 MLOAD DUP1 SWAP2 SUB SWAP1 RETURN JUMPDEST PUSH2 0x144 PUSH1 0x4 DUP1 CALLDATASIZE SUB DUP2 ADD SWAP1 PUSH2 0x13F SWAP2 SWAP1 PUSH2 0xBE8 JUMP JUMPDEST PUSH2 0x2A2 JUMP JUMPDEST STOP JUMPDEST CALLVALUE DUP1 ISZERO PUSH2 0x152 JUMPI PUSH1 0x0 DUP1 REVERT JUMPDEST POP PUSH2 0x16D PUSH1 0x4 DUP1 CALLDATASIZE SUB DUP2 ADD SWAP1 PUSH2 0x168 SWAP2 SWAP1 PUSH2 0xBBB JUMP JUMPDEST PUSH2 0x38B JUMP JUMPDEST PUSH1 0x40 MLOAD PUSH2 0x17E SWAP6 SWAP5 SWAP4 SWAP3 SWAP2 SWAP1 PUSH2 0xD54 JUMP JUMPDEST PUSH1 0x40 MLOAD DUP1 SWAP2 SUB SWAP1 RETURN JUMPDEST CALLVALUE DUP1 ISZERO PUSH2 0x193 JUMPI PUSH1 0x0 DUP1 REVERT JUMPDEST POP PUSH2 0x1AE PUSH1 0x4 DUP1 CALLDATASIZE SUB DUP2 ADD SWAP1 PUSH2 0x1A9 SWAP2 SWAP1 PUSH2 0xC60 JUMP JUMPDEST PUSH2 0x4FE JUMP JUMPDEST PUSH1 0x40 MLOAD PUSH2 0x1BF SWAP6 SWAP5 SWAP4 SWAP3 SWAP2 SWAP1 PUSH2 0xD54 JUMP JUMPDEST PUSH1 0x40 MLOAD DUP1 SWAP2 SUB SWAP1 RETURN JUMPDEST PUSH2 0x1E2 PUSH1 0x4 DUP1 CALLDATASIZE SUB DUP2 ADD SWAP1 PUSH2 0x1DD SWAP2 SWAP1 PUSH2 0xBBB JUMP JUMPDEST PUSH2 0x681 JUMP JUMPDEST STOP JUMPDEST PUSH1 0x0 SLOAD DUP2 JUMP JUMPDEST PUSH1 0x1 SLOAD DUP2 JUMP JUMPDEST PUSH1 0x0 PUSH1 0x4 PUSH1 0x0 DUP4 PUSH20 0xFFFFFFFFFFFFFFFFFFFFFFFFFFFFFFFFFFFFFFFF AND PUSH20 0xFFFFFFFFFFFFFFFFFFFFFFFFFFFFFFFFFFFFFFFF AND DUP2 MSTORE PUSH1 0x20 ADD SWAP1 DUP2 MSTORE PUSH1 0x20 ADD PUSH1 0x0 KECCAK256 SWAP1 POP PUSH1 0x14 DUP2 PUSH1 0x3 ADD SLOAD PUSH2 0x244 SWAP2 SWAP1 PUSH2 0xE82 JUMP JUMPDEST TIMESTAMP LT PUSH2 0x278 JUMPI PUSH1 0x1 DUP2 PUSH1 0x0 ADD PUSH1 0x14 PUSH2 0x100 EXP DUP2 SLOAD DUP2 PUSH1 0xFF MUL NOT AND SWAP1 DUP4 PUSH1 0x2 DUP2 GT ISZERO PUSH2 0x272 JUMPI PUSH2 0x271 PUSH2 0x1144 JUMP JUMPDEST JUMPDEST MUL OR SWAP1 SSTORE POP JUMPDEST POP POP JUMP JUMPDEST PUSH1 0x2 PUSH1 0x0 SWAP1 SLOAD SWAP1 PUSH2 0x100 EXP SWAP1 DIV PUSH20 0xFFFFFFFFFFFFFFFFFFFFFFFFFFFFFFFFFFFFFFFF AND DUP2 JUMP JUMPDEST PUSH9 0x15AF1D78B58C40000 CALLVALUE EQ PUSH2 0x2ED JUMPI PUSH1 0x40 MLOAD PUSH32 0x8C379A000000000000000000000000000000000000000000000000000000000 DUP2 MSTORE PUSH1 0x4 ADD PUSH2 0x2E4 SWAP1 PUSH2 0xDD5 JUMP JUMPDEST PUSH1 0x40 MLOAD DUP1 SWAP2 SUB SWAP1 REVERT JUMPDEST PUSH1 0x2 PUSH1 0x0 SWAP1 SLOAD SWAP1 PUSH2 0x100 EXP SWAP1 DIV PUSH20 0xFFFFFFFFFFFFFFFFFFFFFFFFFFFFFFFFFFFFFFFF AND PUSH20 0xFFFFFFFFFFFFFFFFFFFFFFFFFFFFFFFFFFFFFFFF AND PUSH2 0x8FC CALLVALUE SWAP1 DUP2 ISZERO MUL SWAP1 PUSH1 0x40 MLOAD PUSH1 0x0 PUSH1 0x40 MLOAD DUP1 DUP4 SUB DUP2 DUP6 DUP9 DUP9 CALL SWAP4 POP POP POP POP ISZERO PUSH2 0x387 JUMPI PUSH2 0x353 DUP3 DUP3 PUSH2 0x83E JUMP JUMPDEST PUSH1 0x1 PUSH1 0x0 DUP1 DUP3 DUP3 SLOAD PUSH2 0x365 SWAP2 SWAP1 PUSH2 0xE82 JUMP JUMPDEST SWAP3 POP POP DUP2 SWAP1 SSTORE POP PUSH1 0x19 PUSH1 0x1 PUSH1 0x0 DUP3 DUP3 SLOAD PUSH2 0x37F SWAP2 SWAP1 PUSH2 0xE82 JUMP JUMPDEST SWAP3 POP POP DUP2 SWAP1 SSTORE POP JUMPDEST POP POP JUMP JUMPDEST PUSH1 0x4 PUSH1 0x20 MSTORE DUP1 PUSH1 0x0 MSTORE PUSH1 0x40 PUSH1 0x0 KECCAK256 PUSH1 0x0 SWAP2 POP SWAP1 POP DUP1 PUSH1 0x0 ADD PUSH1 0x0 SWAP1 SLOAD SWAP1 PUSH2 0x100 EXP SWAP1 DIV PUSH20 0xFFFFFFFFFFFFFFFFFFFFFFFFFFFFFFFFFFFFFFFF AND SWAP1 DUP1 PUSH1 0x0 ADD PUSH1 0x14 SWAP1 SLOAD SWAP1 PUSH2 0x100 EXP SWAP1 DIV PUSH1 0xFF AND SWAP1 DUP1 PUSH1 0x1 ADD DUP1 SLOAD PUSH2 0x3E7 SWAP1 PUSH2 0x103A JUMP JUMPDEST DUP1 PUSH1 0x1F ADD PUSH1 0x20 DUP1 SWAP2 DIV MUL PUSH1 0x20 ADD PUSH1 0x40 MLOAD SWAP1 DUP2 ADD PUSH1 0x40 MSTORE DUP1 SWAP3 SWAP2 SWAP1 DUP2 DUP2 MSTORE PUSH1 0x20 ADD DUP3 DUP1 SLOAD PUSH2 0x413 SWAP1 PUSH2 0x103A JUMP JUMPDEST DUP1 ISZERO PUSH2 0x460 JUMPI DUP1 PUSH1 0x1F LT PUSH2 0x435 JUMPI PUSH2 0x100 DUP1 DUP4 SLOAD DIV MUL DUP4 MSTORE SWAP2 PUSH1 0x20 ADD SWAP2 PUSH2 0x460 JUMP JUMPDEST DUP3 ADD SWAP2 SWAP1 PUSH1 0x0 MSTORE PUSH1 0x20 PUSH1 0x0 KECCAK256 SWAP1 JUMPDEST DUP2 SLOAD DUP2 MSTORE SWAP1 PUSH1 0x1 ADD SWAP1 PUSH1 0x20 ADD DUP1 DUP4 GT PUSH2 0x443 JUMPI DUP3 SWAP1 SUB PUSH1 0x1F AND DUP3 ADD SWAP2 JUMPDEST POP POP POP POP POP SWAP1 DUP1 PUSH1 0x2 ADD DUP1 SLOAD PUSH2 0x475 SWAP1 PUSH2 0x103A JUMP JUMPDEST DUP1 PUSH1 0x1F ADD PUSH1 0x20 DUP1 SWAP2 DIV MUL PUSH1 0x20 ADD PUSH1 0x40 MLOAD SWAP1 DUP2 ADD PUSH1 0x40 MSTORE DUP1 SWAP3 SWAP2 SWAP1 DUP2 DUP2 MSTORE PUSH1 0x20 ADD DUP3 DUP1 SLOAD PUSH2 0x4A1 SWAP1 PUSH2 0x103A JUMP JUMPDEST DUP1 ISZERO PUSH2 0x4EE JUMPI DUP1 PUSH1 0x1F LT PUSH2 0x4C3 JUMPI PUSH2 0x100 DUP1 DUP4 SLOAD DIV MUL DUP4 MSTORE SWAP2 PUSH1 0x20 ADD SWAP2 PUSH2 0x4EE JUMP JUMPDEST DUP3 ADD SWAP2 SWAP1 PUSH1 0x0 MSTORE PUSH1 0x20 PUSH1 0x0 KECCAK256 SWAP1 JUMPDEST DUP2 SLOAD DUP2 MSTORE SWAP1 PUSH1 0x1 ADD SWAP1 PUSH1 0x20 ADD DUP1 DUP4 GT PUSH2 0x4D1 JUMPI DUP3 SWAP1 SUB PUSH1 0x1F AND DUP3 ADD SWAP2 JUMPDEST POP POP POP POP POP SWAP1 DUP1 PUSH1 0x3 ADD SLOAD SWAP1 POP DUP6 JUMP JUMPDEST PUSH1 0x3 DUP2 DUP2 SLOAD DUP2 LT PUSH2 0x50E JUMPI PUSH1 0x0 DUP1 REVERT JUMPDEST SWAP1 PUSH1 0x0 MSTORE PUSH1 0x20 PUSH1 0x0 KECCAK256 SWAP1 PUSH1 0x4 MUL ADD PUSH1 0x0 SWAP2 POP SWAP1 POP DUP1 PUSH1 0x0 ADD PUSH1 0x0 SWAP1 SLOAD SWAP1 PUSH2 0x100 EXP SWAP1 DIV PUSH20 0xFFFFFFFFFFFFFFFFFFFFFFFFFFFFFFFFFFFFFFFF AND SWAP1 DUP1 PUSH1 0x0 ADD PUSH1 0x14 SWAP1 SLOAD SWAP1 PUSH2 0x100 EXP SWAP1 DIV PUSH1 0xFF AND SWAP1 DUP1 PUSH1 0x1 ADD DUP1 SLOAD PUSH2 0x56A SWAP1 PUSH2 0x103A JUMP JUMPDEST DUP1 PUSH1 0x1F ADD PUSH1 0x20 DUP1 SWAP2 DIV MUL PUSH1 0x20 ADD PUSH1 0x40 MLOAD SWAP1 DUP2 ADD PUSH1 0x40 MSTORE DUP1 SWAP3 SWAP2 SWAP1 DUP2 DUP2 MSTORE PUSH1 0x20 ADD DUP3 DUP1 SLOAD PUSH2 0x596 SWAP1 PUSH2 0x103A JUMP JUMPDEST DUP1 ISZERO PUSH2 0x5E3 JUMPI DUP1 PUSH1 0x1F LT PUSH2 0x5B8 JUMPI PUSH2 0x100 DUP1 DUP4 SLOAD DIV MUL DUP4 MSTORE SWAP2 PUSH1 0x20 ADD SWAP2 PUSH2 0x5E3 JUMP JUMPDEST DUP3 ADD SWAP2 SWAP1 PUSH1 0x0 MSTORE PUSH1 0x20 PUSH1 0x0 KECCAK256 SWAP1 JUMPDEST DUP2 SLOAD DUP2 MSTORE SWAP1 PUSH1 0x1 ADD SWAP1 PUSH1 0x20 ADD DUP1 DUP4 GT PUSH2 0x5C6 JUMPI DUP3 SWAP1 SUB PUSH1 0x1F AND DUP3 ADD SWAP2 JUMPDEST POP POP POP POP POP SWAP1 DUP1 PUSH1 0x2 ADD DUP1 SLOAD PUSH2 0x5F8 SWAP1 PUSH2 0x103A JUMP JUMPDEST DUP1 PUSH1 0x1F ADD PUSH1 0x20 DUP1 SWAP2 DIV MUL PUSH1 0x20 ADD PUSH1 0x40 MLOAD SWAP1 DUP2 ADD PUSH1 0x40 MSTORE DUP1 SWAP3 SWAP2 SWAP1 DUP2 DUP2 MSTORE PUSH1 0x20 ADD DUP3 DUP1 SLOAD PUSH2 0x624 SWAP1 PUSH2 0x103A JUMP JUMPDEST DUP1 ISZERO PUSH2 0x671 JUMPI DUP1 PUSH1 0x1F LT PUSH2 0x646 JUMPI PUSH2 0x100 DUP1 DUP4 SLOAD DIV MUL DUP4 MSTORE SWAP2 PUSH1 0x20 ADD SWAP2 PUSH2 0x671 JUMP JUMPDEST DUP3 ADD SWAP2 SWAP1 PUSH1 0x0 MSTORE PUSH1 0x20 PUSH1 0x0 KECCAK256 SWAP1 JUMPDEST DUP2 SLOAD DUP2 MSTORE SWAP1 PUSH1 0x1 ADD SWAP1 PUSH1 0x20 ADD DUP1 DUP4 GT PUSH2 0x654 JUMPI DUP3 SWAP1 SUB PUSH1 0x1F AND DUP3 ADD SWAP2 JUMPDEST POP POP POP POP POP SWAP1 DUP1 PUSH1 0x3 ADD SLOAD SWAP1 POP DUP6 JUMP JUMPDEST PUSH1 0x2 PUSH1 0x0 SWAP1 SLOAD SWAP1 PUSH2 0x100 EXP SWAP1 DIV PUSH20 0xFFFFFFFFFFFFFFFFFFFFFFFFFFFFFFFFFFFFFFFF AND PUSH20 0xFFFFFFFFFFFFFFFFFFFFFFFFFFFFFFFFFFFFFFFF AND CALLER PUSH20 0xFFFFFFFFFFFFFFFFFFFFFFFFFFFFFFFFFFFFFFFF AND EQ PUSH2 0x711 JUMPI PUSH1 0x40 MLOAD PUSH32 0x8C379A000000000000000000000000000000000000000000000000000000000 DUP2 MSTORE PUSH1 0x4 ADD PUSH2 0x708 SWAP1 PUSH2 0xDB5 JUMP JUMPDEST PUSH1 0x40 MLOAD DUP1 SWAP2 SUB SWAP1 REVERT JUMPDEST PUSH8 0xDE0B6B3A7640000 PUSH1 0x1 SLOAD PUSH2 0x727 SWAP2 SWAP1 PUSH2 0xF09 JUMP JUMPDEST CALLVALUE EQ PUSH2 0x732 JUMPI PUSH1 0x0 DUP1 REVERT JUMPDEST PUSH1 0x0 PUSH1 0x1 PUSH1 0x0 SLOAD PUSH2 0x743 SWAP2 SWAP1 PUSH2 0xF63 JUMP JUMPDEST CALLVALUE PUSH2 0x74E SWAP2 SWAP1 PUSH2 0xED8 JUMP JUMPDEST SWAP1 POP PUSH1 0x0 JUMPDEST PUSH1 0x3 DUP1 SLOAD SWAP1 POP DUP2 LT ISZERO PUSH2 0x839 JUMPI PUSH1 0x0 PUSH1 0x3 DUP3 DUP2 SLOAD DUP2 LT PUSH2 0x776 JUMPI PUSH2 0x775 PUSH2 0x11A2 JUMP JUMPDEST JUMPDEST SWAP1 PUSH1 0x0 MSTORE PUSH1 0x20 PUSH1 0x0 KECCAK256 SWAP1 PUSH1 0x4 MUL ADD PUSH1 0x0 ADD PUSH1 0x0 SWAP1 SLOAD SWAP1 PUSH2 0x100 EXP SWAP1 DIV PUSH20 0xFFFFFFFFFFFFFFFFFFFFFFFFFFFFFFFFFFFFFFFF AND SWAP1 POP DUP4 PUSH20 0xFFFFFFFFFFFFFFFFFFFFFFFFFFFFFFFFFFFFFFFF AND DUP2 PUSH20 0xFFFFFFFFFFFFFFFFFFFFFFFFFFFFFFFFFFFFFFFF AND EQ PUSH2 0x825 JUMPI DUP1 PUSH20 0xFFFFFFFFFFFFFFFFFFFFFFFFFFFFFFFFFFFFFFFF AND PUSH2 0x8FC DUP5 SWAP1 DUP2 ISZERO MUL SWAP1 PUSH1 0x40 MLOAD PUSH1 0x0 PUSH1 0x40 MLOAD DUP1 DUP4 SUB DUP2 DUP6 DUP9 DUP9 CALL SWAP4 POP POP POP POP ISZERO DUP1 ISZERO PUSH2 0x823 JUMPI RETURNDATASIZE PUSH1 0x0 DUP1 RETURNDATACOPY RETURNDATASIZE PUSH1 0x0 REVERT JUMPDEST POP JUMPDEST POP DUP1 DUP1 PUSH2 0x831 SWAP1 PUSH2 0x109D JUMP JUMPDEST SWAP2 POP POP PUSH2 0x753 JUMP JUMPDEST POP POP POP JUMP JUMPDEST PUSH1 0x0 PUSH1 0x40 MLOAD DUP1 PUSH1 0xA0 ADD PUSH1 0x40 MSTORE DUP1 CALLER PUSH20 0xFFFFFFFFFFFFFFFFFFFFFFFFFFFFFFFFFFFFFFFF AND DUP2 MSTORE PUSH1 0x20 ADD PUSH1 0x0 PUSH1 0x2 DUP2 GT ISZERO PUSH2 0x87B JUMPI PUSH2 0x87A PUSH2 0x1144 JUMP JUMPDEST JUMPDEST DUP2 MSTORE PUSH1 0x20 ADD DUP5 DUP2 MSTORE PUSH1 0x20 ADD DUP4 DUP2 MSTORE PUSH1 0x20 ADD TIMESTAMP DUP2 MSTORE POP SWAP1 POP DUP1 PUSH1 0x4 PUSH1 0x0 CALLER PUSH20 0xFFFFFFFFFFFFFFFFFFFFFFFFFFFFFFFFFFFFFFFF AND PUSH20 0xFFFFFFFFFFFFFFFFFFFFFFFFFFFFFFFFFFFFFFFF AND DUP2 MSTORE PUSH1 0x20 ADD SWAP1 DUP2 MSTORE PUSH1 0x20 ADD PUSH1 0x0 KECCAK256 PUSH1 0x0 DUP3 ADD MLOAD DUP2 PUSH1 0x0 ADD PUSH1 0x0 PUSH2 0x100 EXP DUP2 SLOAD DUP2 PUSH20 0xFFFFFFFFFFFFFFFFFFFFFFFFFFFFFFFFFFFFFFFF MUL NOT AND SWAP1 DUP4 PUSH20 0xFFFFFFFFFFFFFFFFFFFFFFFFFFFFFFFFFFFFFFFF AND MUL OR SWAP1 SSTORE POP PUSH1 0x20 DUP3 ADD MLOAD DUP2 PUSH1 0x0 ADD PUSH1 0x14 PUSH2 0x100 EXP DUP2 SLOAD DUP2 PUSH1 0xFF MUL NOT AND SWAP1 DUP4 PUSH1 0x2 DUP2 GT ISZERO PUSH2 0x944 JUMPI PUSH2 0x943 PUSH2 0x1144 JUMP JUMPDEST JUMPDEST MUL OR SWAP1 SSTORE POP PUSH1 0x40 DUP3 ADD MLOAD DUP2 PUSH1 0x1 ADD SWAP1 DUP1 MLOAD SWAP1 PUSH1 0x20 ADD SWAP1 PUSH2 0x965 SWAP3 SWAP2 SWAP1 PUSH2 0xA7E JUMP JUMPDEST POP PUSH1 0x60 DUP3 ADD MLOAD DUP2 PUSH1 0x2 ADD SWAP1 DUP1 MLOAD SWAP1 PUSH1 0x20 ADD SWAP1 PUSH2 0x982 SWAP3 SWAP2 SWAP1 PUSH2 0xA7E JUMP JUMPDEST POP PUSH1 0x80 DUP3 ADD MLOAD DUP2 PUSH1 0x3 ADD SSTORE SWAP1 POP POP PUSH1 0x3 DUP2 SWAP1 DUP1 PUSH1 0x1 DUP2 SLOAD ADD DUP1 DUP3 SSTORE DUP1 SWAP2 POP POP PUSH1 0x1 SWAP1 SUB SWAP1 PUSH1 0x0 MSTORE PUSH1 0x20 PUSH1 0x0 KECCAK256 SWAP1 PUSH1 0x4 MUL ADD PUSH1 0x0 SWAP1 SWAP2 SWAP1 SWAP2 SWAP1 SWAP2 POP PUSH1 0x0 DUP3 ADD MLOAD DUP2 PUSH1 0x0 ADD PUSH1 0x0 PUSH2 0x100 EXP DUP2 SLOAD DUP2 PUSH20 0xFFFFFFFFFFFFFFFFFFFFFFFFFFFFFFFFFFFFFFFF MUL NOT AND SWAP1 DUP4 PUSH20 0xFFFFFFFFFFFFFFFFFFFFFFFFFFFFFFFFFFFFFFFF AND MUL OR SWAP1 SSTORE POP PUSH1 0x20 DUP3 ADD MLOAD DUP2 PUSH1 0x0 ADD PUSH1 0x14 PUSH2 0x100 EXP DUP2 SLOAD DUP2 PUSH1 0xFF MUL NOT AND SWAP1 DUP4 PUSH1 0x2 DUP2 GT ISZERO PUSH2 0xA2E JUMPI PUSH2 0xA2D PUSH2 0x1144 JUMP JUMPDEST JUMPDEST MUL OR SWAP1 SSTORE POP PUSH1 0x40 DUP3 ADD MLOAD DUP2 PUSH1 0x1 ADD SWAP1 DUP1 MLOAD SWAP1 PUSH1 0x20 ADD SWAP1 PUSH2 0xA4F SWAP3 SWAP2 SWAP1 PUSH2 0xA7E JUMP JUMPDEST POP PUSH1 0x60 DUP3 ADD MLOAD DUP2 PUSH1 0x2 ADD SWAP1 DUP1 MLOAD SWAP1 PUSH1 0x20 ADD SWAP1 PUSH2 0xA6C SWAP3 SWAP2 SWAP1 PUSH2 0xA7E JUMP JUMPDEST POP PUSH1 0x80 DUP3 ADD MLOAD DUP2 PUSH1 0x3 ADD SSTORE POP POP POP POP POP JUMP JUMPDEST DUP3 DUP1 SLOAD PUSH2 0xA8A SWAP1 PUSH2 0x103A JUMP JUMPDEST SWAP1 PUSH1 0x0 MSTORE PUSH1 0x20 PUSH1 0x0 KECCAK256 SWAP1 PUSH1 0x1F ADD PUSH1 0x20 SWAP1 DIV DUP2 ADD SWAP3 DUP3 PUSH2 0xAAC JUMPI PUSH1 0x0 DUP6 SSTORE PUSH2 0xAF3 JUMP JUMPDEST DUP3 PUSH1 0x1F LT PUSH2 0xAC5 JUMPI DUP1 MLOAD PUSH1 0xFF NOT AND DUP4 DUP1 ADD OR DUP6 SSTORE PUSH2 0xAF3 JUMP JUMPDEST DUP3 DUP1 ADD PUSH1 0x1 ADD DUP6 SSTORE DUP3 ISZERO PUSH2 0xAF3 JUMPI SWAP2 DUP3 ADD JUMPDEST DUP3 DUP2 GT ISZERO PUSH2 0xAF2 JUMPI DUP3 MLOAD DUP3 SSTORE SWAP2 PUSH1 0x20 ADD SWAP2 SWAP1 PUSH1 0x1 ADD SWAP1 PUSH2 0xAD7 JUMP JUMPDEST JUMPDEST POP SWAP1 POP PUSH2 0xB00 SWAP2 SWAP1 PUSH2 0xB04 JUMP JUMPDEST POP SWAP1 JUMP JUMPDEST JUMPDEST DUP1 DUP3 GT ISZERO PUSH2 0xB1D JUMPI PUSH1 0x0 DUP2 PUSH1 0x0 SWAP1 SSTORE POP PUSH1 0x1 ADD PUSH2 0xB05 JUMP JUMPDEST POP SWAP1 JUMP JUMPDEST PUSH1 0x0 PUSH2 0xB34 PUSH2 0xB2F DUP5 PUSH2 0xE35 JUMP JUMPDEST PUSH2 0xE10 JUMP JUMPDEST SWAP1 POP DUP3 DUP2 MSTORE PUSH1 0x20 DUP2 ADD DUP5 DUP5 DUP5 ADD GT ISZERO PUSH2 0xB50 JUMPI PUSH2 0xB4F PUSH2 0x1205 JUMP JUMPDEST JUMPDEST PUSH2 0xB5B DUP5 DUP3 DUP6 PUSH2 0xFF8 JUMP JUMPDEST POP SWAP4 SWAP3 POP POP POP JUMP JUMPDEST PUSH1 0x0 DUP2 CALLDATALOAD SWAP1 POP PUSH2 0xB72 DUP2 PUSH2 0x12B1 JUMP JUMPDEST SWAP3 SWAP2 POP POP JUMP JUMPDEST PUSH1 0x0 DUP3 PUSH1 0x1F DUP4 ADD SLT PUSH2 0xB8D JUMPI PUSH2 0xB8C PUSH2 0x1200 JUMP JUMPDEST JUMPDEST DUP2 CALLDATALOAD PUSH2 0xB9D DUP5 DUP3 PUSH1 0x20 DUP7 ADD PUSH2 0xB21 JUMP JUMPDEST SWAP2 POP POP SWAP3 SWAP2 POP POP JUMP JUMPDEST PUSH1 0x0 DUP2 CALLDATALOAD SWAP1 POP PUSH2 0xBB5 DUP2 PUSH2 0x12C8 JUMP JUMPDEST SWAP3 SWAP2 POP POP JUMP JUMPDEST PUSH1 0x0 PUSH1 0x20 DUP3 DUP5 SUB SLT ISZERO PUSH2 0xBD1 JUMPI PUSH2 0xBD0 PUSH2 0x120F JUMP JUMPDEST JUMPDEST PUSH1 0x0 PUSH2 0xBDF DUP5 DUP3 DUP6 ADD PUSH2 0xB63 JUMP JUMPDEST SWAP2 POP POP SWAP3 SWAP2 POP POP JUMP JUMPDEST PUSH1 0x0 DUP1 PUSH1 0x40 DUP4 DUP6 SUB SLT ISZERO PUSH2 0xBFF JUMPI PUSH2 0xBFE PUSH2 0x120F JUMP JUMPDEST JUMPDEST PUSH1 0x0 DUP4 ADD CALLDATALOAD PUSH8 0xFFFFFFFFFFFFFFFF DUP2 GT ISZERO PUSH2 0xC1D JUMPI PUSH2 0xC1C PUSH2 0x120A JUMP JUMPDEST JUMPDEST PUSH2 0xC29 DUP6 DUP3 DUP7 ADD PUSH2 0xB78 JUMP JUMPDEST SWAP3 POP POP PUSH1 0x20 DUP4 ADD CALLDATALOAD PUSH8 0xFFFFFFFFFFFFFFFF DUP2 GT ISZERO PUSH2 0xC4A JUMPI PUSH2 0xC49 PUSH2 0x120A JUMP JUMPDEST JUMPDEST PUSH2 0xC56 DUP6 DUP3 DUP7 ADD PUSH2 0xB78 JUMP JUMPDEST SWAP2 POP POP SWAP3 POP SWAP3 SWAP1 POP JUMP JUMPDEST PUSH1 0x0 PUSH1 0x20 DUP3 DUP5 SUB SLT ISZERO PUSH2 0xC76 JUMPI PUSH2 0xC75 PUSH2 0x120F JUMP JUMPDEST JUMPDEST PUSH1 0x0 PUSH2 0xC84 DUP5 DUP3 DUP6 ADD PUSH2 0xBA6 JUMP JUMPDEST SWAP2 POP POP SWAP3 SWAP2 POP POP JUMP JUMPDEST PUSH2 0xC96 DUP2 PUSH2 0xF97 JUMP JUMPDEST DUP3 MSTORE POP POP JUMP JUMPDEST PUSH2 0xCA5 DUP2 PUSH2 0xFE6 JUMP JUMPDEST DUP3 MSTORE POP POP JUMP JUMPDEST PUSH1 0x0 PUSH2 0xCB6 DUP3 PUSH2 0xE66 JUMP JUMPDEST PUSH2 0xCC0 DUP2 DUP6 PUSH2 0xE71 JUMP JUMPDEST SWAP4 POP PUSH2 0xCD0 DUP2 DUP6 PUSH1 0x20 DUP7 ADD PUSH2 0x1007 JUMP JUMPDEST PUSH2 0xCD9 DUP2 PUSH2 0x1214 JUMP JUMPDEST DUP5 ADD SWAP2 POP POP SWAP3 SWAP2 POP POP JUMP JUMPDEST PUSH1 0x0 PUSH2 0xCF1 PUSH1 0x28 DUP4 PUSH2 0xE71 JUMP JUMPDEST SWAP2 POP PUSH2 0xCFC DUP3 PUSH2 0x1225 JUMP JUMPDEST PUSH1 0x40 DUP3 ADD SWAP1 POP SWAP2 SWAP1 POP JUMP JUMPDEST PUSH1 0x0 PUSH2 0xD14 PUSH1 0x1B DUP4 PUSH2 0xE71 JUMP JUMPDEST SWAP2 POP PUSH2 0xD1F DUP3 PUSH2 0x1274 JUMP JUMPDEST PUSH1 0x20 DUP3 ADD SWAP1 POP SWAP2 SWAP1 POP JUMP JUMPDEST PUSH2 0xD33 DUP2 PUSH2 0xFDC JUMP JUMPDEST DUP3 MSTORE POP POP JUMP JUMPDEST PUSH1 0x0 PUSH1 0x20 DUP3 ADD SWAP1 POP PUSH2 0xD4E PUSH1 0x0 DUP4 ADD DUP5 PUSH2 0xC8D JUMP JUMPDEST SWAP3 SWAP2 POP POP JUMP JUMPDEST PUSH1 0x0 PUSH1 0xA0 DUP3 ADD SWAP1 POP PUSH2 0xD69 PUSH1 0x0 DUP4 ADD DUP9 PUSH2 0xC8D JUMP JUMPDEST PUSH2 0xD76 PUSH1 0x20 DUP4 ADD DUP8 PUSH2 0xC9C JUMP JUMPDEST DUP2 DUP2 SUB PUSH1 0x40 DUP4 ADD MSTORE PUSH2 0xD88 DUP2 DUP7 PUSH2 0xCAB JUMP JUMPDEST SWAP1 POP DUP2 DUP2 SUB PUSH1 0x60 DUP4 ADD MSTORE PUSH2 0xD9C DUP2 DUP6 PUSH2 0xCAB JUMP JUMPDEST SWAP1 POP PUSH2 0xDAB PUSH1 0x80 DUP4 ADD DUP5 PUSH2 0xD2A JUMP JUMPDEST SWAP7 SWAP6 POP POP POP POP POP POP JUMP JUMPDEST PUSH1 0x0 PUSH1 0x20 DUP3 ADD SWAP1 POP DUP2 DUP2 SUB PUSH1 0x0 DUP4 ADD MSTORE PUSH2 0xDCE DUP2 PUSH2 0xCE4 JUMP JUMPDEST SWAP1 POP SWAP2 SWAP1 POP JUMP JUMPDEST PUSH1 0x0 PUSH1 0x20 DUP3 ADD SWAP1 POP DUP2 DUP2 SUB PUSH1 0x0 DUP4 ADD MSTORE PUSH2 0xDEE DUP2 PUSH2 0xD07 JUMP JUMPDEST SWAP1 POP SWAP2 SWAP1 POP JUMP JUMPDEST PUSH1 0x0 PUSH1 0x20 DUP3 ADD SWAP1 POP PUSH2 0xE0A PUSH1 0x0 DUP4 ADD DUP5 PUSH2 0xD2A JUMP JUMPDEST SWAP3 SWAP2 POP POP JUMP JUMPDEST PUSH1 0x0 PUSH2 0xE1A PUSH2 0xE2B JUMP JUMPDEST SWAP1 POP PUSH2 0xE26 DUP3 DUP3 PUSH2 0x106C JUMP JUMPDEST SWAP2 SWAP1 POP JUMP JUMPDEST PUSH1 0x0 PUSH1 0x40 MLOAD SWAP1 POP SWAP1 JUMP JUMPDEST PUSH1 0x0 PUSH8 0xFFFFFFFFFFFFFFFF DUP3 GT ISZERO PUSH2 0xE50 JUMPI PUSH2 0xE4F PUSH2 0x11D1 JUMP JUMPDEST JUMPDEST PUSH2 0xE59 DUP3 PUSH2 0x1214 JUMP JUMPDEST SWAP1 POP PUSH1 0x20 DUP2 ADD SWAP1 POP SWAP2 SWAP1 POP JUMP JUMPDEST PUSH1 0x0 DUP2 MLOAD SWAP1 POP SWAP2 SWAP1 POP JUMP JUMPDEST PUSH1 0x0 DUP3 DUP3 MSTORE PUSH1 0x20 DUP3 ADD SWAP1 POP SWAP3 SWAP2 POP POP JUMP JUMPDEST PUSH1 0x0 PUSH2 0xE8D DUP3 PUSH2 0xFDC JUMP JUMPDEST SWAP2 POP PUSH2 0xE98 DUP4 PUSH2 0xFDC JUMP JUMPDEST SWAP3 POP DUP3 PUSH32 0xFFFFFFFFFFFFFFFFFFFFFFFFFFFFFFFFFFFFFFFFFFFFFFFFFFFFFFFFFFFFFFFF SUB DUP3 GT ISZERO PUSH2 0xECD JUMPI PUSH2 0xECC PUSH2 0x10E6 JUMP JUMPDEST JUMPDEST DUP3 DUP3 ADD SWAP1 POP SWAP3 SWAP2 POP POP JUMP JUMPDEST PUSH1 0x0 PUSH2 0xEE3 DUP3 PUSH2 0xFDC JUMP JUMPDEST SWAP2 POP PUSH2 0xEEE DUP4 PUSH2 0xFDC JUMP JUMPDEST SWAP3 POP DUP3 PUSH2 0xEFE JUMPI PUSH2 0xEFD PUSH2 0x1115 JUMP JUMPDEST JUMPDEST DUP3 DUP3 DIV SWAP1 POP SWAP3 SWAP2 POP POP JUMP JUMPDEST PUSH1 0x0 PUSH2 0xF14 DUP3 PUSH2 0xFDC JUMP JUMPDEST SWAP2 POP PUSH2 0xF1F DUP4 PUSH2 0xFDC JUMP JUMPDEST SWAP3 POP DUP2 PUSH32 0xFFFFFFFFFFFFFFFFFFFFFFFFFFFFFFFFFFFFFFFFFFFFFFFFFFFFFFFFFFFFFFFF DIV DUP4 GT DUP3 ISZERO ISZERO AND ISZERO PUSH2 0xF58 JUMPI PUSH2 0xF57 PUSH2 0x10E6 JUMP JUMPDEST JUMPDEST DUP3 DUP3 MUL SWAP1 POP SWAP3 SWAP2 POP POP JUMP JUMPDEST PUSH1 0x0 PUSH2 0xF6E DUP3 PUSH2 0xFDC JUMP JUMPDEST SWAP2 POP PUSH2 0xF79 DUP4 PUSH2 0xFDC JUMP JUMPDEST SWAP3 POP DUP3 DUP3 LT ISZERO PUSH2 0xF8C JUMPI PUSH2 0xF8B PUSH2 0x10E6 JUMP JUMPDEST JUMPDEST DUP3 DUP3 SUB SWAP1 POP SWAP3 SWAP2 POP POP JUMP JUMPDEST PUSH1 0x0 PUSH2 0xFA2 DUP3 PUSH2 0xFBC JUMP JUMPDEST SWAP1 POP SWAP2 SWAP1 POP JUMP JUMPDEST PUSH1 0x0 DUP2 SWAP1 POP PUSH2 0xFB7 DUP3 PUSH2 0x129D JUMP JUMPDEST SWAP2 SWAP1 POP JUMP JUMPDEST PUSH1 0x0 PUSH20 0xFFFFFFFFFFFFFFFFFFFFFFFFFFFFFFFFFFFFFFFF DUP3 AND SWAP1 POP SWAP2 SWAP1 POP JUMP JUMPDEST PUSH1 0x0 DUP2 SWAP1 POP SWAP2 SWAP1 POP JUMP JUMPDEST PUSH1 0x0 PUSH2 0xFF1 DUP3 PUSH2 0xFA9 JUMP JUMPDEST SWAP1 POP SWAP2 SWAP1 POP JUMP JUMPDEST DUP3 DUP2 DUP4 CALLDATACOPY PUSH1 0x0 DUP4 DUP4 ADD MSTORE POP POP POP JUMP JUMPDEST PUSH1 0x0 JUMPDEST DUP4 DUP2 LT ISZERO PUSH2 0x1025 JUMPI DUP1 DUP3 ADD MLOAD DUP2 DUP5 ADD MSTORE PUSH1 0x20 DUP2 ADD SWAP1 POP PUSH2 0x100A JUMP JUMPDEST DUP4 DUP2 GT ISZERO PUSH2 0x1034 JUMPI PUSH1 0x0 DUP5 DUP5 ADD MSTORE JUMPDEST POP POP POP POP JUMP JUMPDEST PUSH1 0x0 PUSH1 0x2 DUP3 DIV SWAP1 POP PUSH1 0x1 DUP3 AND DUP1 PUSH2 0x1052 JUMPI PUSH1 0x7F DUP3 AND SWAP2 POP JUMPDEST PUSH1 0x20 DUP3 LT DUP2 EQ ISZERO PUSH2 0x1066 JUMPI PUSH2 0x1065 PUSH2 0x1173 JUMP JUMPDEST JUMPDEST POP SWAP2 SWAP1 POP JUMP JUMPDEST PUSH2 0x1075 DUP3 PUSH2 0x1214 JUMP JUMPDEST DUP2 ADD DUP2 DUP2 LT PUSH8 0xFFFFFFFFFFFFFFFF DUP3 GT OR ISZERO PUSH2 0x1094 JUMPI PUSH2 0x1093 PUSH2 0x11D1 JUMP JUMPDEST JUMPDEST DUP1 PUSH1 0x40 MSTORE POP POP POP JUMP JUMPDEST PUSH1 0x0 PUSH2 0x10A8 DUP3 PUSH2 0xFDC JUMP JUMPDEST SWAP2 POP PUSH32 0xFFFFFFFFFFFFFFFFFFFFFFFFFFFFFFFFFFFFFFFFFFFFFFFFFFFFFFFFFFFFFFFF DUP3 EQ ISZERO PUSH2 0x10DB JUMPI PUSH2 0x10DA PUSH2 0x10E6 JUMP JUMPDEST JUMPDEST PUSH1 0x1 DUP3 ADD SWAP1 POP SWAP2 SWAP1 POP JUMP JUMPDEST PUSH32 0x4E487B7100000000000000000000000000000000000000000000000000000000 PUSH1 0x0 MSTORE PUSH1 0x11 PUSH1 0x4 MSTORE PUSH1 0x24 PUSH1 0x0 REVERT JUMPDEST PUSH32 0x4E487B7100000000000000000000000000000000000000000000000000000000 PUSH1 0x0 MSTORE PUSH1 0x12 PUSH1 0x4 MSTORE PUSH1 0x24 PUSH1 0x0 REVERT JUMPDEST PUSH32 0x4E487B7100000000000000000000000000000000000000000000000000000000 PUSH1 0x0 MSTORE PUSH1 0x21 PUSH1 0x4 MSTORE PUSH1 0x24 PUSH1 0x0 REVERT JUMPDEST PUSH32 0x4E487B7100000000000000000000000000000000000000000000000000000000 PUSH1 0x0 MSTORE PUSH1 0x22 PUSH1 0x4 MSTORE PUSH1 0x24 PUSH1 0x0 REVERT JUMPDEST PUSH32 0x4E487B7100000000000000000000000000000000000000000000000000000000 PUSH1 0x0 MSTORE PUSH1 0x32 PUSH1 0x4 MSTORE PUSH1 0x24 PUSH1 0x0 REVERT JUMPDEST PUSH32 0x4E487B7100000000000000000000000000000000000000000000000000000000 PUSH1 0x0 MSTORE PUSH1 0x41 PUSH1 0x4 MSTORE PUSH1 0x24 PUSH1 0x0 REVERT JUMPDEST PUSH1 0x0 DUP1 REVERT JUMPDEST PUSH1 0x0 DUP1 REVERT JUMPDEST PUSH1 0x0 DUP1 REVERT JUMPDEST PUSH1 0x0 DUP1 REVERT JUMPDEST PUSH1 0x0 PUSH1 0x1F NOT PUSH1 0x1F DUP4 ADD AND SWAP1 POP SWAP2 SWAP1 POP JUMP JUMPDEST PUSH32 0x4F6E6C7920746865206465616C65722063616E20706179206F75742074686520 PUSH1 0x0 DUP3 ADD MSTORE PUSH32 0x77696E6E6572732E000000000000000000000000000000000000000000000000 PUSH1 0x20 DUP3 ADD MSTORE POP JUMP JUMPDEST PUSH32 0x546865206A6F696E696E67206665652069732032352065746865720000000000 PUSH1 0x0 DUP3 ADD MSTORE POP JUMP JUMPDEST PUSH1 0x3 DUP2 LT PUSH2 0x12AE JUMPI PUSH2 0x12AD PUSH2 0x1144 JUMP JUMPDEST JUMPDEST POP JUMP JUMPDEST PUSH2 0x12BA DUP2 PUSH2 0xF97 JUMP JUMPDEST DUP2 EQ PUSH2 0x12C5 JUMPI PUSH1 0x0 DUP1 REVERT JUMPDEST POP JUMP JUMPDEST PUSH2 0x12D1 DUP2 PUSH2 0xFDC JUMP JUMPDEST DUP2 EQ PUSH2 0x12DC JUMPI PUSH1 0x0 DUP1 REVERT JUMPDEST POP JUMP INVALID LOG2 PUSH5 0x6970667358 0x22 SLT KECCAK256 0xB4 CODECOPY EXP SWAP4 SWAP15 ADD 0xD0 0xF9 EQ 0xC4 PUSH5 0x226DA1B300 DIV LT 0xCC 0xBD MOD OR MUL DUP3 0xF9 MSTORE 0xB9 TIMESTAMP 0xB3 0xEC PUSH2 0xF964 PUSH20 0x6F6C634300080700330000000000000000000000 "
				},
				"gasEstimates": {
					"creation": {
						"codeDepositCost": "977000",
						"executionCost": "35292",
						"totalCost": "1012292"
					},
					"external": {
						"changePlayerLevel(address)": "infinite",
						"dealer()": "2581",
						"joinGame(string,string)": "infinite",
						"payOutWinners(address)": "infinite",
						"playerCount()": "2430",
						"players(address)": "infinite",
						"playersInGame(uint256)": "infinite",
						"pot()": "2452"
					},
					"internal": {
						"addPlayer(string memory,string memory)": "infinite",
						"getPlayerLevel(address)": "infinite"
					}
				},
				"methodIdentifiers": {
					"changePlayerLevel(address)": "8ddf0f7d",
					"dealer()": "9de2ee21",
					"joinGame(string,string)": "dbdef6f1",
					"payOutWinners(address)": "fed47dac",
					"playerCount()": "302bcc57",
					"players(address)": "e2eb41ff",
					"playersInGame(uint256)": "f9593e14",
					"pot()": "4ba2363a"
				}
			},
			"storageLayout": {
				"storage": [
					{
						"astId": 4,
						"contract": "contracts/SimpleMultSend.sol:myGame",
						"label": "playerCount",
						"offset": 0,
						"slot": "0",
						"type": "t_uint256"
					},
					{
						"astId": 7,
						"contract": "contracts/SimpleMultSend.sol:myGame",
						"label": "pot",
						"offset": 0,
						"slot": "1",
						"type": "t_uint256"
					},
					{
						"astId": 9,
						"contract": "contracts/SimpleMultSend.sol:myGame",
						"label": "dealer",
						"offset": 0,
						"slot": "2",
						"type": "t_address"
					},
					{
						"astId": 13,
						"contract": "contracts/SimpleMultSend.sol:myGame",
						"label": "playersInGame",
						"offset": 0,
						"slot": "3",
						"type": "t_array(t_struct(Player)34_storage)dyn_storage"
					},
					{
						"astId": 18,
						"contract": "contracts/SimpleMultSend.sol:myGame",
						"label": "players",
						"offset": 0,
						"slot": "4",
						"type": "t_mapping(t_address,t_struct(Player)34_storage)"
					}
				],
				"types": {
					"t_address": {
						"encoding": "inplace",
						"label": "address",
						"numberOfBytes": "20"
					},
					"t_array(t_struct(Player)34_storage)dyn_storage": {
						"base": "t_struct(Player)34_storage",
						"encoding": "dynamic_array",
						"label": "struct myGame.Player[]",
						"numberOfBytes": "32"
					},
					"t_enum(Level)22": {
						"encoding": "inplace",
						"label": "enum myGame.Level",
						"numberOfBytes": "1"
					},
					"t_mapping(t_address,t_struct(Player)34_storage)": {
						"encoding": "mapping",
						"key": "t_address",
						"label": "mapping(address => struct myGame.Player)",
						"numberOfBytes": "32",
						"value": "t_struct(Player)34_storage"
					},
					"t_string_storage": {
						"encoding": "bytes",
						"label": "string",
						"numberOfBytes": "32"
					},
					"t_struct(Player)34_storage": {
						"encoding": "inplace",
						"label": "struct myGame.Player",
						"members": [
							{
								"astId": 24,
								"contract": "contracts/SimpleMultSend.sol:myGame",
								"label": "playerAddress",
								"offset": 0,
								"slot": "0",
								"type": "t_address"
							},
							{
								"astId": 27,
								"contract": "contracts/SimpleMultSend.sol:myGame",
								"label": "playerLevel",
								"offset": 20,
								"slot": "0",
								"type": "t_enum(Level)22"
							},
							{
								"astId": 29,
								"contract": "contracts/SimpleMultSend.sol:myGame",
								"label": "firstName",
								"offset": 0,
								"slot": "1",
								"type": "t_string_storage"
							},
							{
								"astId": 31,
								"contract": "contracts/SimpleMultSend.sol:myGame",
								"label": "lastName",
								"offset": 0,
								"slot": "2",
								"type": "t_string_storage"
							},
							{
								"astId": 33,
								"contract": "contracts/SimpleMultSend.sol:myGame",
								"label": "createdTime",
								"offset": 0,
								"slot": "3",
								"type": "t_uint256"
							}
						],
						"numberOfBytes": "128"
					},
					"t_uint256": {
						"encoding": "inplace",
						"label": "uint256",
						"numberOfBytes": "32"
					}
				}
			},
			"userdoc": {
				"kind": "user",
				"methods": {},
				"version": 1
			}
		}
	}
}